S01C00006275696C642F64656275672F67656E657261746F722E7333379C
S3150800600000100020498400084F2C01084F2C010875
S315080060104F2C01084F2C01084F2C01084F2C010862
S315080060204F2C01084F2C01084F2C01080164000869
S315080060304F2C01088898010891630008433D010820
S315080060404F2C01084F2C01084F2C01084F2C010832
S315080060504F2C01084F2C01084F2C01084F2C010822
S315080060604F2C01084F2C01084F2C01084F2C010812
S315080060704F2C01084F2C01084F2C01084F2C010802
S315080060804F2C01084F2C01084F2C01084F2C0108F2
S315080060904F2C01084F2C01084F2C01084F2C0108E2
S315080060A04F2C01084F2C01084F2C01084F2C0108D2
S315080060B04F2C01084F2C01084F2C01084F2C0108C2
S315080060C04F2C01084F2C01084F2C01084F2C0108B2
S315080060D04F2C01084F2C01084F2C01084F2C0108A2
S315080060E04F2C01084F2C01084F2C01084F2C010892
S315080060F04F2C01084F2C01084F2C01084F2C010882
S315080061004F2C01084F2C01084F2C01084F2C010871
S315080061104F2C01084F2C01084F2C01084F2C010861
S315080061204F2C01084F2C01084F2C01084F2C010851
S315080061304F2C01084F2C01084F2C01084F2C010841
S315080061404F2C0108719200084F2C01084F2C0108AA
S315080061504F2C01084F2C01084F2C01084F2C010821
S315080061604F2C01084F2C01084F2C01084F2C010811
S31508006170F0B5114A114C124E00F00105E3695F07AC
S3150800618013D40DB9334213D103EA00078F4207D15E
S315080061900B4A1A40002A14BF6FF001000020F0BD18
S315080061A0013AEBD16FF00200F9E74FF0FF30F6E75E
S315080061B06FF00100F3E700BF8096980000000350D7
S315080061C0020001000B4B70B5D96911F480310DD16D
S315080061D001244FF48072084E084DF46020462C6462
S315080061E01A61FFF7C5FF3464EC6070BD6FF00100FB
S315080061F0FBE700BF000003500010035000200350C7
S315080062004FF4803238B50E4B0E4C9A66E56941F666
S31508006210713315400122E3630B4B0021DA60022338
S31508006220606121202361FFF7A3FF10B92120FFF742
S315080062309FFF0122054BDA600DB10023E36338BDE9
S315080062400090005000000350001003500020035037
S3150800625070B5134C6061E3695B071ED40E4656F8A9
S31508006260043B8D18A361AE420BD1042300212120E3
S315080062702361FFF77DFF58B9BDE870402120FFF77D
S3150800628077BF08210846FFF773FF10B1042323617F
S3150800629070BD56F8043BA361E5E74FF0FF30F7E71A
S315080062A0000003502DE9F84315464FF48032184B89
S315080062B089469A6603F51C33DF690646174041F698
S315080062C07132DA63012203F58053DFF84C80DA6015
S315080062D055B9284601220F4BDA601FB10022A3F5F3
S315080062E00053DA63BDE8F88306F5005404EA0804A7
S315080062F0A41BAC4228BF2C46494622463046FFF727
S31508006300A7FF0028E6D12644A1442D1BE0E700BFDD
S31108006310009000500020035000E0FFFF42
S315080063200B4A1168086806C881F30B88022181F3B5
S315080063301488203080F30988BFF36F8F4FF0000070
S3150800634080F31188104700BFAFF30080AFF30080D9
S315080063501C200020000000000000000000000000D3
S3150800636007480068006880F3088862B661B6BFF31C
S315080063704F8FBFF36F8F02DF00BF00BFAFF3008000
S3150800638008ED00E00000000000000000000000002A
S31508006390EFF309801EF0100F08BF20ED108AEFF307
S315080063A00B82734620E9FC0F114A116808604FF00A
S315080063B0300080F31188BFF34F8FBFF36F8F05F05E
S315080063C04BFA4FF0000080F31188094A11680868F3
S315080063D0B0E8FC0F13F0100F08BFB0EC108A82F378
S315080063E00B8880F309881847AFF30080AFF3008065
S315080063F01C20002000000000000000000000000033
S315080064001EF0040F0CBFEFF30880EFF30980044970
S31508006410084700BFAFF30080AFF30080AFF30080FA
S315080064201D3E01080000000001292DE9F04F4AD859
S3150800643089B30FF2D40BDBE900AB0FF2D409D9E923
S31508006440008935A7D7E9006735A5D5E9004536A3FC
S31508006450D3E900239FED1E5B9FED1F6B9FED207B0D
S315080064609FED214B80ED045B80ED004B80ED024BE8
S3150800647080ED066B80ED087BC0E90AABC0E90C89A4
S31508006480C0E90E67C0E91045C0E91223C0F8D0106C
S315080064900020BDE8F08F9FED165B0FF2940BDBE949
S315080064A000AB0FF29409D9E9008925A7D7E9006757
S315080064B025A5D5E9004526A3D3E900239FED0E6B54
S315080064C09FED0F7BCCE76FF07400E2E7AFF3008037
S315080064D0D89E05C15D9DBBCB07D57C362A299A6215
S315080064E017DD70305A0159910000000000000000C5
S315080064F008C9BCF367E6096A3BA7CA8485AE67BBC9
S315080065002BF894FE72F36E3C39590EF7D8EC2F151A
S31508006510310BC0FF6726336711155868874AB48E52
S31508006520A78FF9640D2E0CDBA44FFABE1D48B5479C
S31508006530F1361D5F3AF54FA5D182E6AD7F520E5171
S315080065401F6C3E2B8C68059B6BBD41FBABD9831F2B
S3150800655079217E1319CDE05B0348044B834202D0B0
S31508006560034B03B118477047803F0020803F002047
S3150800657000000000064B0749C91A891048BF0131B7
S31508006580491003D0044B0BB101481847704700BFA8
S31508006590803F0020803F00200000000010B5064C18
S315080065A0237843B9FFF7D8FF044B13B10448AFF378
S315080065B000800123237010BD8C29002000000000F4
S315080065C030A1010808B5054B1BB105490548AFF3CD
S315080065D00080BDE80840FFF7CDBF00BF00000000FF
S315080065E05010002030A10108A3F5803A704700BF7B
S315080065F0174B002B08BF134B9D46FFF7F5FF0021ED
S315080066008B460F461348144A121A11F0F2FB0E4B2A
S31508006610002B00D098470D4B002B00D09847002040
S31508006620002104000D000D48002802D00C48AFF3E5
S31508006630008009F0BBFA2000290011F048FB09F098
S31508006640CDF900BF000008000000000000000000AF
S315080066500010002000100020603400200000000018
S315080066600000000010B58CB004460BF0BEF80021FF
S31508006670102208A811F0BDFB01230E4A02A8CDE995
S3150800668003230D4B059407934FF4705302930BF0B5
S315080066909FF8029B06930CF0EBFD0023000240F0E6
S315080066A00100049001A903A8019310F053FC0CB053
S315080066B010BD00BF127100010906000670B58CB046
S315080066C00C46154606460BF090F80021102208A83D
S315080066D011F08FFB0123114A02A8CDE90323104BC1
S315080066E0059607934FF4705302930BF071F8029BCB
S315080066F006930CF0BDFD0023000240F00100214680
S315080067002A460490019303A801AB10F017FA044631
S3150800671003A810F0DEFC20460CB070BD1271000113
S315080067200906000610B50A4B86B0144602930023E4
S31508006730059103901A46CDE90033214405A80EF0C9
S3150800674005F8002814BFAC20002006B010BD00BF15
S315080067500D1801082DE9F041BEB0449D98462B68F6
S3150800676004460E461746002B56D06B68B3F5007FD5
S3150800677052D302A811F026FA4022002106A811F0E9
S3150800678038FBD8F804308BB1CDE900674021D8F83A
S315080067900030224A06A809F043F906A902A811F012
S315080067A028FA58B1AC203EB0BDE8F0813346402106
S315080067B01B4A009706A809F033F9EEE7092102A853
S315080067C011F013FA2068FFF74DFF16A80FF098FD91
S315080067D0216816A806F03EFC04460028E2D116A950
S315080067E002A811F004FA00942346D5E9001202A87B
S315080067F008F0A0FD04460028D4D1286811F038FB1B
S315080068006B680130984201D911F090FA686002A8C5
S3150800681011F0DCF92046C6E72F20C4E7E88901080D
S31508006820028A01082DE9F0414FF040080C46064659
S3150800683096B006AF002115463846424611F0D9FAF9
S3150800684005ABCDE901830097D4E900230F493068E9
S31508006850CDF8148010F09BFA0446A0B9059E6B6823
S315080068609E420ED832463946286811F0F4FA6B680B
S315080068709E4201D911F05AFA20466E6016B0BDE85C
S31508006880F0811920FAE7AC20F8E700BF09060006F0
S31508006890044808B500680DF090F9002814BFAE202A
S315080068A0002008BD2436002008B5034B18680DF0F3
S315080068B073F9002008BD00BF2436002038B5044609
S315080068C00D4620460AF0B1FF2B7C002857D0052B31
S315080068D059D0032B19D0042B3AD0012B01D0032011
S315080068E03AE00222214628460BF05DF8002833D10B
S315080068F0294628460BF09BF870BB95F82430002BE8
S315080069000CBF032305232B74DBE795F825209AB1E2
S31508006910214628462A7F0BF046F8E8B92946284634
S315080069200BF0C6F8C0B995F8253073B90223AA69E1
S315080069301A442A620423E6E72B7D013BDBB2022BCD
S315080069409CBF124AD25CAA61F0E72B7F0233EEE7BE
S3150800695095F824300BB1232038BDAA690AB9182046
S31508006960FAE7214628460BF01EF80028F4D12946F6
S3150800697028460BF0C5F80028EED10523C3E7052BFA
S3150800698001D00D20E8E70020E6E700BFA195010841
S315080069902DE9F04100240546A046154F86B000F1C2
S315080069A0AC06304601ABC4F500723919CDF804803F
S315080069B0FFF76EFFC0B194B10E4B04AA04934FF4CF
S315080069C0007302A92846CDE9027405930BF046FA2E
S315080069D0DDE9041285F8C0003046FFF765FF95F833
S315080069E0C00006B0BDE8F081019B1C44D9E700BF92
S315080069F08D2B00208D290020004870476810002044
S31508006A000021174B10B5174C03F19802626003F189
S31508006A10E0022360A26003F58673802204F1280051
S31508006A20C4E90411C4E90611C4E90811E36011F0C8
S31508006A30E0F90D4B2046C4F8A8300C4BC4F8B44016
S31508006A40C4F8B0300A4BC4F8BC40C4F8B8300123C7
S31508006A50084A84F8C0300849BDE8104011F061B909
S31508006A607496010868100020B4970108AC950108CF
S31508006A70C09501080C360020311E01087FB50E4668
S31508006A80002304460DF10601304615468DF80630FA
S31508006A9002938DF8073003930BF0A6F858BB9DF8C0
S31508006AA00630013B032B01D92F2024E0304602A9EA
S31508006AB00BF0CCF8F8B930460DF107010BF094F855
S31508006AC0C8B94FF400723046224903AB0BF0D7F829
S31508006AD088B99DF80630013B032BE5D8DFE803F0BB
S31508006AE0020D151D4FF4CB7160681A4A0368DE6AF9
S31508006AF0039BB047C8B104B070BD606840F29511F9
S31508006B000368144ADE6A039BF3E7606840F2931150
S31508006B100368104ADE6A039BEBE760684FF4C171AD
S31508006B2003680C4ADE6A039BE3E760680BF0BAFE6B
S31508006B30044608B12046DEE7029928460BF033F8EA
S31508006B40214628460BF02FF8284603990BF02BF818
S31508006B50F0E700BF993100200023F0B506460D4640
S31508006B60144685B0ADF80A308DF80930AB68296847
S31508006B70EA688B4294BF00235B1A8A4294BF0022BC
S31508006B80521A9A4201D1002034E028460DF10A0132
S31508006B900BF043F870BB28460DF109010BF024F8F9
S31508006BA040BB2046BDF80A100AF0EFFF10BB20468E
S31508006BB09DF809100AF0DBFFE0B99DF80930013BA2
S31508006BC0032B56D8DFE803F002182C3E0023706822
S31508006BD08DF80C300368BDF80A10DB6803AA9847DD
S31508006BE0D82800D030B920469DF80C100AF0BFFF0F
S31508006BF00028BBD005B0F0BD00237068ADF80C3096
S31508006C000368BDF80A105B6903AA9847D82801D01B
S31508006C100028EFD12046BDF80C100AF0B6FFE7E7CA
S31508006C200023706803930368BDF80A10DB6903AA9A
S31508006C309847D82801D00028DCD1204603990AF0C5
S31508006C40B2FFD5E700237068039303AA036800928E
S31508006C509F6A094A4FF40073BDF80A10B847D82846
S31508006C6001D00028C6D12046039A03490AF0A9FF95
S31508006C70BEE72620BEE700BF99310020F0B5CB78E5
S31508006C800C461546806885B003B9A830A378032B4F
S31508006C905AD8DFE803F041021A2E00268DF80C6058
S31508006CA003682188DB6803AA9847D82802D050B120
S31508006CB005B0F0BD31462A4620880BF06AF8002850
S31508006CC0F6D10020F4E703A9F5E700260368218832
S31508006CD05B69ADF80C6003AA9847D82803D000284A
S31508006CE0E6D103A900E031462A4620880BF064F86D
S31508006CF0E5E7002603682188DB69039603AA984717
S31508006D00D82803D00028D3D103A900E031462A4663
S31508006D1020880BF065F8D2E70026036803AA0092DC
S31508006D209F6A0A4A4FF4007321880396B847D82801
S31508006D3003D00028BCD1054900E031462B46039A0A
S31508006D4020880BF061F8BAE72620B1E799310020D0
S31508006D502DE9F341054608460C460AF073FD06463A
S31508006D6078B125480AF061FD58B186423246224973
S31508006D7028BF024620460AF0FAFD10B102B0BDE867
S31508006D80F0811E4F1C4E27E03368013AC6E90233EC
S31508006D90D7F80031C7F8042157F82300013303F068
S31508006DA03F030190C7F800312846CB69124A01A96A
S31508006DB098470028E2D120460AF044FD804630462E
S31508006DC00AF033FD80454246314628BF0246204632
S31508006DD00AF0CDFD0028D1D120460AF033FD2968F6
S31508006DE018B1D7F80421002ACED12846CB6802B0BC
S31508006DF0BDE8F041184700BF341200202C110020CE
S31508006E0070B504460D460E4E28460AF00EFD28B902
S31508006E1023682046BDE870409B68184731462846D7
S31508006E20FFF74CFD0D28EFD048B9236820469B692B
S31508006E300349984718B902480BF08FFBE4E770BD81
S31508006E406412002091F8273070B505460C464E8A24
S31508006E502BB10A7D0F4831460BF08EFBC8B96FF48B
S31508006E6080731E44032E13D8DFE806F002060409D1
S31508006E70E36AEB6000200CE0E36A2B61FAE794F81A
S31508006E80243083F001032B7603B1E36A6B61F1E7E3
S31508006E90A62070BD2C11002008B503480A7D498A32
S31508006EA00BF06AFB08BD00BF2C11002091F82630B4
S31508006EB070B50C46866803B9A83694F82730257D40
S31508006EC02BB12A46618A17480BF056FB48BB032D9F
S31508006ED026D8DFE805F016020E1133689B6894F889
S31508006EE02420618A5AB904F12C023046BDE8704064
S31508006EF0184733681B69F2E733689B69EFE7002296
S31508006F00F3E73368618ADD6A94F8243033B9E26AB4
S31508006F103046AC46A369BDE8704060470022F7E7F3
S31508006F20262070BD2C1100200A46498A10B5B1F5F5
S31508006F30A27F16D008D840F20513994218D0B1F5A9
S31508006F40A17F0ED0A62017E040F2A1139942F9D1ED
S31508006F5080680368DC6A9369A446BDE81040D26A73
S31508006F60604780682C320368BDE810401B691847E3
S31508006F70127D02480BF000FB10BD00BF2C1100204B
S31508006F802DE9F04100254B6892B0052B0746884647
S31508006F9016468DF805508DF806508DF8075040F2C4
S31508006FA0B5800A68023B13440DF1050102A8CDE934
S31508006FB00333029205920AF014FD0446002840F0B5
S31508006FC0A1800DF1060102A80AF00BFD044600286F
S31508006FD040F098800DF1070102A80AF002FD044668
S31508006FE0002840F08F80D8F804203368802A00F201
S31508006FF0888072687F2A40F2878003F108027E3310
S31508007000CDE907329DF806300692013B0992042B1A
S3150800701075D8DFE803F03603666D5E000020089A2F
S31508007020069B9A4288BFD41AE5B204463368002103
S3150800703003F10802CDE907230AA82022069309933B
S3150800704010F0D7FE022106A80AF009FC9DF80610E2
S3150800705006A841F080010AF002FC9DF8071006A870
S315080070600AF0FDFB214606A80AF01EFC294606A8DA
S315080070700AF0F5FB726805F10A03934248D910F045
S3150800708055FE012200257B682B480C932B4B8DF867
S315080070902C200A932A4BCDE90D5503F50172C0E958
S315080070A001230360C3600F958DF840500BF055FA25
S315080070B0244A254B02F50271C3E901121A60DA6007
S315080070C0224BC3F8045106AA02A90AA80BF079FABA
S315080070D0A5E701227B688DF82C200C931C4B0A939C
S315080070E0F1E703227B688DF82C200C93194BF6E701
S315080070F004227B688DF82C200C93174BEFE72A2087
S315080071008DE7C224002591E71924FBE719248DE7AA
S31508007110083573600AAA2946306800F04BFF9DF8C7
S315080071200600BDF82820023818BF012033685A53D4
S3150800713012B0BDE8F08100BF64120020D4950108A2
S31508007140952F00208D2D0020341200202C110020B0
S31508007150FC950108249601084C96010838B50024C8
S315080071600125144B144803F50172C0E90123036095
S31508007170C360C0E9084405744482047584610477D1
S3150800718084620BF0EAF90D4B0D4803F50272C0E96B
S3150800719001230360C360C0E908440574448204758A
S315080071A08461047784620BF0D8F9064BC3E940443E
S315080071B038BD00BF952F0020641200208D2D0020B9
S315080071C0341200202C11002010B440F26314A1429E
S315080071D0034612D0B1F5B27F07D2B1F5827F20D02F
S315080071E0B1F5B17F18D0A62009E040F29710814288
S315080071F0F9D102B112685A6211E01AB92F205DF866
S31508007200044B70471168094BA1F57A729A42F5D872
S315080072105DF8044B00F0C0BD02B112681A62002086
S31508007220EDE711685DF8044B00F082BEB8820100F4
S315080072302DE9F041002486B0884617461E460B22E3
S3150800724001AB03A9CDE90344CDE90144CDF81340C8
S3150800725000F05EFD0446002834D1019D0A2D0BD0AE
S315080072602F2401200BF0ACFC40B301211F20184A43
S3150800727003AB0BF098FC21E02A4602A903A808F004
S3150800728071FC029A04AB9A42A8F80000E8D12A4693
S3150800729002A90DF1110008F065FC029A0DF113031D
S315080072A09A423870DCD12A4602A905A808F05AFC89
S315080072B0029A0DF116039A423070D1D1204606B0D3
S315080072C0BDE8F08140F201239842F7D0C9E700BF34
S315080072D0278A01080023F0B587B001930C46D1E947
S315080072E0001201AB00F020FD40F20123984225D19F
S315080072F002AD2A46144B03F110072E461868596842
S31508007300083303C6BB423546F7D163680F2B02D84C
S31508007310192007B0F0BD256806AE134603CBB34265
S31508007320286069601A4605F10805F6D1102301930D
S31508007330019B6268934204D910F0F8FC0028E8D152
S31508007340F6E700206360E4E79C970108F0B5B1F51D
S31508007350AA7F97B0154606461A461C9C3CD8B1F536
S31508007360A07F09D840F20513994266D040F211135E
S3150800737099425BD0A6205EE06FF4A07319441329E6
S31508007380F8D801A353F821F075740008757300083E
S315080073908F74000875730008957400089B740008BC
S315080073A0A1740008A77400087573000875730008AF
S315080073B075730008757300087573000875730008FF
S315080073C0757300087573000875730008AD740008B6
S315080073D0B3740008BD740008B1F5C17F00F08B8056
S315080073E00ED840F2651399427BD0B1F5B37F7DD0B4
S315080073F0B1F5B27FBED12346294600F0E9FC19E073
S3150800740040F29313994200F0848040F29513994212
S31508007410B0D1CDE90D5205B9EAB933683046D3F88B
S3150800742080300DA9984730B90E9B21E0234629469E
S3150800743000F090FD48B317B0F0BD00F128073846B4
S31508007440039210F015FD039A0130CDE9060505975C
S31508007450089215B90AB110F069FC07AB00933046DB
S31508007460728A318A05AB00F01FFD0028E3D1089B1C
S3150800747023600AE003681B6B2946304698470028B4
S31508007480D9D1284610F0F4FC20600020D3E7036821
S315080074909B6BF1E703681B6CEEE703685B6CEBE735
S315080074A003689B6CE8E70368DB6CE5E703685B6DDC
S315080074B0E2E72346294600F02BFCBBE721230C9381
S315080074C003680DAF0392DB6D0B970BA99847039AD8
S315080074D00028B0D1134620212A4638460BF05CFB1B
S315080074E0D2E72346294600F07FFCA3E72346294630
S315080074F000F03CFD9EE7CDE909530DB9002BAAD152
S31508007500336830469B6F09A99847002893D10A9B90
S31508007510AEE7CDE90B520DB9002A9CD13368304647
S31508007520DB6F0BA99847002885D10C9BA0E700BF05
S3150800753070B54B680646602B0C461546A4B028D98C
S315080075408622002102A810F054FC0023862201930B
S31508007550304601AB02A900F047FC40F201239842ED
S3150800756010D184220C4902A8019210F074FC2268FA
S31508007570019902A800F034FD28606368984205D98D
S3150800758010F0D4FB0028F2D024B070BD6060002053
S31508007590FAE71920F8E700BF468A010870B596B0E1
S315080075A005462E220C460AA8002110F022FC0023CC
S315080075B02E220193284601AB0AA900F009FC40F2E5
S315080075C00123984225D118230193164B0AAD03F1DE
S315080075D018062A4618685968083303C2B34215467E
S315080075E0F7D12022002102A810F003FC019902AA73
S315080075F00AA800F0F5FC63680546984210D80246CA
S3150800760002A9206810F027FC63689D4205D910F08E
S315080076108DFB0028E5D016B070BD00206560FAE73E
S315080076201920F8E7CB8A010870B5B1F5B27F05468F
S3150800763016461C4692B000F0078117D840F211137F
S31508007640994260D06FF4A07319448BB2132B26D8D5
S31508007650132924D8DFE801F05E236B237885929FEF
S31508007660232323232323232323ACC7D440F29313B2
S31508007670994200F02E81B1F5CA7F1DD240F28113DE
S31508007680994200F01381B1F5C17F0AD240F2651321
S31508007690994200F0E480B1F5B37F00F0E780A620B8
S315080076A098E0FCD13146224609A80BF0E7F82846AF
S315080076B009A900F09FFB8DE040F2A113994200F062
S315080076C01C81B1F5D17F11D240F29513994200F091
S315080076D00A81B1F5CB7FE2D13146224609A80BF0E3
S315080076E0CDF8284609A900F0CDFB73E0D7D1002ACA
S315080076F0D5D03146224609A80BF0C0F8284609A974
S3150800770000F046FC66E02246314612B0BDE87040FD
S3150800771000F01ABC02B13CB900228249284612B0D0
S31508007720BDE8704000F018BA22463146F6E702B1C5
S315080077303CB900227B49284612B0BDE8704000F0EB
S3150800774033BA22463146F6E702B13CB900227549FA
S31508007750284612B0BDE8704000F04EBA22463146BF
S31508007760F6E702B13CB900226E49284612B0BDE8D8
S31508007770704000F053BA22463146F6E702B13CB9EA
S3150800778000226849284612B0BDE8704000F058BA91
S3150800779022463146F6E702B13CB90022614928463D
S315080077A012B0BDE8704000F05DBA22463146F6E7F1
S315080077B002B18CB92022002109A810F01AFB202159
S315080077C0594AAB8A09A808F02BF909A9024628469E
S315080077D000F06EFA12B070BD2246314612B0BDE80E
S315080077E0704000F065BA02B13CB90A224F492846F2
S315080077F012B0BDE8704000F085BA22463146F6E779
S3150800780002B1B4B9102105A80BF0A3F80223102180
S315080078100093212309AA05A80BF07DF90028D9D1E0
S3150800782009A810F025FB09A90246284600F076FAB1
S31508007830D0E7102C01D92F20CCE70223214600934C
S315080078403046212309AAE7E7002AF4D0002BF2D014
S315080078501A46314612B0BDE8704000F0B3BA224667
S31508007860314612B0BDE8704000F0B8BA02B1B4B9FA
S315080078700023CDE90933CDF82B302B6A09A80293EA
S31508007880EB8A0193EB6900936A8A298AAB690AF045
S31508007890B0FF0B22284609A900F062FB9AE72246A8
S315080078A0314612B0BDE8704000F05ABB02B154B977
S315080078B0002305AACDE909238DF81430284609A91D
S315080078C00BF02EF886E72246314609A80AF0D6FFBD
S315080078D0F4E73146224609A80AF0D0FF284609A946
S315080078E000F0A0FA76E73146224609A80AF0C6FF54
S315080078F0284609A900F0AEFA6CE732B9802231466B
S31508007900283010F076FA002064E77F2C93D82246B8
S315080079103146283010F09FFA00232C4484F828308A
S31508007920F1E700BFE28D0108E48A0108E78A010849
S31508007930012903BF034B00201B78A62008BF13703C
S31508007940704700BFB9330020022938B514461D46D2
S315080079500FD120220021084810F04BFA3CB1202D07
S315080079602A46214628BF2022034810F074FA002030
S3150800797038BDA620FCE700BF99330020104608B59D
S315080079806AB163B102290CD1202B28BF20231A46DD
S31508007990029B05491A6010F05EFA002008BD2F20E8
S315080079A0FCE7A620FAE700BF99330020012905D194
S315080079B002B11278024B00201A707047A620704751
S315080079C0B93300202DE9F0431D46002389B0074648
S315080079D008460E461446CDE9053300F09DFB18B956
S315080079E0D82009B0BDE8F083304605A900F0F6FBBB
S315080079F00028F6D1204600F08FFB0028F0D020465C
S31508007A0006A900F0EBFB0028EBD1DDE90596079007
S31508007A1007A9154800F0E2FB044600BB079919EBD5
S31508007A20010802D10EB110F081F902200BF0C8F856
S31508007A3048B1079B022100931F203B46CDE90196DA
S31508007A400A4A0BF0B0F86B689E420AD8324641469D
S31508007A50286810F000FA6B689E42E4D86E602046EB
S31508007A60BFE71924FBE700BF21720800F28A010864
S31508007A700023F0B585B007460E46254803A91546E6
S31508007A80039300F0ABFB002840D1224C236813B9BE
S31508007A90039810F0A5FFD5E900121F4B184610F001
S31508007AA0DAF903466868B0F5007F05D2C0F50072BA
S31508007AB0FF21184410F09DF902200BF081F848B117
S31508007AC06B680221019323681F200093134A039BC6
S31508007AD00BF069F8236803980F494FF400721844AD
S31508007AE010F07AFF3846216800F056FC70B9304627
S31508007AF0696800F051FC48B9002022686B68134495
S31508007B0013F03F021CBF40339B1A236005B0F0BD3B
S31508007B10217208009412002099310020108B010868
S31508007B2000200A4B10B5186032B9094C2146BDE849
S31508007B301040084800F030BCA1F500518C1801F03F
S31508007B40D7FA204607F052FDF0E700BF941200204E
S31508007B5000E00F0821720800014800F035BC00BF9C
S31508007B6000720800002307B50348019301AB00F033
S31508007B7059FB03B05DF804FB00720800014800F0E9
S31508007B80F3BB00BF0C72080010B506480C4600F09F
S31508007B90FDFA40F20123984202BF4FF6F173002026
S31508007BA0238010BD0C720800014800F00DBC00BF10
S31508007BB00D720800002307B50348019301AB00F0D6
S31508007BC031FB03B05DF804FB0D720800014800F0B4
S31508007BD0CBBB00BF0B72080010B506480C4600F078
S31508007BE0D5FA40F20123984202BF48F20103002069
S31508007BF0238010BD0B720800014800F0E5BB00BFEA
S31508007C000E720800002307B50348019301AB00F084
S31508007C1009FB03B05DF804FB0E720800014800F08A
S31508007C20D3BB00BF10720800002307B503480193B1
S31508007C3001AB00F0F7FA03B05DF804FB1072080018
S31508007C40014800F0C1BB00BF11720800002307B548
S31508007C500348019301AB00F0E5FA03B05DF804FBB5
S31508007C6011720800014800F0AFBB00BF127208008D
S31508007C70002307B50348019301AB00F0D3FA03B01C
S31508007C805DF804FB12720800014800F06DBB00BFE6
S31508007C900873080010B505480C4600F077FA40F25C
S31508007CA00123984204BF0020208010BD08730800F5
S31508007CB0014800F089BB00BF0F72080073B50026A3
S31508007CC001AB0E480C461546019600F0ABFA40F299
S31508007CD0012398420BD164B10C2D0CD920462A46B3
S31508007CE0074910F049F830462C4404F8016C02B0F4
S31508007CF070BD0B20FBE71920F9E700BF0F720800DB
S31508007D00358B0108014800F05FBB00BF047208000C
S31508007D10014800F087BA00BF04720800014800F065
S31508007D206DBB00BF1F720800014800F0D1BA00BF42
S31508007D301F720800014800F017BB00BF0772080051
S31508007D4037B512480D4600F021FA40F20123984251
S31508007D50044604D14FF470632B80002014E098B9D0
S31508007D602B88B3F5805FF8D301200AF029FF50B1BC
S31508007D704FF4B8732F220121CDE900322046044B77
S31508007D80044A0AF010FF2F2003B030BD077208001E
S31508007D90428B0108628B0108014800F0FDBA00BF5A
S31508007DA00872080010B506480C4600F017FA40F2AB
S31508007DB00123984202BF4FF47A730020236010BD56
S31508007DC008720800014800F0FFBA00BF09720800EF
S31508007DD0014800F027BA00BF09720800014800F000
S31508007DE0F3BA00BF0A720800014800F01BBA00BFC8
S31508007DF00A72080008B50A4602480349FFF738FE22
S31508007E0008BD00BF26720800277208000B46024A02
S31508007E1002490348FFF7D6BD2772080026720800F4
S31508007E20738B010808B50A4602480349FFF720FE86
S31508007E3008BD00BF24720800257208000B46024AD6
S31508007E4002490348FFF7BEBD2572080024720800E0
S31508007E508F8B010808B50A4602480349FFF708FE52
S31508007E6008BD00BF22720800237208000B46024AAA
S31508007E7002490348FFF7A6BD2372080022720800CC
S31508007E80B58B0108022307B5D1E9001201A80193B1
S31508007E90FEF748FC18B90199024800F07DFA03B0CC
S31508007EA05DF804FB207208001FB5022003900698AF
S31508007EB0009003A8FEF74EFC18B90399024800F093
S31508007EC06BFA05B05DF804FB20720800002370B554
S31508007ED0154886B00D461646049300F01DF908B3FA
S31508007EE0114804A900F07AF9D0B9049B3246002B50
S31508007EF008BF0223294605A80593FEF793FC044606
S31508007F0002200AF05DFE50B10294736802210193C3
S31508007F106B681F200093054A049B0AF044FE20461E
S31508007F2006B070BDD824EBE720720800CE8B010896
S31508007F30014800F031BA00BF21720800014800F07C
S31508007F404DB900BF21720800014800F03DBA00BFD4
S31508007F5029720800014800F065B900BF29720800B7
S31508007F60014800F04BBA00BF05720800014800F04E
S31508007F70AFB900BF05720800014800F0DDB900BFBF
S31508007F8028720800014800F0D9B800BF2872080016
S31508007F90032307B5D1E9001201A8019300F046F8BA
S31508007FA018B90199024800F0F7F903B05DF804FB27
S31508007FB0307208001FB513460022039203AA0192E5
S31508007FC0202200920A46014604480EF01FFE0028A9
S31508007FD014BFAC20002005B05DF804FB09000002C0
S31508007FE0014B0AF030BD00BF6B290108292828BFBC
S31508007FF0002010B4074C04EB8000074CD4E8AF4FC0
S315080080001CB1A4465DF8044B60475DF8044B0AF0C2
S31508008010E0BD00BFE497010898120020024BD3E8A0
S315080080208F0FC0B2704700BFC0360020F0B50446B7
S3150800803001258BB000680E4617460AF0CBFD1022C4
S31508008040002106A80FF0D5FE23680F4A03930F4BAD
S315080080503146CDE901354FF4007301A8CDE9043264
S315080080606B463A460EF06AFD044650B128460AF0B9
S31508008070A7FD28B1234629461520054A0AF093FD8F
S31508008080AC200BB0F0BD00BF0010C0040024800077
S31508008090198C010837B50E4D2C686CB90323224696
S315080080A02146009301200B4B0BF0B0FF23462246D6
S315080080B0214628600BF0F8FF286808B90FF036FE4D
S315080080C04FF0FF3103B0BDE830400CF05AB900BF9D
S315080080D0EC1200209C120020064B10B5186808B94F
S315080080E00FF024FE0023BDE810401A4619460BF08F
S315080080F0DBBF00BFEC12002050B1064B984205D0FA
S31508008100C0B200F5300040F0A060704740F2012090
S31508008110704700BF0BE000F007B50146064801AB03
S315080081206A46006809F084F9FFF7E6FFB0FA80F0BE
S31508008130400903B05DF804FB503600207FB50023E4
S3150800814004460D468DF807300AF055FDC0B10E4EAF
S3150800815003AB2146306802AA09F06AF9FFF7CCFF9B
S3150800816060B9039B214630680DF1070209F0BEF895
S31508008170FFF7C2FF10B99DF807302B7004B070BD29
S3150800818040F20120FAE700BF503600207FB50023F1
S3150800819004460D46ADF806300AF02DFDC0B10E4E68
S315080081A003AB2146306802AA09F042F9FFF7A4FF9B
S315080081B060B9039B214630680DF1060209F096F86E
S315080081C0FFF79AFF10B9BDF806302B8004B070BDD2
S315080081D040F20120FAE700BF503600207FB50023A1
S315080081E004460D4603930AF006FDB0B10C4E02ABE9
S315080081F02146306801AA09F01BF9FFF77DFF50B93F
S31508008200029B2146306803AA09F070F8FFF774FF4D
S3150800821008B9039B2B6004B070BD40F20120FAE751
S31508008220503600202DE9F0431D46002385B02B600B
S3150800823007460E4691460AF0DEFC00283ED0DFF8D7
S315080082408C8003AB3946D8F8000002AA09F0F0F88A
S31508008250FFF752FF0446B8B9039B93B3C6B14B4523
S3150800826031D232463946D8F8000009F03FF8FFF710
S3150800827043FFD8B9039B012B03D13378003B18BFC2
S31508008280012300222B60F254204605B0BDE8F08396
S31508008290012B01D02B60F7E73946D8F800000DF11D
S315080082A0070209F023F8FFF727FF08B10446EBE7B2
S315080082B09DF8073003B103982860E5E740F20124EA
S315080082C0E2E71E24E0E71924DEE700BF5036002067
S315080082D02DE9F3411C460023236005460E46174642
S315080082E00AF089FCF0B1DFF84C8001AB6A462946F2
S315080082F0D8F8000009F09CF8FFF7FEFE78B9019B54
S315080083009BB166B1BB4212D832462946D8F800005E
S3150800831008F0ECFFFFF7F0FE08B9019B236002B0F6
S31508008320BDE8F08140F20120F9E71E20F7E71920A1
S31508008330F5E700BF5036002013B504468DF8071040
S315080083400AF059FC58B107480123214600680DF187
S31508008350070208F081FFFFF7CFFE02B010BD2F20FD
S31508008360FBE700BF5036002013B50446ADF80610EB
S315080083700AF041FC58B107480223214600680DF16E
S31508008380060208F069FFFFF7B7FE02B010BD40F21B
S315080083900120FAE75036002013B5044601910AF089
S315080083A02AFC58B1042307480DEB0302214600684E
S315080083B008F052FFFFF7A0FE02B010BD40F2012000
S315080083C0FAE700BF5036002010B504460AF013FC41
S315080083D068B179B10848012A1346006838BF0123F5
S315080083E00A46214608F038FFFFF786FE10BD40F220
S315080083F00120FBE72F20F9E75036002010B5044688
S315080084000AF0F9FB58B101B962B907481346006882
S315080084100A46214608F020FFFFF76EFE10BD40F21F
S315080084200120FBE72F20F9E7503600200348044ACD
S315080084300449121A92100AF00BBC00BF70610008BA
S315080084401C6300086034002008B500F02FF8FFF719
S31508008450EDFF124B12498B4212D30020114B1249E1
S315080084608B4218D3FEF7C4F8186850F822405868AB
S3150800847040F82240013298688242F5D30C33EAE785
S315080084800022F8E71C6844F8220001325C68A24220
S31508008490F8D30833E4E70022F8E700BF38A101085B
S315080084A044A1010844A1010844A101084FF48041F0
S315080084B0124B134A70B59A60D3F88820114D42F4CE
S315080084C07002C3F88820104A05F5005491664FF0EB
S315080084D0FF3222660D4A62660222C3F8D020BFF335
S315080084E04F8FBFF36F8F4FF44036002002F092F89B
S315080084F00020E66002F080F82E6170BD00ED00E015
S31508008500006000080080004400900050F7FF370024
S31508008510014B1868704700BF14360020084B1B6FC4
S3150800852003F00703022B04D0032B05D0012B05D03B
S31508008530FEE7044B18687047034BFBE70348704790
S3150800854000800050143600201C360020002D310112
S3150800855008B5FFF7E3FF054B1B6FC3F3033301337E
S31508008560B0FBF3F0024B186008BD00BF0080005056
S31508008570103600200048704700B4C404014B186840
S31508008580704700BF1C36002000487047002D310197
S315080085904FF0B4429368C3F304430C2B0AD8DFE8C0
S315080085A003F00B0909090909072119091B1D1F00F1
S315080085B00F48704700207047936803F04073B3F183
S315080085C0807F11D0B3F1007F10D0002B094818BF67
S315080085D000207047084870470848704708487047A1
S315080085E00848704708487047084870470848704761
S315080085F0405DC60000093D00C0EA210180BA8C0131
S315080086000048E801005A62020024F40080841E0033
S3150800861040420F00014B1868704700BF183600200B
S3150800862070B59400224605460E4610F0D5F9431C4F
S315080086300AD058B92246314628460FF0B0FB002822
S31508008640034808BF002070BD0248FCE70248FAE765
S3150800865010E000F021E000F024E000F010B5044638
S3150800866010F0BEF9431C10D088B900F075FD2346FA
S3150800867020F003002044984201D1002010BD53F891
S31508008680042B0132F7D00348F8E70348F6E7034816
S31508008690F4E700BF0EE000F021E000F024E000F06F
S315080086A0044BD3F88420D206FBD4D3F88400C0F355
S315080086B0811070470040005038B5104B0546D3F876
S315080086C080300C4603F00303022B0BD0032B0DD08E
S315080086D0012B0FD1FFF722FF0E2305B1286004B145
S315080086E0236038BDFFF754FF0723F6E7FFF710FFAF
S315080086F00623F2E700231846EFE700BF0080005084
S3150800870038B5184B0546D3F820010C4600F007008B
S31508008710062823D8DFE800F0040A0E16121A1E00EF
S31508008720012305B1286004B1236038BDFFF7F0FEC8
S315080087300523F6E7FFF722FF0323F2E7FFF728FFF3
S315080087400723EEE7FFF720FF0223EAE7FFF7E0FE3D
S315080087500623E6E7FFF712FF0423E2E7002318469D
S31508008760DFE700BF0080005038B5174B0546D3F841
S3150800877028310C4603F00703013B052B20D8DFE818
S3150800878003F003131B0F0B17FFF7C2FE052305B1F2
S31508008790286004B1236038BDFFF7BAFE0623F6E762
S315080087A0FFF7F6FE0723F2E7FFF7E8FE0323EEE7F7
S315080087B0FFF7E4FE0423EAE7FFF7E6FE0223E6E70F
S315080087C000231846E3E700BF0080005073B50D4646
S315080087D00021114B0191D3F88041064604F00304A9
S315080087E0022C13D0032C0CD0012C13D101A8FFF7AF
S315080087F087FF10240EB1019B336005B12C6002B0CF
S3150800880070BDFFF7C5FE07240190F3E7FFF7BCFE2E
S315080088100190EFE70C46EDE700800050002337B5DE
S315080088200193164B0546D3F820320C4603F007038E
S31508008830042B21D8DFE803F0030B11161B000123D4
S315080088400DB1019A2A6004B1236003B030BD00213E
S3150800885001A8FFF789FF1223F2E7FFF799FE07231E
S315080088600190EDE70AF0FFF90A230190E8E7FFF720
S31508008870D1FE09230190E3E70023E1E700800050D9
S3150800888038B5104B0546D3F840310C4603F00303C0
S31508008890022B0BD0032B0DD0012B0FD10AF0E3F9D5
S315080088A00A2305B1286004B1236038BDFFF7B2FE7C
S315080088B00923F6E70AF0DAF90C23F2E70123002088
S315080088C0EFE700BF00800050002337B50193164B31
S315080088D00546D3F860320C4603F00703013B032B29
S315080088E01FD8DFE803F0020E1914002101A8FFF7CC
S315080088F007FF10230DB1019A2A6004B1236003B063
S3150800890030BD002101A8FFF7BBFF1123F2E7FFF7EF
S315080089103FFE07230190EDE7FFF736FE022301909D
S31508008920E8E70023E6E700BF00800050002337B5DC
S315080089300193164B0546D3F894320C4603F0070309
S31508008940013B032B1FD8DFE803F0020E19140021A0
S3150800895001A8FFF7D5FE10230DB1019A2A6004B1CC
S31508008960236003B030BD002101A8FFF789FF11235A
S31508008970F2E7FFF70DFE07230190EDE7FFF704FE88
S3150800898002230190E8E70023E6E700BF00800050D5
S3150800899038B5144B0546D3F800020C4600F007001C
S315080089A004281BD8DFE800F003090D111500012380
S315080089B005B1286004B1236038BD0AF054F90A23CA
S315080089C0F6E7FFF727FE0923F2E70AF04FF90C232B
S315080089D0EEE7FFF7BDFD0F23800AE9E700231846F7
S315080089E0E6E700BF0080005038B5144B0546D3F8BB
S315080089F008020C4600F0070004281BD8DFE800F040
S31508008A0003090D111500012305B1286004B123607F
S31508008A1038BD0AF028F90A23F6E7FFF7FBFD092314
S31508008A20F2E70AF023F90C23EEE7FFF791FD0F238F
S31508008A30800AE9E700231846E6E700BF00800050F1
S31508008A4038B5104B0546D3F840320C4603F00303FD
S31508008A50022B0BD0032B0DD0012B0FD10AF003F9F3
S31508008A600A2305B1286004B1236038BDFFF7D2FD9B
S31508008A700923F6E70AF0FAF80C23F2E701230020A7
S31508008A80EFE700BF0080005038B5104B0546D3F815
S31508008A9060310C4603F00303022B0BD0032B0DD0D9
S31508008AA0012B0FD10AF0DFF80A2305B1286004B1BB
S31508008AB0236038BDFFF7AEFD0923F6E70AF0D6F8BE
S31508008AC00C23F2E701230020EFE700BF00800050E7
S31508008AD0B0F5207F1FD009D8B0F5007F15D003D890
S31508008AE068B1B0F5C07F0AD000200CE0B0F5607F11
S31508008AF0FAD10B4BD3F88000C0F3011003E0084B02
S31508008B00186FC0F3033001307047054BD3F8900057
S31508008B10C0F30460F7E7024B186FC0F38020F2E752
S31508008B200080005002464FF48030104B10B598660E
S31508008B300020FFF7CDFF504341F671320C4BDC693C
S31508008B40DA635A6804F4803422F4401259B90949A0
S31508008B50884294BF00200120000502435A600CB1E8
S31508008B600022DA6310BD0449F2E700BF0090005006
S31508008B7000000350005A6202002D31011FB5002182
S31508008B8080280446CDE9001100F0998029D80028EC
S31508008B9000F09980A0F120043D2C35D83D2C33D81F
S31508008BA0DFE804F091999199A9A9A9A9A999B33CD3
S31508008BB0C9603C99999932323232323232329999B5
S31508008BC09968D399323232323232323232323232D2
S31508008BD032A9919191CE3C3CD8774DAE32323232A1
S31508008BE03288B0F5B06F00F090802DD8B0F5207FB0
S31508008BF071D00CD8B0F5C07F65D0B0F5007F65D0D0
S31508008C00B0F5807F00F08680009804B010BDB0F5FE
S31508008C10607F6BD00DD8B0F5407FF5D1FFF798FC93
S31508008C2002464FF42070FFF753FFB2FBF0F25208EA
S31508008C305AE0B0F5806F5ED0B0F5A06FE4D10021A0
S31508008C406846FFF7EBFDDFE7B0F5106F78D016D86A
S31508008C50B0F5E06F79D00AD8B0F5C06F6BD0B0F533
S31508008C60D06FD1D100216846FFF792FECCE7B0F568
S31508008C70F06FC9D100216846FFF706FFC4E7B0F5D3
S31508008C80406F3DD013D8B0F5206F63D0B0F5286F8C
S31508008C90BAD10021324B0391D3F8703203F00303A3
S31508008CA0012B02D103A8FFF7EBFD039B3CE0B0F5CF
S31508008CB0486FA9D100216846FFF738FEA4E7FFF7F9
S31508008CC02DFC0090A0E7FFF743FCFAE7FFF726FC28
S31508008CD00246204604E0FFF73BFC02464FF42070AC
S31508008CE0FFF7F6FEB2FBF0F200928DE701A8FFF758
S31508008CF0E3FC019AEDE700216846FFF701FD83E7EB
S31508008D0000216846FFF730FD7EE700216846FFF739
S31508008D105DFD79E74FF0E02302911B695B0705D5F6
S31508008D20FFF716FC0290029B00936DE703A902A8C1
S31508008D30FFF7A6FDF7E700216846FFF7A1FD63E701
S31508008D4000216846FFF750FE5EE700216846FFF7F8
S31508008D5077FE59E700216846FFF7B6FD54E700BFDE
S31508008D600080005008B58020FFF708FF034B9842A3
S31508008D709EBF4FF48032024B1A6708BD005A620242
S31508008D8000A00050B0F5207F10B50C4657D008D883
S31508008D90B0F5007F48D003D830B3B0F5C07F23D0F4
S31508008DA010BDB0F5607FFBD12949013CD1F8FC2004
S31508008DB012F080721EBFD1F8FC3023F08073C1F820
S31508008DC0FC302449D1F8803023F0300343EA0414F8
S31508008DD0C1F88040002AE3D01D4AD2F8FC3043F09F
S31508008DE08073C2F8FC30DBE709F074FF09F080FFF6
S31508008DF04FF48031184B174A1967136F013C23F457
S31508008E00704343EA04341467FFF7A2FB0446FFF7EE
S31508008E1047FCC0F10201204609F064FF00F02EF875
S31508008E20BDE81040FFF79EBF0A4A4C1ED2F89030A4
S31508008E3023F0F85343EA0464C2F89040B0E7054AC1
S31508008E404C1E136F23F4806343EA84231367A7E752
S31508008E5000ED00E0008000500090005008B50121A8
S31508008E60022000F02FF809F035FF09F041FF4FF412
S31508008E708032014B1A6708BD0090005008B54FF4C0
S31508008E80C070FFF77BFEBDE808400449884294BFDE
S31508008E90012102214FF42070FFF774BF80F0FA0217
S31508008EA0024A536B0342FCD1704700BF0040095089
S31508008EB0034A0179D36E23F030030B43D366704718
S31508008EC000400050F8B504461C4BD3F88420D10660
S31508008ED0FBD4D3F88430C3F381139C422CD0FFF71C
S31508008EE01DFB012C064602D1214609F0FBFE09F0BE
S31508008EF091FE4FF00072124B07465A66204609F05B
S31508008F0013FF4FF480630D4D621E93402B676B6E03
S31508008F109A0103D4D5F884309B060AD5384609F059
S31508008F207DFE022C08D13046BDE8F840002109F044
S31508008F30D9BED5F88430EAE7F8BD00BF0040005036
S31508008F400060005010B50C4608B9FFF7E7FA074B62
S31508008F5021461B783BB1064B984204D80120BDE850
S31508008F601040FFF7AFBF0220F9E700BFBA33002071
S31508008F70005A62024FF0004238B5244B244C5A6618
S31508008F804AF6CD33656C014605F00105236430BB0E
S31508008F900120FFF785FF6368DB0708D4002415B1B5
S31508008FA01B4B1C4A1A6409F0C0FE204638BD1A4BF2
S31508008FB058600846194B226BD20705D4984201D14E
S31508008FC00724ECE70130F6E79842E7D1F8E70132E3
S31508008FD0236B13F0080305D08A42F8D1F0E7002284
S31508008FE00E49F5E78A42EBD020210B4A916201210E
S31508008FF0A2F5805251600649084A886A800603D459
S315080090009342DDD00133F8E79342DEE70090005043
S31508009010004009503254FFFF0060095040420F00DB
S315080090204FF0004238B5164B01465A664AF6CD331C
S31508009030144C154A656C236443780B205B0043F097
S315080090400103D363FFF72CFF63688A7823F4F87368
S3150800905043EA02136360CA784B7943EA0223A360A2
S315080090600A798B7943EA022323610878FFF782FF9E
S31508009070EB0744BF054B236409F057FE012038BDB2
S315080090800090005000400950004000503254FFFF45
S315080090904FF00042124B70B55D6E03F580535A6669
S315080090A04AF6CD3304460F4980204E6C0B64FFF711
S315080090B0F7FE0B6A23F00F030F2C94BF234343F0EC
S315080090C00F030B62F30744BF074B0B64002DA2BFC7
S315080090D04FF00042054B5A6609F027FE70BD00BFE7
S315080090E000800050004009503254FFFF00A0005095
S315080090F04FF48032054B9A6641F6713203F51C33FC
S31508009100DA63012203F50053DA60704700900050D5
S3150800911041F671320121064BDA6303F50052D1603C
S315080091200022DA634FF48032A3F518339A66704743
S31508009130000003504FF48032064B5A6603F5E623C7
S315080091409B69C3F38512827003F03F021B0B4270C2
S3150800915003707047009000500120034B9B680A3348
S3150800916003F01F03984070470080E00F2DE9F8438D
S3150800917001F078FE0128074607D901F0A7FE051E6B
S3150800918004DA01242046BDE8F8830025DFF8788054
S3150800919098F8003003F0FF0683BB4FF05009184CCF
S315080091A004F110032046C4E90066A360C4F80C90D5
S315080091B001F0DCFE206640B90124012FE2D92846D9
S315080091C001F0A6FE0028DDDADBE70E4C314604F195
S315080091D0100322460120C4E90066C4E9023901F0F9
S315080091E087FF20660028E7D00321412001F020FAF6
S315080091F0412001F001FA012388F800300024DCE759
S3150800920004140020A0130020BB33002008B501F089
S3150800921029FE022805D04FF480620020064B9A6684
S3150800922008BD064B4FF0FF31186E01F0E1FE00282D
S31508009230F1D00120F4E700BF00900050041400208C
S315080092404FF4806208B5084B9A6601F00BFE0228B7
S3150800925007D1064B186E01F0FBFE003818BF012037
S3150800926008BD0020F9E700BF00A000500414002044
S3150800927008B54FF098435B6CD90208D501F0F2FDAA
S315080092800238012803D8094B186E01F0BFFF4FF0CA
S3150800929098435A6CD202FCD55B6D054A03F47023D9
S315080092A013604120BDE8084001F0B4B9A0130020BE
S315080092B02036002038B5054600283AD0FFF7A6FF25
S315080092C00446002836D1284609F075FF95F820305F
S315080092D043B94FF098435A6CD202FCD55D6D05F43C
S315080092E070251BE04FF09842936D43F00203936597
S315080092F001F0B8FD02281AD1104B4FF0FF31186E55
S3150800930001F04EFF4FF09842936D23F002039365E8
S3150800931090B94FF4A0220A4B1D681A60FFF790FF18
S3150800932004463DB12846BDE8384009F0FFBC204652
S31508009330E8E72124204638BD0124FBE7A0130020D6
S31508009340203600202DE9FF4700230E46174604461F
S31508009350009300285BD00AB1002958D037F00308DB
S3150800936007F0030A25D04FF000094FF0E063C4E97F
S315080093700039012301962046029301A948F00053BB
S31508009380C4F80890C4F81C90039309F001FF4146FD
S31508009390204609F007FF2046FFF78CFF054640B137
S315080093A04246494630460EF024FD284604B0BDE83C
S315080093B0F087BAF1000F28D04FF000094FF0E063AC
S315080093C0C4E900390123CDF804D00293114B204695
S315080093D001A9C4F80890C4F81C90039309F0D8FEB4
S315080093E00421204609F0DEFE2046FFF763FF054606
S315080093F008B13A46D5E7009A4644EB00013522FA09
S3150800940003F3AA4506F8013BF7D10025CDE7212548
S31508009410CBE700BF040000202DE9F0419046027812
S315080094200C46022A8AB032D0032A35D0012A38D10E
S3150800943014271D4A00F10C05226000229E01C4E98A
S315080094400122E2613146204609F0ACFE012320469E
S3150800945047F0005704A946F00056CDF80480029359
S31508009460039604950593069707950893099709F0B7
S3150800947085FE204601A909F081FE204607A909F0C4
S3150800948087FE2046FFF716FF0AB0BDE8F0812027C1
S31508009490064A00F10C05CFE72027054A00F10C051E
S315080094A0CAE72120F0E700BF000201030003010319
S315080094B00004010310B591B188B10023C0E9013356
S315080094C0084B00F10C0203F1200153F8044B8B42C0
S315080094D042F8044BF9D101230370002010BD212066
S315080094E0FCE700BFFC98010810B591B188B10023CC
S315080094F0C0E90133084B00F10C0203F1200153F8CF
S31508009500044B8B4242F8044BF9D102230370002026
S3150800951010BD2120FCE700BF3B8C010810B591B1B6
S3150800952088B10023C0E90133084B00F10C0203F1AE
S31508009530200153F8044B8B4242F8044BF9D103231C
S315080095400370002010BD2120FCE700BF5C8C0108D9
S315080095502DE9F04F0D46914604468BB000285ED0A3
S3150800956000295CD0002A5AD00278022A0CD0032A95
S315080095704DD0012A53D114262B4900F10C0B00F1CA
S3150800958004082C34374607E020261C27274900F113
S315080095900C0B00F104082C349F4240D8D8F804205C
S315080095A0002A3ED1D8F80030284603F03F0AC5E91C
S315080095B00012AA60EA61514609F0F4FD2846D8F877
S315080095C0001009F0EFFD01224AF00053284601A9D0
S315080095D046F0005647F00057CDF804B002920396BD
S315080095E0049405920693CDF81C900892099709F001
S315080095F0C5FD284604A909F0C1FD284607A909F0B2
S31508009600C7FD2846FFF756FE0BB0BDE8F08F2026AB
S31508009610074900F10C0B00F104082C34B2E72120AD
S31508009620F2E70F20F0E700BF00020303000303037D
S31508009630000403032DE9F04387B00D4691461E4604
S315080096400446DDF83880002836D0B8F1000F33D04C
S3150800965002B98BBB6B1EDBB2022B2DD8174AD75C1F
S315080096600F9B9F4228D80023280200F1407000F57E
S3150800967080703146C4E901332060E361204609F071
S3150800968091FD01236946204646F0005647F00057EB
S31508009690CDF8009001930296CDF80C8004930597B7
S315080096A009F06CFD204603A909F072FD2046FFF774
S315080096B001FE07B0BDE8F0832120FAE7F998010812
S315080096C0F0B50F4616461D46044693B010B921203C
S315080096D013B0F0BD0029FAD0002AF8D0002BF6D036
S315080096E0002331461A46384609F006FC0028EFD111
S315080096F0304602A909F0ADFB0028E9D1386834499B
S31508009700029A88426B695ED19342E0D32B68002B9C
S31508009710DDD14FF060623846C4E90023A360E361F7
S3150800972001A909F03FFC0028D2D10199204621F46D
S31508009730F061019109F036FD6946284609F032FCC8
S315080097400028C5D12046009909F02CFD384609A9FC
S3150800975009F0B6FC0028BBD1204609A909F00EFD80
S3150800976038460CA909F0B7FC0028B1D120460CA947
S3150800977009F004FDEB684BB1284606A909F0A0FCE0
S315080097800028A5D1204606A909F0F8FC304603A909
S3150800979009F0A1FC00289BD1204603A909F0EEFC9C
S315080097A028460FA909F097FC002891D120460FA951
S315080097B009F0EEFC03252046FFF77CFD012887D13A
S315080097C0013DF8D184E7B3EB420F9FD27FE700BF94
S315080097D0200000B070B50E46154604468AB000282B
S315080097E05CD000295AD0002A58D0012329461A46A7
S315080097F0304609F081FB00284ED1B36813F4C04FF8
S315080098004CD0AB6803F4C043B3F5005F46D1254B93
S31508009810A060C4E90030E06107A9304609F0C2FB40
S31508009820002839D12046079909F0BCFC0123029388
S315080098304FF00053204601A9039309F09FFC3046D8
S3150800984004A909F048FC38BB204604A909F096FC8F
S31508009850EB681BBBAB6803F4C043B3F5005F1DD1CF
S315080098606946284609F018FBB0B9009B6A699A420E
S3150800987016D32A6943F0005307920122204607A906
S3150800988008920325099309F083FC2046FFF712FD89
S31508009890012801D1013DF8D10AB070BD2120FBE7AE
S315080098A01D20F9E7000001022DE9F04391B00D46AD
S315080098B0DDE918760446DDF8688000286DD00029B1
S315080098C06BD0002F69D0B8F1000F66D0096801F097
S315080098D07041B1F1404F5BD0002B5BD1531E022B78
S315080098E05BD8120202F1C06202F580720023284694
S315080098F0C4E901332260E3610DA909F053FB00288E
S3150800990043D120460D9909F04DFC3146204609F011
S3150800991049FC284601A909F0D3FB002835D1204681
S3150800992001A909F02BFC284604A909F0D4FB60BB61
S315080099304FF00109204604A909F020FC46F000561C
S31508009940204607A90797CDF82090099609F016FC36
S315080099502B680A9703F07043B3F1404FCDF82C906B
S315080099600C9603D120460AA909F008FC0123CDF874
S3150800997034800E931B9B204643F000530DA90F938A
S3150800998009F006FC2046FFF795FC11B0BDE8F08308
S31508009990034AABE74FF0C062A8E72120F5E700BF0E
S315080099A0000002062DE9F0418CB00D46DDE912866D
S315080099B00446149F002867D0002965D0B8F1000F27
S315080099C062D0002F60D0896889045DD5296801F0C6
S315080099D07041B1F1404F4DD0002B4DD1531E022B93
S315080099E052D82A4B03EB022200232846C4E9013346
S315080099F02260E36109A909F0D5FA002837D1204683
S31508009A00099909F0CFFB3146204609F0CBFB694698
S31508009A10284609F055FB50BB6946204609F0AEFBBF
S31508009A20284603A909F057FB08BB204603A909F0F5
S31508009A30A5FB012346F00056CDF818800793089633
S31508009A4009970A93159B43F000530B932B6803F071
S31508009A507043B3F1404F11D109A9204609F08EFB96
S31508009A6006A9204609F08AFB2046FFF723FC0CB01E
S31508009A70BDE8F081064AB7E7064AB5E706A92046D3
S31508009A8009F07CFB09A9ECE72120F0E700010106B3
S31508009A90000003060000010610F1860F1BD010F126
S31508009AA0850F08DA10F1930F18D010F1870F07D039
S31508009AB04FF0FF307047003818BF0120404270470A
S31508009AC0094B99420DD0043399420CBF6FF07300CD
S31508009AD06FF06D0070476FF0710070476FF06F00A0
S31508009AE070476FF07200704705000002012910B533
S31508009AF00CDC084C084B00290CBF2146194600F01F
S31508009B0001FD2146BDE81040FFF7C6BF6FF07300A0
S31508009B1010BD00BF090000020800000208B509F0E0
S31508009B20DAFFBDE808400149FFF7B6BF09000002A1
S31508009B30002307B52022019301AB09F0E8FF03498A
S31508009B4003B05DF804EBFFF7A7BF00BF09000002EA
S31508009B5010B5044C214600F0D5FC2146BDE810405E
S31508009B60FFF79ABF0500000208B509F0B4FFBDE883
S31508009B7008400149FFF790BF05000002002307B51A
S31508009B801422019301AB09F0C2FF034903B05DF843
S31508009B9004EBFFF781BF00BF0500000238B5134D7F
S31508009BA0FFF7E4FA124B134A1349144805F046F92D
S31508009BB02B7803F0FF04BBB901F054F9012802D948
S31508009BC001F084F904462B782BB90D4B0D481B6818
S31508009BD0984701232B7001F045F9012804D920463E
S31508009BE0BDE8384001F094B938BD00BFBC33002049
S31508009BF0013201082732010867320108513201088B
S31508009C00483600209C210020012300F01F02A0F501
S31508009C1006200949A0F550604009934051F82020D4
S31508009C201A4341F82020054951F8202022EA030268
S31508009C3041F82020704700BF7C14002068140020DB
S31508009C400121A0F506230E4AA3F550635B0900F02F
S31508009C501F00814052F82300014342F823100949A6
S31508009C60D1E90030034488680344C8680969034495
S31508009C705B1802BFC2E90033C2E9023313617047B9
S31508009C80681400207C1400202DE9F04FA9B0029238
S31508009C901D46DDE9327804460822059103904140C5
S31508009CA021FA02F34B40980702F1080218BF9B00FD
S31508009CB0202A1C44F4D18123B4FBF3F303EBC3132A
S31508009CC0E41A724B04F506241B7804F55064002B3D
S31508009CD03ED105F081FC064620B16FF0910029B00F
S31508009CE0BDE8F08F0146402208A80EF082F840220F
S31508009CF0314618A80EF07DF8DFF8AC91DFF8ACA174
S31508009D00CB460BF10F0300931022049308A95B4678
S31508009D10DAF800000EF0BBFC0022014609F1100932
S31508009D2008AE914240D1049B10220093DAF8000055
S31508009D305B4618A90EF0B4FC4FF0000B034618AEAC
S31508009D405B453BD1524B9945DAD101224F4B1A70EC
S31508009D504FF0810B0026A4F506294E4AA9F5506353
S31508009D605B0952F8232004F01F01CA40D20739D4F0
S31508009D70494A52F82330CB40DB0728D5002E08BFC6
S31508009D8026468123A9F6FF44B4FBF3F303EBC3137A
S31508009D90E41A04F50624BBF1010B04F55064DAD184
S31508009DA0029BB3B1D6B914E056F8040BCDE90612F6
S31508009DB0FFF72AFF079A06990132B2E756F8040B0D
S31508009DC004930BF1010BFFF73BFF049BB8E7029BDB
S31508009DD013B96FF08B0082E706B92646349B00203C
S31508009DE01E607CE70FB100233B60B8F1000F02D07C
S31508009DF00023C8F800301023DFF8B0A000932A46E5
S31508009E0000232146DAF8000007F0BEFA002832D10E
S31508009E100FB110233B602A68204B9A4217D021467F
S31508009E20DAF8000007F048FB0028D2D1D5E902236A
S31508009E3003990598834208BF8A42A2D1029B002B48
S31508009E40CBD06B68012BC8D16FF0840047E7002F91
S31508009E50ECD0B8F1000FE9D043462146DAF8000005
S31508009E6018AA07F0E5FA30B9D8F800303A689B1A0C
S31508009E70C8F80030DAE70A4B9842D0D01233984235
S31508009E80CDD0084B9842D1D027E700BFBD3300207C
S31508009E90007108007C14002068140020105D175E0D
S31508009EA0FFDF00F0FEDF00F0006D080050360020EE
S31508009EB070B5124D2B7803F0FF04CBB900F0D2FF32
S31508009EC0012802D901F002F804462B784BB90C4850
S31508009ED0436D43F0010343650A4B1B68984701230A
S31508009EE02B7000F0BFFF012802D9204601F010F8B8
S31508009EF0BDE87040044B02481B681847BE33002073
S31508009F00901400204836002040360020034B1B786A
S31508009F101BB1034B03481B6818477047BE33002024
S31508009F203C360020901400202DE9F04F87B0824679
S31508009F30894698461646DDF840B02AB1002B53D01C
S31508009F4040F26C739A4252D8BBF1010F52D80024E2
S31508009F5006F1100739460120059409F0BBFE0546AF
S31508009F6000284AD021463A460DF043FFFFF7A0FFE6
S31508009F7005ABCDE9014300942B46012250464946DC
S31508009F80FFF782FE044690B110F18C0F08BF6FF000
S31508009F908D043A46002128460DF02BFF284609F085
S31508009FA07BFEFFF7B3FF204607B0BDE8F08F144BE2
S31508009FB0C5E902A92B60C5F804B02EB13246414660
S31508009FC005F110000DF047FF059E0E483B462A4650
S31508009FD03146006807F040F918B93046FFF714FE15
S31508009FE0D7E76FF09104D4E76FF08604DBE76FF0EC
S31508009FF09104D8E76FF08504D5E76FF08C04D2E7B3
S3150800A000105D175E503600202DE9F0478CB081466A
S3150800A010DDE914780C4616461D466BB1B8F1000FFB
S3150800A02049D0002F47D0B7F1005F44D3C3F100539E
S3150800A03003F500339F423ED84FF0000A1022002154
S3150800A04008A80DF0D6FECDE905AAFFF731FF07AB44
S3150800A050029305AB019306AB214600935246484648
S3150800A06008ABFFF711FE0446D0B9059B3DB1B342D4
S3150800A0701CD853EA060504D06FF0860410E0B342F4
S3150800A080FAD3069B0D48C8F8005000953A4607993A
S3150800A0900068334407F078F9002818BF6FF0910478
S3150800A0A0FFF734FF20460CB0BDE8F0879B1B9D42A6
S3150800A0B028BF1D46E5E76FF08604F3E75036002013
S3150800A0C070B500260C4605468CB01022002108A85B
S3150800A0D00DF08FFECDE90566FFF7EAFE07AB0293A2
S3150800A0E005AB019306AB214600933246284608ABDA
S3150800A0F0FFF7CAFD0446D8B9099B012B1DD0079D59
S3150800A100114B2946186807F0D7F9C8B90122A5F5F1
S3150800A11006230E49A3F550635B0905F01F0082402C
S3150800A12051F823004240284641F82320FFF788FDCE
S3150800A130FFF7ECFE20460CB070BD6FF08404F7E71D
S3150800A1406FF09104F4E700BF503600207C1400201D
S3150800A150F8B5134642880C460732072A4FEAD20159
S3150800A16001D0A1424DD146680588C7682022184605
S3150800A17000210DF03EFE360A0346002E44D1002C7F
S3150800A1803FD041F20102954205D0B5F5885F02D06D
S3150800A190B5F5905F02D15C60002011E0B5F5105F5F
S3150800A1A007D1182C03D0202C01D0102C29D11C60E3
S3150800A1B0F1E705F44F42B2F5824F02D06FF0850001
S3150800A1C0F8BDEAB2122AF9D1202CF7D1104A25F0A7
S3150800A1D0FF05B5F5E24F02600CD0B5F5824F10D1F8
S3150800A1E04FF4005217F4705F09D017F4864F04D065
S3150800A1F09A60E3E74FF48042F4E742F480629A609B
S3150800A200CAE76FF08600DBE76FF08B00D8E700BF80
S3150800A210200000802DE9F04F99460388164603F47E
S3150800A2204F42B3B0B2F5824F0F46DDF8F88002D040
S3150800A2306FF0850002E021B96FF0860033B0BDE803
S3150800A240F08F002EF8D0B8F1000FF5D0DAB2122A46
S3150800A250EED123F0FF03B3F5E24F31D14388C8F8B6
S3150800A260003043BBF300C8F80030D8F80030B3F527
S3150800A270807FDDD1002318464B49BC19314414F8B8
S3150800A280012D11F8015D1043521B18BF0023A74288
S3150800A29043EA0203F3D10028CED0002BCCDA3C9B4C
S3150800A2A09E427DD83246394648460DF0D4FD3D9B40
S3150800A2B000201E60C2E70733B6EBD30FD5D0BBE745
S3150800A2C0B3F5824F69D10B78042BB5D1242200212E
S3150800A2D019A80DF08EFD19A808F058FD8246002829
S3150800A2E058D14FF0400B22AD01465A4628460DF08C
S3150800A2F080FD012320225146741E01A88DF888305E
S3150800A3000DF077FD7B1C20225146069409A8E4002F
S3150800A310059364080DF06DFD2022514611A8CDE97C
S3150800A3200D5B0DF066FDB4F5C07FCDE9155BC8F889
S3150800A33000403FF47DAF28D8E02C03D0B4F5807FE9
S3150800A3407FF47AAF194B0734019309934FF40053FE
S3150800A35003934FF48043E4080B9301AA11AB6400FE
S3150800A36009A919A81294FFF7ABF9D8F800300733F2
S3150800A370DB085A0033B10021531E013B297005F151
S3150800A3800105FAD200288AD056E7B4F5047F3FF4CF
S3150800A3904FAF51E76FF0920050E76FF096004DE728
S3150800A3A06FF089004AE700BF1C9901082000008069
S3150800A3B0038810B503F44F42B2F5824F18BF002345
S3150800A3C00E4C21F0FF026FF30801A142DBB20FD059
S3150800A3D00B498A420CD0122B0DD14388B3F5807FE6
S3150800A3E009D1B2F1062F14BF6FF08500002010BD09
S3150800A3F06FF08600FBE76FF08500F8E700020006BD
S3150800A40000130006164B20F4FF7222F001029A424E
S3150800A41010D0144A20F0FF0393420BD020F47F712A
S3150800A42021F00301A2F57062914203D002F5A06201
S3150800A43093420FD110F0FF0011D00B4B40F0007083
S3150800A440984209D00133984208D0043BC31A5842AF
S3150800A4505841704700207047022070470320704714
S3150800A4600002000600130006080000022DE9F04766
S3150800A4708CB01746DDE914A498460E4609B9002A99
S3150800A48038D1B8F1000F02D1BAF1000F32D18CB32E
S3150800A4901B4B984212D00133984213D0043B984282
S3150800A4A02BD114234FF001099A4523600ED20023BD
S3150800A4B06FF0890023600CB0BDE8F0871C234FF0CD
S3150800A4C00209F1E720234FF00309EDE703A808F096
S3150800A4D05DFC054610B16FF09200ECE73B4632464C
S3150800A4E04946CDE9008A03A8FFF7A4F80028E2D078
S3150800A4F02560F0E76FF08600DDE76FF08500DAE7A4
S3150800A5000800000230B50D4604468BB030B3031D73
S3150800A5106C22002118460DF06CFC134A954211D0A6
S3150800A5200132954214D0043A95421AD1012201A962
S3150800A5302270FEF7BFFF002814BF6FF092000020BC
S3150800A5400BB030BD022201A92270FEF7CDFFF2E75B
S3150800A550032201A92270FEF7E1FFECE76FF08600FF
S3150800A560EEE76FF08500EBE70800000207B5094B38
S3150800A57018689A889B7900906846ADF804208DF88B
S3150800A5800630FEF74DFD0C20FEF782FD002003B0D5
S3150800A5905DF804FB3C99010813B50024064A684691
S3150800A5A0536F43F00103536700948DF80440FEF798
S3150800A5B07FFC204602B010BD004000506FF0040337
S3150800A5C0502110B50A480B4C13F0800F03F1010215
S3150800A5D006D123444C2A83F800131346F4D110BD40
S3150800A5E003F00F03043B034419761346ECE700BF58
S3150800A5F000ED00E000E100E0002807DB0123410947
S3150800A600034A00F01F00834042F82130704700BF1C
S3150800A61000E100E0002808DB01224309034900F0B5
S3150800A6201F008240603341F82320704700E100E0B4
S3150800A6300028ACBF00F16040064B4FEA0111C9B2D1
S3150800A640ABBF00F5614000F00F0080F80013195405
S3150800A650704700BF14ED00E073B508F0DBFA0D4D46
S3150800A6600D4B2E781C6808F0D9FA09F077FB38B13B
S3150800A670FF2E05D00020297801AA08F0E1FA019CEE
S3150800A6802CB908F0C7FA054B1C6808F0C7FA20462B
S3150800A69002B070BDC1360020F4140020F814002062
S3150800A6A010B5044608F0B6FA024B1C6008F0B6FA74
S3150800A6B0002010BDF814002013B5002301241A4603
S3150800A6C019461846009404F00FFF002300941A4612
S3150800A6D01946184604F03AFF0248FFF7E1FF002042
S3150800A6E002B010BD2836002073B50024684600F075
S3150800A6F013FB0C4B00981C600B4B0C4D1C600C4E4E
S3150800A7000C4B306018602C6009F006FB2046019B54
S3150800A7103268083BDB0853802B6801332B6002B094
S3150800A72070BD00BF00150020FC1400200415002091
S3150800A7300C150020081500202DE9F04F00261546B7
S3150800A74089B04A1C0C4614BF89464FF0080998463A
S3150800A7500796002B00F0DB801E60002800F0D980E9
S3150800A760C71D08F05EFA27F0070B07AB21460390D2
S3150800A77000932A463346584600F0D8FA079C064600
S3150800A78004B130B9039808F052FA192009B0BDE8A7
S3150800A790F08FDFF89CA16288DAF80010D300C0EBCE
S3150800A7A0C2020139272A0493CAF8001040F28280AF
S3150800A7B0002D5AD183450BF1080551D0494620464C
S3150800A7C009F024FA81460790079A02EB050B5846CA
S3150800A7D009F0A2FA0799C5F3CF054A88ABF80450E1
S3150800A7E0521BABF80220CA88002A3BD0551BADB2D3
S3150800A7F001EBC202ABF8065095808A884849A9F849
S3150800A8000420BBF80420FF08A9F806200A68A9F85E
S3150800A8100270944208BFC1F800B042490A689442DF
S3150800A82001D1C1F800B099F8002042F0010289F878
S3150800A8300020DAF800200132CAF800203A4A0398C4
S3150800A840136833441360394A11688B4288BF136012
S3150800A85008F0EDF909F108030020C8F8003095E77B
S3150800A860A146B1E7ABF80620C7E704EB020948465C
S3150800A870059209F051FA079C059AF108E088A9F8AB
S3150800A8800210D108A9F8041088B1049BC3EBC001D3
S3150800A8903144C1F3CF0104EBC000A9F8061081804A
S3150800A8A0083AD2086280B9F80420E280BBE7A9F822
S3150800A8B00600F5E7012D2ED104F10802B2FBF9F1E5
S3150800A8C009FB11224AB34946204609F09FF98146F9
S3150800A8D099F80020DAF8003042F00102104F114DC5
S3150800A8E089F8002083B13B689C4204D14946002080
S3150800A8F000F064FA38602B689C429FD149460120D3
S3150800A90000F05CFA286099E73B602B6096E7222006
S3150800A9103CE721203AE78345D5D1A146D8E700BFD1
S3150800A9200C1500200815002000150020FC14002036
S3150800A930041500202DE9F7430446684600F0ECF9B3
S3150800A940002C00F0938008F06CF914F808CC8146C6
S3150800A9501CF0010F00F08C8034F8062C002A00F059
S3150800A9608780444D34F8047CD5F800E0511C0EF17C
S3150800A9700103A4F1080689B22B60002F6ED0A6EB5E
S3150800A980C70393F800800CF0020C18F0010F57D19A
S3150800A990BCF1000F57D1598802320A4491B2C5F862
S3150800A9A000E034F802CCBCF1000F5BD0DDE90070A2
S3150800A9B006EBCC020744BA4254D216F83C6016F0AD
S3150800A9C001070CD15688578001363144D68889B29A
S3150800A9D0002E45D002EBC6022E68013E2E6014F802
S3150800A9E0085C25F0010504F8085C002524F8065CD7
S3150800A9F04C1E5C801C7865F300041C70002A33D05A
S3150800AA00D41AC4F3CF04DC8094801B4C22681AB194
S3150800AA109A4201D8528802B92360184C22681AB1A2
S3150800AA209A4201D3528802B92360154A48461368E8
S3150800AA305B1A136008F0FBF8002003B0BDE8F0834A
S3150800AA40BCF1000F0AD014F8082C0F4422F00202B9
S3150800AA5004F8082C0022B9B29A80A2E73346A0E788
S3150800AA603246B9E70022BAE7DA80CEE72220E4E7E1
S3150800AA700120E2E7041500200C1500200815002027
S3150800AA80001500202DE9F74F04460D461646002A04
S3150800AA9000F032810023136048B9002900F02F81A5
S3150800AAA00146284603B0BDE8F04F09F0EFB821B9D2
S3150800AAB003B0BDE8F04FFFF73DBF08F0B2F80090CD
S3150800AAC034F8060CE91D4FEAC00821F00705A84529
S3150800AAD0A4F1080B80F08F8034F8023C002B70D06C
S3150800AAE00BEBC30A1BF83330DA076AD4BAF802C08C
S3150800AAF0A8EB050313EBCC0363D41F2BDFF81492E2
S3150800AB00804F48DDC1F3CF0104EB050B24F8061C82
S3150800AB10013124F8021C5846019309F0FDF834F86F
S3150800AB20021C019BABF80410BAF80610C3F3CF0356
S3150800AB30ABF8023039B101339BB2ABF806300AEBF9
S3150800AB40C1018B8001E0ABF80610504609F0E4F825
S3150800AB50D9F800304BB15946002000F02FF9594674
S3150800AB603860012000F02AF901E000203860664BC1
S3150800AB7018603460654A13682B44A3EB0803136016
S3150800AB80634A11688B4200D91360009808F04FF8A1
S3150800AB904FF000091FE0D9F8001000EB0C0301394B
S3150800ABA09BB2C9F80010591C24F8061CBAF80610FE
S3150800ABB021B102339BB224F8023CC0E724F8021CF8
S3150800ABC0C3E732460021284609F060F8814630B1CD
S3150800ABD0009808F02CF8484603B0BDE8F08F4246C6
S3150800ABE0214630680DF037F92046FFF7A3FE814667
S3150800ABF00028BFD0ECE77DD934F8023CA8EB05075E
S3150800AC00002B49D00BEBC3091BF83330DB0744D4C0
S3150800AC10C1F3CF0104EB050A24F8061C013150469E
S3150800AC2024F8021C09F078F8B9F8023034F8022C36
S3150800AC3003EBD703AAF80420B9F806209BB2AAF8B2
S3150800AC400230CAB101339BB209EBC202AAF8063038
S3150800AC509380484609F060F82E4B1B687BB1514635
S3150800AC60002000F0ABF8274B51461860012000F091
S3150800AC70A5F8254B186007E0AAF80620E9E700239F
S3150800AC80204A1360204A1360204B34601A68154422
S3150800AC90A5EB08051D6078E79946272FF4D9C1F377
S3150800ACA0CF0104EB050A24F8061C0131504624F8A6
S3150800ACB0021C09F031F834F8022CC7F3CF03AAF8BE
S3150800ACC00230AAF80420B9F1000F0FD0B9F806200F
S3150800ACD062B101339BB209EBC209AAF80630A9F89A
S3150800ACE004300C4A136801331360B7E70023AAF847
S3150800ACF00630F6E7346048E74FF022096BE74FF075
S3150800AD00210968E70C150020081500200015002009
S3150800AD10FC140020041500200249034A0160521A57
S3150800AD2042607047803F002000000220F0B54C1CAE
S3150800AD30074608BF0821AAB91E480468002C37D060
S3150800AD406688DB0003EBC606C1F1000C2078C00755
S3150800AD500AD52ABBE08850B304EBC004668803EB27
S3150800AD60C606F3E71448E8E7BE42F2D362B904F12F
S3150800AD700805B5FBF1F001FB1055E8190DB1B04215
S3150800AD80E8D8059B1C60F0BD08290ED065880135FA
S3150800AD9004EBC505E81B00EA0C00281A8642F0D227
S3150800ADA0A08820B1A4EBC004D8E73846E9E70446F2
S3150800ADB02046E6E70C1500200815002013B50446C2
S3150800ADC0084621B96846FFF7A7FF4CB900980378EB
S3150800ADD0DA0717D53CB9C388B3B100EBC300F6E769
S3150800ADE0124B1868F3E7012C0ED1838863B1A0EBE8
S3150800ADF0C300ECE7C3881BB100EBC303104612E09F
S3150800AE003AB1104602B010BD6846FFF785FF00222A
S3150800AE1000980378DB07EDD4002CF3D0C388002B09
S3150800AE20F0D000EBC30302461846F2E708150020E7
S3150800AE30EFF3058373B9EFF31082094B12B9EFF3F9
S3150800AE40118212B11A68022A04D0186828B9012298
S3150800AE501A6070476FF0050070474FF0FF30704773
S3150800AE60D01A002008B500F0E9FD38B1022804D050
S3150800AE70034B1868431E5842584108BD0320FCE797
S3150800AE80D01A002010B5EFF30583BBB9EFF3108392
S3150800AE900D4C13B9EFF3118313B12368022B0DD0B0
S3150800AEA02368012B0DD16FF004000021FFF7C0FBCA
S3150800AEB00223236000F09CFB002010BD6FF0050004
S3150800AEC0FBE74FF0FF30F8E7D01A002008B5EFF39C
S3150800AED0058393B9EFF3108313B9EFF311831BB10D
S3150800AEE00A4B1B68022B08D000F0A8FD40B10228C7
S3150800AEF008D100F0B5FB002008BD6FF00500FBE7A0
S3150800AF000120F9E74FF0FF30F6E700BFD01A00201E
S3150800AF1010B50446EFF3058303BBEFF3108313B9AB
S3150800AF20EFF311831BB1104B1B68022B16D000F0F0
S3150800AF3085FD30F0020314D1012C03D100F090FBFB
S3150800AF40204610BD6CB900F025FC0128F8D000F0A9
S3150800AF5075FD841E18BF4FF0FF34F1E76FF0050446
S3150800AF60EEE74FF0FF34EBE7D01A002070B5054640
S3150800AF70EFF3058616B10024204670BDEFF3108264
S3150800AF8012B9EFF311821AB1184A1268022AF2D0DE
S3150800AF9015B16E683307EED406F001067DB1D5E922
S3150800AFA0021351B14F2BE6D9DEB1042009F0EAF8B5
S3150800AFB004460028DFD02D680AE0002BDBD196B1C5
S3150800AFC0042009F009F904460028D4D0002DF2D14E
S3150800AFD02946204600F0F6F9002ECDD044F00104AB
S3150800AFE0CAE70120E2E70120EBE700BFD01A0020FC
S3150800AFF0034610B520F001000C4603F00102EFF3FA
S3150800B0000581E9B9EFF3108111B9EFF3118119B18F
S3150800B0100E490968022913D0012B14D9214662B1B9
S3150800B02009F02FFA012801D1002010BD002C14BF09
S3150800B0306FF001006FF00200F7E709F0A2F9F1E7F7
S3150800B0406FF00500F1E76FF00300EEE7D01A002075
S3150800B050024608B520F0010002F00103EFF305816E
S3150800B060C9B9EFF3108111B9EFF3118119B10D497F
S3150800B070096802290FD0012A10D93BB109F097F8BF
S3150800B08001280CBF00206FF0020008BD1A461946B9
S3150800B09009F00AF8F4E76FF00500F6E76FF0030029
S3150800B0A0F3E700BFD01A002010B5034620F00104CC
S3150800B0B0EFF305829AB9EFF3108212B9EFF3118212
S3150800B0C01AB10A4A1268022A09D0012B0AD920465F
S3150800B0D000F08AF9204609F019FA002010BD6FF031
S3150800B0E00500FBE76FF00300F8E700BFD01A002061
S3150800B0F073B50E461546EFF3058393B9EFF3108340
S3150800B10013B9EFF311831BB1244B1B68022B08D02C
S3150800B11038B1B04205D355B1D5E902322BB14F2A21
S3150800B12023D80024204602B070BD002AF9D1012890
S3150800B1300ED103220021012008F083FF1DE01A46E4
S3150800B140314608F09BFF04460028EAD02D6807E040
S3150800B150314608F0A0FF04460028E2D0002DF5D1BC
S3150800B1602946204600F02EF9DCE70128E7D103221C
S3150800B17000920022114608F049FF04460028D0D064
S3150800B180002EEBD000231A46194608F08DFF012839
S3150800B190E4D0204609F0BAF9C3E700BFD01A002068
S3150800B1A013B50C4668B3EFF305834BB9EFF3108379
S3150800B1B013B9EFF31183D3B1134B1B68022B16D1C6
S3150800B1C0FCB9214601AA019409F072F9012803D0B5
S3150800B1D06FF0020002B010BD019B0BB90020F9E721
S3150800B1E04FF0E0234FF08052C3F8042DF6E72146CE
S3150800B1F009F0C7F80128F1D0002CE9D06FF001005A
S3150800B200E8E76FF00300E5E7D01A002007B550B36A
S3150800B210EFF305834BB9EFF3108313B9EFF31183FB
S3150800B220CBB1124B1B68022B15D1002301A9019340
S3150800B23009F016F8012804D06FF0020003B05DF893
S3150800B24004FB019B2BB14FF0E0234FF08052C3F86B
S3150800B250042D0020F2E700231A46194608F024FFB9
S3150800B2600128F6D0E8E76FF00300E7E7D01A0020D8
S3150800B270034B0360034B0B60A0231360704700BFAA
S3150800B280701A0020F0170020034B0360034B0B6075
S3150800B290A0231360704700BF9017002010150020E8
S3150800B2A0002307B50193054B1B6808F0CDFD019BEC
S3150800B2B0002BFCD003B05DF804FB00BF3436002039
S3150800B2C04FF0E02200234FF47A7113619361044B27
S3150800B2D01B68B3FBF1F3013B536107231361704706
S3150800B2E01036002008B508F0AFFD044A136801338C
S3150800B2F01360BFF34F8FBFF36F8F08BD343600203E
S3150800B300044B1A681A68013A1A60186808B908F0EE
S3150800B310A6BD70473436002010B54FF0807440E95A
S3150800B3200224184A4FF0123440F80C2C4FF003321E
S3150800B3304FF0023C40E905244FF0013240F8203C2A
S3150800B34040E9072C4FF010334FF011324FF0093413
S3150800B35040E90A324FF008334FF0073C40E90C3415
S3150800B3604FF006334FF0053240E90E3C4FF00433F8
S3150800B37040E910326FF0020340F8443C40F8481D9B
S3150800B38010BD00BFA1B200084FF0E02310B500249D
S3150800B390D3F8202D42F47F02C3F8202DD3F8202DB0
S3150800B3A042F07F42C3F8202DFFF78AFF044B1C604A
S3150800B3B0FAF7D6FF00F050FAFFF772FF204610BDE5
S3150800B3C034360020002330B5064A52F8335002EBD3
S3150800B3D0C3041DB942F83310606030BD01330A2B2F
S3150800B3E0F3D1FAE7D41A0020002310B5084A52F818
S3150800B3F03310DC00814206D10021064A42F8331098
S3150800B4002244516010BD01330A2BF0D1FAE700BF80
S3150800B410D81A0020D41A00202DE9F0410446FFF777
S3150800B42061FF2D4B2D4E1A682D4F01321A60356873
S3150800B430002D43D134601B68012B1FD1B846404606
S3150800B440013508F08EFC382D08F11408F7D1DFF81D
S3150800B450B880244D404608F084FC284608F081FC54
S3150800B460214808F07EFC214808F07BFC204808F0BB
S3150800B47078FC204BC3F800801F4B1D6014201F4A20
S3150800B4801368013313601E4A23641168E36A8B420A
S3150800B49000FB037004F1040188BF136008F06FFC19
S3150800B4A0FFF72EFF174B1B689BB13368DA6AE36A0E
S3150800B4B09A420ED2BDE8F04108F093BC114B1A68C7
S3150800B4C0E36A002ADAD13268D26A9A4298BF3460AF
S3150800B4D0D4E7BDE8F08100BF481B00201C200020EF
S3150800B4E0BC1B0020941B0020781B0020641B002036
S3150800B4F04C1B0020901B00208C1B00202C1B0020BE
