S01C00006275696C642F64656275672F67656E657261746F722E7333379C
S31508000000001000202910000823A6000823A60008CF
S3150800001023A6000823A6000823A6000823A600088E
S3150800002023A6000823A6000823A60008911701089E
S3150800003023A60008AC38010821170108E52B01089A
S3150800004023A6000823A6000823A6000823A600085E
S3150800005023A6000823A6000823A6000823A600084E
S3150800006023A6000823A6000823A6000823A600083E
S3150800007023A6000823A6000823A6000823A600082E
S3150800008023A6000823A6000823A6000823A600081E
S3150800009023A6000823A6000823A6000823A600080E
S315080000A023A6000823A6000823A6000823A60008FE
S315080000B023A6000823A6000823A6000823A60008EE
S315080000C023A6000823A6000823A6000823A60008DE
S315080000D023A6000823A6000823A6000823A60008CE
S315080000E023A6000823A6000823A6000823A60008BE
S315080000F023A6000823A6000823A6000823A60008AE
S3150800010023A6000823A6000823A6000823A600089D
S3150800011023A6000823A6000823A6000823A600088D
S3150800012023A6000823A6000823A6000823A600087D
S3150800013023A6000823A6000823A6000823A600086D
S3150800014023A6000823A6000823A6000823A600085D
S3150800015023A6000823A6000823A6000823A600084D
S3150800016023A6000823A6000823A6000823A600083D
S3150800017023A6000823A6000823A6000823A600082D
S3150800018023A60008F134000823A6000823A60008C1
S3150800019023A6000823A6000823A6000823A600080D
S315080001A023A6000823A6000823A6000823A60008FD
S309080001B023A600086C
S315080001B4F0B5114A114C124E00F00105E3695F07C8
S315080001C413D40DB9334213D103EA00078F4207D17A
S315080001D40B4A1A40002A0CBF00206FF00100F0BD3C
S315080001E4013AEBD16FF00200F9E74FF0FF30F6E77A
S315080001F46FF00100F3E700BF8096980000000350F3
S31508000204020001000B4B70B5D96911F480310DD188
S3150800021401244FF48072084E084DF46020462C647D
S315080002241A61FFF7C5FF3464EC6070BD6FF0010016
S31508000234FBE700BF000003500010035000200350E2
S315080002444FF4803238B50E4B0E4C9A66E56941F682
S31508000254713315400122E3630B4B0021DA60022354
S31508000264606121202361FFF7A3FF10B92120FFF75E
S315080002749FFF0122054BDA600DB10023E36338BD05
S315080002840090005000000350001003500020035053
S3150800029470B5134C6061E3695B071ED40E4656F8C5
S315080002A4043B8D18A361AE420BD1042300212120FF
S315080002B42361FFF77DFF58B9BDE870402120FFF799
S315080002C477BF08210846FFF773FF10B1042323619B
S315080002D470BD56F8043BA361E5E74FF0FF30F7E736
S315080002E4000003502DE9F84315464FF48032184BA5
S315080002F489469A6603F51C33DF690646174041F6B4
S315080003047132DA63012203F58053DFF84C80DA6030
S3150800031455B9284601220F4BDA601FB10022A3F50E
S315080003240053DA63BDE8F88306F5005404EA0804C2
S31508000334A41BAC4228BF2C46494622463046FFF742
S31508000344A7FF0028E6D12644A1442D1BE0E700BFF9
S31108000354009000500020035000E0FFFF5E
S315080003600348044B834202D0034B03B11847704736
S31508000370B4380020B438002000000000064B0749B6
S31508000380C91A891048BF0131491003D0044B0BB173
S3150800039001481847704700BFB4380020B438002019
S315080003A00000000010B5064C237843B9FFF7D8FFC4
S315080003B0044B13B10448AFF300800123237010BD2A
S315080003C0BC290020000000004C4C010808B5054B6C
S315080003D01BB105490548AFF30080BDE80840FFF7A3
S315080003E0CDBF00BF00000000501000204C4C010893
S315080003F0A3F5803A704700BF174B002B08BF134B75
S315080004009D46FFF7F5FF00218B460F461348144A11
S31508000410121A10F00DFF0E4B002B00D098470D4B0B
S31508000420002B00D098470020002104000D000D483D
S31508000430002802D00C48AFF3008009F015FB200015
S31508000440290010F04DFD09F0EDF800BF0000080086
S31508000450000000000000000000100020001000202E
S31508000460882B00200000000000000000012903BFBF
S31508000470034B00201B78A62008BF1370704700BFE7
S31508000480DD290020022938B514461D460FD1202241
S315080004900021084810F0CCFE3CB1202D2A46214602
S315080004A028BF2022034810F0F8FE002038BDA620F9
S315080004B0FCE700BFBD290020104608B56AB163B144
S315080004C002290CD1202B28BF20231A46029B054956
S315080004D01A6010F0E2FE002008BD2F20FCE7A620D7
S315080004E0FAE700BFBD290020012905D102B112781B
S315080004F0024B00201A707047A6207047DD2900209D
S315080005002DE9F0431D46002389B0074608460E46E6
S315080005101446CDE9053300F0EBFB18B9D82009B02D
S31508000520BDE8F083304605A900F044FC0028F6D162
S31508000530204600F0DDFB0028F0D0204606A900F092
S3150800054039FC0028EBD1DDE90596079007A918487C
S3150800055000F030FC044600BB079919EB01081ED1D0
S315080005600EB110F0F5FC022009F0CFFFA0B1079BF1
S31508000570022100931F203B46CDE901960D4A09F05A
S31508000580B7FF6B689E4210D832464146286810F07D
S3150800059084FE6B689E42E4D86E602046BFE7022060
S315080005A009F0B3FF0028ECD0E1E71924F5E700BF0E
S315080005B02172080020360108014800F0F5BC00BF8A
S315080005C000720800002307B50348019301AB00F049
S315080005D015FC03B05DF804FB00720800014800F042
S315080005E0B3BC00BF0C72080010B506480C4600F0F4
S315080005F0B9FB40F20123984202BF4FF6F17300207F
S31508000600238010BD0C720800014800F0CDBC00BF65
S315080006100D720800002307B50348019301AB00F0EB
S31508000620EDFB03B05DF804FB0D720800014800F00D
S315080006308BBC00BF0B72080010B506480C4600F0CC
S3150800064091FB40F20123984202BF48F201030020C1
S31508000650238010BD0B720800014800F0A5BC00BF3E
S315080006600E720800002307B50348019301AB00F09A
S31508000670C5FB03B05DF804FB0E720800014800F0E4
S3150800068093BC00BF10720800002307B50348019306
S3150800069001AB00F0B3FB03B05DF804FB1072080071
S315080006A0014800F081BC00BF11720800002307B59D
S315080006B00348019301AB00F0A1FB03B05DF804FB0E
S315080006C011720800014800F06FBC00BF12720800E2
S315080006D0002307B50348019301AB00F08FFB03B075
S315080006E05DF804FB12720800014800F02DBC00BF3B
S315080006F01872080010B505480C4600F033FB40F2A6
S315080007000123984204BF0020208010BD18720800FB
S31508000710014800F049BC00BF0F72080073B50026F7
S3150800072001AB0E480C461546019600F067FB40F2F1
S31508000730012398420BD164B10C2D0CD920462A46C8
S31508000740074910F038FD30462C4404F8016C02B015
S3150800075070BD0B20FBE71920F9E700BF0F720800F0
S315080007603E360108014800F01FBC00BF04720800AD
S31508000770014800F043BB00BF04720800014800F0BE
S315080007802DBC00BF1F720800014800F08DBB00BFDA
S315080007901F720800014800F0D7BB00BF07720800A7
S315080007A037B512480D4600F0DDFA40F201239842AB
S315080007B0044604D14FF470632B80002014E098B9E6
S315080007C02B88B3F5805FF8D3012009F09EFE50B15F
S315080007D04FF4BF732F220121CDE900322046044B86
S315080007E0044A09F085FE2F2003B030BD07720800C1
S315080007F04B3601086B360108014800F0BDBB00BF47
S315080008000872080010B506480C4600F0D3FA40F204
S315080008100123984202BF4FF47A730020236010BD6B
S3150800082008720800014800F0BFBB00BF0972080043
S31508000830014800F0E3BA00BF09720800014800F059
S31508000840B3BB00BF0A720800014800F0D7BA00BF60
S315080008500A7208000B46024A02490348FFF750BECF
S3150800086027720800267208007C3601080B46024AE1
S3150800087002490348FFF744BE25720800247208009F
S31508000880983601080B46024A02490348FFF738BE64
S315080008902372080022720800BE360108022307B533
S315080008A0D1E9001201A8019307F04CFC18B9019987
S315080008B0024800F061FB03B05DF804FB20720800F3
S315080008C01FB5022003900698009003A807F052FC73
S315080008D018B90399024800F04FFB05B05DF804FB10
S315080008E020720800002370B5154886B00D461646D6
S315080008F0049300F0FDF908B3114804A900F05AFA68
S31508000900D0B9049B3246002B08BF0223294605A806
S31508000910059307F099FC0446022009F0F6FD50B14C
S3150800092002947368022101936B681F200093054A9D
S31508000930049B09F0DDFD204606B070BDD824EBE720
S3150800094020720800D7360108014800F015BB00BF21
S3150800095021720800014800F02DBA00BF2172080074
S31508000960014800F021BB00BF29720800014800F0C9
S3150800097045BA00BF29720800014800F02FBB00BF26
S3150800098005720800014800F08FBA00BF057208001A
S31508000990014800F0C1BA00BF28720800014800F0FB
S315080009A0B9B900BF28720800032307B5D1E90012B8
S315080009B001A8019300F010F918B90199024800F04E
S315080009C0DBFA03B05DF804FB3072080000200A4B1E
S315080009D010B5186032B9094C2146BDE810400848E0
S315080009E000F0CABAA1F500518C18064809F0D6FDE0
S315080009F0204608F017FCEFE76810002000E03108F1
S31508000A00217208007C1000202DE9F74F1C460023B0
S31508000A1080460F46254801A91646019300F0CAF9F3
S31508000A2038BB234D01992B681BB9224809F09DFD57
S31508000A30F8B9D4E9009313F00301DDF804B0D5F84A
S31508000A4000A0D8F828200DD003F10408A8EB010867
S31508000A50424511D3A8EB030209EB0300FF2110F06E
S31508000A60E7FB43464A4613480BEB0A0109F083FDA8
S31508000A7020B103B0BDE8F08F1920FAE73846296897
S31508000A8000F07AFA0028F4D13046616800F074FA6A
S31508000A900028EED12B6862680020134413F03F0249
S31508000AA01CBF40339B1A2B60E3E700BF2172080086
S31508000AB0681000207C10002008B5034A0B4603493D
S31508000AC0FFF7A2FF08BD00BF2772080026720800BC
S31508000AD008B5034A0B460349FFF796FF08BD00BF52
S31508000AE0257208002472080008B5034A0B46034914
S31508000AF0FFF78AFF08BD00BF2372080022720800AC
S31508000B001FB513460022039203AA019220220092DF
S31508000B100A46014604480DF012FF002814BFAC200F
S31508000B20002005B05DF804FB09000002014B09F03E
S31508000B3030BC00BFB7A2000830B4084BD3E8EF2F8B
S31508000B40541CC3E8E54F002DF8D1002A02DC30BC5E
S31508000B5000F026B8002030BC704700BF6C1000209B
S31508000B602A2828BF002010B4074C04EB8000074C45
S31508000B70D4E8AF4F1CB1A4465DF8044B60475DF856
S31508000B80044B09F0CBBC00BF2237010870100020C7
S31508000B90024BD3E88F0FC0B2704700BFD02E00209B
S31508000BA008B50A4BD3E8EF2F511CC3E8E01F00280D
S31508000BB0F8D1002A07DD064B06481B68D96808F0F5
S31508000BC02BFE10F0C5F9002008BD00BF74100020E8
S31508000BD0802E0020CA37010870B5044688B0006820
S31508000BE00D46164609F09BFC23684FF400710793DF
S31508000BF001230B4A02A8CDE902230A4B3246CDE966
S31508000C00041300232946069301AB0DF025FE014681
S31508000C1018B1054808F0DAFEAC2008B070BD00BF70
S31508000C20002480000010C004FD370108014B19603C
S31508000C30704700BF78100020014B1960704700BF4D
S31508000C4078100020014B0360704700BF6838010820
S31508000C5010B50446034B082103600BF0A2FB20469F
S31508000C6010BD00BF683801080448054B054A0360F3
S31508000C7000230549436010F064B900BF7C100020CA
S31508000C8068380108342D0020450C000837B50E4D8C
S31508000C902C686CB9032322462146009301200B4B8E
S31508000CA012F09FFB234622462146286012F0D4F80C
S31508000CB0286808B910F04CF94FF0FF3103B0BDE8C9
S31508000CC0304012F043BA00BFD41000208410002030
S31508000CD0064B10B5186808B910F03AF90023BDE8B4
S31508000CE010401A46194612F0B7B800BFD4100020B3
S31508000CF007B5014606486A4601AB006801F0C4FB21
S31508000D0009F05AFCB0FA80F0400903B05DF804FB1C
S31508000D10502E00207FB5002304460D468DF8073077
S31508000D2009F056FCC0B10E4E2146306803AB02AA44
S31508000D3001F0AAFB09F040FC60B92146039B306824
S31508000D400DF1070201F01AFB09F036FC10B99DF8FF
S31508000D5007302B7004B070BD40F20120FAE700BFDF
S31508000D60502E00207FB5002304460D46ADF8063008
S31508000D7009F02EFCC0B10E4E2146306803AB02AA1C
S31508000D8001F082FB09F018FC60B92146039B306824
S31508000D900DF1060201F0F2FA09F00EFC10B9BDF8E1
S31508000DA006302B8004B070BD40F20120FAE700BF80
S31508000DB0502E00207FB5002304460D46039309F004
S31508000DC007FCB0B10C4E2146306802AB01AA01F00F
S31508000DD05BFB09F0F1FB50B92146029B306803AA78
S31508000DE001F0CCFA09F0E8FB08B9039B2B6004B0C4
S31508000DF070BD40F20120FAE7502E00202DE9F0439D
S31508000E001D46002385B02B6007460E46914609F01D
S31508000E10DFFB00283ED0DFF88C803946D8F8000082
S31508000E2003AB02AA01F030FB09F0C6FB0446B8B9C9
S31508000E30039B93B3C6B14B4531D232463946D8F8EF
S31508000E40000001F09BFA09F0B7FBD8B9039B012B08
S31508000E5003D13378003B18BF012300222B60F254DC
S31508000E60204605B0BDE8F083012B01D02B60F7E7DB
S31508000E703946D8F800000DF1070201F07FFA09F0AB
S31508000E809BFB08B10446EBE79DF8073003B10398CE
S31508000E902860E5E740F20124E2E71E24E0E719248A
S31508000EA0DEE700BF502E00202DE9F7431D4600233C
S31508000EB02B6006460F46904609F08AFB00B3DFF81A
S31508000EC054906A463146D9F8000001AB01F0DCFAC5
S31508000ED009F072FB044678B9019BA3B167B1434593
S31508000EE013D83A463146D9F8000001F047FA09F016
S31508000EF063FB60B9019B2B60204603B0BDE8F08315
S31508000F0040F20124F8E71E24F6E71924F4E704461C
S31508000F10F2E700BF502E002013B504468DF80710DF
S31508000F2009F056FB58B107480123214600680DF120
S31508000F30070201F0DFF909F03FFB02B010BD2F20D0
S31508000F40FBE700BF502E002013B50446ADF8061087
S31508000F5009F03EFB58B107480223214600680DF107
S31508000F60060201F0C7F909F027FB02B010BD40F2EE
S31508000F700120FAE7502E002013B50446019109F026
S31508000F8027FB58B104230748214600680DEB0302E6
S31508000F9001F0B0F909F010FB02B010BD40F20120D3
S31508000FA0FAE700BF502E002010B5044609F010FBE2
S31508000FB068B179B10848012A1346006838BF012389
S31508000FC00A46214601F096F909F0F6FA10BD40F2F4
S31508000FD00120FBE72F20F9E7502E002010B5044624
S31508000FE009F0F6FA58B101B962B90748134600681C
S31508000FF00A46214601F07EF909F0DEFA10BD40F2F4
S315080010000120FBE72F20F9E7502E00200348044A69
S315080010100449121A921009F005BB00BFB401000872
S3150800102060030008882B002008B500F02FF8FFF7AA
S31508001030EDFF124B12498B4212D30020114B124975
S315080010408B4218D3FFF7D8F9186850F82240586829
S3150800105040F82240013298688242F5D30C33EAE719
S315080010600022F8E71C6844F8220001325C68A242B4
S31508001070F8D30833E4E70022F8E700BF544C010828
S31508001080604C0108604C0108604C01084FF480412F
S31508001090144B154A70B59A60D3F88820134D42F45C
S315080010A07002C3F88820124A05F5005491664FF07D
S315080010B0FF3222666FF4003262660D22A2660222B1
S315080010C0C3F8D020BFF34F8FBFF36F8F4FF440366E
S315080010D0002003F015FD0020E66003F003FD2E61F5
S315080010E070BD00BF00ED00E000000008008000446D
S315080010F0009000502DE9F04F144606460D469B46D3
S31508001100C36B87B001225B6902A960689847F36BD5
S3150800111001225B6903A92846984702A809F080FEC0
S31508001120074648B10023A37563754FF0FF33A360E4
S31508001130002007B0BDE8F08F03A809F07EFE012362
S31508001140A375237E04EBC303DD611F846368AB428A
S315080011500ED1206003A809F092FE4FF0FF332075E8
S31508001160A360237D043B022B26D80023A375DFE763
S3150800117023681A1A53425341A37503A809F07FFE40
S31508001180237D834218BFA77503A809F05AFE0746B0
S3150800119002A809F056FE874218BF002303A818BF05
S315080011A0A37509F056FE074602A809F052FE8742C3
S315080011B01CBF0023A375D4E703A809F042FE80B13B
S315080011C0F36B022228465B6904A9984704A809F02C
S315080011D047FE0346207D032839D8DFE800F0383873
S315080011E0040903A8F3E7CC22237E04EBC3031A847D
S315080011F001F08AFA109B187003A8277E09F015FEDD
S3150800120004EBC70787F82200237E03A804EBC30371
S31508001210B3F8209093F8227009F013FE804603A8CD
S3150800122009F017FE8246B8F1000F15D0F36B0222BB
S3150800123028465B6904A9984704A809F0D6FD607595
S31508001240637D6BB90023A3754FF0000838E0227E52
S3150800125004EBC2021384CBE703A809F0B1FDEEE75D
S3150800126094F81680B8F1000FEED0B9F1000F09D145
S31508001270DFB10123627EE375002A44D19F4218D16B
S31508001280677614E0736C05EB0A02594285EA020098
S3150800129008421CBF0021A175591E0A409B1A994590
S315080012A0D0D8A37D002BE3D1CEE7E37D43B94FF039
S315080012B000084B4652462946304609F0F3FAA06024
S315080012C0A27D12B123694B4423611449237E097810
S315080012D099421ED901332376BBF1000F1BD0D2B138
S315080012E0E37DC3B1B8F1000F15D1032F13D0A16860
S315080012F04B1C10D0109B2246009330460123FFF763
S31508001300F9FEA07507E0012FDAD0032F08BFA376F0
S31508001310CDE70023A375A07D0BE700BF1C390108A4
S315080013202DE9F04F0E46984600238BB004464FF041
S31508001330FF31104617468DF8133001F0CFF9B6F590
S31508001340801F3BD3B21C53D1E56A6B1C57D120468C
S31508001350616A09F0EDF90546B31C18BF0123DFF8E9
S3150800136010910193636A626C0293236805A902FBD4
S31508001370053AE36B05225B695046984705A809F0CC
S31508001380EAFD09F00DFE504609F015FE4FF0000B78
S31508001390824601464B1C05D0636C81EA0A025B4211
S315080013A0134232D02946204609F0C2F9029BAB42C5
S315080013B04DD0BBF1000F4DD10546D3E7314605AAFE
S315080013C004F1080009F07EFC0146481C10D0384696
S315080013D001F084F90122394620460DF1130309F07C
S315080013E0B3FA28B19DF8133088F80030002003E0DE
S315080013F0237C002BA8D12D200BB0BDE8F08F2368E5
S31508001400ED1A636CB5FBF3F5A6E7484601F066F9F5
S315080014100DF1130349462046019A09F095FA034649
S3150800142090B1B21C03D0D9F80020B2420CD19DF875
S31508001430132003930D4B88F8002049461A6838464E
S315080014400FF02BFF039B9B46D9F80810A2E7BBF1C8
S31508001450000FD0D0B6F5801FC8D2314698F80030B4
S315080014607A6804F1080001F07FF8BFE71839010827
S315080014700C1100202DE9F3410446174698460E46FE
S31508001480194D816AE36A8B422AD04B1C18E028461C
S3150800149001F024F90122294620460DF1070309F037
S315080014A053FA30B14346294620469DF80720B847E7
S315080014B0B0B1A9684A1C05D0012E0AD0E36A994240
S315080014C0E5D10DE06968204609F0BFF9012E01460D
S315080014D0D8D16B6881EA0302636C5B421A42D1D0A9
S315080014E002B0BDE8F08100BFE01000202DE9F04110
S315080014F0036B9046826B07689A4288BF8363426C87
S31508001500436A90B002FB0377C36B0E46052201A916
S315080015105B6904463846984701A809F01CFD01286E
S315080015200146307057D0656CE26B2368606AD2F862
S3150800153014C005FB0030052206A9E04706A809F0F5
S315080015400AFD01284FF0000523D0D4E90A3201210B
S315080015509342CDE90B458DF834800E958DF83C10F5
S315080015602AD11946204609F070F9236B626C1433A8
S315080015709B1AE06223630C9B53B99DF83C303BB140
S31508001580626A616C2368E06B01FB023109F09BFC1F
S315080015900C9DE36B05225B6901A93846984701A8AB
S315080015A009F0D9FC30702846236BA26B9A4288BF93
S315080015B0A36310B0BDE8F081237C33B91C490BAA9C
S315080015C004F1080001F01EF8D5E72046194A0BABCE
S315080015D0FFF750FFCFE7237C23BB2246164904F1C9
S315080015E0080001F00FF8616A204609F0C2F8616A3E
S315080015F0421C204609F08BF8054620B9236B626C1D
S315080016001344143B23632046A16A09F01EF9236894
S31508001610A062C01A636CB0FBF3F06062204609F062
S3150800162057F9B6E700232046044AFFF723FFDAE70F
S31508001630011E00087D1D0008D1A900086DA9000833
S3150800164073B50D46D11E4A421C461B7E4A419A4234
S3150800165026D129682368994222D3636899421FD8FC
S31508001660114E0DF107033246FFF75AFEC0B97268EC
S315080016706B689A4214D19DF80730DA1E53425341DB
S31508001680227E93420CD1636901336361D4E9032353
S31508001690934205D22968A26842F8231001332361D0
S315080016A0012002B070BD00BF381100202DE9F04FAF
S315080016B09A468BB09DF85030DFF850B10293DBF8AC
S315080016C01030804653450D461646C0F09980D146DF
S315080016D0DBF804300193B9F1000F00F08D80D8F8DB
S315080016E03C3001225B6907A90198984707A809F0C9
S315080016F0A4FBDBF80030984240F0858007A809F083
S31508001700A8FB0428074614D107A809F0A9FB019BE2
S31508001710029A04463B44002A3FD1864212D914460F
S31508001720361A4046019909F090F8A9EB0409019088
S31508001730D1E7D8F83C3002225B69019808A9984796
S3150800174008A8E2E7841B544528BF5446032C03EB3C
S315080017500607AAEB040A4FEA94021CD9D8F83C30CB
S31508001760294638465B69984724F0030304F00306C4
S315080017701F441D44002ED4D0D8F83C3001225B69A2
S3150800178008A9384698473246284608A935440FF02E
S3150800179084FD0026C5E72646ECE7074600F0030267
S315080017A0039203442A1804920593049BDD1B059BA8
S315080017B0D81B039B9F420FD1002FB2D0D8F83C30DC
S315080017C0012208A95B6998473A46284608A90FF0F6
S315080017D005FD78B93D44A4E7D8F83C30012208A9AC
S315080017E05B6998470422284608A90FF0F7FC08B950
S315080017F0043FDAE74FF0360948460BB0BDE8F08FEC
S315080018004FF06309F8E74FF06F09F5E76411002018
S315080018102DE9F0410F4616469846044688B060B34F
S3150800182090F83450FDB1012108F047FF00210E9BC6
S31508001830CDE90511CDE902379DF83C30CDF8048095
S315080018408DF81C30237C04968BB90D4901AA04F146
S31508001850080000F0D7FEDDE90553E06B002E08BF4F
S315080018601D4609F0C3F8284608B0BDE8F0812046B1
S31508001870044A01ABFFF7FEFDEDE70546F3E700BFB7
S315080018809BA90008411600082DE9F04F99B00F46AC
S3150800189009920A69416C0E931439D31DB3FBF1F30F
S315080018A0013302EBC302036B04469342C0F00D8278
S315080018B00023DFF820940D93E36A484619460793F8
S315080018C000F00CFFD7E9033604930E9B022B4ED18A
S315080018D0CC2E40F08A81099B002B42D039462046FF
S315080018E009F0E2F8656C079A6B1E13401490ED1A1E
S315080018F0E36B01225B6916A97868984716A809F070
S31508001900A0FA00280CBF04230823782E06933DD995
S31508001910012300254FF0080A05933B6805990E98A0
S31508001920C9F80030C9F8106009F0ADFA4FEA9A0311
S3150800193010930023DDF81CB089F814000B930F935D
S3150800194008930C93616C4A1E0BEA02028B1A002E4E
S3150800195038D05544AB4240D8236B5B1A13442363F3
S31508001960ABE0049B1B68149308230693D0E7656CC9
S31508001970079A6B1E1340782EA5EB030516D8FB7D38
S315080019807BB9099B002BB3D104230693331DAB42C5
S3150800199010D9A6B1082DBBD804250023AA4605935D
S315080019A0BBE7099B002BA3D10823EEE7099B002B75
S315080019B09ED1D9E7002505954FF0040AADE7042521
S315080019C00596F9E75345C7D3B0460BEB0A030393CD
S315080019D0089B002B18BF032313E0A3EB0A039E42C0
S315080019E0B0460BEB0A0228BF98469E420392EFD9EF
S315080019F00123D9F8102089F81730964271D1C9F811
S31508001A0004B0089399F81730002B6CD099F8182071
S31508001A100899D31C09EBC3030132C3F804B0A3F831
S31508001A200880997289F81820B8F1000F14D00E9B17
S31508001A30022B5BD10B9B7BB90F9B4344032B0BD922
S31508001A40E36B01229B69039814A998470546002869
S31508001A5040F03D8101230B93089B16A80193059B33
S31508001A60009399F814204346396800F0EDFDE36BBE
S31508001A7058469B69109A16A99847051E0D9B18BFCC
S31508001A805B4652460D9359464346204608F00AFFE0
S31508001A90236B08F10302A3EB0A0322F003029B1A45
S31508001AA0C9F808002363002D40F011810F9BDDF86B
S31508001AB00CB04344A6EB08060F935946204608F097
S31508001AC0C4FE00258346002E7FF43CAF814A396860
S31508001AD0936804F10800E36252680E9B00F044FD27
S31508001AE0DEE002238DE7C9F804B09DE7099B002BC9
S31508001AF030D1049BB8F1030F43440A9327D9DDE993
S31508001B000301E36B4FEA98029B699847054600284C
S31508001B1065D118F003025FD0049B28F003052B4417
S31508001B200493039B1D444FF0FF33049915A815939E
S31508001B300FF0B3FBE36B28469B69012215A998476A
S31508001B4005460A9B0493002D86D0039B99E74246D7
S31508001B50039DE8E7039B0A9307F120031193FB7D96
S31508001B6078689BB100233D7E0C9AD9B28D4211D973
S31508001B70119903F1010C31F83310914226D90699CF
S31508001B8007EBC303D8690A44104403E00C9B069A82
S31508001B9013441844E36B01225B6915A99847159B02
S31508001BA0012213930C9B0A9804330C93E36B13A935
S31508001BB09B699847039B0A9A43449B1A042B05463C
S31508001BC007D978B9134604330A93C8E76346521A05
S31508001BD0CBE70A9B0393B6E70A9B04933CE70A9B69
S31508001BE00493B2E70A9B0393AFE7702604F1080350
S31508001BF003932368079A606CA2EB030ABAFBF0FA10
S31508001C0000FB0A3009F0D7F9E16A8046204608F059
S31508001C101CFEA26A82424AD0626CD9F80830511E6C
S31508001C200B40216B2568891A0B4423630D9BE062E0
S31508001C305D1BB5FBF2F5AA4536D1079BB3EB080A3F
S31508001C4012D0E36B4FEA9A0241469B69984783464E
S31508001C50E36A079A5344E362236B03989B1A434447
S31508001C60236309F000F8DA462368616CE06B01FB30
S31508001C70053109F015F9204608F02AFD204608F036
S31508001C8027FE2063BAF1000F11D03A69616CD31DA3
S31508001C901439B3FBF1F3013302EBC3029042A8D225
S31508001CA0304619B0BDE8F08F4FF0000ADCE73A6914
S31508001CB0616CD31D1439B3FBF1F3013302EBC30294
S31508001CC0236B9342BFF4F8ADEAE71C26E8E72E46F5
S31508001CD08CE700BF0C1100202DE9F3471E46436927
S31508001CE00446B342884617469DF828903DD30025FA
S31508001CF08DF80750204608F0B7FCD4F830A0824586
S31508001D000AD2236AB5EB430F06D2002220460DF10C
S31508001D100701FFF7EBFB30B39DF80730012B05D120
S31508001D20002220460DF10701FFF7E0FBB9F1030F8A
S31508001D3006D03146204608F082FC256B854218D32A
S31508001D400D4D4FF0FF31284600F0C8FC4B460022E7
S31508001D5029462046C5E90376C5F8008002B0BDE8E5
S31508001D60F047FFF791BD0135C4E7622002B0BDE830
S31508001D70F0871C20FAE700BF38110020032A2DE956
S31508001D80F34106460D4617461C4606D1237A012B13
S31508001D9023D0012002B0BDE8F081DFF86080096831
S31508001DA042460DF10703FFF7BBFA60600028EDD144
S31508001DB09DF80720237A032AE8D0D8F804106A6821
S31508001DC09142E3D1012B2969D4F80CC007D1726975
S31508001DD00CEB0103934202D92074207CDAE7083120
S31508001DE06144E1603B46012229463046FFF74CFD37
S31508001DF060600028CAD00020CCE700BF3811002058
S31508001E002DE9F341089C032A1746266806D1237A4A
S31508001E10012B24D0012002B0BDE8F081DFF89080C4
S31508001E20304642460DF10703FFF77AFA606000284C
S31508001E30EDD12568D8F80400A96AD5F844C0484009
S31508001E40CCF100031840227AE1D1012A09D1E268CF
S31508001E50D8F8103013447269934202D92074207C52
S31508001E60D9E72868EB6A1B1A081AB3FBFCF3B0FB20
S31508001E70FCF083420BD1706CF36A421E1340326B3E
S31508001E80121A13442846336308F0DFFCE862D8F8D0
S31508001E901020E36808321344E36001223B460449F4
S31508001EA02068FFF7F1FC60600028B0D00020B2E798
S31508001EB0381100202DE9F04F4FF0FF334FF6FF722F
S31508001EC00025044600F10806C0E909238BB0C36261
S31508001ED00562056330460F4608F0C5FE204608F041
S31508001EE0F7FB20BB2046394608F072FC204608F06E
S31508001EF0EFFB20BB5E200BB0BDE8F08FE26B2368DA
S31508001F00606CD2F814C000FB0530052205A9E0472D
S31508001F1005A809F020F8012828D12946204608F006
S31508001F2028FC421C2946204608F0F1FB0135E369E6
S31508001F309D42E3D3204608F0CBFB0028D2D00025EB
S31508001F404FF0FF394FF6FF73CA46A846C4E908534F
S31508001F50E369984514D3A5EB0905012D36D84FF644
S31508001F60FF72636A934246D16720C4E709F01DF8F9
S31508001F700028DBD02946204608F0FBFB0246D1E7BD
S31508001F802368E26B606C576900FB0830052205A9D7
S31508001F90B84705A808F0DFFF834605A808F0B2FF92
S31508001FA00746584608F0FCFF68B1574538BFC4F8DD
S31508001FB02480B94528BFB946BD4238BF3D46BA4612
S31508001FC0236A0133236208F10108C1E74FF6FF735C
S31508001FD000256362E3699D42C1D2676C2068E36BA2
S31508001FE0052207FB05005B6905A9984705A808F0BF
S31508001FF089FF0135EEE7E26B676C2068694607FBE7
S31508002000030055690522A847684608F07BFF626AFF
S315080020102368606C504D00FB023008F0CCFF4FF08F
S31508002020FF33A062E3622A466FF00101204605AB42
S31508002030FFF776F900284FD1AD6829462046E562B4
S3150800204008F022FB206320B92046E16A08F0FDFB70
S31508002050E0622946204608F0F8FB0546A36A9D4239
S315080020603CD16569626CE91C143AB1FBF2F14FF098
S31508002070000805EBC1050335B5FBF2F5C146023587
S31508002080E36999453CD3A8455AD22046616A08F0C7
S315080020904FFB0027064604F1400AB84512D8626C81
S315080020A02368694602FB0639E36B05225B694846E5
S315080020B09847684608F026FF534602464946E06BAD
S315080020C008F07BFF3146204608F032FB0137AF4265
S315080020D00646E2D364200EE7A56AAEE729462046FF
S315080020E008F0D2FA236B29460344074623632046A1
S315080020F008F0ABFB0546002FB0D1C4E90B07ADE7E6
S31508002100636C2768052203FB0977E36B05A95B69FE
S315080021103846984705A808F01EFF08F041FF60B149
S31508002120384608F048FF0146204608F0ADFA636CC9
S31508002130143B984208BF08F1010809F101099FE715
S31508002140304608F090FD002320461946034AFFF75B
S3150800215091F90020CFE600BF3811002037A9000802
S315080021600023624A2DE9F04117680E4604461360BB
S3150800217018B921252846BDE8F08190F834500DB3EA
S3150800218009680268914240F0A980716842689142E4
S3150800219040F0A480B1688268914240F09F80F1685F
S315080021A0C268914240F09A8031694269914240F092
S315080021B09580B169C26B914240F0908072691D4664
S315080021C08261D7E750222946D0F838800FF030F8D8
S315080021D0D6E90212336804F1080023607368C4F86C
S315080021E038806360336963617369A36108F04DFDE4
S315080021F0B36904F14000E3639B68984794F8432069
S3150800220020B1E561002AB4D05B25B3E7656C002DE3
S31508002210F7D06668B6FBF5F3E361002AA9D0B542A4
S31508002220F2D82268B2FBF5F105FB1122002A57D134
S3150800223005FB1363002B53D1204608F015FAA36952
S31508002240043303449E424DD340F634726369CC3B53
S31508002250934249D8B5F5007FD6D30321204608F026
S315080022602CFAD4E90001E36B1B6898470546E36B33
S315080022700220DB6898471DB1002384F834301DE03E
S3150800228039462046FFF716FE6428054604D1394626
S315080022902046FFF70FFE0546636C143B002DEBD175
S315080022A0226A204602FB03F608F0DEF9A369043326
S315080022B003449E4206D284F834505A25E06B08F04F
S315080022C095FB57E70123D4E90001094A84F834301D
S315080022D013680133136008F072FDEFE75D2549E7DF
S315080022E0592547E75A2545E75F2543E7DC100020CF
S315080022F0D81000202DE9FF410F4690461E46054698
S3150800230098B390F8343093B3B1F5801F31D21A4C94
S31508002310022108F0D2F92246394628460DF10F0364
S31508002320FEF7FEFF024678B101234246009339467E
S3150800233033462846FFF7D0FC0446E86B08F056FB00
S31508002340204604B0BDE8F0819DF80F30012BEBD193
S315080023502169B142E8D10093414633462846FFF742
S31508002360A5F904460028DFD1E7E72124E8E7112488
S31508002370E6E72924E4E700BF641100202DE9FF41C0
S315080023800C4616461F46054680B390F834307BB394
S31508002390B1F5801F2ED2DFF86080012108F08DF993
S315080023A02146424628460DF10F03FEF7B9FF0446BB
S315080023B070B99DF80F30012B11D1D8F81030BB42F7
S315080023C012D10246009031462846FFF76FF90446B7
S315080023D0E86B08F00BFB204604B0BDE8F081022B41
S315080023E014BF2D246024F3E76324F1E72124F2E7E0
S315080023F01124F0E72924EEE7641100202DE9F043C3
S3150800240085B00C4617461E460546DDF8308098B35B
S3150800241090F8343093B3B1F5801F31D2DFF8649069
S31508002420012108F04AF921464A4628460DF10F03CC
S31508002430FEF776FF044688B99DF80F30012B14D1B4
S31508002440D9F8102006EB08039A4213D300904346A6
S31508002450324639462846FFF729F90446E86B08F05C
S31508002460C5FA204605B0BDE8F083022B14BF2D241B
S315080024706024F3E76324F1E72124F2E71124F0E767
S315080024802924EEE7641100202DE9F3411F460023B5
S315080024900C46164605463B6050B390F834304BB3AD
S315080024A0B1F5801F28D2DFF85480012108F005F91C
S315080024B02146424628460DF10703FEF731FF04463A
S315080024C0A0B99DF80730032B10D0022B0AD101239F
S315080024D0336004233B60E86B08F088FA204602B0B4
S315080024E0BDE8F081D8F810303060F3E72D24F2E724
S315080024F02124F3E71124F1E72924EFE764110020EA
S3150800250030B50C46054685B028B390F8343023B369
S31508002510B1F5801F23D2022108F0CFF80DF10F0381
S31508002520214628460F4AFEF7FBFE034688B99DF862
S315080025300F20032A0DD00322214600920246284680
S31508002540FFF7CAFB0446E86B08F050FA204605B0C8
S3150800255030BD2D24F7E72124F8E71124F6E72924CE
S31508002560F4E700BF641100202DE9F043466886B3FE
S31508002570056898464FF0000CA946AE4655F83C400B
S315080025800CF1010CC4F31307013401D0B94217D07A
S3150800259066450EF1080EF1D12F46002403E0A64247
S315080025A007F1080712D055F8343001340133F6D153
S315080025B0C1F3130141EA0851C7E90012BDE8F083E7
S315080025C041EA0851CEE90012BDE8F083B8F1030FDD
S315080025D003D101230372BDE8F083002303E09E4282
S315080025E009F10809F5D055F833400133C4F3075407
S315080025F0032CF4D1C1F3130343EA0853C9E90032A3
S31508002600BDE8F0832DE9F0410646406882B0C0B1C6
S315080026100F4690460024336853F8345003EBC4033E
S31508002620C5F30752C5F31301013504F1010406D0B9
S315080026305B683046CDF80080B84710B170688442B0
S31508002640E9D302B0BDE8F08173B504462248012AF1
S3150800265000EAC1119DF8185023F07C4007D9961E50
S31508002660012E28D9073303F07F03194308E09DF8A4
S315080026701C300A43DB0603F0C053134343F06041A2
S315080026800023C4E900108DF80730B5B12022214691
S315080026900DF1070008F0ABFC1A220DF10700211D09
S315080026A008F0A5FC082063689DF8072043EA8263C2
S315080026B0636002B070BD1143E2E71B220DF107000B
S315080026C0214608F094FC23689DF80720042043EA75
S315080026D0C2632360EDE700BF80FFFF0738B5094BEB
S315080026E00D461A68002104460EF0A2FD00234FF09D
S315080026F0FF322383C4E900252361A260E382A3761F
S3150800270038BD00BF183901080138C0B205289ABF7C
S31508002710014B185C012070471D3901082DE9F0416D
S315080027200746154600240E46596888B0490A012905
S3150800273022464FEA510104F10104F8D8DC78997869
S3150800274024031B88C90201F4006104F480540C4375
S31508002750C3F30A035203234492B24FF000089C18AD
S31508002760274B6FEA0444039325F07843ED4302A907
S315080027700DF107001B2202938DF8078008F037FC3D
S315080027809DF80720029B02A943EAC2630DF10700E0
S315080027901B2225F07845049302958DF8078008F0EA
S315080027A026FC9DF80720029B6FEA144443EAC2639D
S315080027B005934FF0FF330794069307A9BB690122D7
S315080027C006F110009847BB6905A90446012206F1DF
S315080027D008009847BB69404518BF044604A901226A
S315080027E0301D98470122404518BF0446BB6930464C
S315080027F003A99847404508BF204608B0BDE8F081C0
S3150800280001009AB2044BD3F88420D206FBD4D3F83D
S315080028108400C0F3811070470040005038B5174B4C
S315080028200546D3F828310C4603F00703013B052B70
S3150800283020D8DFE803F003131B0F0B170EF0BAFFBF
S31508002840052305B1286004B1236038BD0EF0B2FF38
S315080028500623F6E70EF0EEFF0723F2E70EF0E4FF95
S315080028600323EEE70EF0E0FF0423EAE70EF0D8FFB5
S315080028700223E6E700231846E3E700BF008000507E
S31508002880002337B50193164B0546D3F820320C467C
S3150800289003F00703042B21D8DFE803F0030B111616
S315080028A01B0001230DB1019A2A6004B1236003B00D
S315080028B030BD002101A8FFF7B1FF1223F2E70EF0A1
S315080028C0B9FF07230190EDE710F00FF90A230190ED
S315080028D0E8E70EF0F7FF09230190E3E70023E1E7B5
S315080028E00080005038B5104B0546D3F850320C46D8
S315080028F003F00303022B12D0032B08D0012B0AD0B6
S315080029000023184605B1286004B1236038BD10F0CD
S31508002910EFF80C23F6E710F0E8F80A23F2E70EF0D2
S31508002920D1FF0923EEE700BF0080005038B5104BF1
S315080029300546D3F880300C4603F00303022B0BD070
S31508002940032B0DD0012B0FD10EF03AFF0E2305B144
S31508002950286004B1236038BD0EF06CFF0723F6E744
S315080029600EF028FF0623F2E700231846EFE700BF1C
S315080029700080005038B5104B0546D3F800310C4698
S3150800298003F00303022B0BD0032B0DD0012B0FD121
S315080029900EF04AFF032305B1286004B1236038BD51
S315080029A00EF090FF0923F6E710F09DF80823F2E7EA
S315080029B001230020EFE700BF0080005038B5184B10
S315080029C00546D3F820010C4600F00700062823D850
S315080029D0DFE800F0040A0E16121A1E00012305B1DC
S315080029E0286004B1236038BD0EF0E4FE0523F6E73F
S315080029F00EF01AFF0323F2E70EF01CFF0723EEE79B
S31508002A000EF00EFF0223EAE70EF0D4FE0623E6E7F1
S31508002A100EF00AFF0423E2E700231846DFE700BFAB
S31508002A200080005038B5104B0546D3F840310C46A7
S31508002A3003F00303022B0BD0032B0DD0012B0FD170
S31508002A4010F053F80A2305B1286004B1236038BD95
S31508002A500EF038FF0923F6E710F04AF80C23F2E7E0
S31508002A6001230020EFE700BF00800050002337B5A0
S31508002A700193164B0546D3F860320C4603F007035C
S31508002A80013B032B1FD8DFE803F0020E19140021BF
S31508002A9001A8FFF793FF10230DB1019A2A6004B12C
S31508002AA0236003B030BD002101A8FFF7BBFF112347
S31508002AB0F2E70EF0BFFE07230190EDE70EF0B0FE39
S31508002AC002230190E8E70023E6E700BF00800050F4
S31508002AD0002337B50193164B0546D3F894320C46B6
S31508002AE003F00703013B032B1FD8DFE803F0020EB0
S31508002AF01914002101A8FFF761FF10230DB1019AEF
S31508002B002A6004B1236003B030BD002101A8FFF795
S31508002B1089FF1123F2E70EF08DFE07230190EDE7FA
S31508002B200EF07EFE02230190E8E70023E6E700BFE9
S31508002B300080005038B5104B0546D3F860310C4676
S31508002B4003F00303022B0BD0032B0DD0012B0FD15F
S31508002B500FF0CBFF0A2305B1286004B1236038BD06
S31508002B600EF0B0FE0923F6E70FF0C2FF0C23F2E7DA
S31508002B7001230020EFE700BF0080005073B50D4623
S31508002B800021114B0191D3F88041064604F0030455
S31508002B90022C13D0032C0CD0012C13D101A8FFF75B
S31508002BA00DFF10240EB1019B336005B12C6002B0F5
S31508002BB070BD0EF03FFE07240190F3E70EF030FEDD
S31508002BC00190EFE70C46EDE70080005038B5104B52
S31508002BD00546D3F840320C4603F00303022B0BD00C
S31508002BE0032B0DD0012B0FD10FF07FFF0A2305B160
S31508002BF0286004B1236038BD0EF064FE0923F6E7A9
S31508002C000FF076FF0C23F2E701230020EFE700BF61
S31508002C100080005038B5144B0546D3F800020C4620
S31508002C2000F0070004281BD8DFE800F003090D119F
S31508002C301500012305B1286004B1236038BD0FF0E3
S31508002C4054FF0A23F6E70EF03DFE0923F2E70FF0DC
S31508002C504FFF0C23EEE70EF0CDFD0F23800AE9E7C0
S31508002C6000231846E6E700BF0080005038B5144B2D
S31508002C700546D3F808020C4600F0070004281BD8BE
S31508002C80DFE800F003090D111500012305B12860DE
S31508002C9004B1236038BD0FF028FF0A23F6E70EF0CB
S31508002CA011FE0923F2E70FF023FF0C23EEE70EF0DF
S31508002CB0A1FD0F23800AE9E700231846E6E700BFCF
S31508002CC000800050B0F5207F1FD009D8B0F5007FEE
S31508002CD015D003D868B1B0F5C07F0AD000200CE043
S31508002CE0B0F5607FFAD10B4BD3F88000C0F3011022
S31508002CF003E0084B186FC0F3033001307047054BEB
S31508002D00D3F89000C0F30460F7E7024B186FC0F3DE
S31508002D108020F2E70080005002464FF48030104BC6
S31508002D2010B598660020FFF7CDFF504341F6713283
S31508002D300C4BDC69DA635A6804F4803422F44012D6
S31508002D4059B90949884294BF002001200005024369
S31508002D505A600CB10022DA6310BD0449F2E700BFDD
S31508002D600090005000000350005A6202002D310105
S31508002D704209531E022B96BF074B002303EB82031F
S31508002D8000F01F0029B103F58053012282401A6022
S31508002D90704703F50053F8E7608000501FB500211F
S31508002DA0B0F5807F0446CDE9001100F0CF803BD80E
S31508002DB0002800F0A480A0F12004602C44D8602CE0
S31508002DC042D8DFE804F09CA49CA4B4B4B4B4B4A478
S31508002DD0BE4AD46A4AA4A4A4414141414141414161
S31508002DE0A4A4A47CDEA44141414141414141414161
S31508002DF04141E3B49C9C9CD94A4A88E85FB9414161
S31508002E00414141939C41B4B4B4B4B4B9B9A441A402
S31508002E10A441414141414141414141414141414131
S31508002E204141414141419800B0F5E06F00F0A98069
S31508002E3038D8B0F5607F75D01AD8B0F5007F61D064
S31508002E4005D8B0F5C07F5AD0009804B010BDB0F5CB
S31508002E50207F5CD0B0F5407FF6D10EF0CBFC024661
S31508002E604FF42070FFF72EFFB2FBF0F2520857E03E
S31508002E70B0F5B06F65D00AD8B0F5806F57D0B0F509
S31508002E80A06FE1D100216846FFF7FAFCDCE7B0F550
S31508002E90C06F6CD0B0F5D06FD6D100216846FFF769
S31508002EA0B9FED1E7B0F5186F70D00DD8B0F5086F38
S31508002EB07FD0B0F5106F5FD0B0F5F06FC4D10021A8
S31508002EC06846FFF737FEBFE7B0F5286F63D007D827
S31508002ED0B0F5206FB8D100216846FFF7C7FDB3E704
S31508002EE0B0F5406F28D0B0F5486FADD100216846DF
S31508002EF0FFF7EEFDA8E70EF063FC0090A4E70EF0DE
S31508002F0079FCFAE70EF05CFC0246204604E00EF077
S31508002F1071FC02464FF42070FFF7D4FEB2FBF0F2C4
S31508002F20009291E701A8FFF701FD019AEDE700215C
S31508002F306846FFF743FD87E700216846FFF76EFC02
S31508002F4082E700216846FFF719FE7DE74FF0E02388
S31508002F5002911B695B0705D50EF04CFC0290029B9B
S31508002F60009371E703A902A8FFF75CFDF7E70021C4
S31508002F706846FFF757FD67E700216846FFF776FEC4
S31508002F8062E700216846FFF721FE5DE700216846F3
S31508002F90FFF7A8FC58E70021084B0391D3F87032D5
S31508002FA003F00303012B02D103A8FFF73BFD039BA4
S31508002FB0D6E76846FFF7DEFC46E700BF008000500C
S31508002FC008B58020FFF7EAFE034B98429EBF4FF4F0
S31508002FD08032024B1A6708BD005A620200A00050F0
S31508002FE0B0F5207F10B50C465DD008D8B0F5007F47
S31508002FF04ED003D8C0B1B0F5C07F15D010BDB0F51E
S31508003000607FFBD12C4B4C1ED3F8FC202B4912F0C9
S31508003010807F4FEA041427D1D1F8803023F030039B
S315080030202343C1F88030E9E707F0FFFF08F00BF803
S315080030304FF48031224B214A1967136F013C23F460
S31508003040704343EA043313670EF0D4FB0446FFF7D4
S31508003050D9FBC0F10201204607F0EFFF00F04AF85D
S31508003060BDE81040FFF7ACBFD3F8FC2022F0807211
S31508003070C3F8FC20D1F8802022F030022243C1F8A0
S315080030808020D3F8FC2042F08072C3F8FC20B5E714
S315080030900A4A4C1ED2F8903023F0F85343EA0463E8
S315080030A0C2F89030AAE7054A4C1E136F23F48063D2
S315080030B043EA84231367A1E700ED00E0008000508F
S315080030C00090005008B50121022000F057F84FF48F
S315080030D02070FFF7F7FD054B187007F0A6FF07F0FD
S315080030E0B2FF4FF48032024B1A6708BDDE29002072
S315080030F00090005008B54FF4C070FFF74FFEBDE8CA
S3150800310008400449884294BF012102214FF42070E7
S31508003110FFF766BF80F0FA0238B504460EF06AFB80
S315080031200546FFF76FFBC0F10201284607F085FF49
S315080031300121002000F062F82CB1FFF7DBFFBDE8A3
S315080031403840FFF73DBF034B4FF420701978FFF75F
S3150800315047FFF4E7DE290020024A536B0342FCD1FD
S31508003160704700BF00800950034A0179D36E23F0E7
S3150800317030030B43D366704700400050F8B5044649
S315080031801C4BD3F88420D106FBD4D3F88430C3F380
S3150800319081139C422CD00EF013FB012C064602D15B
S315080031A0214607F04AFF0FF082FC4FF00072124BDF
S315080031B007465A66204607F04BFF4FF480630D4DCD
S315080031C0621E93402B676B6E9A0103D4D5F8843040
S315080031D09B060AD538460FF065FC022C08D1304606
S315080031E0BDE8F840002107F028BFD5F88430EAE7A3
S315080031F0F8BD00BF004000500060005010B50C46F6
S3150800320008B90EF0DDFA074B21461B783BB1064B91
S31508003210984204D80120BDE81040FFF7AFBF02204E
S31508003220F9E700BFDF290020005A62024FF000428A
S3150800323038B5244B244C5A664AF6CD33656C01469C
S3150800324005F00105236428BB0120FFF785FF6368A5
S31508003250DB0715D51D4B586008461D4B226BD20758
S315080032600CD4984208D1072415B1174B194A1A6489
S3150800327007F0EFFE204638BD0130EFE79842F2D05E
S315080032800024F1E70132236B13F0080305D08A42C4
S31508003290F8D1E8E700220E49F5E78A42E3D0202173
S315080032A00A4A91620121A2F5805251600649084AEC
S315080032B0886A800603D49342D5D00133F8E793424F
S315080032C0DDE700BF009000500080095000A00950BB
S315080032D040420F003254FFFF4FF0004238B5164BFC
S315080032E001465A664AF6CD33144C154A656C236472
S315080032F043780B205B0043F00103D363FFF72CFFF1
S3150800330063688A7823F4F87343EA02136360CA7819
S315080033104B7943EA0223A3600A798B7943EA0223AD
S3150800332023610878FFF782FFEB0744BF054B236448
S3150800333007F08FFE012038BD00900050008009502C
S31508003340004000503254FFFF4FF00042124B70B558
S315080033505D6E03F580535A664AF6CD3304460F4927
S3150800336080204E6C0B64FFF7F7FE0B6A23F00F0301
S315080033700F2C94BF234343F00F030B62F30744BF9C
S31508003380074B0B64002DA2BF4FF00042054B5A664F
S3150800339007F05FFE70BD00BF008000500080095036
S315080033A03254FFFF00A000504FF48032054B9A6656
S315080033B041F6713203F51C33DA63012203F5005333
S315080033C0DA6070470090005041F671320121064BD1
S315080033D0DA6303F50052D1600022DA634FF48032D3
S315080033E0A3F518339A66704700000350044B186813
S315080033F0421C02BF034AD2F894001860704700BF07
S31508003400482D0020004000504FF48032084B5A6681
S3150800341003F5EE239B69C3F3461203F00F010A4333
S315080034204280C3F30342C3F3033342700370704709
S31508003430009000500120034B9B680A3303F01F03DA
S31508003440984070470080E00F2DE9F0410EF0C0FA71
S315080034500128074620D90EF0EFFA051E03DA0124E3
S315080034602046BDE8F0811F4B1B78002B37D14FF063
S3150800347050081D4C04EB0800A465C4F85C800EF0E7
S315080034802BFB206680B90124012FE9D928460EF0C6
S31508003490F5FA0028E4DAE2E7124B1B7803F0FF0599
S315080034A0002BE4D00024DBE70024104E214606F169
S315080034B0100332460120C6E90044C6E902380EF078
S315080034C0EFFB30660028DED00321512008F0A5FE68
S315080034D0512001F007FB0122024B1A70D4E70024A1
S315080034E0D4E700BFE0290020F41100209011002045
S315080034F008B54FF098435B6CD90208D50EF068FA08
S315080035000238012803D8094B186E0EF057FC4FF005
S3150800351098435A6CD202FCD55B6D054A03F47023B6
S3150800352013605120BDE8084001F0EABA9011002066
S315080035304C2D00202DE9FF474FF000080E46174690
S315080035400446CDF80080002859D022B9002528461F
S3150800355004B0BDE8F087002951D032F0030902F023
S31508003560030A1FD04FF0E063C0E900380123019138
S31508003570C0F808800293C0F81C8049F0005301A9DE
S31508003580039308F0D6F8494620460FF0B4FA2046C9
S315080035900EF0BCF9054628B14A46414630460DF0BC
S315080035A047FED4E7BAF1000FD0D04FF000084FF02D
S315080035B0E063C4E900380123CDF804D00293114B27
S315080035C0204601A9C4F80880C4F81C80039308F0B3
S315080035D0B0F8042120460FF08EFA20460EF096F930
S315080035E0054608B13A46D8E7009A4E44EB0001353D
S315080035F022FA03F3AA4506F8013BF7D1A6E72125E7
S31508003600A5E700BF040000202DE9F0410F46017828
S315080036100446013990468AB0042947D8DFE801F004
S315080036200332373C41004025142621490C34002238
S315080036305D43C7E90122FA613846396029460FF029
S315080036405AFA0123384646F0005604A945F00055B3
S31508003650CDF804800293039504940593069607947F
S315080036600893099608F05BF8384601A908F057F858
S31508003670384607A908F05DF838460EF047F90AB04B
S31508003680BDE8F081402520260A490C34CFE74025BD
S31508003690202609490C34CAE78025402607491434F0
S315080036A0C5E78025402606491434C0E72120E6E709
S315080036B000020103000301030004010300050103DE
S315080036C00006010310B591B188B10023C0E90133A2
S315080036D0084B00F10C0203F1200153F8044B8B420E
S315080036E042F8044BF9D101230370002010BD2120B4
S315080036F0FCE700BFEC39010810B591B188B1002389
S31508003700C0E90133084B00F10C0203F1200153F81C
S31508003710044B8B4242F8044BF9D102230370002074
S3150800372010BD2120FCE700BF2339010810B591B16F
S3150800373088B10023C0E90133084B00F10C0203F1FC
S31508003740200153F8044B8B4242F8044BF9D103236A
S315080037500370002010BD2120FCE700BF4439010892
S3150800376010B5A1B198B10023C0E90133C0E903330C
S31508003770084B00F1140203F1400153F8044B8B4245
S3150800378042F8044BF9D104230370002010BD212010
S31508003790FCE700BF6539010810B5A1B198B100234F
S315080037A0C0E90133C0E90333084B00F1140203F101
S315080037B0400153F8044B8B4242F8044BF9D10523D8
S315080037C00370002010BD2120FCE700BFA6390108C0
S315080037D02DE9F04F0D46904604468BB000287DD063
S315080037E000297BD0002A79D00278013A042A75D8B4
S315080037F0DFE802F0030C58606B001427394A00F121
S315080038000C0B00F1040A2C34B94608E020274FF0C7
S315080038101C09354A00F10C0B00F1040A2C3440212E
S3150800382099455BD80AF104030AEBD10653F8040B51
S31508003830002855D1B342F9D1DAF80030013901EA46
S315080038400306C5E900203146A860E86128460FF05E
S3150800385052F92846DAF800100FF04DF9012249F01E
S315080038600053284601A947F0005746F00056CDF800
S3150800387004B002920397049405920696CDF81C802C
S315080038800892099307F04BFF284604A907F047FF5B
S31508003890284607A907F04DFF28460EF037F80BB063
S315080038A0BDE8F08F2027114A00F10C0B00F1040A3D
S315080038B02C34A9E740274FF030090D4A00F1140BC4
S315080038C000F1040A54348021AAE74027094AB94678
S315080038D000F1140B00F1040A5434F4E72120DEE762
S315080038E00F20DCE7000203030003030300040303BD
S315080038F000050303000603032DE9F04387B00D46D0
S3150800390091461E460446DDF83880002836D0B8F1C0
S31508003910000F33D002B98BBB6B1EDBB2042B2DD83C
S31508003920174AD75C0F9B9F4228D80023280200F12C
S31508003930407000F580703146C4E901332060E361C8
S3150800394020460FF0D8F801236946204646F000566F
S3150800395047F00057CDF8009001930296CDF80C80F9
S315080039600493059707F0DBFE204603A907F0E1FE5E
S3150800397020460DF0CBFF07B0BDE8F0832120FAE71B
S31508003980E7390108F0B50F4616461D46044693B0BA
S3150800399010B9212013B0F0BD0029FAD0002AF8D0BA
S315080039A0002BF6D0002331461A46384607F077FC36
S315080039B00028EFD1304602A907F00DFC0028E9D10E
S315080039C0EB68022B0AD039683F48029A81426B6934
S315080039D002D01830814270D19A42DAD82B68002B6F
S315080039E0D7D14FF060623846C4E90023A360E3618B
S315080039F001A907F0AFFC0028CCD10199204621F493
S31508003A00F06101910FF077F86946284607F0A2FCA5
S31508003A100028BFD1204600990FF06DF8384609A94D
S31508003A2000F054F80028B5D1204609A907F077FE1A
S31508003A3038460CA907F08DFD0028ABD120460CA905
S31508003A4007F06DFEEB684BB1284606A900F03EF874
S31508003A5000289FD1204606A907F061FE304603A933
S31508003A6007F077FD002895D1B368DA040CD59B04D6
S31508003A7027D50621F36932691B6801FB03225B001F
S31508003A8043F0005303920593204603A907F047FE27
S31508003A9028460FA907F05DFD00287FF47BAF204676
S31508003AA00FA907F046FE032520460DF02FFF012833
S31508003AB07FF470AF013DF7D16CE7B3EB420F8DD2BF
S31508003AC067E7292066E700BF200000B090B189B1FA
S31508003AD001234B60C368013B012B08D88269064B5A
S31508003AE01AB10A6000208B607047044AF9E74FF064
S31508003AF00053F7E721207047080000200C3A010818
S31508003B0070B50E46154604468AB000285BD00029D3
S31508003B1059D0002A57D0012329461A46304607F0BD
S31508003B20BEFB00284DD1B36813F4C04F4BD0AB6829
S31508003B3003F4C043B3F5005F45D1254BA060C4E943
S31508003B400030E06107A9304607F004FC002838D1A8
S31508003B50204607990EF0CFFF304601A9FFF7B6FFBA
S31508003B6078BB204607F0DBFD304604A907F0F1FCD8
S31508003B7038BB204604A907F0D2FDEB681BBBAB682F
S31508003B8003F4C043B3F5005F1DD16946284607F024
S31508003B904DFBB0B9009B6A699A4216D32A6943F06D
S31508003BA0005307920122204607A908920325099384
S31508003BB007F0BFFD20460DF0A9FE012801D1013D01
S31508003BC0F8D10AB070BD2120FBE71D20F9E700BF38
S31508003BD0000001022DE9F04391B00D46DDE91876A3
S31508003BE00446DDF8688000286DD000296BD0002FC8
S31508003BF069D0B8F1000F66D0096801F07041B1F1DB
S31508003C00404F5BD0002B5BD1531E042B5BD81202AE
S31508003C1002F1C06202F5807200232846C4E9013326
S31508003C202260E3610DA907F095FB002843D12046E1
S31508003C300D990EF060FF314620460EF05CFF2846CF
S31508003C4001A9FFF743FF002835D1204601A907F04F
S31508003C5066FD284604A907F07CFC60BB4FF0010905
S31508003C60204604A907F05BFD46F00056204607A942
S31508003C700797CDF82090099607F051FD2B680A970B
S31508003C8003F07043B3F1404FCDF82C900C9603D156
S31508003C9020460AA907F043FD0123CDF834800E9388
S31508003CA01B9B204643F000530DA90F9307F041FDD7
S31508003CB020460DF02BFE11B0BDE8F083034AABE7B2
S31508003CC04FF0C062A8E72120F5E700BF0000020612
S31508003CD02DE9F0418CB00D46DDE912860446149FA5
S31508003CE0002869D0002967D0B8F1000F01D1002E4D
S31508003CF062D1002F60D0A96889045DD5296801F0D2
S31508003D007041B1F1404F4DD0002B4DD1531E042BBD
S31508003D1052D82A4B03EB022200232846C4E9013372
S31508003D202260E36109A907F015FB002837D1204670
S31508003D3009990EF0E0FE314620460EF0DCFE694693
S31508003D402846FFF7C3FE50BB6946204607F0E7FC46
S31508003D50284603A907F0FDFB08BB204603A907F080
S31508003D60DEFC012346F00056CDF818800793089626
S31508003D7009970A93159B43F000530B932B6803F09E
S31508003D807043B3F1404F11D109A9204607F0C7FC8B
S31508003D9006A9204607F0C3FC20460DF0B7FD0CB077
S31508003DA0BDE8F081064AB7E7064AB5E706A9204600
S31508003DB007F0B5FC09A9ECE72120F0E700010106A8
S31508003DC0000003060000010610F1860F14D010F15A
S31508003DD0850F07DA10F1930F11D0873007D04FF00F
S31508003DE0FF307047003818BF012040427047054B26
S31508003DF0194411F9050C70476FF0710070476FF0A0
S31508003E006F007047143A0106012910B50CDC084CFE
S31508003E10084B00290CBF2146194608F055F92146DA
S31508003E20BDE81040FFF7D0BF6FF0740010BD00BFAB
S31508003E300B0000020A00000208B508F087F9BDE881
S31508003E4008400149FFF7C0BF0B000002002307B571
S31508003E504022019301AB08F095F9034903B05DF8D8
S31508003E6004EBFFF7B1BF00BF0B000002012910B534
S31508003E700CDC084C084B00290CBF2146194608F0F3
S31508003E8023F92146BDE81040FFF79EBF6FF0730087
S31508003E9010BD00BF090000020800000208B508F0BE
S31508003EA055F9BDE808400149FFF78EBF0900000231
S31508003EB0002307B52022019301AB08F063F90349F3
S31508003EC003B05DF804EBFFF77FBF00BF09000002EF
S31508003ED010B5044C214608F0F7F82146BDE8104015
S31508003EE0FFF772BF0500000208B508F02FF9BDE814
S31508003EF008400149FFF768BF05000002002307B51F
S31508003F001422019301AB08F03DF9034903B05DF8AB
S31508003F1004EBFFF759BF00BF0500000238B5134D83
S31508003F20FFF792FA124B134A1349144803F0DAFCC6
S31508003F302B7803F0FF04BBB90DF04AFD012802D91E
S31508003F400DF07AFD04462B782BB90D4B0D481B68EE
S31508003F50984701232B700DF03BFD012804D9204614
S31508003F60BDE838400DF08ABD38BD00BFE129002004
S31508003F707DB700085FB7000897B70008A1B7000823
S31508003F80882D002068200020012300F01F02A0F5DC
S31508003F9006200949A0F550604009934051F82020B1
S31508003FA01A4341F82020054951F8202022EA030245
S31508003FB041F82020704700BF6C12002058120020DC
S31508003FC00121A0F506230E4AA3F550635B0900F00C
S31508003FD01F00814052F82300014342F82310094983
S31508003FE0D1E90030034488680344C8680969034472
S31508003FF05B1802BFC2E90033C2E902331361704796
S31508004000581200206C1200202DE9F04FA9B0039237
S315080040101D4604460822339ECDE90401414021FA93
S3150800402002F34B40980702F1080218BF9B00202AAA
S315080040301C44F4D18123B4FBF3F303EBC313E41A52
S31508004040734B04F506241B7804F55064002B3ED107
S3150800405005F0DEF8074620B16FF0910029B0BDE8FB
S31508004060F08F0146402208A80DF0E2F840223946B2
S3150800407018A80DF0DDF8DFF8B081DFF8B091C34677
S315080040800BF10F0ACDF800A0102208A95B46D9F853
S31508004090000006F0D6FD0022014608F1100808AF18
S315080040A0914246D1CDF800A05B461022D9F800000F
S315080040B018A906F0CFFD4FF0000A834618AFD3457E
S315080040C041D1544B9845DAD10122514B1A704FF021
S315080040D0810A4FF00008DFF858B1A4F50627A7F5BE
S315080040E050635B095BF8232004F01F01CA40D2071E
S315080040F03DD4494A52F82330CB40DB072AD5B8F1DC
S31508004100000F08BFA0468123A7F6FF47B7FBF3F3C6
S3150800411003EBC313FF1A07F50624BAF1010A04F5DF
S315080041205064DAD1039BBBB1B8F1000F14D04446F2
S3150800413019E057F8040BCDE90612FFF725FF079A91
S3150800414006990132ACE757F8040BFFF739FF0AF175
S31508004150010AB4E7039B13B96FF08B007EE7B8F149
S31508004160000F18BF4446349B00201C6076E7329B3C
S3150800417013B10023329A13600EB100233360102363
S31508004180DFF8A89000932A4600232146D9F80000B4
S31508004190FEF734F960BB32992A68204BC9B99A42AE
S315080041A006D02146D9F80000FEF7AAF90028D3D18F
S315080041B0D5E90223DDE90410834208BF8A42A2D169
S315080041C0039B002BCFD06B68012BCCD16FF08400FA
S315080041D044E7102032999A420860E2D1002EE7D0CF
S315080041E033462146D9F8000018AAFEF74DF940B122
S315080041F00B4B9842D5D06328D3D00A4B9842D7D0D8
S315080042002AE7329A336812689B1A3360D0E700BFF0
S31508004210E22900200071080058120020105D175E80
S31508004220FFDF00F0FEDF00F0006D0800502E0020D2
S315080042306C12002070B5124D2B7803F0FF04CBB931
S315080042400DF0C6FB012802D90DF0F6FB04462B78C3
S315080042504BB90C48436D43F0010343650A4B1B6891
S31508004260984701232B700DF0B3FB012802D920468D
S315080042700DF004FCBDE87040044B02481B68184763
S31508004280E329002080120020882D0020802D0020A0
S31508004290034B1B781BB1034B03481B681847704731
S315080042A0E32900207C2D0020801200202DE9F04F04
S315080042B087B08246894698461646DDF840B02AB148
S315080042C0002B53D040F26C739A4252D8BBF1010FBF
S315080042D052D8002406F1100739460120059408F043
S315080042E03CF8054600284AD021463A460CF0A0FF7D
S315080042F0FFF7A0FF05ABCDE9014300942B46012249
S3150800430050464946FFF780FE044690B110F18C0FDF
S3150800431008BF6FF08D043A46002128460CF088FF46
S31508004320284607F0FCFFFFF7B3FF204607B0BDE8B5
S31508004330F08F144BC5E902A92B60C5F804B02EB15D
S315080043403246414605F110000CF0A7FF059E0E48BF
S315080043503B462A4631460068FDF7CCFF18B9304679
S31508004360FFF712FED7E76FF09104D4E76FF08604E3
S31508004370DBE76FF09104D8E76FF08504D5E76FF0B7
S315080043808C04D2E7105D175E502E00202DE9F04709
S315080043908CB08146DDE914780C4616461D466BB18D
S315080043A0B8F1000F49D0002F47D0B7F1005F44D3CA
S315080043B0C3F1005303F500239F423ED84FF0000A8D
S315080043C01022002108A80CF033FFCDE905AAFFF753
S315080043D031FF07AB029305AB019306AB2146009369
S315080043E05246484608ABFFF70FFE0446D0B9059B70
S315080043F03DB1B3421CD853EA060504D06FF08604D3
S3150800440010E0B342FAD3069B0D48C8F80050009551
S315080044103A46079900683344FDF7F0FF002818BFAD
S315080044206FF09104FFF734FF20460CB0BDE8F08723
S315080044309B1B9D4228BF1D46E5E76FF08604F3E700
S31508004440502E002070B500260C4605468CB010226A
S31508004450002108A80CF0ECFECDE90566FFF7EAFE98
S3150800446007AB029305AB019306AB21460093324690
S31508004470284608ABFFF7C8FD0446D8B9099B012BA7
S315080044801DD0079D114B29461868FEF739F8C8B99B
S315080044900122A5F506230E49A3F550635B0905F02D
S315080044A01F00824051F823004240284641F8232045
S315080044B0FFF786FDFFF7ECFE20460CB070BD6FF0E7
S315080044C08404F7E76FF09104F4E700BF502E00204C
S315080044D06C1200202DE9F0410D4614461E46C4B064
S315080044E010B96FF086000DE00029FAD0002AF8D03E
S315080044F0002BF6D0038803F44F42B2F5824F04D05E
S315080045006FF0850044B0BDE8F081DAB2122AF7D11F
S3150800451023F0FF03B3F5E24F27D143883360FBB995
S31508004520E3003360B3F5807FEAD100231846424999
S315080045302E19214411F8014D16F8012D1043121BAE
S315080045400CBF4FF0FF340024B54203EA040343EAE4
S315080045500203EFD10028C4D0002BC2DA0020D1E72D
S31508004560DA1DB4EBD20FDDD0BBE7B3F5824F5FD1CE
S315080045700B78042BB5D12422002119A80CF058FE7B
S3150800458019A806F09BFD00284FD10027842239463A
S3150800459023A822970CF04CFE01234FF0880820220E
S315080045A03946013C01A88DF8883001350CF040FEEB
S315080045B020223946069409A8E400059564080CF0FB
S315080045C037FE22AD2022394611A80D95CDF8388040
S315080045D00CF02EFEE02CCDE91558346003D0B4F566
S315080045E0807F7FF47EAF154B0734019309934FF410
S315080045F0005303934FF48043E4080B9301AA11ABCD
S31508004600640009A919A81294FFF7BCF9336807339F
S31508004610DB085A0033B10021531E013B297005F10E
S315080046200105FAD2002899D05BE76FF0920069E796
S315080046306FF0960066E700BF1B3A0108200000806D
S31508004640F8B5134642880C460732072A4FEAD201C4
S3150800465001D0A1426DD1D0E901670588202218460C
S3150800466000210CF0E5FD360A034626B1012E11D0CD
S315080046706FF08B00F8BD002C5BD041F20102954229
S3150800468005D0B5F5885F02D0B5F5905F1BD15C60A3
S315080046900020EFE7C660002C4BD041F2010295429C
S315080046A00BD15C60B90707F001021FD4002AEFD1CD
S315080046B09A6842F080729A60EAE7B5F5885FF0D0AA
S315080046C0B5F5905FEDD0B5F5105F0AD1182C03D07B
S315080046D0202C01D0102C2CD1C3E90044002ED7D0B1
S315080046E0E0E705F44F42B2F5824F02D06FF085003D
S315080046F0C0E7EAB2122AF9D1202CF7D10E4A25F0E2
S31508004700FF05B5F5E24F1A600CD0B5F5824F10D10A
S315080047104FF4005217F4705F09D017F4864F04D08F
S315080047209A60E3E74FF48042F4E742F480629A60C5
S31508004730D4E76FF086009DE7200000802DE9F04160
S31508004740174600221C4643688CB01B0A80460D4655
S31508004750009204D0012B56D06FF08B008EE00088B3
S3150800476020F0FF03B3F5824F15D1B8F802200732BF
S31508004770D208009207F073F8002800F0E1800B7861
S31508004780042B05D1013FB7EB420F05F1010503D014
S315080047906FF0860072E00097009E2246314640463A
S315080047A0FFF74EFF002869D1FA1CC4E9030522F079
S315080047B003026261002E00F0A4802022002101A8D5
S315080047C00CF036FD3146404601AAFFF739FF0028AE
S315080047D040F097802368019A9A4240F09280636875
S315080047E0029A9A4240F08D80A368039A9A4240F052
S315080047F08880A369079A9A4240F08380E369089AF9
S315080048009A423BD07DE0032FC2D90B78012B40F0AA
S315080048109A80497800294BD0F73908299CD801A3F2
S3150800482053F821F08D480008494800085947000800
S315080048308348000859470008A74800085947000850
S31508004840974800089F4800084FF41056F8253F4F30
S315080048501C22002102A80CF0EBFC03230197CDE9EA
S315080048600435039601AA09AD134603CBAB42206073
S3150800487061601A4604F10804F6D100200CB0BDE8C0
S31508004880F08110274FF08076FA25E1E720274FF0D0
S315080048900076F725DCE7FE252C4F2D4ED8E7FF25B9
S315080048A02A4F2C4ED4E74FF41056FC25274FCFE756
S315080048B02B2F7FF66DAF202220460CF0B9FC05F1B0
S315080048C010032361AB070DD001AB05F128061A4684
S315080048D028686968083503C2B5421346F7D12868BF
S315080048E001AD10606B68103F2360AB686946636072
S315080048F0EB682046A36001236761E36006F06BFC62
S3150800490028B12022002120460CF092FC40E7B8F896
S315080049100030009E03F44F42B2F5824F0ED1DAB250
S31508004920122A0BD123F0FF03B3F5824F06D1730089
S3150800493062691C339A42BFF43DAFE2E73346F7E7B4
S315080049406FF085009AE76FF0910097E720000080E6
S315080049500044000200440003038810B503F44F42E4
S31508004960B2F5824F21F0FF0221F4FF71134C21F0BA
S31508004970010109D0A1421AD0114B9A4214BF6FF017
S3150800498085006FF0860010BDA142DBB20FD00C493E
S315080049908A420CD0122B0DD14388B3F5807F09D1FA
S315080049A0B2F1062F0CBF00206FF08500EBE76FF021
S315080049B08600E8E76FF08500E5E700BF000200061D
S315080049C000130006184A20F4FF7323F001039342EC
S315080049D00ED0164B20F0FF029A4209D0144920F453
S315080049E07F7323F003038B4202D0124B9A4217D1EE
S315080049F010F0FF0017D040F0007000F17E40053837
S31508004A0006280DD8DFE800F0040C0C0E06080A008C
S31508004A10012070470320704704207047052070471F
S31508004A2000207047022070470002000600130006A7
S31508004A30000400060009000607B5094B18689A889D
S31508004A409B7900906846ADF804208DF80630FEF78D
S31508004A5043FC0C20FEF778FC002003B05DF804FB4D
S31508004A603B3A010813B50024064A6846536F43F0DB
S31508004A700103536700948DF80440FEF775FB204642
S31508004A8002B010BD004000500028ACBF00F16040E5
S31508004A90064B4FEA0111C9B2ABBF00F5614000F001
S31508004AA00F0080F800131954704700BF14ED00E09A
S31508004AB008B50EF005F80A4B1A786AB901221A7079
S31508004AC00DF0F9FF6FF00402104605210132FFF7D9
S31508004AD0DBFF5D2AF8D108BDBDE808400DF0EBBF45
S31508004AE0E4290020002807DB01234109034A00F0D6
S31508004AF01F00834042F82130704700BF00E100E004
S31508004B00002808DB01224309034900F01F00824000
S31508004B10603341F82320704700E100E073B50DF0DB
S31508004B20C6FF0D4D0D4B2E781C680DF0BBFF0EF021
S31508004B3066F838B1FF2E05D00020297801AA05F0BD
S31508004B4069FD019C2CB90DF0B2FF054B1C680DF0F0
S31508004B50A9FF204602B070BDD12E0020E412002025
S31508004B60E812002010B504460DF0A1FF024B1C60A8
S31508004B700DF098FF002010BDE812002013B50023A1
S31508004B8001241A4619461846009403F01DFA002314
S31508004B9000941A461946184603F048FA0248FFF7E1
S31508004BA0E1FF002002B010BD642D002073B500247B
S31508004BB0684600F0FBFA0C4B00981C600B4B0C4D3A
S31508004BC01C600C4E0C4B306018602C6007F0F5FB2F
S31508004BD02046019B3268013BDB0853802B68013372
S31508004BE02B6002B070BD00BFF0120020EC1200204E
S31508004BF0F4120020FC120020F81200202DE9F04FD4
S31508004C000E460027984689B0054606A81446059715
S31508004C1000F0CCFA731C14BFB3464FF0080BB8F17A
S31508004C20000F00F0BC80C8F80070002D00F0B980B5
S31508004C30079BAB4240F2B5800DF042FF073505AB46
S31508004C4025F007053146009381463B46224628460D
S31508004C5000F0B6FA059E074606B130B948460DF08B
S31508004C602AFF192009B0BDE8F08FDFF84CA1738838
S31508004C70DAF80010DA00C0EBC3030139272BCAF8AB
S31508004C80001074D9002C50D1854205F1080347D08D
S31508004C9059463046029307F0FCFA0446029B0590F3
S31508004CA0059A02EB030B584607F087FB059905F1B1
S31508004CB00F034A88C3F3CF03D21AABF80220CA8877
S31508004CC0ABF8043072B3D31A9BB201EBC202ABF84D
S31508004CD0063093808B88ED08A380BBF80430002249
S31508004CE0314658466580E38000F0E2FA237843F0BF
S31508004CF001032370DAF800300133CAF800302C4A71
S31508004D004846136808343B4413602A4A11688B42A4
S31508004D1088BF13600DF0CFFE0020C8F80040A1E759
S31508004D203446BDE7ABF80620D4E7F41820460293CC
S31508004D30039207F042FB029BF91DC908059861809A
S31508004D40D91DC908A180C18879B1C900039ACD1DAA
S31508004D50AA1A3A44C2F3CF020144E2808A80013B90
S31508004D60DB084380A388C380C0E7E180F7E7012C0E
S31508004D7019D106F10803B3FBFBF20BFB1233A3B1FF
S31508004D805946304607F085FA04462378012243F04F
S31508004D90010331462046237000F08AFAAFE7222045
S31508004DA060E721205EE78542EAD13446EDE700BF99
S31508004DB0F0120020EC120020F41200202DE9F3472F
S31508004DC00446684600F0F2F9002C00F0AB800DF0BE
S31508004DD077FE14F8086CF30704D534F806ECBEF130
S31508004DE0000F05D10DF067FE012002B0BDE8F0877F
S31508004DF04D494E4D0A68D5F80080A2EBCE020A60EE
S31508004E0034F8041C0EF1010308F10102A4F1080CA0
S31508004E109BB22A60B9B3ACEBC10292F800A0B2F813
S31508004E2006901AF0010F578806F002061FD1FEB940
S31508004E30A9EB0701012926D80EF102031F44BBB2CC
S31508004E40C5F8008034F8026CFEB9013B9BB214F831
S31508004E50081C6FF3000104F8081C002124F8061C3E
S31508004E6053801378D18061F30003137031E056B193
S31508004E7019448BB214F8081C6FF3410104F8081C96
S31508004E8000219180DEE76246DCE70CEBC608DDE927
S31508004E9000710F44B845D8D21CF83670414617F051
S31508004EA001072AD0013B9BB214F8085C6FF3000592
S31508004EB004F8085C002524F8065C5380137865F32B
S31508004EC000031370C2F107030B44C3F3CF03D38067
S31508004ED08B8017490B681BB1934201D85B8803B9CD
S31508004EE00A6014490B681BB1934201D35B8803B966
S31508004EF00A600DF0E0FD002077E7A6EB0E06012E0E
S31508004F00D0D8B8F80260A8F802703344B8F806702A
S31508004F102E689BB2013E1FB108EBC7012E60C3E79E
S31508004F202E6094E7222060E7F0120020F412002099
S31508004F30FC120020F81200202DE9F74F914604468E
S31508004F4068460D4600F032F9B9F1000F00F02481E9
S31508004F500023C9F80030019BAB4240F21F8154B9C7
S31508004F60002D00F01B814A462146284603B0BDE8BD
S31508004F70F04F07F0CEB92DB9204603B0BDE8F04F83
S31508004F80FFF71CBF0DF09CFD34F8063C07354FEAC9
S31508004F90C30825F00705A8450746A4F1080080F0D0
S31508004FA0888034F8022C002A66D000EBC20A10F872
S31508004FB03220D20760D4BAF80210A8EB050616EB21
S31508004FC0C10659D41F2E3DDDC5F3CF0304EB050BEF
S31508004FD024F8063C013324F8023C584607F0EDF95C
S31508004FE034F8023CC6F3CF06ABF80430BAF80630FC
S31508004FF0ABF8026013B3BAF802209A1A1644B6B28E
S315080050000AEBC303ABF806609E8000225146584659
S3150800501000F04EF9504607F0D0F9614AC9F8004049
S3150800502013682B44A3EB080313605E4A11688B428E
S315080050303DD838460DF03FFD002527E00023ABF8A4
S315080050400630E2E7584E0B4432689BB2013A3260AA
S315080050505A1C24F8062CBAF806204AB102339BB229
S315080050600AEBC20224F8023C938001225146CFE79C
S31508005070002324F8023CF8E728464A46002107F0B0
S3150800508048F9054630B138460DF015FD284603B0F7
S31508005090BDE8F08F42462146D9F800000CF0FDF82D
S315080050A02046FFF78BFE05460028C2D0EBE71360C3
S315080050B0BFE76ED934F8023CA8EB0506002B3AD0B8
S315080050C000EBC30A10F83330DB0735D4C5F3CF033A
S315080050D004EB050B24F8063C013324F8023C584639
S315080050E007F06BF9BAF8023034F8022C03EBD60352
S315080050F0ABF80420BAF806209BB2ABF80230BAB176
S3150800510001339BB20AEBC202ABF8063093805846CD
S315080051100022514600F0CCF8504607F04EF9204BD5
S31508005120C9F800401A681544A5EB08051D6080E714
S31508005130ABF80620EBE79A46272EF0D9C5F3CF033E
S3150800514004EB050B24F8063C013324F8023C5846C8
S3150800515007F033F9013E34F8023CC6F3CF06ABF844
S315080051600260ABF80430BAF1000F0FD00136B6B2C0
S31508005170ABF80660AAF804600B4A58461368013370
S3150800518013600022114600F093F8C8E7ABF806A0B2
S31508005190F2E7C9F800404CE7222577E7212575E7AD
S315080051A0F0120020EC120020F41200200249034AF3
S315080051B00160521A42607047B83800200000082083
S315080051C0F0B506460020059F4C1C08BF082138602C
S315080051D0BAB91F480568002D38D0B5F802E0DB00DB
S315080051E003EBCE0EC1F1000C2878C0070BD52ABBFD
S315080051F0E888B0B105EBC005B5F802E003EBCE0EC2
S31508005200F2E71448E6E7B645F1D35AB905F10804BA
S31508005210B4FBF1F001FB1044A0190CB17045E7D8B6
S315080052203D60F0BD08290FD06C88013405EBC40435
S31508005230A01B00EA0C00201A8645F1D2A88800288F
S31508005240EFD0A5EBC005D7E73046E9E72846E8E7FB
S31508005250FC120020F8120020134B13B51B680446F5
S315080052600846FBB121B96846FFF7A0FF6CB900985C
S315080052700378D90707D55CB9C3889BB100EBC3008F
S315080052800378DA07F8D402B010BD084B1868EFE7C0
S31508005290012C07D183882BB1A0EBC3000378DB0769
S315080052A0F8D4F0E70020EEE7F4120020F812002008
S315080052B0F8B5154F05460C463B68144EB2B19942EF
S315080052C009D041B13368994204D129460120FFF734
S315080052D0C3FF3060F8BD29460020FFF7BDFF3368DD
S315080052E03860A342F1D0002CEFD0F3E7994205D1FC
S315080052F03D603368A34204D13560EBE79842F7D3A3
S31508005300F7E7AB42F8D3E5E7FC120020F8120020D5
S31508005310002307B50193054B1B680DF0E6FC019BBE
S31508005320002BFCD003B05DF804FB00BF702D0020F5
S3150800533030B5074C256824686A40D2B2891A101A13
S31508005340090A41EA1021634023EA0100C0B230BDD0
S315080053509C1E0020044B1B68584043085B42404291
S315080053601843C017704700BF9C1E0020054B01312B
S315080053701B680132434022EA030208400243501EDA
S3150800538000B270479C1E00202DE9F04F834699B065
S315080053900F46184600211646049307F07AFC0028A3
S315080053A000F0878100240125774B30461493049931
S315080053B015ABCDE90B45CDE90D45CDE90F45CDE951
S315080053C01145139307F0EEFBA04228DABBF1000F54
S315080053D005D1E7B90024204619B0BDE8F08F21466B
S315080053E0584607F054FB04460028F2D00BA807F0ED
S315080053F0A3FA0DA807F0A0FA0FA807F09DFA11A8BE
S3150800540007F09AFA0C2115A801F0B0FAE3E731463D
S31508005410384607F007FB04460028E7D1DAE73146A5
S315080054200BA807F0FFFA04460028DFD104990DA857
S3150800543007F0F8FA04460028D8D1F1880FA80231F7
S31508005440ADF83850ADF8305007F084FA0446002815
S31508005450CCD101460FA807F01AFB04460028C5D18F
S31508005460F18811A8023107F075FA04460028BDD163
S315080054700DA807F04BFB00F01F001F2873D0C0F1E2
S315080054801F0319460BA8019307F066FB044600287C
S31508005490ACD101990DA807F05FFB04460028A5D1F9
S315080054A0BDF83250BDF83A800DA8A5EB080A4FEAB8
S315080054B04A19494607F050FB0446002896D14FEA98
S315080054C08A0A0DA90BA807F09CFB00284DDA494665
S315080054D00DA807F05EFB0446002887D108F1FF33C4
S315080054E002939B0005F1FF3A069305F1804508F102
S315080054F08043023B013D9B00A5EB08050993AB00E1
