S01C00006275696C642F64656275672F67656E657261746F722E7333379C
S31508000000001000201911000837AE000837AE0008A6
S3150800001037AE000837AE000837AE000837AE00081E
S3150800002037AE000837AE000837AE0008011B0108D6
S3150800003037AE00080C3C0108911A0108552F010833
S3150800004037AE000837AE000837AE000837AE0008EE
S3150800005037AE000837AE000837AE000837AE0008DE
S3150800006037AE000837AE000837AE000837AE0008CE
S3150800007037AE000837AE000837AE000837AE0008BE
S3150800008037AE000837AE000837AE000837AE0008AE
S3150800009037AE000837AE000837AE000837AE00089E
S315080000A037AE000837AE000837AE000837AE00088E
S315080000B037AE000837AE000837AE000837AE00087E
S315080000C037AE000837AE000837AE000837AE00086E
S315080000D037AE000837AE000837AE000837AE00085E
S315080000E037AE000837AE000837AE000837AE00084E
S315080000F037AE000837AE000837AE000837AE00083E
S3150800010037AE000837AE000837AE000837AE00082D
S3150800011037AE000837AE000837AE000837AE00081D
S3150800012037AE000837AE000837AE000837AE00080D
S3150800013037AE000837AE000837AE000837AE0008FD
S3150800014037AE00083136000837AE000837AE00086B
S3150800015037AE000837AE000837AE000837AE0008DD
S3150800016037AE000837AE000837AE000837AE0008CD
S31508000170F0B5114A114C124E00F00105E3695F070C
S3150800018013D40DB9334213D103EA00078F4207D1BE
S315080001900B4A1A40002A0CBF00206FF00100F0BD80
S315080001A0013AEBD16FF00200F9E74FF0FF30F6E7BE
S315080001B06FF00100F3E700BF809698000000035037
S315080001C0020001000B4B70B5D96911F480310DD1CD
S315080001D001244FF48072084E084DF46020462C64C2
S315080001E01A61FFF7C5FF3464EC6070BD6FF001005B
S315080001F0FBE700BF00000350001003500020035027
S315080002004FF4803238B50E4B0E4C9A66E56941F6C6
S31508000210713315400122E3630B4B0021DA60022398
S31508000220606121202361FFF7A3FF10B92120FFF7A2
S315080002309FFF0122054BDA600DB10023E36338BD49
S315080002400090005000000350001003500020035097
S3150800025070B5134C6061E3695B071ED40E4656F809
S31508000260043B8D18A361AE420BD104230021212043
S315080002702361FFF77DFF58B9BDE870402120FFF7DD
S3150800028077BF08210846FFF773FF10B104232361DF
S3150800029070BD56F8043BA361E5E74FF0FF30F7E77A
S315080002A0000003502DE9F84315464FF48032184BE9
S315080002B089469A6603F51C33DF690646174041F6F8
S315080002C07132DA63012203F58053DFF84C80DA6075
S315080002D055B9284601220F4BDA601FB10022A3F553
S315080002E00053DA63BDE8F88306F5005404EA080407
S315080002F0A41BAC4228BF2C46494622463046FFF787
S31508000300A7FF0028E6D12644A1442D1BE0E700BF3D
S31108000310009000500020035000E0FFFFA2
S3150800032001292DE9F04F4AD889B30FF2D40BDBE93E
S3150800033000AB0FF2D409D9E9008935A7D7E90067D8
S3150800034035A5D5E9004536A3D3E900239FED1E5B05
S315080003509FED1F6B9FED207B9FED214B80ED045B8E
S3150800036080ED004B80ED024B80ED066B80ED087B3F
S31508000370C0E90AABC0E90C89C0E90E67C0E91045B7
S31508000380C0E91223C0F8D0100020BDE8F08F9FED19
S31508000390165B0FF2940BDBE900AB0FF29409D9E96F
S315080003A0008925A7D7E9006725A5D5E9004526A32D
S315080003B0D3E900239FED0E6B9FED0F7BCCE76FF023
S315080003C07400E2E7AFF30080D89E05C15D9DBBCB04
S315080003D007D57C362A299A6217DD70305A01599159
S315080003E0000000000000000008C9BCF367E6096ABF
S315080003F03BA7CA8485AE67BB2BF894FE72F36E3CA6
S3150800040039590EF7D8EC2F15310BC0FF672633671D
S3150800041011155868874AB48EA78FF9640D2E0CDB20
S31508000420A44FFABE1D48B547F1361D5F3AF54FA5EC
S31508000430D182E6AD7F520E511F6C3E2B8C68059B10
S315080004406BBD41FBABD9831F79217E1319CDE05BC8
S315080004500348044B834202D0034B03B11847704745
S31508000460B4380020B438002000000000064B0749C5
S31508000470C91A891048BF0131491003D0044B0BB182
S3150800048001481847704700BFB4380020B438002028
S315080004900000000010B5064C237843B9FFF7D8FFD3
S315080004A0044B13B10448AFF300800123237010BD39
S315080004B0BC290020000000009C51010808B5054B26
S315080004C01BB105490548AFF30080BDE80840FFF7B2
S315080004D0CDBF00BF00000000501000209C5101084D
S315080004E0A3F5803A704700BF174B002B08BF134B84
S315080004F09D46FFF7F5FF00218B460F461348144A21
S31508000500121A11F050F80E4B002B00D098470D4BDD
S31508000510002B00D098470020002104000D000D484C
S31508000520002802D00C48AFF3008009F0A7FE20008F
S31508000530290010F090FE09F07FFC00BF00000800BB
S31508000540000000000000000000100020001000203D
S31508000550882B00200000000000000000012903BFCE
S31508000560034B00201B78A62008BF1370704700BFF6
S31508000570DD290020022938B514461D460FD1202250
S315080005800021084811F00FF83CB1202D2A462146D3
S3150800059028BF2022034811F03BF8002038BDA620CA
S315080005A0FCE700BFBD290020104608B56AB163B153
S315080005B002290CD1202B28BF20231A46029B054965
S315080005C01A6011F025F8002008BD2F20FCE7A620A8
S315080005D0FAE700BFBD290020012905D102B112782A
S315080005E0024B00201A707047A6207047DD290020AC
S315080005F02DE9F0431D46002389B0074608460E46F6
S315080006001446CDE9053300F0EBFB18B9D82009B03C
S31508000610BDE8F083304605A900F044FC0028F6D171
S31508000620204600F0DDFB0028F0D0204606A900F0A1
S3150800063039FC0028EBD1DDE90596079007A918488B
S3150800064000F030FC044600BB079919EB01081ED1DF
S315080006500EB110F038FE02200AF061FBA0B1079B2C
S31508000660022100931F203B46CDE901960D4A0AF068
S3150800067049FB6B689E4210D832464146286810F0FE
S31508000680C7FF6B689E42E4D86E602046BFE702202B
S315080006900AF045FB0028ECD0E1E71924F5E700BF8E
S315080006A02172080080390108014800F0F5BC00BF36
S315080006B000720800002307B50348019301AB00F058
S315080006C015FC03B05DF804FB00720800014800F051
S315080006D0B3BC00BF0C72080010B506480C4600F003
S315080006E0B9FB40F20123984202BF4FF6F17300208E
S315080006F0238010BD0C720800014800F0CDBC00BF75
S315080007000D720800002307B50348019301AB00F0FA
S31508000710EDFB03B05DF804FB0D720800014800F01C
S315080007208BBC00BF0B72080010B506480C4600F0DB
S3150800073091FB40F20123984202BF48F201030020D0
S31508000740238010BD0B720800014800F0A5BC00BF4D
S315080007500E720800002307B50348019301AB00F0A9
S31508000760C5FB03B05DF804FB0E720800014800F0F3
S3150800077093BC00BF10720800002307B50348019315
S3150800078001AB00F0B3FB03B05DF804FB1072080080
S31508000790014800F081BC00BF11720800002307B5AC
S315080007A00348019301AB00F0A1FB03B05DF804FB1D
S315080007B011720800014800F06FBC00BF12720800F1
S315080007C0002307B50348019301AB00F08FFB03B084
S315080007D05DF804FB12720800014800F02DBC00BF4A
S315080007E01872080010B505480C4600F033FB40F2B5
S315080007F00123984204BF0020208010BD187208000B
S31508000800014800F049BC00BF0F72080073B5002606
S3150800081001AB0E480C461546019600F067FB40F200
S31508000820012398420BD164B10C2D0CD920462A46D7
S31508000830074910F07BFE30462C4404F8016C02B0E0
S3150800084070BD0B20FBE71920F9E700BF0F720800FF
S315080008509E390108014800F01FBC00BF0472080059
S31508000860014800F043BB00BF04720800014800F0CD
S315080008702DBC00BF1F720800014800F08DBB00BFE9
S315080008801F720800014800F0D7BB00BF07720800B6
S3150800089037B512480D4600F0DDFA40F201239842BA
S315080008A0044604D14FF470632B80002014E098B9F5
S315080008B02B88B3F5805FF8D301200AF030FA50B1DF
S315080008C04FF4BF732F220121CDE900322046044B95
S315080008D0044A0AF017FA2F2003B030BD0772080041
S315080008E0AB390108CB390108014800F0BDBB00BF90
S315080008F00872080010B506480C4600F0D3FA40F214
S315080009000123984202BF4FF47A730020236010BD7A
S3150800091008720800014800F0BFBB00BF0972080052
S31508000920014800F0E3BA00BF09720800014800F068
S31508000930B3BB00BF0A720800014800F0D7BA00BF6F
S315080009400A7208000B46024A02490348FFF750BEDE
S315080009502772080026720800DC3901080B46024A8D
S3150800096002490348FFF744BE2572080024720800AE
S31508000970F83901080B46024A02490348FFF738BE10
S3150800098023720800227208001E3A0108022307B5DE
S31508000990D1E9001201A8019307F0DEFF18B9019901
S315080009A0024800F061FB03B05DF804FB2072080002
S315080009B01FB5022003900698009003A807F0E4FFED
S315080009C018B90399024800F04FFB05B05DF804FB1F
S315080009D020720800002370B5154886B00D461646E5
S315080009E0049300F0FDF908B3114804A900F05AFA77
S315080009F0D0B9049B3246002B08BF0223294605A816
S31508000A00059308F02BF8044602200AF088F950B13D
S31508000A1002947368022101936B681F200093054AAC
S31508000A20049B0AF06FF9204606B070BDD824EBE7A0
S31508000A3020720800373A0108014800F015BB00BFCC
S31508000A4021720800014800F02DBA00BF2172080083
S31508000A50014800F021BB00BF29720800014800F0D8
S31508000A6045BA00BF29720800014800F02FBB00BF35
S31508000A7005720800014800F08FBA00BF0572080029
S31508000A80014800F0C1BA00BF28720800014800F00A
S31508000A90B9B900BF28720800032307B5D1E90012C7
S31508000AA001A8019300F010F918B90199024800F05D
S31508000AB0DBFA03B05DF804FB3072080000200A4B2D
S31508000AC010B5186032B9094C2146BDE810400848EF
S31508000AD000F0CABAA1F500518C1806480AF068F960
S31508000AE0204608F0A9FFEFE76810002000E00F088D
S31508000AF0217208007C1000202DE9F74F1C460023C0
S31508000B0080460F46254801A91646019300F0CAF902
S31508000B1038BB234D01992B681BB922480AF02FF9D7
S31508000B20F8B9D4E9009313F00301DDF804B0D5F859
S31508000B3000A0D8F828200DD003F10408A8EB010876
S31508000B40424511D3A8EB030209EB0300FF2110F07D
S31508000B502AFD43464A4613480BEB0A010AF015F9E3
S31508000B6020B103B0BDE8F08F1920FAE738462968A6
S31508000B7000F07AFA0028F4D13046616800F074FA79
S31508000B800028EED12B6862680020134413F03F0258
S31508000B901CBF40339B1A2B60E3E700BF2172080095
S31508000BA0681000207C10002008B5034A0B4603494C
S31508000BB0FFF7A2FF08BD00BF2772080026720800CB
S31508000BC008B5034A0B460349FFF796FF08BD00BF61
S31508000BD0257208002472080008B5034A0B46034923
S31508000BE0FFF78AFF08BD00BF2372080022720800BB
S31508000BF01FB513460022039203AA019220220092EF
S31508000C000A46014604480EF01BF8002814BFAC201B
S31508000C10002005B05DF804FB09000002014B09F04D
S31508000C20C2BF00BFCBAA000830B4084BD3E8EF2FE9
S31508000C30541CC3E8E54F002DF8D1002A02DC30BC6D
S31508000C4000F026B8002030BC704700BF6C100020AA
S31508000C502A2828BF002010B4074C04EB8000074C54
S31508000C60D4E8AF4F1CB1A4465DF8044B60475DF865
S31508000C70044B0AF05DB800BF823A010870100020E4
S31508000C80024BD3E88F0FC0B2704700BFD02E0020AA
S31508000C9008B50A4BD3E8EF2F511CC3E8E01F00281C
S31508000CA0F8D1002A07DD064B06481B68D96809F003
S31508000CB0BDF910F008FB002008BD00BF7410002025
S31508000CC0802E00202A3B010870B5044688B00068CB
S31508000CD00D4616460AF02DF823684FF4007107935F
S31508000CE001230B4A02A8CDE902230A4B3246CDE975
S31508000CF0041300232946069301AB0DF03CFF014679
S31508000D0018B1054809F06CFAAC2008B070BD00BFF0
S31508000D10002480000010C0045D3B0108014B1960E7
S31508000D20704700BF78100020014B1960704700BF5C
S31508000D3078100020014B0360704700BFC83B0108CC
S31508000D4010B50446034B082103600BF0C1FC20468E
S31508000D5010BD00BFC83B01080448054B054A03609F
S31508000D6000230549436010F0A7BA00BF7C10002095
S31508000D70C83B0108342D0020350D000837B50E4D47
S31508000D802C686CB9032322462146009301200B4B9D
S31508000D9012F0DFFC234622462146286012F014FA98
S31508000DA0286808B910F08FFA4FF0FF3103B0BDE894
S31508000DB0304012F083BB00BFD410002084100020FE
S31508000DC0064B10B5186808B910F07DFA0023BDE87F
S31508000DD010401A46194612F0F7B900BFD410002081
S31508000DE007B5014606486A4601AB006801F0C2FB32
S31508000DF009F0ECFFB0FA80F0400903B05DF804FB97
S31508000E00502E00207FB5002304460D468DF8073086
S31508000E1009F0E8FFC0B10E4E2146306803AB02AABE
S31508000E2001F0A8FB09F0D2FF60B92146039B3068A0
S31508000E300DF1070201F018FB09F0C8FF10B99DF87B
S31508000E4007302B7004B070BD40F20120FAE700BFEE
S31508000E50502E00207FB5002304460D46ADF8063017
S31508000E6009F0C0FFC0B10E4E2146306803AB02AA96
S31508000E7001F080FB09F0AAFF60B92146039B3068A0
S31508000E800DF1060201F0F0FA09F0A0FF10B9BDF85D
S31508000E9006302B8004B070BD40F20120FAE700BF8F
S31508000EA0502E00207FB5002304460D46039309F013
S31508000EB099FFB0B10C4E2146306802AB01AA01F089
S31508000EC059FB09F083FF50B92146029B306803AAF3
S31508000ED001F0CAFA09F07AFF08B9039B2B6004B03F
S31508000EE070BD40F20120FAE7502E00202DE9F043AC
S31508000EF01D46002385B02B6007460E46914609F02D
S31508000F0071FF00283ED0DFF88C803946D8F80000FB
S31508000F1003AB02AA01F02EFB09F058FF0446B8B944
S31508000F20039B93B3C6B14B4531D232463946D8F8FE
S31508000F30000001F099FA09F049FFD8B9039B012B83
S31508000F4003D13378003B18BF012300222B60F254EB
S31508000F50204605B0BDE8F083012B01D02B60F7E7EA
S31508000F603946D8F800000DF1070201F07DFA09F0BC
S31508000F702DFF08B10446EBE79DF8073003B1039847
S31508000F802860E5E740F20124E2E71E24E0E7192499
S31508000F90DEE700BF502E00202DE9F7431D4600234B
S31508000FA02B6006460F46904609F01CFF00B3DFF893
S31508000FB054906A463146D9F8000001AB01F0DAFAD6
S31508000FC009F004FF044678B9019BA3B167B143450C
S31508000FD013D83A463146D9F8000001F045FA09F027
S31508000FE0F5FE60B9019B2B60204603B0BDE8F0838F
S31508000FF040F20124F8E71E24F6E71924F4E704462C
S31508001000F2E700BF502E002013B504468DF80710EE
S3150800101009F0E8FE58B107480123214600680DF19A
S31508001020070201F0DDF909F0D1FE02B010BD2F204C
S31508001030FBE700BF502E002013B50446ADF8061096
S3150800104009F0D0FE58B107480223214600680DF181
S31508001050060201F0C5F909F0B9FE02B010BD40F26A
S315080010600120FAE7502E002013B50446019109F035
S31508001070B9FE58B104230748214600680DEB030260
S3150800108001F0AEF909F0A2FE02B010BD40F201204F
S31508001090FAE700BF502E002010B5044609F0A2FE5C
S315080010A068B179B10848012A1346006838BF012398
S315080010B00A46214601F094F909F088FE10BD40F26F
S315080010C00120FBE72F20F9E7502E002010B5044633
S315080010D009F088FE58B101B962B907481346006895
S315080010E00A46214601F07CF909F070FE10BD40F26F
S315080010F00120FBE72F20F9E7502E00200348044A79
S315080011000449121A921009F097BE00BF7001000830
S315080011101C030008882B002008B500F02FF8FFF7FD
S31508001120EDFF124B12498B4212D30020114B124984
S315080011308B4218D3FFF7D8F9186850F82240586838
S3150800114040F82240013298688242F5D30C33EAE728
S315080011500022F8E71C6844F8220001325C68A242C3
S31508001160F8D30833E4E70022F8E700BFA4510108E2
S31508001170B0510108B0510108B05101084FF480413F
S31508001180124B134A70B59A60D3F88820114D42F471
S315080011907002C3F88820104A05F5005491664FF08E
S315080011A0FF3222660D4A62660222C3F8D020BFF3D8
S315080011B04F8FBFF36F8F4FF44036002003F0F4FBD8
S315080011C00020E66003F0E2FB2E6170BD00ED00E052
S315080011D0000000080080004400900050F7FF370028
S315080011E02DE9F04F144606460D469B46C36B87B05D
S315080011F001225B6902A960689847F36B01225B6963
S3150800120003A92846984702A80AF014FA074648B1DF
S315080012100023A37563754FF0FF33A360002007B062
S31508001220BDE8F08F03A80AF012FA0123A375237EFE
S3150800123004EBC303DD611F846368AB420ED12060F3
S3150800124003A80AF026FA4FF0FF332075A360237D22
S31508001250043B022B26D80023A375DFE723681A1A56
S3150800126053425341A37503A80AF013FA237D834218
S3150800127018BFA77503A80AF0EEF9074602A80AF0F0
S31508001280EAF9874218BF002303A818BFA3750AF016
S31508001290EAF9074602A80AF0E6F987421CBF0023C6
S315080012A0A375D4E703A80AF0D6F980B1F36B022236
S315080012B028465B6904A9984704A80AF0DBF903469F
S315080012C0207D032839D8DFE800F03838040903A858
S315080012D0F3E7CC22237E04EBC3031A8401F08AFACF
S315080012E0109B187003A8277E0AF0A9F904EBC70714
S315080012F087F82200237E03A804EBC303B3F82090E3
S3150800130093F822700AF0A7F9804603A80AF0ABF909
S315080013108246B8F1000F15D0F36B022228465B69A6
S3150800132004A9984704A80AF06AF96075637D6BB941
S315080013300023A3754FF0000838E0227E04EBC202B2
S315080013401384CBE703A80AF045F9EEE794F816806C
S31508001350B8F1000FEED0B9F1000F09D1DFB10123C2
S31508001360627EE375002A44D19F4218D1677614E05D
S31508001370736C05EB0A02594285EA020008421CBF53
S315080013800021A175591E0A409B1A9945D0D8A37DFC
S31508001390002BE3D1CEE7E37D43B94FF000084B4677
S315080013A052462946304609F087FEA060A27D12B152
S315080013B023694B4423611449237E097899421ED92F
S315080013C001332376BBF1000F1BD0D2B1E37DC3B145
S315080013D0B8F1000F15D1032F13D0A1684B1C10D0FC
S315080013E0109B2246009330460123FFF7F9FEA075AD
S315080013F007E0012FDAD0032F08BFA376CDE7002335
S31508001400A375A07D0BE700BF7C3C01082DE9F04FD2
S315080014100E46984600238BB004464FF0FF3110461F
S3150800142017468DF8133001F0CFF9B6F5801F3BD378
S31508001430B21C53D1E56A6B1C57D12046616A09F084
S3150800144081FD0546B31C18BF0123DFF810910193EF
S31508001450636A626C0293236805A902FB053AE36B8B
S3150800146005225B695046984705A80AF07EF90AF0F6
S31508001470A1F950460AF0A9F94FF0000B8246014639
S315080014804B1C05D0636C81EA0A025B42134232D0D8
S315080014902946204609F056FD029BAB424DD0BBF1CA
S315080014A0000F4DD10546D3E7314605AA04F10800D9
S315080014B00AF012F80146481C10D0384601F084F9A3
S315080014C00122394620460DF1130309F047FE28B1DB
S315080014D09DF8133088F80030002003E0237C002BA9
S315080014E0A8D12D200BB0BDE8F08F2368ED1A636CE8
S315080014F0B5FBF3F5A6E7484601F066F90DF11303C7
S3150800150049462046019A09F029FE034690B1B21CC5
S3150800151003D0D9F80020B2420CD19DF813200393CA
S315080015200D4B88F8002049461A68384610F070F8BE
S31508001530039B9B46D9F80810A2E7BBF1000FD0D051
S31508001540B6F5801FC8D2314698F800307A6804F19B
S31508001550080001F07FF8BFE7783C01080C1100206D
S315080015602DE9F3410446174698460E46194D816AF9
S31508001570E36A8B422AD04B1C18E0284601F024F96E
S315080015800122294620460DF1070309F0E7FD30B18F
S315080015904346294620469DF80720B847B0B1A968B2
S315080015A04A1C05D0012E0AD0E36A9942E5D10DE01E
S315080015B06968204609F053FD012E0146D8D16B68AB
S315080015C081EA0302636C5B421A42D1D002B0BDE8DD
S315080015D0F08100BFE01000202DE9F041036B904632
S315080015E0826B07689A4288BF8363426C436A90B0ED
S315080015F002FB0377C36B0E46052201A95B69044605
S315080016003846984701A80AF0B0F801280146307014
S3150800161057D0656CE26B2368606AD2F814C005FB84
S315080016200030052206A9E04706A80AF09EF8012818
S315080016304FF0000523D0D4E90A3201219342CDE9BF
S315080016400B458DF834800E958DF83C102AD1194635
S31508001650204609F004FD236B626C14339B1AE06282
S3150800166023630C9B53B99DF83C303BB1626A616CAD
S315080016702368E06B01FB02310AF02FF80C9DE36B3F
S3150800168005225B6901A93846984701A80AF06DF852
S3150800169030702846236BA26B9A4288BFA36310B0AA
S315080016A0BDE8F081237C33B91C490BAA04F1080074
S315080016B001F01EF8D5E72046194A0BABFFF750FF95
S315080016C0CFE7237C23BB2246164904F1080001F024
S315080016D00FF8616A204609F056FC616A421C2046EA
S315080016E009F01FFC054620B9236B626C1344143BB2
S315080016F023632046A16A09F0B2FC2368A062C01AD7
S31508001700636CB0FBF3F06062204609F0EBFCB6E7C9
S3150800171000232046044AFFF723FFDAE7ED1E0008F8
S31508001720691E0008E5B1000881B1000873B50D46C9
S31508001730D11E4A421C461B7E4A419A4226D1296836
S315080017402368994222D3636899421FD8114E0DF136
S3150800175007033246FFF75AFEC0B972686B689A42A9
S3150800176014D19DF80730DA1E53425341227E934224
S315080017700CD1636901336361D4E90323934205D22B
S315080017802968A26842F8231001332361012002B0B8
S3150800179070BD00BF381100202DE9F04F9A468BB076
S315080017A09DF85030DFF850B10293DBF810308046D0
S315080017B053450D461646C0F09980D146DBF80430ED
S315080017C00193B9F1000F00F08D80D8F83C30012262
S315080017D05B6907A90198984707A809F038FFDBF85D
S315080017E00030984240F0858007A809F03CFF04289D
S315080017F0074614D107A809F03DFF019B029A044643
S315080018003B44002A3FD1864212D91446361A40462E
S31508001810019909F024FCA9EB04090190D1E7D8F84D
S315080018203C3002225B69019808A9984708A8E2E7B4
S31508001830841B544528BF5446032C03EB0607AAEB22
S31508001840040A4FEA94021CD9D8F83C30294638468F
S315080018505B69984724F0030304F003061F441D44FC
S31508001860002ED4D0D8F83C3001225B6908A9384646
S3150800187098473246284608A935440FF0C9FE00267F
S31508001880C5E72646ECE7074600F003020392034441
S315080018902A1804920593049BDD1B059BD81B039B02
S315080018A09F420FD1002FB2D0D8F83C30012208A9A8
S315080018B05B6998473A46284608A90FF04AFE78B960
S315080018C03D44A4E7D8F83C30012208A95B6998474B
S315080018D00422284608A90FF03CFE08B9043FDAE7B7
S315080018E04FF0360948460BB0BDE8F08F4FF0630954
S315080018F0F8E74FF06F09F5E7641100202DE9F0418C
S315080019000F4616469846044688B060B390F8345099
S31508001910FDB1012109F0DBFA00210E9BCDE9051185
S31508001920CDE902379DF83C30CDF804808DF81C309F
S31508001930237C04968BB90D4901AA04F1080000F02E
S31508001940D7FEDDE90553E06B002E08BF1D4609F0FA
S3150800195057FC284608B0BDE8F0812046044A01AB8A
S31508001960FFF7FEFDEDE70546F3E700BFAFB1000858
S315080019702D1700082DE9F04F99B00F4609920A690C
S31508001980416C0E931439D31DB3FBF1F3013302EB0B
S31508001990C302036B04469342C0F00D820023DFF8AE
S315080019A020940D93E36A48461946079300F00CFF06
S315080019B0D7E9033604930E9B022B4ED1CC2E40F06A
S315080019C08A81099B002B42D03946204609F076FCCD
S315080019D0656C079A6B1E13401490ED1AE36B01228F
S315080019E05B6916A97868984716A809F034FE002896
S315080019F00CBF04230823782E06933DD9012300251E
S31508001A004FF0080A05933B6805990E98C9F8003007
S31508001A10C9F8106009F041FE4FEA9A0310930023B3
S31508001A20DDF81CB089F814000B930F9308930C93F8
S31508001A30616C4A1E0BEA02028B1A002E38D05544F6
S31508001A40AB4240D8236B5B1A13442363ABE0049B79
S31508001A501B68149308230693D0E7656C079A6B1ED8
S31508001A601340782EA5EB030516D8FB7D7BB9099B99
S31508001A70002BB3D104230693331DAB4210D9A6B16C
S31508001A80082DBBD804250023AA460593BBE7099B66
S31508001A90002BA3D10823EEE7099B002B9ED1D9E79B
S31508001AA0002505954FF0040AADE704250596F9E7E4
S31508001AB05345C7D3B0460BEB0A030393089B002B89
S31508001AC018BF032313E0A3EB0A039E42B0460BEBB1
S31508001AD00A0228BF98469E420392EFD90123D9F8F5
S31508001AE0102089F81730964271D1C9F804B00893C6
S31508001AF099F81730002B6CD099F818200899D31C40
S31508001B0009EBC3030132C3F804B0A3F8088099723D
S31508001B1089F81820B8F1000F14D00E9B022B5BD160
S31508001B200B9B7BB90F9B4344032B0BD9E36B012219
S31508001B309B69039814A998470546002840F03D81FB
S31508001B4001230B93089B16A80193059B009399F80C
S31508001B5014204346396800F0EDFDE36B58469B694F
S31508001B60109A16A99847051E0D9B18BF5B46524644
S31508001B700D9359464346204609F09EFA236B08F111
S31508001B800302A3EB0A0322F003029B1AC9F8080012
S31508001B902363002D40F011810F9BDDF80CB0434400
S31508001BA0A6EB08060F935946204609F058FA002571
S31508001BB08346002E7FF43CAF814A3968936804F166
S31508001BC00800E36252680E9B00F044FDDEE0022343
S31508001BD08DE7C9F804B09DE7099B002B30D1049B1B
S31508001BE0B8F1030F43440A9327D9DDE90301E36BF0
S31508001BF04FEA98029B6998470546002865D118F070
S31508001C0003025FD0049B28F003052B440493039B2F
S31508001C101D444FF0FF33049915A815930FF0F8FCEF
S31508001C20E36B28469B69012215A9984705460A9B36
S31508001C300493002D86D0039B99E74246039DE8E767
S31508001C40039B0A9307F120031193FB7D78689BB1E8
S31508001C5000233D7E0C9AD9B28D4211D9119903F110
S31508001C60010C31F83310914226D9069907EBC303C4
S31508001C70D8690A44104403E00C9B069A1344184496
S31508001C80E36B01225B6915A99847159B01221393FB
S31508001C900C9B0A9804330C93E36B13A99B6998472A
S31508001CA0039B0A9A43449B1A042B054607D978B91D
S31508001CB0134604330A93C8E76346521ACBE70A9BCE
S31508001CC00393B6E70A9B04933CE70A9B0493B2E79F
S31508001CD00A9B0393AFE7702604F10803039323686E
S31508001CE0079A606CA2EB030ABAFBF0FA00FB0A300B
S31508001CF009F06BFDE16A8046204609F0B0F9A26A50
S31508001D0082424AD0626CD9F80830511E0B40216BCA
S31508001D102568891A0B4423630D9BE0625D1BB5FB9E
S31508001D20F2F5AA4536D1079BB3EB080A12D0E36B46
S31508001D304FEA9A0241469B6998478346E36A079A9F
S31508001D405344E362236B03989B1A4344236309F0C5
S31508001D5094FBDA462368616CE06B01FB053109F0F8
S31508001D60A9FC204609F0BEF8204609F0BBF9206315
S31508001D70BAF1000F11D03A69616CD31D1439B3FB5F
S31508001D80F1F3013302EBC3029042A8D2304619B0F0
S31508001D90BDE8F08F4FF0000ADCE73A69616CD31DA5
S31508001DA01439B3FBF1F3013302EBC302236B9342FD
S31508001DB0BFF4F8ADEAE71C26E8E72E468CE700BF35
S31508001DC00C1100202DE9F3471E4643690446B34229
S31508001DD0884617469DF828903DD300258DF807506C
S31508001DE0204609F04BF8D4F830A082450AD2236A77
S31508001DF0B5EB430F06D2002220460DF10701FFF787
S31508001E00EBFB30B39DF80730012B05D100222046A5
S31508001E100DF10701FFF7E0FBB9F1030F06D03146D4
S31508001E20204609F016F8256B854218D30D4D4FF05C
S31508001E30FF31284600F0C8FC4B46002229462046BA
S31508001E40C5E90376C5F8008002B0BDE8F047FFF79C
S31508001E5091BD0135C4E7622002B0BDE8F0871C20B9
S31508001E60FAE700BF38110020032A2DE9F341064698
S31508001E700D4617461C4606D1237A012B23D001208E
S31508001E8002B0BDE8F081DFF86080096842460DF1CE
S31508001E900703FFF7BBFA60600028EDD19DF807201D
S31508001EA0237A032AE8D0D8F804106A689142E3D165
S31508001EB0012B2969D4F80CC007D172690CEB010310
S31508001EC0934202D92074207CDAE708316144E16044
S31508001ED03B46012229463046FFF74CFD6060002844
S31508001EE0CAD00020CCE700BF381100202DE9F34105
S31508001EF0089C032A1746266806D1237A012B24D084
S31508001F00012002B0BDE8F081DFF8908030464246F5
S31508001F100DF10703FFF77AFA60600028EDD125680E
S31508001F20D8F80400A96AD5F844C04840CCF10003A3
S31508001F301840227AE1D1012A09D1E268D8F810308E
S31508001F4013447269934202D92074207CD9E7286821
S31508001F50EB6A1B1A081AB3FBFCF3B0FBFCF08342CE
S31508001F600BD1706CF36A421E1340326B121A13447B
S31508001F702846336309F073F8E862D8F81020E36856
S31508001F8008321344E36001223B4604492068FFF700
S31508001F90F1FC60600028B0D00020B2E738110020BC
S31508001FA02DE9F04F4FF0FF334FF6FF720025044638
S31508001FB000F10806C0E909238BB0C3620562056310
S31508001FC030460F4609F059FA204608F08BFF20BB29
S31508001FD02046394609F006F8204608F083FF20BB5C
S31508001FE05E200BB0BDE8F08FE26B2368606CD2F818
S31508001FF014C000FB0530052205A9E04705A809F02D
S31508002000B4FB012828D12946204608F0BCFF421C0B
S315080020102946204608F085FF0135E3699D42E3D34A
S31508002020204608F05FFF0028D2D000254FF0FF3980
S315080020304FF6FF73CA46A846C4E90853E3699845AC
S3150800204014D3A5EB0905012D36D84FF6FF72636A3E
S31508002050934246D16720C4E709F0B1FB0028DBD0DC
S315080020602946204608F08FFF0246D1E72368E26B2F
S31508002070606C576900FB0830052205A9B84705A812
S3150800208009F073FB834605A809F046FB0746584640
S3150800209009F090FB68B1574538BFC4F82480B945A4
S315080020A028BFB946BD4238BF3D46BA46236A013302
S315080020B0236208F10108C1E74FF6FF730025636242
S315080020C0E3699D42C1D2676C2068E36B052207FB72
S315080020D005005B6905A9984705A809F01DFB0135A8
S315080020E0EEE7E26B676C2068694607FB03005569F3
S315080020F00522A847684609F00FFB626A2368606CE8
S31508002100504D00FB023009F060FB4FF0FF33A06230
S31508002110E3622A466FF00101204605ABFFF776F920
S3150800212000284FD1AD6829462046E56208F0B6FE7C
S31508002130206320B92046E16A08F091FFE06229464B
S31508002140204608F08CFF0546A36A9D423CD1656986
S31508002150626CE91C143AB1FBF2F14FF0000805EB8A
S31508002160C1050335B5FBF2F5C1460235E369994564
S315080021703CD3A8455AD22046616A08F0E3FE0027F8
S31508002180064604F1400AB84512D8626C23686946C7
S3150800219002FB0639E36B05225B69484698476846A1
S315080021A009F0BAFA534602464946E06B09F00FFBB6
S315080021B03146204608F0C6FE0137AF420646E2D34E
S315080021C064200EE7A56AAEE72946204608F066FEB3
S315080021D0236B2946034407462363204608F03FFF3E
S315080021E00546002FB0D1C4E90B07ADE7636C276835
S315080021F0052203FB0977E36B05A95B69384698470F
S3150800220005A809F0B2FA09F0D5FA60B1384609F01E
S31508002210DCFA0146204608F041FE636C143B9842FE
S3150800222008BF08F1010809F101099FE7304609F0DE
S3150800223024F9002320461946034AFFF791F900209E
S31508002240CFE600BF381100204BB100080023624AD0
S315080022502DE9F04117680E460446136018B9212582
S315080022602846BDE8F08190F834500DB30968026835
S31508002270914240F0A98071684268914240F0A4807A
S31508002280B1688268914240F09F80F168C2689142C5
S3150800229040F09A8031694269914240F09580B1696F
S315080022A0C26B914240F0908072691D468261D7E701
S315080022B050222946D0F838800FF075F9D6E902126F
S315080022C0336804F1080023607368C4F838806360D3
S315080022D0336963617369A36109F0E1F8B36904F1CD
S315080022E04000E3639B68984794F8432020B1E56172
S315080022F0002AB4D05B25B3E7656C002DF7D0666875
S31508002300B6FBF5F3E361002AA9D0B542F2D82268F4
S31508002310B2FBF5F105FB1122002A57D105FB136321
S31508002320002B53D1204608F0A9FDA36904330344C2
S315080023309E424DD340F634726369CC3B934249D8EA
S31508002340B5F5007FD6D30321204608F0C0FDD4E9B1
S315080023500001E36B1B6898470546E36B0220DB68C0
S3150800236098471DB1002384F834301DE039462046CD
S31508002370FFF716FE6428054604D139462046FFF7BE
S315080023800FFE0546636C143B002DEBD1226A2046EE
S3150800239002FB03F608F072FDA369043303449E4268
S315080023A006D284F834505A25E06B08F029FF57E71F
S315080023B00123D4E90001094A84F83430136801334B
S315080023C0136009F006F9EFE75D2549E7592547E760
S315080023D05A2545E75F2543E7DC100020D810002082
S315080023E02DE9FF410F4690461E46054698B390F8DC
S315080023F0343093B3B1F5801F31D21A4C022108F05C
S3150800240066FD2246394628460DF10F03FEF7FEFF04
S31508002410024678B101234246009339463346284698
S31508002420FFF7D0FC0446E86B08F0EAFE204604B045
S31508002430BDE8F0819DF80F30012BEBD12169B1423F
S31508002440E8D10093414633462846FFF7A5F90446E6
S315080024500028DFD1E7E72124E8E71124E6E7292465
S31508002460E4E700BF641100202DE9FF410C4616463B
S315080024701F46054680B390F834307BB3B1F5801F0C
S315080024802ED2DFF86080012108F021FD2146424660
S3150800249028460DF10F03FEF7B9FF044670B99DF8FB
S315080024A00F30012B11D1D8F81030BB4212D1024699
S315080024B0009031462846FFF76FF90446E86B08F0A6
S315080024C09FFE204604B0BDE8F081022B14BF2D24E0
S315080024D06024F3E76324F1E72124F2E71124F0E707
S315080024E02924EEE7641100202DE9F04385B00C4657
S315080024F017461E460546DDF8308098B390F8343006
S3150800250093B3B1F5801F31D2DFF86490012108F04A
S31508002510DEFC21464A4628460DF10F03FEF776FFF4
S31508002520044688B99DF80F30012B14D1D9F810202C
S3150800253006EB08039A4213D30090434632463946BF
S315080025402846FFF729F90446E86B08F059FE2046A5
S3150800255005B0BDE8F083022B14BF2D246024F3E7F1
S315080025606324F1E72124F2E71124F0E72924EEE7B2
S31508002570641100202DE9F3411F4600230C46164638
S3150800258005463B6050B390F834304BB3B1F5801F25
S3150800259028D2DFF85480012108F099FC21464246EA
S315080025A028460DF10703FEF731FF0446A0B99DF84A
S315080025B00730032B10D0022B0AD1012333600423E2
S315080025C03B60E86B08F01CFE204602B0BDE8F081CF
S315080025D0D8F810303060F3E72D24F2E72124F3E72A
S315080025E01124F1E72924EFE76411002030B50C46E1
S315080025F0054685B028B390F8343023B3B1F5801F6B
S3150800260023D2022108F063FC0DF10F032146284668
S315080026100F4AFEF7FBFE034688B99DF80F20032AEA
S315080026200DD003222146009202462846FFF7CAFB30
S315080026300446E86B08F0E4FD204605B030BD2D24BD
S31508002640F7E72124F8E71124F6E72924F4E700BF81
S31508002650641100202DE9F043466886B3056898465C
S315080026604FF0000CA946AE4655F83C400CF1010C5B
S31508002670C4F31307013401D0B94217D066450EF1E9
S31508002680080EF1D12F46002403E0A64207F10807F9
S3150800269012D055F8343001340133F6D1C1F31301A1
S315080026A041EA0851C7E90012BDE8F08341EA08513A
S315080026B0CEE90012BDE8F083B8F1030F03D1012378
S315080026C00372BDE8F083002303E09E4209F108097E
S315080026D0F5D055F833400133C4F30754032CF4D12D
S315080026E0C1F3130343EA0853C9E90032BDE8F0838E
S315080026F02DE9F0410646406882B0C0B10F469046C3
S315080027000024336853F8345003EBC403C5F3075267
S31508002710C5F31301013504F1010406D05B683046A0
S31508002720CDF80080B84710B170688442E9D302B08A
S31508002730BDE8F08173B504462248012A00EAC111B2
S315080027409DF8185023F07C4007D9961E012E28D9EB
S31508002750073303F07F03194308E09DF81C300A434A
S31508002760DB0603F0C053134343F060410023C4E97A
S3150800277000108DF80730B5B1202221460DF107006B
S3150800278009F03FF81A220DF10700211D09F039F862
S31508002790082063689DF8072043EA8263636002B0F5
S315080027A070BD1143E2E71B220DF10700214609F02F
S315080027B028F823689DF80720042043EAC2632360AB
S315080027C0EDE700BF80FFFF0738B5094B0D461A68CD
S315080027D0002104460EF0E7FE00234FF0FF32238364
S315080027E0C4E900252361A260E382A37638BD00BF51
S315080027F0783C01080138C0B205289ABF014B185C1D
S31508002800012070477D3C01082DE9F0410746154631
S3150800281000240E46596888B0490A012922464FEA1B
S31508002820510104F10104F8D8DC78997824031B884F
S31508002830C90201F4006104F480540C43C3F30A038B
S315080028405203234492B24FF000089C18274B6FEAB4
S315080028500444039325F07843ED4302A90DF10700DC
S315080028601B2202938DF8078008F0CBFF9DF80720FE
S31508002870029B02A943EAC2630DF107001B2225F059
S315080028807845049302958DF8078008F0BAFF9DF8FD
S315080028900720029B6FEA144443EAC26305934FF08C
S315080028A0FF330794069307A9BB69012206F11000B6
S315080028B09847BB6905A90446012206F1080098470E
S315080028C0BB69404518BF044604A90122301D984734
S315080028D00122404518BF0446BB69304603A99847FC
S315080028E0404508BF204608B0BDE8F08101009AB20D
S315080028F0044BD3F88420D206FBD4D3F88400C0F363
S31508002900811070470040005038B5174B0546D3F87C
S3150800291028310C4603F00703013B052B20D8DFE8D6
S3150800292003F003131B0F0B170FF0FCF8052305B173
S31508002930286004B1236038BD0FF0F4F80623F6E7E3
S315080029400FF030F90723F2E70FF026F90323EEE735
S315080029500FF022F90423EAE70FF01AF90223E6E753
S3150800296000231846E3E700BF00800050002337B570
S315080029700193164B0546D3F820320C4603F007039D
S31508002980042B21D8DFE803F0030B11161B000123E3
S315080029900DB1019A2A6004B1236003B030BD00214D
S315080029A001A8FFF7B1FF1223F2E70FF0FBF80723A0
S315080029B00190EDE710F051FA0A230190E8E70FF0CD
S315080029C039F909230190E3E70023E1E70080005085
S315080029D038B5104B0546D3F880300C4603F0030390
S315080029E0022B0BD0032B0DD0012B0FD10FF0A0F823
S315080029F00E2305B1286004B1236038BD0FF0D2F864
S31508002A000723F6E70FF08EF80623F2E700231846A9
S31508002A10EFE700BF0080005038B5104B0546D3F8E5
S31508002A2000310C4603F00303022B0BD0032B0DD009
S31508002A30012B0FD10FF0B0F8032305B1286004B1BC
S31508002A40236038BD0FF0F6F80923F6E710F003FA0D
S31508002A500823F2E701230020EFE700BF00800050BB
S31508002A6038B5184B0546D3F820010C4600F0070088
S31508002A70062823D8DFE800F0040A0E16121A1E00EC
S31508002A80012305B1286004B1236038BD0FF04AF868
S31508002A900523F6E70FF080F80323F2E70FF082F834
S31508002AA00723EEE70FF074F80223EAE70FF03AF887
S31508002AB00623E6E70FF070F80423E2E7002318463A
S31508002AC0DFE700BF0080005038B5104B0546D3F845
S31508002AD040310C4603F00303022B0BD0032B0DD019
S31508002AE0012B0FD110F0B9F90A2305B1286004B1FA
S31508002AF0236038BD0FF09EF80923F6E710F0B0F909
S31508002B000C23F2E701230020EFE700BF0080005006
S31508002B10002337B50193164B0546D3F860320C46A9
S31508002B2003F00703013B032B1FD8DFE803F0020E6F
S31508002B301914002101A8FFF793FF10230DB1019A7C
S31508002B402A6004B1236003B030BD002101A8FFF755
S31508002B50BBFF1123F2E70FF025F807230190EDE7F5
S31508002B600FF016F802230190E8E70023E6E700BF16
S31508002B7000800050002337B50193164B0546D3F85D
S31508002B8094320C4603F00703013B032B1FD8DFE8FA
S31508002B9003F0020E1914002101A8FFF761FF1023A4
S31508002BA00DB1019A2A6004B1236003B030BD00213B
S31508002BB001A8FFF789FF1123F2E70EF0F3FF0723B9
S31508002BC00190EDE70EF0E4FF02230190E8E7002309
S31508002BD0E6E700BF0080005038B5104B0546D3F82D
S31508002BE060310C4603F00303022B0BD0032B0DD0E8
S31508002BF0012B0FD110F031F90A2305B1286004B171
S31508002C00236038BD0FF016F80923F6E710F028F907
S31508002C100C23F2E701230020EFE700BF00800050F5
S31508002C2073B50D460021114B0191D3F88041064634
S31508002C3004F00304022C13D0032C0CD0012C13D15E
S31508002C4001A8FFF70DFF10240EB1019B336005B1F3
S31508002C502C6002B070BD0EF0A5FF07240190F3E7C3
S31508002C600EF096FF0190EFE70C46EDE70080005066
S31508002C7038B5104B0546D3F840320C4603F003032B
S31508002C80022B0BD0032B0DD0012B0FD110F0E5F83A
S31508002C900A2305B1286004B1236038BD0EF0CAFFC7
S31508002CA00923F6E710F0DCF80C23F2E701230020ED
S31508002CB0EFE700BF0080005038B5144B0546D3F83F
S31508002CC000020C4600F0070004281BD8DFE800F0D5
S31508002CD003090D111500012305B1286004B123600D
S31508002CE038BD10F0BAF80A23F6E70EF0A3FF092359
S31508002CF0F2E710F0B5F80C23EEE70EF033FF0F23DA
S31508002D00800AE9E700231846E6E700BF008000507E
S31508002D1038B5144B0546D3F808020C4600F00700F0
S31508002D2004281BD8DFE800F003090D11150001235C
S31508002D3005B1286004B1236038BD10F08EF80A2367
S31508002D40F6E70EF077FF0923F2E710F089F80C236F
S31508002D50EEE70EF007FF0F23800AE9E7002318467F
S31508002D60E6E700BF00800050B0F5207F1FD009D8E5
S31508002D70B0F5007F15D003D868B1B0F5C07F0AD08A
S31508002D8000200CE0B0F5607FFAD10B4BD3F8800039
S31508002D90C0F3011003E0084B186FC0F3033001308D
S31508002DA07047054BD3F89000C0F30460F7E7024B71
S31508002DB0186FC0F38020F2E70080005002464FF4F7
S31508002DC08030104B10B598660020FFF7CDFF5043B2
S31508002DD041F671320C4BDC69DA635A6804F48034C4
S31508002DE022F4401259B90949884294BF00200120AB
S31508002DF0000502435A600CB10022DA6310BD04498B
S31508002E00F2E700BF0090005000000350005A62022B
S31508002E10002D3101430905D0012B0CD0022B084B9C
S31508002E2018BF002300F01F0039B103F580530122B3
S31508002E3082401A607047034BF4E703F50053F6E740
S31508002E4068800050648000501FB50021B0F5807F6F
S31508002E500446CDE9001100F02B8100F294805D282C
S31508002E6000F28C801F2805D8002840F089800EF0D3
S31508002E7079FEF7E0A0F120043D2C00F2818001A341
S31508002E8053F824F06F2E0008733000086F2E0008E0
S31508002E907330000893300008933000089330000818
S31508002EA0933000089330000873300008A7300008F4
S31508002EB0B72F0008F12F0008D3300008B72F0008F5
S31508002EC0733000087330000873300008812F00083B
S31508002ED0812F0008812F0008812F0008812F000804
S31508002EE0812F0008812F0008812F00087330000801
S31508002EF0733000087330000817300008E730000800
S31508002F0073300008812F0008812F0008812F0008E0
S31508002F10812F0008812F0008812F0008812F0008C3
S31508002F20812F0008812F0008812F0008812F0008B3
S31508002F30812F0008812F0008933000086F2E0008A3
S31508002F406F2E00086F2E0008DD300008B72F000826
S31508002F50B72F0008F130000835300008E12F0008C7
S31508002F609D300008812F0008812F0008812F000856
S31508002F70812F0008812F00085730000880286FD05D
S31508002F80009804B010BDB0F5D06F00F0A28034D818
S31508002F90B0F5607F78D019D8B0F5007F64D004D832
S31508002FA0B0F5C07F3FF463AFEAE7B0F5207F60D0A5
S31508002FB0B0F5407FE4D10EF0D5FD02464FF42070FF
S31508002FC0FFF7D2FEB2FBF0F252085BE0B0F5B06F45
S31508002FD069D00AD8B0F5806F5BD0B0F5A06FCFD1B5
S31508002FE000216846FFF7C2FCCAE7B0F5C06FC7D133
S31508002FF000216846FFF768FDC2E7B0F5106F6DD08F
S315080030000ED8B0F5086F78D0BAD8B0F5E06F6AD0A8
S31508003010B0F5F06FB4D100216846FFF7DDFDAFE7E4
S31508003020B0F5406F3AD013D8B0F5206F60D0B0F540
S31508003030286FA5D10021334B0391D3F8703203F0E2
S315080030400303012B02D103A8FFF73EFD039B39E0DA
S31508003050B0F5486F94D100216846FFF78BFD8FE7DE
S315080030600EF066FD00908BE70EF062FD02462046E4
S3150800307004E00EF077FD02464FF42070FFF774FE69
S31508003080B2FBF0F200927BE701A8FFF7A1FC019AD8
S31508003090EDE700216846FFF7E3FC71E70021684683
S315080030A0FFF732FC6CE700216846FFF7B9FD67E7D2
S315080030B04FF0E02302911B695B0705D50EF052FD20
S315080030C00290029B00935BE703A902A8FFF7FCFCAA
S315080030D0F7E700216846FFF7EFFD51E7002168464C
S315080030E0FFF716FE4CE700216846FFF7C1FD47E7E4
S315080030F000216846FFF70CFD42E76846FFF78CFC9F
S315080031003EE700BF0080005008B58020FFF79CFE10
S31508003110034B98429EBF4FF48032024B1A6708BD94
S31508003120005A620200A00050B0F5207F10B50C4688
S315080031305DD008D8B0F5007F4ED003D8C0B1B0F541
S31508003140C07F15D010BDB0F5607FFBD12C4B4C1E4F
S31508003150D3F8FC202B4912F0807F4FEA041427D1BC
S31508003160D1F8803023F030032343C1F88030E9E7F3
S3150800317008F065FB08F071FB4FF48031224B214AB9
S315080031801967136F013C23F4704343EA043313674A
S315080031900EF0E8FC0446FFF7ABFBC0F1020120463F
S315080031A008F055FB00F04AF8BDE81040FFF7ACBF41
S315080031B0D3F8FC2022F08072C3F8FC20D1F88020D6
S315080031C022F030022243C1F88020D3F8FC2042F0D6
S315080031D08072C3F8FC20B5E70A4A4C1ED2F8903034
S315080031E023F0F85343EA0463C2F89030AAE7054A85
S315080031F04C1E136F23F4806343EA84231367A1E705
S3150800320000ED00E0008000500090005008B5012154
S31508003210022000F057F84FF42070FFF7A5FD054B84
S31508003220187008F00CFB08F018FB4FF48032024BBC
S315080032301A6708BDDE2900200090005008B54FF433
S31508003240C070FFF701FEBDE808400449884294BFF4
S31508003250012102214FF42070FFF766BF80F0FA02C1
S3150800326038B504460EF07EFC0546FFF741FBC0F173
S315080032700201284608F0EBFA0121002000F062F866
S315080032802CB1FFF7DBFFBDE83840FFF73DBF034B26
S315080032904FF420701978FFF747FFF4E7DE2900207E
S315080032A0024A536B0342FCD1704700BF00400950E5
S315080032B0034A0179D36E23F030030B43D366704774
S315080032C000400050F8B504461C4BD3F88420D106BC
S315080032D0FBD4D3F88430C3F381139C422CD00EF070
S315080032E027FC012C064602D1214608F0B0FA0FF059
S315080032F096FD4FF00072124B07465A66204608F0B4
S31508003300B1FA4FF480630D4D621E93402B676B6EC6
S315080033109A0103D4D5F884309B060AD538460FF0AF
S3150800332079FD022C08D13046BDE8F840002108F0A6
S315080033308EBAD5F88430EAE7F8BD00BF00400050E1
S315080033400060005010B50C4608B90EF0F1FB074BAB
S3150800335021461B783BB1064B984204D80120BDE8AC
S315080033601040FFF7AFBF0220F9E700BFDF290020B2
S31508003370005A62024FF0004238B5244B244C5A6674
S315080033804AF6CD33656C014605F00105236428BB72
S315080033900120FFF785FF6368DB0715D51D4B5860CD
S315080033A008461D4B226BD2070CD4984208D1072435
S315080033B015B1174B194A1A6408F055FA204638BD54
S315080033C00130EFE79842F2D00024F1E70132236B8F
S315080033D013F0080305D08A42F8D1E8E700220E491F
S315080033E0F5E78A42E3D020210A4A91620121A2F533
S315080033F0805251600649084A886A800603D4934277
S31508003400D5D00133F8E79342DDE700BF00900050BE
S31508003410004009500060095040420F003254FFFF37
S315080034204FF0004238B5164B01465A664AF6CD3378
S31508003430144C154A656C236443780B205B0043F0F3
S315080034400103D363FFF72CFF63688A7823F4F873C4
S3150800345043EA02136360CA784B7943EA0223A360FE
S315080034600A798B7943EA022323610878FFF782FFFA
S31508003470EB0744BF054B236408F0F5F9012038BD76
S315080034800090005000400950004000503254FFFFA1
S315080034904FF00042124B70B55D6E03F580535A66C5
S315080034A04AF6CD3304460F4980204E6C0B64FFF76D
S315080034B0F7FE0B6A23F00F030F2C94BF234343F048
S315080034C00F030B62F30744BF074B0B64002DA2BF23
S315080034D04FF00042054B5A6608F0C5F970BD00BFAB
S315080034E000800050004009503254FFFF00A00050F1
S315080034F04FF48032054B9A6641F6713203F51C3358
S31508003500DA63012203F50053DA6070470090005031
S3150800351041F671320121064BDA6303F50052D16098
S315080035200022DA634FF48032A3F518339A6670479F
S3150800353000000350044B1868421C02BF034AD2F825
S3150800354094001860704700BF482D002000400050C6
S315080035504FF48032064B5A6603F5E6239B69C3F39C
S315080035608512827003F03F021B0B4270037070478E
S31508003570009000500120034B9B680A3303F01F0399
S31508003580984070470080E00F2DE9F0410EF0D8FB17
S315080035900128074620D90EF007FC051E03DA012488
S315080035A02046BDE8F0811F4B1B78002B37D14FF022
S315080035B050081D4C04EB0800A465C4F85C800EF0A6
S315080035C043FC206680B90124012FE9D928460EF06C
S315080035D00DFC0028E4DAE2E7124B1B7803F0FF053E
S315080035E0002BE4D00024DBE70024104E214606F128
S315080035F0100332460120C6E90044C6E902380EF037
S3150800360007FD30660028DED00321412008F09CFF24
S31508003610412001F0BBF90122024B1A70D4E70024BD
S31508003620D4E700BFE0290020F41100209011002003
S3150800363008B54FF098435B6CD90208D50EF080FBAD
S315080036400238012803D8094B186E0EF06FFD4FF0AB
S3150800365098435A6CD202FCD55B6D054A03F4702375
S3150800366013604120BDE8084001F09EB99011002082
S315080036704C2D00202DE9FF474FF000080E4617464F
S315080036800446CDF80080002859D022B900252846DE
S3150800369004B0BDE8F087002951D032F0030902F0E2
S315080036A0030A1FD04FF0E063C0E9003801230191F7
S315080036B0C0F808800293C0F81C8049F0005301A99D
S315080036C0039308F02EFB494620460FF0CCFB204614
S315080036D00EF0D4FA054628B14A46414630460DF062
S315080036E062FFD4E7BAF1000FD0D04FF000084FF0D0
S315080036F0E063C4E900380123CDF804D00293114BE6
S31508003700204601A9C4F80880C4F81C80039308F071
S3150800371008FB042120460FF0A6FB20460EF0AEFA61
S31508003720054608B13A46D8E7009A4E44EB000135FB
S3150800373022FA03F3AA4506F8013BF7D1A6E72125A5
S31508003740A5E700BF040000202DE9F0419046027865
S315080037500C46022A8AB032D0032A35D0012A38D13B
S3150800376014271D4A00F10C05226000229E01C4E9B7
S315080037700122E261314620460FF075FB01232046FF
S3150800378047F0005704A946F00056CDF80480029386
S31508003790039604950593069707950893099708F0E5
S315080037A0B6FA204601A908F0B2FA204607A908F099
S315080037B0B8FA20460EF062FA0AB0BDE8F081202772
S315080037C0064A00F10C05CFE72027054A00F10C054B
S315080037D0CAE72120F0E700BF000201030003010346
S315080037E00004010310B591B188B10023C0E9013383
S315080037F0084B00F10C0203F1200153F8044B8B42ED
S3150800380042F8044BF9D101230370002010BD212092
S31508003810FCE700BFC83C010810B591B188B1002388
S31508003820C0E90133084B00F10C0203F1200153F8FB
S31508003830044B8B4242F8044BF9D102230370002053
S3150800384010BD2120FCE700BF833C010810B591B1EB
S3150800385088B10023C0E90133084B00F10C0203F1DB
S31508003860200153F8044B8B4242F8044BF9D1032349
S315080038700370002010BD2120FCE700BFA43C01080E
S315080038802DE9F04F0D46914604468BB000285ED0D0
S3150800389000295CD0002A5AD00278022A0CD0032AC2
S315080038A04DD0012A53D114262B4900F10C0B00F1F7
S315080038B004082C34374607E020261C27274900F140
S315080038C00C0B00F104082C349F4240D8D8F8042089
S315080038D0002A3ED1D8F80030284603F03F0AC5E949
S315080038E00012AA60EA6151460FF0BDFA2846D8F8D8
S315080038F000100FF0B8FA01224AF00053284601A931
S3150800390046F0005647F00057CDF804B002920396E9
S31508003910049405920693CDF81C900892099708F02E
S31508003920F6F9284604A908F0F2F9284607A908F086
S31508003930F8F928460EF0A2F90BB0BDE8F08F20265C
S31508003940074900F10C0B00F104082C34B2E72120DA
S31508003950F2E70F20F0E700BF0002030300030303AA
S31508003960000403032DE9F04387B00D4691461E4631
S315080039700446DDF83880002836D0B8F1000F33D079
S3150800398002B98BBB6B1EDBB2022B2DD8174AD75C4C
S315080039900F9B9F4228D80023280200F1407000F5AB
S315080039A080703146C4E901332060E36120460FF098
S315080039B05AFA01236946204646F0005647F0005752
S315080039C0CDF8009001930296CDF80C8004930597E4
S315080039D008F09DF9204603A908F0A3F920460EF041
S315080039E04DF907B0BDE8F0832120FAE7C53C010888
S315080039F0F0B50F4616461D46044693B010B9212069
S31508003A0013B0F0BD0029FAD0002AF8D0002BF6D062
S31508003A10002331461A46384608F012F80028EFD136
S31508003A20304602A907F0B9FF0028E9D138683449B9
S31508003A30029A88426B695ED19342E0D32B68002BC9
S31508003A40DDD14FF060623846C4E90023A360E36124
S31508003A5001A908F050F80028D2D10199204621F48E
S31508003A60F06101910FF0FFF96946284608F043F81E
S31508003A700028C5D1204600990FF0F5F9384609A95E
S31508003A8008F0E7F80028BBD1204609A908F03FF955
S31508003A9038460CA908F0E8F80028B1D120460CA948
S31508003AA008F035F9EB684BB1284606A908F0D1F8B5
S31508003AB00028A5D1204606A908F029F9304603A909
S31508003AC008F0D2F800289BD1204603A908F01FF970
S31508003AD028460FA908F0C8F8002891D120460FA952
S31508003AE008F01FF9032520460EF0C8F8012887D1EB
S31508003AF0013DF8D184E7B3EB420F9FD27FE700BFC1
S31508003B00200000B070B50E46154604468AB0002857
S31508003B105CD000295AD0002A58D0012329461A46D3
S31508003B20304607F08DFF00284ED1B36813F4C04F16
S31508003B304CD0AB6803F4C043B3F5005F46D1254BC0
S31508003B40A060C4E90030E06107A9304607F0D3FF5A
S31508003B50002839D1204607990FF085F901230293E9
S31508003B604FF00053204601A9039308F0D0F83046D9
S31508003B7004A908F079F838BB204604A908F0C7F864
S31508003B80EB681BBBAB6803F4C043B3F5005F1DD1FC
S31508003B906946284607F024FFB0B9009B6A699A422D
S31508003BA016D32A6943F0005307920122204607A933
S31508003BB008920325099308F0B4F820460EF05EF83B
S31508003BC0012801D1013DF8D10AB070BD2120FBE7DB
S31508003BD01D20F9E7000001022DE9F04391B00D46DA
S31508003BE0DDE918760446DDF8688000286DD00029DE
S31508003BF06BD0002F69D0B8F1000F66D0096801F0C4
S31508003C007041B1F1404F5BD0002B5BD1531E022BA4
S31508003C105BD8120202F1C06202F5807200232846C0
S31508003C20C4E901332260E3610DA907F064FF0028A7
S31508003C3043D120460D990FF016F9314620460FF06C
S31508003C4012F9284601A908F004F8002835D12046BB
S31508003C5001A908F05CF8284604A908F005F860BB35
S31508003C604FF00109204604A908F051F846F000561D
S31508003C70204607A90797CDF82090099608F047F837
S31508003C802B680A9703F07043B3F1404FCDF82C9098
S31508003C900C9603D120460AA908F039F80123CDF875
S31508003CA034800E931B9B204643F000530DA90F93B7
S31508003CB008F037F820460DF0E1FF11B0BDE8F083B3
S31508003CC0034AABE74FF0C062A8E72120F5E700BF3B
S31508003CD0000002062DE9F0418CB00D46DDE912869A
S31508003CE00446149F002869D0002967D0B8F1000F50
S31508003CF001D1002E62D1002F60D0A96889045DD554
S31508003D00296801F07041B1F1404F4DD0002B4DD1DB
S31508003D10531E022B52D82A4B03EB022200232846B5
S31508003D20C4E901332260E36109A907F0E4FE00282B
S31508003D3037D1204609990FF096F8314620460FF0FC
S31508003D4092F86946284607F084FF50BB6946204624
S31508003D5007F0DDFF284603A907F086FF08BB2046C3
S31508003D6003A907F0D4FF012346F00056CDF81880C2
S31508003D700793089609970A93159B43F000530B93EC
S31508003D802B6803F07043B3F1404F11D109A92046BF
S31508003D9007F0BDFF06A9204607F0B9FF20460DF03B
S31508003DA06DFF0CB0BDE8F081064AB7E7064AB5E7ED
S31508003DB006A9204607F0ABFF09A9ECE72120F0E7A2
S31508003DC000010106000003060000010610F1860F37
S31508003DD01BD010F1850F08DA10F1930F18D010F1E7
S31508003DE0870F07D04FF0FF307047003818BF012003
S31508003DF040427047094B99420DD0043399420CBF93
S31508003E006FF073006FF06D0070476FF071007047C8
S31508003E106FF06F0070476FF0720070470500000280
S31508003E20012910B50CDC084C084B00290CBF2146AB
S31508003E30194600F021FD2146BDE81040FFF7C6BF30
S31508003E406FF0730010BD00BF0900000208000002F1
S31508003E5008B508F018FBBDE808400149FFF7B6BFEA
S31508003E6009000002002307B52022019301AB08F0E0
S31508003E7026FB034903B05DF804EBFFF7A7BF00BFB5
S31508003E800900000210B5044C214600F0F5FC214655
S31508003E90BDE81040FFF79ABF0500000208B508F014
S31508003EA0F2FABDE808400149FFF790BF0500000295
S31508003EB0002307B51422019301AB08F000FB034960
S31508003EC003B05DF804EBFFF781BF00BF05000002F1
S31508003ED038B5134DFFF758FB124B134A13491448CC
S31508003EE004F00AF92B7803F0FF04BBB90DF028FF9C
S31508003EF0012802D90DF058FF04462B782BB90D4B33
S31508003F000D481B68984701232B700DF019FF0128EF
S31508003F1004D92046BDE838400DF068BF38BD00BF5B
S31508003F20E129002065BD000847BD00087FBD0008DF
S31508003F3089BD0008882D002068200020012300F094
S31508003F401F02A0F506200949A0F5506040099340D4
S31508003F5051F820201A4341F82020054951F820201D
S31508003F6022EA030241F82020704700BF6C120020A5
S31508003F70581200200121A0F506230E4AA3F5506326
S31508003F805B0900F01F00814052F82300014342F804
S31508003F9023100949D1E90030034488680344C868F6
S31508003FA0096903445B1802BFC2E90033C2E9023358
S31508003FB013617047581200206C1200202DE9F04F4B
S31508003FC0A9B003921D4604460822339ECDE9040192
S31508003FD0414021FA02F34B40980702F1080218BF44
S31508003FE09B00202A1C44F4D18123B4FBF3F303EB92
S31508003FF0C313E41A734B04F506241B7804F55064BE
S31508004000002B3ED105F00EFD074620B16FF091005A
S3150800401029B0BDE8F08F0146402208A80DF0C3FA82
S315080040204022394618A80DF0BEFADFF8B081DFF84D
S31508004030B091C3460BF10F0ACDF800A0102208A9CB
S315080040405B46D9F8000007F006FA0022014608F197
S31508004050100808AF914246D1CDF800A05B46102261
S31508004060D9F8000018A907F0FFF94FF0000A8346AF
S3150800407018AFD34541D1544B9845DAD10122514B5B
S315080040801A704FF0810A4FF00008DFF858B1A4F50E
S315080040900627A7F550635B095BF8232004F01F0188
S315080040A0CA40D2073DD4494A52F82330CB40DB07F1
S315080040B02AD5B8F1000F08BFA0468123A7F6FF4707
S315080040C0B7FBF3F303EBC313FF1A07F50624BAF19C
S315080040D0010A04F55064DAD1039BBBB1B8F1000FAD
S315080040E014D0444619E057F8040BCDE90612FFF739
S315080040F025FF079A06990132ACE757F8040BFFF734
S3150800410039FF0AF1010AB4E7039B13B96FF08B0074
S315080041107EE7B8F1000F18BF4446349B00201C60A8
S3150800412076E7329B13B10023329A13600EB100234F
S3150800413033601023DFF8A89000932A46002321460F
S31508004140D9F80000FEF7D0F960BB32992A68204BEF
S31508004150C9B99A4206D02146D9F80000FEF746FAB0
S315080041600028D3D1D5E90223DDE90410834208BF2C
S315080041708A42A2D1039B002BCFD06B68012BCCD1EE
S315080041806FF0840044E7102032999A420860E2D121
S31508004190002EE7D033462146D9F8000018AAFEF7C4
S315080041A0E9F940B10B4B9842D5D06328D3D00A4BD6
S315080041B09842D7D02AE7329A336812689B1A336036
S315080041C0D0E700BFE229002000710800581200203D
S315080041D0105D175EFFDF00F0FEDF00F0006D0800DF
S315080041E0502E00206C12002070B5124D2B7803F06B
S315080041F0FF04CBB90DF0A4FD012802D90DF0D4FDBA
S3150800420004462B784BB90C48436D43F001034365CC
S315080042100A4B1B68984701232B700DF091FD012866
S3150800422002D920460DF0E2FDBDE87040044B024875
S315080042301B681847E329002080120020882D0020DB
S31508004240802D0020034B1B781BB1034B03481B68CA
S3150800425018477047E32900207C2D00208012002093
S315080042602DE9F04F87B08246894698461646DDF80E
S3150800427040B02AB1002B53D040F26C739A4252D800
S31508004280BBF1010F52D8002406F110073946012068
S31508004290059408F0F9F9054600284AD021463A4619
S315080042A00DF081F9FFF7A0FF05ABCDE901430094B6
S315080042B02B46012250464946FFF780FE044690B138
S315080042C010F18C0F08BF6FF08D043A46002128467E
S315080042D00DF069F9284608F0B9F9FFF7B3FF20464B
S315080042E007B0BDE8F08F144BC5E902A92B60C5F8E5
S315080042F004B02EB13246414605F110000DF088F99A
S31508004300059E0E483B462A4631460068FEF768F881
S3150800431018B93046FFF712FED7E76FF09104D4E7D5
S315080043206FF08604DBE76FF09104D8E76FF0850439
S31508004330D5E76FF08C04D2E7105D175E502E00208B
S315080043402DE9F0478CB08146DDE914780C4616460F
S315080043501D466BB1B8F1000F49D0002F47D0B7F111
S31508004360005F44D3C3F1005303F500339F423ED8A0
S315080043704FF0000A1022002108A80DF014F9CDE923
S3150800438005AAFFF731FF07AB029305AB019306AB0E
S31508004390214600935246484608ABFFF70FFE0446EF
S315080043A0D0B9059B3DB1B3421CD853EA060504D0E3
S315080043B06FF0860410E0B342FAD3069B0D48C8F89E
S315080043C0005000953A46079900683344FEF78CF882
S315080043D0002818BF6FF09104FFF734FF20460CB091
S315080043E0BDE8F0879B1B9D4228BF1D46E5E76FF099
S315080043F08604F3E7502E002070B500260C460546C5
S315080044008CB01022002108A80DF0CDF8CDE905667C
S31508004410FFF7EAFE07AB029305AB019306AB21460D
S3150800442000933246284608ABFFF7C8FD0446D8B9BC
S31508004430099B012B1DD0079D114B29461868FEF7CD
S31508004440D5F8C8B90122A5F506230E49A3F5506388
S315080044505B0905F01F00824051F8230042402846B8
S3150800446041F82320FFF786FDFFF7ECFE20460CB047
S3150800447070BD6FF08404F7E76FF09104F4E700BFAE
S31508004480502E00206C120020F8B5134642880C46C0
S315080044900732072A4FEAD20101D0A1424DD1D0E90D
S315080044A0016705882022184600210DF07CF8360A97
S315080044B00346002E44D1002C3FD041F2010295421A
S315080044C005D0B5F5885F02D0B5F5905F02D15C607E
S315080044D0002011E0B5F5105F07D1182C03D0202C69
S315080044E001D0102C29D11C60F1E705F44F42B2F532
S315080044F0824F02D06FF08500F8BDEAB2122AF9D1D0
S31508004500202CF7D1104A25F0FF05B5F5E24F0260D9
S315080045100CD0B5F5824F10D14FF4005217F4705FE6
S3150800452009D017F4864F04D09A60E3E74FF4804227
S31508004530F4E742F480629A60CAE76FF08600DBE728
S315080045406FF08B00D8E700BF200000802DE9F04F00
S3150800455099460388164603F44F42B3B0B2F5824F24
S315080045600F46DDF8F88002D06FF0850002E021B929
S315080045706FF0860033B0BDE8F08F002EF8D0B8F1A2
S31508004580000FF5D0DAB2122AEED123F0FF03B3F505
S31508004590E24F33D14388C8F8003053BBF300C8F85C
S315080045A00030B3F5807FDFD1002318464E49BC1989
S315080045B0314411F8015D14F8012D1043521B0CBF4C
S315080045C04FF0FF350025A74203EA050343EA020335
S315080045D0EFD10028CCD0002BCADA3C9B9E427FD86C
S315080045E03246394648460DF013F83D9B00201E60BA
S315080045F0C0E7DA1DB6EBD20FD3D0B9E7B3F5824FD1
S315080046006BD10B78042BB3D12422002119A80CF006
S31508004610CAFF19A807F05CF9824600285AD1014654
S315080046203C22229023A80CF0BEFF01234FF0400B3A
S3150800463020225146741E01A88DF888300CF0B3FF6D
S315080046407B1C20225146069409A8E400059322AD56
S315080046500CF0A9FF64082022514611A80D95CDF843
S3150800466038B00CF0A0FFB4F5C07FCDE9155BC8F8EB
S3150800467000403FF479AF28D8E02C03D0B4F5807F0A
S315080046807FF476AF194B0734019309934FF400531F
S3150800469003934FF48043E4080B9301AA11AB64001B
S315080046A009A919A81294FFF7A3F9D8F80030073317
S315080046B0DB085A0033B10021531E013B297005F16E
S315080046C00105FAD2002888D052E7B4F5047F3FF4F2
S315080046D04BAF4DE76FF092004CE76FF0960049E755
S315080046E06FF0890046E700BFE83C0108200000801B
S315080046F0038810B503F44F42B2F5824F21F0FF024A
S3150800470021F4FF71134C21F0010109D0A1421AD0FE
S31508004710114B9A4214BF6FF085006FF0860010BDEA
S31508004720A142DBB20FD00C498A420CD0122B0DD114
S315080047304388B3F5807F09D1B2F1062F0CBF00205C
S315080047406FF08500EBE76FF08600E8E76FF085000D
S31508004750E5E700BF0002000600130006154A20F42C
S31508004760FF7323F0010393420ED0134B20F0FF0290
S315080047709A4209D0114920F47F7323F003038B4230
S3150800478002D00F4B9A420FD110F0FF0011D00D4BFB
S3150800479040F00070984209D00133984208D0043B93
S315080047A0C31A584258417047002070470220704784
S315080047B003207047000200060013000600040006E6
S315080047C000090006080000022DE9F0478CB01746DC
S315080047D0DDE914A498460E4609B9002A46D1B8F16F
S315080047E0000F10D1BAF1000F40D1002C3ED0214B5A
S315080047F0984218D00133984215D0043B984212D0FB
S315080048006FF0850013E08CB31A4B984212D001332F
S31508004810984213D0043B9842F2D114234FF0010971
S315080048209A4523600ED200236FF0890023600CB0EE
S31508004830BDE8F0871C234FF00209F1E720234FF06B
S315080048400309EDE703A807F043F8054610B16FF032
S315080048509200ECE73B4632464946CDE9008A03A872
S31508004860FFF780F80028E2D02560F0E76FF08600B1
S31508004870DDE700BF0800000230B50D4604468BB0E0
S3150800488030B3031D6C22002118460CF08CFE134A27
S31508004890954211D00132954214D0043A95421AD164
S315080048A0012201A92270FEF79DFF002814BF6FF0B0
S315080048B0920000200BB030BD022201A92270FEF73B
S315080048C0ABFFF2E7032201A92270FEF7BFFFECE770
S315080048D06FF08600EEE76FF08500EBE70800000250
S315080048E007B5094B18689A889B7900906846ADF811
S315080048F004208DF80630FEF793FD0C20FEF7C8FD60
S31508004900002003B05DF804FB083D010813B5002438
S31508004910064A6846536F43F00103536700948DF8BF
S315080049200440FEF7C5FC204602B010BD004000500A
S315080049300028ACBF00F16040064B4FEA0111C9B22E
S31508004940ABBF00F5614000F00F0080F80013195462
S31508004950704700BF14ED00E008B50EF069FA0A4B7F
S315080049601A786AB901221A700EF05DFA6FF004021D
S31508004970104605210132FFF7DBFF4C2AF8D108BDA6
S31508004980BDE808400EF04FBAE4290020002807DBEE
S3150800499001234109034A00F01F00834042F82130F1
S315080049A0704700BF00E100E0002808DB0122430948
S315080049B0034900F01F008240603341F82320704706
S315080049C000E100E073B50EF02AFA0D4D0D4B2E7876
S315080049D01C680EF01FFA0EF0CAFA38B1FF2E05D081
S315080049E00020297801AA06F01FFA019C2CB90EF0BE
S315080049F016FA054B1C680EF00DFA204602B070BD7B
S31508004A00D12E0020E4120020E812002010B504463A
S31508004A100EF005FA024B1C600EF0FCF9002010BDE2
S31508004A20E812002013B5002301241A461946184631
S31508004A30009403F0D3FE002300941A46194618463C
S31508004A4003F0FEFE0248FFF7E1FF002002B010BDAA
S31508004A50642D002073B50024684600F0FBFA0C4B61
S31508004A6000981C600B4B0C4D1C600C4E0C4B3060B8
S31508004A7018602C6007F038FE2046019B3268013B1F
S31508004A80DB0853802B6801332B6002B070BD00BF72
S31508004A90F0120020EC120020F4120020FC12002074
S31508004AA0F81200202DE9F04F0E460027984689B0E7
S31508004AB0054606A81446059700F0CCFA731C14BFE1
S31508004AC0B3464FF0080BB8F1000F00F0BC80C8F8E9
S31508004AD00070002D00F0B980079BAB4240F2B5800C
S31508004AE00EF0A6F9073505AB25F007053146009304
S31508004AF081463B462246284600F0B6FA059E0746FA
S31508004B0006B130B948460EF08EF9192009B0BDE84D
S31508004B10F08FDFF84CA17388DAF80010DA00C0EBE2
S31508004B20C3030139272BCAF8001074D9002C50D1B9
S31508004B30854205F1080347D059463046029307F0E7
S31508004B403FFD0446029B0590059A02EB030B584667
S31508004B5007F0CAFD059905F10F034A88C3F3CF0389
S31508004B60D21AABF80220CA88ABF8043072B3D31A4B
S31508004B709BB201EBC202ABF8063093808B88ED0836
S31508004B80A380BBF804300022314658466580E3808E
S31508004B9000F0E2FA237843F001032370DAF80030D4
S31508004BA00133CAF800302C4A4846136808343B4497
S31508004BB013602A4A11688B4288BF13600EF033F9D6
S31508004BC00020C8F80040A1E73446BDE7ABF8062048
S31508004BD0D4E7F41820460293039207F085FD029B5A
S31508004BE0F91DC90805986180D91DC908A180C18821
S31508004BF079B1C900039ACD1DAA1A3A44C2F3CF0265
S31508004C000144E2808A80013BDB084380A388C38095
S31508004C10C0E7E180F7E7012C19D106F10803B3FBD9
S31508004C20FBF20BFB1233A3B15946304607F0C8FC1A
S31508004C3004462378012243F00103314620462370B7
S31508004C4000F08AFAAFE7222060E721205EE7854276
S31508004C50EAD13446EDE700BFF0120020EC1200203E
S31508004C60F41200202DE9F3470446684600F0F2F9ED
S31508004C70002C00F0AB800EF0DBF814F8086CF30794
S31508004C8004D534F806ECBEF1000F05D10EF0CBF8CA
S31508004C90012002B0BDE8F0874D494E4D0A68D5F8A7
S31508004CA00080A2EBCE020A6034F8041C0EF1010360
S31508004CB008F10102A4F1080C9BB22A60B9B3ACEB67
S31508004CC0C10292F800A0B2F806901AF0010F5788B0
S31508004CD006F002061FD1FEB9A9EB0701012926D85D
S31508004CE00EF102031F44BBB2C5F8008034F8026C0B
S31508004CF0FEB9013B9BB214F8081C6FF3000104F8D7
S31508004D00081C002124F8061C53801378D18061F30F
S31508004D100003137031E056B119448BB214F8081C1D
S31508004D206FF3410104F8081C00219180DEE7624612
S31508004D30DCE70CEBC608DDE900710F44B845D8D2AC
S31508004D401CF83670414617F001072AD0013B9BB282
S31508004D5014F8085C6FF3000504F8085C002524F8CD
S31508004D60065C5380137865F300031370C2F10703DA
S31508004D700B44C3F3CF03D3808B8017490B681BB151
S31508004D80934201D85B8803B90A6014490B681BB1C2
S31508004D90934201D35B8803B90A600EF044F80020F9
S31508004DA077E7A6EB0E06012ED0D8B8F80260A8F869
S31508004DB002703344B8F806702E689BB2013E1FB1E4
S31508004DC008EBC7012E60C3E72E6094E7222060E750
S31508004DD0F0120020F4120020FC120020F812002025
S31508004DE02DE9F74F9146044668460D4600F032F91C
S31508004DF0B9F1000F00F024810023C9F80030019BA7
S31508004E00AB4240F21F8154B9002D00F01B814A467F
S31508004E102146284603B0BDE8F04F07F011BC2DB96E
S31508004E20204603B0BDE8F04FFFF71CBF0EF000F8B0
S31508004E3034F8063C07354FEAC30825F00705A845A8
S31508004E400746A4F1080080F0888034F8022C002A6E
S31508004E5066D000EBC20A10F83220D20760D4BAF83E
S31508004E600210A8EB050616EBC10659D41F2E3DDD28
S31508004E70C5F3CF0304EB050B24F8063C013324F8ED
S31508004E80023C584607F030FC34F8023CC6F3CF061D
S31508004E90ABF80430BAF80630ABF8026013B3BAF8C8
S31508004EA002209A1A1644B6B20AEBC303ABF8066098
S31508004EB09E8000225146584600F04EF9504607F0AB
S31508004EC013FC614AC9F8004013682B44A3EB080396
S31508004ED013605E4A11688B423DD838460DF0A3FF31
S31508004EE0002527E00023ABF80630E2E7584E0B44CE
S31508004EF032689BB2013A32605A1C24F8062CBAF87A
S31508004F0006204AB102339BB20AEBC20224F8023CDD
S31508004F10938001225146CFE7002324F8023CF8E7A4
S31508004F2028464A46002107F08BFB054630B138462D
S31508004F300DF079FF284603B0BDE8F08F42462146BA
S31508004F40D9F800000CF064FB2046FFF78BFE0546F7
S31508004F500028C2D0EBE71360BFE76ED934F8023CED
S31508004F60A8EB0506002B3AD000EBC30A10F833303D
S31508004F70DB0735D4C5F3CF0304EB050B24F8063C51
S31508004F80013324F8023C584607F0AEFBBAF8023063
S31508004F9034F8022C03EBD603ABF80420BAF8062043
S31508004FA09BB2ABF80230BAB101339BB20AEBC2022C
S31508004FB0ABF80630938058460022514600F0CCF8EC
S31508004FC0504607F091FB204BC9F800401A68154473
S31508004FD0A5EB08051D6080E7ABF80620EBE79A46C7
S31508004FE0272EF0D9C5F3CF0304EB050B24F8063CAE
S31508004FF0013324F8023C584607F076FB013E34F8A4
S31508005000023CC6F3CF06ABF80260ABF80430BAF13F
S31508005010000F0FD00136B6B2ABF80660AAF80460E6
S315080050200B4A58461368013313600022114600F0F4
S3150800503093F8C8E7ABF806A0F2E7C9F800404CE7D2
S31508005040222577E7212575E7F0120020EC120020CB
S31508005050F41200200249034A0160521A426070475E
S31508005060B838002000000220F0B506460020059F4B
S315080050704C1C08BF08213860BAB91F480568002DBE
S3150800508038D0B5F802E0DB0003EBCE0EC1F1000C18
S315080050902878C0070BD52ABBE888B0B105EBC00550
S315080050A0B5F802E003EBCE0EF2E71448E6E7B6459C
S315080050B0F1D35AB905F10804B4FBF1F001FB104429
S315080050C0A0190CB17045E7D83D60F0BD08290FD08E
S315080050D06C88013405EBC404A01B00EA0C00201AF6
S315080050E08645F1D2A8880028EFD0A5EBC005D7E7FA
S315080050F03046E9E72846E8E7FC120020F8120020C7
S31508005100134B13B51B6804460846FBB121B968461C
S31508005110FFF7A0FF6CB900980378D90707D55CB9E3
S31508005120C3889BB100EBC3000378DA07F8D402B052
S3150800513010BD084B1868EFE7012C07D183882BB1FF
S31508005140A0EBC3000378DB07F8D4F0E70020EEE70E
S31508005150F4120020F8120020F8B5154F05460C4643
S315080051603B68144EB2B1994209D041B133689942AD
S3150800517004D129460120FFF7C3FF3060F8BD294650
S315080051800020FFF7BDFF33683860A342F1D0002C3A
S31508005190EFD0F3E7994205D13D603368A34204D1C5
S315080051A03560EBE79842F7D3F7E7AB42F8D3E5E784
S315080051B0FC120020F8120020002307B50193054BC6
S315080051C01B680DF04AFF019B002BFCD003B05DF86D
S315080051D004FB00BF702D002030B5074C25682468F5
S315080051E06A40D2B2891A101A090A41EA10216340A4
S315080051F023EA0100C0B230BD9C1E0020044B1B6888
S31508005200584043085B4240421843C017704700BFE6
S315080052109C1E0020054B01311B680132434022EADF
S31508005220030208400243501E00B270479C1E00202D
S315080052302DE9F04F834699B00F46184600211646C9
S31508005240049307F0BDFE002800F08781002401259D
S31508005250774B30461493049915ABCDE90B45CDE948
S315080052600D45CDE90F45CDE91145139307F031FEFC
S31508005270A04228DABBF1000F05D1E7B90024204681
S3150800528019B0BDE8F08F2146584607F097FD044649
S315080052900028F2D00BA807F0E6FC0DA807F0E3FCFF
S315080052A00FA807F0E0FC11A807F0DDFC0C2115A8F3
S315080052B001F0B0FAE3E73146384607F04AFD0446FE
S315080052C00028E7D1DAE731460BA807F042FD044685
S315080052D00028DFD104990DA807F03BFD04460028F5
S315080052E0D8D1F1880FA80231ADF83850ADF8305052
S315080052F007F0C7FC04460028CCD101460FA807F0E2
S315080053005DFD04460028C5D1F18811A8023107F0D1
S31508005310B8FC04460028BDD10DA807F08EFD00F0A4
S315080053201F001F2873D0C0F11F0319460BA801934D
S3150800533007F0A9FD04460028ACD101990DA807F08D
S31508005340A2FD04460028A5D1BDF83250BDF83A8022
S315080053500DA8A5EB080A4FEA4A19494607F093FD36
S315080053600446002896D14FEA8A0A0DA90BA807F029
S31508005370DFFD00284DDA49460DA807F0A1FD0446D1
S31508005380002887D108F1FF3302939B0005F1FF3A05
S31508005390069305F1804508F18043023B013D9B00D9
S315080053A0A5EB08050993AB000393029B9A4541D8E0
S315080053B0BBF1000F0DD058460FA907F0CAFC00280C
S315080053C040F0C780049AB388928813FB02F3ABF8BF
S315080053D00430002F3FF45EAF01990BA807F070FD6B
S315080053E0002840F0B680B3880BA93846ADF83030AF
S315080053F007F0AFFC0146002840F0AD80384607F0BC
S31508005400DFFD00287FF446AF0123BB8042E7019405
S315080054109AE70F9A0BA952F80A300846013342F860
S315080054200A300DAA07F0B1FE044600289DD031E7E0
S31508005430010003000D9B069A05931344DDF82C9092
S315080054400893059B4FEA8A089A5859F82A10A8F132
S3150800545004030F9D0793039B91421D4474D207983A
S31508005460002359F8000004F053FB002914BF4FF03D
S31508005470FF330346BAF1010F2B600EBF002309EB79
S31508005480080353F8083C099A1593079B59F8033003
S31508005490169359F8083017932B6801332B60059B30
S315080054A0134498462B680021013B2B6011A807F08E
S315080054B085FC00284DD1029B002B48D0D8F8002047
S315080054C0119B11A91A60089A084612685A602A6838
S315080054D007F0E3FE00283CD113A911A807F028FD20
S315080054E00028DFDC2A680DA911A807F0D6FE80BBC4
S315080054F0039B11A84FEAC308414607F0C4FC40BB0A
