S01C00006275696C642F64656275672F67656E657261746F722E7333379C
S3152000A0000010002009B200206F4E01206F4E012063
S3152000A0106F4E01206F4E01206F4E01206F4E0120A2
S3152000A0206F4E01206F4E01206F4E0120B1B30120EB
S3152000A0306F4E012030D5012041B3012005C80120F3
S3152000A0406F4E01206F4E01206F4E01206F4E012072
S3152000A0506F4E01206F4E01206F4E01206F4E012062
S3152000A0606F4E01206F4E01206F4E01206F4E012052
S3152000A0706F4E01206F4E01206F4E01206F4E012042
S3152000A0806F4E01206F4E01206F4E01206F4E012032
S3152000A0906F4E01206F4E01206F4E01206F4E012022
S3152000A0A06F4E01206F4E01206F4E01206F4E012012
S3152000A0B06F4E01206F4E01206F4E01206F4E012002
S3152000A0C06F4E01206F4E01206F4E01206F4E0120F2
S3152000A0D06F4E01206F4E01206F4E01206F4E0120E2
S3152000A0E06F4E01206F4E01206F4E01206F4E0120D2
S3152000A0F06F4E01206F4E01206F4E01206F4E0120C2
S3152000A1006F4E01206F4E01206F4E01206F4E0120B1
S3152000A1106F4E01206F4E01206F4E01206F4E0120A1
S3152000A1206F4E01206F4E01206F4E01206F4E012091
S3152000A1306F4E01206F4E01206F4E01206F4E012081
S3152000A1406F4E012021D700206F4E01206F4E012037
S3152000A1506F4E01206F4E01206F4E01206F4E012061
S3152000A1606F4E01206F4E01206F4E01206F4E012051
S3152000A170F0B5114A114C124E00F00105E3695F0754
S3152000A18013D40DB9334213D103EA00078F4207D106
S3152000A1900B4A1A40002A0CBF00206FF00100F0BDC8
S3152000A1A0013AEBD16FF00200F9E74FF0FF30F6E706
S3152000A1B06FF00100F3E700BF80969800000003507F
S3152000A1C0020001000B4B70B5D96911F480310DD115
S3152000A1D001244FF48072084E084DF46020462C640A
S3152000A1E01A61FFF7C5FF3464EC6070BD6FF00100A3
S3152000A1F0FBE700BF0000035000100350002003506F
S3152000A2004FF4803238B50E4B0E4C9A66E56941F60E
S3152000A210713315400122E3630B4B0021DA600223E0
S3152000A220606121202361FFF7A3FF10B92120FFF7EA
S3152000A2309FFF0122054BDA600DB10023E36338BD91
S3152000A24000900050000003500010035000200350DF
S3152000A25070B5134C6061E3695B071ED40E4656F851
S3152000A260043B8D18A361AE420BD10423002121208B
S3152000A2702361FFF77DFF58B9BDE870402120FFF725
S3152000A28077BF08210846FFF773FF10B10423236127
S3152000A29070BD56F8043BA361E5E74FF0FF30F7E7C2
S3152000A2A0000003502DE9F84315464FF48032184B31
S3152000A2B089469A6603F51C33DF690646174041F640
S3152000A2C07132DA63012203F58053DFF84C80DA60BD
S3152000A2D055B9284601220F4BDA601FB10022A3F59B
S3152000A2E00053DA63BDE8F88306F5005404EA08044F
S3152000A2F0A41BAC4228BF2C46494622463046FFF7CF
S3152000A300A7FF0028E6D12644A1442D1BE0E700BF85
S3112000A310009000500020035000E0FFFFEA
S3152000A32001292DE9F04F4AD889B30FF2D40BDBE986
S3152000A33000AB0FF2D409D9E9008935A7D7E9006720
S3152000A34035A5D5E9004536A3D3E900239FED1E5B4D
S3152000A3509FED1F6B9FED207B9FED214B80ED045BD6
S3152000A36080ED004B80ED024B80ED066B80ED087B87
S3152000A370C0E90AABC0E90C89C0E90E67C0E91045FF
S3152000A380C0E91223C0F8D0100020BDE8F08F9FED61
S3152000A390165B0FF2940BDBE900AB0FF29409D9E9B7
S3152000A3A0008925A7D7E9006725A5D5E9004526A375
S3152000A3B0D3E900239FED0E6B9FED0F7BCCE76FF06B
S3152000A3C07400E2E7AFF30080D89E05C15D9DBBCB4C
S3152000A3D007D57C362A299A6217DD70305A015991A1
S3152000A3E0000000000000000008C9BCF367E6096A07
S3152000A3F03BA7CA8485AE67BB2BF894FE72F36E3CEE
S3152000A40039590EF7D8EC2F15310BC0FF6726336765
S3152000A41011155868874AB48EA78FF9640D2E0CDB68
S3152000A420A44FFABE1D48B547F1361D5F3AF54FA534
S3152000A430D182E6AD7F520E511F6C3E2B8C68059B58
S3152000A4406BBD41FBABD9831F79217E1319CDE05B10
S3152000A4500348044B834202D0034B03B1184770478D
S3152000A460B4380020B438002000000000064B07490D
S3152000A470C91A891048BF0131491003D0044B0BB1CA
S3152000A48001481847704700BFB4380020B438002070
S3152000A4900000000010B5064C237843B9FFF7D8FF1B
S3152000A4A0044B13B10448AFF300800123237010BD81
S3152000A4B0BC29002000000000C0EA012008B5054B99
S3152000A4C01BB105490548AFF30080BDE80840FFF7FA
S3152000A4D0CDBF00BF0000000050100020C0EA0120C0
S3152000A4E0A3F5803A704700BF174B002B08BF134BCC
S3152000A4F09D46FFF7F5FF00218B460F461348144A69
S3152000A500121A10F0A7FC0E4B002B00D098470D4BCB
S3152000A510002B00D098470020002104000D000D4894
S3152000A520002802D00C48AFF3008009F0BBFE2000C3
S3152000A530290010F0E7FA09F081FC00BF00000800AE
S3152000A5400000000000000000001000200010002085
S3152000A550882B00200000000000000000012903BF16
S3152000A560034B00201B78A62008BF1370704700BF3E
S3152000A570DD290020022938B514461D460FD1202298
S3152000A5800021084810F066FC3CB1202D2A462146C1
S3152000A59028BF2022034810F092FC002038BDA620B8
S3152000A5A0FCE700BFBD290020104608B56AB163B19B
S3152000A5B002290CD1202B28BF20231A46029B0549AD
S3152000A5C01A6010F07CFC002008BD2F20FCE7A62096
S3152000A5D0FAE700BFBD290020012905D102B1127872
S3152000A5E0024B00201A707047A6207047DD290020F4
S3152000A5F02DE9F0431D46002389B0074608460E463E
S3152000A6001446CDE9053300F051FC18B9D82009B01D
S3152000A610BDE8F083304605A900F0AAFC0028F6D153
S3152000A620204600F043FC0028F0D0204606A900F082
S3152000A6309FFC0028EBD1DDE90596079007A918486D
S3152000A64000F096FC044600BB079919EB01081ED1C1
S3152000A6500EB110F08FFA02200AF079FBA0B1079B09
S3152000A660022100931F203B46CDE901960D4A0AF0B0
S3152000A67061FB6B689E4210D832464146286810F02E
S3152000A680CFFB6B689E42E4D86E602046BFE702206F
S3152000A6900AF05DFB0028ECD0E1E71924F5E700BFBE
S3152000A6A02172080030D20120014800F05BBD00BFB6
S3152000A6B000720800002307B50348019301AB00F0A0
S3152000A6C07BFC03B05DF804FB00720800014800F033
S3152000A6D019BD00BF0C72080010B506480C4600F0E4
S3152000A6E01FFC40F20123984202BF4FF6F17300206F
S3152000A6F0238010BD0C720800014800F033BD00BF56
S3152000A7000D720800002307B50348019301AB00F042
S3152000A71053FC03B05DF804FB0D720800014800F0FD
S3152000A720F1BC00BF0B72080010B506480C4600F0BD
S3152000A730F7FB40F20123984202BF48F201030020B2
S3152000A740238010BD0B720800014800F00BBD00BF2E
S3152000A7500E720800002307B50348019301AB00F0F1
S3152000A7602BFC03B05DF804FB0E720800014800F0D4
S3152000A770F9BC00BF10720800002307B503480193F7
S3152000A78001AB00F019FC03B05DF804FB1072080061
S3152000A790014800F0E7BC00BF11720800002307B58E
S3152000A7A00348019301AB00F007FC03B05DF804FBFE
S3152000A7B011720800014800F0D5BC00BF12720800D3
S3152000A7C0002307B50348019301AB00F0F5FB03B066
S3152000A7D05DF804FB12720800014800F093BC00BF2C
S3152000A7E01872080010B505480C4600F099FB40F297
S3152000A7F00123984204BF0020208010BD1872080053
S3152000A800014800F0AFBC00BF0F72080073B50026E8
S3152000A81001AB0E480C461546019600F0CDFB40F2E2
S3152000A820012398420BD164B10C2D0CD920462A461F
S3152000A830074910F0D2FA30462C4404F8016C02B0D5
S3152000A84070BD0B20FBE71920F9E700BF0F72080047
S3152000A8504ED20120014800F085BC00BF04720800DA
S3152000A860014800F0A9BB00BF04720800014800F0AF
S3152000A87093BC00BF1F720800014800F0F3BB00BF65
S3152000A8801F720800014800F03DBC00BF0772080097
S3152000A89037B512480D4600F043FB40F2012398429B
S3152000A8A0044604D14FF470632B80002014E098B93D
S3152000A8B02B88B3F5805FF8D301200AF048FA50B10F
S3152000A8C04FF4C2732F220121CDE900322046044BDA
S3152000A8D0044A0AF02FFA2F2003B030BD0772080071
S3152000A8E05BD201207BD20120014800F023BC00BFAF
S3152000A8F00872080010B506480C4600F039FB40F2F5
S3152000A9000123984202BF4FF47A730020236010BDC2
S3152000A91008720800014800F025BC00BF0972080033
S3152000A920014800F049BB00BF09720800014800F049
S3152000A93019BC00BF0A720800014800F03DBB00BFE9
S3152000A9400A7208000B46024A02490348FFF750BE26
S3152000A95027720800267208008CD201200B46024A74
S3152000A96002490348FFF744BE2572080024720800F6
S3152000A970A8D201200B46024A02490348FFF738BEF7
S3152000A9802372080022720800CED20120022307B5C6
S3152000A990D1E9001201A8019308F056F818B90199D7
S3152000A9A0024800F0C7FB03B05DF804FB20720800E4
S3152000A9B01FB5022003900698009003A808F05CF8C3
S3152000A9C018B90399024800F0B5FB05B05DF804FB01
S3152000A9D020720800002370B5154886B00D4616462D
S3152000A9E0049300F063FA08B3114804A900F0C0FAF2
S3152000A9F0D0B9049B3246002B08BF0223294605A85E
S3152000AA00059308F0A3F8044602200AF0A0F950B1F5
S3152000AA1002947368022101936B681F200093054AF4
S3152000AA20049B0AF087F9204606B070BDD824EBE7D0
S3152000AA3020720800E7D20120014800F07BBB00BF4E
S3152000AA4021720800014800F093BA00BF2172080065
S3152000AA50014800F087BB00BF29720800014800F0BA
S3152000AA60ABBA00BF29720800014800F095BB00BFB1
S3152000AA7005720800014800F0F5BA00BF057208000B
S3152000AA80014800F027BB00BF28720800014800F0EB
S3152000AA901FBA00BF28720800032307B5D1E90012A8
S3152000AAA001A8019300F076F918B90199024800F03F
S3152000AAB041FB03B05DF804FB307208000248D1E97F
S3152000AAC0001200F069BB00BF17720800002313B5FF
S3152000AAD001934B680C460F2B0ED901AB1022096847
S3152000AAE0064800F0BFFA63680F2B01D810F042F831
S3152000AAF01023636002B010BD1920FBE7177208000F
S3152000AB0000200A4B10B5186032B9094C2146BDE821
S3152000AB101040084800F00EBBA1F500518C180648DD
S3152000AB200AF062F9204608F089FFEFE76810002056
S3152000AB3000E00F08217208007C10002000232DE978
S3152000AB40F04F85B080460F462C4803A9154603933F
S3152000AB5000F00EFA002838D1294E039933681BB924
S3152000AB6028480AF026F980BBD5E900143368039AF1
S3152000AB7002EB030B14F003031BD10A462346594666
S3152000AB8020480AF01CF900BB4046316800F0D2FA92
S3152000AB90D8B93846696800F0CDFAB0B932686B6822
S3152000ABA00020134413F03F021CBF40339B1A33602E
S3152000ABB00BE004F1040AAAEB030A5046019100F0C7
S3152000ABC0C9F80199814618B9AC2005B0BDE8F08FC7
S3152000ABD0224610F074F9AAEB0402FF2109EB0400C7
S3152000ABE010F038F953464A46594606480AF0E7F81F
S3152000ABF00446484600F0BEF82046C4E72172080005
S3152000AC00681000207C10002008B50A460248034937
S3152000AC10FFF794FF08BD00BF2272080023720800C8
S3152000AC2008B50A4602480349FFF788FF08BD00BF5A
S3152000AC30247208002572080008B50A46024803490E
S3152000AC40FFF77CFF08BD00BF2672080027720800A8
S3152000AC501FB513460022039203AA019220220092D6
S3152000AC600A46014604480EF082FA002814BFAC209A
S3152000AC70002005B05DF804FB09000002014B09F035
S3152000AC80AABF00BFFB4A012030B4084BD3E8EF2F00
S3152000AC90541CC3E8E54F002DF8D1002A02DC30BC55
S3152000ACA000F03CB8002030BC704700BF6C1000207C
S3152000ACB02D2828BF002010B4074C04EB8000074C39
S3152000ACC0D4E8AF4F1CB1A4465DF8044B60475DF84D
S3152000ACD0044B0AF047B800BF32D301207010002081
S3152000ACE0024BD3E88F0FC0B2704700BFD02E002092
S3152000ACF0024608B5064BD3E8AF3F3BB9054B06499C
S3152000AD001B68D86809F094F90FF034FF08BD00BF1E
S3152000AD1074100020802E0020E6D3012008B50A4BAF
S3152000AD20D3E8EF2F511CC3E8E01F0028F8D1002AF2
S3152000AD3007DD064B06481B68D96809F08BF90FF02A
S3152000AD4019FF002008BD00BF74100020802E0020AF
S3152000AD502ED4012038B504460548FFF7C9FF204602
S3152000AD6009F07EF80546214609F0FAFF284638BD47
S3152000AD7061D4012010B504460548FFF7B9FF2046E7
S3152000AD80002109F0EEFF2046BDE8104009F070B81A
S3152000AD906DD4012070B5044688B000680D4616466D
S3152000ADA009F0E1FF23684FF40071079301230B4A52
S3152000ADB002A8CDE902230A4B3246CDE9041300232B
S3152000ADC02946069301AB0EF0AFF8014618B10548A7
S3152000ADD009F01AFAAC2008B070BD00BF002480002C
S3152000ADE00010C00478D40120014B1960704700BFC1
S3152000ADF078100020014B1960704700BF78100020A2
S3152000AE00014B0360704700BFE8D4012010B504460B
S3152000AE10034B082103600BF07AFC204610BD00BFCF
S3152000AE20E8D401200448054B054A03600023054960
S3152000AE3043600FF098BE00BF7C100020E8D40120AC
S3152000AE40342D002001AE002037B50E4D2C686CB98C
S3152000AE50032322462146009301200B4B12F0D1F802
S3152000AE60234622462146286011F006FE286808B9A6
S3152000AE700FF080FE4FF0FF3103B0BDE8304011F0F7
S3152000AE8075BF00BFD410002084100020064B10B5DB
S3152000AE90186808B90FF06EFE0023BDE810401A4668
S3152000AEA0194611F0E9BD00BFD410002007B50146B0
S3152000AEB006486A4601AB006801F0D4FB09F0A2FF00
S3152000AEC0B0FA80F0400903B05DF804FB502E002054
S3152000AED07FB5002304460D468DF8073009F09EFF06
S3152000AEE0C0B10E4E2146306803AB02AA01F0BAFB70
S3152000AEF009F088FF60B92146039B30680DF10702EF
S3152000AF0001F02AFB09F07EFF10B99DF807302B705F
S3152000AF1004B070BD40F20120FAE700BF502E002099
S3152000AF207FB5002304460D46ADF8063009F076FFBE
S3152000AF30C0B10E4E2146306803AB02AA01F092FB47
S3152000AF4009F060FF60B92146039B30680DF10602C7
S3152000AF5001F002FB09F056FF10B9BDF806302B8030
S3152000AF6004B070BD40F20120FAE700BF502E002049
S3152000AF707FB5002304460D46039309F04FFFB0B179
S3152000AF800C4E2146306802AB01AA01F06BFB09F09A
S3152000AF9039FF50B92146029B306803AA01F0DCFA3A
S3152000AFA009F030FF08B9039B2B6004B070BD40F256
S3152000AFB00120FAE7502E00202DE9F0431D460023FC
S3152000AFC085B02B6007460E46914609F027FF0028DC
S3152000AFD03ED0DFF88C803946D8F8000003AB02AAB1
S3152000AFE001F040FB09F00EFF0446B8B9039B93B36A
S3152000AFF0C6B14B4531D232463946D8F8000001F069
S3152000B000ABFA09F0FFFED8B9039B012B03D13378A5
S3152000B010003B18BF012300222B60F254204605B0C6
S3152000B020BDE8F083012B01D02B60F7E73946D8F82D
S3152000B03000000DF1070201F08FFA09F0E3FE08B1D6
S3152000B0400446EBE79DF8073003B103982860E5E74F
S3152000B05040F20124E2E71E24E0E71924DEE700BFE0
S3152000B060502E00202DE9F7431D4600232B6006466F
S3152000B0700F46904609F0D2FE00B3DFF854906A4698
S3152000B0803146D9F8000001AB01F0ECFA09F0BAFE1E
S3152000B090044678B9019BA3B167B1434513D83A4614
S3152000B0A03146D9F8000001F057FA09F0ABFE60B935
S3152000B0B0019B2B60204603B0BDE8F08340F20124BB
S3152000B0C0F8E71E24F6E71924F4E70446F2E700BF62
S3152000B0D0502E002013B504468DF8071009F09EFE69
S3152000B0E058B107480123214600680DF1070201F0F7
S3152000B0F0EFF909F087FE02B010BD2F20FBE700BF55
S3152000B100502E002013B50446ADF8061009F086FE31
S3152000B11058B107480223214600680DF1060201F0C6
S3152000B120D7F909F06FFE02B010BD40F20120FAE710
S3152000B130502E002013B50446019109F06FFE58B138
S3152000B14004230748214600680DEB030201F0C0F9ED
S3152000B15009F058FE02B010BD40F20120FAE700BF08
S3152000B160502E002010B5044609F058FE68B179B17A
S3152000B1700848012A1346006838BF01230A4621469B
S3152000B18001F0A6F909F03EFE10BD40F20120FBE7D2
S3152000B1902F20F9E7502E002010B5044609F03EFE78
S3152000B1A058B101B962B90748134600680A462146D4
S3152000B1B001F08EF909F026FE10BD40F20120FBE7D2
S3152000B1C02F20F9E7502E0020BFF34F8F0549064B5D
S3152000B1D0CA6802F4E0621343CB60BFF34F8F00BF0F
S3152000B1E0FDE700BF00ED00E00400FA050348044A2D
S3152000B1F00449121A921009F03BBE00BF70A100202C
S3152000B2001CA30020882B002008B500F02FF8FFF79C
S3152000B210EDFF124B12498B4212D30020114B1249DB
S3152000B2208B4218D3FFF760F9186850F82240586807
S3152000B23040F82240013298688242F5D30C33EAE77F
S3152000B2400022F8E71C6844F8220001325C68A2421A
S3152000B250F8D30833E4E70022F8E700BFC8EA012064
S3152000B260D4EA0120D4EA0120D4EA01204FF4804117
S3152000B270124B134A70B59A60D3F88820114D42F4C8
S3152000B2807002C3F88820104A05F5005491664FF0E5
S3152000B290FF3222660D4A62660222C3F8D020BFF32F
S3152000B2A04F8FBFF36F8F4FF44036002003F0F4FB2F
S3152000B2B00020E66003F0E2FB2E6170BD00ED00E0A9
S3152000B2C000A000200080004400900050F7FF3700C7
S3152000B2D02DE9F04F144606460D469B46C36B87B0B4
S3152000B2E001225B6902A960689847F36B01225B69BA
S3152000B2F003A92846984702A80AF0B8F9074648B194
S3152000B3000023A37563754FF0FF33A360002007B0B9
S3152000B310BDE8F08F03A80AF0B6F90123A375237EB2
S3152000B32004EBC303DD611F846368AB420ED120604A
S3152000B33003A80AF0CAF94FF0FF332075A360237DD6
S3152000B340043B022B26D80023A375DFE723681A1AAD
S3152000B35053425341A37503A80AF0B7F9237D8342CC
S3152000B36018BFA77503A80AF092F9074602A80AF0A3
S3152000B3708EF9874218BF002303A818BFA3750AF0C9
S3152000B3808EF9074602A80AF08AF987421CBF0023D5
S3152000B390A375D4E703A80AF07AF980B1F36B0222E9
S3152000B3A028465B6904A9984704A80AF07FF9034652
S3152000B3B0207D032839D8DFE800F03838040903A8AF
S3152000B3C0F3E7CC22237E04EBC3031A8401F08AFA26
S3152000B3D0109B187003A8277E0AF04DF904EBC707C7
S3152000B3E087F82200237E03A804EBC303B3F820903A
S3152000B3F093F822700AF04BF9804603A80AF04FF919
S3152000B4008246B8F1000F15D0F36B022228465B69FD
S3152000B41004A9984704A80AF00EF96075637D6BB9F4
S3152000B4200023A3754FF0000838E0227E04EBC20209
S3152000B4301384CBE703A80AF0E9F8EEE794F8168020
S3152000B440B8F1000FEED0B9F1000F09D1DFB1012319
S3152000B450627EE375002A44D19F4218D1677614E0B4
S3152000B460736C05EB0A02594285EA020008421CBFAA
S3152000B4700021A175591E0A409B1A9945D0D8A37D53
S3152000B480002BE3D1CEE7E37D43B94FF000084B46CE
S3152000B49052462946304609F02BFEA060A27D12B105
S3152000B4A023694B4423611449237E097899421ED986
S3152000B4B001332376BBF1000F1BD0D2B1E37DC3B19C
S3152000B4C0B8F1000F15D1032F13D0A1684B1C10D053
S3152000B4D0109B2246009330460123FFF7F9FEA07504
S3152000B4E007E0012FDAD0032F08BFA376CDE700238C
S3152000B4F0A375A07D0BE700BFA0D501202DE9F04F55
S3152000B5000E46984600238BB004464FF0FF31104676
S3152000B51017468DF8133001F0CFF9B6F5801F3BD3CF
S3152000B520B21C53D1E56A6B1C57D12046616A09F0DB
S3152000B53025FD0546B31C18BF0123DFF810910193A2
S3152000B540636A626C0293236805A902FB053AE36BE2
S3152000B55005225B695046984705A80AF022F90AF0A9
S3152000B56045F950460AF04DF94FF0000B8246014648
S3152000B5704B1C05D0636C81EA0A025B42134232D02F
S3152000B5802946204609F0FAFC029BAB424DD0BBF17E
S3152000B590000F4DD10546D3E7314605AA04F1080030
S3152000B5A009F0B6FF0146481C10D0384601F084F950
S3152000B5B00122394620460DF1130309F0EBFD28B18F
S3152000B5C09DF8133088F80030002003E0237C002B00
S3152000B5D0A8D12D200BB0BDE8F08F2368ED1A636C3F
S3152000B5E0B5FBF3F5A6E7484601F066F90DF113031E
S3152000B5F049462046019A09F0CDFD034690B1B21C7A
S3152000B60003D0D9F80020B2420CD19DF81320039321
S3152000B6100D4B88F8002049461A6838460FF04FFC33
S3152000B620039B9B46D9F80810A2E7BBF1000FD0D0A8
S3152000B630B6F5801FC8D2314698F800307A6804F1F2
S3152000B640080001F07FF8BFE79CD501200C110020EF
S3152000B6502DE9F3410446174698460E46194D816A50
S3152000B660E36A8B422AD04B1C18E0284601F024F9C5
S3152000B6700122294620460DF1070309F08BFD30B142
S3152000B6804346294620469DF80720B847B0B1A96809
S3152000B6904A1C05D0012E0AD0E36A9942E5D10DE075
S3152000B6A06968204609F0F7FC012E0146D8D16B685F
S3152000B6B081EA0302636C5B421A42D1D002B0BDE834
S3152000B6C0F08100BFE01000202DE9F041036B904689
S3152000B6D0826B07689A4288BF8363426C436A90B044
S3152000B6E002FB0377C36B0E46052201A95B6904465C
S3152000B6F03846984701A80AF054F8012801463070C8
S3152000B70057D0656CE26B2368606AD2F814C005FBDB
S3152000B7100030052206A9E04706A80AF042F80128CB
S3152000B7204FF0000523D0D4E90A3201219342CDE916
S3152000B7300B458DF834800E958DF83C102AD119468C
S3152000B740204609F0A8FC236B626C14339B1AE06236
S3152000B75023630C9B53B99DF83C303BB1626A616C04
S3152000B7602368E06B01FB023109F0D3FF0C9DE36BEC
S3152000B77005225B6901A93846984701A80AF011F805
S3152000B78030702846236BA26B9A4288BFA36310B001
S3152000B790BDE8F081237C33B91C490BAA04F10800CB
S3152000B7A001F01EF8D5E72046194A0BABFFF750FFEC
S3152000B7B0CFE7237C23BB2246164904F1080001F07B
S3152000B7C00FF8616A204609F0FAFB616A421C20469E
S3152000B7D009F0C3FB054620B9236B626C1344143B66
S3152000B7E023632046A16A09F056FC2368A062C01A8A
S3152000B7F0636CB0FBF3F06062204609F08FFCB6E77D
S3152000B80000232046044AFFF723FFDAE7DDBF0020A6
S3152000B81059BF00201D520120B951012073B50D4694
S3152000B820D11E4A421C461B7E4A419A4226D129688D
S3152000B8302368994222D3636899421FD8114E0DF18D
S3152000B84007033246FFF75AFEC0B972686B689A4200
S3152000B85014D19DF80730DA1E53425341227E93427B
S3152000B8600CD1636901336361D4E90323934205D282
S3152000B8702968A26842F8231001332361012002B00F
S3152000B88070BD00BF381100202DE9F04F9A468BB0CD
S3152000B8909DF85030DFF850B10293DBF81030804627
S3152000B8A053450D461646C0F09980D146DBF8043044
S3152000B8B00193B9F1000F00F08D80D8F83C300122B9
S3152000B8C05B6907A90198984707A809F0DCFEDBF811
S3152000B8D00030984240F0858007A809F0E0FE042851
S3152000B8E0074614D107A809F0E1FE019B029A0446F7
S3152000B8F03B44002A3FD1864212D91446361A404686
S3152000B900019909F0C8FBA9EB04090190D1E7D8F801
S3152000B9103C3002225B69019808A9984708A8E2E70B
S3152000B920841B544528BF5446032C03EB0607AAEB79
S3152000B930040A4FEA94021CD9D8F83C3029463846E6
S3152000B9405B69984724F0030304F003061F441D4453
S3152000B950002ED4D0D8F83C3001225B6908A938469D
S3152000B96098473246284608A935440FF0A8FA0026FB
S3152000B970C5E72646ECE7074600F003020392034498
S3152000B9802A1804920593049BDD1B059BD81B039B59
S3152000B9909F420FD1002FB2D0D8F83C30012208A9FF
S3152000B9A05B6998473A46284608A90FF029FA78B9DC
S3152000B9B03D44A4E7D8F83C30012208A95B699847A2
S3152000B9C00422284608A90FF01BFA08B9043FDAE733
S3152000B9D04FF0360948460BB0BDE8F08F4FF06309AB
S3152000B9E0F8E74FF06F09F5E7641100202DE9F041E3
S3152000B9F00F4616469846044688B060B390F83450F1
S3152000BA00FDB1012109F07FFA00210E9BCDE9051138
S3152000BA10CDE902379DF83C30CDF804808DF81C30F6
S3152000BA20237C04968BB90D4901AA04F1080000F085
S3152000BA30D7FEDDE90553E06B002E08BF1D4609F051
S3152000BA40FBFB284608B0BDE8F0812046044A01AB3E
S3152000BA50FFF7FEFDEDE70546F3E700BFE7510120BE
S3152000BA601DB800202DE9F04F99B00F4609920A69BA
S3152000BA70416C0E931439D31DB3FBF1F3013302EB62
S3152000BA80C302036B04469342C0F00D820023DFF805
S3152000BA9020940D93E36A48461946079300F00CFF5D
S3152000BAA0D7E9033604930E9B022B4ED1CC2E40F0C1
S3152000BAB08A81099B002B42D03946204609F01AFC80
S3152000BAC0656C079A6B1E13401490ED1AE36B0122E6
S3152000BAD05B6916A97868984716A809F0D8FD00284A
S3152000BAE00CBF04230823782E06933DD90123002575
S3152000BAF04FF0080A05933B6805990E98C9F800305F
S3152000BB00C9F8106009F0E5FD4FEA9A031093002367
S3152000BB10DDF81CB089F814000B930F9308930C934F
S3152000BB20616C4A1E0BEA02028B1A002E38D055444D
S3152000BB30AB4240D8236B5B1A13442363ABE0049BD0
S3152000BB401B68149308230693D0E7656C079A6B1E2F
S3152000BB501340782EA5EB030516D8FB7D7BB9099BF0
S3152000BB60002BB3D104230693331DAB4210D9A6B1C3
S3152000BB70082DBBD804250023AA460593BBE7099BBD
S3152000BB80002BA3D10823EEE7099B002B9ED1D9E7F2
S3152000BB90002505954FF0040AADE704250596F9E73B
S3152000BBA05345C7D3B0460BEB0A030393089B002BE0
S3152000BBB018BF032313E0A3EB0A039E42B0460BEB08
S3152000BBC00A0228BF98469E420392EFD90123D9F84C
S3152000BBD0102089F81730964271D1C9F804B008931D
S3152000BBE099F81730002B6CD099F818200899D31C97
S3152000BBF009EBC3030132C3F804B0A3F80880997295
S3152000BC0089F81820B8F1000F14D00E9B022B5BD1B7
S3152000BC100B9B7BB90F9B4344032B0BD9E36B012270
S3152000BC209B69039814A998470546002840F03D8152
S3152000BC3001230B93089B16A80193059B009399F863
S3152000BC4014204346396800F0EDFDE36B58469B69A6
S3152000BC50109A16A99847051E0D9B18BF5B4652469B
S3152000BC600D9359464346204609F042FA236B08F1C4
S3152000BC700302A3EB0A0322F003029B1AC9F8080069
S3152000BC802363002D40F011810F9BDDF80CB0434457
S3152000BC90A6EB08060F935946204609F0FCF9002525
S3152000BCA08346002E7FF43CAF814A3968936804F1BD
S3152000BCB00800E36252680E9B00F044FDDEE002239A
S3152000BCC08DE7C9F804B09DE7099B002B30D1049B72
S3152000BCD0B8F1030F43440A9327D9DDE90301E36B47
S3152000BCE04FEA98029B6998470546002865D118F0C7
S3152000BCF003025FD0049B28F003052B440493039B87
S3152000BD001D444FF0FF33049915A815930FF0D7F86B
S3152000BD10E36B28469B69012215A9984705460A9B8D
S3152000BD200493002D86D0039B99E74246039DE8E7BE
S3152000BD30039B0A9307F120031193FB7D78689BB13F
S3152000BD4000233D7E0C9AD9B28D4211D9119903F167
S3152000BD50010C31F83310914226D9069907EBC3031B
S3152000BD60D8690A44104403E00C9B069A13441844ED
S3152000BD70E36B01225B6915A99847159B0122139352
S3152000BD800C9B0A9804330C93E36B13A99B69984781
S3152000BD90039B0A9A43449B1A042B054607D978B974
S3152000BDA0134604330A93C8E76346521ACBE70A9B25
S3152000BDB00393B6E70A9B04933CE70A9B0493B2E7F6
S3152000BDC00A9B0393AFE7702604F1080303932368C5
S3152000BDD0079A606CA2EB030ABAFBF0FA00FB0A3062
S3152000BDE009F00FFDE16A8046204609F054F9A26A5F
S3152000BDF082424AD0626CD9F80830511E0B40216B22
S3152000BE002568891A0B4423630D9BE0625D1BB5FBF5
S3152000BE10F2F5AA4536D1079BB3EB080A12D0E36B9D
S3152000BE204FEA9A0241469B6998478346E36A079AF6
S3152000BE305344E362236B03989B1A4344236309F01C
S3152000BE4038FBDA462368616CE06B01FB053109F0AB
S3152000BE504DFC204609F062F8204609F05FF9206380
S3152000BE60BAF1000F11D03A69616CD31D1439B3FBB6
S3152000BE70F1F3013302EBC3029042A8D2304619B047
S3152000BE80BDE8F08F4FF0000ADCE73A69616CD31DFC
S3152000BE901439B3FBF1F3013302EBC302236B934254
S3152000BEA0BFF4F8ADEAE71C26E8E72E468CE700BF8C
S3152000BEB00C1100202DE9F3471E4643690446B34280
S3152000BEC0884617469DF828903DD300258DF80750C3
S3152000BED0204608F0EFFFD4F830A082450AD2236A24
S3152000BEE0B5EB430F06D2002220460DF10701FFF7DE
S3152000BEF0EBFB30B39DF80730012B05D100222046FD
S3152000BF000DF10701FFF7E0FBB9F1030F06D031462B
S3152000BF10204608F0BAFF256B854218D30D4D4FF009
S3152000BF20FF31284600F0C8FC4B4600222946204611
S3152000BF30C5E90376C5F8008002B0BDE8F047FFF7F3
S3152000BF4091BD0135C4E7622002B0BDE8F0871C2010
S3152000BF50FAE700BF38110020032A2DE9F3410646EF
S3152000BF600D4617461C4606D1237A012B23D00120E5
S3152000BF7002B0BDE8F081DFF86080096842460DF125
S3152000BF800703FFF7BBFA60600028EDD19DF8072074
S3152000BF90237A032AE8D0D8F804106A689142E3D1BC
S3152000BFA0012B2969D4F80CC007D172690CEB010367
S3152000BFB0934202D92074207CDAE708316144E1609B
S3152000BFC03B46012229463046FFF74CFD606000289B
S3152000BFD0CAD00020CCE700BF381100202DE9F3415C
S3152000BFE0089C032A1746266806D1237A012B24D0DB
S3152000BFF0012002B0BDE8F081DFF89080304642464D
S3152000C0000DF10703FFF77AFA60600028EDD1256865
S3152000C010D8F80400A96AD5F844C04840CCF10003FA
S3152000C0201840227AE1D1012A09D1E268D8F81030E5
S3152000C03013447269934202D92074207CD9E7286878
S3152000C040EB6A1B1A081AB3FBFCF3B0FBFCF0834225
S3152000C0500BD1706CF36A421E1340326B121A1344D2
S3152000C0602846336309F017F8E862D8F81020E36809
S3152000C07008321344E36001223B4604492068FFF757
S3152000C080F1FC60600028B0D00020B2E73811002013
S3152000C0902DE9F04F4FF0FF334FF6FF72002504468F
S3152000C0A000F10806C0E909238BB0C3620562056367
S3152000C0B030460F4609F0FDF9204608F02FFF20BB39
S3152000C0C02046394608F0AAFF204608F027FF20BB65
S3152000C0D05E200BB0BDE8F08FE26B2368606CD2F86F
S3152000C0E014C000FB0530052205A9E04705A809F084
S3152000C0F058FB012828D12946204608F060FF421C1B
S3152000C1002946204608F029FF0135E3699D42E3D3FD
S3152000C110204608F003FF0028D2D000254FF0FF3933
S3152000C1204FF6FF73CA46A846C4E90853E369984503
S3152000C13014D3A5EB0905012D36D84FF6FF72636A95
S3152000C140934246D16720C4E709F055FB0028DBD08F
S3152000C1502946204608F033FF0246D1E72368E26BE2
S3152000C160606C576900FB0830052205A9B84705A869
S3152000C17009F017FB834605A809F0EAFA0746584650
S3152000C18009F034FB68B1574538BFC4F82480B94557
S3152000C19028BFB946BD4238BF3D46BA46236A013359
S3152000C1A0236208F10108C1E74FF6FF730025636299
S3152000C1B0E3699D42C1D2676C2068E36B052207FBC9
S3152000C1C005005B6905A9984705A809F0C1FA01355C
S3152000C1D0EEE7E26B676C2068694607FB030055694A
S3152000C1E00522A847684609F0B3FA626A2368606C9C
S3152000C1F0504D00FB023009F004FB4FF0FF33A062E4
S3152000C200E3622A466FF00101204605ABFFF776F977
S3152000C21000284FD1AD6829462046E56208F05AFE2F
S3152000C220206320B92046E16A08F035FFE0622946FE
S3152000C230204608F030FF0546A36A9D423CD1656939
S3152000C240626CE91C143AB1FBF2F14FF0000805EBE1
S3152000C250C1050335B5FBF2F5C1460235E3699945BB
S3152000C2603CD3A8455AD22046616A08F087FE0027AB
S3152000C270064604F1400AB84512D8626C236869461E
S3152000C28002FB0639E36B05225B69484698476846F8
S3152000C29009F05EFA534602464946E06B09F0B3FAC6
S3152000C2A03146204608F06AFE0137AF420646E2D301
S3152000C2B064200EE7A56AAEE72946204608F00AFE66
S3152000C2C0236B2946034407462363204608F0E3FEF2
S3152000C2D00546002FB0D1C4E90B07ADE7636C27688C
S3152000C2E0052203FB0977E36B05A95B693846984766
S3152000C2F005A809F056FA09F079FA60B1384609F02E
S3152000C30080FA0146204608F0E5FD636C143B98420E
S3152000C31008BF08F1010809F101099FE7304609F035
S3152000C320C8F8002320461946034AFFF791F9002052
S3152000C330CFE600BF38110020835101200023624A36
S3152000C3402DE9F04117680E460446136018B92125D9
S3152000C3502846BDE8F08190F834500DB3096802688C
S3152000C360914240F0A98071684268914240F0A480D1
S3152000C370B1688268914240F09F80F168C26891421C
S3152000C38040F09A8031694269914240F09580B169C6
S3152000C390C26B914240F0908072691D468261D7E758
S3152000C3A050222946D0F838800EF054FDD6E90212E4
S3152000C3B0336804F1080023607368C4F8388063602A
S3152000C3C0336963617369A36109F085F8B36904F180
S3152000C3D04000E3639B68984794F8432020B1E561C9
S3152000C3E0002AB4D05B25B3E7656C002DF7D06668CC
S3152000C3F0B6FBF5F3E361002AA9D0B542F2D822684C
S3152000C400B2FBF5F105FB1122002A57D105FB136378
S3152000C410002B53D1204608F04DFDA3690433034475
S3152000C4209E424DD340F634726369CC3B934249D841
S3152000C430B5F5805FD6D30321204608F064FDD4E904
S3152000C4400001E36B1B6898470546E36B0220DB6817
S3152000C45098471DB1002384F834301DE03946204624
S3152000C460FFF716FE6428054604D139462046FFF715
S3152000C4700FFE0546636C143B002DEBD1226A204645
S3152000C48002FB03F608F016FDA369043303449E421B
S3152000C49006D284F834505A25E06B08F0CDFE57E7D3
S3152000C4A00123D4E90001094A84F8343013680133A2
S3152000C4B0136009F0AAF8EFE75D2549E7592547E714
S3152000C4C05A2545E75F2543E7DC100020D8100020D9
S3152000C4D02DE9FF410F4690461E46054698B390F833
S3152000C4E0343093B3B1F5801F31D21A4C022108F0B3
S3152000C4F00AFD2246394628460DF10F03FEF7FEFFB8
S3152000C500024678B1012342460093394633462846EF
S3152000C510FFF7D0FC0446E86B08F08EFE204604B0F8
S3152000C520BDE8F0819DF80F30012BEBD12169B14296
S3152000C530E8D10093414633462846FFF7A5F904463D
S3152000C5400028DFD1E7E72124E8E71124E6E72924BC
S3152000C550E4E700BF641100202DE9FF410C46164692
S3152000C5601F46054680B390F834307BB3B1F5801F63
S3152000C5702ED2DFF86080012108F0C5FC2146424614
S3152000C58028460DF10F03FEF7B9FF044670B99DF852
S3152000C5900F30012B11D1D8F81030BB4212D10246F0
S3152000C5A0009031462846FFF76FF90446E86B08F0FD
S3152000C5B043FE204604B0BDE8F081022B14BF2D2493
S3152000C5C06024F3E76324F1E72124F2E71124F0E75E
S3152000C5D02924EEE7641100202DE9F04385B00C46AE
S3152000C5E017461E460546DDF8308098B390F834305D
S3152000C5F093B3B1F5801F31D2DFF86490012108F0A2
S3152000C60082FC21464A4628460DF10F03FEF776FFA7
S3152000C610044688B99DF80F30012B14D1D9F8102083
S3152000C62006EB08039A4213D3009043463246394616
S3152000C6302846FFF729F90446E86B08F0FDFD204659
S3152000C64005B0BDE8F083022B14BF2D246024F3E748
S3152000C6506324F1E72124F2E71124F0E72924EEE709
S3152000C660641100202DE9F3411F4600230C4616468F
S3152000C67005463B6050B390F834304BB3B1F5801F7C
S3152000C68028D2DFF85480012108F03DFC214642469D
S3152000C69028460DF10703FEF731FF0446A0B99DF8A1
S3152000C6A00730032B10D0022B0AD101233360042339
S3152000C6B03B60E86B08F0C0FD204602B0BDE8F08183
S3152000C6C0D8F810303060F3E72D24F2E72124F3E781
S3152000C6D01124F1E72924EFE76411002030B50C4638
S3152000C6E0054685B028B390F8343023B3B1F5801FC2
S3152000C6F023D2022108F007FC0DF10F03214628461C
S3152000C7000F4AFEF7FBFE034688B99DF80F20032A41
S3152000C7100DD003222146009202462846FFF7CAFB87
S3152000C7200446E86B08F088FD204605B030BD2D2470
S3152000C730F7E72124F8E71124F6E72924F4E700BFD8
S3152000C740641100202DE9F043466886B305689846B3
S3152000C7504FF0000CA946AE4655F83C400CF1010CB2
S3152000C760C4F31307013401D0B94217D066450EF140
S3152000C770080EF1D12F46002403E0A64207F1080750
S3152000C78012D055F8343001340133F6D1C1F31301F8
S3152000C79041EA0851C7E90012BDE8F08341EA085191
S3152000C7A0CEE90012BDE8F083B8F1030F03D10123CF
S3152000C7B00372BDE8F083002303E09E4209F10809D5
S3152000C7C0F5D055F833400133C4F30754032CF4D184
S3152000C7D0C1F3130343EA0853C9E90032BDE8F083E5
S3152000C7E02DE9F0410646406882B0C0B10F4690461A
S3152000C7F00024336853F8345003EBC403C5F30752BF
S3152000C800C5F31301013504F1010406D05B683046F7
S3152000C810CDF80080B84710B170688442E9D302B0E1
S3152000C820BDE8F08173B504462248012A00EAC11109
S3152000C8309DF8185023F07C4007D9961E012E28D942
S3152000C840073303F07F03194308E09DF81C300A43A1
S3152000C850DB0603F0C053134343F060410023C4E9D1
S3152000C86000108DF80730B5B1202221460DF10700C2
S3152000C87008F0E3FF1A220DF10700211D08F0DDFF65
S3152000C880082063689DF8072043EA8263636002B04C
S3152000C89070BD1143E2E71B220DF10700214608F087
S3152000C8A0CCFF23689DF80720042043EAC263236057
S3152000C8B0EDE700BF80FFFF0738B5094B0D461A6824
S3152000C8C0002104460EF0C6FA00234FF0FF322383E0
S3152000C8D0C4E900252361A260E382A37638BD00BFA8
S3152000C8E09CD501200138C0B205289ABF014B185C9F
S3152000C8F001207047A1D501202DE9F04107461546B4
S3152000C90000240E46596888B0490A012922464FEA72
S3152000C910510104F10104F8D8DC78997824031B88A6
S3152000C920C90201F4006104F480540C43C3F30A03E2
S3152000C9305203234492B24FF000089C18274B6FEA0B
S3152000C9400444039325F07843ED4302A90DF1070033
S3152000C9501B2202938DF8078008F06FFF9DF80720B1
S3152000C960029B02A943EAC2630DF107001B2225F0B0
S3152000C9707845049302958DF8078008F05EFF9DF8B0
S3152000C9800720029B6FEA144443EAC26305934FF0E3
S3152000C990FF330794069307A9BB69012206F110000D
S3152000C9A09847BB6905A90446012206F10800984765
S3152000C9B0BB69404518BF044604A90122301D98478B
S3152000C9C00122404518BF0446BB69304603A9984753
S3152000C9D0404508BF204608B0BDE8F08101009AB264
S3152000C9E0044BD3F88420D206FBD4D3F88400C0F3BA
S3152000C9F0811070470040005038B5174B0546D3F8D4
S3152000CA0028310C4603F00703013B052B20D8DFE82D
S3152000CA1003F003131B0F0B170EF0DCFC052305B1E7
S3152000CA20286004B1236038BD0EF0D4FC0623F6E757
S3152000CA300EF010FD0723F2E70EF006FD0323EEE7C6
S3152000CA400EF002FD0423EAE70EF0FAFC0223E6E7E5
S3152000CA5000231846E3E700BF00800050002337B5C7
S3152000CA600193164B0546D3F820320C4603F00703F4
S3152000CA70042B21D8DFE803F0030B11161B0001233A
S3152000CA800DB1019A2A6004B1236003B030BD0021A4
S3152000CA9001A8FFF7B1FF1223F2E70EF0DBFC072314
S3152000CAA00190EDE70FF031FE0A230190E8E70EF042
S3152000CAB019FD09230190E3E70023E1E700800050F8
S3152000CAC038B5104B0546D3F880300C4603F00303E7
S3152000CAD0022B0BD0032B0DD0012B0FD10EF080FC97
S3152000CAE00E2305B1286004B1236038BD0EF0B2FCD8
S3152000CAF00723F6E70EF06EFC0623F2E7002318461E
S3152000CB00EFE700BF0080005038B5104B0546D3F83C
S3152000CB1000310C4603F00303022B0BD0032B0DD060
S3152000CB20012B0FD10EF090FC032305B1286004B130
S3152000CB30236038BD0EF0D6FC0923F6E70FF0E3FD9F
S3152000CB400823F2E701230020EFE700BF0080005012
S3152000CB5038B5184B0546D3F820010C4600F00700DF
S3152000CB60062823D8DFE800F0040A0E16121A1E0043
S3152000CB70012305B1286004B1236038BD0EF02AFCDC
S3152000CB800523F6E70EF060FC0323F2E70EF062FCC5
S3152000CB900723EEE70EF054FC0223EAE70EF01AFC18
S3152000CBA00623E6E70EF050FC0423E2E700231846AE
S3152000CBB0DFE700BF0080005038B5104B0546D3F89C
S3152000CBC040310C4603F00303022B0BD0032B0DD070
S3152000CBD0012B0FD10FF099FD0A2305B1286004B16E
S3152000CBE0236038BD0EF07EFC0923F6E70FF090FD9A
S3152000CBF00C23F2E701230020EFE700BF008000505E
S3152000CC00002337B50193164B0546D3F860320C4600
S3152000CC1003F00703013B032B1FD8DFE803F0020EC6
S3152000CC201914002101A8FFF793FF10230DB1019AD3
S3152000CC302A6004B1236003B030BD002101A8FFF7AC
S3152000CC40BBFF1123F2E70EF005FC07230190EDE769
S3152000CC500EF0F6FB02230190E8E70023E6E700BF8B
S3152000CC6000800050002337B50193164B0546D3F8B4
S3152000CC7094320C4603F00703013B032B1FD8DFE851
S3152000CC8003F0020E1914002101A8FFF761FF1023FB
S3152000CC900DB1019A2A6004B1236003B030BD002192
S3152000CCA001A8FFF789FF1123F2E70EF0D3FB072334
S3152000CCB00190EDE70EF0C4FB02230190E8E7002384
S3152000CCC0E6E700BF0080005038B5104B0546D3F884
S3152000CCD060310C4603F00303022B0BD0032B0DD03F
S3152000CCE0012B0FD10FF011FD0A2305B1286004B1E5
S3152000CCF0236038BD0EF0F6FB0923F6E70FF008FD9A
S3152000CD000C23F2E701230020EFE700BF008000504C
S3152000CD1073B50D460021114B0191D3F8804106468B
S3152000CD2004F00304022C13D0032C0CD0012C13D1B5
S3152000CD3001A8FFF70DFF10240EB1019B336005B14A
S3152000CD402C6002B070BD0EF085FB07240190F3E73E
S3152000CD500EF076FB0190EFE70C46EDE700800050E1
S3152000CD6038B5104B0546D3F840320C4603F0030382
S3152000CD70022B0BD0032B0DD0012B0FD10FF0C5FCAE
S3152000CD800A2305B1286004B1236038BD0EF0AAFB42
S3152000CD900923F6E70FF0BCFC0C23F2E70123002061
S3152000CDA0EFE700BF0080005038B5144B0546D3F896
S3152000CDB000020C4600F0070004281BD8DFE800F02C
S3152000CDC003090D111500012305B1286004B1236064
S3152000CDD038BD0FF09AFC0A23F6E70EF083FB0923F1
S3152000CDE0F2E70FF095FC0C23EEE70EF013FB0F2372
S3152000CDF0800AE9E700231846E6E700BF00800050D6
S3152000CE0038B5144B0546D3F808020C4600F0070047
S3152000CE1004281BD8DFE800F003090D1115000123B3
S3152000CE2005B1286004B1236038BD0FF06EFC0A23DB
S3152000CE30F6E70EF057FB0923F2E70FF069FC0C2307
S3152000CE40EEE70EF0E7FA0F23800AE9E700231846FB
S3152000CE50E6E700BF00800050B0F5207F1FD009D83C
S3152000CE60B0F5007F15D003D868B1B0F5C07F0AD0E1
S3152000CE7000200CE0B0F5607FFAD10B4BD3F8800090
S3152000CE80C0F3011003E0084B186FC0F303300130E4
S3152000CE907047054BD3F89000C0F30460F7E7024BC8
S3152000CEA0186FC0F38020F2E70080005002464FF44E
S3152000CEB08030104B10B598660020FFF7CDFF504309
S3152000CEC041F671320C4BDC69DA635A6804F480341B
S3152000CED022F4401259B90949884294BF0020012002
S3152000CEE0000502435A600CB10022DA6310BD0449E2
S3152000CEF0F2E700BF0090005000000350005A620283
S3152000CF00002D3101430905D0012B0CD0022B084BF3
S3152000CF1018BF002300F01F0039B103F5805301220A
S3152000CF2082401A607047034BF4E703F50053F6E797
S3152000CF3068800050648000501FB50021B0F5807FC6
S3152000CF400446CDE9001100F02B8100F294805D2883
S3152000CF5000F28C801F2805D8002840F089800EF02A
S3152000CF6059FAF7E0A0F120043D2C00F2818001A3BC
S3152000CF7053F824F05FCF002063D100205FCF00203C
S3152000CF8063D1002083D1002083D1002083D10020CB
S3152000CF9083D1002083D1002063D1002097D10020A7
S3152000CFA0A7D00020E1D00020C3D10020A7D00020A8
S3152000CFB063D1002063D1002063D1002071D00020EE
S3152000CFC071D0002071D0002071D0002071D00020B7
S3152000CFD071D0002071D0002071D0002063D10020B4
S3152000CFE063D1002063D1002007D10020D7D10020B3
S3152000CFF063D1002071D0002071D0002071D0002094
S3152000D00071D0002071D0002071D0002071D0002076
S3152000D01071D0002071D0002071D0002071D0002066
S3152000D02071D0002071D0002083D100205FCF002056
S3152000D0305FCF00205FCF0020CDD10020A7D00020D9
S3152000D040A7D00020E1D1002025D10020D1D000207A
S3152000D0508DD1002071D0002071D0002071D0002009
S3152000D06071D0002071D0002047D1002080286FD0B9
S3152000D070009804B010BDB0F5D06F00F0A28034D86F
S3152000D080B0F5607F78D019D8B0F5007F64D004D889
S3152000D090B0F5C07F3FF463AFEAE7B0F5207F60D0FC
S3152000D0A0B0F5407FE4D10EF0B5F902464FF420707A
S3152000D0B0FFF7D2FEB2FBF0F252085BE0B0F5B06F9C
S3152000D0C069D00AD8B0F5806F5BD0B0F5A06FCFD10C
S3152000D0D000216846FFF7C2FCCAE7B0F5C06FC7D18A
S3152000D0E000216846FFF768FDC2E7B0F5106F6DD0E6
S3152000D0F00ED8B0F5086F78D0BAD8B0F5E06F6AD000
S3152000D100B0F5F06FB4D100216846FFF7DDFDAFE73B
S3152000D110B0F5406F3AD013D8B0F5206F60D0B0F597
S3152000D120286FA5D10021334B0391D3F8703203F039
S3152000D1300303012B02D103A8FFF73EFD039B39E031
S3152000D140B0F5486F94D100216846FFF78BFD8FE735
S3152000D1500EF046F900908BE70EF042F90246204683
S3152000D16004E00EF057F902464FF42070FFF774FEE4
S3152000D170B2FBF0F200927BE701A8FFF7A1FC019A2F
S3152000D180EDE700216846FFF7E3FC71E700216846DA
S3152000D190FFF732FC6CE700216846FFF7B9FD67E729
S3152000D1A04FF0E02302911B695B0705D50EF032F99B
S3152000D1B00290029B00935BE703A902A8FFF7FCFC01
S3152000D1C0F7E700216846FFF7EFFD51E700216846A3
S3152000D1D0FFF716FE4CE700216846FFF7C1FD47E73B
S3152000D1E000216846FFF70CFD42E76846FFF78CFCF6
S3152000D1F03EE700BF0080005008B58020FFF79CFE68
S3152000D200034B98429EBF4FF48032024B1A6708BDEB
S3152000D210005A620200A00050B0F5207F10B50C46DF
S3152000D2205DD008D8B0F5007F4ED003D8C0B1B0F598
S3152000D230C07F15D010BDB0F5607FFBD12C4B4C1EA6
S3152000D240D3F8FC202B4912F0807F4FEA041427D113
S3152000D250D1F8803023F030032343C1F88030E9E74A
S3152000D26008F009FB08F015FB4FF48031224B214AC8
S3152000D2701967136F013C23F4704343EA04331367A1
S3152000D2800EF0C8F80446FFF7ABFBC0F102012046BA
S3152000D29008F0F9FA00F04AF8BDE81040FFF7ACBFF5
S3152000D2A0D3F8FC2022F08072C3F8FC20D1F880202D
S3152000D2B022F030022243C1F88020D3F8FC2042F02D
S3152000D2C08072C3F8FC20B5E70A4A4C1ED2F890308B
S3152000D2D023F0F85343EA0463C2F89030AAE7054ADC
S3152000D2E04C1E136F23F4806343EA84231367A1E75C
S3152000D2F000ED00E0008000500090005008B50121AC
S3152000D300022000F057F84FF42070FFF7A5FD054BDB
S3152000D310187008F0B0FA08F0BCFA4FF48032024BCD
S3152000D3201A6708BDDE2900200090005008B54FF48A
S3152000D330C070FFF701FEBDE808400449884294BF4B
S3152000D340012102214FF42070FFF766BF80F0FA0218
S3152000D35038B504460EF05EF80546FFF741FBC0F1EE
S3152000D3600201284608F08FFA0121002000F062F819
S3152000D3702CB1FFF7DBFFBDE83840FFF73DBF034B7D
S3152000D3804FF420701978FFF747FFF4E7DE290020D5
S3152000D390024A536B0342FCD1704700BF004009503C
S3152000D3A0034A0179D36E23F030030B43D3667047CB
S3152000D3B000400050F8B504461C4BD3F88420D10613
S3152000D3C0FBD4D3F88430C3F381139C422CD00EF0C7
S3152000D3D007F8012C064602D1214608F054FA0FF030
S3152000D3E076F94FF00072124B07465A66204608F02F
S3152000D3F055FA4FF480630D4D621E93402B676B6E7A
S3152000D4009A0103D4D5F884309B060AD538460FF006
S3152000D41059F9022C08D13046BDE8F840002108F021
S3152000D42032BAD5F88430EAE7F8BD00BF0040005094
S3152000D4300060005010B50C4608B90DF0D1FF074B1F
S3152000D44021461B783BB1064B984204D80120BDE803
S3152000D4501040FFF7AFBF0220F9E700BFDF29002009
S3152000D460005A62024FF0004238B5244B244C5A66CB
S3152000D4704AF6CD33656C014605F00105236428BBC9
S3152000D4800120FFF785FF6368DB0715D51D4B586024
S3152000D49008461D4B226BD2070CD4984208D107248C
S3152000D4A015B1174B194A1A6408F0F9F9204638BD08
S3152000D4B00130EFE79842F2D00024F1E70132236BE6
S3152000D4C013F0080305D08A42F8D1E8E700220E4976
S3152000D4D0F5E78A42E3D020210A4A91620121A2F58A
S3152000D4E0805251600649084A886A800603D49342CE
S3152000D4F0D5D00133F8E79342DDE700BF0090005016
S3152000D500004009500060095040420F003254FFFF8E
S3152000D5104FF0004238B5164B01465A664AF6CD33CF
S3152000D520144C154A656C236443780B205B0043F04A
S3152000D5300103D363FFF72CFF63688A7823F4F8731B
S3152000D54043EA02136360CA784B7943EA0223A36055
S3152000D5500A798B7943EA022323610878FFF782FF51
S3152000D560EB0744BF054B236408F099F9012038BD29
S3152000D5700090005000400950004000503254FFFFF8
S3152000D5804FF00042124B70B55D6E03F580535A661C
S3152000D5904AF6CD3304460F4980204E6C0B64FFF7C4
S3152000D5A0F7FE0B6A23F00F030F2C94BF234343F09F
S3152000D5B00F030B62F30744BF074B0B64002DA2BF7A
S3152000D5C04FF00042054B5A6608F069F970BD00BF5E
S3152000D5D000800050004009503254FFFF00A0005048
S3152000D5E04FF48032054B9A6641F6713203F51C33AF
S3152000D5F0DA63012203F50053DA6070470090005089
S3152000D60041F671320121064BDA6303F50052D160EF
S3152000D6100022DA634FF48032A3F518339A667047F6
S3152000D62000000350044B1868421C02BF034AD2F87C
S3152000D63094001860704700BF482D0020004000501D
S3152000D6404FF48032064B5A6603F5E6239B69C3F3F3
S3152000D6508512827003F03F021B0B427003707047E5
S3152000D660009000500120034B9B680A3303F01F03F0
S3152000D670984070470080E00F2DE9F0410DF0B8FF8B
S3152000D6800128074620D90DF0E7FF051E03DA0124FD
S3152000D6902046BDE8F0811F4B1B78002B37D14FF079
S3152000D6A050081D4C04EB0800A465C4F85C800EF0FD
S3152000D6B023F8206680B90124012FE9D928460DF0E8
S3152000D6C0EDFF0028E4DAE2E7124B1B7803F0FF05B2
S3152000D6D0002BE4D00024DBE70024104E214606F17F
S3152000D6E0100332460120C6E90044C6E902380EF08E
S3152000D6F0E7F830660028DED00321412008F043FFFA
S3152000D700412001F0BBF90122024B1A70D4E7002414
S3152000D710D4E700BFE0290020F4110020901100205A
S3152000D72008B54FF098435B6CD90208D50DF060FF21
S3152000D7300238012803D8094B186E0EF04FF94FF026
S3152000D74098435A6CD202FCD55B6D054A03F47023CC
S3152000D75013604120BDE8084001F09EB990110020D9
S3152000D7604C2D00202DE9FF474FF000080E461746A6
S3152000D7700446CDF80080002859D022B90025284635
S3152000D78004B0BDE8F087002951D032F0030902F039
S3152000D790030A1FD04FF0E063C0E90038012301914E
S3152000D7A0C0F808800293C0F81C8049F0005301A9F4
S3152000D7B0039308F0D3FA494620460EF0ACFF2046E4
S3152000D7C00DF0B4FE054628B14A46414630460DF0D6
S3152000D7D041FBD4E7BAF1000FD0D04FF000084FF04C
S3152000D7E0E063C4E900380123CDF804D00293114B3D
S3152000D7F0204601A9C4F80880C4F81C80039308F0C9
S3152000D800ADFA042120460EF086FF20460DF08EFE4E
S3152000D810054608B13A46D8E7009A4E44EB00013552
S3152000D82022FA03F3AA4506F8013BF7D1A6E72125FC
S3152000D830A5E700BF040000202DE9F04190460278BC
S3152000D8400C46022A8AB032D0032A35D0012A38D192
S3152000D85014271D4A00F10C05226000229E01C4E90E
S3152000D8600122E261314620460EF055FF0123204673
S3152000D87047F0005704A946F00056CDF804800293DD
S3152000D880039604950593069707950893099708F03C
S3152000D8905BFA204601A908F057FA204607A908F0A6
S3152000D8A05DFA20460DF042FE0AB0BDE8F081202741
S3152000D8B0064A00F10C05CFE72027054A00F10C05A2
S3152000D8C0CAE72120F0E700BF00020103000301039D
S3152000D8D00004010310B591B188B10023C0E90133DA
S3152000D8E0084B00F10C0203F1200153F8044B8B4244
S3152000D8F042F8044BF9D101230370002010BD2120EA
S3152000D900FCE700BFECD5012010B591B188B100230A
S3152000D910C0E90133084B00F10C0203F1200153F852
S3152000D920044B8B4242F8044BF9D1022303700020AA
S3152000D93010BD2120FCE700BFA7D5012010B591B16D
S3152000D94088B10023C0E90133084B00F10C0203F132
S3152000D950200153F8044B8B4242F8044BF9D10323A0
S3152000D9600370002010BD2120FCE700BFC8D5012090
S3152000D9702DE9F04F0D46914604468BB000285ED027
S3152000D98000295CD0002A5AD00278022A0CD0032A19
S3152000D9904DD0012A53D114262B4900F10C0B00F14E
S3152000D9A004082C34374607E020261C27274900F197
S3152000D9B00C0B00F104082C349F4240D8D8F80420E0
S3152000D9C0002A3ED1D8F80030284603F03F0AC5E9A0
S3152000D9D00012AA60EA6151460EF09DFE2846D8F84C
S3152000D9E000100EF098FE01224AF00053284601A9A5
S3152000D9F046F0005647F00057CDF804B00292039641
S3152000DA00049405920693CDF81C900892099708F085
S3152000DA109BF9284604A908F097F9284607A908F093
S3152000DA209DF928460DF082FD0BB0BDE8F08F20262B
S3152000DA30074900F10C0B00F104082C34B2E7212031
S3152000DA40F2E70F20F0E700BF000203030003030301
S3152000DA50000403032DE9F04387B00D4691461E4688
S3152000DA600446DDF83880002836D0B8F1000F33D0D0
S3152000DA7002B98BBB6B1EDBB2022B2DD8174AD75CA3
S3152000DA800F9B9F4228D80023280200F1407000F502
S3152000DA9080703146C4E901332060E36120460EF0F0
S3152000DAA03AFE01236946204646F0005647F00057C5
S3152000DAB0CDF8009001930296CDF80C80049305973B
S3152000DAC008F042F9204603A908F048F920460DF04F
S3152000DAD02DFD07B0BDE8F0832120FAE7E9D5012026
S3152000DAE0F0B50F4616461D46044693B010B92120C0
S3152000DAF013B0F0BD0029FAD0002AF8D0002BF6D0BA
S3152000DB00002331461A46384607F0B6FF0028EFD1E3
S3152000DB10304602A907F05DFF0028E9D1386834496C
S3152000DB20029A88426B695ED19342E0D32B68002B20
S3152000DB30DDD14FF060623846C4E90023A360E3617B
S3152000DB4001A907F0F4FF0028D2D10199204621F43B
S3152000DB50F06101910EF0DFFD6946284607F0E7FFE8
S3152000DB600028C5D1204600990EF0D5FD384609A9D2
S3152000DB7008F08BF80028BBD1204609A908F0E4F864
S3152000DB8038460CA908F08CF80028B1D120460CA9FB
S3152000DB9008F0DAF8EB684BB1284606A908F075F8C4
S3152000DBA00028A5D1204606A908F0CEF8304603A9BC
S3152000DBB008F076F800289BD1204603A908F0C4F87F
S3152000DBC028460FA908F06CF8002891D120460FA905
S3152000DBD008F0C4F8032520460DF0A8FC012887D1BB
S3152000DBE0013DF8D184E7B3EB420F9FD27FE700BF18
S3152000DBF0200000B070B50E46154604468AB00028AF
S3152000DC005CD000295AD0002A58D0012329461A462A
S3152000DC10304607F031FF00284ED1B36813F4C04FC9
S3152000DC204CD0AB6803F4C043B3F5005F46D1254B17
S3152000DC30A060C4E90030E06107A9304607F077FF0D
S3152000DC40002839D1204607990EF065FD012302935D
S3152000DC504FF00053204601A9039308F075F830468B
S3152000DC6004A908F01DF838BB204604A908F06CF872
S3152000DC70EB681BBBAB6803F4C043B3F5005F1DD153
S3152000DC806946284607F0C8FEB0B9009B6A699A42E1
S3152000DC9016D32A6943F0005307920122204607A98A
S3152000DCA008920325099308F059F820460DF03EFC0A
S3152000DCB0012801D1013DF8D10AB070BD2120FBE732
S3152000DCC01D20F9E7000001022DE9F04391B00D4631
S3152000DCD0DDE918760446DDF8688000286ED0002934
S3152000DCE06CD0B8F1000F69D00FB9002E66D1296823
S3152000DCF001F07041B1F1404F5BD0002B5BD1531E38
S3152000DD00022B5BD8120202F1C06202F58072002358
S3152000DD102846C4E901332260E3610DA907F007FF15
S3152000DD20002843D120460D990EF0F5FC31462046B9
S3152000DD300EF0F1FC284601A907F0A7FF002835D1EF
S3152000DD40204601A908F000F8284604A907F0A8FFF4
S3152000DD5060BB4FF00109204604A907F0F5FF46F005
S3152000DD600056204607A90797CDF82090099607F078
S3152000DD70EBFF2B680A9703F07043B3F1404FCDF8C1
S3152000DD802C900C9603D120460AA907F0DDFF01232B
S3152000DD90CDF834800E931B9B204643F000530DA9EB
S3152000DDA00F9307F0DBFF20460DF0C0FB11B0BDE856
S3152000DDB0F083034AABE74FF0C062A8E72120F5E7DE
S3152000DDC0000002062DE9F0418CB00D46DDE91286F1
S3152000DDD00446149F002869D0002967D0B8F1000FA7
S3152000DDE001D1002E62D1002F60D0A96889045DD5AB
S3152000DDF0296801F07041B1F1404F4DD0002B4DD133
S3152000DE00531E022B52D82A4B03EB0222002328460C
S3152000DE10C4E901332260E36109A907F088FE0028DE
S3152000DE2037D1204609990EF076FC314620460EF071
S3152000DE3072FC6946284607F028FF50BB69462046F3
S3152000DE4007F082FF284603A907F02AFF08BB2046D1
S3152000DE5003A907F079FF012346F00056CDF8188074
S3152000DE600793089609970A93159B43F000530B9343
S3152000DE702B6803F07043B3F1404F11D109A9204616
S3152000DE8007F062FF06A9204607F05EFF20460DF048
S3152000DE904DFB0CB0BDE8F081064AB7E7064AB5E768
S3152000DEA006A9204607F050FF09A9ECE72120F0E754
S3152000DEB000010106000003060000010610F1860F8E
S3152000DEC01BD010F1850F08DA10F1930F18D010F13E
S3152000DED0870F07D04FF0FF307047003818BF01205A
S3152000DEE040427047094B99420DD0043399420CBFEA
S3152000DEF06FF073006FF06D0070476FF07100704720
S3152000DF006FF06F0070476FF07200704705000002D7
S3152000DF10012910B50CDC084C084B00290CBF214602
S3152000DF20194600F021FD2146BDE81040FFF7C6BF87
S3152000DF306FF0730010BD00BF090000020800000248
S3152000DF4008B508F0BDFABDE808400149FFF7B6BF9D
S3152000DF5009000002002307B52022019301AB08F037
S3152000DF60CBFA034903B05DF804EBFFF7A7BF00BF68
S3152000DF700900000210B5044C214600F0F5FC2146AC
S3152000DF80BDE81040FFF79ABF0500000208B508F06B
S3152000DF9097FABDE808400149FFF790BF0500000247
S3152000DFA0002307B51422019301AB08F0A5FA034913
S3152000DFB003B05DF804EBFFF781BF00BF0500000248
S3152000DFC038B5134DFFF758FB124B134A1349144823
S3152000DFD004F00AF92B7803F0FF04BBB90DF008FB17
S3152000DFE0012802D90DF038FB04462B782BB90D4BAE
S3152000DFF00D481B68984701232B700DF0F9FA01286C
S3152000E00004D92046BDE838400DF048BB38BD00BFD6
S3152000E010E12900209F5D0120815D0120B95D01205D
S3152000E020C35D0120882D002068200020012300F0F8
S3152000E0301F02A0F506200949A0F55060400993402B
S3152000E04051F820201A4341F82020054951F8202074
S3152000E05022EA030241F82020704700BF6C120020FC
S3152000E060581200200121A0F506230E4AA3F550637D
S3152000E0705B0900F01F00814052F82300014342F85B
S3152000E08023100949D1E90030034488680344C8684D
S3152000E090096903445B1802BFC2E90033C2E90233AF
S3152000E0A013617047581200206C1200202DE9F04FA2
S3152000E0B0A9B003921D4604460822339ECDE90401E9
S3152000E0C0414021FA02F34B40980702F1080218BF9B
S3152000E0D09B00202A1C44F4D18123B4FBF3F303EBE9
S3152000E0E0C313E41A734B04F506241B7804F5506415
S3152000E0F0002B3ED105F098FC074620B16FF0910029
S3152000E10029B0BDE8F08F0146402208A80CF0A2FEF7
S3152000E1104022394618A80CF09DFEDFF8B081DFF8C2
S3152000E120B091C3460BF10F0ACDF800A0102208A922
S3152000E1305B46D9F8000007F0AAF90022014608F14B
S3152000E140100808AF914246D1CDF800A05B461022B8
S3152000E150D9F8000018A907F0A3F94FF0000A834662
S3152000E16018AFD34541D1544B9845DAD10122514BB2
S3152000E1701A704FF0810A4FF00008DFF858B1A4F565
S3152000E1800627A7F550635B095BF8232004F01F01DF
S3152000E190CA40D2073DD4494A52F82330CB40DB0748
S3152000E1A02AD5B8F1000F08BFA0468123A7F6FF475E
S3152000E1B0B7FBF3F303EBC313FF1A07F50624BAF1F3
S3152000E1C0010A04F55064DAD1039BBBB1B8F1000F04
S3152000E1D014D0444619E057F8040BCDE90612FFF790
S3152000E1E025FF079A06990132ACE757F8040BFFF78B
S3152000E1F039FF0AF1010AB4E7039B13B96FF08B00CC
S3152000E2007EE7B8F1000F18BF4446349B00201C60FF
S3152000E21076E7329B13B10023329A13600EB10023A6
S3152000E22033601023DFF8A89000932A460023214666
S3152000E230D9F80000FEF7D0F960BB32992A68204B46
S3152000E240C9B99A4206D02146D9F80000FEF746FA07
S3152000E2500028D3D1D5E90223DDE90410834208BF83
S3152000E2608A42A2D1039B002BCFD06B68012BCCD145
S3152000E2706FF0840044E7102032999A420860E2D178
S3152000E280002EE7D033462146D9F8000018AAFEF71B
S3152000E290E9F940B10B4B9842D5D06328D3D00A4B2D
S3152000E2A09842D7D02AE7329A336812689B1A33608D
S3152000E2B0D0E700BFE2290020007108005812002094
S3152000E2C0105D175EFFDF00F0FEDF00F0006D080036
S3152000E2D0502E00206C12002070B5124D2B7803F0C2
S3152000E2E0FF04CBB90DF084F9012802D90DF0B4F959
S3152000E2F004462B784BB90C48436D43F00103436524
S3152000E3000A4B1B68984701232B700DF071F90128E1
S3152000E31002D920460DF0C2F9BDE87040044B0248F0
S3152000E3201B681847E329002080120020882D002032
S3152000E330802D0020034B1B781BB1034B03481B6821
S3152000E34018477047E32900207C2D002080120020EA
S3152000E3502DE9F04F87B08246894698461646DDF865
S3152000E36040B02AB1002B53D040F26C739A4252D857
S3152000E370BBF1010F52D8002406F1100739460120BF
S3152000E380059408F0A0F9054600284AD021463A46C9
S3152000E3900CF060FDFFF7A0FF05ABCDE9014300942B
S3152000E3A02B46012250464946FFF780FE044690B18F
S3152000E3B010F18C0F08BF6FF08D043A4600212846D5
S3152000E3C00CF048FD284608F060F9FFF7B3FF204619
S3152000E3D007B0BDE8F08F144BC5E902A92B60C5F83C
S3152000E3E004B02EB13246414605F110000CF067FD0F
S3152000E3F0059E0E483B462A4631460068FEF768F8D9
S3152000E40018B93046FFF712FED7E76FF09104D4E72C
S3152000E4106FF08604DBE76FF09104D8E76FF0850490
S3152000E420D5E76FF08C04D2E7105D175E502E0020E2
S3152000E4302DE9F0478CB08146DDE914780C46164666
S3152000E4401D466BB1B8F1000F49D0002F47D0B7F168
S3152000E450005F44D3C3F1005303F500339F423ED8F7
S3152000E4604FF0000A1022002108A80CF0F3FCCDE999
S3152000E47005AAFFF731FF07AB029305AB019306AB65
S3152000E480214600935246484608ABFFF70FFE044646
S3152000E490D0B9059B3DB1B3421CD853EA060504D03A
S3152000E4A06FF0860410E0B342FAD3069B0D48C8F8F5
S3152000E4B0005000953A46079900683344FEF78CF8D9
S3152000E4C0002818BF6FF09104FFF734FF20460CB0E8
S3152000E4D0BDE8F0879B1B9D4228BF1D46E5E76FF0F0
S3152000E4E08604F3E7502E002070B500260C4605461C
S3152000E4F08CB01022002108A80CF0ACFCCDE90566F2
S3152000E500FFF7EAFE07AB029305AB019306AB214664
S3152000E51000933246284608ABFFF7C8FD0446D8B913
S3152000E520099B012B1DD0079D114B29461868FEF724
S3152000E530D5F8C8B90122A5F506230E49A3F55063DF
S3152000E5405B0905F01F00824051F82300424028460F
S3152000E55041F82320FFF786FDFFF7ECFE20460CB09E
S3152000E56070BD6FF08404F7E76FF09104F4E700BF05
S3152000E570502E00206C120020F8B5134642880C4617
S3152000E5800732072A4FEAD20101D0A1424DD1D0E964
S3152000E590016705882022184600210CF05BFC360A0C
S3152000E5A00346002E44D1002C3FD041F20102954271
S3152000E5B005D0B5F5885F02D0B5F5905F02D15C60D5
S3152000E5C0002011E0B5F5105F07D1182C03D0202CC0
S3152000E5D001D0102C29D11C60F1E705F44F42B2F589
S3152000E5E0824F02D06FF08500F8BDEAB2122AF9D127
S3152000E5F0202CF7D1104A25F0FF05B5F5E24F026031
S3152000E6000CD0B5F5824F10D14FF4005217F4705F3D
S3152000E61009D017F4864F04D09A60E3E74FF480427E
S3152000E620F4E742F480629A60CAE76FF08600DBE77F
S3152000E6306FF08B00D8E700BF200000802DE9F04F57
S3152000E64099460388164603F44F42B3B0B2F5824F7B
S3152000E6500F46DDF8F88002D06FF0850002E021B980
S3152000E6606FF0860033B0BDE8F08F002EF8D0B8F1F9
S3152000E670000FF5D0DAB2122AEED123F0FF03B3F55C
S3152000E680E24F33D14388C8F8003053BBF300C8F8B3
S3152000E6900030B3F5807FDFD1002318464E49BC19E0
S3152000E6A0314411F8015D14F8012D1043521B0CBFA3
S3152000E6B04FF0FF350025A74203EA050343EA02038C
S3152000E6C0EFD10028CCD0002BCADA3C9B9E427FD8C3
S3152000E6D03246394648460CF0F2FB3D9B00201E6030
S3152000E6E0C0E7DA1DB6EBD20FD3D0B9E7B3F5824F28
S3152000E6F06BD10B78042BB3D12422002119A80CF05E
S3152000E700A9FB19A807F000F9824600285AD101462C
S3152000E7103C22229023A80CF09DFB01234FF0400BB6
S3152000E72020225146741E01A88DF888300CF092FBE9
S3152000E7307B1C20225146069409A8E400059322ADAD
S3152000E7400CF088FB64082022514611A80D95CDF8BF
S3152000E75038B00CF07FFBB4F5C07FCDE9155BC8F867
S3152000E76000403FF479AF28D8E02C03D0B4F5807F61
S3152000E7707FF476AF194B0734019309934FF4005376
S3152000E78003934FF48043E4080B9301AA11AB640072
S3152000E79009A919A81294FFF7A3F9D8F8003007336E
S3152000E7A0DB085A0033B10021531E013B297005F1C5
S3152000E7B00105FAD2002888D052E7B4F5047F3FF449
S3152000E7C04BAF4DE76FF092004CE76FF0960049E7AC
S3152000E7D06FF0890046E700BF0CD60120200000809C
S3152000E7E0038810B503F44F42B2F5824F21F0FF02A1
S3152000E7F021F4FF71134C21F0010109D0A1421AD056
S3152000E800114B9A4214BF6FF085006FF0860010BD41
S3152000E810A142DBB20FD00C498A420CD0122B0DD16B
S3152000E8204388B3F5807F09D1B2F1062F0CBF0020B3
S3152000E8306FF08500EBE76FF08600E8E76FF0850064
S3152000E840E5E700BF0002000600130006154A20F483
S3152000E850FF7323F0010393420ED0134B20F0FF02E7
S3152000E8609A4209D0114920F47F7323F003038B4287
S3152000E87002D00F4B9A420FD110F0FF0011D00D4B52
S3152000E88040F00070984209D00133984208D0043BEA
S3152000E890C31A5842584170470020704702207047DB
S3152000E8A0032070470002000600130006000400063D
S3152000E8B000090006080000022DE9F0478CB0174633
S3152000E8C0DDE914A498460E4609B9002A46D1B8F1C6
S3152000E8D0000F10D1BAF1000F40D1002C3ED0214BB1
S3152000E8E0984218D00133984215D0043B984212D052
S3152000E8F06FF0850013E08CB31A4B984212D0013387
S3152000E900984213D0043B9842F2D114234FF00109C8
S3152000E9109A4523600ED200236FF0890023600CB045
S3152000E920BDE8F0871C234FF00209F1E720234FF0C2
S3152000E9300309EDE703A806F0E7FF054610B16FF0DF
S3152000E9409200ECE73B4632464946CDE9008A03A8C9
S3152000E950FFF780F80028E2D02560F0E76FF0860008
S3152000E960DDE700BF0800000230B50D4604468BB037
S3152000E97030B3031D6C22002118460CF06BFA134AA3
S3152000E980954211D00132954214D0043A95421AD1BB
S3152000E990012201A92270FEF79DFF002814BF6FF007
S3152000E9A0920000200BB030BD022201A92270FEF792
S3152000E9B0ABFFF2E7032201A92270FEF7BFFFECE7C7
S3152000E9C06FF08600EEE76FF08500EBE708000002A7
S3152000E9D007B5094B18689A889B7900906846ADF868
S3152000E9E004208DF80630FEF793FD0C20FEF7C8FDB7
S3152000E9F0002003B05DF804FB2CD6012013B50024BB
S3152000EA00064A6846536F43F00103536700948DF816
S3152000EA100440FEF7C5FC204602B010BD0040005061
S3152000EA200028ACBF00F16040064B4FEA0111C9B285
S3152000EA30ABBF00F5614000F00F0080F800131954B9
S3152000EA40704700BF14ED00E008B50DF049FE0A4BF3
S3152000EA501A786AB901221A700DF03DFE6FF0040291
S3152000EA60104605210132FFF7DBFF4C2AF8D108BDFD
S3152000EA70BDE808400DF02FBEE4290020002807DB62
S3152000EA8001234109034A00F01F00834042F8213048
S3152000EA90704700BF00E100E0002808DB012243099F
S3152000EAA0034900F01F008240603341F8232070475D
S3152000EAB000E100E073B50DF00AFE0D4D0D4B2E78EA
S3152000EAC01C680DF0FFFD0DF0AAFE38B1FF2E05D013
S3152000EAD00020297801AA06F0C3F9019C2CB90DF073
S3152000EAE0F6FD054B1C680DF0EDFD204602B070BD0D
S3152000EAF0D12E0020E4120020E812002010B5044692
S3152000EB000DF0E5FD024B1C600DF0DCFD002010BD74
S3152000EB10E812002013B5002301241A461946184688
S3152000EB20009403F0D3FE002300941A461946184693
S3152000EB3003F0FEFE0248FFF7E1FF002002B010BD01
S3152000EB40642D002073B50024684600F0FBFA0C4BB8
S3152000EB5000981C600B4B0C4D1C600C4E0C4B30600F
S3152000EB6018602C6007F0DFFD2046019B3268013BD0
S3152000EB70DB0853802B6801332B6002B070BD00BFC9
S3152000EB80F0120020EC120020F4120020FC120020CB
S3152000EB90F81200202DE9F04F0E460027984689B03E
S3152000EBA0054606A81446059700F0CCFA731C14BF38
S3152000EBB0B3464FF0080BB8F1000F00F0BC80C8F840
S3152000EBC00070002D00F0B980079BAB4240F2B58063
S3152000EBD00DF086FD073505AB25F007053146009378
S3152000EBE081463B462246284600F0B6FA059E074651
S3152000EBF006B130B948460DF06EFD192009B0BDE8C2
S3152000EC00F08FDFF84CA17388DAF80010DA00C0EB39
S3152000EC10C3030139272BCAF8001074D9002C50D110
S3152000EC20854205F1080347D059463046029307F03E
S3152000EC30E6FC0446029B0590059A02EB030B584618
S3152000EC4007F071FD059905F10F034A88C3F3CF0339
S3152000EC50D21AABF80220CA88ABF8043072B3D31AA2
S3152000EC609BB201EBC202ABF8063093808B88ED088D
S3152000EC70A380BBF804300022314658466580E380E5
S3152000EC8000F0E2FA237843F001032370DAF800302B
S3152000EC900133CAF800302C4A4846136808343B44EE
S3152000ECA013602A4A11688B4288BF13600DF013FD4A
S3152000ECB00020C8F80040A1E73446BDE7ABF806209F
S3152000ECC0D4E7F41820460293039207F02CFD029B0A
S3152000ECD0F91DC90805986180D91DC908A180C18878
S3152000ECE079B1C900039ACD1DAA1A3A44C2F3CF02BC
S3152000ECF00144E2808A80013BDB084380A388C380ED
S3152000ED00C0E7E180F7E7012C19D106F10803B3FB30
S3152000ED10FBF20BFB1233A3B15946304607F06FFCCA
S3152000ED2004462378012243F001033146204623700E
S3152000ED3000F08AFAAFE7222060E721205EE78542CD
S3152000ED40EAD13446EDE700BFF0120020EC12002095
S3152000ED50F41200202DE9F3470446684600F0F2F944
S3152000ED60002C00F0AB800DF0BBFC14F8086CF30708
S3152000ED7004D534F806ECBEF1000F05D10DF0ABFC3E
S3152000ED80012002B0BDE8F0874D494E4D0A68D5F8FE
S3152000ED900080A2EBCE020A6034F8041C0EF10103B7
S3152000EDA008F10102A4F1080C9BB22A60B9B3ACEBBE
S3152000EDB0C10292F800A0B2F806901AF0010F578807
S3152000EDC006F002061FD1FEB9A9EB0701012926D8B4
S3152000EDD00EF102031F44BBB2C5F8008034F8026C62
S3152000EDE0FEB9013B9BB214F8081C6FF3000104F82E
S3152000EDF0081C002124F8061C53801378D18061F367
S3152000EE000003137031E056B119448BB214F8081C74
S3152000EE106FF3410104F8081C00219180DEE7624669
S3152000EE20DCE70CEBC608DDE900710F44B845D8D203
S3152000EE301CF83670414617F001072AD0013B9BB2D9
S3152000EE4014F8085C6FF3000504F8085C002524F824
S3152000EE50065C5380137865F300031370C2F1070331
S3152000EE600B44C3F3CF03D3808B8017490B681BB1A8
S3152000EE70934201D85B8803B90A6014490B681BB119
S3152000EE80934201D35B8803B90A600DF024FC00206D
S3152000EE9077E7A6EB0E06012ED0D8B8F80260A8F8C0
S3152000EEA002703344B8F806702E689BB2013E1FB13B
S3152000EEB008EBC7012E60C3E72E6094E7222060E7A7
S3152000EEC0F0120020F4120020FC120020F81200207C
S3152000EED02DE9F74F9146044668460D4600F032F973
S3152000EEE0B9F1000F00F024810023C9F80030019BFE
S3152000EEF0AB4240F21F8154B9002D00F01B814A46D7
S3152000EF002146284603B0BDE8F04F07F0B8BB2DB91F
S3152000EF10204603B0BDE8F04FFFF71CBF0DF0E0FB25
S3152000EF2034F8063C07354FEAC30825F00705A845FF
S3152000EF300746A4F1080080F0888034F8022C002AC5
S3152000EF4066D000EBC20A10F83220D20760D4BAF895
S3152000EF500210A8EB050616EBC10659D41F2E3DDD7F
S3152000EF60C5F3CF0304EB050B24F8063C013324F844
S3152000EF70023C584607F0D7FB34F8023CC6F3CF06CE
S3152000EF80ABF80430BAF80630ABF8026013B3BAF81F
S3152000EF9002209A1A1644B6B20AEBC303ABF80660EF
S3152000EFA09E8000225146584600F04EF9504607F002
S3152000EFB0BAFB614AC9F8004013682B44A3EB080347
S3152000EFC013605E4A11688B423DD838460DF083FBAC
S3152000EFD0002527E00023ABF80630E2E7584E0B4425
S3152000EFE032689BB2013A32605A1C24F8062CBAF8D1
S3152000EFF006204AB102339BB20AEBC20224F8023C35
S3152000F000938001225146CFE7002324F8023CF8E7FB
S3152000F01028464A46002107F032FB054630B13846DD
S3152000F0200DF059FB284603B0BDE8F08F4246214635
S3152000F030D9F800000BF043FF2046FFF78BFE05466C
S3152000F0400028C2D0EBE71360BFE76ED934F8023C44
S3152000F050A8EB0506002B3AD000EBC30A10F8333094
S3152000F060DB0735D4C5F3CF0304EB050B24F8063CA8
S3152000F070013324F8023C584607F055FBBAF8023013
S3152000F08034F8022C03EBD603ABF80420BAF806209A
S3152000F0909BB2ABF80230BAB101339BB20AEBC20283
S3152000F0A0ABF80630938058460022514600F0CCF843
S3152000F0B0504607F038FB204BC9F800401A68154423
S3152000F0C0A5EB08051D6080E7ABF80620EBE79A461E
S3152000F0D0272EF0D9C5F3CF0304EB050B24F8063C05
S3152000F0E0013324F8023C584607F01DFB013E34F854
S3152000F0F0023CC6F3CF06ABF80260ABF80430BAF197
S3152000F100000F0FD00136B6B2ABF80660AAF804603D
S3152000F1100B4A58461368013313600022114600F04B
S3152000F12093F8C8E7ABF806A0F2E7C9F800404CE729
S3152000F130222577E7212575E7F0120020EC12002022
S3152000F140F41200200249034A0160521A42607047B5
S3152000F150B838002000A00020F0B506460020059F04
S3152000F1604C1C08BF08213860BAB91F480568002D15
S3152000F17038D0B5F802E0DB0003EBCE0EC1F1000C6F
S3152000F1802878C0070BD52ABBE888B0B105EBC005A7
S3152000F190B5F802E003EBCE0EF2E71448E6E7B645F3
S3152000F1A0F1D35AB905F10804B4FBF1F001FB104480
S3152000F1B0A0190CB17045E7D83D60F0BD08290FD0E5
S3152000F1C06C88013405EBC404A01B00EA0C00201A4D
S3152000F1D08645F1D2A8880028EFD0A5EBC005D7E751
S3152000F1E03046E9E72846E8E7FC120020F81200201E
S3152000F1F0134B13B51B6804460846FBB121B9684674
S3152000F200FFF7A0FF6CB900980378D90707D55CB93A
S3152000F210C3889BB100EBC3000378DA07F8D402B0A9
S3152000F22010BD084B1868EFE7012C07D183882BB156
S3152000F230A0EBC3000378DB07F8D4F0E70020EEE765
S3152000F240F4120020F8120020F8B5154F05460C469A
S3152000F2503B68144EB2B1994209D041B13368994204
S3152000F26004D129460120FFF7C3FF3060F8BD2946A7
S3152000F2700020FFF7BDFF33683860A342F1D0002C91
S3152000F280EFD0F3E7994205D13D603368A34204D11C
S3152000F2903560EBE79842F7D3F7E7AB42F8D3E5E7DB
S3152000F2A0FC120020F8120020002307B50193054B1D
S3152000F2B01B680DF02AFB019B002BFCD003B05DF8E8
S3152000F2C004FB00BF702D002030B5074C256824684C
S3152000F2D06A40D2B2891A101A090A41EA10216340FB
S3152000F2E023EA0100C0B230BD9C1E0020044B1B68DF
S3152000F2F0584043085B4240421843C017704700BF3E
S3152000F3009C1E0020054B01311B680132434022EA36
S3152000F310030208400243501E00B270479C1E002084
S3152000F3202DE9F04F834699B00F4618460021164620
S3152000F330049307F064FE002800F08781002401254D
S3152000F340774B30461493049915ABCDE90B45CDE99F
S3152000F3500D45CDE90F45CDE91145139307F0D8FDAD
S3152000F360A04228DABBF1000F05D1E7B900242046D8
S3152000F37019B0BDE8F08F2146584607F03EFD0446F9
S3152000F3800028F2D00BA807F08DFC0DA807F08AFC08
S3152000F3900FA807F087FC11A807F084FC0C2115A8FC
S3152000F3A001F0B0FAE3E73146384607F0F1FC0446AF
S3152000F3B00028E7D1DAE731460BA807F0E9FC044636
S3152000F3C00028DFD104990DA807F0E2FC04460028A6
S3152000F3D0D8D1F1880FA80231ADF83850ADF83050A9
S3152000F3E007F06EFC04460028CCD101460FA807F092
S3152000F3F004FD04460028C5D1F18811A8023107F082
S3152000F4005FFC04460028BDD10DA807F035FD00F0AD
S3152000F4101F001F2873D0C0F11F0319460BA80193A4
S3152000F42007F050FD04460028ACD101990DA807F03D
S3152000F43049FD04460028A5D1BDF83250BDF83A80D2
S3152000F4400DA8A5EB080A4FEA4A19494607F03AFDE6
S3152000F4500446002896D14FEA8A0A0DA90BA807F080
S3152000F46086FD00284DDA49460DA807F048FD0446DA
S3152000F470002887D108F1FF3302939B0005F1FF3A5C
S3152000F480069305F1804508F18043023B013D9B0030
S3152000F490A5EB08050993AB000393029B9A4541D837
S3152000F4A0BBF1000F0DD058460FA907F071FC0028BC
S3152000F4B040F0C780049AB388928813FB02F3ABF816
S3152000F4C00430002F3FF45EAF01990BA807F017FD1B
S3152000F4D0002840F0B680B3880BA93846ADF8303006
S3152000F4E007F056FC0146002840F0AD80384607F06C
S3152000F4F086FD00287FF446AF0123BB8042E70194B6
