S01C00006275696C642F64656275672F67656E657261746F722E7333379C
S3152000A0000010002085B10020D7400120D740012034
S3152000A010D7400120D7400120D7400120D74001203A
S3152000A020D7400120D7400120D740012045B3012049
S3152000A030D740012070D20120E9B201200BC20120B5
S3152000A040D7400120D7400120D7400120D74001200A
S3152000A050D7400120D7400120D7400120D7400120FA
S3152000A060D7400120D7400120D7400120D7400120EA
S3152000A070D7400120D7400120D7400120D7400120DA
S3152000A080D7400120D7400120D7400120D7400120CA
S3152000A090D7400120D7400120D7400120D7400120BA
S3152000A0A0D7400120D7400120D7400120D7400120AA
S3152000A0B0D7400120D7400120D7400120D74001209A
S3152000A0C0D7400120D7400120D7400120D74001208A
S3152000A0D0D7400120D7400120D7400120D74001207A
S3152000A0E0D7400120D7400120D7400120D74001206A
S3152000A0F0D7400120D7400120D7400120D74001205A
S3152000A100D7400120D7400120D7400120D740012049
S3152000A110D7400120D7400120D7400120D740012039
S3152000A120D7400120D7400120D7400120D740012029
S3152000A130D7400120D7400120D7400120D740012019
S3152000A140D7400120D7400120D7400120D740012009
S3152000A150D7400120D7400120D7400120D7400120F9
S3152000A160D7400120D7400120D7400120D7400120E9
S3152000A170D7400120D7400120D7400120D7400120D9
S3152000A180D7400120E9D60020D7400120D740012022
S3152000A190D7400120D7400120D7400120D7400120B9
S3152000A1A0D7400120D7400120D7400120D7400120A9
S3092000A1B0D74001204D
S3152000A1B4F0B5114A114C124E00F00105E3695F0710
S3152000A1C413D40DB9334213D103EA00078F4207D1C2
S3152000A1D40B4A1A40002A0CBF00206FF00100F0BD84
S3152000A1E4013AEBD16FF00200F9E74FF0FF30F6E7C2
S3152000A1F46FF00100F3E700BF80969800000003503B
S3152000A204020001000B4B70B5D96911F480310DD1D0
S3152000A21401244FF48072084E084DF46020462C64C5
S3152000A2241A61FFF7C5FF3464EC6070BD6FF001005E
S3152000A234FBE700BF0000035000100350002003502A
S3152000A2444FF4803238B50E4B0E4C9A66E56941F6CA
S3152000A254713315400122E3630B4B0021DA6002239C
S3152000A264606121202361FFF7A3FF10B92120FFF7A6
S3152000A2749FFF0122054BDA600DB10023E36338BD4D
S3152000A284009000500000035000100350002003509B
S3152000A29470B5134C6061E3695B071ED40E4656F80D
S3152000A2A4043B8D18A361AE420BD104230021212047
S3152000A2B42361FFF77DFF58B9BDE870402120FFF7E1
S3152000A2C477BF08210846FFF773FF10B104232361E3
S3152000A2D470BD56F8043BA361E5E74FF0FF30F7E77E
S3152000A2E4000003502DE9F84315464FF48032184BED
S3152000A2F489469A6603F51C33DF690646174041F6FC
S3152000A3047132DA63012203F58053DFF84C80DA6078
S3152000A31455B9284601220F4BDA601FB10022A3F556
S3152000A3240053DA63BDE8F88306F5005404EA08040A
S3152000A334A41BAC4228BF2C46494622463046FFF78A
S3152000A344A7FF0028E6D12644A1442D1BE0E700BF41
S3112000A354009000500020035000E0FFFFA6
S3152000A3600348044B834202D0034B03B1184770477E
S3152000A370EC380020EC38002000000000064B07498E
S3152000A380C91A891048BF0131491003D0044B0BB1BB
S3152000A39001481847704700BFEC380020EC380020F1
S3152000A3A00000000010B5064C237843B9FFF7D8FF0C
S3152000A3B0044B13B10448AFF300800123237010BD72
S3152000A3C0F02900200000000034E6012008B5054BE6
S3152000A3D01BB105490548AFF30080BDE80840FFF7EB
S3152000A3E0CDBF00BF000000006810002034E6012029
S3152000A3F0A3F5803A704700BF174B002B08BF134BBD
S3152000A4009D46FFF7F5FF00218B460F461348144A59
S3152000A410121A10F04EFC0E4B002B00D098470D4B15
S3152000A420002B00D098470020002104000D000D4885
S3152000A430002802D00C48AFF3008008F0B7FE2000B9
S3152000A440290010F04AF908F01BFE00BF00000800A2
S3152000A4500000000000000000001000200010002076
S3152000A460BC2B00200000000000000000012903BFD3
S3152000A470034B00201B78A62008BF1370704700BF2F
S3152000A480112A0020022938B514461D460FD1202254
S3152000A4900021084810F00DFC3CB1202D2A4621460B
S3152000A4A028BF2022034810F0E8FA002038BDA62055
S3152000A4B0FCE700BFF1290020104608B56AB163B158
S3152000A4C002290CD1202B28BF20231A46029B05499E
S3152000A4D01A6010F0D2FA002008BD2F20FCE7A62033
S3152000A4E0FAE700BFF1290020012905D102B112782F
S3152000A4F0024B00201A707047A6207047112A0020B0
S3152000A5002DE9F0431D46002389B0074608460E462E
S3152000A5101446CDE9053300F06BFC18B9D82009B0F4
S3152000A520BDE8F083304605A900F0CCFC0028F6D122
S3152000A530204600F05DFC0028F0D0204606A900F059
S3152000A540C1FC0028EBD1DDE90596079007A918483C
S3152000A55000F0B8FC044600BB079919EB01081ED190
S3152000A5600EB110F097FA022009F023FDA0B1079B47
S3152000A570022100931F203B46CDE901960D4A09F0A2
S3152000A5800BFD6B689E4210D832464146286810F073
S3152000A59076FB6B689E42E4D86E602046BFE70220B9
S3152000A5A009F007FD0028ECD0E1E71924F5E700BF04
S3152000A5B02172080070CF0120014800F091BD00BF34
S3152000A5C000720800002307B50348019301AB00F091
S3152000A5D0A1FC03B05DF804FB00720800014800F0FE
S3152000A5E051BD00BF0C72080010B506480C4600F09D
S3152000A5F03DFC40F20123984202BF4FF6F173002042
S3152000A600238010BD0C720800014800F069BD00BF10
S3152000A6100D720800002307B50348019301AB00F033
S3152000A62079FC03B05DF804FB0D720800014800F0C8
S3152000A63029BD00BF0B72080010B506480C4600F075
S3152000A64015FC40F20123984202BF48F20103002084
S3152000A650238010BD0B720800014800F041BD00BFE9
S3152000A6600E720800002307B50348019301AB00F0E2
S3152000A67051FC03B05DF804FB0E720800014800F09F
S3152000A6802FBD00BF10720800002307B503480193B1
S3152000A69001AB00F03FFC03B05DF804FB107208002C
S3152000A6A0014800F01DBD00BF11720800002307B548
S3152000A6B00348019301AB00F02DFC03B05DF804FBC9
S3152000A6C011720800014800F00BBD00BF127208008D
S3152000A6D0002307B50348019301AB00F01BFC03B030
S3152000A6E05DF804FB12720800014800F0CBBC00BFE5
S3152000A6F01872080010B505480C4600F0B7FB40F26A
S3152000A7000123984204BF0020208010BD1872080043
S3152000A710014800F0E5BC00BF0F72080073B50026A3
S3152000A72001AB0E480C461546019600F0F3FB40F2AD
S3152000A730012398420BD164B10C2D0CD920462A4610
S3152000A740074910F0C0F930462C4404F8016C02B0D9
S3152000A75070BD0B20FBE71920F9E700BF0F72080038
S3152000A7608ECF0120014800F0BBBC00BF0472080058
S3152000A770014800F0CFBB00BF04720800014800F07A
S3152000A780C9BC00BF1F72080007B50020009003480F
S3152000A79000F016FC03B05DF804FB00BF1F72080032
S3152000A7A0014800F06FBC00BF0772080037B5124899
S3152000A7B00D4600F05BFB40F201239842044604D18B
S3152000A7C04FF470632B80002014E098B92B88B3F5E2
S3152000A7D0805FF8D3012009F0ECFB50B14FF4C2732F
S3152000A7E02F220121CDE900322046044B044A09F0EC
S3152000A7F0D3FB2F2003B030BD077208009BCF01206A
S3152000A800BBCF0120014800F055BC00BF08720800EC
S3152000A81010B506480C4600F055FB40F2012398423D
S3152000A82002BF4FF47A730020236010BD087208001F
S3152000A830014800F055BC00BF09720800014800F02D
S3152000A84069BB00BF09720800014800F049BC00BF7F
S3152000A8500A720800014800F05DBB00BF0A720800BA
S3152000A8600B46024A02490348FFF74ABE27720800F0
S3152000A87026720800CCCF01200B46024A0249034823
S3152000A880FFF73EBE2572080024720800E8CF01209B
S3152000A8900B46024A02490348FFF732BE23720800DC
S3152000A8A0227208000ED00120022307B5D1E900123A
S3152000A8B001A8019307F0F0F918B90199024800F0B0
S3152000A8C0F9FB03B05DF804FB207208001FB50220D7
S3152000A8D003900698009003A807F0F6F918B9039993
S3152000A8E0024800F0E7FB05B05DF804FB2072080083
S3152000A8F0002370B5154886B00D461646049300F021
S3152000A90077FA08B3114804A900F0DCFAD0B9049B01
S3152000A9103246002B08BF0223294605A8059307F0D7
S3152000A9203BFA0446022009F044FB50B102947368B6
S3152000A930022101936B681F200093054A049B09F0AE
S3152000A9402BFB204606B070BDD824EBE7207208000A
S3152000A95027D00120014800F0ADBB00BF21720800BE
S3152000A960014800F0AFBA00BF21720800014800F08C
S3152000A970B7BB00BF29720800014800F0CBBA00BF60
S3152000A98029720800014800F0C5BB00BF0572080007
S3152000A99007B500200090034800F012FB03B05DF8D5
S3152000A9A004FB00BF05720800014800F053BB00BF3E
S3152000A9B028720800014800F02DBA00BF287208004E
S3152000A9C0032307B5D1E9001201A8019300F084F909
S3152000A9D018B90199024800F06DFB03B05DF804FB3D
S3152000A9E030720800014800F06DBA00BF30720800CE
S3152000A9F04A6808B5102A01D02F2008BD09680248E8
S3152000AA0000F088FBF9E700BF177208001FB5002386
S3152000AA104A680C460F2A03930FD90093102203ABE2
S3152000AA200968074800F0CCFA63680F2B01D810F0AC
S3152000AA3031F81023636004B010BD1920FBE700BF76
S3152000AA401772080000200A4B10B5186032B9094C5D
S3152000AA502146BDE81040084800F02CBBA1F5005166
S3152000AA608C18064809F0F4FA204608F00DF9EFE7AD
S3152000AA708010002000E03108217208009410002088
S3152000AA8000232DE9F04F85B080460F462C4803A9B8
S3152000AA901546039300F016FA002838D1294E03995B
S3152000AAA033681BB9284809F0B6FA80BBD5E90014EB
S3152000AAB03368039A02EB030B14F003031BD10A46F7
S3152000AAC023465946204809F0ACFA00BB4046316877
S3152000AAD000F0F0FAD8B93846696800F0EBFAB0B958
S3152000AAE032686B680020134413F03F021CBF4033CA
S3152000AAF09B1A33600BE004F1040AAAEB030A5046C2
S3152000AB00019100F0C9F80199814618B9AC2005B029
S3152000AB10BDE8F08F22460FF0B0FFAAEB0402FF211A
S3152000AB2009EB040010F0C5F853464A465946064834
S3152000AB3009F077FA0446484600F0BEF82046C4E7F6
S3152000AB4021720800801000209410002008B50A46C3
S3152000AB5002480349FFF794FF08BD00BF2272080090
S3152000AB602372080008B50A4602480349FFF788FF02
S3152000AB7008BD00BF247208002572080008B50A46E1
S3152000AB8002480349FFF77CFF08BD00BF2672080074
S3152000AB90277208001FB513460022039203AA0192CA
S3152000ABA0202200920A46014604480DF0A0FF002804
S3152000ABB014BFAC20002005B05DF804FB090000029C
S3152000ABC0014B09F03AB900BF5F3D012030B4084B74
S3152000ABD0D3E8EF2F541CC3E8E54F002DF8D1002A07
S3152000ABE002DC30BC00F03CB8002030BC704700BF0F
S3152000ABF0841000202D2828BF002010B4074C04EB19
S3152000AC008000074CD4E8AF4F1CB1A4465DF8044B36
S3152000AC1060475DF8044B09F0D7B900BF72D0012018
S3152000AC2088100020024BD3E88F0FC0B2704700BFB8
S3152000AC30082F0020024608B5064BD3E8AF3F3BB9A4
S3152000AC40054B06491B68D86808F042FE0FF022FF24
S3152000AC5008BD00BF8C100020AC2E002026D101207C
S3152000AC6008B50A4BD3E8EF2F511CC3E8E01F002894
S3152000AC70F8D1002A07DD064B06481B68D96808F07C
S3152000AC8039FE0FF007FF002008BD00BF8C10002002
S3152000AC90AC2E00206ED1012038B504460548FFF7BA
S3152000ACA0C9FF204608F052FD0546214609F08AF9DB
S3152000ACB0284638BDA1D1012010B504460548FFF726
S3152000ACC0B9FF2046002109F07EF92046BDE8104054
S3152000ACD008F044BDADD1012070B5044688B00068A7
S3152000ACE00D46164609F071F923684FF40071079353
S3152000ACF001230B4A02A8CDE902230A4B3246CDE9AD
S3152000AD00041300232946069301AB0DF07DFE014670
S3152000AD1018B1054808F06EFAAC2008B070BD00BF27
S3152000AD20002480000010C004B8D10120014B196016
S3152000AD30704700BF90100020014B1960704700BF7C
S3152000AD4090100020014B0360704700BF28D20120DD
S3152000AD5010B50446034B082103600BF03CFB20464C
S3152000AD6010BD00BF28D201200448054B054A0360C8
S3152000AD700023054943600FF0DABC00BF9410002081
S3152000AD8028D20120682D002045AD002037B50E4D74
S3152000AD902C686CB9032322462146009301200B4BD5
S3152000ADA011F0A8FF234622462146286011F0E9FC2F
S3152000ADB0286808B90FF06EFE4FF0FF3103B0BDE8EA
S3152000ADC0304011F032BE00BFEC1000209C10002055
S3152000ADD0064B10B5186808B90FF05CFE0023BDE8D5
S3152000ADE010401A46194611F0CCBC00BFEC100020CA
S3152000ADF007B5014606486A4601AB006801F066FBC6
S3152000AE0009F034F9B0FA80F0400903B05DF804FB8C
S3152000AE10882E00207FB5002304460D468DF8073086
S3152000AE2009F030F9D0B1104E2146306803AB02AAA2
S3152000AE3001F04CFB09F01AF970B9039B012B10D1D4
S3152000AE40214630680DF1070201F0BAFA09F00EF931
S3152000AE5010B99DF807302B7004B070BD40F2012068
S3152000AE60FAE72F20F8E700BF882E00207FB50023C1
S3152000AE7004460D46ADF8063009F004F9D0B1104E5F
S3152000AE802146306803AB02AA01F020FB09F0EEF858
S3152000AE9070B9039B022B10D1214630680DF10602B2
S3152000AEA001F08EFA09F0E2F810B9BDF806302B80D1
S3152000AEB004B070BD40F20120FAE72F20F8E700BF6A
S3152000AEC0882E00207FB5002304460D46039309F003
S3152000AED0D9F8C0B10E4E2146306802AB01AA01F066
S3152000AEE0F5FA09F0C3F860B9029B042B0ED121466E
S3152000AEF0306803AA01F064FA09F0B8F808B9039B90
S3152000AF002B6004B070BD40F20120FAE72F20F8E74D
S3152000AF10882E00202DE9F0431D46002385B02B60A6
S3152000AF2007460E46914609F0ADF800283ED0DFF8D8
S3152000AF308C803946D8F8000003AB02AA01F0C6FA85
S3152000AF4009F094F80446B8B9039B93B3C6B14B45B0
S3152000AF5031D232463946D8F8000001F031FA09F0EC
S3152000AF6085F8D8B9039B012B03D13378003B18BF52
S3152000AF70012300222B60F254204605B0BDE8F08361
S3152000AF80012B01D02B60F7E73946D8F800000DF1E8
S3152000AF90070201F015FA09F069F808B10446EBE753
S3152000AFA09DF8073003B103982860E5E740F20124B5
S3152000AFB0E2E71E24E0E71924DEE700BF882E002002
S3152000AFC02DE9F04F1D46002385B02B6007468846A5
S3152000AFD01646DDF838A009F055F8A0B3DFF870B0B2
S3152000AFE03946DBF8000003AB02AA01F06FFA09F03C
S3152000AFF03DF80446A8B9B8F1000F12D0039BDBF840
S3152000B0000000A3EB0A09B1450FD8534642463946FC
S3152000B010CDF8009001F014FA09F028F8B0B9C5F877
S3152000B0200090204605B0BDE8F08F5346424639468B
S3152000B030009601F005FA09F019F804460028F0D127
S3152000B04019242E60EDE740F20124EAE70446E8E7FA
S3152000B050882E002013B504468DF8071009F012F843
S3152000B06058B107480123214600680DF1070201F077
S3152000B070FBFA08F0FBFF02B010BD2F20FBE700BF54
S3152000B080882E002013B50446ADF8061008F0FAFF06
S3152000B09058B107480223214600680DF1060201F047
S3152000B0A0E3FA08F0E3FF02B010BD2F20FBE700BF54
S3152000B0B0882E002013B50446019108F0E3FF58B10D
S3152000B0C004230648214600680DEB030201F0CCFA62
S3152000B0D008F0CCFF02B010BD2F20FBE7882E002001
S3152000B0E010B5044608F0CEFF68B179B10848012AA8
S3152000B0F01346006838BF01230A46214601F0B4FAF8
S3152000B10008F0B4FF10BD40F20120FBE72F20F9E73D
S3152000B110882E002010B5044608F0B4FF58B101B9B6
S3152000B12062B90748134600680A46214601F09CFA90
S3152000B13008F09CFF10BD40F20120FBE72F20F9E725
S3152000B140882E0020BFF34F8F0549064BCA6802F4AC
S3152000B150E0621343CB60BFF34F8F00BFFDE700BF14
S3152000B16000ED00E00400FA050348044A0449121AD7
S3152000B170921008F0B1BF00BFB4A1002060A3002048
S3152000B180BC2B002008B5154B83F30A8800F030F855
S3152000B190FFF7EAFF124B13498B4212D30020124BC2
S3152000B1A012498B4218D3FFF727F9186850F8224026
S3152000B1B0586840F82240013298688242F5D30C3311
S3152000B1C0EAE70022F8E71C6844F8220001325C68AE
S3152000B1D0A242F8D30833E4E70022F8E70000002073
S3152000B1E03CE6012048E6012048E6012048E6012009
S3152000B1F04FF48041144B154A70B59A60D3F88820D5
S3152000B200134D42F47002C3F88820124A05F5005403
S3152000B21091664FF0FF3222666FF4003262660D228D
S3152000B220A2660222C3F8D020BFF34F8FBFF36F8FE1
S3152000B2304FF44036002003F06FFD0020E66003F057
S3152000B2405DFD2E6170BD00BF00ED00E000A0002076
S3152000B25000800044009000502DE9F04F1446064629
S3152000B2600D469B46C36B87B001225B6902A96068C5
S3152000B2709847F36B01225B6903A92846984702A8E1
S3152000B28009F028FB074648B10023A37563754FF0E4
S3152000B290FF33A360002007B0BDE8F08F03A809F0B4
S3152000B2A026FB0123A375237E04EBC303DD611F84E4
S3152000B2B06368AB420ED1206003A809F03AFB4FF039
S3152000B2C0FF332075A360237D043B022B26D8002361
S3152000B2D0A375DFE723681A1A53425341A37503A8BF
S3152000B2E009F027FB237D834218BFA77503A809F021
S3152000B2F002FB074602A809F0FEFA874218BF002380
S3152000B30003A818BFA37509F0FEFA074602A809F09C
S3152000B310FAFA87421CBF0023A375D4E703A809F0D5
S3152000B320EAFA80B1F36B022228465B6904A99847A2
S3152000B33004A809F0EFFA0346207D032839D8DFE870
S3152000B34000F03838040903A8F3E7CC22237E04EB67
S3152000B350C3031A8401F0D0FA109B187003A8277E25
S3152000B36009F0BDFA04EBC70787F82200237E03A85D
S3152000B37004EBC303B3F8209093F8227009F0BBFACC
S3152000B380804603A809F0BFFA8246B8F1000F15D00F
S3152000B390F36B022228465B6904A9984704A809F0A2
S3152000B3A07EFA6075637D6BB90023A3754FF00008A4
S3152000B3B038E0227E04EBC2021384CBE703A809F00F
S3152000B3C059FAEEE794F81680B8F1000FEED0B9F1ED
S3152000B3D0000F09D1DFB10123627EE375002A44D133
S3152000B3E09F4218D1677614E0736C05EB0A02594226
S3152000B3F085EA020008421CBF0021A175591E0A4099
S3152000B4009B1A9945D0D8A37D002BE3D1CEE7E37DC7
S3152000B41043B94FF000084B4652462946304608F0BD
S3152000B4209BFFA060A27D12B123694B44236114497E
S3152000B430237E097899421ED901332376BBF1000F6A
S3152000B4401BD0D2B1E37DC3B1B8F1000F15D1032FC4
S3152000B45013D0A1684B1C10D0109B22460093304677
S3152000B4600123FFF7F9FEA07507E0012FDAD0032F9D
S3152000B47008BFA376CDE70023A375A07D0BE700BF09
S3152000B480E0D201202DE9F04F0E46984600238BB0DE
S3152000B49004464FF0FF31104617468DF8133001F061
S3152000B4A015FAB6F5801F3BD3B21C53D1E56A6B1C47
S3152000B4B057D12046616A08F095FE0546B31C18BF91
S3152000B4C00123DFF810910193636A626C029323686B
S3152000B4D005A902FB053AE36B05225B6950469847AE
S3152000B4E005A809F092FA09F0B5FA504609F0BDFA16
S3152000B4F04FF0000B824601464B1C05D0636C81EA57
S3152000B5000A025B42134232D02946204608F06AFEE0
S3152000B510029BAB424DD0BBF1000F4DD10546D3E780
S3152000B520314605AA04F1080009F026F90146481C0F
S3152000B53010D0384601F0CAF90122394620460DF1CD
S3152000B540130308F05BFF28B19DF8133088F800300C
S3152000B550002003E0237C002BA8D12D200BB0BDE8D2
S3152000B560F08F2368ED1A636CB5FBF3F5A6E7484622
S3152000B57001F0ACF90DF1130349462046019A08F073
S3152000B5803DFF034690B1B21C03D0D9F80020B24249
S3152000B5900CD19DF8132003930D4B88F800204946C3
S3152000B5A01A6838460FF069FA039B9B46D9F80810AB
S3152000B5B0A2E7BBF1000FD0D0B6F5801FC8D2314626
S3152000B5C098F800307A6804F1080001F0C5F8BFE762
S3152000B5D0DCD20120241100202DE9F3410446174630
S3152000B5E098460E46194D816AE36A8B422AD04B1C37
S3152000B5F018E0284601F06AF90122294620460DF175
S3152000B600070308F0FBFE30B14346294620469DF845
S3152000B6100720B847B0B1A9684A1C05D0012E0AD028
S3152000B620E36A9942E5D10DE06968204608F067FE95
S3152000B630012E0146D8D16B6881EA0302636C5B4216
S3152000B6401A42D1D002B0BDE8F08100BFF810002028
S3152000B6502DE9F041036B9046826B07689A4288BFBA
S3152000B6608363426C436A90B002FB0377C36B0E463A
S3152000B670052201A95B6904463846984701A809F0C6
S3152000B680C4F901280146307057D0656CE26B2368F7
S3152000B690606AD2F814C005FB0030052206A9E047EF
S3152000B6A006A809F0B2F901284FF0000523D0D4E905
S3152000B6B00A3201219342CDE90B458DF834800E954F
S3152000B6C08DF83C102AD11946204608F018FE236B27
S3152000B6D0626C14339B1AE06223630C9B53B99DF86A
S3152000B6E03C303BB1626A616C2368E06B01FB02313E
S3152000B6F009F043F90C9DE36B05225B6901A93846E5
S3152000B700984701A809F081F930702846236BA26B6F
S3152000B7109A4288BFA36310B0BDE8F081237C33B979
S3152000B7201C490BAA04F1080001F064F8D5E720466D
S3152000B730194A0BABFFF750FFCFE7237C23BB2246EA
S3152000B740164904F1080001F055F8616A204608F010
S3152000B7506AFD616A421C204608F033FD054620B981
S3152000B760236B626C1344143B23632046A16A08F0C2
S3152000B770C6FD2368A062C01A636CB0FBF3F060625A
S3152000B780204608F0FFFDB6E700232046044AFFF7CF
S3152000B79023FFDAE7C5BE002041BE002085440120F4
S3152000B7A02144012073B50D46D11E4A421C461B7EFC
S3152000B7B04A419A4226D129682368994222D363684E
S3152000B7C099421FD8114E0DF107033246FFF75AFE54
S3152000B7D0C0B972686B689A4214D19DF80730DA1E98
S3152000B7E053425341227E93420CD1636901336361F4
S3152000B7F0D4E90323934205D22968A26842F823108C
S3152000B80001332361012002B070BD00BF501100201A
S3152000B8102DE9F04F9A468BB09DF85030DFF850B1A5
S3152000B8200293DBF81030804653450D461646C0F08D
S3152000B8309980D146DBF804300193B9F1000F00F06E
S3152000B8408D80D8F83C3001225B6907A9019898477A
S3152000B85007A809F04CF8DBF80030984240F08580C4
S3152000B86007A809F050F80428074614D107A809F0BC
S3152000B87051F8019B029A04463B44002A3FD1864256
S3152000B88012D91446361A4046019908F038FDA9EB1C
S3152000B89004090190D1E7D8F83C3002225B6901986F
S3152000B8A008A9984708A8E2E7841B544528BF5446B0
S3152000B8B0032C03EB0607AAEB040A4FEA94021CD9D1
S3152000B8C0D8F83C30294638465B69984724F003036C
S3152000B8D004F003061F441D44002ED4D0D8F83C3073
S3152000B8E001225B6908A9384698473246284608A9A6
S3152000B8F035440FF0C2F80026C5E72646ECE7074692
S3152000B90000F00302039203442A1804920593049B31
S3152000B910DD1B059BD81B039B9F420FD1002FB2D066
S3152000B920D8F83C30012208A95B6998473A46284650
S3152000B93008A90FF094F978B93D44A4E7D8F83C302B
S3152000B940012208A95B6998470422284608A90FF016
S3152000B95086F908B9043FDAE74FF0360948460BB0B6
S3152000B960BDE8F08F4FF06309F8E74FF06F09F5E770
S3152000B9707C1100202DE9F0410F46164698460446D4
S3152000B98088B060B390F83450FDB1012108F0EFFB88
S3152000B99000210E9BCDE90511CDE902379DF83C30FB
S3152000B9A0CDF804808DF81C30237C04968BB90D4984
S3152000B9B001AA04F1080000F01DFFDDE90553E06B44
S3152000B9C0002E08BF1D4608F06BFD284608B0BDE8CE
S3152000B9D0F0812046044A01ABFFF7FEFDEDE7054660
S3152000B9E0F3E700BF4F440120A5B700202DE9F04F13
S3152000B9F099B00F4609920A69416C0E931439D31DEA
S3152000BA00B3FBF1F3013302EBC302036B044693420B
S3152000BA10C0F0B3810023DFF824940D93E36A4846EF
S3152000BA201946079300F052FFD7E9033604930E9B7D
S3152000BA30022B4ED1CC2E40F08A81099B002B42D07E
S3152000BA403946204608F08AFD656C079A6B1E13401E
S3152000BA501490ED1AE36B01225B6916A97868984762
S3152000BA6016A808F048FF00280CBF04230823782EC8
S3152000BA7006933DD9012300254FF0080A05933B681C
S3152000BA8005990E98C9F80030C9F8106008F055FFDE
S3152000BA904FEA9A0310930023DDF81CB089F81400AE
S3152000BAA00B930F9308930C93616C4A1E0BEA0202C8
S3152000BAB08B1A002E38D05544AB4240D8236B5B1AE4
S3152000BAC013442363ABE0049B1B681493082306935B
S3152000BAD0D0E7656C079A6B1E1340782EA5EB0305FD
S3152000BAE016D8FB7D7BB9099B002BB3D10423069383
S3152000BAF0331DAB4210D9A6B1082DBBD8042500238F
S3152000BB00AA460593BBE7099B002BA3D10823EEE7A2
S3152000BB10099B002B9ED1D9E7002505954FF0040AF5
S3152000BB20ADE704250596F9E75345C7D3B0460BEB99
S3152000BB300A030393089B002B18BF032313E0A3EBF0
S3152000BB400A039E42B0460BEB0A0228BF98469E4245
S3152000BB500392EFD90123D9F8102089F8173096429D
S3152000BB6071D1C9F804B0089399F81730002B6CD01E
S3152000BB7099F818200899D31C09EBC3030132C3F89E
S3152000BB8004B0A3F80880997289F81820B8F1000F3C
S3152000BB9014D00E9B022B5BD10B9B7BB90F9B43448E
S3152000BBA0032B0BD9E36B01229B69039814A99847B1
S3152000BBB00546002840F0E38001230B93089B16A836
S3152000BBC00193059B009399F814204346396800F0A9
S3152000BBD033FEE36B58469B69109A16A99847051EB3
S3152000BBE00D9B18BF5B4652460D9359464346204649
S3152000BBF008F0B2FB236B08F10302A3EB0A0322F041
S3152000BC0003029B1AC9F808002363002D40F0B78071
S3152000BC100F9BDDF80CB04344A6EB08060F9359465C
S3152000BC20204608F06CFB00258346002E7FF43CAFAF
S3152000BC30824A3968936804F10800E36252680E9BD1
S3152000BC4000F08AFD84E002238DE7C9F804B09DE761
S3152000BC50099B002B30D1049BB8F1030F43440A9370
S3152000BC6027D9DDE90301E36B4FEA98029B699847E0
S3152000BC700546002865D118F003025FD0049B28F002
S3152000BC8003052B440493039B1D444FF0FF33049973
S3152000BC9015A815930EF0F1FEE36B28469B69012249
S3152000BCA015A9984705460A9B0493002D86D0039B29
S3152000BCB099E74246039DE8E7039B0A9307F1200391
S3152000BCC01193FB7D78689BB100233D7E0C9AD9B2F7
S3152000BCD08D4211D9119903F1010C31F8331091429B
S3152000BCE026D9069907EBC303D8690A44104403E012
S3152000BCF00C9B069A13441844E36B01225B6915A931
S3152000BD009847159B012213930C9B0A9804330C9396
S3152000BD10E36B13A99B699847039B0A9A43449B1A92
S3152000BD20042B054607D978B9134604330A93C8E786
S3152000BD306346521ACBE70A9B0393B6E70A9B049302
S3152000BD403CE70A9B0493B2E70A9B0393AFE770266E
S3152000BD50304619B0BDE8F08F4FF0000A4FE03A693F
S3152000BD60616CD31D1439B3FBF1F3013302EBC3022B
S3152000BD70236B9342BFF452AE5DE01C26E8E73D2DCF
S3152000BD8059D104F1080303932368079A606CA2EB48
S3152000BD90030ABAFBF0FA00FB0A3008F066FEE16AF5
S3152000BDA08046204608F0ABFAA26A8242D7D0626C5F
S3152000BDB0D9F80830511E0B40216B2668891A0B448E
S3152000BDC023630D9BE0629E1BB6FBF2F6B245C3D100
S3152000BDD0079BB3EB080A12D0E36B4FEA9A0241465F
S3152000BDE09B6998478346E36A079A5344E362236B29
S3152000BDF003989B1A4344236308F08FFCDA46236892
S3152000BE00616CE06B01FB063108F0A4FD204608F0CA
S3152000BE10B9F9204608F0B6FA2063BAF1000F9ED091
S3152000BE203A69616CD31D1439B3FBF1F3013302EB8C
S3152000BE30C3029042A8D22E468AE700BF24110020D2
S3152000BE40032A2DE9F34106460D4617461C4606D120
S3152000BE50237A012B23D0012002B0BDE8F081DFF840
S3152000BE606080096842460DF10703FFF70BFB60600F
S3152000BE700028EDD19DF80720237A032AE8D0D8F8A8
S3152000BE8004106A689142E3D1012B2969D4F80CC0C9
S3152000BE9007D172690CEB0103934202D92074207CEE
S3152000BEA0DAE708316144E1603B4601222946304603
S3152000BEB0FFF79CFD60600028CAD00020CCE700BFB9
S3152000BEC0501100202DE9F341089C032A17462668C5
S3152000BED006D1237A012B24D0012002B0BDE8F081BF
S3152000BEE0DFF89080304642460DF10703FFF7CAFA85
S3152000BEF060600028EDD12568D8F80400A96AD5F835
S3152000BF0044C04840CCF100031840227AE1D1012AEE
S3152000BF1009D1E268D8F8103013447269934202D9E5
S3152000BF202074207CD9E72868EB6A1B1A081AB3FB11
S3152000BF30FCF3B0FBFCF083420BD1706CF36A421E1B
S3152000BF401340326B121A13442846336308F0D7F98C
S3152000BF50E862D8F81020E36808321344E36001222F
S3152000BF603B4604492068FFF741FD60600028B0D0B9
S3152000BF700020B2E7501100202DE9F04F4FF0FF339B
S3152000BF804FF6FF720025044600F10806C0E9092392
S3152000BF908BB0C3620562056330460F4608F0BDFBD1
S3152000BFA0204608F0EFF820BB2046394608F06AF90B
S3152000BFB0204608F0E7F820BB5E200BB0BDE8F08FE6
S3152000BFC0E26B2368606CD2F814C000FB05300522B2
S3152000BFD005A9E04705A808F018FD012828D129461B
S3152000BFE0204608F020F9421C2946204608F0E9F8A8
S3152000BFF00135E3699D42E3D3204608F0C3F80028C3
S3152000C000D2D000254FF0FF394FF6FF73CA46A84617
S3152000C010C4E90853E369984514D3A5EB0905012D16
S3152000C02036D84FF6FF72636A934246D16720C4E73B
S3152000C03008F015FD0028DBD02946204608F0F3F845
S3152000C0400246D1E72368E26B606C576900FB083033
S3152000C050052205A9B84705A808F0D7FC834605A8F8
S3152000C06008F0AAFC0746584608F0F4FC68B1574584
S3152000C07038BFC4F82480B94528BFB946BD4238BF69
S3152000C0803D46BA46236A0133236208F10108C1E717
S3152000C0904FF6FF7300256362E3699D42C1D2676C48
S3152000C0A02068E36B052207FB05005B6905A9984715
S3152000C0B005A808F081FC0135EEE7E26B676C206885
S3152000C0C0694607FB030055690522A847684608F01C
S3152000C0D073FC626A2368606C504D00FB023008F0E6
S3152000C0E0C4FC4FF0FF33A062E3622A466FF00101E1
S3152000C0F0204605ABFFF7C6F900284FD1AD68294683
S3152000C1002046E56208F01AF8206320B92046E16A45
S3152000C11008F0F5F8E0622946204608F0F0F80546D2
S3152000C120A36A9D423CD16569626CE91C143AB1FB55
S3152000C130F2F14FF0000805EBC1050335B5FBF2F52A
S3152000C140C1460235E36999453CD3A8455AD22046D3
S3152000C150616A08F047F80027064604F1400AB84508
S3152000C16012D8626C2368694602FB0639E36B052206
S3152000C1705B6948469847684608F01EFC53460246C7
S3152000C1804946E06B08F073FC3146204608F02AF851
S3152000C1900137AF420646E2D364200EE7A56AAEE732
S3152000C1A02946204607F0CAFF236B29460344074643
S3152000C1B02363204608F0A3F80546002FB0D1C4E932
S3152000C1C00B07ADE7636C2768052203FB0977E36B52
S3152000C1D005A95B693846984705A808F016FC08F0BB
S3152000C1E039FC60B1384608F040FC0146204607F08D
S3152000C1F0A5FF636C143B984208BF08F1010809F1BA
S3152000C20001099FE7304608F088FA002320461946A0
S3152000C210034AFFF7E1F90020CFE600BF50110020C6
S3152000C220EB4301202DE9F0410025634B0E46D3F860
S3152000C230008004461D6018B921252846BDE8F081F6
S3152000C24090F8347007B30A6803689A4240F0AA80CF
S3152000C2504A6843689A4240F0A5808A6883689A4271
S3152000C26040F0A080CA68C3689A4240F09B800A6961
S3152000C27043699A4240F096808A69C36B9A4240F09D
S3152000C28091804B698361D8E768223946856B0EF029
S3152000C29010FDD6E90212336804F1080023607368A2
S3152000C2A0A5636360336963617369A36108F047FA24
S3152000C2B0B36904F14000E3639B68984720B9676C33
S3152000C2C017B16368B3FBF7F794F84330E761002BA7
S3152000C2D0B2D00023656C2366002D6BD0002F69D069
S3152000C2E02368B3FBF5F205FB1233002B5CD167689C
S3152000C2F0B7FBF5F605FB1676002E55D1204607F03E
S3152000C3000DFFA369043303449F424FD340F6347292
S3152000C3106369CC3B93424BD8B5F5805F4AD3032162
S3152000C320204607F024FFD4E90001E36B1B689847F9
S3152000C3300546E36B0220DB6898472DB184F834600C
S3152000C340E06B08F0ADF878E741462046FFF714FE8B
S3152000C3506428054604D141462046FFF70DFE0546D2
S3152000C360636C143BD5B9226A204602FB03F607F01C
S3152000C370D5FEA369043303449E4203D284F8345085
S3152000C3805A25DDE70123D4E900010C4A84F834302C
S3152000C39013680133136008F06CFAD1E7002384F8A0
S3152000C3A03430CDE75D2548E7592546E75A2544E749
S3152000C3B05F2542E75B2540E7F4100020F0100020BF
S3152000C3C02DE9FF410C4616461F46054680B390F8D8
S3152000C3D034307BB3B1F5801F2ED2DFF86080012187
S3152000C3E007F0C5FE2146424628460DF10F03FFF70A
S3152000C3F049F8044670B99DF80F30012B11D1D8F8B1
S3152000C4001030BB4212D10246009031462846FFF733
S3152000C410FFF90446E86B08F043F8204604B0BDE86F
S3152000C420F081022B14BF2D246024F3E76324F1E767
S3152000C4302124F2E71124F0E72924EEE77C110020DD
S3152000C4402DE9F04385B00C4617461E460546DDF815
S3152000C450308098B390F8343093B3B1F5801F31D241
S3152000C460DFF86490012107F082FE21464A462846DD
S3152000C4700DF10F03FFF706F8044688B99DF80F3033
S3152000C480012B14D1D9F8102006EB08039A4213D3B6
S3152000C49000904346324639462846FFF7B9F9044606
S3152000C4A0E86B07F0FDFF204605B0BDE8F083022BC0
S3152000C4B014BF2D246024F3E76324F1E72124F2E757
S3152000C4C01124F0E72924EEE77C1100202DE9F34121
S3152000C4D01F4600230C46164605463B6050B390F88F
S3152000C4E034304BB3B1F5801F28D2DFF854800121B8
S3152000C4F007F03DFE2146424628460DF10703FEF78A
S3152000C500C1FF0446A0B99DF80730032B10D0022B9B
S3152000C5100AD10123336004233B60E86B07F0C0FF98
S3152000C520204602B0BDE8F081D8F810303060F3E73D
S3152000C5302D24F2E72124F3E71124F1E72924EFE75C
S3152000C5407C11002073B50446056B07F0E7FD636E8A
S3152000C55003449D428CBF00230123854294BF0025BE
S3152000C5602D1A207C84F85030656584F85800A8B1CF
S3152000C57000230C4E1A4619462046009608F0BBF8B2
S3152000C580002305461A4619462046009608F0BCF8B0
S3152000C590E3682844984294BF0020C01AE06502B0A0
S3152000C5A070BD00BFFFFF0F002DE9F3471E4643690C
S3152000C5B00446B342884617469DF828904ED3002558
S3152000C5C08DF80750204607F0A9FDD4F830A0824503
S3152000C5D00AD2236AB5EB430F06D2002220460DF17C
S3152000C5E00701FFF735F8B8B39DF80730012B05D1C1
S3152000C5F0002220460DF10701FFF72AF8B9F1030FB3
S3152000C60006D03146204607F074FD256B854227D398
S3152000C610144D4FF0FF31284600F058F94B46294675
S3152000C62000222046C5E90376C5F80080FFF7DEF92B
S3152000C630236E054663B12046FFF784FF94F85030F9
S3152000C64013B994F858301BB1236E04F15000984763
S3152000C650284602B0BDE8F0870135B3E76225F7E743
S3152000C6601C25F5E7501100202DE9FF410F46904685
S3152000C6701E46054698B390F8343093B3B1F5801F23
S3152000C68031D21A4C022107F072FD2246394628463D
S3152000C6900DF10F03FEF7F6FE024678B1012342465E
S3152000C6A00093394633462846FFF77EFF0446E86B5B
S3152000C6B007F0F6FE204604B0BDE8F0819DF80F3065
S3152000C6C0012BEBD12169B142E8D100934146334693
S3152000C6D02846FFF79DF804460028DFD1E7E7212406
S3152000C6E0E8E71124E6E72924E4E700BF7C110020CF
S3152000C6F030B50C46054685B028B390F8343023B3C0
S3152000C700B1F5801F23D2022107F031FD0DF10F0371
S3152000C710214628460F4AFEF7B5FE034688B99DF8FE
S3152000C7200F20032A0DD003222146009202462846D6
S3152000C730FFF73AFF0446E86B07F0B2FE204605B045
S3152000C74030BD2D24F7E72124F8E71124F6E7292424
S3152000C750F4E700BF7C1100202DE9F043466886B33C
S3152000C760056898464FF0000CA946AE4655F83C4061
S3152000C7700CF1010CC4F31307013401D0B94217D0D0
S3152000C78066450EF1080EF1D12F46002403E0A6429D
S3152000C79007F1080712D055F8343001340133F6D1A9
S3152000C7A0C1F3130141EA0851C7E90012BDE8F0833D
S3152000C7B041EA0851CEE90012BDE8F083B8F1030F33
S3152000C7C003D101230372BDE8F083002303E09E42D8
S3152000C7D009F10809F5D055F833400133C4F307545D
S3152000C7E0032CF4D1C1F3130343EA0853C9E90032F9
S3152000C7F0BDE8F0832DE9F0410646406882B0C0B11D
S3152000C8000F4690460024336853F8345003EBC40394
S3152000C810C5F30752C5F31301013504F1010406D00F
S3152000C8205B683046CDF80080B84710B17068844206
S3152000C830E9D302B0BDE8F08173B504462248012A47
S3152000C84000EAC1119DF8185023F07C4007D9961EA6
S3152000C850012E28D9073303F07F03194308E09DF8FA
S3152000C8601C300A43DB0603F0C053134343F06041F8
S3152000C8700023C4E900108DF80730B5B120222146E7
S3152000C8800DF1070008F00DF91A220DF10700211D00
S3152000C89008F007F9082063689DF8072043EA8263B9
S3152000C8A0636002B070BD1143E2E71B220DF1070061
S3152000C8B0214608F0F6F823689DF80720042043EA6D
S3152000C8C0C2632360EDE700BF80FFFF0738B5094B41
S3152000C8D00D461A68002104460EF0EBF900234FF0AE
S3152000C8E0FF322383C4E900252361A260E382A37675
S3152000C8F038BD00BFDCD201200138C0B205289ABF5E
S3152000C900014B185C01207047E1D201202DE9F0414E
S3152000C9100746154600240E46596888B0490A01295B
S3152000C92022464FEA510104F10104F8D8DC789978BF
S3152000C93024031B88C90201F4006104F480540C43CB
S3152000C940C3F30A035203234492B24FF000089C1803
S3152000C950274B6FEA0444039325F07843ED4302A95D
S3152000C9600DF107001B2202938DF8078008F099F835
S3152000C9709DF80720029B02A943EAC2630DF1070036
S3152000C9801B2225F07845049302958DF8078008F040
S3152000C99088F89DF80720029B6FEA144443EAC26395
S3152000C9A005934FF0FF330794069307A9BB6901222D
S3152000C9B006F110009847BB6905A90446012206F135
S3152000C9C008009847BB69404518BF044604A90122C0
S3152000C9D0301D98470122404518BF0446BB693046A2
S3152000C9E003A99847404508BF204608B0BDE8F08116
S3152000C9F001009AB2044BD3F88420D206FBD4D3F894
S3152000CA008400C0F3811070470040005038B5174BA2
S3152000CA100546D3F828310C4603F00703013B052BC6
S3152000CA2020D8DFE803F003131B0F0B170EF032FAA2
S3152000CA30052305B1286004B1236038BD0EF02AFA1B
S3152000CA400623F6E70EF066FA0723F2E70EF05CFA05
S3152000CA500323EEE70EF058FA0423EAE70EF050FA25
S3152000CA600223E6E700231846E3E700BF00800050D4
S3152000CA70002337B50193164B0546D3F820320C46D2
S3152000CA8003F00703042B21D8DFE803F0030B11166C
S3152000CA901B0001230DB1019A2A6004B1236003B063
S3152000CAA030BD002101A8FFF7B1FF1223F2E70EF0F7
S3152000CAB031FA07230190EDE70FF0D3FA0A2301900C
S3152000CAC0E8E70EF06FFA09230190E3E70023E1E798
S3152000CAD00080005038B5104B0546D3F850320C462E
S3152000CAE003F00303022B12D0032B08D0012B0AD00C
S3152000CAF00023184605B1286004B1236038BD0FF025
S3152000CB00B3FA0C23F6E70FF0ACFA0A23F2E70EF09D
S3152000CB1049FA0923EEE700BF0080005038B5104BD4
S3152000CB200546D3F880300C4603F00303022B0BD0C6
S3152000CB30032B0DD0012B0FD10EF0B2F90E2305B128
S3152000CB40286004B1236038BD0EF0E4F90723F6E728
S3152000CB500EF0A0F90623F2E700231846EFE700BF00
S3152000CB600080005038B5104B0546D3F800310C46EE
S3152000CB7003F00303022B0BD0032B0DD0012B0FD177
S3152000CB800EF0C2F9032305B1286004B1236038BD35
S3152000CB900EF008FA0923F6E70FF061FA0823F2E708
S3152000CBA001230020EFE700BF0080005038B5184B66
S3152000CBB00546D3F820010C4600F00700062823D8A6
S3152000CBC0DFE800F0040A0E16121A1E00012305B132
S3152000CBD0286004B1236038BD0EF05CF90523F6E722
S3152000CBE00EF092F90323F2E70EF094F90723EEE70D
S3152000CBF00EF086F90223EAE70EF04CF90623E6E763
S3152000CC000EF082F90423E2E700231846DFE700BF8F
S3152000CC100080005038B5104B0546D3F840310C46FD
S3152000CC2003F00303022B0BD0032B0DD0012B0FD1C6
S3152000CC300FF017FA0A2305B1286004B1236038BD26
S3152000CC400EF0B0F90923F6E70FF00EFA0C23F2E7FF
S3152000CC5001230020EFE700BF00800050002337B5F6
S3152000CC600193164B0546D3F860320C4603F00703B2
S3152000CC70013B032B1FD8DFE803F0020E1914002115
S3152000CC8001A8FFF793FF10230DB1019A2A6004B182
S3152000CC90236003B030BD002101A8FFF7BBFF11239D
S3152000CCA0F2E70EF037F907230190EDE70EF028F9A9
S3152000CCB002230190E8E70023E6E700BF008000504A
S3152000CCC0002337B50193164B0546D3F894320C460C
S3152000CCD003F00703013B032B1FD8DFE803F0020E06
S3152000CCE01914002101A8FFF761FF10230DB1019A45
S3152000CCF02A6004B1236003B030BD002101A8FFF7EC
S3152000CD0089FF1123F2E70EF005F907230190EDE7DD
S3152000CD100EF0F6F802230190E8E70023E6E700BFCD
S3152000CD200080005038B5104B0546D3F860310C46CC
S3152000CD3003F00303022B0BD0032B0DD0012B0FD1B5
S3152000CD400FF08FF90A2305B1286004B1236038BD9E
S3152000CD500EF028F90923F6E70FF086F90C23F2E7FF
S3152000CD6001230020EFE700BF0080005073B50D4679
S3152000CD700021114B0191D3F88041064604F00304AB
S3152000CD80022C13D0032C0CD0012C13D101A8FFF7B1
S3152000CD900DFF10240EB1019B336005B12C6002B04B
S3152000CDA070BD0EF0B7F807240190F3E70EF0A8F84F
S3152000CDB00190EFE70C46EDE70080005038B5104BA8
S3152000CDC00546D3F840320C4603F00303022B0BD062
S3152000CDD0032B0DD0012B0FD10FF043F90A2305B1F8
S3152000CDE0286004B1236038BD0EF0DCF80923F6E78D
S3152000CDF00FF03AF90C23F2E701230020EFE700BFFA
S3152000CE000080005038B5144B0546D3F800020C4676
S3152000CE1000F0070004281BD8DFE800F003090D11F5
S3152000CE201500012305B1286004B1236038BD0FF039
S3152000CE3018F90A23F6E70EF0B5F80923F2E70FF002
S3152000CE4013F90C23EEE70EF045F80F23800AE9E7E5
S3152000CE5000231846E6E700BF0080005038B5144B83
S3152000CE600546D3F808020C4600F0070004281BD814
S3152000CE70DFE800F003090D111500012305B1286034
S3152000CE8004B1236038BD0FF0ECF80A23F6E70EF064
S3152000CE9089F80923F2E70FF0E7F80C23EEE70EF006
S3152000CEA019F80F23800AE9E700231846E6E700BFB2
S3152000CEB000800050B0F5207F1FD009D8B0F5007F44
S3152000CEC015D003D868B1B0F5C07F0AD000200CE099
S3152000CED0B0F5607FFAD10B4BD3F88000C0F3011078
S3152000CEE003E0084B186FC0F3033001307047054B41
S3152000CEF0D3F89000C0F30460F7E7024B186FC0F335
S3152000CF008020F2E70080005002464FF48030104B1C
S3152000CF1010B598660020FFF7CDFF504341F67132D9
S3152000CF200C4BDC69DA635A6804F4803422F440122C
S3152000CF3059B90949884294BF0020012000050243BF
S3152000CF405A600CB10022DA6310BD0449F2E700BF33
S3152000CF500090005000000350005A6202002D31015B
S3152000CF604209531E022B96BF074B002303EB820375
S3152000CF7000F01F0029B103F58053012282401A6078
S3152000CF80704703F50053F8E7608000501FB5002175
S3152000CF90B0F5807F0446CDE9001100F0CF803BD864
S3152000CFA0002800F0A480A0F12004602C44D8602C36
S3152000CFB042D8DFE804F09CA49CA4B4B4B4B4B4A4CE
S3152000CFC0BE4AD46A4AA4A4A44141414141414141B7
S3152000CFD0A4A4A47CDEA441414141414141414141B7
S3152000CFE04141E3B49C9C9CD94A4A88E85FB94141B7
S3152000CFF0414141939C41B4B4B4B4B4B9B9A441A459
S3152000D000A441414141414141414141414141414187
S3152000D0104141414141419800B0F5E06F00F0A980BF
S3152000D02038D8B0F5607F75D01AD8B0F5007F61D0BA
S3152000D03005D8B0F5C07F5AD0009804B010BDB0F521
S3152000D040207F5CD0B0F5407FF6D10DF043FF02463D
S3152000D0504FF42070FFF72EFFB2FBF0F2520857E094
S3152000D060B0F5B06F65D00AD8B0F5806F57D0B0F55F
S3152000D070A06FE1D100216846FFF7FAFCDCE7B0F5A6
S3152000D080C06F6CD0B0F5D06FD6D100216846FFF7BF
S3152000D090B9FED1E7B0F5186F70D00DD8B0F5086F8E
S3152000D0A07FD0B0F5106F5FD0B0F5F06FC4D10021FE
S3152000D0B06846FFF737FEBFE7B0F5286F63D007D87D
S3152000D0C0B0F5206FB8D100216846FFF7C7FDB3E75A
S3152000D0D0B0F5406F28D0B0F5486FADD10021684635
S3152000D0E0FFF7EEFDA8E70DF0DBFE0090A4E70DF0BC
S3152000D0F0F1FEFAE70DF0D4FE0246204604E00DF0DC
S3152000D100E9FE02464FF42070FFF7D4FEB2FBF0F2A0
S3152000D110009291E701A8FFF701FD019AEDE70021B2
S3152000D1206846FFF743FD87E700216846FFF76EFC58
S3152000D13082E700216846FFF719FE7DE74FF0E023DE
S3152000D14002911B695B0705D50DF0C4FE0290029B78
S3152000D150009371E703A902A8FFF75CFDF7E700211A
S3152000D1606846FFF757FD67E700216846FFF776FE1A
S3152000D17062E700216846FFF721FE5DE70021684649
S3152000D180FFF7A8FC58E70021084B0391D3F870322B
S3152000D19003F00303012B02D103A8FFF73BFD039BFA
S3152000D1A0D6E76846FFF7DEFC46E700BF0080005062
S3152000D1B008B58020FFF7EAFE034B98429EBF4FF446
S3152000D1C08032024B1A6708BD005A620200A0005046
S3152000D1D0B0F5207F10B50C465DD008D8B0F5007F9D
S3152000D1E04ED003D8C0B1B0F5C07F15D010BDB0F574
S3152000D1F0607FFBD12C4B4C1ED3F8FC202B4912F020
S3152000D200807F4FEA041427D1D1F8803023F03003F1
S3152000D2102343C1F88030E9E707F061FC07F06DFC95
S3152000D2204FF48031224B214A1967136F013C23F4B6
S3152000D230704343EA043313670DF04CFE0446FFF7B0
S3152000D240D9FBC0F10201204607F051FC00F04AF854
S3152000D250BDE81040FFF7ACBFD3F8FC2022F0807267
S3152000D260C3F8FC20D1F8802022F030022243C1F8F6
S3152000D2708020D3F8FC2042F08072C3F8FC20B5E76A
S3152000D2800A4A4C1ED2F8903023F0F85343EA04633E
S3152000D290C2F89030AAE7054A4C1E136F23F4806328
S3152000D2A043EA84231367A1E700ED00E000800050E5
S3152000D2B00090005008B50121022000F057F84FF4E5
S3152000D2C02070FFF7F7FD054B187007F008FC07F0F4
S3152000D2D014FC4FF48032024B1A6708BD122A002034
S3152000D2E00090005008B54FF4C070FFF74FFEBDE820
S3152000D2F008400449884294BF012102214FF420703E
S3152000D300FFF766BF80F0FA0238B504460DF0E2FD5D
S3152000D3100546FFF76FFBC0F10201284607F0E7FB41
S3152000D3200121002000F062F82CB1FFF7DBFFBDE8F9
S3152000D3303840FFF73DBF034B4FF420701978FFF7B5
S3152000D34047FFF4E7122A0020024A536B0342FCD11E
S3152000D350704700BF00800950034A0179D36E23F03D
S3152000D36030030B43D366704700400050F8B504469F
S3152000D3701C4BD3F88420D106FBD4D3F88430C3F3D6
S3152000D38081139C422CD00DF08BFD012C064602D138
S3152000D390214607F0ACFB0EF046FE4FF00072124B12
S3152000D3A007465A66204607F0ADFB4FF480630D4DC5
S3152000D3B0621E93402B676B6E9A0103D4D5F8843096
S3152000D3C09B060AD538460EF029FE022C08D1304697
S3152000D3D0BDE8F840002107F08ABBD5F88430EAE79B
S3152000D3E0F8BD00BF004000500060005010B50C464C
S3152000D3F008B90DF055FD074B21461B783BB1064B6E
S3152000D400984204D80120BDE81040FFF7AFBF0220A4
S3152000D410F9E700BF132A0020005A62024FF00042AB
S3152000D42038B5244B244C5A664AF6CD33656C0146F2
S3152000D43005F00105236428BB0120FFF785FF6368FB
S3152000D440DB0715D51D4B586008461D4B226BD207AE
S3152000D4500CD4984208D1072415B1174B194A1A64DF
S3152000D46007F051FB204638BD0130EFE79842F2D055
S3152000D4700024F1E70132236B13F0080305D08A421A
S3152000D480F8D1E8E700220E49F5E78A42E3D02021C9
S3152000D4900A4A91620121A2F5805251600649084A42
S3152000D4A0886A800603D49342D5D00133F8E79342A5
S3152000D4B0DDE700BF009000500080095000A0095011
S3152000D4C040420F003254FFFF4FF0004238B5164B52
S3152000D4D001465A664AF6CD33144C154A656C2364C8
S3152000D4E043780B205B0043F00103D363FFF72CFF47
S3152000D4F063688A7823F4F87343EA02136360CA7870
S3152000D5004B7943EA0223A3600A798B7943EA022303
S3152000D51023610878FFF782FFEB0744BF054B23649E
S3152000D52007F0F1FA012038BD009000500080095024
S3152000D530004000503254FFFF4FF00042124B70B5AE
S3152000D5405D6E03F580535A664AF6CD3304460F497D
S3152000D55080204E6C0B64FFF7F7FE0B6A23F00F0357
S3152000D5600F2C94BF234343F00F030B62F30744BFF2
S3152000D570074B0B64002DA2BF4FF00042054B5A66A5
S3152000D58007F0C1FA70BD00BF00800050008009502E
S3152000D5903254FFFF00A000504FF48032054B9A66AC
S3152000D5A041F6713203F51C33DA63012203F5005389
S3152000D5B0DA6070470090005041F671320121064B27
S3152000D5C0DA6303F50052D1600022DA634FF4803229
S3152000D5D0A3F518339A66704700000350044B186869
S3152000D5E0421C02BF034AD2F894001860704700BF5D
S3152000D5F07C2D0020004000504FF48032084B5A66A4
S3152000D60003F5EE239B69C3F3461203F00F010A4389
S3152000D6104280C3F30342C3F303334270037070475F
S3152000D620009000500120034B9B680A3303F01F0330
S3152000D630984070470080E00F274B2DE9F0411B688A
S3152000D6400DF032FD0128074620D90EF0EBFD051E10
S3152000D65003DA01242046BDE8F081204B1B78002BFD
S3152000D66038D14FF050081E4C04EB0800A465C4F8CE
S3152000D6705C800EF011FE206680B90124012FE9D9C5
S3152000D68028460EF0E5FD0028E4DAE2E7134B1B7886
S3152000D69003F0FF05002BE4D00024DBE70024114E25
S3152000D6A0214606F110033246012034607460B360CF
S3152000D6B0C6F80C800EF0A0FE30660028DDD00321CF
S3152000D6C0512008F0ACFA512001F018FB0122034B3F
S3152000D6D01A70D3E70024D3E7802D0020142A0020D7
S3152000D6E00C120020A811002008B54FF098435B6C5F
S3152000D6F0D90208D50DF0D8FC0238012803D8094BE9
S3152000D700186E0EF0F8FE4FF098435A6CD202FCD5F4
S3152000D7105B6D054A03F4702313605120BDE8084071
S3152000D72001F0FABAA8110020802D00202DE9FF472C
S3152000D7304FF000080E4617460446CDF80080002814
S3152000D74059D022B90025284604B0BDE8F087002923
S3152000D75051D032F0030902F0030A1FD04FF0E063E4
S3152000D760C0E9003801230191C0F808800293C0F86F
S3152000D770208049F0005301A903930EF0D6FC4946B8
S3152000D78020460EF0ACFC20460DF030FC054628B1B4
S3152000D7904A46414630460DF08CFAD4E7BAF1000FDE
S3152000D7A0D0D04FF000084FF0E063C4E900380123E1
S3152000D7B0CDF804D00293114B204601A9C4F8088065
S3152000D7C0C4F8208003930EF0B0FC042120460EF00E
S3152000D7D086FC20460DF00AFC054608B13A46D8E7F5
S3152000D7E0009A4E44EB00013522FA03F3AA4506F8C7
S3152000D7F0013BF7D1A6E72125A5E700BF04000020BD
S3152000D8002DE9F0410F4601780446013990468AB049
S3152000D810042947D8DFE801F00332373C4100402590
S3152000D820142621490C3400225D43C7E901223A62BD
S3152000D8303846396029460EF052FC0123384646F018
S3152000D840005604A945F00055CDF8048002930395AF
S3152000D85004940593069607940893099607F06AFCA4
S3152000D860384601A907F066FC384607A90EF05DFC8C
S3152000D87038460DF0BBFB0AB0BDE8F08140252026D6
S3152000D8800A490C34CFE74025202609490C34CAE73B
S3152000D8908025402607491434C5E7802540260649B9
S3152000D8A01434C0E72120E6E7000201030003010348
S3152000D8B000040103000501030006010310B591B120
S3152000D8C088B10023C0E90133084B00F10C0203F1B3
S3152000D8D0200153F8044B8B4242F8044BF9D1012323
S3152000D8E00370002010BD2120FCE700BFB0D301202B
S3152000D8F010B591B188B10023C0E90133084B00F17E
S3152000D9000C0203F1200153F8044B8B4242F8044BDE
S3152000D910F9D102230370002010BD2120FCE700BFAF
S3152000D920E7D2012010B591B188B10023C0E90133B7
S3152000D930084B00F10C0203F1200153F8044B8B42F3
S3152000D94042F8044BF9D103230370002010BD212097
S3152000D950FCE700BF08D3012010B5A1B198B1002380
S3152000D960C0E90133C0E90333084B00F1140203F187
S3152000D970400153F8044B8B4242F8044BF9D104235F
S3152000D9800370002010BD2120FCE700BF29D3012011
S3152000D99010B5A1B198B10023C0E90133C0E9033322
S3152000D9A0084B00F1140203F1400153F8044B8B425B
S3152000D9B042F8044BF9D105230370002010BD212025
S3152000D9C0FCE700BF6AD301202DE9F04F0D469046B3
S3152000D9D004468BB000287DD000297BD0002A79D040
S3152000D9E00278013A042A75D8DFE802F0030C586061
S3152000D9F06B001427394A00F10C0B00F1040A2C3471
S3152000DA00B94608E020274FF01C09354A00F10C0BD7
S3152000DA1000F1040A2C34402199455BD80AF104030D
S3152000DA200AEBD10653F8040B002855D1B342F9D19D
S3152000DA30DAF80030013901EA0306C5E9002031464B
S3152000DA40A860286228460EF04AFB2846DAF800101D
S3152000DA500EF045FB012249F00053284601A947F064
S3152000DA60005746F00056CDF804B00292039704946E
S3152000DA7005920696CDF81C800892099307F05AFB6A
S3152000DA80284604A907F056FB284607A90EF04DFBA9
S3152000DA9028460DF0ABFA0BB0BDE8F08F2027114ACF
S3152000DAA000F10C0B00F1040A2C34A9E740274FF0B3
S3152000DAB030090D4A00F1140B00F1040A5434802178
S3152000DAC0AAE74027094AB94600F1140B00F1040AD7
S3152000DAD05434F4E72120DEE70F20DCE700020303BD
S3152000DAE000030303000403030005030300060303E6
S3152000DAF02DE9F04387B00D4691461E460446DDF8D3
S3152000DB003880002836D0B8F1000F33D002B98BBB4D
S3152000DB106B1EDBB2042B2DD8174AD75C0F9B9F4276
S3152000DB2028D80023280200F1407000F58070314685
S3152000DB30C4E901332060236220460EF0D0FA012387
S3152000DB406946204646F0005647F00057CDF800902B
S3152000DB5001930296CDF80C800493059707F0EAFA14
S3152000DB60204603A90EF0E1FA20460DF03FFA07B051
S3152000DB70BDE8F0832120FAE7ABD30120F0B50F46AC
S3152000DB8016461D46044693B010B9212013B0F0BDA9
S3152000DB900029FAD0002AF8D0002BF6D000233146EF
S3152000DBA01A46384607F09DF80028EFD1304602A9DC
S3152000DBB007F033F80028E9D1EB68022B0AD0396840
S3152000DBC03F48029A81426B6902D01830814270D157
S3152000DBD09A42DAD82B68002BD7D14FF060623846AC
S3152000DBE0C4E90023A360236201A907F0D5F8002821
S3152000DBF0CCD10199204621F4F06101910EF06FFA03
S3152000DC006946284607F0C8F80028BFD12046009963
S3152000DC100EF065FA384609A900F054F80028B5D167
S3152000DC20204609A907F086FA38460CA907F09BF981
S3152000DC300028ABD120460CA907F07CFAEB684BB143
S3152000DC40284606A900F03EF800289FD1204606A9BE
S3152000DC5007F070FA304603A907F085F9002895D118
S3152000DC60B368DA040CD59B0427D50621F3693269FB
S3152000DC701B6801FB03225B0043F0005303920593CC
S3152000DC80204603A907F056FA28460FA907F06BF994
S3152000DC9000287FF47BAF20460FA90EF046FA032515
S3152000DCA020460DF0A3F901287FF470AF013DF7D18E
S3152000DCB06CE7B3EB420F8DD267E7292066E700BFFA
S3152000DCC0200000B090B189B101234B60C368013BAD
S3152000DCD0012B08D88269064B1AB10A6000208B6096
S3152000DCE07047044AF9E74FF00053F7E721207047C1
S3152000DCF008000020D0D3012070B50E4615460446F4
S3152000DD008AB000285BD0002959D0002A57D0012399
S3152000DD1029461A46304606F0E4FF00284DD1B3685E
S3152000DD2013F4C04F4BD0AB6803F4C043B3F5005F88
S3152000DD3045D1254BA060C4E90030206207A93046B2
S3152000DD4007F02AF8002838D1204607990EF0C7F99F
S3152000DD50304601A9FFF7B6FF78BB204607F0EAF95F
S3152000DD60304604A907F0FFF838BB204604A907F07F
S3152000DD70E1F9EB681BBBAB6803F4C043B3F5005F66
S3152000DD801DD16946284606F073FFB0B9009B6A6923
S3152000DD909A4216D32A6943F000530792012220465D
S3152000DDA007A90892032509930EF0BFF920460DF026
S3152000DDB01DF9012801D1013DF8D10AB070BD2120FD
S3152000DDC0FBE71D20F9E700BF000001022DE9F04323
S3152000DDD091B00D46DDE918760446DDF86880002806
S3152000DDE06ED000296CD0B8F1000F69D00FB9002E83
S3152000DDF066D1296801F07041B1F1404F5BD0002B0C
S3152000DE005BD1531E042B5BD8120202F1C06202F5CD
S3152000DE10807200232846C4E90133226023620DA9BB
S3152000DE2006F0BAFF002843D120460D990EF057F987
S3152000DE30314620460EF053F9284601A9FFF742FF46
S3152000DE40002835D1204601A907F074F9284604A9EF
S3152000DE5007F089F860BB4FF00109204604A907F0B6
S3152000DE6069F946F00056204607A90797CDF8209075
S3152000DE70099607F05FF92B680A9703F07043B3F110
S3152000DE80404FCDF82C900C9603D120460AA907F0D6
S3152000DE9051F90123CDF834800E931B9B204643F085
S3152000DEA000530DA90F930EF040F920460DF09EF871
S3152000DEB011B0BDE8F083034AABE74FF0C062A8E794
S3152000DEC02120F5E7000002062DE9F0418CB00D4631
S3152000DED0DDE912860446149F002869D0002967D000
S3152000DEE0B8F1000F01D1002E62D1002F60D0A968B1
S3152000DEF089045DD5296801F07041B1F1404F4DD0BC
S3152000DF00002B4DD1531E042B52D82A4B03EB022251
S3152000DF1000232846C4E901332260236209A906F0BA
S3152000DF203BFF002837D1204609990EF0D8F8314614
S3152000DF3020460EF0D4F869462846FFF7C3FE50BBAC
S3152000DF406946204607F0F6F8284603A907F00BF89D
S3152000DF5008BB204603A907F0EDF8012346F000563A
S3152000DF60CDF818800793089609970A93159B43F0D6
S3152000DF7000530B932B6803F07043B3F1404F11D13C
S3152000DF8009A9204607F0D6F806A9204607F0D2F8B8
S3152000DF9020460DF02BF80CB0BDE8F081064AB7E715
S3152000DFA0064AB5E706A9204607F0C4F809A9ECE712
S3152000DFB02120F0E70001010600000306000001060B
S3152000DFC010F1860F14D010F1850F07DA10F1930F98
S3152000DFD011D0873007D04FF0FF307047003818BF78
S3152000DFE0012040427047054B194411F9050C704732
S3152000DFF06FF0710070476FF06F007047D8D3011E25
S3152000E000012910B50CDC084C084B00290CBF214611
S3152000E010194607F05BFD2146BDE81040FFF7D0BF4B
S3152000E0206FF0740010BD00BF0B0000020A00000252
S3152000E03008B507F08BFDBDE808400149FFF7C0BFD2
S3152000E0400B000002002307B54022019301AB07F025
S3152000E05099FD034903B05DF804EBFFF7B1BF00BF9C
S3152000E0600B000002012910B50CDC084C084B0029D6
S3152000E0700CBF2146194607F029FD2146BDE8104070
S3152000E080FFF79EBF6FF0730010BD00BF09000002AE
S3152000E0900800000208B507F059FDBDE8084001490F
S3152000E0A0FFF78EBF09000002002307B52022019347
S3152000E0B001AB07F067FD034903B05DF804EBFFF7FA
S3152000E0C07FBF00BF0900000210B5044C214607F0AF
S3152000E0D0FDFC2146BDE81040FFF772BF0500000297
S3152000E0E008B507F033FDBDE808400149FFF768BFD2
S3152000E0F005000002002307B51422019301AB07F0A7
S3152000E10041FD034903B05DF804EBFFF759BF00BF9B
S3152000E1100500000238B5134DFFF78EFA124B134A4D
S3152000E1201349144803F088F92B7803F0FF04BBB990
S3152000E1300CF0BAFF012802D90EF074F804462B78A9
S3152000E1402BB90D4B0D481B68984701232B700CF0FB
S3152000E150ABFF012804D92046BDE838400EF078B838
S3152000E16038BD00BF152A00207F51012061510120B2
S3152000E17099510120A3510120C02D00209C20002070
S3152000E180012300F01F02A0F506200949A0F55060E2
S3152000E1904009934051F820201A4341F82020054990
S3152000E1A051F8202022EA030241F82020704700BFC0
S3152000E1B084120020701200200121A0F506230E4AA9
S3152000E1C0A3F550635B0900F01F00814052F823003D
S3152000E1D0014342F823100949D1E9003003448868F5
S3152000E1E00344C868096903445B1802BFC2E90033C7
S3152000E1F0C2E9023313617047701200208412002096
S3152000E2002DE9F04FA9B003921F4604460822DDF8F7
S3152000E210CC80CDE90401414021FA02F34B40980716
S3152000E22002F1080218BF9B00202A1C44F4D1812346
S3152000E230B4FBF3F303EBC313E41A7A4B04F5062479
S3152000E2401B7804F55064002B39D104F013FD0546E4
S3152000E250002840F0DB800146402208A80CF029FD6A
S3152000E2604022294618A80CF024FD6F4EDFF8D091E5
S3152000E270B3460BF10F0ACDF800A0102208A95B4681
S3152000E280D9F8000006F037FA00220146103608AD0C
S3152000E290914242D1CDF800A05B461022D9F8000069
S3152000E2A018A906F031FA4FF0000A834618ADD34577
S3152000E2B03DD15E4B9E42DBD101225A4B1A704FF064
S3152000E2C0810A0026DFF87CB1A4F50625A5F5506362
S3152000E2D05B095BF8232004F01F01CA40D2073BD418
S3152000E2E0534A52F82330CB40DB0727D58123002E13
S3152000E2F008BF2646A5F6FF44B4FBF3F303EBC3138E
S3152000E300E41A04F50624BAF1010A04F55064DBD1B7
S3152000E310039BABB1A6B134461AE055F8040BCDE900
S3152000E3200612FFF72DFF079A06990132B0E755F836
S3152000E330040BFFF741FF0AF1010AB8E7039B23B953
S3152000E3406FF08B0029B0BDE8F08F002E18BF344641
S3152000E350349B00201C60F5E7329B13B10023329AD0
S3152000E3601360B8F1000F02D00023C8F80030102344
S3152000E370DFF8CC9000933A4600232146D9F80000D6
S3152000E380FEF75EF8002839D132993A68294BD9B977
S3152000E3909A4206D02146D9F80000FEF7A9F90028AE
S3152000E3A0CED1D7E90223DDE90410834208BF8A4291
S3152000E3B02FD08123A5F6FF45B5FBF3F303EBC3135B
S3152000E3C0ED1A05F506249EE7102032999A42086038
S3152000E3D0E0D1B8F1000FE4D043462146D9F8000039
S3152000E3E018AAFEF773F848B9329AD8F8003012689E
S3152000E3F093420BD39B1AC8F80030D2E70E4B9842B3
S3152000E400C8D06328C6D00D4B9842CAD06FF0910071
S3152000E41098E7039B002B9BD07B68012B98D16FF04C
S3152000E42084008FE7162A0020006D0800007108007E
S3152000E43070120020105D175EFFDF00F0FEDF00F097
S3152000E440882E00208412002070B5124D2B7803F000
S3152000E450FF04CBB90CF028FE012802D90DF0E2FE0C
S3152000E46004462B784BB90C48436D43F001034365B2
S3152000E4700A4B1B68984701232B700CF015FE0128C8
S3152000E48002D920460DF0E4FEBDE87040044B024858
S3152000E4901B681847172A002098120020C02D00203C
S3152000E4A0B82D0020034B1B781BB1034B03481B6878
S3152000E4B018477047172A0020B42D002098120020F4
S3152000E4C02DE9F04F87B08246894698461646DDF8F4
S3152000E4D040B02AB1002B53D040F26C739A4252D8E6
S3152000E4E0BBF1010F52D8002406F11007394601204E
S3152000E4F0059407F00DFE054600284AD021463A46E7
S3152000E5000CF0D7FBFFF7A0FF05ABCDE90143009444
S3152000E5102B46012250464946FFF772FE044690B12B
S3152000E52010F18C0F08BF6FF08D043A460021284663
S3152000E5300CF0BFFB284607F0CDFDFFF7B3FF2046C2
S3152000E54007B0BDE8F08F144BC5E902A92B60C5F8CA
S3152000E55004B02EB13246414605F110000CF08DFA7A
S3152000E560059E0E483B462A4631460068FEF77CF853
S3152000E57018B93046FFF704FED7E76FF09104D4E7C9
S3152000E5806FF08604DBE76FF09104D8E76FF085041F
S3152000E590D5E76FF08C04D2E7105D175E882E002039
S3152000E5A02DE9F0478CB08146DDE914780C461646F5
S3152000E5B01D466BB1B8F1000F49D0002F47D0B7F1F7
S3152000E5C0005F44D3C3F1005303F500239F423ED896
S3152000E5D04FF0000A1022002108A80CF06AFBCDE9B2
S3152000E5E005AAFFF731FF07AB029305AB019306ABF4
S3152000E5F0214600935246484608ABFFF701FE0446E3
S3152000E600D0B9059B3DB1B3421CD853EA060504D0C8
S3152000E6106FF0860410E0B342FAD3069B0D48C8F883
S3152000E620005000953A46079900683344FDF708FFE5
S3152000E630002818BF6FF09104FFF734FF20460CB076
S3152000E640BDE8F0879B1B9D4228BF1D46E5E76FF07E
S3152000E6508604F3E7882E002070B500260C46054672
S3152000E6608CB01022002108A80CF023FBCDE905660A
S3152000E670FFF7EAFE07AB029305AB019306AB2146F3
S3152000E68000933246284608ABFFF7BAFD0446D8B9B0
S3152000E690099B012B1DD0079D114B29461868FEF7B3
S3152000E6A027F8C8B90122A5F506230E49A3F550631C
S3152000E6B05B0905F01F00824051F82300424028469E
S3152000E6C041F82320FFF778FDFFF7ECFE20460CB03B
S3152000E6D070BD6FF08404F7E76FF09104F4E700BF94
S3152000E6E0882E0020841200202DE9F0410D46144684
S3152000E6F01E46C4B010B96FF086000DE00029FAD08E
S3152000E700002AF8D0002BF6D0038803F44F42B2F546
S3152000E710824F04D06FF0850044B0BDE8F081DAB2B4
S3152000E720122AF7D123F0FF03B3F5E24F27D143880E
S3152000E7303360FBB9E3003360B3F5807FEAD1002371
S3152000E740184642492E19214411F8014D16F8012D7B
S3152000E7501043121B0CBF4FF0FF340024B54203EACE
S3152000E760040343EA0203EFD10028C4D0002BC2DA07
S3152000E7700020D1E7DA1DB4EBD20FDDD0BBE7B3F52D
S3152000E780824F60D10B78042BB5D12822002118A8FE
S3152000E7900CF08FFA18A80DF098FC002850D100270D
S3152000E7A08422394623A822970CF083FA01232022BB
S3152000E7B0394668468DF888300CF07BFA20224FF0D7
S3152000E7C08808013C3946013505940DEB0200E4002A
S3152000E7D0049564080CF06DFA22AD2022394610A863
S3152000E7E00C95CDF834800CF064FAE02CCDE9145861
S3152000E7F0346003D0B4F5807F7FF47DAF144B0734AB
S3152000E800009308934FF4005302934FF48043E40897
S3152000E8106A460A93640010AB08A918A81194FFF75A
S3152000E820ADF933680733DB085A0033B10021531E94
S3152000E830013B297005F10105FAD2002898D05AE744
S3152000E8406FF0920068E76FF0960065E7DFD301204E
S3152000E85020000080F8B5134642880C460732072A66
S3152000E8604FEAD20101D0A1426DD1D0E901670588D6
S3152000E8702022184600210CF01CFA360A034626B13F
S3152000E880012E11D06FF08B00F8BD002C5BD041F229
S3152000E8900102954205D0B5F5885F02D0B5F5905FA7
S3152000E8A01BD15C600020EFE7C660002C4BD041F204
S3152000E8B0010295420BD15C60B90707F001021FD413
S3152000E8C0002AEFD19A6842F080729A60EAE7B5F59D
S3152000E8D0885FF0D0B5F5905FEDD0B5F5105F0AD121
S3152000E8E0182C03D0202C01D0102C2CD1C3E90044A5
S3152000E8F0002ED7D0E0E705F44F42B2F5824F02D082
S3152000E9006FF08500C0E7EAB2122AF9D1202CF7D1A0
S3152000E9100E4A25F0FF05B5F5E24F1A600CD0B5F585
S3152000E920824F10D14FF4005217F4705F09D017F4BC
S3152000E930864F04D09A60E3E74FF48042F4E742F42E
S3152000E94080629A60D4E76FF086009DE72000008001
S3152000E9502DE9F041174600221C4643688CB01B0A5D
S3152000E96080460D46009204D0012B56D06FF08B00C6
S3152000E9708EE0008820F0FF03B3F5824F15D1B8F85A
S3152000E98002200732D208009206F06AFC002800F026
S3152000E990E1800B78042B05D1013FB7EB420F05F13F
S3152000E9A0010503D06FF0860072E00097009E224694
S3152000E9B031464046FFF74EFF002869D1FA1CC4E9CC
S3152000E9C0030522F003026261002E00F0A4802022BB
S3152000E9D0002101A80CF06DF93146404601AAFFF747
S3152000E9E039FF002840F097802368019A9A4240F028
S3152000E9F092806368029A9A4240F08D80A368039AB7
S3152000EA009A4240F08880A369079A9A4240F0838010
S3152000EA10E369089A9A423BD07DE0032FC2D90B784E
S3152000EA20012B40F09A80497800294BD0F7390829E4
S3152000EA309CD801A353F821F0A1EA00205DEA00202A
S3152000EA406DE9002097EA00206DE90020BBEA00204E
S3152000EA506DE90020ABEA0020B3EA00204FF41056FF
S3152000EA60F8253F4F1C22002102A80CF022F903238F
S3152000EA700197CDE90435039601AA09AD134603CBC8
S3152000EA80AB42206061601A4604F10804F6D10020EA
S3152000EA900CB0BDE8F08110274FF08076FA25E1E72B
S3152000EAA020274FF00076F725DCE7FE252C4F2D4E4C
S3152000EAB0D8E7FF252A4F2C4ED4E74FF41056FC25D5
S3152000EAC0274FCFE72B2F7FF66DAF202220460CF065
S3152000EAD0F0F805F110032361AB070DD001AB05F16A
S3152000EAE028061A4628686968083503C2B5421346BF
S3152000EAF0F7D1286801AD10606B68103F2360AB68C2
S3152000EB0069466360EB682046A36001236761E36082
S3152000EB1006F083F828B12022002120460CF0C9F8FF
S3152000EB2040E7B8F80030009E03F44F42B2F5824F1A
S3152000EB300ED1DAB2122A0BD123F0FF03B3F5824F9E
S3152000EB4006D1730062691C339A42BFF43DAFE2E7F7
S3152000EB503346F7E76FF085009AE76FF0910097E765
S3152000EB60200000800044000200440003038810B502
S3152000EB7003F44F42B2F5824F21F0FF0221F4FF71D8
S3152000EB80134C21F0010109D0A1421AD0114B9A420F
S3152000EB9014BF6FF085006FF0860010BDA142DBB276
S3152000EBA00FD00C498A420CD0122B0DD14388B3F5D5
S3152000EBB0807F09D1B2F1062F0CBF00206FF08500AF
S3152000EBC0EBE76FF08600E8E76FF08500E5E700BF2A
S3152000EBD00002000600130006184A20F4FF7323F0F3
S3152000EBE0010393420ED0164B20F0FF029A4209D021
S3152000EBF0144920F47F7323F003038B4202D0124B77
S3152000EC009A4217D110F0FF0017D040F0007000F1A3
S3152000EC107E40053806280DD8DFE800F0040C0C0EDF
S3152000EC2006080A0001207047032070470420704719
S3152000EC30052070470020704702207047000200061A
S3152000EC4000130006000400060009000607B5094B5C
S3152000EC5018689A889B7900906846ADF804208DF84C
S3152000EC600630FEF731FC0C20FEF766FC002003B0D0
S3152000EC705DF804FBFFD3012013B50024064A68463D
S3152000EC80536F43F00103536700948DF80440FEF759
S3152000EC9063FB204602B010BD004000500028ACBFE8
S3152000ECA000F16040064B4FEA0111C9B2ABBF00F537
S3152000ECB0614000F00F0080F800131954704700BF20
S3152000ECC014ED00E008B50DF0B7F90B4B1A7872B9C0
S3152000ECD001221A700DF0ABF96FF0040210460132D2
S3152000ECE0052152B2FFF7DAFF5D2AF7D108BDBDE84C
S3152000ECF008400DF09CB900BF182A0020002807DB29
S3152000ED0001234109034A00F01F00834042F82130C5
S3152000ED10704700BF00E100E0002808DB012243091C
S3152000ED20034900F01F008240603341F823207047DA
S3152000ED3000E100E073B50DF076F90D4D0D4B2E7800
S3152000ED401C680DF06BF90DF0A5FA38B1FF2E05D031
S3152000ED500020297801AA05F0B7F9019C2CB90DF0FD
S3152000ED6062F9054B1C680DF059F9204602B070BDBA
S3152000ED70092F0020FC1200200013002010B50446A5
S3152000ED800DF051F9024B1C600DF048F9002010BD22
S3152000ED900013002013B5002301241A4619461846ED
S3152000EDA0009402F0BBFE002300941A46194618462A
S3152000EDB002F0E6FE0248FFF7E1FF002002B010BD98
S3152000EDC0982D002007B5684600F030F8DDE90001EF
S3152000EDD00022034B03B05DF804EB07F0AFBB00BF86
S3152000EDE00413002007B5009313460A46014603483C
S3152000EDF006F08DFF03B05DF804FB00BF041300206E
S3152000EE0013460A460146014807F06CB80413002051
S3152000EE1007B5009313460A460146034807F05CF9F6
S3152000EE2003B05DF804FB00BF041300200249034A27
S3152000EE300160521A42607047F038002000A000207E
S3152000EE400048704704130020002307B50193054BA3
S3152000EE501B680DF0DFFB019B002BFCD003B05DF897
S3152000EE6004FB00BFA82D0020EFF305830F2B84BFE2
S3152000EE70034A9B5C4FF0E023D3F80C3D704700BF5C
S3152000EE80F0E300E030B5074C256824686A40D2B22A
S3152000EE90891A101A090A41EA1021634023EA01005F
S3152000EEA0C0B230BDD01E0020044B1B68584043081A
S3152000EEB05B4240421843C017704700BFD01E002057
S3152000EEC0054B01311B680132434022EA0302084008
S3152000EED00243501E00B27047D01E00202DE9F04F8D
S3152000EEE0834699B00F46184600211646049307F02C
S3152000EEF0A8FF002800F0878100240125774B3046A3
S3152000EF001493049915ABCDE90B45CDE90D45CDE913
S3152000EF100F45CDE91145139307F01CFFA04228DACF
S3152000EF20BBF1000F05D1E7B90024204619B0BDE892
S3152000EF30F08F2146584607F082FE04460028F2D07C
S3152000EF400BA807F0D1FD0DA807F0CEFD0FA807F0FE
S3152000EF50CBFD11A807F0C8FD0C2115A801F0B0FAC9
S3152000EF60E3E73146384607F035FE04460028E7D168
S3152000EF70DAE731460BA807F02DFE04460028DFD13C
S3152000EF8004990DA807F026FE04460028D8D1F1885A
S3152000EF900FA80231ADF83850ADF8305007F0B2FD69
S3152000EFA004460028CCD101460FA807F048FE0446A7
S3152000EFB00028C5D1F18811A8023107F0A3FD044627
S3152000EFC00028BDD10DA807F079FE00F01F001F28EC
S3152000EFD073D0C0F11F0319460BA8019307F094FEC6
S3152000EFE004460028ACD101990DA807F08DFE0446F1
S3152000EFF00028A5D1BDF83250BDF83A800DA8A5EB62
S3152000F000080A4FEA4A19494607F07EFE04460028B8
S3152000F01096D14FEA8A0A0DA90BA807F0CAFE002846
S3152000F0204DDA49460DA807F08CFE0446002887D104
S3152000F03008F1FF3302939B0005F1FF3A069305F191
S3152000F040804508F18043023B013D9B00A5EB080566
S3152000F0500993AB000393029B9A4541D8BBF1000F5D
S3152000F0600DD058460FA907F0B5FD002840F0C780FF
S3152000F070049AB388928813FB02F3ABF80430002F6E
S3152000F0803FF45EAF01990BA807F05BFE002840F025
S3152000F090B680B3880BA93846ADF8303007F09AFD14
S3152000F0A00146002840F0AD80384607F0CAFE002809
S3152000F0B07FF446AF0123BB8042E701949AE70F9A7B
S3152000F0C00BA952F80A300846013342F80A300DAA35
S3152000F0D007F09CFF044600289DD031E7010003007D
S3152000F0E00D9B069A05931344DDF82C900893059BF7
S3152000F0F04FEA8A089A5859F82A10A8F104030F9D56
S3152000F1000793039B91421D4474D20798002359F814
S3152000F110000003F025FE002914BF4FF0FF330346FD
S3152000F120BAF1010F2B600EBF002309EB080353F839
S3152000F130083C099A1593079B59F80330169359F8FA
S3152000F140083017932B6801332B60059B1344984690
S3152000F1502B680021013B2B6011A807F070FD0028C9
S3152000F1604DD1029B002B48D0D8F80020119B11A925
S3152000F1701A60089A084612685A602A6807F0CEFF75
S3152000F18000283CD113A911A807F013FE0028DFDCC4
S3152000F1902A680DA911A807F0C1FF80BB039B11A8FF
S3152000F1A04FEAC308414607F0AFFD40BB0BA908460E
S3152000F1B011AA07F02BFF014618BB0BA807F041FE4A
S3152000F1C0002812DA0DA911A807F004FDB8B94146A6
S3152000F1D011A807F099FD90B90BA9084611AA07F0C6
S3152000F1E012FF60B92B68013B2B60039B0AF1FF3AA3
S3152000F1F0043B2FE74FF0FF3392E7029AB6E7044627
S3152000F2009EE60C469CE66FF00B048EE6044B1B68CC
S3152000F210584043085B4240421843C017704700BF1E
S3152000F220D01E002010B50B4C22682368424059405E
S3152000F23081EA0200C00FFFF7E9FF2368521A434014
S3152000F24022EA030208401043C00FBDE81040FFF732
S3152000F250DDBF00BFD01E0020F8B50D460146286848
S3152000F2601746FFF7DFFF0124C143074B1E68BC4248
S3152000F27002D346EA0100F8BD55F82400FFF7C6FF81
S3152000F28001340643F3E700BFD01E00202DE9F047E6
S3152000F29007460F4B88461E6819681D68541E631C56
S3152000F2A002D13046BDE8F08758F824A057F82490BC
S3152000F2B050464946FFF7B6FF514605434846FFF7F5
S3152000F2C0B1FF20EA05031E430543013CE7E700BFE3
S3152000F2D0D01E00208842F0B504D00025084F0438FF
S3152000F2E0AA4200D1F0BD3E6850F8044F5E4024EAA1
S3152000F2F0060451F8256001351E4034430460EFE7CB
S3152000F300D01E00202DE9F04F1C4685B0DFF88490F2
S3152000F3100391064621461046D9F80030D9F8003028
S3152000F32008F04CF9C51D272D90468CBF4FF01E0ABC
S3152000F3304FF0FA0AEB0825F0070502932D1A0F9BCA
S3152000F3402146009330460E9B029A08F034FB07466E
S3152000F350C0B92A462146304608F0A9F9BAF1010A71
S3152000F36014D0224631460398FFF776FF224683467D
S3152000F37041463046FFF78AFFD9F800200BEA000302
S3152000F3809A42DCD0384605B0BDE8F08F6FF00D0705
S3152000F390F8E700BFD01E002070B50C460646114681
S3152000F3A020461A4607F04EFE0546A0B9B36C33B97F
S3152000F3B021462046321DBDE8704007F0E0BEB4F974
S3152000F3C00430002B09DB204607F078FCF36BB0EB0A
S3152000F3D0430F09D9184D284670BD0146204607F02F
S3152000F3E030FD0028EFD0F5E72046B36C9847054658
S3152000F3F00028F0D10436B4F90430002B04DA0021B9
S3152000F400204607F01EFD68B93146204607F0D1FC9C
S3152000F4100028E0DB32462146204607F072FD002810
S3152000F420F2D006E032462146204607F0ECFD0028C1
S3152000F430E1D00546CFE700BF80B0FFFFF0B5144608
S3152000F4401F46054685B002A80E4607F048FB234610
S3152000F450022100972A1D02A807F03FFF044648BB59
S3152000F46006F110021146284602ABFFF795FF044627
S3152000F47000BB06F108073A463946284602ABFFF795
S3152000F4808BFF0446B0B902AB1A4619462846FFF749
S3152000F49083FF044670B932463146284602ABFFF751
S3152000F4A07BFF044630B93A463946284602ABFFF779
S3152000F4B073FF044602A807F017FB034814F10E0F4A
S3152000F4C018BF204605B0F0BD00B3FFFF0246044832
S3152000F4D003780BB9184670479342FCD00C30F7E7F7
S3152000F4E028D401202DE9F14F9A461B6904460E4681
S3152000F4F091460A9D1BB9724801B0BDE8F08F02F112
