S01C00006275696C642F64656275672F67656E657261746F722E7333379C
S31508000000001000204D2400086BCF00086BCF0008B5
S315080000106BCF00086BCF00086BCF00086BCF0008CA
S315080000206BCF00086BCF00086BCF000801040008EF
S315080000306BCF0008A83B01089103000861E000089F
S315080000406BCF00086BCF00086BCF00086BCF00089A
S315080000506BCF00086BCF00086BCF00086BCF00088A
S315080000606BCF00086BCF00086BCF00086BCF00087A
S315080000706BCF00086BCF00086BCF00086BCF00086A
S315080000806BCF00086BCF00086BCF00086BCF00085A
S315080000906BCF00086BCF00086BCF00086BCF00084A
S315080000A06BCF00086BCF00086BCF00086BCF00083A
S315080000B06BCF00086BCF00086BCF00086BCF00082A
S315080000C06BCF00086BCF00086BCF00086BCF00081A
S315080000D06BCF00086BCF00086BCF00086BCF00080A
S315080000E06BCF00086BCF00086BCF00086BCF0008FA
S315080000F06BCF00086BCF00086BCF00086BCF0008EA
S315080001006BCF00086BCF00086BCF00086BCF0008D9
S315080001106BCF00086BCF00086BCF00086BCF0008C9
S315080001206BCF00086BCF00086BCF00086BCF0008B9
S315080001306BCF00086BCF00086BCF00086BCF0008A9
S315080001406BCF0008753200086BCF00086BCF00082C
S315080001506BCF00086BCF00086BCF00086BCF000889
S315080001606BCF00086BCF00086BCF00086BCF000879
S31508000170F0B5114A114C124E00F00105E3695F070C
S3150800018013D40DB9334213D103EA00078F4207D1BE
S315080001900B4A1A40002A14BF6FF001000020F0BD78
S315080001A0013AEBD16FF00200F9E74FF0FF30F6E7BE
S315080001B06FF00100F3E700BF809698000000035037
S315080001C0020001000B4B70B5D96911F480310DD1CD
S315080001D001244FF48072084E084DF46020462C64C2
S315080001E01A61FFF7C5FF3464EC6070BD6FF001005B
S315080001F0FBE700BF00000350001003500020035027
S315080002004FF4803238B50E4B0E4C9A66E56941F6C6
S31508000210713315400122E3630B4B0021DA60022398
S31508000220606121202361FFF7A3FF10B92120FFF7A2
S315080002309FFF0122054BDA600DB10023E36338BD49
S315080002400090005000000350001003500020035097
S3150800025070B5134C6061E3695B071ED40E4656F809
S31508000260043B8D18A361AE420BD104230021212043
S315080002702361FFF77DFF58B9BDE870402120FFF7DD
S3150800028077BF08210846FFF773FF10B104232361DF
S3150800029070BD56F8043BA361E5E74FF0FF30F7E77A
S315080002A0000003502DE9F84315464FF48032184BE9
S315080002B089469A6603F51C33DF690646174041F6F8
S315080002C07132DA63012203F58053DFF84C80DA6075
S315080002D055B9284601220F4BDA601FB10022A3F553
S315080002E00053DA63BDE8F88306F5005404EA080407
S315080002F0A41BAC4228BF2C46494622463046FFF787
S31508000300A7FF0028E6D12644A1442D1BE0E700BF3D
S31108000310009000500020035000E0FFFFA2
S315080003200B4A1168086806C881F30B88022181F315
S315080003301488203080F30988BFF36F8F4FF00000D0
S3150800034080F31188104700BFAFF30080AFF3008039
S315080003501C20002000000000000000000000000033
S3150800036007480068006880F3088862B661B6BFF37C
S315080003704F8FBFF36F8F02DF00BF00BFAFF3008060
S3150800038008ED00E00000000000000000000000008A
S31508000390EFF309801EF0100F08BF20ED108AEFF367
S315080003A00B82734620E9FC0F114A116808604FF06A
S315080003B0300080F31188BFF34F8FBFF36F8F05F0BE
S315080003C0DBFB4FF0000080F31188094A11680868C2
S315080003D0B0E8FC0F13F0100F08BFB0EC108A82F3D8
S315080003E00B8880F309881847AFF30080AFF30080C5
S315080003F01C20002000000000000000000000000093
S315080004001EF0040F0CBFEFF30880EFF309800449D0
S31508000410084700BFAFF30080AFF30080AFF300805A
S315080004203BE100080000000001292DE9F04F4AD8F9
S3150800043089B30FF2D40BDBE900AB0FF2D409D9E983
S31508000440008935A7D7E9006735A5D5E9004536A35C
S31508000450D3E900239FED1E5B9FED1F6B9FED207B6D
S315080004609FED214B80ED045B80ED004B80ED024B48
S3150800047080ED066B80ED087BC0E90AABC0E90C8904
S31508000480C0E90E67C0E91045C0E91223C0F8D010CC
S315080004900020BDE8F08F9FED165B0FF2940BDBE9A9
S315080004A000AB0FF29409D9E9008925A7D7E90067B7
S315080004B025A5D5E9004526A3D3E900239FED0E6BB4
S315080004C09FED0F7BCCE76FF07400E2E7AFF3008097
S315080004D0D89E05C15D9DBBCB07D57C362A299A6275
S315080004E017DD70305A015991000000000000000025
S315080004F008C9BCF367E6096A3BA7CA8485AE67BB29
S315080005002BF894FE72F36E3C39590EF7D8EC2F157A
S31508000510310BC0FF6726336711155868874AB48EB2
S31508000520A78FF9640D2E0CDBA44FFABE1D48B547FC
S31508000530F1361D5F3AF54FA5D182E6AD7F520E51D1
S315080005401F6C3E2B8C68059B6BBD41FBABD9831F8B
S3150800055079217E1319CDE05B0348044B834202D010
S31508000560034B03B118477047843F0020843F00209F
S3150800057000000000064B0749C91A891048BF013117
S31508000580491003D0044B0BB101481847704700BF08
S31508000590843F0020843F00200000000010B5064C70
S315080005A0237843B9FFF7D8FF044B13B10448AFF3D8
S315080005B000800123237010BD8C2900200000000054
S315080005C05044010808B5054B1BB105490548AFF36A
S315080005D00080BDE80840FFF7CDBF00BF000000005F
S315080005E05010002050440108A3F5803A704700BF18
S315080005F0174B002B08BF134B9D46FFF7F5FF00214D
S315080006008B460F461348144A121A11F081FD0E4BF9
S31508000610002B00D098470D4B002B00D098470020A0
S31508000620002104000D000D48002802D00C48AFF345
S31508000630008009F04BFC2000290011F0D7FC09F0D6
S315080006405DFB00BF0000080000000000000000007D
S315080006500010002000100020603400200000000078
S315080006600000000010B58CB004460BF04EFA0021CD
S31508000670102208A811F04CFD01230E4A02A8CDE964
S3150800068003230D4B059407934FF4705302930BF015
S315080006902FFA029B06930CF07AFF0023000240F023
S315080006A00100049001A903A8019310F0E2FD0CB023
S315080006B010BD00BF127100010906000670B58CB0A6
S315080006C00C46154606460BF020FA0021102208A80B
S315080006D011F01EFD0123114A02A8CDE90323104B90
S315080006E0059607934FF4705302930BF001FA029B99
S315080006F006930CF04CFF0023000240F0010021464F
S315080007002A460490019303A801AB10F0A6FB044601
S3150800071003A810F06DFE20460CB070BD12710001E2
S315080007200906000610B50A4B86B014460293002344
S31508000730059103901A46CDE90033214405A80EF029
S3150800074094F9002814BFAC20002006B010BD00BFE5
S315080007502DBB00082DE9F041BEB0449D98462B6894
S3150800076004460E461746002B56D06B68B3F5007F35
S3150800077052D302A811F0B5FB4022002106A811F0B9
S31508000780C7FCD8F804308BB1CDE900674021D8F80A
S315080007900030224A06A809F0D3FA06A902A811F0E1
S315080007A0B7FB58B1AC203EB0BDE8F08133464021D6
S315080007B01B4A009706A809F0C3FAEEE7092102A822
S315080007C011F0A2FB2068FFF74DFF16A80FF027FFD0
S315080007D0216816A806F0CEFD04460028E2D116A91F
S315080007E002A811F093FB00942346D5E9001202A84B
S315080007F008F030FF04460028D4D1286811F0C7FC59
S315080008006B680130984201D911F01FFC686002A894
S3150800081011F06BFB2046C6E72F20C4E7082D010818
S31508000820222D01082DE9F0414FF040080C460646F6
S3150800083096B006AF002115463846424611F068FCC8
S3150800084005ABCDE901830097D4E900230F49306849
S31508000850CDF8148010F02AFC0446A0B9059E6B68F2
S315080008609E420ED832463946286811F083FC6B68DA
S315080008709E4201D911F0E9FB20466E6016B0BDE82C
S31508000880F0811920FAE7AC20F8E700BF0906000650
S31508000890044808B500680DF01FFB002814BFAE20F9
S315080008A0002008BD2836002008B5034B18680DF04F
S315080008B002FB002008BD00BF2836002038B50446D4
S315080008C00D4620460BF041F92B7C002857D0052B06
S315080008D059D0032B19D0042B3AD0012B01D0032071
S315080008E03AE00222214628460BF0EDF9002833D1DA
S315080008F0294628460BF02BFA70BB95F82430002BB6
S315080009000CBF032305232B74DBE795F825209AB142
S31508000910214628462A7F0BF0D6F9E8B92946284603
S315080009200BF056FAC0B995F8253073B90223AA69AF
S315080009301A442A620423E6E72B7D013BDBB2022B2D
S315080009409CBF124AD25CAA61F0E72B7F0233EEE71E
S3150800095095F824300BB1232038BDAA690AB91820A6
S31508000960FAE7214628460BF0AEF90028F4D12946C5
S3150800097028460BF055FA0028EED10523C3E7052BC8
S3150800098001D00D20E8E70020E6E700BFC1380108DE
S315080009902DE9F04100240546A046154F86B000F122
S315080009A0AC06304601ABC4F500723919CDF804809F
S315080009B0FFF76EFFC0B194B10E4B04AA04934FF42F
S315080009C0007302A92846CDE9027405930BF0D6FBFD
S315080009D0DDE9041285F8C0003046FFF765FF95F893
S315080009E0C00006B0BDE8F081019B1C44D9E700BFF2
S315080009F08D2B00208D2900200048704768100020A4
S31508000A000021174B10B5174C03F19802626003F1E9
S31508000A10E0022360A26003F58673802204F12800B1
S31508000A20C4E90411C4E90611C4E90811E36011F028
S31508000A306FFB0D4B2046C4F8A8300C4BC4F8B440E5
S31508000A40C4F8B0300A4BC4F8BC40C4F8B830012327
S31508000A50084A84F8C0300849BDE8104011F0F0BAD9
S31508000A609439010868100020D43A0108CC380108E6
S31508000A70E03801080C36002051C100087FB50E4643
S31508000A80002304460DF10601304615468DF806305A
S31508000A9002938DF8073003930BF036FA58BB9DF88E
S31508000AA00630013B032B01D92F2024E0304602A94A
S31508000AB00BF05CFAF8B930460DF107010BF024FA91
S31508000AC0C8B94FF400723046224903AB0BF067FAF7
S31508000AD088B99DF80630013B032BE5D8DFE803F01B
S31508000AE0020D151D4FF4CB7160681A4A0368DE6A59
S31508000AF0039BB047C8B104B070BD606840F2951159
S31508000B000368144ADE6A039BF3E7606840F29311B0
S31508000B100368104ADE6A039BEBE760684FF4C1710D
S31508000B2003680C4ADE6A039BE3E760680CF048F842
S31508000B30044608B12046DEE7029928460BF0C3F9B9
S31508000B40214628460BF0BFF9284603990BF0BBF956
S31508000B50F0E700BF993100200023F0B506460D46A0
S31508000B60144685B0ADF80A308DF80930AB682968A7
S31508000B70EA688B4294BF00235B1A8A4294BF00221C
S31508000B80521A9A4201D1002034E028460DF10A0192
S31508000B900BF0D3F970BB28460DF109010BF0B4F937
S31508000BA040BB2046BDF80A100BF07FF910BB204663
S31508000BB09DF809100BF06BF9E0B99DF80930013B77
S31508000BC0032B56D8DFE803F002182C3E0023706882
S31508000BD08DF80C300368BDF80A10DB6803AA98473D
S31508000BE0D82800D030B920469DF80C100BF04FF9E4
S31508000BF00028BBD005B0F0BD00237068ADF80C30F6
S31508000C000368BDF80A105B6903AA9847D82801D07B
S31508000C100028EFD12046BDF80C100BF046F9E7E79F
S31508000C200023706803930368BDF80A10DB6903AAFA
S31508000C309847D82801D00028DCD1204603990BF024
S31508000C4042F9D5E700237068039303AA0368009264
S31508000C509F6A094A4FF40073BDF80A10B847D828A6
S31508000C6001D00028C6D12046039A03490BF039F96A
S31508000C70BEE72620BEE700BF99310020F0B5CB7845
S31508000C800C461546806885B003B9A830A378032BAF
S31508000C905AD8DFE803F041021A2E00268DF80C60B8
S31508000CA003682188DB6803AA9847D82802D050B180
S31508000CB005B0F0BD31462A4620880BF0FAF900281F
S31508000CC0F6D10020F4E703A9F5E700260368218892
S31508000CD05B69ADF80C6003AA9847D82803D00028AA
S31508000CE0E6D103A900E031462A4620880BF0F4F93C
S31508000CF0E5E7002603682188DB69039603AA984777
S31508000D00D82803D00028D3D103A900E031462A46C3
S31508000D1020880BF0F5F9D2E70026036803AA0092AB
S31508000D209F6A0A4A4FF4007321880396B847D82861
S31508000D3003D00028BCD1054900E031462B46039A6A
S31508000D4020880BF0F1F9BAE72620B1E7993100209F
S31508000D502DE9F341054608460C460AF003FF064608
S31508000D6078B125480AF0F1FE58B186423246224942
S31508000D7028BF024620460AF08AFF10B102B0BDE835
S31508000D80F0811E4F1C4E27E03368013AC6E902334C
S31508000D90D7F80031C7F8042157F82300013303F0C8
S31508000DA03F030190C7F800312846CB69124A01A9CA
S31508000DB098470028E2D120460AF0D4FE80463046FD
S31508000DC00AF0C3FE80454246314628BF0246204601
S31508000DD00AF05DFF0028D1D120460AF0C3FE296833
S31508000DE018B1D7F80421002ACED12846CB6802B01C
S31508000DF0BDE8F041184700BF341200202C1100202E
S31508000E0070B504460D460E4E28460AF09EFE28B9D1
S31508000E1023682046BDE870409B6818473146284637
S31508000E20FFF74CFD0D28EFD048B9236820469B698B
S31508000E300349984718B902480BF01FFDE4E770BD4F
S31508000E406412002091F8273070B505460C464E8A84
S31508000E502BB10A7D0F4831460BF01EFDC8B96FF459
S31508000E6080731E44032E13D8DFE806F00206040931
S31508000E70E36AEB6000200CE0E36A2B61FAE794F87A
S31508000E80243083F001032B7603B1E36A6B61F1E743
S31508000E90A62070BD2C11002008B503480A7D498A92
S31508000EA00BF0FAFC08BD00BF2C11002091F8263083
S31508000EB070B50C46866803B9A83694F82730257DA0
S31508000EC02BB12A46618A17480BF0E6FC48BB032D6E
S31508000ED026D8DFE805F016020E1133689B6894F8E9
S31508000EE02420618A5AB904F12C023046BDE87040C4
S31508000EF0184733681B69F2E733689B69EFE70022F6
S31508000F00F3E73368618ADD6A94F8243033B9E26A14
S31508000F103046AC46A369BDE8704060470022F7E753
S31508000F20262070BD2C1100200A46498A10B5B1F555
S31508000F30A27F16D008D840F20513994218D0B1F509
S31508000F40A17F0ED0A62017E040F2A1139942F9D14D
S31508000F5080680368DC6A9369A446BDE81040D26AD3
S31508000F60604780682C320368BDE810401B69184743
S31508000F70127D02480BF090FC10BD00BF2C1100201A
S31508000F802DE9F04100254B6892B0052B07468846A7
S31508000F9016468DF805508DF806508DF8075040F224
S31508000FA0B5800A68023B13440DF1050102A8CDE994
S31508000FB00333029205920AF0A4FE0446002840F084
S31508000FC0A1800DF1060102A80AF09BFE044600283E
S31508000FD040F098800DF1070102A80AF092FE044637
S31508000FE0002840F08F80D8F804203368802A00F261
S31508000FF0888072687F2A40F2878003F108027E3370
S31508001000CDE907329DF806300692013B0992042B7A
S3150800101075D8DFE803F03603666D5E000020089A8F
S31508001020069B9A4288BFD41AE5B204463368002163
S3150800103003F10802CDE907230AA82022069309939B
S3150800104011F066F8022106A80AF099FD9DF8061027
S3150800105006A841F080010AF092FD9DF8071006A83F
S315080010600AF08DFD214606A80AF0AEFD294606A817
S315080010700AF085FD726805F10A03934248D910F013
S31508001080E4FF012200257B682B480C932B4B8DF837
S315080010902C200A932A4BCDE90D5503F50172C0E9B8
S315080010A001230360C3600F958DF840500BF0E5FBF4
S315080010B0244A254B02F50271C3E901121A60DA6067
S315080010C0224BC3F8045106AA02A90AA80BF009FC88
S315080010D0A5E701227B688DF82C200C931C4B0A93FC
S315080010E0F1E703227B688DF82C200C93194BF6E761
S315080010F004227B688DF82C200C93174BEFE72A20E7
S315080011008DE7C224002591E71924FBE719248DE70A
S31508001110083573600AAA2946306800F04DFF9DF825
S315080011200600BDF82820023818BF012033685A5334
S3150800113012B0BDE8F08100BF64120020F43801083F
S31508001140952F00208D2D0020341200202C11002010
S315080011501C390108443901086C39010838B50024DE
S315080011600125144B144803F50172C0E901230360F5
S31508001170C360C0E908440574448204758461047731
S3150800118084620BF07AFB0D4B0D4803F50272C0E939
S3150800119001230360C360C0E90844057444820475EA
S315080011A08461047784620BF068FB064BC3E940440C
S315080011B038BD00BF952F0020641200208D2D002019
S315080011C0341200202C11002010B440F26314A142FE
S315080011D0034612D0B1F5B27F07D2B1F5827F20D08F
S315080011E0B1F5B17F18D0A62009E040F297108142E8
S315080011F0F9D102B112685A6211E01AB92F205DF8C6
S31508001200044B704711680A4BA1F57A729A42F5D8D1
S315080012105DF8044B00F0C2BD02B112681A620020E4
S31508001220EDE7002AEAD011685DF8044B00F082BEAB
S31508001230B88201002DE9F041002486B08846174699
S315080012401E460B2201AB03A9CDE90344CDE90144AF
S31508001250CDF8134000F05EFD0446002834D1019D08
S315080012600A2D0BD02F2401200BF038FE40B30121A4
S315080012701F20184A03AB0BF024FE21E02A4602A9D8
S3150800128003A808F0FFFD029A04AB9A42A8F80000EA
S31508001290E8D12A4602A90DF1110008F0F3FD029AD9
S315080012A00DF113039A423870DCD12A4602A905A823
S315080012B008F0E8FD029A0DF116039A423070D1D172
S315080012C0204606B0BDE8F08140F201239842F7D0E7
S315080012D0C9E700BF472D01080023F0B587B0019381
S315080012E00C46D1E9001201AB00F020FD40F20123C3
S315080012F0984225D102AD2A46144B03F110072E4613
S3150800130018685968083303C6BB423546F7D163687F
S315080013100F2B02D8192007B0F0BD256806AE134674
S3150800132003CBB342286069601A4605F10805F6D171
S3150800133010230193019B6268934204D910F085FE3D
S315080013400028E8D1F6E700206360E4E7BC3A010824
S31508001350F0B5B1F5AA7F97B0154606461A461C9C05
S315080013603CD8B1F5A07F09D840F20513994266D05A
S3150800137040F2111399425BD0A6205EE06FF4A07389
S3150800138019441329F8D801A353F821F07914000851
S3150800139079130008931400087913000899140008B3
S315080013A09F140008A5140008AB1400087913000858
S315080013B079130008791300087913000879130008CF
S315080013C079130008791300087913000879130008BF
S315080013D0B1140008B7140008C1140008B1F5C17F9C
S315080013E000F08B800ED840F2651399427BD0B1F598
S315080013F0B37F7DD0B1F5B27FBED12346294600F032
S31508001400E9FC19E040F29313994200F0848040F217
S3150800141095139942B0D1CDE90D5205B9EAB93368A9
S315080014203046D3F880300DA9984730B90E9B21E095
S315080014302346294600F090FD48B317B0F0BD00F1E9
S3150800144028073846039210F0A2FE039A0130CDE928
S3150800145006050597089215B90AB110F0F6FD07AB0F
S3150800146000933046728A318A05AB00F01FFD0028CA
S31508001470E3D1089B23600AE003681B6B29463046C4
S3150800148098470028D9D1284610F081FE2060002010
S31508001490D3E703689B6BF1E703681B6CEEE7036809
S315080014A05B6CEBE703689B6CE8E70368DB6CE5E7D6
S315080014B003685B6DE2E72346294600F02BFCBBE791
S315080014C021230C9303680DAF0392DB6D0B970BA9D1
S315080014D09847039A0028B0D1134620212A46384651
S315080014E00BF0E8FCD2E72346294600F07FFCA3E789
S315080014F02346294600F03CFD9EE7CDE909530DB980
S31508001500002BAAD1336830469B6F09A99847002853
S3150800151093D10A9BAEE7CDE90B520DB9002A9CD1AF
S3150800152033683046DB6F0BA99847002885D10C9B9A
S31508001530A0E700BF70B54B680646602B0C461546FB
S31508001540A4B028D98622002102A810F0E1FD0023C4
S3150800155086220193304601AB02A900F047FC40F20F
S315080015600123984210D184220C4902A8019210F056
S3150800157001FE2268019902A800F034FD286063681C
S31508001580984205D910F061FD0028F2D024B070BD4C
S3150800159060600020FAE71920F8E700BF662D010809
S315080015A070B596B005462E220C460AA8002110F002
S315080015B0AFFD00232E220193284601AB0AA900F0AD
S315080015C009FC40F20123984225D118230193164BB2
S315080015D00AAD03F118062A4618685968083303C283
S315080015E0B3421546F7D12022002102A810F090FD3B
S315080015F0019902AA0AA800F0F5FC63680546984214
S3150800160010D8024602A9206810F0B4FD63689D420E
S3150800161005D910F01AFD0028E5D016B070BD0020D7
S315080016206560FAE71920F8E7EB2D010870B5B1F502
S31508001630B27F054616461C4692B000F0078117D8B9
S3150800164040F21113994260D06FF4A07319448BB21B
S31508001650132B26D8132924D8DFE801F05E236B2341
S315080016607885929F232323232323232323ACC7D4BC
S3150800167040F29313994200F02E81B1F5CA7F1DD22C
S3150800168040F28113994200F01381B1F5C17F0AD265
S3150800169040F26513994200F0E480B1F5B37F00F09B
S315080016A0E780A62098E0FCD13146224609A80BF02F
S315080016B073FA284609A900F09FFB8DE040F2A113B2
S315080016C0994200F01C81B1F5D17F11D240F29513F1
S315080016D0994200F00A81B1F5CB7FE2D13146224624
S315080016E009A80BF059FA284609A900F0CDFB73E0C2
S315080016F0D7D1002AD5D03146224609A80BF04CFA94
S31508001700284609A900F046FC66E02246314612B092
S31508001710BDE8704000F01ABC02B13CB9002282490B
S31508001720284612B0BDE8704000F018BA2246314685
S31508001730F6E702B13CB900227B49284612B0BDE85B
S31508001740704000F033BA22463146F6E702B13CB99A
S3150800175000227549284612B0BDE8704000F04EBA1E
S3150800176022463146F6E702B13CB900226E492846C0
S3150800177012B0BDE8704000F053BA22463146F6E78B
S3150800178002B13CB900226849284612B0BDE870404B
S3150800179000F058BA22463146F6E702B13CB90022B3
S315080017A06149284612B0BDE8704000F05DBA22468D
S315080017B03146F6E702B18CB92022002109A810F0BB
S315080017C0A7FC2021594AAB8A09A808F0B9FA09A941
S315080017D00246284600F06EFA12B070BD224631461F
S315080017E012B0BDE8704000F065BA02B13CB90A22F1
S315080017F04F49284612B0BDE8704000F085BA224627
S315080018003146F6E702B1B4B9102105A80BF02FFA54
S31508001810022310210093212309AA05A80BF009FB2E
S315080018200028D9D109A810F0B2FC09A90246284611
S3150800183000F076FAD0E7102C01D92F20CCE7022346
S31508001840214600933046212309AAE7E7002AF4D067
S31508001850002BF2D01A46314612B0BDE8704000F0AF
S31508001860B3BA2246314612B0BDE8704000F0B8BAA5
S3150800187002B1B4B90023CDE90933CDF82B302B6A70
S3150800188009A80293EB8A0193EB6900936A8A298A6D
S31508001890AB690BF03CF90B22284609A900F062FB5C
S315080018A09AE72246314612B0BDE8704000F05ABBAE
S315080018B002B154B9002305AACDE909238DF81430DD
S315080018C0284609A90BF0BAF986E72246314609A83F
S315080018D00BF062F9F4E73146224609A80BF05CF9E9
S315080018E0284609A900F0A0FA76E73146224609A853
S315080018F00BF052F9284609A900F0AEFA6CE732B99E
S3150800190080223146283010F003FC002064E77F2C43
S3150800191093D822463146283010F02CFC00232C445C
S3150800192084F82830F1E700BF02310108042E0108C7
S31508001930072E0108012903BF034B00201B78A620A8
S3150800194008BF1370704700BFB9330020022938B5A5
S3150800195014461D460FD120220021084810F0D8FB56
S315080019603CB1202D2A46214628BF2022034810F0E4
S3150800197001FC002038BDA620FCE700BF99330020F3
S31508001980104608B56AB163B102290CD1202B28BFCD
S3150800199020231A46029B05491A6010F0EBFB00202B
S315080019A008BD2F20FCE7A620FAE700BF99330020E0
S315080019B0012905D102B11278024B00201A7070472E
S315080019C0A6207047B93300202DE9F0431D460023B1
S315080019D089B0074608460E461446CDE9053300F099
S315080019E09DFB18B9D82009B0BDE8F083304605A993
S315080019F000F0F6FB0028F6D1204600F08FFB002801
S31508001A00F0D0204606A900F0EBFB0028EBD1DDE973
S31508001A100596079007A9154800F0E2FB044600BBA7
S31508001A20079919EB010802D10EB110F00EFB02203E
S31508001A300BF054FA48B1079B022100931F203B463E
S31508001A40CDE901960A4A0BF03CFA6B689E420AD821
S31508001A5032464146286810F08DFB6B689E42E4D8F2
S31508001A606E602046BFE71924FBE700BF2172080015
S31508001A70122E01080023F0B585B007460E46254804
S31508001A8003A91546039300F0ABFB002840D1224C6E
S31508001A90236813B9039811F02FF9D5E900121F4BE3
S31508001AA0184610F067FB03466868B0F5007F05D254
S31508001AB0C0F50072FF21184410F02AFB02200BF033
S31508001AC00DFA48B16B680221019323681F20009321
S31508001AD0134A039B0BF0F5F9236803980F494FF453
S31508001AE00072184411F00CF93846216800F056FCCB
S31508001AF070B93046696800F051FC48B90020226880
S31508001B006B68134413F03F021CBF40339B1A2360D3
S31508001B1005B0F0BD2172080094120020993100200A
S31508001B20302E010800200A4B10B5186032B9094C4E
S31508001B302146BDE81040084800F030BCA1F5005128
S31508001B408C1801F0D7FA204607F0E0FEF0E700BF50
S31508001B509412002000E00F0821720800014800F0E6
S31508001B6035BC00BF00720800002307B5034801937F
S31508001B7001AB00F059FB03B05DF804FB00720800E6
S31508001B80014800F0F3BB00BF0C72080010B5064808
S31508001B900C4600F0FDFA40F20123984202BF4FF6C8
S31508001BA0F1730020238010BD0C720800014800F074
S31508001BB00DBC00BF0D720800002307B5034801934A
S31508001BC001AB00F031FB03B05DF804FB0D720800B1
S31508001BD0014800F0CBBB00BF0B72080010B50648E1
S31508001BE00C4600F0D5FA40F20123984202BF48F2AB
S31508001BF001030020238010BD0B720800014800F085
S31508001C00E5BB00BF0E720800002307B50348019321
S31508001C1001AB00F009FB03B05DF804FB0E72080087
S31508001C20014800F0D3BB00BF10720800002307B5B7
S31508001C300348019301AB00F0F7FA03B05DF804FB23
S31508001C4010720800014800F0C1BB00BF11720800FD
S31508001C50002307B50348019301AB00F0E5FA03B08A
S31508001C605DF804FB11720800014800F0AFBB00BF25
S31508001C7012720800002307B50348019301AB00F070
S31508001C80D3FA03B05DF804FB12720800014800F0AD
S31508001C906DBB00BF0873080010B505480C4600F078
S31508001CA077FA40F20123984204BF0020208010BD35
S31508001CB008730800014800F089BB00BF0F720800CE
S31508001CC073B5002601AB0E480C461546019600F082
S31508001CD0ABFA40F2012398420BD164B10C2D0CD912
S31508001CE020462A46074910F0D6F930462C4404F80F
S31508001CF0016C02B070BD0B20FBE71920F9E700BFA5
S31508001D000F720800552E0108014800F05FBB00BF9E
S31508001D1004720800014800F087BA00BF0472080080
S31508001D20014800F06DBB00BF1F720800014800F0B3
S31508001D30D1BA00BF1F720800014800F017BB00BFE8
S31508001D400772080037B512480D4600F021FA40F22E
S31508001D5001239842044604D14FF470632B80002077
S31508001D6014E098B92B88B3F5805FF8D301200BF0FF
S31508001D70B5F850B14FF4B8732F220121CDE90032DE
S31508001D802046044B044A0BF09CF82F2003B030BDC4
S31508001D9007720800622E0108822E0108014800F029
S31508001DA0FDBA00BF0872080010B506480C4600F0D8
S31508001DB017FA40F20123984202BF4FF47A730020C3
S31508001DC0236010BD08720800014800F0FFBA00BF82
S31508001DD009720800014800F027BA00BF0972080016
S31508001DE0014800F0F3BA00BF0A720800014800F083
S31508001DF01BBA00BF0A72080008B50A46024803491A
S31508001E00FFF738FE08BD00BF2672080027720800D3
S31508001E100B46024A02490348FFF7D6BD2772080057
S31508001E2026720800932E010808B50A460248034997
S31508001E30FFF720FE08BD00BF2472080025720800BF
S31508001E400B46024A02490348FFF7BEBD2572080041
S31508001E5024720800AF2E010808B50A46024803494D
S31508001E60FFF708FE08BD00BF2272080023720800AB
S31508001E700B46024A02490348FFF7A6BD237208002B
S31508001E8022720800D52E0108022307B5D1E90012EF
S31508001E9001A80193FEF746FC18B90199024800F01B
S31508001EA07DFA03B05DF804FB207208001FB5022016
S31508001EB003900698009003A8FEF74CFC18B90399FE
S31508001EC0024800F06BFA05B05DF804FB20720800C2
S31508001ED0002370B5154886B00D461646049300F0E3
S31508001EE01DF908B3114804A900F07AF9D0B9049B82
S31508001EF03246002B08BF0223294605A80593FEF79C
S31508001F0091FC044602200AF0E9FF50B10294736876
S31508001F10022101936B681F200093054A049B0AF06F
S31508001F20D0FF204606B070BDD824EBE72072080023
S31508001F30EE2E0108014800F031BA00BF21720800F0
S31508001F40014800F04DB900BF21720800014800F0B1
S31508001F503DBA00BF29720800014800F065B900BF04
S31508001F6029720800014800F04BBA00BF0572080044
S31508001F70014800F0AFB900BF05720800014800F03B
S31508001F80DDB900BF28720800014800F0D9B800BFC3
S31508001F9028720800032307B5D1E9001201A80193A6
S31508001FA000F046F818B90199024800F0F7F903B0AD
S31508001FB05DF804FB307208001FB513460022039231
S31508001FC003AA0192202200920A46014604480EF00E
S31508001FD0ACFF002814BFAC20002005B05DF804FB58
S31508001FE009000002014B0AF0BCBE00BF87CC0008FE
S31508001FF0292828BF002010B4074C04EB8000074CA2
S31508002000D4E8AF4F1CB1A4465DF8044B60475DF8B1
S31508002010044B0AF06CBF00BF043B0108981200206D
S31508002020024BD3E88F0FC0B2704700BFC4360020FA
S31508002030F0B5044601258BB000680E4617460AF02F
S3150800204057FF1022002106A810F062F823680F4AED
S3150800205003930F4B3146CDE901354FF4007301A8C0
S31508002060CDE904326B463A460EF0F7FE044650B107
S3150800207028460AF033FF28B1234629461520054A83
S315080020800AF01FFFAC200BB0F0BD00BF0010C00463
S3150800209000248000392F010837B50E4D2C686CB91D
S315080020A0032322462146009301200B4B0CF03DF9F1
S315080020B023462246214628600CF085F9286808B987
S315080020C00FF0C3FF4FF0FF3103B0BDE830400CF00E
S315080020D0E7BA00BFEC1200209C120020064B10B590
S315080020E0186808B90FF0B1FF0023BDE810401A467A
S315080020F019460CF068B900BFEC12002050B1064B27
S31508002100984205D0C0B200F5300040F0A060704794
S3150800211040F20120704700BF0BE000F007B501460A
S31508002120064801AB6A46006809F012FBFFF7E6FFAE
S31508002130B0FA80F0400903B05DF804FB543600207D
S315080021407FB5002304460D468DF807300AF0E1FEF8
S31508002150C0B10E4E03AB2146306802AA09F0F8FA60
S31508002160FFF7CCFF60B9039B214630680DF10702E3
S3150800217009F04CFAFFF7C2FF10B99DF807302B702B
S3150800218004B070BD40F20120FAE700BF54360020C3
S315080021907FB5002304460D46ADF806300AF0B9FEB1
S315080021A0C0B10E4E03AB2146306802AA09F0D0FA38
S315080021B0FFF7A4FF60B9039B214630680DF10602BC
S315080021C009F024FAFFF79AFF10B9BDF806302B80FC
S315080021D004B070BD40F20120FAE700BF5436002073
S315080021E07FB5002304460D4603930AF092FEB0B16C
S315080021F00C4E02AB2146306801AA09F0A9FAFFF78E
S315080022007DFF50B9029B2146306803AA09F0FEF902
S31508002210FFF774FF08B9039B2B6004B070BD40F24A
S315080022200120FAE7543600202DE9F0431D46002325
S3150800223085B02B6007460E4691460AF06AFE0028CE
S315080022403ED0DFF88C8003AB3946D8F8000002AAE6
S3150800225009F07EFAFFF752FF0446B8B9039B93B319
S31508002260C6B14B4531D232463946D8F8000009F096
S31508002270CDF9FFF743FFD8B9039B012B03D1337878
S31508002280003B18BF012300222B60F254204605B0FC
S31508002290BDE8F083012B01D02B60F7E73946D8F863
S315080022A000000DF1070209F0B1F9FFF727FF08B1A1
S315080022B00446EBE79DF8073003B103982860E5E785
S315080022C040F20124E2E71E24E0E71924DEE700BF16
S315080022D0543600202DE9F3411C46002323600546A9
S315080022E00E4617460AF015FEF0B1DFF84C8001AB32
S315080022F06A462946D8F8000009F02AFAFFF7FEFED2
S3150800230078B9019B9BB166B1BB4212D832462946C1
S31508002310D8F8000009F07AF9FFF7F0FE08B9019B32
S31508002320236002B0BDE8F08140F20120F9E71E20E3
S31508002330F7E71920F5E700BF5436002013B5044621
S315080023408DF807100AF0E5FD58B107480123214624
S3150800235000680DF1070209F00FF9FFF7CFFE02B08A
S3150800236010BD2F20FBE700BF5436002013B50446E6
S31508002370ADF806100AF0CDFD58B1074802232146EC
S3150800238000680DF1060209F0F7F8FFF7B7FE02B08C
S3150800239010BD40F20120FAE75436002013B5044672
S315080023A001910AF0B6FD58B1042307480DEB030264
S315080023B02146006809F0E0F8FFF7A0FE02B010BD5C
S315080023C040F20120FAE700BF5436002010B5044653
S315080023D00AF09FFD68B179B10848012A13460068DA
S315080023E038BF01230A46214609F0C6F8FFF786FEDC
S315080023F010BD40F20120FBE72F20F9E754360020F4
S3150800240010B504460AF085FD58B101B962B9074806
S31508002410134600680A46214609F0AEF8FFF76EFE35
S3150800242010BD40F20120FBE72F20F9E754360020C3
S315080024300348044A0449121A92100AF097BD00BFCD
S31508002440700100081C0300086034002008B500F07D
S315080024502FF8FFF7EDFF124B12498B4212D30020DB
S31508002460114B12498B4218D3FEF7C2F8186850F878
S315080024702240586840F82240013298688242F5D3D3
S315080024800C33EAE70022F8E71C6844F82200013218
S315080024905C68A242F8D30833E4E70022F8E700BFF5
S315080024A05844010864440108644401086444010866
S315080024B04FF48041124B134A70B59A60D3F88820BE
S315080024C0114D42F47002C3F88820104A05F50054ED
S315080024D091664FF0FF3222660D4A62660222C3F801
S315080024E0D020BFF34F8FBFF36F8F4FF440360020D5
S315080024F002F048FA0020E66002F036FA2E6170BD56
S3150800250000ED00E000000008008000440090005044
S31508002510F7FF3700014B1868704700BF14360020D4
S31508002520084B1B6F03F00703022B04D0032B05D0BF
S31508002530012B05D0FEE7044B18687047034BFBE7F1
S315080025400348704700800050143600201C360020CF
S31508002550002D310108B5FFF7E3FF054B1B6FC3F3E9
S3150800256003330133B0FBF3F0024B186008BD00BF1C
S3150800257000800050103600200048704700B4C4049C
S31508002580014B1868704700BF1C360020004870478A
S31508002590002D31014FF0B4429368C3F304430C2B6A
S315080025A00AD8DFE803F00B090909090907211909FF
S315080025B01B1D1F000F48704700207047936803F0E3
S315080025C04073B3F1807F11D0B3F1007F10D0002B98
S315080025D0094818BF002070470848704708487047E0
S315080025E008487047084870470848704708487047C1
S315080025F008487047405DC60000093D00C0EA210151
S3150800260080BA8C010048E801005A62020024F400EE
S3150800261080841E0040420F00014B1868704700BFB7
S315080026201836002070B59400224605460E4610F06E
S3150800263067FB431C0AD058B92246314628460FF094
S315080026403DFD0028034808BF002070BD0248FCE78E
S315080026500248FAE710E000F021E000F024E000F07C
S3150800266010B5044610F048FB431C10D088B900F09A
S3150800267075FD234620F003002044984201D100202E
S3150800268010BD53F8042B0132F7D00348F8E7034886
S31508002690F6E70348F4E700BF0EE000F021E000F09B
S315080026A024E000F0044BD3F88420D206FBD4D3F8F8
S315080026B08400C0F3811070470040005038B5104BB5
S315080026C00546D3F880300C4603F00303022B0BD0E3
S315080026D0032B0DD0012B0FD1FFF722FF0E2305B1D7
S315080026E0286004B1236038BDFFF754FF0723F6E7D7
S315080026F0FFF710FF0623F2E700231846EFE700BFAF
S315080027000080005038B5184B0546D3F820010C4612
S3150800271000F00700062823D8DFE800F0040A0E16A2
S31508002720121A1E00012305B1286004B1236038BDC2
S31508002730FFF7F0FE0523F6E7FFF722FF0323F2E78C
S31508002740FFF728FF0723EEE7FFF720FF0223EAE754
S31508002750FFF7E0FE0623E6E7FFF712FF0423E2E7AA
S3150800276000231846DFE700BF0080005038B5174B36
S315080027700546D3F828310C4603F00703013B052B21
S3150800278020D8DFE803F003131B0F0B17FFF7C2FE71
S31508002790052305B1286004B1236038BDFFF7BAFEEA
S315080027A00623F6E7FFF7F6FE0723F2E7FFF7E8FE4C
S315080027B00323EEE7FFF7E4FE0423EAE7FFF7E6FE66
S315080027C00223E6E700231846E3E700BF008000502F
S315080027D073B50D460021114B0191D3F88041064689
S315080027E004F00304022C13D0032C0CD0012C13D1B3
S315080027F001A8FFF787FF10240EB1019B336005B1CE
S315080028002C6002B070BDFFF7C5FE07240190F3E700
S31508002810FFF7BCFE0190EFE70C46EDE7008000509D
S31508002820002337B50193164B0546D3F820320C46DC
S3150800283003F00703042B21D8DFE803F0030B111676
S315080028401B0001230DB1019A2A6004B1236003B06D
S3150800285030BD002101A8FFF789FF1223F2E7FFF731
S3150800286099FE07230190EDE70AF08CFB0A230190F5
S31508002870E8E7FFF7D1FE09230190E3E70023E1E744
S315080028800080005038B5104B0546D3F840310C4649
S3150800289003F00303022B0BD0032B0DD0012B0FD112
S315080028A00AF070FB0A2305B1286004B1236038BD1D
S315080028B0FFF7B2FE0923F6E70AF067FB0C23F2E7F7
S315080028C001230020EFE700BF00800050002337B542
S315080028D00193164B0546D3F860320C4603F00703FE
S315080028E0013B032B1FD8DFE803F0020E1914002161
S315080028F001A8FFF707FF10230DB1019A2A6004B15A
S31508002900236003B030BD002101A8FFF7BBFF1123E8
S31508002910F2E7FFF73FFE07230190EDE7FFF736FEE4
S3150800292002230190E8E70023E6E700BF0080005095
S31508002930002337B50193164B0546D3F894320C4657
S3150800294003F00703013B032B1FD8DFE803F0020E51
S315080029501914002101A8FFF7D5FE10230DB1019A1D
S315080029602A6004B1236003B030BD002101A8FFF737
S3150800297089FF1123F2E7FFF70DFE07230190EDE724
S31508002980FFF704FE02230190E8E70023E6E700BF0D
S315080029900080005038B5144B0546D3F800020C46A3
S315080029A000F0070004281BD8DFE800F003090D1122
S315080029B01500012305B1286004B1236038BD0AF06B
S315080029C0E1FA0A23F6E7FFF727FE0923F2E70AF0FA
S315080029D0DCFA0C23EEE7FFF7BDFD0F23800AE9E7D3
S315080029E000231846E6E700BF0080005038B5144BB0
S315080029F00546D3F808020C4600F0070004281BD841
S31508002A00DFE800F003090D111500012305B1286060
S31508002A1004B1236038BD0AF0B5FA0A23F6E7FFF7D2
S31508002A20FBFD0923F2E70AF0B0FA0C23EEE7FFF7FD
S31508002A3091FD0F23800AE9E700231846E6E700BF61
S31508002A400080005038B5104B0546D3F840320C4686
S31508002A5003F00303022B0BD0032B0DD0012B0FD150
S31508002A600AF090FA0A2305B1286004B1236038BD3C
S31508002A70FFF7D2FD0923F6E70AF087FA0C23F2E7F7
S31508002A8001230020EFE700BF0080005038B5104B47
S31508002A900546D3F860310C4603F00303022B0BD02E
S31508002AA0032B0DD0012B0FD10AF06CFA0A2305B1BE
S31508002AB0286004B1236038BDFFF7AEFD0923F6E7A9
S31508002AC00AF063FA0C23F2E701230020EFE700BFC0
S31508002AD000800050B0F5207F1FD009D8B0F5007FE0
S31508002AE015D003D868B1B0F5C07F0AD000200CE035
S31508002AF0B0F5607FFAD10B4BD3F88000C0F3011014
S31508002B0003E0084B186FC0F3033001307047054BDC
S31508002B10D3F89000C0F30460F7E7024B186FC0F3D0
S31508002B208020F2E70080005002464FF48030104BB8
S31508002B3010B598660020FFF7CDFF504341F6713275
S31508002B400C4BDC69DA635A6804F4803422F44012C8
S31508002B5059B90949884294BF00200120000502435B
S31508002B605A600CB10022DA6310BD0449F2E700BFCF
S31508002B700090005000000350005A6202002D3101F7
S31508002B801FB5002180280446CDE9001100F0998080
S31508002B9029D8002800F09980A0F120043D2C35D8CA
S31508002BA03D2C33D8DFE804F091999199A9A9A9A9F0
S31508002BB0A999B33CC9603C9999993232323232327A
S31508002BC0323299999968D399323232323232323264
S31508002BD03232323232A9919191CE3C3CD8774DAE01
S31508002BE0323232323288B0F5B06F00F090802DD88C
S31508002BF0B0F5207F71D00CD8B0F5C07F65D0B0F5A0
S31508002C00007F65D0B0F5807F00F08680009804B01C
S31508002C1010BDB0F5607F6BD00DD8B0F5407FF5D10B
S31508002C20FFF798FC02464FF42070FFF753FFB2FBFC
S31508002C30F0F252085AE0B0F5806F5ED0B0F5A06F9A
S31508002C40E4D100216846FFF7EBFDDFE7B0F5106F2A
S31508002C5078D016D8B0F5E06F79D00AD8B0F5C06F3D
S31508002C606BD0B0F5D06FD1D100216846FFF792FE40
S31508002C70CCE7B0F5F06FC9D100216846FFF706FF2B
S31508002C80C4E7B0F5406F3DD013D8B0F5206F63D0D8
S31508002C90B0F5286FBAD10021324B0391D3F87032C0
S31508002CA003F00303012B02D103A8FFF7EBFD039BF7
S31508002CB03CE0B0F5486FA9D100216846FFF738FE19
S31508002CC0A4E7FFF72DFC0090A0E7FFF743FCFAE71F
S31508002CD0FFF726FC0246204604E0FFF73BFC0246C7
S31508002CE04FF42070FFF7F6FEB2FBF0F200928DE784
S31508002CF001A8FFF7E3FC019AEDE700216846FFF714
S31508002D0001FD83E700216846FFF730FD7EE70021D5
S31508002D106846FFF75DFD79E74FF0E02302911B69EE
S31508002D205B0705D5FFF716FC0290029B00936DE73B
S31508002D3003A902A8FFF7A6FDF7E700216846FFF7F3
S31508002D40A1FD63E700216846FFF750FE5EE7002114
S31508002D506846FFF777FE59E700216846FFF7B6FD94
S31508002D6054E700BF0080005008B58020FFF708FF31
S31508002D70034B98429EBF4FF48032024B1A6708BD38
S31508002D80005A620200A00050B0F5207F10B50C462C
S31508002D9057D008D8B0F5007F48D003D830B3B0F57F
S31508002DA0C07F23D010BDB0F5607FFBD12949013C17
S31508002DB0D1F8FC2012F080721EBFD1F8FC3023F047
S31508002DC08073C1F8FC302449D1F8803023F03003F1
S31508002DD043EA0414C1F88040002AE3D01D4AD2F819
S31508002DE0FC3043F08073C2F8FC30DBE70AF001F9E7
S31508002DF00AF00DF94FF48031184B174A1967136F0B
S31508002E00013C23F4704343EA04341467FFF7A2FB3A
S31508002E100446FFF747FCC0F1020120460AF0F1F824
S31508002E2000F02EF8BDE81040FFF79EBF0A4A4C1E78
S31508002E30D2F8903023F0F85343EA0464C2F890407D
S31508002E40B0E7054A4C1E136F23F4806343EA8423D4
S31508002E501367A7E700ED00E00080005000900050DF
S31508002E6008B50121022000F02FF80AF0C2F80AF08E
S31508002E70CEF84FF48032014B1A6708BD0090005017
S31508002E8008B54FF4C070FFF77BFEBDE8084004495B
S31508002E90884294BF012102214FF42070FFF774BFC6
S31508002EA080F0FA02024A536B0342FCD1704700BF16
S31508002EB000400950034A0179D36E23F030030B43CF
S31508002EC0D366704700400050F8B504461C4BD3F84B
S31508002ED08420D106FBD4D3F88430C3F381139C42F3
S31508002EE02CD0FFF71DFB012C064602D121460AF01D
S31508002EF088F80AF01DF84FF00072124B07465A661A
S31508002F0020460AF0A0F84FF480630D4D621E9340E8
S31508002F102B676B6E9A0103D4D5F884309B060AD5C5
S31508002F2038460AF009F8022C08D13046BDE8F840C0
S31508002F3000210AF066B8D5F88430EAE7F8BD00BF84
S31508002F40004000500060005010B50C4608B9FFF765
S31508002F50E7FA074B21461B783BB1064B984204D843
S31508002F600120BDE81040FFF7AFBF0220F9E700BF18
S31508002F70BA330020005A62024FF0004238B5244B9B
S31508002F80244C5A664AF6CD33656C014605F00105B0
S31508002F90236430BB0120FFF785FF6368DB0708D48D
S31508002FA0002415B11B4B1C4A1A640AF04DF820463A
S31508002FB038BD1A4B58600846194B226BD20705D400
S31508002FC0984201D10724ECE70130F6E79842E7D1A9
S31508002FD0F8E70132236B13F0080305D08A42F8D1CB
S31508002FE0F0E700220E49F5E78A42EBD020210B4A8A
S31508002FF091620121A2F5805251600649084A886A01
S31508003000800603D49342DDD00133F8E79342DEE726
S3150800301000900050004009503254FFFF00600950EC
S3150800302040420F004FF0004238B5164B01465A662B
S315080030304AF6CD33144C154A656C236443780B2045
S315080030405B0043F00103D363FFF72CFF63688A78BC
S3150800305023F4F87343EA02136360CA784B7943EAA8
S315080030600223A3600A798B7943EA0223236108784D
S31508003070FFF782FFEB0744BF054B236409F0E4FF23
S31508003080012038BD00900050004009500040005013
S315080030903254FFFF4FF00042124B70B55D6E03F5D8
S315080030A080535A664AF6CD3304460F4980204E6C43
S315080030B00B64FFF7F7FE0B6A23F00F030F2C94BF80
S315080030C0234343F00F030B62F30744BF074B0B641C
S315080030D0002DA2BF4FF00042054B5A6609F0B4FF17
S315080030E070BD00BF00800050004009503254FFFFF9
S315080030F000A000504FF48032054B9A6641F67132B3
S3150800310003F51C33DA63012203F50053DA607047CE
S315080031100090005041F671320121064BDA6303F53F
S315080031200052D1600022DA634FF48032A3F51833D7
S315080031309A667047000003504FF48032064B5A6671
S3150800314003F5E6239B69C3F38512827003F03F02F9
S315080031501B0B427003707047009000500120034B10
S315080031609B680A3303F01F03984070470080E00FFE
S315080031702DE9F84302F006F80128074607D902F0B8
S3150800318035F8051E04DA01242046BDE8F883002533
S31508003190DFF8788098F8003003F0FF0683BB4FF01D
S315080031A05009184C04F110032046C4E90066A360D0
S315080031B0C4F80C9002F06AF8206640B90124012F81
S315080031C0E2D9284602F034F80028DDDADBE70E4CAF
S315080031D0314604F1100322460120C4E90066C4E919
S315080031E0023902F015F920660028E7D003214120AC
S315080031F001F0D6FB412001F0B7FB012388F8003027
S315080032000024DCE704140020A0130020BB330020B0
S3150800321008B501F0B7FF022805D04FF480620020F8
S31508003220064B9A6608BD064B4FF0FF31186E02F042
S315080032306FF80028F1D00120F4E700BF0090005095
S31508003240041400204FF4806208B5084B9A6601F012
S3150800325099FF022807D1064B186E02F089F8003844
S3150800326018BF012008BD0020F9E700BF00A00050E4
S315080032700414002008B54FF098435B6CD90208D5B2
S3150800328001F080FF0238012803D8094B186E02F0B6
S315080032904DF94FF098435A6CD202FCD55B6D054A3E
S315080032A003F4702313604120BDE8084001F06ABBAF
S315080032B0A01300202036002038B5054600283AD04D
S315080032C0FFF7A6FF0446002836D128460AF002F979
S315080032D095F8203043B94FF098435A6CD202FCD582
S315080032E05D6D05F470251BE04FF09842936D43F031
S315080032F00203936501F046FF02281AD1104B4FF0DE
S31508003300FF31186E02F0DCF84FF09842936D23F007
S315080033100203936590B94FF4A0220A4B1D681A6000
S31508003320FFF790FF04463DB12846BDE8384009F04E
S315080033308CBE2046E8E72124204638BD0124FBE759
S31508003340A0130020203600202DE9FF4700230E4653
S3150800335017460446009300285BD00AB1002958D0C6
S3150800336037F0030807F0030A25D04FF000094FF09D
S31508003370E063C4E90039012301962046029301A9B6
S3150800338048F00053C4F80890C4F81C9003930AF058
S315080033908EF8414620460AF094F82046FFF78CFF3F
S315080033A0054640B14246494630460EF0B1FE28462B
S315080033B004B0BDE8F087BAF1000F28D04FF0000935
S315080033C04FF0E063C4E900390123CDF804D0029335
S315080033D0114B204601A9C4F80890C4F81C90039321
S315080033E00AF065F8042120460AF06BF82046FFF734
S315080033F063FF054608B13A46D5E7009A4644EB000E
S31508003400013522FA03F3AA4506F8013BF7D1002550
S31508003410CDE72125CBE700BF040000202DE9F041C8
S31508003420904602780C46022A8AB032D0032A35D052
S31508003430012A38D114271D4A00F10C052260002202
S315080034409E01C4E90122E261314620460AF039F8B4
S315080034500123204647F0005704A946F00056CDF848
S315080034600480029303960495059306970795089397
S3150800347009970AF012F8204601A90AF00EF8204624
S3150800348007A90AF014F82046FFF716FF0AB0BDE8A8
S31508003490F0812027064A00F10C05CFE72027054AC8
S315080034A000F10C05CAE72120F0E700BF000201037E
S315080034B0000301030004010310B591B188B100238C
S315080034C0C0E90133084B00F10C0203F1200153F85F
S315080034D0044B8B4242F8044BF9D1012303700020B8
S315080034E010BD2120FCE700BF1C3C010810B591B1B6
S315080034F088B10023C0E90133084B00F10C0203F13F
S31508003500200153F8044B8B4242F8044BF9D10223AD
S315080035100370002010BD2120FCE700BF5B2F0108C7
S3150800352010B591B188B10023C0E90133084B00F109
S315080035300C0203F1200153F8044B8B4242F8044B6A
S31508003540F9D103230370002010BD2120FCE700BF3A
S315080035507C2F01082DE9F04F0D46914604468BB0A5
S3150800356000285ED000295CD0002A5AD00278022AA8
S315080035700CD0032A4DD0012A53D114262B4900F129
S315080035800C0B00F104082C34374607E020261C27CC
S31508003590274900F10C0B00F104082C349F4240D84F
S315080035A0D8F80420002A3ED1D8F80030284603F07F
S315080035B03F0AC5E90012AA60EA61514609F081FF8F
S315080035C02846D8F8001009F07CFF01224AF000537B
S315080035D0284601A946F0005647F00057CDF804B032
S315080035E002920396049405920693CDF81C900892CD
S315080035F0099709F052FF284604A909F04EFF284604
S3150800360007A909F054FF2846FFF756FE0BB0BDE898
S31508003610F08F2026074900F10C0B00F104082C3422
S31508003620B2E72120F2E70F20F0E700BF000203030C
S3150800363000030303000403032DE9F04387B00D4696
S3150800364091461E460446DDF83880002836D0B8F183
S31508003650000F33D002B98BBB6B1EDBB2022B2DD801
S31508003660174AD75C0F9B9F4228D80023280200F1EF
S31508003670407000F580703146C4E901332060E3618B
S31508003680204609F01EFF01236946204646F00056EB
S3150800369047F00057CDF8009001930296CDF80C80BC
S315080036A00493059709F0F9FE204603A909F0FFFEE1
S315080036B02046FFF701FE07B0BDE8F0832120FAE7B0
S315080036C0193C0108F0B50F4616461D46044693B048
S315080036D010B9212013B0F0BD0029FAD0002AF8D07D
S315080036E0002BF6D0002331461A46384609F093FDDA
S315080036F00028EFD1304602A909F03AFD0028E9D1A1
S3150800370038683449029A88426B695ED19342E0D39D
S315080037102B68002BDDD14FF060623846C4E90023E0
S31508003720A360E36101A909F0CCFD0028D2D1019973
S31508003730204621F4F061019109F0C3FE6946284646
S3150800374009F0BFFD0028C5D12046009909F0B9FE49
S31508003750384609A909F043FE0028BBD1204609A925
S3150800376009F09BFE38460CA909F044FE0028B1D1A1
S3150800377020460CA909F091FEEB684BB1284606A92C
S3150800378009F02DFE0028A5D1204606A909F085FED8
S31508003790304603A909F02EFE00289BD1204603A92E
S315080037A009F07BFE28460FA909F024FE002891D1CE
S315080037B020460FA909F07BFE03252046FFF77CFD6E
S315080037C0012887D1013DF8D184E7B3EB420F9FD298
S315080037D07FE700BF200000B070B50E4615460446C8
S315080037E08AB000285CD000295AD0002A58D0012374
S315080037F029461A46304609F00EFD00284ED1B36810
S3150800380013F4C04F4CD0AB6803F4C043B3F5005F64
S3150800381046D1254BA060C4E90030E06107A93046CF
S3150800382009F04FFD002839D12046079909F049FECD
S31508003830012302934FF00053204601A9039309F090
S315080038402CFE304604A909F0D5FD38BB204604A94C
S3150800385009F023FEEB681BBBAB6803F4C043B3F562
S31508003860005F1DD16946284609F0A5FCB0B9009B42
S315080038706A699A4216D32A6943F0005307920122CD
S31508003880204607A908920325099309F010FE204649
S31508003890FFF712FD012801D1013DF8D10AB070BD2C
S315080038A02120FBE71D20F9E7000001022DE9F0437E
S315080038B091B00D46DDE918760446DDF868800028E3
S315080038C06DD000296BD0002F69D0B8F1000F66D0F3
S315080038D0096801F07041B1F1404F5BD0002B5BD114
S315080038E0531E022B5BD8120202F1C06202F58072E7
S315080038F000232846C4E901332260E3610DA909F0D3
S31508003900E0FC002843D120460D9909F0DAFD31463E
S31508003910204609F0D6FD284601A909F060FD0028D1
S3150800392035D1204601A909F0B8FD284604A909F0B1
S3150800393061FD60BB4FF00109204604A909F0ADFD01
S3150800394046F00056204607A90797CDF82090099615
S3150800395009F0A3FD2B680A9703F07043B3F1404FB3
S31508003960CDF82C900C9603D120460AA909F095FDAE
S315080039700123CDF834800E931B9B204643F0005359
S315080039800DA90F9309F093FD2046FFF795FC11B09A
S31508003990BDE8F083034AABE74FF0C062A8E72120F1
S315080039A0F5E700BF000002062DE9F0418CB00D4690
S315080039B0DDE912860446149F002867D0002965D0E1
S315080039C0B8F1000F62D0002F60D0896889045DD5F0
S315080039D0296801F07041B1F1404F4DD0002B4DD10F
S315080039E0531E022B52D82A4B03EB022200232846E9
S315080039F0C4E901332260E36109A909F062FC0028E1
S31508003A0037D12046099909F05CFD3146204609F070
S31508003A1058FD6946284609F0E2FC50BB694620462F
S31508003A2009F03BFD284603A909F0E4FC08BB20463B
S31508003A3003A909F032FD012346F00056CDF8188097
S31508003A400793089609970A93159B43F000530B931F
S31508003A502B6803F07043B3F1404F11D109A92046F2
S31508003A6009F01BFD06A9204609F017FD2046FFF7B9
S31508003A7023FC0CB0BDE8F081064AB7E7064AB5E76D
S31508003A8006A9204609F009FD09A9ECE72120F0E777
S31508003A9000010106000003060000010610F1860F6A
S31508003AA01BD010F1850F08DA10F1930F18D010F11A
S31508003AB0870F07D04FF0FF307047003818BF012036
S31508003AC040427047094B99420DD0043399420CBFC6
S31508003AD06FF073006FF06D0070476FF071007047FC
S31508003AE06FF06F0070476FF07200704705000002B4
S31508003AF0012910B50CDC084C084B00290CBF2146DF
S31508003B00194600F0B7FE2146BDE81040FFF7C6BFCC
S31508003B106FF0730010BD00BF090000020800000224
S31508003B2008B50AF067F9BDE808400149FFF7B6BFCE
S31508003B3009000002002307B52022019301AB0AF011
S31508003B4075F9034903B05DF804EBFFF7A7BF00BF9B
S31508003B500900000210B5044C214600F08BFE2146F0
S31508003B60BDE81040FFF79ABF0500000208B50AF045
S31508003B7041F9BDE808400149FFF790BF050000027A
S31508003B80002307B51422019301AB0AF04FF9034944
S31508003B9003B05DF804EBFFF781BF00BF0500000224
S31508003BA038B5134DFFF7E4FA124B134A1349144874
S31508003BB005F0D4FA2B7803F0FF04BBB901F0E2FA5A
S31508003BC0012802D901F012FB04462B782BB90D4BBC
S31508003BD00D481B68984701232B7001F0D3FA01287A
S31508003BE004D92046BDE8384001F022BB38BD00BFE5
S31508003BF0BC3300201FD5000845D5000885D5000828
S31508003C006FD500084C3600209C210020012300F0C7
S31508003C101F02A0F506200949A0F550604009934007
S31508003C2051F820201A4341F82020054951F8202050
S31508003C3022EA030241F82020704700BF7C140020C6
S31508003C40681400200121A0F506230E4AA3F5506347
S31508003C505B0900F01F00814052F82300014342F837
S31508003C6023100949D1E90030034488680344C86829
S31508003C70096903445B1802BFC2E90033C2E902338B
S31508003C8013617047681400207C1400202DE9F04762
S31508003C90A2B04022002102A80EF03AFA40220021E2
S31508003CA012A80EF035FA1C4C1C4F254605F10F09D3
S31508003CB0CDF800902B461022386802A90EF076FE41
S31508003CC04FF00008064610340DF1080AB04516D123
S31508003CD0CDF800902B461022386812A90EF06FFE18
S31508003CE0002605460DF14808AE420FD10C4B9C4202
S31508003CF0DBD101220B4B1A7022B0BDE8F0875AF8C7
S31508003D00040BFFF783FF08F10108DFE758F8040BF7
S31508003D10FFF798FF0136E7E7006D080054360020E4
S31508003D2000710800BD3300202DE9F04780460F4694
S31508003D301E46154688B00AB1002313600EB100234B
S31508003D4033604FF0100ADFF8AC90CDF800A00023DE
S31508003D503A464146D9F8000007F0A6FC044680BB5F
S31508003D603A68204B9A4230D14FF0180A014652461B
S31508003D7002A80EF0CDF9CDF800A023464146D9F8A1
S31508003D80000002AA07F090FC0446D0B9069B7B60A7
S31508003D90DDE90423C7E90223134B3B600DB1C5F8DF
S31508003DA000A0124C3A68104B9A4218D14DB146B150
S31508003DB033464146D9F8000002AA07F0C9FC48B1C3
S31508003DC00446204608B0BDE8F087002DEAD0C5F8BD
S31508003DD000A0E7E733682A689B1A3360F1E7044CCA
S31508003DE0EFE700BFD175E105105D175EFEDF00F055
S31508003DF0FFDF00F05436002070B5124D2B7803F023
S31508003E00FF04CBB901F0BEF9012802D901F0EEF999
S31508003E1004462B784BB90C48436D43F001034365C0
S31508003E200A4B1B68984701232B7001F0ABF9012850
S31508003E3002D9204601F0FCF9BDE87040044B02485F
S31508003E401B681847BE330020901400204C3600200B
S31508003E5044360020034B1B781BB1034B03481B68F1
S31508003E6018477047BE3300204036002090140020C3
S31508003E702DE9F04F87B08246894698461646DDF802
S31508003E8040B02AB1002B53D040F26C739A4252D8F4
S31508003E90BBF1010F52D8002406F11007394601205C
S31508003EA005940AF0A6F8054600284AD021463A465F
S31508003EB00EF02EF9FFF7A0FF05ABCDE901430094FC
S31508003EC02B4601225046494600F042F8044690B176
S31508003ED010F18C0F08BF6FF08D043A460021284672
S31508003EE00EF016F928460AF066F8FFF7B3FF2046E3
S31508003EF007B0BDE8F08F144BC5E902A92B60C5F8D9
S31508003F0004B02EB13246414605F110000EF032F9E2
S31508003F10059E0E483B462A463146006807F02CFBAC
S31508003F2018B93046FFF772FED7E76FF09104D4E769
S31508003F306FF08604DBE76FF09104D8E76FF085042D
S31508003F40D5E76FF08C04D2E7105D175E5436002073
S31508003F502DE9F04F9FB002921F4604460822CDE98C
S31508003F600301414021FA02F34B40980702F1080287
S31508003F7018BF9B00202A1C44F4D18123B4FBF3F319
S31508003F8003EBC313E41AA04B04F506241B7804F5C7
S31508003F9050640BBB05F0B0FC002840F077819B4EBF
S31508003FA03368E82B16D1DFF87C828DF81F000123D1
S31508003FB09749D8F800000DF11F0207F027FB18B142
S31508003FC0944B984240F062819DF81F303A2B37D1C6
S31508003FD03A233360FFF75AFE4FF081080026DFF8D0
S31508003FE04C92DFF84CA2A4F50625A5F550635B09AB
S31508003FF059F8232004F01F01CA40D20700F11C819A
S315080040005AF82330CB40DB0740F1F280002E08BF78
S3150800401026468123A5F6FF45B5FBF3F303EBC31349
S31508004020ED1A05F50624B8F1010804F55064DAD14D
S31508004030029B002B00F0DE80002E40F0E080D9E0E5
S31508004040402200210EA80EF063F8734DDFF8D891D0
S3150800405005F10F0200922B461022D8F800000EA98F
S3150800406010350EF0A3FC002853D0102200210AA810
S315080040700EF04EF800230E98CDE9083309AA08ABCE
S315080040800AA9FFF751FE654B984200F0FF8018B168
S31508004090013B984240F0FA800A9BDFF898914B451D
S315080040A003D05F4A934240F0F180742340220021F6
S315080040B00EA833600EF02CF8102200210AA80EF084
S315080040C027F80023DFF85081089308F10F035548B5
S315080040D000931022434600680EA90EF067FC4FF0C5
S315080040E0000A05900EAE059B534515D14E4B08F1B7
S315080040F010089845E9D13A234A488DF8383044499A
S31508004100012300680EAA07F037FA00283FF464AFC7
S31508004110BCE04D459CD15BE700233068CDE9083308
S3150800412009AA08AB0AA9FFF7FFFD3C4B984261D0E4
S3150800413018B1013B984240F0A9800A9B384ADDF83D
S3150800414020B0934202D04B4540F0A08001200BF1ED
S31508004150100109F04EFF0546002800F09A80089BDA
S315080041600246304800933168099B006807F09CFABC
S3150800417030BB0A9B4B4519D1DDE90C010B9B5A460E
S3150800418000932B4600F08EF8834690B110F1850F08
S315080041900FD0089A0021284610320DF0B9FF28469C
S315080041A009F009FF58461FB0BDE8F08F1C4A934234
S315080041B009D01C4B3168186807F00EFB014658B148
S315080041C06FF0910BE5E70B9B5A46DDE90C0100936E
S315080041D02B46FFF74DFED7E7089A284610320DF012
S315080041E097FF284609F0E7FE04360AF1010A7AE73E
S315080041F0029B13B96FF08B0BD4E706B926462A9BA8
S315080042004FF0000B1E60CDE7BD330020243600209A
S31508004210FF6C08000BE000F000310800FFDF00F03B
S31508004220105D175E54360020003508007C14002007
S3150800423068140020D175E105DDE9282339462046B2
S31508004240FFF772FD144B984202D01233984218D1E8
S31508004250124B2146186807F0BFFA0028CAD1D7E9D9
S315080042600223DDE90310834208BF8A427FF4D1AEF8
S31508004270029B002BC2D07B68012BBFD16FF0840B49
S3150800428090E70028EBD0064B9842E8D06FF0910BE8
S3150800429088E76FF08C0B85E7FFDF00F054360020C7
S315080042A0FEDF00F02DE9F04F8BB08246894698462E
S315080042B01646DDF850B00AB1002B4FD0BBF1010FFE
S315080042C04FD8002406F1180739460120059409F04D
S315080042D090FE0546002847D021463A460DF018FFBD
S315080042E0FFF78AFD05ABCDE901430094012250464C
S315080042F0494606ABFFF72CFE044690B110F18C0F29
S3150800430008BF6FF08D043A46002128460DF000FFDD
S31508004310284609F050FEFFF79DFD20460BB0BDE884
S31508004320F08F134BC5E902A92B60C5F810B02EB162
S315080043303246414605F118000DF01CFF059E0D4852
S315080043403B462A463146006807F016F918B9304642
S31508004350FFF75CFCD7E76FF09104D4E76FF08604AB
S31508004360DBE76FF08504D8E76FF08C04D5E700BF6C
S31508004370D175E105543600202DE9F0478CB0814609
S31508004380DDE914780C4616461D466BB1B8F1000FE8
S3150800439049D0002F47D0B7F1005F44D3C3F100538B
S315080043A003F500339F423ED84FF0000A1022002141
S315080043B008A80DF0ADFECDE905AAFFF71DFD07AB70
S315080043C0029305AB019306AB214600935246484635
S315080043D008ABFFF7BDFD0446D0B9059B3DB1B34216
S315080043E01CD853EA060504D06FF0860410E0B342E1
S315080043F0FAD3069B0D48C8F8005000953A46079927
S315080044000068334407F050F9002818BF6FF091048C
S31508004410FFF720FD20460CB0BDE8F0879B1B9D42A8
S3150800442028BF1D46E5E76FF08604F3E754360020FB
S3150800443070B500260C4605468CB01022002108A847
S315080044400DF066FECDE90566FFF7D6FC07AB0293CD
S3150800445005AB019306AB214600933246284608ABC6
S31508004460FFF776FD0446D8B9099B012B1DD0079D99
S31508004470114B2946186807F0AFF9C8B90122A5F506
S3150800448006230E49A3F550635B0905F01F00824019
S3150800449051F823004240284641F82320FFF7D2FB73
S315080044A0FFF7D8FC20460CB070BD6FF08404F7E720
S315080044B06FF09104F4E700BF543600207C14002006
S315080044C0F8B5134642880C460732072A4FEAD20146
S315080044D001D0A1424DD146680588C76820221846F2
S315080044E000210DF015FE360A0346002E44D1002C95
S315080044F03FD041F20102954205D0B5F5885F02D05A
S31508004500B5F5905F02D15C60002011E0B5F5105F4B
S3150800451007D1182C03D0202C01D0102C29D11C60CF
S31508004520F1E705F44F42B2F5824F02D06FF08500ED
S31508004530F8BDEAB2122AF9D1202CF7D1104A25F093
S31508004540FF05B5F5E24F02600CD0B5F5824F10D1E4
S315080045504FF4005217F4705F09D017F4864F04D051
S315080045609A60E3E74FF48042F4E742F480629A6087
S31508004570CAE76FF08600DBE76FF08B00D8E700BF6D
S31508004580200000802DE9F04F99460388164603F46B
S315080045904F42B3B0B2F5824F0F46DDF8F88002D02D
S315080045A06FF0850002E021B96FF0860033B0BDE8F0
S315080045B0F08F002EF8D0B8F1000FF5D0DAB2122A33
S315080045C0EED123F0FF03B3F5E24F31D14388C8F8A3
S315080045D0003043BBF300C8F80030D8F80030B3F514
S315080045E0807FDDD1002318464B49BC19314414F8A5
S315080045F0012D11F8015D1043521B18BF0023A74275
S3150800460043EA0203F3D10028CED0002BCCDA3C9B38
S315080046109E427DD83246394648460DF0ABFD3D9B55
S3150800462000201E60C2E70733B6EBD30FD5D0BBE731
S31508004630B3F5824F69D10B78042BB5D1242200211A
S3150800464019A80DF065FD19A808F02FFD8246002867
S3150800465058D14FF0400B22AD01465A4628460DF078
S3150800466057FD012320225146741E01A88DF8883073
S315080046700DF04EFD7B1C20225146069409A8E40045
S31508004680059364080DF044FD2022514611A8CDE992
S315080046900D5B0DF03DFDB4F5C07FCDE9155BC8F89F
S315080046A000403FF47DAF28D8E02C03D0B4F5807FD6
S315080046B07FF47AAF194B0734019309934FF40053EB
S315080046C003934FF48043E4080B9301AA11AB6400EB
S315080046D009A919A81294FEF7F5FFD8F80030073390
S315080046E0DB085A0033B10021531E013B297005F13E
S315080046F00105FAD200288AD056E7B4F5047F3FF4BC
S315080047004FAF51E76FF0920050E76FF096004DE714
S315080047106FF089004AE700BF3C3C01082000008092
S31508004720038810B503F44F42B2F5824F18BF002331
S315080047300E4C21F0FF026FF30801A142DBB20FD045
S315080047400B498A420CD0122B0DD14388B3F5807FD2
S3150800475009D1B2F1062F14BF6FF08500002010BDF5
S315080047606FF08600FBE76FF08500F8E700020006A9
S3150800477000130006164B20F4FF7222F001029A423B
S3150800478010D0144A20F0FF0393420BD020F47F7117
S3150800479021F00301A2F57062914203D002F5A062EE
S315080047A093420FD110F0FF0011D00B4B40F0007070
S315080047B0984209D00133984208D0043BC31A58429C
S315080047C05841704700207047022070470320704701
S315080047D00002000600130006080000022DE9F04753
S315080047E08CB01746DDE914A498460E4609B9002A86
S315080047F038D1B8F1000F02D1BAF1000F32D18CB31B
S315080048001B4B984212D00133984213D0043B98426E
S315080048102BD114234FF001099A4523600ED20023A9
S315080048206FF0890023600CB0BDE8F0871C234FF0B9
S315080048300209F1E720234FF00309EDE703A808F082
S3150800484034FC054610B16FF09200ECE73B46324661
S315080048504946CDE9008A03A8FEF7EEFE0028E2D015
S315080048602560F0E76FF08600DDE76FF08500DAE790
S315080048700800000230B50D4604468BB030B3031D60
S315080048806C22002118460DF043FC134A954211D0BC
S315080048900132954214D0043A95421AD1012201A94F
S315080048A02270FEF709FE002814BF6FF09200002060
S315080048B00BB030BD022201A92270FEF717FEF2E7FF
S315080048C0032201A92270FEF72BFEECE76FF08600A3
S315080048D0EEE76FF08500EBE70800000207B5094B25
S315080048E018689A889B7900906846ADF804208DF878
S315080048F00630FEF797FB0C20FEF7CCFB002003B032
S315080049005DF804FB5C3C010813B50024064A6846BA
S31508004910536F43F00103536700948DF80440FEF784
S31508004920C9FA204602B010BD004000506FF00403DB
S31508004930502110B50A480B4C13F0800F03F1010201
S3150800494006D123444C2A83F800131346F4D110BD2C
S3150800495003F00F03043B034419761346ECE700BF44
S3150800496000ED00E000E100E0002807DB0123410933
S31508004970034A00F01F00834042F82130704700BF09
S3150800498000E100E0002808DB01224309034900F0A2
S315080049901F008240603341F82320704700E100E0A1
S315080049A00028ACBF00F16040064B4FEA0111C9B2BE
S315080049B0ABBF00F5614000F00F0080F800131954F2
S315080049C0704700BF14ED00E073B508F0B1FA0D4D5D
S315080049D00D4B2E781C6808F0AFFA09F04EFB38B17B
S315080049E0FF2E05D00020297801AA08F0B7FA019C05
S315080049F02CB908F09DFA054B1C6808F09DFA20466C
S31508004A0002B070BDC5360020F4140020F81400204A
S31508004A1010B5044608F08CFA024B1C6008F08CFAB4
S31508004A20002010BDF814002013B5002301241A46EF
S31508004A3019461846009404F0E7FE002300941A4627
S31508004A401946184604F012FF0248FFF7E1FF002056
S31508004A5002B010BD2C36002073B50024684600F05D
S31508004A60D5FA0C4B00981C600B4B0C4D1C600C4E79
S31508004A700C4B306018602C6009F0DDFA2046019B6B
S31508004A803268013BDB0853802B6801332B6002B088
S31508004A9070BD00BF00150020FC140020041500207E
S31508004AA00C150020081500202DE9F04F0027924626
S31508004AB087B04A1C0E4614BF0C460824994605972B
S31508004AC0002B00F0B0801F60002800F0AE80073091
S31508004AD020F0070508F033FA05AB3146029000933B
S31508004AE052463B46284600F09BFA059E804606B18C
S31508004AF030B9029808F029FA192007B0BDE8F08FF6
S31508004B00DFF83CB17788DBF80010FB00C0EBC7077D
S31508004B100139272FCBF800106CD9BAF1000F48D10C
S31508004B20854205F1080740D02146304609F0FDF9CF
S31508004B3004460590059B1F44384609F07CFA0599FA
S31508004B4005F10F034A88C3F3CF03D21A7A80CA88BD
S31508004B50BB8062B3D31A9BB201EBC202FB8093807F
S31508004B608B88ED08A380BB880022314638466580CD
S31508004B70E38000F0C7FA237843F001032370DBF8DB
S31508004B8000300133CBF800302B4A029813680834FA
S31508004B9043441360294A11688B4288BF136008F0A2
S31508004BA0D4F90020C9F80040A7E73446C2E7FA80DE
S31508004BB0D6E7F4192046039309F03DFA08F10702EF
S31508004BC0D20805996280FA1DD208A280CA887AB1ED
S31508004BD0D200039BD01DC31A4344C3F3CF030A4430
S31508004BE0E3809380A388013FFF084F80CB80C2E70C
S31508004BF0E280F7E7BAF1010F19D106F10803B3FB12
S31508004C00F4F204FB1233A3B12146304609F08DF9BC
S31508004C1004462378012243F00103314620462370D7
S31508004C2000F070FAB0E7222067E7212065E78542A1
S31508004C30EAD13446EDE700BF00150020FC14002039
S31508004C40041500202DE9F74F0446684600F0DEF902
S31508004C50002C00F0A68008F072F914F8087C834648
S31508004C60FB0702D534F8065C35B9584608F06DF9E5
S31508004C70012003B0BDE8F08FDFF838C134F8042C02
S31508004C80DCF80080691C08F10103A4F1080689B262
S31508004C90CCF80030002A7CD0A6EBC20393F800A01B
S31508004CA0B3F806901AF0010FB3F802E007F002070E
S31508004CB063D1002F62D1A9EB0E02012A69D8AA1C7A
S31508004CC096441FFA8EF1CCF8008034F8027C002F47
S31508004CD063D0DDE9002006EBC70802EB000EF045BD
S31508004CE05BD216F83760424616F0010614D17D1BD2
S31508004CF0012D11D8B8F80250A8F8026001352944E8
S31508004D00B8F8065089B2002D45D008EBC502DCF884
S31508004D100050013DCCF8005014F8085C25F0010558
S31508004D2004F8085C002524F8065C4C1E5C801C7898
S31508004D3065F300041C70002A31D0C3F1070414443B
S31508004D40C4F3CF04DC809480174C22681AB19A42C7
S31508004D5001D8528802B92360144C22681AB19A42C3
S31508004D6001D3528802B92360114A584613685B1A60
S31508004D70136008F0EAF800207BE757B10A4491B2BD
S31508004D8014F8082C22F0020204F8082C00229A8053
S31508004D909BE7334699E72A46B9E70022BCE7DA805B
S31508004DA0D2E7222065E700BF0C1500200815002071
S31508004DB000150020041500202DE9F84F04460D467D
S31508004DC09146002A00F017810023136040B9002994
S31508004DD000F0138101462846BDE8F84F09F0E5B80A
S31508004DE019B9BDE8F84FFFF72DBF08F0A8F834F851
S31508004DF0063C07354FEAC30825F00705A8450746C8
S31508004E00A4F1080080F0848034F8022C002A65D0CA
S31508004E1000EBC20A10F83220D2075FD4BAF80210A3
S31508004E20A8EB050616EBC10658D41F2E3DDDC5F3C3
S31508004E30CF0304EB050B24F8063C013324F8023CA7
S31508004E40584609F0F8F834F8023CC6F3CF06ABF832
S31508004E500430BAF80630ABF802601BB3BAF8022081
S31508004E609A1A1644B6B20AEBC303ABF806609E80DC
S31508004E7000225146584600F045F9504609F0DBF83D
S31508004E80C9F800405E4A13682B44A3EB0803136075
S31508004E905C4A11688B4200D91360384608F055F809
S31508004EA0002625E0ABF80630E2E7574E0B44326899
S31508004EB09BB2013A32605A1C24F8062CBAF806202E
S31508004EC04AB102339BB20AEBC20224F8023C938031
S31508004ED001225146CFE724F8022CF9E74A46002179
S31508004EE0284609F062F8064628B1384608F02DF833
S31508004EF03046BDE8F88F42462146D9F800000DF045
S31508004F0039F92046FFF79EFE06460028BAD0ECE798
S31508004F106ED934F8023CA8EB050B002B38D000EB11
S31508004F20C30610F83330DB0733D4C5F3CF0304EBDD
S31508004F30050A24F8063C013324F8023C504609F0D9
S31508004F407AF8738834F8022C03EBDB03AAF80420FA
S31508004F50F2889BB2AAF80230BAB101339BB206EBCB
S31508004F60C202AAF80630938050460022314600F065
S31508004F70C9F8304609F05FF8214BC9F800401A68AD
S31508004F801544A5EB08051D6087E7AAF80620EBE798
S31508004F901E46BBF1270FEFD9C5F3CF0304EB050A6D
S31508004FA024F8063C013324F8023C504609F043F83D
S31508004FB034F8022CCBF3CF03AAF80230AAF804205F
S31508004FC096B1F28882B101339BB206EBC206AAF803
S31508004FD00630B3800C4A002113685046013313602B
S31508004FE0012200F08FF8C7E70023AAF80630F1E798
S31508004FF0C9F8004051E722267AE7212678E700BF5C
S3150800500000150020FC140020041500200249034A5C
S315080050100160521A42607047883F00200000022053
S31508005020F0B506460020059F4C1C08BF08213860CD
S31508005030BAB91F480568002D38D0B5F802E0DB007C
S3150800504003EBCE0EC1F1000C2878C0070BD52ABB9E
S31508005050E888B0B105EBC005B5F802E003EBCE0E63
S31508005060F2E71448E6E7B645F1D35AB905F108045C
S31508005070B4FBF1F001FB1044A0190CB17045E7D858
S315080050803D60F0BD08290FD06C88013405EBC404D7
S31508005090A01B00EA0C00201A8645F1D2A888002831
S315080050A0EFD0A5EBC005D7E73046E9E72846E8E79D
S315080050B00C15002008150020104B13B51B68044674
S315080050C00846C3B121B96846FFF7A0FF4CB9009856
S315080050D00378DB0710D53CB9C38863B100EBC3007E
S315080050E0F6E7074B1868F3E7012C04D1838813B158
S315080050F0A0EBC300ECE7002002B010BD04150020A9
S3150800510008150020F8B5104F05460C463B680F4EAB
S315080051108AB1994200D021B929460020FFF7CCFF71
S3150800512038603368A34200D024B929460120FFF726
S31508005130C3FF3060F8BD9942336808BF38608B42B8
S3150800514008BF3060F6E700BF0C15002008150020E0
S31508005150EFF3058373B9EFF31082094B12B9EFF336
S31508005160118212B11A68022A04D0186828B90122D5
S315080051701A6070476FF0050070474FF0FF307047B0
S31508005180D01A002008B500F0E9FD38B1022804D08D
S31508005190034B1868431E5842584108BD0320FCE7D4
S315080051A0D01A002010B5EFF30583BBB9EFF31083CF
S315080051B00D4C13B9EFF3118313B12368022B0DD0ED
S315080051C02368012B0DD16FF004000021FFF7E8FBDF
S315080051D00223236000F09CFB002010BD6FF0050041
S315080051E0FBE74FF0FF30F8E7D01A002008B5EFF3D9
S315080051F0058393B9EFF3108313B9EFF311831BB14A
S315080052000A4B1B68022B08D000F0A8FD40B1022803
S3150800521008D100F0B5FB002008BD6FF00500FBE7DC
S315080052200120F9E74FF0FF30F6E700BFD01A00205B
S3150800523010B50446EFF3058303BBEFF3108313B9E8
S31508005240EFF311831BB1104B1B68022B16D000F02D
S3150800525085FD30F0020314D1012C03D100F090FB38
S31508005260204610BD6CB900F025FC0128F8D000F0E6
S3150800527075FD841E18BF4FF0FF34F1E76FF0050483
S31508005280EEE74FF0FF34EBE7D01A002070B505467D
S31508005290EFF3058616B10024204670BDEFF31082A1
S315080052A012B9EFF311821AB1184A1268022AF2D01B
S315080052B015B16E683307EED406F001067DB1D5E95F
S315080052C0021351B14F2BE6D9DEB1042009F0E9F8F3
S315080052D004460028DFD02D680AE0002BDBD196B102
S315080052E0042009F008F904460028D4D0002DF2D18C
S315080052F02946204600F0F6F9002ECDD044F00104E8
S31508005300CAE70120E2E70120EBE700BFD01A002038
S31508005310034610B520F001000C4603F00102EFF336
S315080053200581E9B9EFF3108111B9EFF3118119B1CC
S315080053300E490968022913D0012B14D9214662B1F6
S3150800534009F02EFA012801D1002010BD002C14BF47
S315080053506FF001006FF00200F7E709F0A1F9F1E735
S315080053606FF00500F1E76FF00300EEE7D01A0020B2
S31508005370024608B520F0010002F00103EFF30581AB
S31508005380C9B9EFF3108111B9EFF3118119B10D49BC
S31508005390096802290FD0012A10D93BB109F096F8FD
S315080053A001280CBF00206FF0020008BD1A461946F6
S315080053B009F009F8F4E76FF00500F6E76FF0030067
S315080053C0F3E700BFD01A002010B5034620F0010409
S315080053D0EFF305829AB9EFF3108212B9EFF311824F
S315080053E01AB10A4A1268022A09D0012B0AD920469C
S315080053F000F08AF9204609F018FA002010BD6FF06F
S315080054000500FBE76FF00300F8E700BFD01A00209D
S3150800541073B50E461546EFF3058393B9EFF310837C
S3150800542013B9EFF311831BB1244B1B68022B08D069
S3150800543038B1B04205D355B1D5E902322BB14F2A5E
S3150800544023D80024204602B070BD002AF9D10128CD
S315080054500ED103220021012008F082FF1DE01A4622
S31508005460314608F09AFF04460028EAD02D6807E07E
S31508005470314608F09FFF04460028E2D0002DF5D1FA
S315080054802946204600F02EF9DCE70128E7D1032259
S3150800549000920022114608F048FF04460028D0D0A2
S315080054A0002EEBD000231A46194608F08CFF012877
S315080054B0E4D0204609F0B9F9C3E700BFD01A0020A6
S315080054C013B50C4668B3EFF305834BB9EFF31083B6
S315080054D013B9EFF31183D3B1134B1B68022B16D103
S315080054E0FCB9214601AA019409F071F9012803D0F3
S315080054F06FF0020002B010BD019B0BB90020F9E75E
