S01C00006275696C642F64656275672F67656E657261746F722E7333379C
S31501008000183400204D800011F9810011F981001109
S31501008010F9810011F9810011F9810011F98100112D
S31501008020F9810011F9810011F9810011F98100111D
S31501008030F9810011F9810011F9810011F98100110D
S3150100804000800011000001010080000066485B4BC2
S315010080507844D0F800C04668C3F808C0326882F395
S315010080608888574A574C96605A6A42F400225A62E7
S31501008070554ADA60D3F88C2042F4406242F001029C
S31501008080C3F88C2000234FF0FF32214641F823200C
S315010080900133102BFAD14FF450424C4B7F219A6693
S315010080A001224B4B4B4CC3F89011C3F83021C4F855
S315010080B070118068B0F5003F7BD007D8B0F5004F4E
S315010080C00DD0B0F5803F09D0002208E0B0F5802F31
S315010080D071D0B0F5002FF7D1052200E002224FF052
S315010080E0FF37C3F86422C3F8707233465C68012116
S315010080F04FF01009384EDFF8F4E0DFF8F4800A009B
S3150100810033461A600A0073461A601A6802EA0102C7
S31501008110002AFAD14FF41046304D2B4632461A60EA
S3150100812006F1A2466FF48018DFF8C8E006F583561B
S3150100813033463A461A60734642461A60A6F54F66BA
S3150100814033460A001A60264DF03E29462CF07F433D
S31501008150B3FBF0F3202B05D9A3F120034FF0FF3237
S315010081600A6008E04FF001029A406FEA02020A60D3
S315010081704FF0FF33FFE701F10401B142EADD19498E
S315010081806408640002220B461A60002000210022C6
S3150100819000230025002600275FF000085FF0000994
S315010081A05FF0000A5FF0000B5FF0000CBFF34F8F2A
S315010081B02447032293E7042291E700BF00ED00E084
S315010081C000ED02E080E300E00020FA050050804067
S315010081D00090005100A00051185083406860804013
S315010081E074920051D0ED00E0ECFFFFFF18D08540FE
S30F010081F014C0854064A00051FEE7AB
S3150101000018340020AD260101E7C20101E7C2010151
S31501010010E7C20101E7C20101E7C20101E7C201012C
S31501010020E7C20101E7C20101E7C2010171108000C6
S31501010030E7C20101B836020101108000F108800012
S31501010040E7C20101F5450101E7C20101E7C201016B
S31501010050E7C20101E7C20101E7C20101E7C20101EC
S31501010060E7C20101E7C20101E7C20101E7C20101DC
S31501010070E7C20101E7C20101E7C20101E7C20101CC
S31501010080E7C20101E7C20101E7C20101E7C20101BC
S31501010090E7C20101E7C20101E7C20101E7C20101AC
S315010100A0E7C20101E7C20101E7C20101E7C201019C
S315010100B0E7C20101E7C20101E7C20101E7C201018C
S315010100C0E7C20101E7C20101E7C20101E7C201017C
S315010100D0E7C20101E7C20101E7C20101E7C201016C
S315010100E0E7C20101E7C20101DD290101BD290101C2
S315010100F0E7C20101E7C20101E7C20101E7C201014C
S31501010100E7C20101E7C20101E7C20101E7C201013B
S31501010110E7C20101E7C20101E7C20101E7C201012B
S31501010120E7C20101E7C20101E7C20101E7C201011B
S31501010130E7C20101E7C20101E7C20101E7C201010B
S31501010140E7C20101E7C20101755D0101E7C20101D2
S31501010150E7C20101E7C20101E7C20101E7C20101EB
S31501010160E7C20101E7C20101E7C20101E7C20101DB
S31501010170E7C20101E7C20101E7C20101E7C20101CB
S31501010180E7C20101E7C20101E7C20101E7C20101BB
S31501010190E7C20101E7C20101E7C20101E7C20101AB
S30D010101A0E7C20101E7C20101F9
S315010101A8014B1868704700BF986200200A4B1B6F04
S315010101B803F00703013B042B04D8DFE803F00B0422
S315010101C807030900FEE7054B18687047044BFBE76F
S315010101D8044BF9E7044870470040804098620020C3
S315010101E8A062002094620020002D310108B5FFF7B5
S315010101F8DDFF054B1B6FC3F303330133B0FBF3F08B
S31501010208024B186008BD00BF004080409062002083
S3150101021800487047002D3101014B1868704700BF2E
S31501010228A06200200020704700487047002D310167
S31501010238014B1868704700BF9C6200204FF40040CB
S3150101024870474FF47A70704709B100F003B822205C
S3150101025870470000F8B504460D4600F01BFA06463C
S315010102681C2C00F26A81DFE814F01D0026006801E2
S3150101027830003D004E003E016500700068018900AD
S31501010288EF008D00A10068016801A500B9006801A8
S31501010298BD006801C1005601030168011A01DB00AD
S315010102A868014E01FFF782FF00242860304600F0FD
S315010102B8ECF92046F8BDA34B1C6FFFF797FFC4F372
S315010102C803340134B0FBF4F0EEE79E4B1F6F1C6F4C
S315010102D8FFF78CFFC7F303370137B0FBF7F0C4F318
S315010102E88024EEE7974B1F6F1C6FFFF77FFFC7F35C
S315010102F803370137B0FBF7F0C4F380240134B0FBAF
S31501010308F4F04008D0E78F4BD3F88000D3F880305A
S31501010318C0F3011003F00303022B00F1010400F0FD
S31501010328D980032B00F0D980012B40F08280FFF799
S315010103383DFFC7E7FFF73AFF824BD3F89030C3F386
S3150101034804430133B0FBF3F0AEE77E4BD3F820311A
S3150101035803F00703013B052B6BD8DFE813F0060011
S31501010368E8000C0009000600E800FFF719FF9BE702
S31501010378FFF75AFF98E7FFF74BFF95E7714BD3F85C
S315010103882831E5E76F4BD3F8403103F00303022B1C
S3150101039806D0032B07D0012B4BD1FFF74FFF83E77C
S315010103A8FFF746FF80E7FFF74CFF7DE7654BD3F87B
S315010103B86031EAE7634BD3F8003203F00703013BE7
S315010103C8032B36D801A252F823F000BFFB018000A6
S315010103D801028000070280003D028000FFF706FF47
S315010103E8800A61E7574BD3F84032CEE7554BD3F82C
S315010103F8203203F00703013B032B1AD801A252F855
S3150101040823F000BF75028000D1018000FB01800045
S315010104180102800029460A20FFF71CFF044645E729
S31501010428484BD3F8703203F00303012B05D0022B95
S3150101043806D0002302242B6038E729460C20EBE776
S3150101044800230F242B6031E73E4BD3F8A83203F082
S315010104580703013B032BECD801A252F823F000BF95
S31501010468CB0180008F038000D7018000D101800074
S31501010478344BD3F8AC3203F00703013B032BD8D82D
S3150101048801A252F823F000BFF9028000D1018000D0
S31501010498FB0180000102800029460B20BCE7294B9C
S315010104A8D3F8B002D3F8B03200F03F0003F4E063A9
S315010104B8B3F5407F00F1010412D008D8B3F5807F66
S315010104C80BD0B3F5007FB4D1FFF7A6FEFAE6B3F573
S315010104D8806FAED1FFF7A8FEF4E6FFF761FEF1E6FC
S315010104E8FFF796FEEEE6174BD3F8803103F00303C7
S315010104F8022B3FF440AF032B3FF43AAF012B98D1BE
S315010105082946082088E74FF0E0231B6929465B073E
S3150101051894D5012080E70B4BD3F8003103F003038F
S31501010528022B3FF43DAF032B04D0012B81D1FFF7F9
S3150101053873FEB9E6FFF776FEB6E6002321242B60A2
S31501010548B4E600BF004080400122437801789A4011
S3150101055830235943014B5A50704700BF40D083405D
S3150101056808B54FF0FF31054800F0C3F828B94FF433
S315010105788062034B9A66BFF34F8F08BDB43C0020D6
S31501010588005080404FF48062024B03489A6600F09E
S31501010598CCB800BF00608040B43C002038B50446A1
S315010105A8D0B1FFF7DDFFC0B9204600F046F84FF09C
S315010105B8854500F06FF86B6CDB02FCD56C6D00F0BC
S315010105C864F804F470242B68FFF7DCFF2CB120468C
S315010105D8BDE838401CF0B29D212038BD10B50C4646
S315010105E8D0B1C9B100F04DF80C4B0D495A6E4FF413
S315010105F88033D2034B6601F5DE21D1F80C1658BFBB
S31501010608084A216058BF536600F036F8002023686E
S3150101061823F07F43236010BD2120FCE70040804081
S315010106280050804000608040C369032B9FBF00EBE7
S3150101063883020133D160C3617047C369042B16D89C
S315010106484FF08542116CC902FCD5002105339B0087
S31501010658136511600168143B11604168116050F816
S31501010668081F11604FF085420344984200D1704733
S3150101067850F8041F1160F8E710B962B6BFF36F8F1E
S315010106887047EFF3108072B6704780F31188BFF394
S315010106986F8F7047EFF31180302383F31188704709
S315010106A8EFF31083DB0706D4EFF311802F2894BFEC
S315010106B800200120704701207047000070B50546EA
S315010106C8A8B1FFF7DEFF0646286E00F035FB0446A2
S315010106D840B100F089FA844209BF6C6D0124E443F3
S315010106E804F001043046FFF7C7FF204670BD012417
S315010106F8FBE738B50D460446A8B100F0F1F9022821
S315010107080FD1FFF7CDFF20B12046BDE83840FFF7ED
S31501010718D5BF2946206E00F0B3FA003818BF01206B
S3150101072838BD0020F9E70120FAE710B50446A0B162
S3150101073800F0D6F902280ED1FFF7B2FF20B1204603
S31501010748BDE81040FFF7BABF206E00F0C9FA0038BC
S3150101075818BF012010BD0020F9E70120FAE70000C2
S3150101076853B94AB9002908BF00281CBF4FF0FF3108
S315010107784FF0FF3000F082B9ADF1080C6DE904CEF6
S3150101078800F006F8DDF804E0DDE9022304B070475C
S315010107982DE9F04F099D0C46002B4DD18A420F4692
S315010107A884469646B2FA82F360D94BB102FA03FE40
S315010107B8C3F120029F4000FA03FC20FA02F2174313
S315010107C84FEA1E461FFA8EF44FEA1C42B7FBF6F1B1
S315010107D806FB117701FB04F042EA0742904208D968
S315010107E81EEB020201F1FF3702D2904200F231817A
S315010107F83946121A1FFA8CFCB2FBF6F006FB1022D7
S3150101080800FB04F44CEA024C644508D91EEB0C0CB6
S3150101081800F1FF3202D2644500F21E81104640EA18
S315010108280140ACEB040C002125B12CFA03F300229B
S31501010838C5E90032BDE8F08F8B4205D90DB1C5E98D
S31501010848000100210846F5E7B3FA83F100294DD1E4
S31501010858A342C0F0F380904280F0F0800646234619
S315010108680846002DE6D0C5E90063E3E7002B40F011
S31501010878A3808A1A4FEA1E471FFA8EF60121B2FB97
S31501010888F7F407FB14204FEA1C4242EA004206FB31
S3150101089804F090420FD91EEB020204F1FF382CBF76
S315010108A84FF001094FF00009904203D9B9F1000F40
S315010108B800F0CC804446121A1FFA8CFCB2FBF7F001
S315010108C807FB102200FB06F64CEA024C664508D9DD
S315010108D81EEB0C0C00F1FF3202D2664500F2B38021
S315010108E81046ACEB060C40EA04409DE7C1F120062F
S315010108F88B4004FA01FE22FA06F720FA06FCF440B7
S315010109088A401F434EEA0C0300FA01FE4FEA1748D3
S315010109184FEA13491FFA87FCB4FBF8F008FB1044A8
S3150101092849EA044400FB0CF9A1450ED93C1900F129
S31501010938FF3A2CBF4FF0010B4FF0000BA14503D92C
S31501010948BBF1000F00F08B805046A4EB09041FFA96
S3150101095883F9B4FBF8F308FB134403FB0CFC49EADE
S315010109680444A44506D93C1903F1FF3801D2A4452B
S315010109787BD8434643EA0040A4EB0C04A0FB02984A
S315010109884445CC46434602D306D1CE4504D2013865
S31501010998B9EB020C68EB0703002D6CD0BEEB0C0218
S315010109A864EB030422FA01F304FA06F6CC400021AA
S315010109B81E43C5E900643DE702FA03FEC3F12001BE
S315010109C804FA03F200FA03FCCC404FEA1E4720FA67
S315010109D801F11FFA8EF6B4FBF7F00A4307FB10443F
S315010109E8110C41EA044100FB06F48C420ED91EEBB7
S315010109F8010100F1FF382CBF4FF001094FF0000941
S31501010A088C4202D9B9F1000F2CD04046091B92B28A
S31501010A18B1FBF7F407FB141142EA014204FB06F1A3
S31501010A28914207D91EEB020204F1FF3801D2914224
S31501010A381ED84446521A44EA004120E7861A64EB55
S31501010A48030301200DE7F44402384AE7023C7244E4
S31501010A5831E702397244CCE6F4440238DFE602385A
S31501010A683C4472E702387144D0E7023B3C4481E7D2
S31501010A78023C7244DEE72946DCE600BF704700BF47
S31501010A8802440346934200D1704703F8011BF9E773
S31501010A9808B54FF0E0231B6901F0EEFA012803D0EE
S31501010AA8BDE8084000F006BB08BD0000EFF3058369
S31501010AB873B9EFF31082094B12B9EFF3118212B12F
S31501010AC81A68022A04D0186828B901221A607047DF
S31501010AD86FF0050070474FF0FF307047AC440020B6
S31501010AE808B501F0C9FA38B1022804D0034B1868D0
S31501010AF8431E5842584108BD0320FCE7AC44002077
S31501010B0810B5EFF30583BBB9EFF310830D4C13B998
S31501010B18EFF3118313B12368022B0DD02368012B3F
S31501010B280DD16FF0040000211DF0ABDC0223236017
S31501010B3801F0B0F8002010BD6FF00500FBE74FF09A
S31501010B48FF30F8E7AC44002008B5EFF3058393B904
S31501010B58EFF3108313B9EFF311831BB10A4B1B682A
S31501010B68022B08D001F088FA40B1022808D101F018
S31501010B78C9F8002008BD6FF00500FBE70120F9E778
S31501010B884FF0FF30F6E700BFAC44002010B504462C
S31501010B98EFF3058303BBEFF3108313B9EFF3118366
S31501010BA81BB1104B1B68022B16D001F065FA30F008
S31501010BB8020314D1012C03D101F0A4F8204610BD7A
S31501010BC86CB901F047F90128F8D001F055FA841EEC
S31501010BD818BF4FF0FF34F1E76FF00504EEE74FF068
S31501010BE8FF34EBE7AC44002001F03ABA38B50546C3
S31501010BF8EFF3058313B10024204638BDEFF31083C3
S31501010C0813B9EFF311831BB11C4B1B68022BF2D0ED
S31501010C182DB36B681A07EED4D5E9021203F0010365
S31501010C2871B14F2AE7D993B1042000F07EFE04463B
S31501010C380028E0D0296800F0A7FD44F00104DBE7AC
S31501010C48002AD8D1ABB1042000F040FEEFE701201C
S31501010C5800F06BFE04460028CDD0296806E0012084
S31501010C6800F034FE04460028C5D0294600F08CFD63
S31501010C78C2E7012000F02AFEECE700BFAC440020E0
S31501010C88034610B520F001000C4603F00102EFF30B
S31501010C980581E9B9EFF3108111B9EFF3118119B1A1
S31501010CA80E490968022913D0012B14D9214662B1CB
S31501010CB800F03EFD012801D1002010BD002C14BF12
S31501010CC86FF001006FF00200F7E700F0A4FCF1E70D
S31501010CD86FF00500F1E76FF00300EEE7AC44002081
S31501010CE8024608B520F0010002F00103EFF3058180
S31501010CF8C9B9EFF3108111B9EFF3118119B10D4991
S31501010D08096802290FD0012A10D93BB100F027FD44
S31501010D1801280CBF00206FF0020008BD1A461946CA
S31501010D2800F02DFBF4E76FF00500F6E76FF003001D
S31501010D38F3E700BFAC440020012803D920F00100E4
S31501010D4800F0E9BC0020704710B5034620F0010404
S31501010D58EFF305829AB9EFF3108212B9EFF3118213
S31501010D681AB10A4A1268022A09D0012B0AD9204660
S31501010D7800F01CFD204600F031FD002010BD6FF08A
S31501010D880500FBE76FF00300F8E700BFAC4400205C
S31501010D9873B50E461546EFF30583D3BBEFF31083FF
S31501010DA813B9EFF311831BB1244B1B68022B30D006
S31501010DB878B3B0422DD375B9012837D10322002161
S31501010DC800F067FD044620B3AEB96DBB294620463E
S31501010DD800F0DAFC1EE0D5E90232C3B14F2A18D96F
S31501010DE801281AD1032200920022114600F082FD40
S31501010DF8044670B1C6B1002320461A46194600F0C9
S31501010E08BEFA0128E1D0204600F0E8FC01E0002AFB
S31501010E18D2D00024204602B070BD1A46314600F0F0
S31501010E2892FD04460028F4D02D68CFE7314600F03B
S31501010E3858FD04460028C8D1EBE700BFAC440020A1
S31501010E4807B550B3EFF305834BB9EFF3108313B924
S31501010E58EFF31183CBB1124B1B68022B15D100237A
S31501010E6801A9019300F0AFFB012804D06FF002003C
S31501010E7803B05DF804FB019B2BB14FF0E0234FF062
S31501010E888052C3F8042D0020F2E700231A461946B9
S31501010E9800F075FA0128F6D0E8E76FF00300E7E7F5
S31501010EA8AC44002010B50446EFF3058393B9EFF37B
S31501010EB8108313B9EFF311831BB1094B1B68022B7D
S31501010EC808D054B1204600F071FC204600F086FC9A
S31501010ED8002010BD6FF00500FBE76FF00300F8E78E
S31501010EE8AC44002070470000034B0360034B0B60C1
S31501010EF8A0231360704700BF4C440020CC41002059
S31501010F08034B0360034B0B60A0231360704700BFBB
S31501010F186C410020EC3E00204FF0FF3200F108033E
S31501010F28C0E902234360036100230360704700237C
S31501010F380361704730B50C68631C0AD103695A68A5
S31501010F484A6091608B6059600368086101330360E7
S31501010F5830BD00F10802134652681568A542FAD94F
S31501010F68EDE743689A684B608A6051609960036846
S31501010F7808610133036070470369D0E901128A6088
S31501010F8851605968814208BF5A60002202611A6894
S31501010F98013A1A601868704710B54FF0807440E934
S31501010FA80224184A4FF0123440F80C2C4FF0033240
S31501010FB84FF0023C40E905244FF0013240F8203C4C
S31501010FC840E9072C4FF010334FF011324FF0093435
S31501010FD840E90A324FF008334FF0073C40E90C3437
S31501010FE84FF006334FF0053240E90E3C4FF004331A
S31501010FF840E910326FF0430340F8443C40F8481D7C
S3150101100810BD00BF916701014FF0E02200234FF4A3
S315010110187A7113619361044B1B68B3FBF1F3013BCD
S315010110285361072313617047906200204FF0E02353
S3150101103810B50024D3F8202D42F47F02C3F8202DE0
S31501011048D3F8202D42F07F42C3F8202DFFF7DCFFAC
S31501011058044B1C6000F07CF800F0BAFF15F068DC5F
S31501011068204610BDC46200204FF0E0234FF08052A4
S31501011078C3F8042DBFF34F8FBFF36F8F704700007D
S3150101108808B500F077F8044A136801331360BFF312
S315010110984F8FBFF36F8F08BDC4620020044B1A68D6
S315010110A81A68013A1A60186808B900F06EB87047EB
S315010110B8C462002010B500F05DF8044600F03EFE5A
S315010110C828B14FF0E0234FF08052C3F8042D204692
S315010110D8BDE8104000F059B8836913F8023C022BA8
S315010110E80FD14FF0E023D3F8882D42F47002C3F8EB
S315010110F8882DD3F8342F42F04042C3F8342F00F03B
S3150101110807B8704700000000000000000000000059
S315010111180B4A1168086806C881F30B88022181F315
S315010111281488203080F30988BFF36F8F4FF00000D0
S3150101113880F31188104700BFAFF30080AFF3008039
S31501011148F84900200000000000000000000000002E
S3150101115807480068006880F3088862B661B6BFF37C
S315010111684F8FBFF36F8F02DF00BF00BFAFF3008060
S3150101117808ED00E0EFF311804FF0300181F311889A
S31501011188BFF34F8FBFF36F8F704780F31188BFF39A
S315010111984F8FBFF36F8F70470000000000000000FA
S315010111A8EFF309801EF0100F08BF20ED108AEFF347
S315010111B80B82734620E9FC0F114A116808604FF04A
S315010111C8300080F31188BFF34F8FBFF36F8F00F0A3
S315010111D8FFFE4FF0000080F31188094A116808687B
S315010111E8B0E8FC0F13F0100F08BFB0EC108A82F3B8
S315010111F80B8880F309881847AFF30080AFF30080A5
S31501011208F84900200000000000000000000000006D
S315010112181EF0040F0CBFEFF30880EFF309800449B0
S31501011228084700BFAFF30080AFF30080AFF300803A
S31501011238390F800010B5044600F064FD20461AF006
S3150101124867DA044600F006FE204610BD10B50446CD
S3150101125840B100F057FD20461AF062DABDE81040A8
S3150101126800F0F8BD10BD70B50446FFF709FF94F803
S31501011278455004F124066DB2002D14DCFF2384F8D0
S315010112884530FFF70BFFFFF7FBFE94F8445004F1D5
S3150101129810066DB2002D12DCFF2384F84430BDE837
S315010112A87040FFF7FBBE636A002BE7D0304600F0BA
S315010112B859FE08B100F0DAFE013D6DB2DCE723699A
S315010112C8002BE9D0304600F04DFE08B100F0CEFE04
S315010112D8013D6DB2DEE710B50446FFF7D1FEA46BF9
S315010112E8FFF7DCFEB4FA84F0400910BD70B5164665
S315010112F8026C0446856B42B906689EB9806800F09E
S3150101130809FFA6600135A56370BD6EB9406821F074
S31501011318E3DF6368226C1344A2686360934224BFC6
S31501011328236863600020EDE7C06821F0D5DF226CF0
S31501011338E36851429B1A2268E36093423EBFA36860
S315010113485B18E360022EEDD10DB1013DEAE72846AE
S31501011358D8E703461A6C084610B46AB1DC6899687D
S3150101136814448C4228BF1968DC6028BFD960D96842
S315010113785DF8044B21F0B09F5DF8044B7047F0B559
S31501011388044685B01D4601920E4600F075FEFFF72B
S3150101139877FEA26BE36B9A421FD22A463146204653
S315010113A8FFF7A4FF636A1BB104F1240000F0DAFD1B
S315010113B808B1FFF759FEFFF771FE012005B0F0BD2F
S315010113C8FFF75EFEA36BE26B9A42E6D80123019A07
S315010113D842B9FFF763FE0020F0E7022DDDD00023B5
S315010113E81F46F4E713B902A800F006FFFFF756FEF8
S315010113F800F088FCFFF744FE94F84430FF2B08BF40
S3150101140884F8447094F84530FF2B08BF84F8457079
S31501011418FFF744FE01A902A800F0FAFE20BBFFF777
S315010114282FFEA26BE36B9A4210D1FFF737FE0199A2
S3150101143804F1100000F070FD2046FFF714FF00F0DB
S3150101144809FD0028BCD1FFF70FFE06E0FFF726FECE
S315010114582046FFF708FF00F0FDFCFFF711FEA26B1E
S31501011468E36B9A42B2D298E72046FFF7FCFE00F0F9
S31501011478F1FCB0E738B100231A46194683600360C7
S31501011488C360FFF77CBF7047F0B5044685B00E46C9
S31501011498019200F0F1FDFFF7F3FDA56B9DB1314610
S315010114A82046013DFFF755FFA563236933B104F1D1
S315010114B8100000F057FD08B1FFF7D6FDFFF7EEFD65
S315010114C8012005B0F0BD019B1BB9FFF7E7FD00201F
S315010114D8F7E702A800F090FE2F46FFF7DFFD00F0BF
S315010114E811FCFFF7CDFD94F84430FF2B08BF84F8B2
S315010114F8447094F84530FF2B08BF84F84570FFF70F
S31501011508CDFD01A902A800F083FEF8B92046FFF72F
S31501011518E2FEA8B1019904F1240000F0FDFC204680
S31501011528FFF7A1FE00F096FC08B9FFF79DFDFFF74D
S31501011538A7FDA56B002DB2D1019B002BCDD1C4E727
S315010115482046FFF790FE00F085FCF0E72046FFF7FD
S315010115588AFE00F07FFC2046FFF7BDFE0028E6D093
S31501011568B5E72DE9F843044616461F468946FFF7AE
S3150101157801FEA26BE36B80469A4201D3022F20D169
S3150101158894F845503A46494620466DB2A36BFFF792
S31501011598ADFE6B1C10D1636A3BB104F1240000F066
S315010115A8E1FC10B10EB10123336001244046FFF776
S315010115B8ECFD2046BDE8F88301356DB284F8455046
S315010115C8F3E70024F2E770B504460D46FFF7D2FDAD
S315010115D8A26BE36B064693421BD994F84510013277
S315010115E8FF294BB2A2630FD1636A3BB104F124000F
S315010115F800F0B8FC10B10DB101232B60012430466E
S31501011608FFF7C3FD204670BD01335BB284F845304F
S31501011618F4E70024F3E7F0B5002585B00446019106
S315010116282E4600F029FD2F46FFF72AFDA36BA3B12C
S31501011638013BA363236813B900F0D2FDA0602369B6
S3150101164833B104F1100000F08DFC08B1FFF70CFD70
S31501011658FFF724FD012005B0F0BD019B1BB9FFF77A
S315010116681DFD0020F7E716B902A800F0C5FDFFF731
S3150101167815FD00F047FBFFF703FD94F84430FF2BF6
S3150101168808BF84F8447094F84530FF2B08BF84F8E5
S315010116984570FFF703FD01A902A800F0B9FD10BBCA
S315010116A82046FFF718FEC0B123683BB9FFF7E8FCEE
S315010116B8A06800F0F1FC0546FFF7F0FC019904F179
S315010116C8240000F029FC2046FFF7CDFD00F0C2FBFE
S315010116D808B9FFF7C9FC0126A6E72046FFF7C3FDAE
S315010116E800F0B8FBF7E72046FFF7BDFD00F0B2FBB6
S315010116F82046FFF7F0FD0028EDD0002DB1D0FFF708
S31501011708BFFC616A19B1236B1968C1F13801A06877
S3150101171800F02EFDA3E710B50446FFF7B1FC2368D7
S3150101172823B9A468FFF7BAFC204610BD0024F9E7DE
S3150101173870B5866804460D4600F092FC864204D1CE
S315010117480120E3680133E36070BD29462046FFF7AE
S3150101175862FF0028F8D0E3680133E360F4E738B59E
S315010117688568044600F07CFC85420BD1E368013BA0
S31501011778E3600BB1012038BD1A4619462046FFF729
S31501011788FEFDF7E70020F6E7002330B5064A52F8D1
S31501011798335002EBC3041DB942F83310606030BD02
S315010117A801330A2BF3D1FAE7B0440020002310B51F
S315010117B8084A52F83310DC00814206D10021064A53
S315010117C842F833102244516010BD01330A2BF0D17E
S315010117D8FAE700BFB4440020B044002010B5FFF772
S315010117E8E5FF90F846301BB9BDE81040FFF72EBD5D
S315010117F810BD70B504460D461646FFF741FC94F82F
S315010118084430FF2B04BF002384F8443094F8453053
S31501011818FF2B04BF002384F84530FFF73FFCA36B78
S315010118282BB93246294604F1240000F085FB2046EE
S31501011838BDE87040FFF717BD38B504460D46FFF7F9
S315010118481FFCD4E90F314B432268D0185B1AA060FB
S31501011858626000201A44FF23A063E26084F84430E1
S3150101186884F8453065B9236933B104F1100000F0F4
S3150101187879FB08B1FFF7F8FBFFF710FC012038BD2A
S3150101188804F11000FFF748FB04F12400FFF744FBBC
S31501011898F2E7F8B50646484350300D461746FFF7B5
S315010118A8C9FC044670B1002380F8463065B100F1E0
S315010118B8500301212046C4E90F652360FFF7BCFFE8
S315010118C884F84C702046F8BD0346F2E7024610B586
S315010118D800210120FFF7DDFF0446FFF7CBFD204676
S315010118E810BD10B502220C460021FFF7D2FF00B147
S315010118F8846310BD37B50D465021019101991C46E6
S3150101190801997BB1002D08BF1A460121C3E90F05CB
S3150101191883F8461018461A60FFF78EFF9DF81830AE
S3150101192884F84C30204603B030BD002213B50B466E
S31501011938009011460120FFF7DDFF0446FFF79AFDE6
S31501011948204602B010BD1346022213B500920022A9
S315010119580C461146FFF7CEFF00B1846302B010BDF4
S3150101196810B590F85D3004463BB9006BFFF76EFC84
S315010119782046BDE81040FFF769BC012BF9D010BD1F
S31501011988F8B50646144B154D1C6828680F460430F0
S31501011998FFF7F2FA731C07D137B1296810480431E8
S315010119A8BDE8F840FFF7DDBA2B68A4195C6007D3D7
S315010119B80C4B18682968BDE8F8400431FFF7BABA33
S315010119C8094B186829680431FFF7B4FA074B1A68F5
S315010119D8A24288BF1C60F8BD20450020F8490020B5
S315010119E828450020684500206C4500200445002053
S315010119F8064A13681968064B19B94FF0FF321A607E
S31501011A0870471268D2681268F9E700BF6C45002071
S31501011A18044500202DE9F0410446FFF731FB2D4B22
S31501011A282D4E1A682D4F01321A603568002D43D1A2
S31501011A3834601B68012B1FD1B84640460135FFF7B3
S31501011A486BFA382D08F11408F7D1DFF8B880244D5F
S31501011A584046FFF761FA2846FFF75EFA2148FFF784
S31501011A685BFA2148FFF758FA2048FFF755FA204B48
S31501011A78C3F800801F4B1D6014201F4A13680133E8
S31501011A8813601E4A23641168E36A8B4200FB0370E3
S31501011A9804F1040188BF1360FFF763FAFFF7FEFA41
S31501011AA8174B1B689BB13368DA6AE36A9A420ED20D
S31501011AB8BDE8F041FFF7D8BA114B1A68E36A002A63
S31501011AC8DAD13268D26A9A4298BF3460D4E7BDE85E
S31501011AD8F08100BF24450020F849002098450020DF
S31501011AE87045002054450020404500202845002026
S31501011AF86C45002068450020084500201C4500204A
S31501011B08184500208445002080B50F4C0F4F104D14
S31501011B18236833B90F4B1B68012BF8D9FFF7A4FAD0
S31501011B28F5E7FFF7ADFAFB68DE68301DFFF724FA22
S31501011B382B68013B2B602368013B2360FFF7AEFA53
S31501011B483046FFF70DFFE3E73C45002040450020FD
S31501011B5824450020984500202DE9F0470D46DDE989
S31501011B680994960032460746A521206B9846FEF749
S31501011B7887FF236B043E1E4426F00706002D39D044
S31501011B886B1E04F13302093513F8011F02F8011F0F
S31501011B9809B1AB42F8D1002384F83D30089D4FF0D5
S31501011BA8000A372D28BF3725201DE562A564C4F82B
S31501011BB84CA0FFF7BCF9C5F1380504F11800FFF788
S31501011BC8B6F943463A463046216B2461A5616462FA
S31501011BD8C4F850A0C4F854A0C4F858A084F85CA06D
S31501011BE8FFF7DAF92060B9F1000F01D0C9F8004011
S31501011BF8BDE8F08784F83450D0E72DE9F04307466C
S31501011C0885B09000884616469946FFF713FB0546A7
S31501011C1820B94FF0FF3005B0BDE8F0836020FFF72A
S31501011C2809FB044698B1002380F85D300D9B0563D5
S31501011C3801930C9B324641460290009338464B4626
S31501011C48FFF78AFF2046FFF7E5FE0120E3E728466D
S31501011C58FFF7FCFADDE770B5602686B00596059EA5
S31501011C68DDE90B54059E8CB185B12563022584F8FE
S31501011C785D5004AD01950A9D02940095FFF76CFF2D
S31501011C882046FFF7C7FE049806B070BD00230493EA
S31501011C98F9E7000030B5002489B007AA06A905A805
S31501011CA8CDE90544FFF720F9059B079A0293069B9F
S31501011CB80E49CDE900430E482346FFF7CCFF80B113
S31501011CC800F020FB012805460BD1FFF753FA4FF027
S31501011CD8FF32084B1A60084B1D60084B1C60FFF761
S31501011CE8A5F9074B1B6809B030BD00BF5038020181
S31501011CF86919800004450020184500202045002067
S31501011D08C8620020024A136801331360704700BF95
S31501011D1800450020014B1868704700BF2045002087
S31501011D28012906DC08B9044B1868143150F8210059
S31501011D3870470020704700BFF84900203A4B2DE94A
S31501011D48F74F1B68002B68D1384B1C6801341C609E
S31501011D586CB9374B1A681268364A196810681860DF
S31501011D681160354A136801331360FFF741FE334D9C
S31501011D784FF0000B2B68324EA342324F12D9142170
S31501011D883A68D26A4A43B258022A2F4A28BF4FF003
S31501011D98010B1268002A18BF4FF0010B584603B010
S31501011DA8BDE8F08FDFF88890DFF8A4A0D9F8002004
S31501011DB812681AB94FF0FF322A60E0E7D9F8002014
S31501011DC8D268D2F80C80D8F804108C4201D2296065
S31501011DD8D5E708F1040318460193FFF7CDF8D8F8BA
S31501011DE8281019B108F11800FFF7C6F81423D8F815
S31501011DF82C00DAF80010884288BFCAF80000019958
S31501011E0803FB0060FFF7ADF83868D8F82C10C26AF1
S31501011E18914228BF4FF0010BC8E70C4A4FF0000B5E
S31501011E28136801331360B9E70045002020450020F6
S31501011E386C450020684500200C450020044500201A
S31501011E4898450020F8490020104500201445002036
S31501011E581C4500202DE9F041274C2368FFF710F9AD
S31501011E682368013B236024682CB10024FFF716F986
S31501011E782046BDE8F081214B1B68002BF5D0204D8A
S31501011E88204EDFF890801DE0EB68DC68271D04F120
S31501011E981800FFF771F83846FFF76EF81420E36A60
S31501011EA8326800FB03809342394688BF3360FFF7E6
S31501011EB858F8154BE26A1B68DB6A9A4202D301227A
S31501011EC8124B1A602B68002BDED10CB1FFF790FD7E
S31501011ED80F4D2C6844B101270C4EFFF72FFF00B1B6
S31501011EE83760013CF9D12C60084B1B68002BBCD02B
S31501011EF8FFF7BAF80124B9E7004500202445002077
S31501011F08544500201C450020F849002010450020B1
S31501011F18144500209845002010B50C46054B196853
S31501011F281831FFF707F82046BDE810400121FFF7F0
S31501011F3827BD00BFF849002038B514460D46084BA0
S31501011F4819681831FFF70DF8002C214608BF2846F4
S31501011F58BDE8384018BF4FF0FF30FFF711BD00BF8C
S31501011F68F849002038B5C368DC6804F11805284624
S31501011F78FFF702F8104B1B68DBB9251D2846FEF74A
S31501011F88FBFF0E4A14201168E36A8B42294688BF72
S31501011F9813600B4A00FB0320FEF7E3FF094BE26AD4
S31501011FA81B68DB6A9A4285BF0120074B002018602E
S31501011FB838BD29460548EFE7004500201C450020A4
S31501011FC898450020F8490020104500205445002075
S31501011FD8F8B51E4B1A681E4B12B101221A60F8BDDB
S31501011FE81C4C1A6023681B6B1A68B2F1A53F0BD109
S31501011FF85A68B2F1A53F07D19A68B2F1A53F03D153
S31501012008DB68B3F1A53F04D0206821683431FEF7B6
S3150101201869FF1427104E114A316807FB01F3D55898
S31501012028D0188DB1456808336D6813449D4208BFC0
S315010120386B68456008BF4360142303FB012253689B
S31501012048DB6823603160CAE70139E6E7004500200C
S3150101205810450020F84900201C450020984500201C
S31501012068014B1868704700BFF84900200122014B4E
S315010120781A60704710450020054B1B6833B1054BA3
S315010120881868B0FA80F0400940007047012070478E
S315010120981845002000450020F8B5044638B31A4D05
S315010120A8C36A2A68D26A934226D28269174E002ADE
S315010120B8A1BF2A68D26AC2F138028261142202FBDF
S315010120C8036342699A4213D1071D3846FEF754FF45
S315010120D814202B680E4ADB6A116800FB03608B42E8
S315010120E8E362394688BF1360FEF73BFF0120F8BD5D
S315010120F82B68DB6AC362F9E72B68806CDB6A984255
S315010121082CBF00200120F2E7F8490020984500205C
S315010121181C45002038B5044608B9002038BD114BC5
S31501012128C16A1B68826CC36C914203F1FF33C364B4
S31501012138F3D0002BF1D1051D2846FEF71DFF14200A
S31501012148A36CC3F13802A261074AE36211688B42A3
S3150101215888BF1360054A294600FB0320FEF701FFE4
S315010121680120DBE7F84900201C450020984500209D
S3150101217870B5044660B3836C994238BF1946C36A80
S315010121888B4225D0C26C012A22D1124A124D1268FC
S315010121988269C162002A4FF0140202FB03534269A4
S315010121A8A4BFC1F1380181619A4211D1061D304698
S315010121B8FEF7E2FE1420094AE36A116800FB03509F
S315010121C88B423146BDE8704088BF1360FEF7C9BE30
S315010121D870BD00BFF8490020984500201C45002024
S315010121E8044B1A681AB11968CA6C0132CA641868AB
S315010121F8704700BFF8490020034B1B680360034B76
S315010122081B684360704700BF0C450020204500202C
S3150101221870B50D460446FEF733FF0F4B19682B6857
S315010122285A1C17D00D48266800686268864208D08C
S315010122388A4206D8002301242B60FEF72FFF204688
S3150101224870BD881A8342F5D95B1A134420462B605F
S31501012258FFF7D2FF0024F0E7204500200C450020B6
S31501012268914208B5416000610AD8D21A83699A4236
S315010122780DD2084B011D1868FEF75CFE002008BD4A
S315010122889A4201D2994202D2034B011DF3E7012079
S31501012298F5E700BF584A00205C4A0020F7B5114C02
S315010122A8FEF7EEFE2568BDB90F4F104E3846FEF70B
S315010122B833FE3046FEF730FE0D4B10211F600D4BE4
S315010122C80A201E600C4A0D4B0095FFF713FB20608F
S315010122D810B10B49FFF758FA03B0BDE8F040FEF714
S315010122E8DDBE00BF544A0020744A0020604A00201E
S315010122F85C4A0020584A0020BB570020004A0020AA
S315010123085538020110B588B0FFF7C8FF0E4B0024F6
S315010123181868B8B107AA06A905A8CDE90544FEF7C3
S31501012328EFFD059B079A0293069B0849019328230A
S31501012338074800932346FFF78EFC064B1860001BDE
S3150101234818BF012008B010BD544A00205A380201AD
S315010123588D228000504A00207FB50F4C0546206822
S3150101236816461A4680B10529CDE9001602950DDCF6
S31501012378FFF782FE0023022818BF1A46694608BFDD
S31501012388089A2068FEF7FBFF04B070BD0023694671
S31501012398FFF7E7F8F8E700BF544A00202DE9F347AC
S315010123A80646FFF7B7FCDFF880800546D8F8003006
S315010123B8834209D91A4F3B681A686AB9194A1168D9
S315010123C813603960012300E0002328463360C8F809
S315010123D8005002B0BDE8F087DB68DC68D3F80090ED
S315010123E804F1040A5046FEF7C7FD236A20469847B9
S315010123F894F828305B07DED5A3694B44994506D283
S315010124085146386863602461FEF794FDD3E70023DA
S315010124184A46194620460093FFF79EFFCBE700BFC0
S315010124285C4A0020584A0020FC4900202DE9F04762
S3150101243800275E4D88B02B68D3F80080B8F1000FEC
S3150101244850D00024DB68D3F80080FFF75BFC04A8B1
S31501012458FFF7A4FF049B8246554E002B5CD1002C45
S3150101246847D140454BD3FFF7F5FC2B68DB68D3F819
S315010124780C9009F10400FEF77FFD99F828305807F9
S3150101248832D5D9F818104346524648464144FFF712
S31501012498E7FE30B123464246214648460094FFF7F6
S315010124A85BFF4846D9F8203098470022306804A9CD
S315010124B8FEF7EAFF0028BED0049B0698002B2EDB07
S315010124C8069C6369002B31D103A8FFF767FF049BBB
S315010124D80246092BE9D8DFE803F02D2D2D4C53616E
S315010124E82D2D4C530124B0E723F0010389F8283037
S315010124F8D7E7304B1B681C68B4FA84F46409224691
S315010125083068A8EB0A01FFF774F9FFF7A3FC002865
S31501012518CBD1FEF7A9FDC8E7FFF79CFCC5E7059BEB
S3150101252807999847049B002BBFDBC9E7201DFEF7D6
S3150101253823FDC9E794F82830A16943F0010384F81A
S315010125482830059B20461944FFF78AFE0028ACD09E
S31501012558236A2046984794F828305907A5D50023B8
S31501012568A269059920460A4400971946FFF7F4FE20
S315010125789BE794F8283023F0010384F8283094E77F
S3150101258894F8283043F0010384F828300599034665
S31501012598A16101442046FFF763FE86E794F82830D6
S315010125A89A07E8D42046FEF751FE7EE75C4A0020E9
S30D010125B8544A0020584A002093
S315010125C010B5054C237833B9044B13B10448AFF365
S315010125D000800123237010BDB457002000000000C4
S315010125E0A44C020108B5034B1BB103490348AFF3E0
S315010125F0008008BD00000000003A0020A44C020141
S31501012600A3F5803A704700BF154B002B08BF114B4C
S315010126109D46FFF7F5FF00218B460F461148124AE9
S31501012620121AEEF75DD90C4B002B00D098470B4BD4
S31501012630002B00D098470020002104000D000B4813
S3150101264010F0CDFC09F024F9200029000FF085FADC
S3150101265008F07CFF000008000000000000000000F7
S3150101266018340020003600208C620020D9B80101FF
S3150101267008B503480BF02CFEBDE8084010F06EBC0E
S315010126804838020101480BF023BE00BF4838020158
S315010126900348044A0449121A921009F025BE00BFE3
S315010126A0A8010101C0250101000000204FF00060D1
S315010126B02DE988484049414B414AD3F8943088660F
S315010126C00221012B3F4B4FF0000099604FF0005161
S315010126D043D80025002600275FF000085FF00009B6
S315010126E05FF0000A5FF0000B5FF0000C501A4FF427
S315010126F08073B0FBF3F404FB03F40C44A14210D242
S31501012700A1E8E01FA1E8E01FA1E8E01FA1E8E01FA1
S31501012710A1E8E01FA1E8E01FA1E8E01FA1E8E01F91
S31501012720ECE7914202D241F8045BFAE70122254B1B
S315010127309A604FF00062A3F540539A6600F04CF897
S31501012740FFF7A6FF204B21498B4228D30020204BBE
S3150101275020498B422ED3FFF757FF501A4FF0200322
S31501012760B0FBF3F404FB03F40C44A14204D291E857
S31501012770E01FA1E8E01FF8E7914203D20D6841F895
S31501012780045BF9E7D2E7186850F82240586840F827
S315010127902240013298688242F5D30C33D4E70022F4
S315010127A0F8E71C6844F8220001325C68A242F8D3BA
S315010127B00833CEE70022F8E700508040008000A3ED
S315010127C00000082000908040AC4C0201B84C020187
S315010127D0B84C0201B84C0201044B054A9A60D3F880
S315010127E0882042F47002C3F88820704700ED00E0AA
S315010127F000000101002307B5294801930BF068FD8B
S315010128004FF44073012204216846ADF8003000F00F
S31501012810A1F80122234B0520C3F8442401A9EDF7B0
S3150101282043DC002839D1204BD3F8F02042F00102D4
S31501012830C3F8F020D3F8FC2042F08072C3F8FC20E3
S315010128401A4AA3F55D431A60019B194A03F5D5237B
S3150101285003F2FC43B3FBF2F3164A013B1361022374
S31501012860C2F8F0304FF48073C2F804334FF060437D
S31501012870114AC3F8B02F114AC3F8802ED3F8002E9E
S3150101288042F48072C3F8002EFF2283F82020D3F888
S31501012890002E22F48072C3F8002E03B05DF804FB0A
S315010128A04838020100D0834000ED00E0FF030040FB
S315010128B0F8590D00000004E055CEACC50900010030
S315010128C02DE9F04104460C254FF00108124E0CB3D7
S315010128D014F001000BD0002024F0010405FB006275
S315010128E05768002FF3D09168C0B2B847EFE7224687
S315010128F0013020284FEA520201D0D307F8D508FA50
S3150101290000F20F2824EA0204E8D9103805FB006217
S31501012910B432E5E7BDE8F081183A002008B50C4864
S315010129200BF0D6FC2A2003F0C9FA28B12A2003F0BC
S31501012930D3FA2A200BF0D3FC2B2003F0BFFA28B1DE
S315010129402B2003F0C9FA2B200BF0C9FC002008BD8E
S31501012950483802012DE9F0410E469046054620B35D
S315010129600F2924D803783BB1012B03D0022B1AD0AE
S31501012970032B1CD1072300E01F236A78D340DB0711
S3150101298015D50D4BD3F810439CB9EDF7B3DD0746C9
S3150101299042462846314601F035FD3846EDF7A5DDBB
S315010129A02046BDE8F0813F23E7E72224F8E7212409
S315010129B0F6E70224F4E700BF00C0834008B501F041
S315010129C017FD054B00F0553020F05020C3F82004C7
S315010129D0BDE80840FFF774BF00E0834008B501F088
S315010129E007FD054B00F0AA3020F0A020C3F8200412
S315010129F0BDE80840FFF764BF00E083402DE9F04FD1
S31501012A00144606460D469B46036C87B001225B6957
S31501012A1002A960689847336C01225B6903A92846BC
S31501012A20984702A80AF0A6F9074648B10023A375FB
S31501012A3063754FF0FF33A360002007B0BDE8F08F47
S31501012A4003A80AF0A4F90123A375237E04EBC303AA
S31501012A50DD611F846368AB420ED1206003A80AF0D1
S31501012A60B8F94FF0FF332075A360237D043B022B98
S31501012A7026D80023A375DFE723681A1A5342534167
S31501012A80A37503A80AF0A5F9237D834218BFA7758B
S31501012A9003A80AF080F9074602A80AF07CF98742E1
S31501012AA018BF002303A818BFA3750AF07CF90746CE
S31501012AB002A80AF078F987421CBF0023A375D4E75F
S31501012AC003A80AF068F980B1336C022228465B69D2
S31501012AD004A9984704A80AF06DF90346207D032845
S31501012AE039D8DFE800F03838040903A8F3E7CC2226
S31501012AF0237E04EBC3031A8401F0F0FB109B1870CB
S31501012B0003A8277E0AF03BF904EBC70787F82200E1
S31501012B10237E03A804EBC303B3F8209093F8227034
S31501012B200AF039F9804603A80AF03DF98246B8F15F
S31501012B30000F15D0336C022228465B6904A9984718
S31501012B4004A80AF0FCF86075637D6BB90023A375CF
S31501012B504FF0000838E0227E04EBC2021384CBE772
S31501012B6003A80AF0D7F8EEE794F81680B8F1000F3A
S31501012B70EED0B9F1000F09D1DFB10123627EE37510
S31501012B80002A44D19F4218D1677614E0F36C05EB14
S31501012B900A02594285EA020008421CBF0021A175B9
S31501012BA0591E0A409B1A9945D0D8A37D002BE3D122
S31501012BB0CEE7E37D43B94FF000084B46524629461D
S31501012BC0304609F0EDFCA060A27D12B123694B44A8
S31501012BD023611449237E097899421ED9013323764B
S31501012BE0BBF1000F1BD0D2B1E37DC3B1B8F1000F28
S31501012BF015D1032F13D0A1684B1C10D0109B22466F
S31501012C00009330460123FFF7F9FEA07507E0012F76
S31501012C10DAD0032F08BFA376CDE70023A375A07DE4
S31501012C200BE700BF283702012DE9F04F0E46984602
S31501012C3000238BB004464FF0FF31104617468DF83D
S31501012C40133001F035FBB6F5801F3BD3B21C53D1CE
S31501012C50256B6B1C57D12046A16A09F0E7FB054696
S31501012C60B31C18BF0123DFF824910193A36AE26C17
S31501012C700293236805A902FB053A236C05225B69C8
S31501012C805046984705A80AF010F90AF033F950465B
S31501012C900AF03BF94FF0000B824601464B1C05D069
S31501012CA0E36C81EA0A025B42134232D0294620468D
S31501012CB009F0BCFB029BAB424DD0BBF1000F4DD1DC
S31501012CC00546D3E7314605AA04F1080009F07CFF60
S31501012CD00146481C10D0384601F0EAFA012239466C
S31501012CE020460DF1130309F0A4FC28B19DF8133018
S31501012CF088F80030002003E0237C002BA8D12D2089
S31501012D000BB0BDE8F08F2368ED1AE36CB5FBF3F563
S31501012D10A6E7484601F0CCFA0DF1130349462046D0
S31501012D20019A09F086FC034690B1B21C03D0D9F889
S31501012D300020B2420CD19DF813200393124B88F85F
S31501012D40002049461A68384610F0F6F9039B9B465E
S31501012D50D9F80810A2E7BBF1000FD0D0B6F5801F54
S31501012D60C8D208343146204698F800307A6809F00D
S31501012D7033FE0028BED13146204698F800307A68E4
S31501012D8009F095FEBCE700BF24370201CC3B0020C8
S31501012D902DE9F3410446174698460E46194DC16A77
S31501012DA0236B8B422AD04B1C18E0284601F080FA8E
S31501012DB00122294620460DF1070309F03AFC30B1FB
S31501012DC04346294620469DF80720B847B0B1A96870
S31501012DD04A1C05D0012E0AD0236B9942E5D10DE09B
S31501012DE06968204609F0AFFB012E0146D8D16B680F
S31501012DF081EA0302E36C5B421A42D1D002B0BDE81B
S31501012E00F08100BFA03B00202DE9F041436B9046C4
S31501012E10C26B07689A4288BFC363C26C836A90B06A
S31501012E2002FB0377036C0E46052201A95B69044681
S31501012E303846984701A80AF038F80128014630704A
S31501012E4057D0E56C226C2368A06AD2F814C005FB41
S31501012E500030052206A9E04706A80AF026F801284E
S31501012E604FF0000523D0D4E90B3201219342CDE97C
S31501012E700B458DF834800E958DF83C102AD11946F3
S31501012E80204609F060FB636BE26C14339B1A2063E5
S31501012E9063630C9B53B99DF83C303BB1A26AE16C6B
S31501012EA02368206C01FB023109F0B7FF0C9D236CED
S31501012EB005225B6901A93846984701A809F0F5FF82
S31501012EC030702846636BE26B9A4288BFE36310B0A8
S31501012ED0BDE8F081237C33B91C490BAA04F1080032
S31501012EE001F07AF9D5E72046194A0BABFFF750FFF6
S31501012EF0CFE7237C23BB2246164904F1080001F0E2
S31501012F006BF9A16A204609F0B2FAA16A421C204670
S31501012F1009F07BFA054620B9636BE26C1344143B55
S31501012F2063632046E16A09F00EFB2368E062C01A79
S31501012F30E36CB0FBF3F0A062204609F047FBB6E76C
S31501012F4000232046044AFFF723FFDAE7353701015B
S31501012F50B1360101CDC6010169C6010173B50D463F
S31501012F60D11E4A421C461B7E4A419A4226D12968F4
S31501012F702368994222D3636899421FD8114E0DF1F4
S31501012F8007033246FFF750FEC0B972686B689A4271
S31501012F9014D19DF80730DA1E53425341227E9342E2
S31501012FA00CD1636901336361D4E90323934205D2E9
S31501012FB02968A26842F8231001332361012002B076
S31501012FC070BD00BFF83B00202DE9F04F9A468BB04A
S31501012FD09DF85030DFF850B10293DBF8103080468E
S31501012FE053450D461646C0F09980D146DBF80430AB
S31501012FF00193B9F1000F00F08D80D8F8403001221C
S315010130005B6907A90198984707A809F0C0FEDBF893
S315010130100030984240F0858007A809F0C4FE0428D3
S31501013020074614D107A809F0C5FE019B029A044679
S315010130303B44002A3FD1864212D91446361A4046EC
S31501013040019909F080FAA9EB04090190D1E7D8F8B1
S31501013050403002225B69019808A9984708A8E2E76E
S31501013060841B544528BF5446032C03EB0607AAEBE0
S31501013070040A4FEA94021CD9D8F840302946384649
S315010130805B69984724F0030304F003061F441D44BA
S31501013090002ED4D0D8F8403001225B6908A9384600
S315010130A098473246284608A9354410F045F80026C6
S315010130B0C5E72646ECE7074600F0030203920344FF
S315010130C02A1804920593049BDD1B059BD81B039BC0
S315010130D09F420FD1002FB2D0D8F84030012208A962
S315010130E05B6998473A46284608A90FF0CEFF78B999
S315010130F03D44A4E7D8F84030012208A95B69984705
S315010131000422284608A90FF0C0FF08B9043FDAE7EF
S315010131104FF0360948460BB0BDE8F08F4FF0630911
S31501013120F8E74FF06F09F5E7243C00202DE9F0415E
S315010131300F4616469846044688B060B390F8385053
S31501013140FDB1012109F037F900210E9BCDE90511E8
S31501013150CDE902379DF83C30CDF804808DF81C305D
S31501013160237C04968BB90D4901AA04F1080001F0EB
S3150101317033F8DDE90553206C002E08BF1D4609F021
S31501013180B3FA284608B0BDE8F0812046044A01ABEE
S31501013190FFF7FEFDEDE70546F3E700BF97C601011F
S315010131A05D2F01012DE9F04F99B00F4609920A6988
S315010131B0C16C0C931439D31DB3FBF1F3013302EB4B
S315010131C0C302436B04469342C0F019820023DFF820
S315010131D038940E93236B48461946079301F068F814
S315010131E0D7E9033604930C9B022B4ED1CC2E40F02A
S315010131F09681099B002B42D03946204609F0D2FA25
S31501013200E56C079A6B1E13401490ED1A236C01228B
S315010132105B6916A97868984716A809F0BCFD0028CC
S315010132200CBF04230823782E06933DD901230025DB
S315010132304FF0080A05933B6805990C98C9F80030C7
S31501013240C9F8106009F0C9FD4FEA9A0310930023EA
S31501013250DDF81CB089F814000B930F9308930D93B5
S31501013260E16C4A1E0BEA02028B1A002E38D0554434
S31501013270AB4240D8636B5B1A13446363ABE0049BB7
S315010132801B68149308230693D0E7E56C079A6B1E16
S315010132901340782EA5EB030516D8FB7D7BB9099B57
S315010132A0002BB3D104230693331DAB4210D9A6B12A
S315010132B0082DBBD804250023AA460593BBE7099B24
S315010132C0002BA3D10823EEE7099B002B9ED1D9E759
S315010132D0002505954FF0040AADE704250596F9E7A2
S315010132E05345C7D3B0460BEB0A030393089B002B47
S315010132F018BF032313E0A3EB0A039E42B0460BEB6F
S315010133000A0228BF98469E420392EFD90123D9F8B2
S31501013310102089F8173096427CD1C9F804B0089378
S3150101332099F81730002B77D099F818200899D31CF2
S3150101333009EBC3030132C3F804B0A3F808809972FB
S3150101334089F81820B8F1000F14D00C9B022B66D115
S315010133500B9B7BB90F9B4344032B0BD9236C012296
S315010133609B69039814A998470546002840F04981AD
S3150101337001230B93089B16A80193059B009399F8CA
S3150101338014204346396800F049FF236C58469B696E
S31501013390109A16A99847051E0E9B18BF5B46524601
S315010133A00E9359464346204609F0FAF8636B08F134
S315010133B00302A3EB0A0322F003029B1AC9F80800D0
S315010133C06363002D40F01D810F9BDDF80CB0434472
S315010133D0A6EB08060F935946204609F0B4F80025D5
S315010133E08346002E7FF43CAF874D0834AB686A688B
S315010133F0A362396820460C9B09F0EEFA002840F0D9
S31501013400E98020460C9B6A68396819B0BDE8F04F1E
S3150101341009F04DBB022382E7C9F804B092E7099B83
S31501013420002B31D1049BB8F1030F43440A9328D9E8
S31501013430DDE90301236C4FEA98029B69984705462A
S31501013440002866D118F0030260D0049B28F0030519
S315010134502B440493039B1D444FF0FF33049915A894
S3150101346015930FF069FE236C28469B69012215A964
S31501013470984705460A9B0493002D3FF47BAF039BB6
S315010134808DE74246039DE7E7039B0A9307F1200374
S315010134901193FB7D78689BB100233D7E0D9AD9B2CC
S315010134A08D4211D9119903F1010C31F83310914271
S315010134B026D9069907EBC303D8690A44104403E0E8
S315010134C00D9B069A13441844236C01225B6915A9C5
S315010134D09847159B012213930D9B0A9804330D936B
S315010134E0236C13A99B699847039B0A9A43449B1A28
S315010134F0042B054607D978B9134604330A93C8E75D
S315010135006346521ACBE70A9B0393B5E70A9B0493D9
S3150101351030E70A9B0493B2E70A9B0393AFE7702650
S3150101352004F1080303932368079AE06CA2EB030AEB
S31501013530BAFBF0FA00FB0A3009F0E7FC216B804681
S31501013540204609F000F8E26A82424AD0E26CD9F8D3
S315010135500830511E0B40616B2568891A0B44636360
S315010135600E9B20635D1BB5FBF2F5AA4536D1079B80
S31501013570B3EB080A12D0236C4FEA9A0241469B69C2
S3150101358098478346236B079A53442363636B0398D6
S315010135909B1A4344636309F008FADA462368E16C2E
S315010135A0206C01FB053109F025FC204608F00EFFD0
S315010135B0204609F00BF86063BAF1000F11D03A69A0
S315010135C0E16CD31D1439B3FBF1F3013302EBC302F1
S315010135D09042A8D2304619B0BDE8F08F4FF0000AEB
S315010135E0DCE73A69E16CD31D1439B3FBF1F301331D
S315010135F002EBC302636B9342BFF4ECADEAE71C260F
S31501013600E8E72E468CE700BFCC3B00202DE9F347C6
S315010136101E4683690446B342884617469DF828909B
S315010136203DD300258DF80750204608F096FED4F8C3
S3150101363034A082450AD2636AB5EB430F06D2002252
S3150101364020460DF10701FFF7DFFB30B39DF8073087
S31501013650012B05D1002220460DF10701FFF7D4FB0D
S31501013660B9F1030F06D03146204608F061FE656BBC
S31501013670854218D30D4D4FF0FF31284600F018FE53
S315010136804B46002229462046C5E90376C5F8008046
S3150101369002B0BDE8F047FFF785BD0135C4E76220F9
S315010136A002B0BDE8F0871C20FAE700BFF83B002015
S315010136B0032A2DE9F34106460D4617461C4606D156
S315010136C0237A012B23D0012002B0BDE8F081DFF876
S315010136D06080096842460DF10703FFF7A5FA6060AC
S315010136E00028EDD19DF80720237A032AE8D0D8F8DE
S315010136F004106A689142E3D1012B2969D4F80CC0FF
S3150101370007D1B2690CEB0103934202D92074207CE3
S31501013710DAE708316144E1603B4601222946304638
S31501013720FFF740FD60600028CAD00020CCE700BF4A
S31501013730F83B00202DE9F341089C032A1746266828
S3150101374006D1237A012B24D0012002B0BDE8F081F4
S31501013750DFF89080304642460DF10703FFF764FA20
S3150101376060600028EDD12568D8F80400E96AD5F82A
S315010137704CC04840CCF100031840227AE1D1012A1C
S3150101378009D1E268D8F810301344B269934202D9DB
S315010137902074207CD9E728682B6B1B1A081AB3FB06
S315010137A0FCF3B0FBFCF083420BD1F06C336B421E90
S315010137B01340726B121A13442846736308F0C3FE51
S315010137C02863D8F81020E36808321344E360012224
S315010137D03B4604492068FFF7E5FC60600028B0D04C
S315010137E00020B2E7F83B00202DE9F04F4FF0FF33FF
S315010137F04FF6FF720025044600F10806C0E90A23C7
S315010138008DB003634562456330460F4609F0CDF835
S31501013810204608F0DBFD20BB2046394608F056FE5E
S31501013820204608F0D3FD20BB5E200DB0BDE8F08F28
S31501013830226C2368E06CD2F814C000FB0530052226
S3150101384007A9E04707A809F030FB012828D1294635
S31501013850204608F00CFE421C2946204608F0D5FDFB
S315010138600135236A9D42E3D3204608F0AFFD0028C6
S31501013870D2D000254FF0FF394FF6FF73CA46A8464D
S31501013880C4E90953236A984514D3A5EB0905012D0A
S3150101389036D84FF6FF72A36A934246D16720C4E731
S315010138A009F02DFB0028DBD02946204608F0DFFD73
S315010138B00246D1E72368226CE06C576900FB0830A8
S315010138C0052207A9B84707A809F0EFFA834607A811
S315010138D009F0C2FA0746584609F00CFB68B157458B
S315010138E038BFC4F82880B94528BFB946BD4238BF9B
S315010138F03D46BA46636A0133636208F10108C1E7CD
S315010139004FF6FF730025A362236A9D42C1D2E76C7C
S315010139102068236C052207FB05005B6907A9984707
S3150101392007A809F099FA0135EEE7226CE76C2068E0
S3150101393002A907FB030055690522A84702A809F058
S315010139408BFAA26A2368E06C5B4D00FB023009F039
S31501013950DCFA4FF0FF33E06223632A466FF001017F
S3150101396020460DF10703FFF75FF900285CD1AF6827
S3150101397000252763236C01225B6907A978199847FA
S31501013980079B013352D1E36C0435EA197A405B4254
S315010139901A42EFD0656325B92046216B08F0D3FDA4
S315010139A020633946204608F0CEFD0546E36A9D426D
S315010139B03ED1A569E26CE91C143AB1FBF2F14FF073
S315010139C0000805EBC1050335B5FBF2F5C146023524
S315010139D0236A99453ED3A8455CD22046A16A08F0DF
S315010139E025FD0027064604F1480AB84512D8E26CBE
S315010139F0236802A902FB0639236C05225B69484645
S31501013A00984702A809F028FA534602464946206C0E
S31501013A1009F07DFA3146204608F008FD0137AF422B
S31501013A200646E2D3642000E7E76AA1E70025B1E78C
S31501013A302946204608F0A1FC636B29460344074643
S31501013A406363204608F07FFD0546002FAED1C4E928
S31501013A500C07ABE7E36C2768052203FB0977236CA7
S31501013A6007A95B693846984707A809F01EFA09F0C4
S31501013A7041FA60B1384609F048FA0146204608F094
S31501013A807CFCE36C143B984208BF08F1010809F17B
S31501013A9001099DE7304608F088FF002320461946B3
S31501013AA0064AFFF775F96369012B03D9304600F020
S31501013AB00BFABAE60020B8E6F83B002057C6010129
S31501013AC00023624A2DE9F04117680E460446136048
S31501013AD018B921252846BDE8F08190F838500DB373
S31501013AE009680268914240F0A98071684268914271
S31501013AF040F0A480B1688268914240F09F80F168EC
S31501013B00C268914240F09A8031698269914240F0DE
S31501013B109580B169026C914240F0908072691D46AF
S31501013B20C261D7E758222946D0F83C80ECF7D8DEA6
S31501013B30D6E90212336804F1080023607368C4F8F8
S31501013B403C8063603369A3617369E36108F040FFF7
S31501013B50B36904F1480023649B68984794F84B20A4
S31501013B6020B12562002AB4D05B25B3E7E56C002DAF
S31501013B70F7D06668B6FBF5F32362002AA9D0B542F0
S31501013B80F2D82268B2FBF5F105FB1122002A57D1C1
S31501013B9005FB1363002B53D1204608F0DEFBE369D5
S31501013BA0043303449E424DD340F63472A369CC3BA0
S31501013BB0934249D8B5F5007FD6D30321204608F0B3
S31501013BC0FAFBD4E90001236C1B6898470546236C6F
S31501013BD00220DB6898471DB1002384F838301DE0C7
S31501013BE039462046FFF700FE6428054604D13946C9
S31501013BF02046FFF7F9FD0546E36C143B002DEBD199
S31501013C00626A204602FB03F608F0A7FBE369043367
S31501013C1003449E4206D284F838505A25206C08F096
S31501013C2063FD57E70123D4E90001094A84F83830D5
S31501013C3013680133136009F06CF8EFE75D2549E775
S31501013C40592547E75A2545E75F2543E7843B002088
S31501013C50803B00202DE9FF410F4690461E46054651
S31501013C6098B390F8383093B3B1F5801F31D21A4C1D
S31501013C70022108F0A0FB2246394628460DF10F0321
S31501013C80FEF7D2FF024678B1012342460093394637
S31501013C9033462846FFF7BAFC0446286C08F024FD92
S31501013CA0204604B0BDE8F0819DF80F30012BEBD120
S31501013CB02169B142E8D10093414633462846FFF7CF
S31501013CC083F904460028DFD1E7E72124E8E7112437
S31501013CD0E6E72924E4E700BF243C00202DE9FF4162
S31501013CE00C4616461F46054680B390F838307BB31D
S31501013CF0B1F5801F2ED2DFF86080012108F05BFB50
S31501013D002146424628460DF10F03FEF78DFF044673
S31501013D1070B99DF80F30012B11D1D8F81030BB4283
S31501013D2012D10246009031462846FFF74DF9044665
S31501013D30286C08F0D9FC204604B0BDE8F081022BBD
S31501013D4014BF2D246024F3E76324F1E72124F2E76C
S31501013D501124F0E72924EEE7243C00202DE9F04364
S31501013D6085B00C4617461E460546DDF8308098B3E8
S31501013D7090F8383093B3B1F5801F31D2DFF86490F2
S31501013D80012108F018FB21464A4628460DF10F0389
S31501013D90FEF74AFF044688B99DF80F30012B14D16D
S31501013DA0D9F8102006EB08039A4213D30090434633
S31501013DB0324639462846FFF707F90446286C08F0CA
S31501013DC093FC204605B0BDE8F083022B14BF2D24D8
S31501013DD06024F3E76324F1E72124F2E71124F0E7F4
S31501013DE02924EEE7243C00202DE9F3411F46002357
S31501013DF00C46164605463B6050B390F838304BB336
S31501013E00B1F5801F28D2DFF85480012108F0D3FAD9
S31501013E102146424628460DF10703FEF705FF0446F2
S31501013E20A0B99DF80730032B10D0022B0AD101232B
S31501013E30336004233B60286C08F056FC204602B02F
S31501013E40BDE8F081D8F810303060F3E72D24F2E7B0
S31501013E502124F3E71124F1E72924EFE7243C00208B
S31501013E6030B50C46054685B028B390F8383023B3F2
S31501013E70B1F5801F23D2022108F09DFA0DF10F033E
S31501013E80214628460F4AFEF7CFFE034688B99DF81B
S31501013E900F20032A0DD0032221460092024628460D
S31501013EA0FFF7B4FB0446286C08F01EFC204605B05A
S31501013EB030BD2D24F7E72124F8E71124F6E729245B
S31501013EC0F4E700BF243C00202DE9F04FC56889B015
S31501013ED0AC00059020460AF074FADFF83CB2DFF82F
S31501013EE02CA2CBF8000020460AF06BFACAF80000B2
S31501013EF020460AF066FADFF81892DFF81882C9F847
S31501013F00000020460AF05DFAC8F8000020460AF0D2
S31501013F1058FA7C4F386020460AF053FA7A4B064626
S31501013F201860DBF8003000240293DAF80030D8F883
S31501013F3000E0039301236A1ED9F800C0D7F8008077
S31501013F400192019A9A42C0F0C1805A00009201225F
S31501013F50013B0693009B0025013B0492079367E011
S31501013F60069B5C19019B9C4228BF1C46079B03EBE0
S31501013F700509019B994528BF9946AC42C0F0A2802B
S31501013F804C4580F09F80029B002B00F09D80039B96
S31501013F90002B00F09980BCF1000F00F09580BEF175
S31501013FA0000F00F09180B8F1000F00F08D80002E16
S31501013FB000F08A800021049BEF0004EB030A059BB4
S31501013FC01B688A4539D10027A9EB040B03EBC4040D
S31501013FD0A2680398C2F3130240F82720E2684EF85B
S31501013FE0272054F8082F46F827200137BB45EFD182
S31501013FF00022A946144603F1040AA1422FD82746F5
S3150101400003EBC90AB9420AF1080A47D80F1BA142B3
S3150101401038BF00274F4403EBC703934503F1080358
S3150101402046D80024009B009A1D44049B9B1A0493C5
S31501014030019BAB4294D8009B83E7DA59029803EBC3
S31501014040070BC2F3130240F82120DBF804204CF8D8
S315010140502120DA59083748F821200131B1E7934582
S31501014060CDD9039850F82270029850F82400B8422D
S3150101407095BF58F8247056F8227043F8397043F801
S31501014080397096BF5CF824705EF8227001344AF8E3
S31501014090397088BF013209F10109AEE758F82700E5
S315010140A04AF8080C5CF8270001374AF8040CA9E71D
S315010140B056F8221043F8081C5EF82210013243F823
S315010140C0041CAAE72124ADE71924ABE702980AF0FB
S315010140D08AF90E4B18680AF086F90A4B18680AF034
S315010140E082F90B4B18680AF07EF9074B18680AF03A
S315010140F07AF9084B18680AF076F9204609B0BDE845
S31501014100F08F00BF8C3B0020883B0020983B0020AC
S31501014110943B0020903B00209C3B00202DE9F0417F
S31501014120C76898464368FFB19F422CD9B8F1030F7E
S3150101413025D023B305682E464FF0000C03E06345F5
S3150101414006F108061BD055F83C400CF1010CC4F3ED
S31501014150075EBEF1030FF2D1C1F3130141EA085122
S31501014160C6E90012BDE8F0814BB1056855F8374043
S3150101417005EBC70601341ED0B8F1030FDBD10123CC
S315010141800372BDE8F08105680024AC4655F8346038
S315010141900134C6F3130E013601D0714516D0A7427B
S315010141A00CF1080CF2D19F42C0D255F8374005EB0C
S315010141B0C7060134E0D1C1F3130141EA085145F8BB
S315010141C0371001377260C760BDE8F08141EA0851D5
S315010141D0CCE90012D5E700BF2DE9F041064640685A
S315010141E082B0C0B10F4690460024336853F834506B
S315010141F003EBC403C5F30752C5F31301013504F1FA
S31501014200010406D05B683046CDF80080B84710B18D
S3150101421070688442E9D302B0BDE8F08173B5044602
S315010142202248012A00EAC1119DF8185023F07C4069
S3150101423007D9961E012E28D9073303F07F031943A7
S3150101424008E09DF81C300A43DB0603F0C053134313
S3150101425043F060410023C4E900108DF80730B5B180
S31501014260202221460DF1070008F06BFE1A220DF1FD
S315010142700700211D08F065FE082063689DF80720E7
S3150101428043EA8263636002B070BD1143E2E71B2218
S315010142900DF10700214608F054FE23689DF8072019
S315010142A0042043EAC2632360EDE700BF80FFFF07F5
S315010142B038B5094B0D461A6800210446ECF710DBA7
S315010142C000234FF0FF322383C4E900252361A26055
S315010142D0E382A37638BD00BF243702010138C0B29B
S315010142E005289ABF014B185C012070472937020145
S315010142F02DE9F0410746154600240E46596888B056
S31501014300490A012922464FEA510104F10104F8D86B
S31501014310DC78997824031B88C90201F4006104F44D
S3150101432080540C43C3F30A035203234492B24FF060
S3150101433000089C18274B6FEA0444039325F0784340
S31501014340ED4302A90DF107001B2202938DF80780A7
S3150101435008F0F7FD9DF80720029B02A943EAC26313
S315010143600DF107001B2225F07845049302958DF87E
S31501014370078008F0E6FD9DF80720029B6FEA1444C9
S3150101438043EAC26305934FF0FF330794069307A9E6
S31501014390BB69012206F110009847BB6905A90446CC
S315010143A0012206F108009847BB69404518BF04463A
S315010143B004A90122301D98470122404518BF044630
S315010143C0BB69304603A99847404508BF204608B056
S315010143D0BDE8F08101009AB20122437801789A4041
S315010143E030235943014B5A50704700BF40E0834087
S315010143F0034BD3F82424D3F820041040704700BF9F
S3150101440000C083402DE9F8431F4B0546D3F810330D
S315010144104B1E0E2B0E461746047890F8018026D9BD
S3150101442051B34FF0000928461FB3EBF7BDDF0F214A
S31501014430B8F1070F04EB440488BFA8F108084FEA55
S315010144400414124895BF4FEA88084FEA88080434D4
S315010144500C3409FA08F201FA08F1204408F08FFD3B
S3150101446086B9284657B1BDE8F843EBF79D9F8946C2
S31501014470D9E7FFF7B1FFDAE78946D8E7BDE8F8439F
S31501014480FFF7AABFBDE8F88300C0834030C083406F
S315010144904FF480320A4B5A6603F5DE239B69C3F357
S315010144A003320270C3F303424270C3F3461203F0AF
S315010144B00F03134343804FF6FF738380704700BF99
S315010144C00050804000487047001000002DE9F0417E
S315010144D0ECF736DA0128074620D9ECF765DA051E2D
S315010144E003DA01242046BDE8F0811F4B1B78002B1E
S315010144F037D14FF050081D4C04EB0800A465C4F8F0
S315010145005C80ECF7A3DA206680B90124012FE9D991
S315010145102846ECF76BDA0028E4DAE2E7124B1B785E
S3150101452003F0FF05002BE4D00024DBE70024104E45
S31501014530214606F1100332460120C6E90044C6E9C7
S315010145400238ECF755DB30660028DED00321012065
S3150101455009F0C7FE012009F0C2FE0122024B1A70C1
S31501014560D4E70024D4E700BFB5570020B43C0020AE
S31501014570503C002008B5ECF7E3D9012805D9ECF741
S3150101458013DA002821DA012008BD174B1B7803F045
S31501014590FF00002BF8D0EBF713DF0028F4D101203F
S315010145A001F09AFC012009F098FE104B186EECF708
S315010145B0A9DB90B90E4B186EECF7F6DA003818BF85
S315010145C001200022084B1A70DEE7074B1B7833B135
S315010145D0ECF70CDA0028DEDAD5E70120F1E7ECF792
S315010145E005DAC00FD0E700BFB5570020503C0020C7
S315010145F0B43C002008B54FF085435B6CD90208D560
S31501014600ECF79ED90238012803D8074B186EECF74F
S3150101461047DB4FF085435A6CD202FCD55B6D012015
S31501014620BDE8084001F058BC503C00202DE9FF4788
S315010146304FF000080E4617460446CDF800800028C3
S3150101464059D022B90025284604B0BDE8F0870029D2
S3150101465051D032F0030902F0030A1FD04FF0E06393
S31501014660C0E9003801230191C0F808800293C0F81E
S315010146701C8049F0005301A9039308F0F8FF49464C
S315010146802046EBF701DF2046EBF7B8DE054628B1F8
S315010146904A4641463046ECF723D9D4E7BAF1000F31
S315010146A0D0D04FF000084FF0E063C4E90038012390
S315010146B0CDF804D00293114B204601A9C4F8088014
S315010146C0C4F81C80039308F0D2FF04212046EBF7BE
S315010146D0DBDE2046EBF792DE054608B13A46D8E71E
S315010146E0009A4E44EB00013522FA03F3AA4506F876
S315010146F0013BF7D1A6E72125A5E700BF040000206C
S315010147002DE9F0410C461546064688B000283ED0F3
S3150101471000293CD05A1E072A39D8072D37D85F19E7
S31501014720082F34D800231C4A8360C0E90023C361E2
S3150101473001230DF11008CDF804800293174B01A94D
S31501014740039308F094FF3046EBF758DE10B9214682
S31501014750AF4202D808B0BDE8F08138F815200D60E6
S3150101476002F44053B3F5405F13D093044CBF0223C7
S31501014770C2F300330B72C2F30B03DB034B60C2F3CB
S315010147808033D20B4B728A7201350C31E0E721205D
S31501014790E0E70220DEE700BF000053FF1000002022
S315010147A070B516460546A0B000284CD000294AD05E
S315010147B0002A48D00023254A8360C0E9002301224B
S315010147C0C361234B029102A90392049305960692B2
S315010147D0079308F04CFF284605A908F048FF28462B
S315010147E0EBF70CDE044640BB019001A92846EBF725
S315010147F025DE044608BB40F20223019A9A421CD8DF
S315010148000146602208A8ECF76BD808232246284600
S3150101481008A9FFF775FFA0B9082208AB197A0C336D
S31501014820022904BF53F8081C00EBD100013AF5D166
S315010148303368834204D31B1A3360204620B070BD0E
S3150101484002200446F9E72124F7E700BF000064FFCF
S315010148500400002038B51546044688B182B100230B
S31501014860084A8360C0E90023C361EBF70DDE2046E8
S315010148702946EBF709DE2046BDE83840EBF7BE9D38
S31501014880212038BD000062FF7FB50E461C46054654
S3150101489008B3EBB1FAB113F003031CD10F498360DD
S315010148A0C0E90013C3610123019201A9029344F0F6
S315010148B00053039308F0D1FE31462846EBF7E4DDB8
S315010148C021462846EBF7E0DD2846EBF797DD04465E
S315010148D0204604B070BD2124FAE700BF000063FF42
S315010148E02DE9F0410F4601780446013990468AB017
S315010148F0042947D8DFE801F00332373C410040255E
S31501014900142621490C3400225D43C7E90122FA61CB
S31501014910384639602946EBF7B7DD0123384646F0BB
S31501014920005604A945F00055CDF80480029303957C
S3150101493004940593069607940893099608F08DFE4B
S31501014940384601A908F089FE384607A908F08FFE05
S315010149503846EBF753DD0AB0BDE8F0814025202644
S315010149600A490C34CFE74025202609490C34CAE708
S315010149708025402607491434C5E780254026064986
S315010149801434C0E72120E6E7000201030003010315
S3150101499000040103000501030006010310B591B1ED
S315010149A088B10023C0E90133084B00F10C0203F180
S315010149B0200153F8044B8B4242F8044BF9D10123F0
S315010149C00370002010BD2120FCE700BFF83702016A
S315010149D010B591B188B10023C0E90133084B00F14B
S315010149E00C0203F1200153F8044B8B4242F8044BAC
S315010149F0F9D102230370002010BD2120FCE700BF7D
S31501014A002F37020110B591B188B10023C0E90133F5
S31501014A10084B00F10C0203F1200153F8044B8B42C0
S31501014A2042F8044BF9D103230370002010BD212064
S31501014A30FCE700BF5037020110B5A1B198B10023BF
S31501014A40C0E90133C0E90333084B00F1140203F154
S31501014A50400153F8044B8B4242F8044BF9D104232C
S31501014A600370002010BD2120FCE700BF7137020150
S31501014A7010B5A1B198B10023C0E90133C0E90333EF
S31501014A80084B00F1140203F1400153F8044B8B4228
S31501014A9042F8044BF9D105230370002010BD2120F2
S31501014AA0FCE700BFB23702012DE9F04F0D469046F2
S31501014AB004468BB000287DD000297BD0002A79D00D
S31501014AC00278013A042A75D8DFE802F0030C58602E
S31501014AD06B001427394A00F10C0B00F1040A2C343E
S31501014AE0B94608E020274FF01C09354A00F10C0BA5
S31501014AF000F1040A2C34402199455BD80AF10403DB
S31501014B000AEBD10653F8040B002855D1B342F9D16A
S31501014B10DAF80030013901EA0306C5E90020314618
S31501014B20A860E8612846EBF7AFDC2846DAF8001001
S31501014B30EBF7AADC012249F00053284601A947F007
S31501014B40005746F00056CDF804B00292039704943B
S31501014B5005920696CDF81C800892099308F07DFD11
S31501014B60284604A908F079FD284607A908F07FFD22
S31501014B702846EBF743DC0BB0BDE8F08F2027114A3D
S31501014B8000F10C0B00F1040A2C34A9E740274FF080
S31501014B9030090D4A00F1140B00F1040A5434802145
S31501014BA0AAE74027094AB94600F1140B00F1040AA4
S31501014BB05434F4E72120DEE70F20DCE7000203038A
S31501014BC000030303000403030005030300060303B3
S31501014BD02DE9F04387B00D4691461E460446DDF8A0
S31501014BE03880002836D0B8F1000F33D002B98BBB1B
S31501014BF06B1EDBB2042B2DD8174AD75C0F9B9F4244
S31501014C0028D80023280200F1407000F58070314652
S31501014C10C4E901332060E3612046EBF735DC01236A
S31501014C206946204646F0005647F00057CDF80090F8
S31501014C3001930296CDF80C800493059708F00DFDBA
S31501014C40204603A908F013FD2046EBF7D7DB07B091
S31501014C50BDE8F0832120FAE7F3370201F0B50F46EB
S31501014C6016461D46044693B010B9212013B0F0BD76
S31501014C700029FAD0002AF8D0002BF6D000233146BC
S31501014C801A46384608F0A9FA0028EFD1304602A99A
S31501014C9008F03FFA0028E9D1EB68022B0AD03968FE
S31501014CA03F48029A81426B6902D01830814270D124
S31501014CB09A42DAD82B68002BD7D14FF06062384679
S31501014CC0C4E90023A360E36101A908F0E1FA002820
S31501014CD0CCD10199204621F4F0610191EBF7D4DBA6
S31501014CE06946284608F0D4FA0028BFD12046009922
S31501014CF0EBF7CADB384609A900F054F80028B5D10B
S31501014D00204609A908F0A9FC38460CA908F0BFFB01
S31501014D100028ABD120460CA908F09FFCEB684BB1EA
S31501014D20284606A900F03EF800289FD1204606A98B
S31501014D3008F093FC304603A908F0A9FB002895D198
S31501014D40B368DA040CD59B0427D50621F3693269C8
S31501014D501B6801FB03225B0043F000530392059399
S31501014D60204603A908F079FC28460FA908F08FFB14
S31501014D7000287FF47BAF20460FA908F078FC0325B4
S31501014D802046EBF73BDB01287FF470AF013DF7D1FC
S31501014D906CE7B3EB420F8DD267E7292066E700BFC7
S31501014DA0200000B090B189B101234B60C368013B7A
S31501014DB0012B08D88269064B1AB10A6000208B6063
S31501014DC07047044AF9E74FF00053F7E7212070478E
S31501014DD0080000201838020170B50E461546044632
S31501014DE08AB000285BD0002959D0002A57D0012367
S31501014DF029461A46304608F0F0F900284DD1B36824
S31501014E0013F4C04F4BD0AB6803F4C043B3F5005F55
S31501014E1045D1254BA060C4E90030E06107A93046C0
S31501014E2008F036FA002838D120460799EBF72CDB32
S31501014E30304601A9FFF7B6FF78BB204608F00DFC05
S31501014E40304604A908F023FB38BB204604A908F023
S31501014E5004FCEB681BBBAB6803F4C043B3F5005F0D
S31501014E601DD16946284608F07FF9B0B9009B6A69E8
S31501014E709A4216D32A6943F000530792012220462A
S31501014E8007A908920325099308F0F1FB2046EBF7E0
S31501014E90B5DA012801D1013DF8D10AB070BD212051
S31501014EA0FBE71D20F9E700BF000001022DE9F043F0
S31501014EB091B00D46DDE918760446DDF868800028D3
S31501014EC06DD000296BD0002F69D0B8F1000F66D0E3
S31501014ED0096801F07041B1F1404F5BD0002B5BD104
S31501014EE0531E042B5BD8120202F1C06202F58072D5
S31501014EF000232846C4E901332260E3610DA908F0C4
S31501014F00C7F9002843D120460D99EBF7BDDA3146A1
S31501014F102046EBF7B9DA284601A9FFF743FF002836
S31501014F2035D1204601A908F098FB284604A908F0C5
S31501014F30AEFA60BB4FF00109204604A908F08DFBCA
S31501014F4046F00056204607A90797CDF82090099605
S31501014F5008F083FB2B680A9703F07043B3F1404FC6
S31501014F60CDF82C900C9603D120460AA908F075FBC1
S31501014F700123CDF834800E931B9B204643F0005349
S31501014F800DA90F9308F073FB2046EBF737DA11B041
S31501014F90BDE8F083034AABE74FF0C062A8E72120E1
S31501014FA0F5E700BF000002062DE9F0418CB00D4680
S31501014FB0DDE912860446149F002867D0002965D0D1
S31501014FC0B8F1000F62D0002F60D0896889045DD5E0
S31501014FD0296801F07041B1F1404F4DD0002B4DD1FF
S31501014FE0531E042B52D82A4B03EB022200232846D7
S31501014FF0C4E901332260E36109A908F049F90028EE
S3150101500037D120460999EBF73FDA31462046EBF7CE
S315010150103BDA69462846FFF7C5FE50BB694620467D
S3150101502008F01BFB284603A908F031FA08BB204604
S3150101503003A908F012FB012346F00056CDF81880AA
S315010150400793089609970A93159B43F000530B930F
S315010150502B6803F07043B3F1404F11D109A92046E2
S3150101506008F0FBFA06A9204608F0F7FA2046EBF705
S31501015070C5D90CB0BDE8F081064AB7E7064AB5E7DE
S3150101508006A9204608F0E9FA09A9ECE72120F0E78B
S3150101509000010106000003060000010610F1860F5A
S315010150A014D010F1850F07DA10F1930F11D0873063
S315010150B007D04FF0FF307047003818BF012040423A
S315010150C07047054B194411F9050C70476FF07100D2
S315010150D070476FF06F007047203802FF012910B544
S315010150E00CDC084C084B00290CBF2146194609F076
S315010150F044F82146BDE81040FFF7D0BF6FF07400B8
S3150101510010BD00BF0B0000020A00000208B509F03C
S3150101511076F8BDE808400149FFF7C0BF0B00000260
S31501015120002307B54022019301AB09F084F8034935
S3150101513003B05DF804EBFFF7B1BF00BF0B0000023E
S31501015140012910B50CDC084C084B00290CBF21467E
S31501015150194609F012F82146BDE81040FFF79EBF36
S315010151606FF0730010BD00BF0900000208000002C4
S3150101517008B509F044F8BDE808400149FFF78EBFBB
S3150101518009000002002307B52022019301AB09F0B2
S3150101519052F8034903B05DF804EBFFF77FBF00BF87
S315010151A00900000210B5044C214608F0E6FF21462C
S315010151B0BDE81040FFF772BF0500000208B509F00E
S315010151C01EF8BDE808400149FFF768BF0500000266
S315010151D0002307B51422019301AB09F02CF8034909
S315010151E003B05DF804EBFFF759BF00BF05000002EC
S315010151F038B5134DFFF76AF9124B134A134914488F
S3150101520003F02CFE2B7803F0FF04BBB9EBF798DB17
S31501015210012802D9EBF7C8DB04462B782BB90D4BD4
S315010152200D481B68984701232B70EBF789DB012891
S3150101523004D92046BDE83840EBF7D89B38BD00BFFD
S31501015240B6570020B9D601019BD60101D3D601017A
S31501015250DDD60101E0620020784B0020012300F038
S315010152601F02A0F506200949A0F5506040099340A7
S3150101527051F820201A4341F82020054951F82020F0
S3150101528022EA030241F82020704700BF2C3D00208D
S31501015290183D00200121A0F506230E4AA3F550630E
S315010152A05B0900F01F00814052F82300014342F8D7
S315010152B023100949D1E90030034488680344C868C9
S315010152C0096903445B1802BFC2E90033C2E902332B
S315010152D013617047183D00202C3D00202DE9F04F48
S315010152E0A9B003921D4604460822339ECDE9040165
S315010152F0414021FA02F34B40980702F1080218BF17
