S01C00006275696C642F64656275672F67656E657261746F722E7333379C
S31501000000003700204D000011F9010011F90100111E
S31501000010F9010011F9010011F9010011F9010011AD
S31501000020F9010011F9010011F9010011F90100119D
S31501000030F9010011F9010011F9010011F90100118D
S3150100004000000011008000010080000066485B4B43
S315010000507844D0F800C04668C3F808C0326882F315
S315010000608888574A574C96605A6A42F400225A6267
S31501000070554ADA60D3F88C2042F4406242F001021C
S31501000080C3F88C2000234FF0FF32214641F823208C
S315010000900133102BFAD14FF450424C4BFF219A6693
S315010000A001224B4B4B4CC3F89011C3F83021C4F8D5
S315010000B070118068B0F5003F7BD007D8B0F5004FCE
S315010000C00DD0B0F5803F09D0002208E0B0F5802FB1
S315010000D071D0B0F5002FF7D1052200E002224FF0D2
S315010000E0FF37C3F86422C3F8707233465C68012196
S315010000F04FF01009384EDFF8F4E0DFF8F4800A001B
S3150100010033461A600A0073461A601A6802EA010247
S31501000110002AFAD14FF41046304D2B4632461A606A
S3150100012006F1A2466FF48018DFF8C8E006F583569B
S3150100013033463A461A60734642461A60A6F54F663A
S3150100014033460A001A60264DF03E29462CF07F43BD
S31501000150B3FBF0F3202B05D9A3F120034FF0FF32B7
S315010001600A6008E04FF001029A406FEA02020A6053
S315010001704FF0FF33FFE701F10401B142EADD19490E
S315010001806408640002220B461A6000200021002246
S3150100019000230025002600275FF000085FF0000914
S315010001A05FF0000A5FF0000B5FF0000CBFF34F8FAA
S315010001B02447032293E7042291E700BF00ED00E004
S315010001C000ED02E080E300E00020FA0500508040E7
S315010001D00090005100A00051185083406860804093
S315010001E074920051D0ED00E0ECFFFFFF18D085407E
S30F010001F014C0854064A00051FEE72B
S31501008000003700205DB60001895001018950010148
S3150100801089500101895001018950010189500101ED
S31501008020895001018950010189500101F112800035
S315010080308950010144CD010181128000E50A8000C9
S315010080408950010139DA0001895001018950010184
S3150100805089500101895001018950010189500101AD
S31501008060895001018950010189500101895001019D
S31501008070895001018950010189500101895001018D
S31501008080895001018950010189500101895001017D
S31501008090895001018950010189500101895001016D
S315010080A0895001018950010189500101895001015D
S315010080B0895001018950010189500101895001014D
S315010080C0895001018950010189500101895001013D
S315010080D0895001018950010189500101895001012D
S315010080E089500101895001018DB900016DB9000165
S315010080F0895001018950010189500101895001010D
S3150100810089500101895001018950010189500101FC
S3150100811089500101895001018950010189500101EC
S3150100812089500101895001018950010189500101DC
S3150100813089500101895001018950010189500101CC
S315010081408950010189500101C1F5000189500101E0
S3150100815089500101895001018950010189500101AC
S31501008160895001018950010189500101895001019C
S31501008170895001018950010189500101895001018C
S31501008180895001018950010189500101895001017C
S31501008190895001018950010189500101895001016C
S30D010081A089500101895001011A
S315010081A8014B1868704700BF747800200A4B1B6F93
S315010081B803F00703013B042B04D8DFE803F00B04A3
S315010081C807030900FEE7054B18687047044BFBE7F0
S315010081D8044BF9E704487047004080407478002052
S315010081E87C78002070780020002D310108B5FFF752
S315010081F8DDFF054B1B6FC3F303330133B0FBF3F00C
S31501008208024B186008BD00BF004080406C78002012
S3150100821800487047002D3101014B1868704700BFAF
S315010082287C780020002070474FF40022074B5A66DD
S31501008238074B9B6813F4E04FC3F3023204D0012ABB
S31501008248044818BF00207047034870470050804013
S3150100825800001040005A6202002D3101014B1868D6
S31501008268704700BF787800204FF4004070474FF4FC
S315010082787A70704709B100F003B8222070470000F0
S31501008288F8B504460D4600F045FA06461C2C00F2E0
S315010082986A81DFE814F01D002600680130003D0000
S315010082A84E003E016500700068018900EF008D00EF
S315010082B8A10068016801A500B9006801BD0068014F
S315010082C8C1005601030168011A01DB0068014E016C
S315010082D8FFF76CFF00242860304600F016FA2046A6
S315010082E8F8BDA34B1C6FFFF781FFC4F303340134B8
S315010082F8B0FBF4F0EEE79E4B1F6F1C6FFFF776FF9E
S31501008308C7F303370137B0FBF7F0C4F38024EEE770
S31501008318974B1F6F1C6FFFF769FFC7F303370137C9
S31501008328B0FBF7F0C4F380240134B0FBF4F0400845
S31501008338D0E78F4BD3F88000D3F88030C0F3011013
S3150100834803F00303022B00F1010400F0D980032B8B
S3150100835800F0D980012B40F08280FFF727FFC7E79D
S31501008368FFF724FF824BD3F89030C3F3044301335C
S31501008378B0FBF3F0AEE77E4BD3F8203103F00703E9
S31501008388013B052B6BD8DFE813F00600E8000C006B
S3150100839809000600E800FFF703FF9BE7FFF744FF24
S315010083A898E7FFF735FF95E7714BD3F82831E5E7ED
S315010083B86F4BD3F8403103F00303022B06D0032B8E
S315010083C807D0012B4BD1FFF74FFF83E7FFF746FF96
S315010083D880E7FFF74CFF7DE7654BD3F86031EAE7A5
S315010083E8634BD3F8003203F00703013B032B36D85E
S315010083F801A252F823F000BF270280002D02800057
S315010084083302800069028000FFF7F0FE800A61E707
S31501008418574BD3F84032CEE7554BD3F8203203F009
S315010084280703013B032B1AD801A252F823F000BF18
S31501008438A1028000FD018000270280002D02800034
S3150100844829460A20FFF71CFF044645E7484BD3F89F
S31501008458703203F00303012B05D0022B06D000234B
S3150100846802242B6038E729460C20EBE700230F246A
S315010084782B6031E73E4BD3F8A83203F00703013BE3
S31501008488032BECD801A252F823F000BFF7018000B4
S31501008498BB03800003028000FD018000344BD3F842
S315010084A8AC3203F00703013B032BD8D801A252F8DB
S315010084B823F000BF25038000FD018000270280000C
S315010084C82D02800029460B20BCE7294BD3F8B002C0
S315010084D8D3F8B03200F03F0003F4E063B3F5407F10
S315010084E800F1010412D008D8B3F5807F0BD0B3F59B
S315010084F8007FB4D1FFF790FEFAE6B3F5806FAED1EF
S31501008508FFF792FEF4E6FFF74BFEF1E6FFF780FE72
S31501008518EEE6174BD3F8803103F00303022B3FF441
S3150100852840AF032B3FF43AAF012B98D129460820D7
S3150100853888E74FF0E0231B6929465B0794D501209C
S3150100854880E70B4BD3F8003103F00303022B3FF40A
S315010085583DAF032B04D0012B81D1FFF75DFEB9E6B0
S31501008568FFF760FEB6E6002321242B60B4E600BFC0
S31501008578004080400122437801789A4030235943CC
S31501008588014B5A50704700BF40D0834008B54FF0A1
S31501008598FF31054800F0EDF828B94FF48062034B26
S315010085A89A66BFF34F8F08BDDC4300200050804018
S315010085B84FF48062024B03489A6600F0F6B800BF92
S315010085C800608040DC43002010B5044600283FD0F7
S315010085D8FFF7DCFF00283AD1204600F06EF894F840
S315010085E820304BB94FF085435A6CD202FCD55C6DED
S315010085F81B6804F4702412E04FF08544A36D43F020
S315010086080203A36500F066FB022810D0A36D23F0D0
S315010086180203A3654FF4A0220E4B1C681A60FFF7EC
S31501008628C7FFA4B12046BDE8104015F0789C0A4B57
S315010086384FF0FF31186E00F00FFDA36D23F0020312
S31501008648A3650028E6D02368FFF7B2FF012010BD15
S315010086582120FCE7AC7800207843002010B50C46B1
S31501008668D0B1C9B100F04DF80C4B0D495A6E4FF413
S315010086788033D2034B6601F5DE21D1F80C1658BFBB
S31501008688084A216058BF536600F036F8002023686F
S3150100869823F07F43236010BD2120FCE70040804082
S315010086A80050804000608040C369032B9FBF00EBE8
S315010086B883020133D160C3617047C369042B16D89D
S315010086C84FF08542116CC902FCD5002105339B0088
S315010086D8136511600168143B11604168116050F817
S315010086E8081F11604FF085420344984200D1704734
S315010086F850F8041F1160F8E710B962B6BFF36F8F1F
S315010087087047EFF3108072B6704780F31188BFF394
S315010087186F8F7047EFF31180302383F31188704709
S31501008728EFF31083DB0706D4EFF311802F2894BFEC
S3150100873800200120704701207047000070B50546EA
S31501008748A8B1FFF7DEFF0646286E00F0EFFB0446E8
S3150100875840B100F043FB844209BF6C6D0124E44338
S3150100876804F001043046FFF7C7FF204670BD012417
S31501008778FBE738B50D460446A8B100F0ABFA022866
S315010087880FD1FFF7CDFF20B12046BDE83840FFF7EE
S31501008798D5BF2946206E00F06DFB003818BF0120B1
S315010087A838BD0020F9E70120FAE710B50446A0B163
S315010087B800F090FA02280ED1FFF7B2FF20B1204649
S315010087C8BDE81040FFF7BABF206E00F083FB003802
S315010087D818BF012010BD0020F9E70120FAE70000C3
S315010087E8012810B5044621D8A0B9114816F024DD90
S315010087F8104B5B68C3F3080393B10F4BDA6B12F0A6
S31501008808430FFBD19B6A13F0240F05D114200B4BA0
S315010088181C6010BD0A48E9E701220A4B1A60F5E710
S315010088284FF0FF310848FFF7A4FFF0E72120F0E7F2
S31501008838E4CE010100ED00E000400041E8440020DB
S31501008848E8CE0101D0780020EC440020044B5B6897
S31501008858C3F3080313B90348FFF7A7BF00207047FE
S3150100886800ED00E0EC44002010B504461048FFF77F
S3150100887865FF98B9236813B90E4816F0E0DC23683A
S31501008888012B0BD10C4B5B68C3F3080333B90B4BB4
S315010088981B68112B02D10A4816F0D1DC6420226824
S315010088A8084BBDE8104000FB0230FFF77EBF00BF52
S315010088B8EC440020E4CE010100ED00E0D078002070
S315010088C8E8CE010150450020012310B50F4C22685E
S315010088D89340034218D00E4B5B68C3F308034BB1B0
S315010088E80C4AD36B13F0430FFBD12068BDE8104047
S315010088F800F016B86420084B4FF0FF3100FB023038
S31501008908FFF737FF0028F0D0002010BDE84400200B
S3150100891800ED00E00040004150450020704700008E
S3150100892801289FBF034B04481B6800EBC30088BF9F
S3150100893800207047E8440020A4CF01014368585835
S31501008948704743685A50704743685A507047704792
S3150100895870470846704770477047000053B94AB9CF
S31501008968002908BF00281CBF4FF0FF314FF0FF3028
S3150100897800F07EB9ADF1080C6DE904CE00F006F8F9
S31501008988DDF804E0DDE9022304B070472DE9F04F74
S31501008998099D0C46002B4DD18A420F4684469646C0
S315010089A8B2FA82F360D94BB102FA03FEC3F120028F
S315010089B89F4000FA03FC20FA02F217434FEA1E46CB
S315010089C81FFA8EF44FEA1C42B7FBF6F106FB117744
S315010089D801FB04F042EA0742904208D91EEB020263
S315010089E801F1FF3702D2904200F22D813946121A5F
S315010089F81FFA8CFCB2FBF6F006FB102200FB04F40E
S31501008A084CEA024C644508D91EEB0C0C00F1FF3206
S31501008A1802D2644500F21A81104640EA0140ACEBE5
S31501008A28040C002125B12CFA03F30022C5E9003212
S31501008A38BDE8F08F8B4205D90DB1C5E900010021CA
S31501008A480846F5E7B3FA83F100294DD1A342C0F0F0
S31501008A58F280904280F0EF80064623460846002DB4
S31501008A68E6D0C5E90063E3E7002B40F0A2808A1A45
S31501008A784FEA1E471FFA8EF60121B2FBF7F407FBF0
S31501008A8814204FEA1C4242EA004206FB04F09042D7
S31501008A980FD91EEB020204F1FF382CBF4FF0010972
S31501008AA84FF00009904203D9B9F1000F00F0C880D0
S31501008AB84446121A1FFA8CFCB2FBF7F007FB102288
S31501008AC800FB06F64CEA024C664508D91EEB0C0C6F
S31501008AD800F1FF3202D2664500F2BB801046ACEBCC
S31501008AE8060C40EA04409DE7C1F120068B4004FAD2
S31501008AF801FE22FA06F720FA06FCF4408A401F43D3
S31501008B084EEA0C0300FA01FE4FEA17484FEA1349E9
S31501008B181FFA87FCB4FBF8F008FB104449EA044441
S31501008B2800FB0CF9A1450ED93C1900F1FF3A2CBFFF
S31501008B384FF0010B4FF0000BA14503D9BBF1000F14
S31501008B4800F093805046A4EB09041FFA83F9B4FB9D
S31501008B58F8F308FB134403FB0CFC49EA0444A44557
S31501008B6806D93C1903F1FF3801D2A4457AD8434600
S31501008B7843EA0040A4EB0C04A0FB02984445CC460A
S31501008B88434602D306D1CE4504D20138B9EB020CCD
S31501008B9868EB07035DB1BEEB0C0264EB030404FA50
S31501008BA806F622FA01F3CC401E43C5E9006400210A
S31501008BB83EE702FA03FEC3F1200104FA03F200FAC2
S31501008BC803FCCC404FEA1E4720FA01F11FFA8EF644
S31501008BD8B4FBF7F00A4307FB1044110C41EA0441C0
S31501008BE800FB06F48C420ED91EEB010100F1FF3899
S31501008BF82CBF4FF001094FF000098C4202D9B9F197
S31501008C08000F2CD04046091B92B2B1FBF7F407FBC3
S31501008C18141142EA014204FB06F1914207D91EEBFF
S31501008C28020204F1FF3801D2914215D84446521A7C
S31501008C3844EA004121E7861A64EB030301200EE7A3
S31501008C48023C724435E702397244D0E6F4440238EC
S31501008C58E3E6F444023842E7023C7244E7E70238A5
S31501008C687144D0E7023B3C4482E702383C446AE758
S31501008C78704700BF02440346934200D1704703F888
S31501008C88011BF9E708B54FF0E0231B6901F068FB02
S31501008C98012803D0BDE8084000F04EBB08BD00001E
S31501008CA8EFF3058373B9EFF31082094B12B9EFF3AA
S31501008CB8118212B11A68022A04D0186828B9012249
S31501008CC81A6070476FF0050070474FF0FF30704724
S31501008CD8D84B002008B501F043FB38B1022804D06F
S31501008CE8034B1868431E5842584108BD0320FCE748
S31501008CF8D84B002010B5EFF30583BBB9EFF310830A
S31501008D080D4C13B9EFF3118313B12368022B0DD060
S31501008D182368012B0DD16FF00400002116F098DAB3
S31501008D280223236001F02AF9002010BD6FF0050027
S31501008D38FBE74FF0FF30F8E7D84B002008B5EFF313
S31501008D48058393B9EFF3108313B9EFF311831BB1BD
S31501008D580A4B1B68022B08D001F002FB40B102281E
S31501008D6808D101F043F9002008BD6FF00500FBE7C3
S31501008D780120F9E74FF0FF30F6E700BFD84B002096
S31501008D8810B50446EFF3058303BBEFF3108313B95C
S31501008D98EFF311831BB1104B1B68022B16D001F0A0
S31501008DA8DFFA30F0020314D1012C03D101F01EF9C8
S31501008DB8204610BD6CB901F0C1F90128F8D001F0BF
S31501008DC8CFFA841E18BF4FF0FF34F1E76FF00504A0
S31501008DD8EEE74FF0FF34EBE7D84B002001F0B4BAC9
S31501008DE838B50546EFF3058313B10024204638BD8F
S31501008DF8EFF3108313B9EFF311831BB11C4B1B68F7
S31501008E08022BF2D02DB36B681A07EED4D5E90212FC
S31501008E1803F0010371B14F2AE7D993B1042000F099
S31501008E28F8FE04460028E0D0296800F021FE44F047
S31501008E380104DBE7002AD8D1ABB1042000F0BAFE61
S31501008E48EFE7012000F0E5FE04460028CDD02968A9
S31501008E5806E0012000F0AEFE04460028C5D02946EA
S31501008E6800F006FEC2E7012000F0A4FEECE700BF11
S31501008E78D84B0020034610B520F001000C4603F03C
S31501008E880102EFF30581E9B9EFF3108111B9EFF3A7
S31501008E98118119B10E490968022913D0012B14D978
S31501008EA8214662B100F0B8FD012801D1002010BDAC
S31501008EB8002C14BF6FF001006FF00200F7E700F015
S31501008EC818FDF1E76FF00500F1E76FF00300EEE733
S31501008ED8D84B0020024608B520F0010002F0010334
S31501008EE8EFF30581C9B9EFF3108111B9EFF31181D8
S31501008EF819B10D49096802290FD0012A10D93BB1C8
S31501008F0800F0A1FD01280CBF00206FF0020008BD8A
S31501008F181A46194600F073FBF4E76FF00500F6E709
S31501008F286FF00300F3E700BFD84B00200346012B7F
S31501008F3820F0010010D9EFF305834BB9EFF3108345
S31501008F4813B9EFF311832BB1044B1B68022B01D123
S31501008F5800F05CBD00F04DBD00207047D84B0020E5
S31501008F6810B5034620F00104EFF305829AB9EFF331
S31501008F78108212B9EFF311821AB10A4A1268022A4B
S31501008F8809D0012B0AD9204600F084FD204600F0BD
S31501008F9899FD002010BD6FF00500FBE76FF0030097
S31501008FA8F8E700BFD84B002073B50E461546EFF318
S31501008FB80583D3BBEFF3108313B9EFF311831BB109
S31501008FC8244B1B68022B30D078B3B0422DD375B928
S31501008FD8012837D10322002100F0CFFD044620B332
S31501008FE8AEB96DBB2946204600F042FD1EE0D5E923
S31501008FF80232C3B14F2A18D901281AD10322009285
S315010090080022114600F0EAFD044670B1C6B10023FC
S3150100901820461A46194600F0F2FA0128E1D0204600
S3150100902800F050FD01E0002AD2D00024204602B00B
S3150100903870BD1A46314600F0FAFD04460028F4D000
S315010090482D68CFE7314600F0C0FD04460028C8D197
S31501009058EBE700BFD84B002013B50C4668B3EFF316
S3150100906805834BB9EFF3108313B9EFF31183D3B12A
S31501009078134B1B68022B16D1FCB9214601AA019490
S3150100908800F009FC012803D06FF0020002B010BD00
S31501009098019B0BB90020F9E74FF0E0234FF080520E
S315010090A8C3F8042DF6E7214600F023FC0128F1D088
S315010090B8002CE9D06FF00100E8E76FF00300E5E75F
S315010090C8D84B002007B550B3EFF305834BB9EFF33F
S315010090D8108313B9EFF31183CBB1124B1B68022B23
S315010090E815D1002301A9019300F0ADFB012804D095
S315010090F86FF0020003B05DF804FB019B2BB14FF042
S31501009108E0234FF08052C3F8042D0020F2E7002334
S315010091181A46194600F073FA0128F6D0E8E76FF007
S315010091280300E7E7D84B002010B50446EFF30583A3
S3150100913893B9EFF3108313B9EFF311831BB1094BFD
S315010091481B68022B08D054B1204600F0A3FC204628
S3150100915800F0B8FC002010BD6FF00500FBE76FF0CA
S315010091680300F8E7D84B002070470000034B036063
S31501009178034B0B60A0231360704700BF784B002098
S31501009188F8480020034B0360034B0B60A0231360D0
S31501009198704700BF98480020184600204FF0FF325C
S315010091A800F10803C0E90223436003610023036059
S315010091B8704700230361704730B50C68631C0AD1F8
S315010091C803695A684A6091608B605960036808614F
S315010091D80133036030BD00F1080213465268156871
S315010091E8A542FAD9EDE743689A684B608A605160EF
S315010091F89960036808610133036070470369D0E920
S3150100920801128A6051605968814208BF5A6000227A
S3150100921802611A68013A1A601868704710B54FF06A
S31501009228807440E90224184A4FF0123440F80C2C95
S315010092384FF003324FF0023C40E905244FF001326A
S3150100924840F8203C40E9072C4FF010334FF011321B
S315010092584FF0093440E90A324FF008334FF0073C22
S3150100926840E90C344FF006334FF0053240E90E3C25
S315010092784FF0043340E910326FF0430340F8443CA1
S3150100928840F8481D10BD00BF750101014FF0E022ED
S3150100929800234FF47A7113619361044B1B68B3FB86
S315010092A8F1F3013B53610723136170476C78002082
S315010092B84FF0E02310B50024D3F8202D42F47F02A5
S315010092C8C3F8202DD3F8202D42F07F42C3F8202D74
S315010092D8FFF7DCFF044B1C6000F07AF800F0ECFFA6
S315010092E80FF018D8204610BDD47800204FF0E0239F
S315010092F84FF08052C3F8042DBFF34F8FBFF36F8F22
S315010093087047000008B500F075F8044A1368013380
S315010093181360BFF34F8FBFF36F8F08BDD47800205A
S31501009328044B1A681A68013A1A60186808B900F0F5
S315010093386CB87047D478002010B500F05BF8044685
S3150100934800F070FE28B14FF0E0234FF08052C3F8C9
S31501009358042D2046BDE8104000F057B8836913F87C
S31501009368023C022B0FD14FF0E023D3F8882D42F4AB
S315010093787002C3F8882DD3F8342F42F04042C3F85F
S31501009388342F00F005B87047000000000000000007
S315010093980B4A1168086806C881F30B88022181F314
S315010093A81488203080F30988BFF36F8F4FF00000CF
S315010093B880F31188104700BFAFF30080AFF3008038
S315010093C824510020000000000000000000000000F9
S315010093D807480068006880F3088862B661B6BFF37B
S315010093E84F8FBFF36F8F02DF00BF00BFAFF300805F
S315010093F808ED00E0EFF311804FF0300181F3118899
S31501009408BFF34F8FBFF36F8F704780F31188BFF398
S315010094184F8FBFF36F8F70470000000000000000F8
S31501009428EFF309801EF0100F08BF20ED108AEFF345
S315010094380B82734620E9FC0F114A116808604FF048
S31501009448300080F31188BFF34F8FBFF36F8F00F0A1
S3150100945833FF4FF0000080F31188094A1168086844
S31501009468B0E8FC0F13F0100F08BFB0EC108A82F3B6
S315010094780B8880F309881847AFF30080AFF30080A3
S315010094882451002000000000000000000000000038
S315010094981EF0040F0CBFEFF30880EFF309800449AF
S315010094A8084700BFAFF30080AFF30080AFF3008039
S315010094B8BD11800010B5044600F098FD204612F053
S315010094C8D5DE044600F03AFE204610BD10B5044626
S315010094D840B100F08BFD204612F0D0DEBDE8104009
S315010094E800F02CBE10BD70B50446FFF70BFF94F8CB
S315010094F8455004F124066DB2002D14DCFF2384F8CF
S315010095084530FFF70DFFFFF7FDFE94F8445004F1CF
S3150100951810066DB2002D12DCFF2384F84430BDE835
S315010095287040FFF7FDBE636A002BE7D0304600F0B6
S315010095388DFE08B100F00EFF013D6DB2DCE723692F
S31501009548002BE9D0304600F081FE08B100F002FF99
S31501009558013D6DB2DEE710B50446FFF7D3FEA46BF5
S31501009568FFF7DEFEB4FA84F0400910BD70B5164661
S31501009578026C0446856B42B906689EB9806800F09C
S315010095883DFFA6600135A56370BD6EB940681BF045
S3150100959827D96368226C1344A2686360934224BF87
S315010095A8236863600020EDE7C0681BF019D9226CB7
S315010095B8E36851429B1A2268E36093423EBFA3685F
S315010095C85B18E360022EEDD10DB1013DEAE72846AD
S315010095D8D8E703461A6C084610B46AB1DC6899687C
S315010095E814448C4228BF1968DC6028BFD960D96841
S315010095F85DF8044B1BF0F4985DF8044B7047F0B521
S31501009608044685B01D4601920E4600F0A9FEFFF7F5
S3150100961879FEA26BE36B9A421FD22A46314620464F
S31501009628FFF7A4FF636A1BB104F1240000F00EFEE4
S3150100963808B1FFF75BFEFFF773FE012005B0F0BD29
S31501009648FFF760FEA36BE26B9A42E6D80123019A03
S3150100965842B9FFF765FE0020F0E7022DDDD00023B1
S315010096681F46F4E713B902A800F03AFFFFF758FEC0
S3150100967800F0BCFCFFF746FE94F84430FF2B08BF08
S3150100968884F8447094F84530FF2B08BF84F8457078
S31501009698FFF746FE01A902A800F02EFF20BBFFF73F
S315010096A831FEA26BE36B9A4210D1FFF739FE01999D
S315010096B804F1100000F0A4FD2046FFF714FF00F0A6
S315010096C83DFD0028BCD1FFF711FE06E0FFF728FE95
S315010096D82046FFF708FF00F031FDFFF713FEA26BE6
S315010096E8E36B9A42B2D298E72046FFF7FCFE00F0F8
S315010096F825FDB0E738B100231A4619468360036091
S31501009708C360FFF77CBF7047F0B5044685B00E46C7
S31501009718019200F025FEFFF7F5FDA56B9DB13146D7
S315010097282046013DFFF755FFA563236933B104F1CF
S31501009738100000F08BFD08B1FFF7D8FDFFF7F0FD2B
S31501009748012005B0F0BD019B1BB9FFF7E9FD00201B
S31501009758F7E702A800F0C4FE2F46FFF7E1FD00F087
S3150100976845FCFFF7CFFD94F84430FF2B08BF84F87A
S31501009778447094F84530FF2B08BF84F84570FFF70D
S31501009788CFFD01A902A800F0B7FEF8B92046FFF7F8
S31501009798E2FEA8B1019904F1240000F031FD20464A
S315010097A8FFF7A1FE00F0CAFC08B9FFF79FFDFFF716
S315010097B8A9FDA56B002DB2D1019B002BCDD1C4E724
S315010097C82046FFF790FE00F0B9FCF0E72046FFF7C8
S315010097D88AFE00F0B3FC2046FFF7BDFE0028E6D05E
S315010097E8B5E72DE9F843044616461F468946FFF7AD
S315010097F801FEA26BE36B80469A4201D3022F20D168
S3150100980894F845503A46494620466DB2A36BFFF790
S31501009818ADFE6B1C10D1636A3BB104F1240000F064
S3150100982815FD10B10EB10123336001244046FFF73F
S31501009838ECFD2046BDE8F88301356DB284F8455044
S31501009848F3E70024F2E770B504460D46FFF7D2FDAB
S31501009858A26BE36B064693421BD994F84510013275
S31501009868FF294BB2A2630FD1636A3BB104F124000D
S3150100987800F0ECFC10B10DB101232B600124304638
S31501009888FFF7C3FD204670BD01335BB284F845304E
S31501009898F4E70024F3E72DE9F843044689469046A0
S315010098A8FFF7A8FDA56B0746C5B194F8446049467C
S315010098B8204676B2FFF78DFE013D731CA56313D1D1
S315010098C8236953B104F1100000F0C0FC28B1B8F1C6
S315010098D8000F02D00123C8F8003001253846FFF7EA
S315010098E894FD2846BDE8F883013676B284F84460CB
S315010098F8F3E7F0B5002585B0044601912E4600F040
S315010099082FFD2F46FFF7FEFCA36BA3B1013BA36313
S31501009918236813B900F0D8FDA060236933B104F1B7
S31501009928100000F093FC08B1FFF7E0FCFFF7F8FC24
S31501009938012005B0F0BD019B1BB9FFF7F1FC002022
S31501009948F7E716B902A800F0CBFDFFF7E9FC00F02E
S315010099584DFBFFF7D7FC94F84430FF2B08BF84F87A
S31501009968447094F84530FF2B08BF84F84570FFF71B
S31501009978D7FC01A902A800F0BFFD10BB2046FFF7DE
S31501009988EAFDC0B123683BB9FFF7BCFCA06800F04B
S31501009998F7FC0546FFF7C4FC019904F1240000F021
S315010099A82FFC2046FFF79FFD00F0C8FB08B9FFF71B
S315010099B89DFC0126A6E72046FFF795FD00F0BEFBB4
S315010099C8F7E72046FFF78FFD00F0B8FB2046FFF7C3
S315010099D8C2FD0028EDD0002DB1D0FFF793FC616AD6
S315010099E819B1236B1968C1F13801A06800F034FD7B
S315010099F8A3E710B50446FFF785FC236823B9A468D5
S31501009A08FFF78EFC204610BD0024F9E703680BB961
S31501009A18806870470020704770B5866804460D4611
S31501009A2800F092FC864204D10120E3680133E36029
S31501009A3870BD29462046FFF75CFF0028F8D0E36889
S31501009A480133E360F4E738B58568044600F07CFC29
S31501009A5885420BD1E368013BE3600BB1012038BDB8
S31501009A681A4619462046FFF7CAFDF7E70020F6E72A
S31501009A78002330B5064A52F8335002EBC3041DB928
S31501009A8842F83310606030BD01330A2BF3D1FAE78F
S31501009A98DC4B0020002310B5084A52F83310DC00CD
S31501009AA8814206D10021064A42F833102244516008
S31501009AB810BD01330A2BF0D1FAE700BFE04B0020B5
S31501009AC8DC4B002010B5FFF7E5FF90F846301BB9CF
S31501009AD8BDE81040FFF7FABC10BD70B504460D4647
S31501009AE81646FFF70FFC94F84430FF2B04BF0023FA
S31501009AF884F8443094F84530FF2B04BF002384F8DA
S31501009B084530FFF70DFCA36B2BB93246294604F104
S31501009B18240000F085FB2046BDE87040FFF7E3BC52
S31501009B2838B504460D46FFF7EDFBD4E90F314B4333
S31501009B382268D0185B1AA060626000201A44FF23CD
S31501009B48A063E26084F8443084F8453065B9236936
S31501009B5833B104F1100000F079FB08B1FFF7C6FB39
S31501009B68FFF7DEFB012038BD04F11000FFF716FBF5
S31501009B7804F12400FFF712FBF2E7F8B5064648435D
S31501009B8850300D461746FFF795FC044670B1002381
S31501009B9880F8463065B100F1500301212046C4E939
S31501009BA80F652360FFF7BCFF84F84C702046F8BDAB
S31501009BB80346F2E7024610B500210120FFF7DDFF53
S31501009BC80446FFF797FD204610BD10B502220C4644
S31501009BD80021FFF7D2FF00B1846310BD37B50D46EA
S31501009BE85021019101991C4601997BB1002D08BFAD
S31501009BF81A460121C3E90F0583F8461018461A606B
S31501009C08FFF78EFF9DF8183084F84C30204603B0D4
S31501009C1830BD002213B50B46009011460120FFF70F
S31501009C28DDFF0446FFF766FD204602B010BD134668
S31501009C38022213B5009200220C461146FFF7CEFF09
S31501009C4800B1846302B010BD10B590F85D300446CA
S31501009C583BB9006BFFF73AFC2046BDE81040FFF719
S31501009C6835BC012BF9D010BDF8B50646144B154D78
S31501009C781C6828680F460430FFF7C0FA731C07D121
S31501009C8837B1296810480431BDE8F840FFF7ABBA87
S31501009C982B68A4195C6007D30C4B18682968BDE8C2
S31501009CA8F8400431FFF788BA094B18682968043166
S31501009CB8FFF782FA074B1A68A24288BF1C60F8BDF3
S31501009CC84C4C002024510020544C0020944C002078
S31501009CD8984C0020304C0020064A13681968064B38
S31501009CE819B94FF0FF321A6070471268D2681268C4
S31501009CF8F9E700BF984C0020304C00202DE9F041CF
S31501009D080446FFF7FFFA2D4B2D4E1A682D4F0132E7
S31501009D181A603568002D43D134601B68012B1FD1A9
S31501009D28B84640460135FFF739FA382D08F11408C7
S31501009D38F7D1DFF8B880244D4046FFF72FFA2846B9
S31501009D48FFF72CFA2148FFF729FA2148FFF726FAE7
S31501009D582048FFF723FA204BC3F800801F4B1D60EC
S31501009D6814201F4A1368013313601E4A23641168BD
S31501009D78E36A8B4200FB037004F1040188BF136098
S31501009D88FFF731FAFFF7CCFA174B1B689BB133681B
S31501009D98DA6AE36A9A420ED2BDE8F041FFF7A6BA3B
S31501009DA8114B1A68E36A002ADAD13268D26A9A42F2
S31501009DB898BF3460D4E7BDE8F08100BF504C00205D
S31501009DC824510020C44C00209C4C0020804C0020CB
S31501009DD86C4C0020544C0020984C0020944C0020D8
S31501009DE8344C0020484C0020444C0020B04C002044
S31501009DF880B50F4C0F4F104D236833B90F4B1B68B5
S31501009E08012BF8D9FFF772FAF5E7FFF77BFAFB683A
S31501009E18DE68301DFFF7F2F92B68013B2B602368DA
S31501009E28013B2360FFF77CFA3046FFF70DFFE3E7B6
S31501009E38684C00206C4C0020504C0020C44C00207B
S31501009E482DE9F0470D46DDE90994960032460746A5
S31501009E58A521206B9846FEF70DFF236B043E1E4491
S31501009E6826F00706002D39D06B1E04F13302093599
S31501009E7813F8011F02F8011F09B1AB42F8D10023FB
S31501009E8884F83D30089D4FF0000A372D28BF372545
S31501009E98201DE562A564C4F84CA0FFF78AF9C5F14F
S31501009EA8380504F11800FFF784F943463A46304667
S31501009EB8216B2461A5616462C4F850A0C4F854A05A
S31501009EC8C4F858A084F85CA0FFF7A8F92060B9F196
S31501009ED8000F01D0C9F80040BDE8F08784F8345076
S31501009EE8D0E72DE9F043074685B090008846164627
S31501009EF89946FFF7DFFA054620B94FF0FF3005B05E
S31501009F08BDE8F0836020FFF7D5FA044698B100232F
S31501009F1880F85D300D9B056301930C9B32464146E3
S31501009F280290009338464B46FFF78AFF2046FFF713
S31501009F38E5FE0120E3E72846FFF7C8FADDE770B535
S31501009F48602686B00596059EDDE90B54059E8CB103
S31501009F5885B12563022584F85D5004AD01950A9DF6
S31501009F6802940095FFF76CFF2046FFF7C7FE049899
S31501009F7806B070BD00230493F9E7000030B500244C
S31501009F8889B007AA06A905A8CDE90544FFF7EEF8A1
S31501009F98059B079A0293069B0E49CDE900430E4895
S31501009FA82346FFF7CCFF80B100F020FB01280546C8
S31501009FB80BD1FFF71FFA4FF0FF32084B1A60084B17
S31501009FC81D60084B1C60FFF773F9074B1B6809B046
S31501009FD830BD00BFB4CF0101511C8000304C0020B8
S31501009FE8444C00204C4C0020D8780020024A1368C3
S31501009FF801331360704700BF2C4C0020014B1868D1
S3150100A008704700BF4C4C0020012906DC08B9044BF7
S3150100A0181868143150F8210070470020704700BFB6
S3150100A028245100203A4B2DE9F74F1B68002B68D1C4
S3150100A038384B1C6801341C606CB9374B1A681268B6
S3150100A048364A1968106818601160354A1368013371
S3150100A0581360FFF741FE334D4FF0000B2B68324E6C
S3150100A068A342324F12D914213A68D26A4A43B258E6
S3150100A078022A2F4A28BF4FF0010B1268002A18BF7F
S3150100A0884FF0010B584603B0BDE8F08FDFF8889012
S3150100A098DFF8A4A0D9F8002012681AB94FF0FF32E8
S3150100A0A82A60E0E7D9F80020D268D2F80C80D8F8FF
S3150100A0B804108C4201D22960D5E708F10403184639
S3150100A0C80193FFF79BF8D8F8281019B108F1180081
S3150100A0D8FFF794F81423D8F82C00DAF80010884210
S3150100A0E888BFCAF80000019903FB0060FFF77BF8F7
S3150100A0F83868D8F82C10C26A914228BF4FF0010B74
S3150100A108C8E70C4A4FF0000B136801331360B9E72F
S3150100A1182C4C00204C4C0020984C0020944C0020DC
S3150100A128384C0020304C0020C44C0020245100201B
S3150100A1383C4C0020404C0020484C00202DE9F041C1
S3150100A148274C2368FFF7DEF82368013B2360246860
S3150100A1582CB10024FFF7E4F82046BDE8F081214B35
S3150100A1681B68002BF5D0204D204EDFF890801DE0AE
S3150100A178EB68DC68271D04F11800FFF73FF838463D
S3150100A188FFF73CF81420E36A326800FB0380934228
S3150100A198394688BF3360FFF726F8154BE26A1B6814
S3150100A1A8DB6A9A4202D30122124B1A602B68002BF2
S3150100A1B8DED10CB1FFF790FD0F4D2C6844B1012794
S3150100A1C80C4EFFF72FFF00B13760013CF9D12C6027
S3150100A1D8084B1B68002BBCD0FFF788F80124B9E7A8
S3150100A1E82C4C0020504C0020804C0020484C00206C
S3150100A1F8245100203C4C0020404C0020C44C002037
S3150100A20810B50C46054B19681831FEF7D5FF2046DF
S3150100A218BDE810400121FFF727BD00BF24510020EA
S3150100A22838B514460D46084B19681831FEF7DBFF99
S3150100A238002C214608BF2846BDE8384018BF4FF014
S3150100A248FF30FFF711BD00BF2451002038B5C368A0
S3150100A258DC6804F118052846FEF7D0FF104B1B6889
S3150100A268DBB9251D2846FEF7C9FF0E4A14201168D9
S3150100A278E36A8B42294688BF13600B4A00FB032019
S3150100A288FEF7B1FF094BE26A1B68DB6A9A4285BF92
S3150100A2980120074B0020186038BD29460548EFE71D
S3150100A2A82C4C0020484C0020C44C0020245100208E
S3150100A2B83C4C0020804C0020F8B51E4B1A681E4BFA
S3150100A2C812B101221A60F8BD1C4C1A6023681B6B77
S3150100A2D81A68B2F1A53F0BD15A68B2F1A53F07D169
S3150100A2E89A68B2F1A53F03D1DB68B3F1A53F04D063
S3150100A2F8206821683431FEF737FF1427104E114ABA
S3150100A308316807FB01F3D558D0188DB14568083374
S3150100A3186D6813449D4208BF6B68456008BF43607A
S3150100A328142303FB01225368DB6823603160CAE703
S3150100A3380139E6E72C4C00203C4C00202451002032
S3150100A348484C0020C44C0020014B1868704700BFD8
S3150100A358245100200122014B1A6070473C4C002011
S3150100A368054B1B6833B1054B1868B0FA80F04009F4
S3150100A3784000704701207047444C00202C4C0020B7
S3150100A388F8B5044638B31A4DC36A2A68D26A9342A5
S3150100A39826D28269174E002AA1BF2A68D26AC2F15B
S3150100A3A838028261142202FB036342699A4213D17D
S3150100A3B8071D3846FEF722FF14202B680E4ADB6A72
S3150100A3C8116800FB03608B42E362394688BF13605C
S3150100A3D8FEF709FF0120F8BD2B68DB6AC362F9E7BE
S3150100A3E82B68806CDB6A98422CBF00200120F2E7BB
S3150100A3F824510020C44C0020484C002038B504469E
S3150100A40808B9002038BD114BC16A1B68826CC36C40
S3150100A418914203F1FF33C364F3D0002BF1D1051D3B
S3150100A4282846FEF7EBFE1420A36CC3F13802A2619D
S3150100A438074AE36211688B4288BF1360054A2946B9
S3150100A44800FB0320FEF7CFFE0120DBE724510020A5
S3150100A458484C0020C44C002070B5044660B3836C98
S3150100A468994238BF1946C36A8B4225D0C26C012A64
S3150100A47822D1124A124D12688269C162002A4FF02E
S3150100A488140202FB03534269A4BFC1F13801816179
S3150100A4989A4211D1061D3046FEF7B0FE1420094A2C
S3150100A4A8E36A116800FB03508B423146BDE87040F0
S3150100A4B888BF1360FEF797BE70BD00BF2451002008
S3150100A4C8C44C0020484C0020044B1A681AB119687C
S3150100A4D8CA6C0132CA641868704700BF245100204B
S3150100A4E8034B1B680360034B1B684360704700BF3F
S3150100A4F8384C00204C4C002070B50D460446FEF73A
S3150100A50801FF0F4B19682B685A1C17D00D4826688E
S3150100A51800686268864208D08A4206D80023012468
S3150100A5282B60FEF7FDFE204670BD881A8342F5D9D9
S3150100A5385B1A134420462B60FFF7D2FF0024F0E78D
S3150100A5484C4C0020384C0020914208B5416000610E
S3150100A5580AD8D21A83699A420DD2084B011D186886
S3150100A568FEF72AFE002008BD9A4201D2994202D27C
S3150100A578034B011DF3E70120F5E700BF84510020D5
S3150100A58888510020F7B5114CFEF7BCFE2568BDB908
S3150100A5980F4F104E3846FEF701FE3046FEF7FEFD18
S3150100A5A80D4B10211F600D4B0A201E600C4A0D4BE6
S3150100A5B80095FFF713FB206010B10B49FFF758FA16
S3150100A5C803B0BDE8F040FEF7ABBE00BF80510020E6
S3150100A5D8A05100208C510020885100208451002070
S3150100A5E8C47600202C510020B9CF010110B588B0DE
S3150100A5F8FFF7C8FF0E4B00241868B8B107AA06A9C9
S3150100A60805A8CDE90544FEF7BDFD059B079A02930A
S3150100A618069B084901932823074800932346FFF719
S3150100A6288EFC064B1860001B18BF012008B010BD30
S3150100A63880510020BECF0101752580007C51002084
S3150100A6487FB50F4C0546206816461A4680B105297E
S3150100A658CDE9001602950DDCFFF782FE00230228DC
S3150100A66818BF1A46694608BF089A2068FEF7C7FF49
S3150100A67804B070BD00236946FFF7B3F8F8E700BFD9
S3150100A688805100202DE9F3470646FFF7B7FCDFF8AE
S3150100A69880800546D8F80030834209D91A4F3B68AD
S3150100A6A81A686AB9194A116813603960012300E00A
S3150100A6B8002328463360C8F8005002B0BDE8F08789
S3150100A6C8DB68DC68D3F8009004F1040A5046FEF70B
S3150100A6D895FD236A2046984794F828305B07DED50E
S3150100A6E8A3694B44994506D251463868636024618B
S3150100A6F8FEF762FDD3E700234A4619462046009332
S3150100A708FFF79EFFCBE700BF885100208451002048
S3150100A718285100202DE9F04700275E4D88B02B68A7
S3150100A728D3F80080B8F1000F50D00024DB68D3F8C5
S3150100A7380080FFF75BFC04A8FFF7A4FF049B824691
S3150100A748554E002B5CD1002C47D140454BD3FFF722
S3150100A758F5FC2B68DB68D3F80C9009F10400FEF7C9
S3150100A7684DFD99F82830580732D5D9F818104346BF
S3150100A778524648464144FFF7E7FE30B12346424672
S3150100A788214648460094FFF75BFF4846D9F8203032
S3150100A79898470022306804A9FEF7B6FF0028BED004
S3150100A7A8049B0698002B2EDB069C6369002B31D18E
S3150100A7B803A8FFF767FF049B0246092BE9D8DFE8E0
S3150100A7C803F02D2D2D4C53612D2D4C530124B0E74B
S3150100A7D823F0010389F82830D7E7304B1B681C683A
S3150100A7E8B4FA84F4640922463068A8EB0A01FFF733
S3150100A7F874F9FFF7A3FC0028CBD1FEF777FDC8E76C
S3150100A808FFF79CFCC5E7059B07999847049B002B16
S3150100A818BFDBC9E7201DFEF7F1FCC9E794F828302C
S3150100A828A16943F0010384F82830059B20461944A1
S3150100A838FFF78AFE0028ACD0236A2046984794F889
S3150100A84828305907A5D50023A269059920460A4447
S3150100A85800971946FFF7F4FE9BE794F8283023F092
S3150100A868010384F8283094E794F8283043F001036B
S3150100A87884F8283005990346A16101442046FFF76B
S3150100A88863FE86E794F828309A07E8D42046FEF74F
S3150100A8981DFE7EE78851002080510020845100204A
S3150100A8A80348044B834202D0034B03B11847704750
S3150100A8B8F4830020F483002000000000064B0749BA
S3150100A8C8C91A891048BF0131491003D0044B0BB18D
S3150100A8D801481847704700BFF4830020F48300201D
S3150100A8E80000000010B5064C237843B9FFF7D8FFDE
S3150100A8F8044B13B10448AFF300800123237010BD44
S3150100A9089456002000000000B8E1010108B5054B86
S3150100A9181BB105490548AFF30080BDE80840FFF7BC
S3150100A928CDBF00BF00000000083A0020B8E10101D0
S3150100A938A3F5803A704700BF174B002B08BF134B8E
S3150100A9489D46FFF7F5FF00218B460F461348144A2B
S3150100A958121AF6F7BBD80E4B002B00D098470D4BB1
S3150100A968002B00D098470020002104000D000D4857
S3150100A978002802D00C48AFF3008009F0B3FD20008F
S3150100A988290011F077FC09F08BFB00BF00000800D5
S3150100A99800000000000000000037002000380020F9
S3150100A9A8687800200000000000000000012903BFAC
S3150100A9B8034B00201B78A62008BF1370704700BF01
S3150100A9C8B5560020022938B514461D460FD1202256
S3150100A9D800210848F6F77AD83CB1202D2A462146A7
S3150100A9E828BF2022034811F027FE002038BDA620E3
S3150100A9F8FCE700BF95560020104608B56AB163B159
S3150100AA0802290CD1202B28BF20231A46029B05496F
S3150100AA181A6011F011FE002008BD2F20FCE7A620C0
S3150100AA28FAE700BF95560020012905D102B112782F
S3150100AA38024B00201A707047A6207047B5560020B1
S3150100AA482DE9F0431D46002389B0074608460E4600
S3150100AA581446CDE9053300F03FFC18B9D82009B0F2
S3150100AA68BDE8F083304605A900F098FC0028F6D128
S3150100AA78204600F031FC0028F0D0204606A900F057
S3150100AA888DFC0028EBD1DDE90596079007A9184842
S3150100AA9800F084FC044600BB079919EB01081ED196
S3150100AAA80EB111F02CFC02200AF06DFAA0B1079B39
S3150100AAB8022100931F203B46CDE901960D4A0AF073
S3150100AAC855FA6B689E4210D832464146286811F0FD
S3150100AAD8B3FD6B689E42E4D86E602046BFE702204C
S3150100AAE80AF051FA0028ECD0E1E71924F5E700BF8E
S3150100AAF821720800B0CA0101014800F049BD00BF32
S3150100AB0800720800002307B50348019301AB00F062
S3150100AB1869FC03B05DF804FB00720800014800F007
S3150100AB2807BD00BF0C72080010B506480C4600F0B8
S3150100AB380DFC40F20123984202BF4FF6F173002043
S3150100AB48238010BD0C720800014800F021BD00BF2A
S3150100AB580D720800002307B50348019301AB00F005
S3150100AB6841FC03B05DF804FB0D720800014800F0D2
S3150100AB78DFBC00BF0B72080010B506480C4600F092
S3150100AB88E5FB40F20123984202BF48F20103002087
S3150100AB98238010BD0B720800014800F0F9BC00BF04
S3150100ABA80E720800002307B50348019301AB00F0B4
S3150100ABB819FC03B05DF804FB0E720800014800F0A9
S3150100ABC8E7BC00BF10720800002307B503480193CC
S3150100ABD801AB00F007FC03B05DF804FB1072080036
S3150100ABE8014800F0D5BC00BF11720800002307B563
S3150100ABF80348019301AB00F0F5FB03B05DF804FBD4
S3150100AC0811720800014800F0C3BC00BF12720800A7
S3150100AC18002307B50348019301AB00F0E3FB03B03A
S3150100AC285DF804FB12720800014800F081BC00BF00
S3150100AC381872080010B505480C4600F087FB40F26B
S3150100AC480123984204BF0020208010BD1872080015
S3150100AC58014800F09DBC00BF0F72080073B50026BD
S3150100AC6801AB0E480C461546019600F0BBFB40F2B7
S3150100AC78012398420BD164B10C2D0CD920462A46E2
S3150100AC88074911F06FFC30462C4404F8016C02B0F8
S3150100AC9870BD0B20FBE71920F9E700BF0F7208000A
S3150100ACA8CECA0101014800F073BC00BF0472080056
S3150100ACB8014800F097BB00BF04720800014800F084
S3150100ACC881BC00BF1F720800014800F0E1BB00BF4C
S3150100ACD81F720800014800F02BBC00BF077208006C
S3150100ACE837B512480D4600F031FB40F20123984270
S3150100ACF8044604D14FF470632B80002014E098B900
S3150100AD082B88B3F5805FF8D301200AF03CF950B1DE
S3150100AD184FF4BF732F220121CDE900322046044B9F
S3150100AD28044A0AF023F92F2003B030BD0772080040
S3150100AD38DBCA0101FBCA0101014800F011BC00BFD1
S3150100AD480872080010B506480C4600F027FB40F2C9
S3150100AD580123984202BF4FF47A730020236010BD85
S3150100AD6808720800014800F013BC00BF0972080008
S3150100AD78014800F037BB00BF09720800014800F01E
S3150100AD8807BC00BF0A720800014800F02BBB00BFD0
S3150100AD980A7208000B46024A02490348FFF750BEE9
S3150100ADA827720800267208000CCB01010B46024ADD
S3150100ADB802490348FFF744BE2572080024720800B9
S3150100ADC828CB01010B46024A02490348FFF738BE60
S3150100ADD823720800227208004ECB0101022307B52F
S3150100ADE8D1E9001201A8019308F0DAF818B9019916
S3150100ADF8024800F0B5FB03B05DF804FB20720800B9
S3150100AE081FB5022003900698009003A808F0E0F801
S3150100AE1818B90399024800F0A3FB05B05DF804FBD5
S3150100AE2820720800002370B5154886B00D461646EF
S3150100AE38049300F051FA08B3114804A900F0AEFAD8
S3150100AE48D0B9049B3246002B08BF0223294605A820
S3150100AE58059308F027F9044602200AF094F850B140
S3150100AE6802947368022101936B681F200093054AB7
S3150100AE78049B0AF07BF8204606B070BDD824EBE7A0
S3150100AE882072080067CB0101014800F069BB00BFC9
S3150100AE9821720800014800F081BA00BF217208003A
S3150100AEA8014800F075BB00BF29720800014800F08F
S3150100AEB899BA00BF29720800014800F083BB00BF98
S3150100AEC805720800014800F0E3BA00BF05720800E0
S3150100AED8014800F015BB00BF28720800014800F0C0
S3150100AEE80DBA00BF28720800032307B5D1E900127D
S3150100AEF801A8019300F010F918B90199024800F068
S3150100AF082FFB03B05DF804FB3072080000200A4BE2
S3150100AF1810B5186032B9094C2146BDE810400848F9
S3150100AF2800F01EBBA1F580518C18064800F04AF9BD
S3150100AF38204611F09DF9EFE7203A002000F038018C
S3150100AF4821720800343A00202DE9F74F1C460023E8
S3150100AF5880460F46254801A91646019300F01EFAB8
S3150100AF6838BB234D01992B681BB9224800F034F9E7
S3150100AF78F8B9D4E9009313F00301DDF804B0D5F864
S3150100AF8800A0D8F828200DD003F10408A8EB010881
S3150100AF98424511D3A8EB030209EB0300FF21F5F79C
S3150100AFA895DD43464A4613480BEB0A0100F030F992
S3150100AFB820B103B0BDE8F08F1920FAE738462968B1
S3150100AFC800F0CEFA0028F4D13046616800F0C8FADC
S3150100AFD80028EED12B6862680020134413F03F0263
S3150100AFE81CBF40339B1A2B60E3E700BF21720800A0
S3150100AFF8203A0020343A002008B5034A0B46034993
S3150100B008FFF7A2FF08BD00BF2772080026720800D5
S3150100B01808B5034A0B460349FFF796FF08BD00BF6B
S3150100B028257208002472080008B5034A0B4603492D
S3150100B038FFF78AFF08BD00BF2372080022720800C5
S3150100B0481FB513460022039203AA019220220092F9
S3150100B0580A46014604480EF0CCFF002814BFAC206E
S3150100B068002005B05DF804FB09000002014B09F058
S3150100B078CEBE00BF3B4D010130B4084BD3E8EF2FDC
S3150100B088541CC3E8E54F002DF8D1002A02DC30BC78
S3150100B09800F026B8002030BC704700BF243A0020D3
S3150100B0A82A2828BF002010B4074C04EB8000074C5F
S3150100B0B8D4E8AF4F1CB1A4465DF8044B60475DF870
S3150100B0C8044B09F069BF00BFB2CB0101283A002041
S3150100B0D8024BD3E88F0FC0B2704700BF107A002029
S3150100B0E808B50A4BD3E8EF2F511CC3E8E01F002827
S3150100B0F8F8D1002A07DD064B06481B68D96809F00E
S3150100B108C9F811F0FCF8002008BD00BF2C3A002050
S3150100B118C07900205ACC010170B5044688B0006890
S3150100B1280D46164609F039FF23684FF40071079357
S3150100B13801230B4A02A8CDE902230A4B3246CDE97F
S3150100B148041300232946069301AB0EF022FE01469D
S3150100B15818B1054809F078F9AC2008B070BD00BFF0
S3150100B168002480000010C0048DCC0101014B196038
S3150100B178704700BF303A0020014B1960704700BF85
S3150100B188303A0020054BD3F8942003F580534260EA
S3150100B1984FF4003200201A67704700BF008000A3F1
S3150100B1A8014B0360704700BFFCCC010110B5044692
S3150100B1B8034B082103600CF03BF8204610BD00BF85
S3150100B1C8FCCC010108B502F09FFB10B901480AF051
S3150100B1D800FE08BD3C3A0020002313B50C460B4877
S3150100B1E8694601AA009302F0FBFE58B9009B24F0B8
S3150100B1F87F4223F07F439A4206D90122214603481A
S3150100B20802F048FF02B010BD2E20FBE73C3A0020B1
S3150100B21873B51E4600230C46154669460B4801AA16
S3150100B228009302F0DDFE60B9009B24F07F4223F013
S3150100B2387F439A4207D933462A462146034802F0F4
S3150100B24843FF02B070BD2E20FBE700BF3C3A002049
S3150100B2580448054B054A036000230549436011F07C
S3150100B26847B800BF343A0020FCCC010168780020B9
S3150100B278A9B1000137B50E4D2C686CB903232246D6
S3150100B2882146009301200B4BF6F7D4DB23462246D1
S3150100B29821462860F6F7DFD8286808B911F02FF893
S3150100B2A84FF0FF3103B0BDE83040F6F74E9A00BFC4
S3150100B2B8B03A0020603A0020064B10B5186808B964
S3150100B2C811F01DF80023BDE810401A461946F6F795
S3150100B2D8C29800BFB03A002007B5014606486A463B
S3150100B2E801AB006801F0F8FE09F08AFEB0FA80F0B9
S3150100B2F8400903B05DF804FBA87800207FB5002358
S3150100B30804460D468DF8073009F086FEC0B10E4E8B
S3150100B3182146306803AB02AA01F0DEFE09F070FE91
S3150100B32860B92146039B30680DF1070201F022FE40
S3150100B33809F066FE10B99DF807302B7004B070BD90
S3150100B34840F20120FAE700BFA87800207FB5002364
S3150100B35804460D46ADF8063009F05EFEC0B10E4E44
S3150100B3682146306803AB02AA01F0B6FE09F048FE91
S3150100B37860B92146039B30680DF1060201F0FAFD1A
S3150100B38809F03EFE10B9BDF806302B8004B070BD39
S3150100B39840F20120FAE700BFA87800207FB5002314
S3150100B3A804460D46039309F037FEB0B10C4E21460B
S3150100B3B8306802AB01AA01F08FFE09F021FE50B9EF
S3150100B3C82146029B306803AA01F0D4FD09F018FE54
S3150100B3D808B9039B2B6004B070BD40F20120FAE75F
S3150100B3E8A87800202DE9F0431D46002385B02B607F
S3150100B3F807460E46914609F00FFE00283ED0DFF8B3
S3150100B4088C803946D8F8000003AB02AA01F064FE25
S3150100B41809F0F6FD0446B8B9039B93B3C6B14B458B
S3150100B42831D232463946D8F8000001F0A3FD09F0B9
S3150100B438E7FDD8B9039B012B03D13378003B18BF2D
S3150100B448012300222B60F254204605B0BDE8F083A3
S3150100B458012B01D02B60F7E73946D8F800000DF12A
S3150100B468070201F087FD09F0CBFD08B10446EBE7B9
S3150100B4789DF8073003B103982860E5E740F20124F7
S3150100B488E2E71E24E0E71924DEE700BFA8780020DA
S3150100B4982DE9F7431D4600232B6006460F469046C5
S3150100B4A809F0BAFD00B3DFF854906A463146D9F877
S3150100B4B8000001AB01F010FE09F0A2FD044678B9BF
S3150100B4C8019BA3B167B1434513D83A463146D9F82A
S3150100B4D8000001F04FFD09F093FD60B9019B2B6057
S3150100B4E8204603B0BDE8F08340F20124F8E71E24A4
S3150100B4F8F6E71924F4E70446F2E700BFA878002026
S3150100B50813B504468DF8071009F086FD58B10748AA
S3150100B5180123214600680DF1070201F0D3FC09F069
S3150100B5286FFD02B010BD2F20FBE700BFA8780020F1
S3150100B53813B50446ADF8061009F06EFD58B1074873
S3150100B5480223214600680DF1060201F0BBFC09F051
S3150100B55857FD02B010BD40F20120FAE7A878002095
S3150100B56813B50446019109F057FD58B1042307485C
S3150100B578214600680DEB030201F0A4FC09F040FD29
S3150100B58802B010BD40F20120FAE700BFA8780020FA
S3150100B59810B5044609F040FD68B179B10848012A99
S3150100B5A81346006838BF01230A46214601F08AFC82
S3150100B5B809F026FD10BD40F20120FBE72F20F9E72F
S3150100B5C8A878002010B5044609F026FD58B101B93E
S3150100B5D862B90748134600680A46214601F072FC1B
S3150100B5E809F00EFD10BD40F20120FBE72F20F9E717
S3150100B5F8A878002008B503480BF04AFDBDE80840C5
S3150100B60810F041BEECCE010101480BF041BD00BF6F
S3150100B618ECCE0101BFF34F8F0549064BCA6802F408
S3150100B628E0621343CB60BFF34F8F00BFFDE700BF56
S3150100B63800ED00E00400FA050348044A0449121A19
S3150100B648921009F01EBD00BFA8810001A8A800013B
S3150100B658000000204FF000602DE988484049414B21
S3150100B668414AD3F8943088660221012B3F4B4FF0AB
S3150100B678000099604FF0005143D8002500260027A5
S3150100B6885FF000085FF000095FF0000A5FF0000B49
S3150100B6985FF0000C501A4FF48073B0FBF3F404FB0F
S3150100B6A803F40C44A14210D2A1E8E01FA1E8E01F6F
S3150100B6B8A1E8E01FA1E8E01FA1E8E01FA1E8E01F5B
S3150100B6C8A1E8E01FA1E8E01FECE7914202D241F8A8
S3150100B6D8045BFAE70522254B9A604FF00062A3F551
S3150100B6E840539A6600F04CF8FFF7A6FF204B214914
S3150100B6F88B4228D30020204B20498B422ED3FFF7BB
S3150100B7081BF9501A4FF02003B0FBF3F404FB03F4C2
S3150100B7180C44A14204D291E8E01FA1E8E01FF8E732
S3150100B728914203D20D6841F8045BF9E7D2E718683C
S3150100B73850F82240586840F82240013298688242FF
S3150100B748F5D30C33D4E70022F8E71C6844F8220045
S3150100B75801325C68A242F8D30833CEE70022F8E743
S3150100B76800508040008000A300000820009080401F
S3150100B778C0E10101CCE10101CCE10101CCE101010A
S3150100B788044B054A9A60D3F8882042F47002C3F83C
S3150100B7988820704700ED00E000800001002307B50E
S3150100B7A8294801930BF074FC4FF4407301220421DC
S3150100B7B86846ADF8003000F0A1F80122234B0520B8
S3150100B7C8C3F8442401A9F4F781DC002839D1204BB8
S3150100B7D8D3F8F02042F00102C3F8F020D3F8FC2098
S3150100B7E842F08072C3F8FC201A4AA3F55D431A6039
S3150100B7F8019B194A03F5D52303F2FC43B3FBF2F384
S3150100B808164A013B13610223C2F8F0304FF48073E4
S3150100B818C2F804334FF06043114AC3F8B02F114AF6
S3150100B828C3F8802ED3F8002E42F48072C3F8002E96
S3150100B838FF2283F82020D3F8002E22F48072C3F861
S3150100B848002E03B05DF804FBECCE010100D0834065
S3150100B85800ED00E0FF030040F8590D00000004E088
S3150100B86855CEACC5090001002DE9F04104460C2569
S3150100B8784FF00108124E0CB314F001000BD0002052
S3150100B88824F0010405FB00625768002FF3D0916884
S3150100B898C0B2B847EFE72246013020284FEA5202E4
S3150100B8A801D0D307F8D508FA00F20F2824EA0204D2
S3150100B8B8E8D9103805FB0062B432E5E7BDE8F08146
S3150100B8C8B43A002008B50C480BF0E2FB2A2003F035
S3150100B8D8F7FE28B12A2003F001FF2A200BF0E2FB2C
S3150100B8E82B2003F0EDFE28B12B2003F0F7FE2B20C9
S3150100B8F80BF0D8FB002008BDECCE01012DE9F04183
S3150100B9080E469046054620B30F2924D803783BB145
S3150100B918012B03D0022B1AD0032B1CD1072300E0DD
S3150100B9281F236A78D340DB0715D50D4BD3F810438F
S3150100B9389CB9F4F71BDE074642462846314601F014
S3150100B9487FFF3846F4F70DDE2046BDE8F0813F2338
S3150100B958E7E72224F8E72124F6E70224F4E700BF03
S3150100B96800C0834008B501F061FF054B00F0553072
S3150100B97820F05020C3F82004BDE80840FFF774BF43
S3150100B98800E0834008B501F051FF054B00F0AA30ED
S3150100B99820F0A020C3F82004BDE80840FFF764BFE3
S3150100B9A800E083402DE9F04F144606460D469B46B6
S3150100B9B8036C87B001225B6902A960689847336CFA
S3150100B9C801225B6903A92846984702A80AF0B4F838
S3150100B9D8074648B10023A37563754FF0FF33A3608B
S3150100B9E8002007B0BDE8F08F03A80AF0B2F80123DA
S3150100B9F8A375237E04EBC303DD611F846368AB4231
S3150100BA080ED1206003A80AF0C6F84FF0FF3320755F
S3150100BA18A360237D043B022B26D80023A375DFE709
S3150100BA2823681A1A53425341A37503A80AF0B3F8B7
S3150100BA38237D834218BFA77503A80AF08EF8074627
S3150100BA4802A80AF08AF8874218BF002303A818BF7C
S3150100BA58A3750AF08AF8074602A80AF086F887420B
S3150100BA681CBF0023A375D4E703A80AF076F880B1B2
S3150100BA78336C022228465B6904A9984704A80AF090
S3150100BA887BF80346207D032839D8DFE800F03838EB
S3150100BA98040903A8F3E7CC22237E04EBC3031A8423
S3150100BAA801F032FE109B187003A8277E0AF049F8A8
S3150100BAB804EBC70787F82200237E03A804EBC30318
S3150100BAC8B3F8209093F822700AF047F8804603A845
S3150100BAD80AF04BF88246B8F1000F15D0336C0222F2
S3150100BAE828465B6904A9984704A80AF00AF860750C
S3150100BAF8637D6BB90023A3754FF0000838E0227EF9
S3150100BB0804EBC2021384CBE703A809F0E5FFEEE7CD
S3150100BB1894F81680B8F1000FEED0B9F1000F09D1EB
S3150100BB28DFB10123627EE375002A44D19F4218D111
S3150100BB38677614E0F36C05EB0A02594285EA0200BE
S3150100BB4808421CBF0021A175591E0A409B1A994536
S3150100BB58D0D8A37D002BE3D1CEE7E37D43B94FF0DF
S3150100BB6800084B4652462946304609F0EAFBA060D2
S3150100BB78A27D12B123694B4423611449237E0978B6
S3150100BB8899421ED901332376BBF1000F1BD0D2B1DE
S3150100BB98E37DC3B1B8F1000F15D1032F13D0A16806
S3150100BBA84B1C10D0109B2246009330460123FFF709
S3150100BBB8F9FEA07507E0012FDAD0032F08BFA37697
S3150100BBC8CDE70023A375A07D0BE700BFC4CD010116
S3150100BBD82DE9F04F0E46984600238BB004464FF0E8
S3150100BBE8FF31104617468DF8133001F077FDB6F58B
S3150100BBF8801F3BD3B21C53D1256B6B1C57D12046F2
S3150100BC08A16A09F0E4FA0546B31C18BF0123DFF857
S3150100BC1824910193A36AE26C0293236805A902FBA6
S3150100BC28053A236C05225B695046984705A80AF030
S3150100BC381EF80AF041F850460AF049F84FF0000B91
S3150100BC48824601464B1C05D0E36C81EA0A025B4237
S3150100BC58134232D02946204609F0B9FA029BAB4273
S3150100BC684DD0BBF1000F4DD10546D3E7314605AAA4
S3150100BC7804F1080009F079FE0146481C10D038463F
S3150100BC8801F02CFD0122394620460DF1130309F076
S3150100BC98A1FB28B19DF8133088F80030002003E095
S3150100BCA8237C002BA8D12D200BB0BDE8F08F23688B
S3150100BCB8ED1AE36CB5FBF3F5A6E7484601F00EFD70
S3150100BCC80DF1130349462046019A09F083FB034601
S3150100BCD890B1B21C03D0D9F80020B2420CD19DF81C
S3150100BCE813200393124B88F8002049461A683846F0
S3150100BCF810F0A2FC039B9B46D9F80810A2E7BBF1FA
S3150100BD08000FD0D0B6F5801FC8D208343146204678
S3150100BD1898F800307A6809F030FD0028BED131461E
S3150100BD28204698F800307A6809F092FDBCE700BF12
S3150100BD38C0CD0101F44200202DE9F341044617461E
S3150100BD4898460E46194DC16A236B8B422AD04B1C65
S3150100BD5818E0284601F0C2FC0122294620460DF1C9
S3150100BD68070309F037FB30B14346294620469DF8BB
S3150100BD780720B847B0B1A9684A1C05D0012E0AD0D8
S3150100BD88236B9942E5D10DE06968204609F0ACFAC2
S3150100BD98012E0146D8D16B6881EA0302E36C5B4246
S3150100BDA81A42D1D002B0BDE8F08100BFC8420020D6
S3150100BDB82DE9F041436B9046C26B07689A4288BFEA
S3150100BDC8C363C26C836A90B002FB0377036C0E46A9
S3150100BDD8052201A95B6904463846984701A809F076
S3150100BDE846FF01280146307057D0E56C226C23685E
S3150100BDF8A06AD2F814C005FB0030052206A9E0475F
S3150100BE0806A809F034FF01284FF0000523D0D4E92C
S3150100BE180B3201219342CDE90B458DF834800E95FD
S3150100BE288DF83C102AD11946204609F05DFA636B54
S3150100BE38E26C14339B1A206363630C9B53B99DF818
S3150100BE483C303BB1A26AE16C2368206C01FB0231EC
S3150100BE5809F0C5FE0C9D236C05225B6901A93846CC
S3150100BE68984701A809F003FF30702846636BE26B17
S3150100BE789A4288BFE36310B0BDE8F081237C33B9E9
S3150100BE881C490BAA04F1080001F02AFBD5E7204654
S3150100BE98194A0BABFFF750FFCFE7237C23BB22469A
S3150100BEA8164904F1080001F01BFBA16A204609F0B6
S3150100BEB8AFF9A16A421C204609F074F9054620B972
S3150100BEC8636BE26C1344143B63632046E16A09F031
S3150100BED80BFA2368E062C01AE36CB0FBF3F0A062C8
S3150100BEE8204609F044FAB6E700232046044AFFF73C
S3150100BEF823FFDAE715C9000191C80001775401014A
S3150100BF081354010173B50D46D11E4A421C461B7EC8
S3150100BF184A419A4226D129682368994222D36368FD
S3150100BF2899421FD8114E0DF107033246FFF750FE0D
S3150100BF38C0B972686B689A4214D19DF80730DA1E47
S3150100BF4853425341227E93420CD1636901336361A3
S3150100BF58D4E90323934205D22968A26842F823103B
S3150100BF6801332361012002B070BD00BF20430020C8
S3150100BF782DE9F0410F4616469846044688B060B347
S3150100BF8890F83850FDB1012109F0E2F800210E9B25
S3150100BF98CDE90511CDE902379DF83C30CDF804808D
S3150100BFA88DF81C30237C04968BB90D4901AA04F13E
S3150100BFB8080001F095FADDE90553206C002E08BF4B
S3150100BFC81D4609F062FA284608B0BDE8F081204608
S3150100BFD8044A01ABFFF7B0FEEDE70546F3E700BFFC
S3150100BFE8415401010DBF00012DE9F04F9BB00793A4
S3150100BFF89DF89430DDF89090022B04460F46D9F847
S3150100C00810B00992089304D0079B9B45C0F0D980CC
S3150100C0189B46D9F804306E4E04936E4B0593BBF1DB
S3150100C028000F15D1D9F8103083B1089B002B40F0C9
S3150100C038BF8094F85C30022B70D199F81820079BC1
S3150100C0486449A3EBC202384610F0F6FA002066E00E
S3150100C058236C01225B690AA9049898470AA809F082
S3150100C06878FDD9F80030834240F0AD800AA809F07E
S3150100C0787CFD0428069055D10AA809F07DFD0546E0
S3150100C0880A9B0D93049B069A12A903EB0208002347
S3150100C098CDE90F331193236C01225B69404698471A
S3150100C0A82068D4F84CE0A8EB000CBCFBFEFC98FA1F
S3150100C0B888F31393236C05225B6915A90EFB0C0003
S3150100C0C8984715A809F0AAFD00BA0DF13C0A149083
S3150100C0D812AB032D93E807008AE8070032D9236CCF
S3150100C0E8314640465B69AA08984725F0030305F0DF
S3150100C0F8030A98441E44BAF1000F0BD0236C01229F
S3150100C1085B6915A9404698473046524615A910F06D
S3150100C11893FA564494F85C30022B15D026201BB0AE
S3150100C128BDE8F08F236C0BA902225B690498984736
S3150100C1380BA809F021FD069A05460BA90DA810F0D2
S3150100C1487BFA9FE7AA46D6E701232149A26D039305
S3150100C1582B1F0B440293059BA5F10808CDE9008323
S3150100C1680FA8D2F80CA00B1D069A0DA9D0470028D6
S3150100C178D5D1089B012B0AD194F85C30022BCDD17D
S3150100C18842463846059910F000FAF0B94744BBEB28
S3150100C198050B07D094F85C30022BBFD1059B761BA3
S3150100C1A8434405932046049909F09EF8049036E71E
S3150100C1B8089B022B7FF44AAF0649099B079A194443
S3150100C1C841E76320ABE76F20A9E73620A7E700BF61
S3150100C1D8B6660020B65600202DE9F04F9FB09A4664
S3150100C1E89DF8A030044608939DF8A4308B46099320
S3150100C1F8D1E903350693099B1746022B44D1CC2D69
S3150100C20840F0DC81089B93B109F09DF90E9001235A
S3150100C2184FF000094FF008080793099B012B0FD12E
S3150100C22894F85C30022B47D109F1080908E0069B0E
S3150100C2384FF008081B68DDF820900E930123079339
S3150100C248DBF8003007993B6009983D6109F0A7FCC6
S3150100C2584FEA98030D93734B2E460C930023CDE9B1
S3150100C2680A3338750593E16C4A1E0AEA02028B1AEB
S3150100C278002E49D0C144994551D3636BCDF810A01E
S3150100C2885B1A13446363BDE0089BFBB1099B012B51
S3150100C2981CD100222B46CDE900126249FFF7A4FE04
S3150100C2A8064650B9DBF8103083B19BF817306BB1ED
S3150100C2B894F85C30022B04D0262630461FB0BDE820
S3150100C2C8F08F9BF81830013BA5EBC305782DE36C7D
S3150100C2D89DD85A1E0AEA02029B1A2A1D9A4208D9B1
S3150100C2E875B1082B93D800234FF004090793C84664
S3150100C2F893E74FF000094FF00408CDF81C908CE73E
S3150100C3084FF004090795F2E74345B6D335460AEBDC
S3150100C31808030493059B002B18BF032311E0A3EB25
S3150100C32808039E4235460AEB080228BF1D469E426F
S3150100C3380492EFD901233A69FB75B2426DD1C7F868
S3150100C34804A00593FB7D002B69D03A7E059907EB7E
S3150100C358C203C3F81CA01D8483F82210531C3B7624
S3150100C3689DB1099B022B5FD10A9B63B90B9B2B4499
S3150100C378032B0AD9236C01229B6904980EA99847B5
S3150100C388002840F0238101230A93059B0FA80193F6
S3150100C398079B00933A7D2B46DBF8001001F054F910
S3150100C3A8236C50469B690D9A0FA998478146002828
S3150100C3B840F000812B4642465146204608F0C1FF0F
S3150100C3C8636BEA1CA3EB080322F003029B1AB8600D
S3150100C3D86363B9F1000F40F0F3800B9B761B2B4486
S3150100C3E80B93DBF810306BB1099B012B0AD1059B26
S3150100C3F8013BDBB2012B05D894F85C30022B7FF4A4
S3150100C4085BAF08362046049908F06EFF4FF0000925
S3150100C4188246002E7FF427AF4FE7022391E7C7F83C
S3150100C42804A09DE7B6560020032D40F2BE80059B69
S3150100C4380FA80193079B0DF14C0900933A7D2B46F2
S3150100C448DBF8001001F000F90FA9424611A810F017
S3150100C458F3F80023CDE913331593A36D04215B6823
S3150100C46816A89847E0B9049B226C1BBA2068179353
S3150100C478049BD4F84CC052691B1AB3FBFCF39646CD
S3150100C4880CFB03000522734619A9984719A809F058
S3150100C498C5FB00BA189016AB93E8070089E80700B0
S3150100C4A8089A94F85C30002A40D1022B40F08D801E
S3150100C4B80122A36D039219AA0292454A0192A5F196
S3150100C4C808020092D3F80890069B424611A913A8C0
S3150100C4D8C84700287AD1139B3E4A136094F85C300A
S3150100C4E8022B6FD13C4B199A5A51089B43B194F8C8
S3150100C4F85C30022B69D10C9AA5F108031A440C92F7
S3150100C508236C34499B690498AA0898478146E8B17F
S3150100C51894F85C30022B7FF4CFAE069AA5F1080396
S3150100C5281A4406922A9B049A1A6043E7022B4CD1B5
S3150100C5380122A36D039219AA0292254A0192A5F135
S3150100C54808020092D3F808900C9BBEE715F0030287
S3150100C55820D0204B25F0030903EB0901049B9944DC
S3150100C5684FF0FF3319A8199310F066F8236C484663
S3150100C5789B69012219A9984794F85C308146022BD8
S3150100C5887FF49AAE069AA5F108031A440692002882
S3150100C598C8D1FAE694F85C30022B7FF48DAE069A80
S3150100C5A8A5F108031A440692EFE62A46DDF810902B
S3150100C5B80699D5E72A9BC3F800A0FBE670267CE618
S3150100C5C84E467AE6089B002B9AD02620064674E644
S3150100C5D8BA660020B6660020B26600202DE9F04F43
S3150100C5E88FB005930023884608920A69C16C0C939B
S3150100C5F81439D31DB3FBF1F3013302EBC302436BC9
S3150100C60804469342C0F0D080DFF8A4A1DFF8A891D0
S3150100C618256B6748294601F061F80CAB0293059B27
S3150100C62841460193089B20460093614A2B46FFF732
S3150100C638D3FD8346C8B9DAF808300834A362DAF8B4
S3150100C64804202046059BD8F8001009F096F8002822
S3150100C65840F0A6802046059BDAF80420D8F8001099
S3150100C6680FB0BDE8F04F09F0F3B83D2840F09880C7
S3150100C6782368E06CEF1AB7FBF0F707FB003009F007
S3150100C68826FB216B0646204608F02EFEE36A834206
S3150100C69873D0E26CDAF80830511E0B40616B2063E7
S3150100C6A8891A0B44636321680C9B5B1AB3FBF2F38B
S3150100C6B89F42079352D1AD1B50D03E4F4FF0FF31E9
S3150100C6C83C4801F00BF8236C01225B690DA9304641
S3150100C6D898470DA809F03DFA364A01460DF12F0390
S3150100C6E82046FFF775FA002859D1FB7D43B13B7EF9
S3150100C6F83A6907EBC3031B8BD21A083315441E4448
S3150100C708236B48461946099300F0E8FF9DF82F3038
S3150100C7180CAACDE9013201220693009239464A460E
S3150100C7282046099BFFF758FD002838D1D9E90012A0
S3150100C738D9F8083004F108002363069B00F072FE5D
S3150100C7483B69782BA5EB030501D8FA7D22B3FA7D5F
S3150100C758083D0AB908331E44002DAFD12368079A4C
S3150100C768E16C206C01FB023109F026FA204608F03B
S3150100C778FAFC204608F0FBFD6063D8F81020E16C4E
S3150100C788D31D1439B3FBF1F3013302EBC302636B17
S3150100C7989342BFF43DAF03E0043D0433DBE7834630
S3150100C7A858460FB0BDE8F08F4FF01C0BF8E700BFF5
S3150100C7B8F4420020C84200209C4200202DE9F3479C
S3150100C7C81D4683690446AB420F4691469DF828806B
S3150100C7D850D300268DF80760204608F08BFCD4F864
S3150100C7E834A082450AD2636AB6EB430F06D2002209
S3150100C7F820460DF10701FFF7DBFAF8B19DF807307E
S3150100C808012B05D1002220460DF10701FFF7D0FAC9
S3150100C818B8F1030F14D11B4E4FF0FF31304600F02B
S3150100C8285DFF376035614346002220461549C1F848
S3150100C8380C9002B0BDE8F047FFF7D0BE0136CBE752
S3150100C8482946204608F041FC666B864216D30D4EF2
S3150100C8584FF0FF31304600F041FFB8F1010F376064
S3150100C8683561E0D1002DDED094F85C30022B07D17A
S3150100C8780835D7E7622002B0BDE8F0871C20FAE741
S3150100C8882620F8E720430020032A2DE9F34106462E
S3150100C8980D4617461C4606D1237A012B23D00120C3
S3150100C8A802B0BDE8F081DFF86080096842460DF103
S3150100C8B80703FFF78DF960600028EDD19DF8072081
S3150100C8C8237A032AE8D0D8F804106A689142E3D19A
S3150100C8D8012B2969D4F80CC007D1B2690CEB010305
S3150100C8E8934202D92074207CDAE708316144E16079
S3150100C8F83B46012229463046FFF770FE6060002854
S3150100C908CAD00020CCE700BF204300202DE9F3411F
S3150100C918089C032A1746266806D1237A012B24D0B8
S3150100C928012002B0BDE8F081DFF89080304642462A
S3150100C9380DF10703FFF74CF960600028EDD1256872
S3150100C948D8F80400E96AD5F84CC04840CCF1000390
S3150100C9581840227AE1D1012A09D1E268D8F81030C3
S3150100C9681344B269934202D92074207CD9E7286816
S3150100C9782B6B1B1A081AB3FBFCF3B0FBFCF08342C2
S3150100C9880BD1F06C336B421E1340726B121A1344AF
S3150100C9982846736308F0A8FC2863D8F81020E368D2
S3150100C9A808321344E36001223B4604492068FFF735
S3150100C9B815FE60600028B0D00020B2E720430020B1
S3150100C9C82DE9F04F4FF0FF334FF6FF72002504466D
S3150100C9D800F10809C0E90A2391B00363456245637A
S3150100C9E848460F4608F0B2FE204608F0BCFB002870
S3150100C9F84DD13946204608F03AFC204608F0B3FBEB
S3150100CA080646A36D1B6898470546C8B9002E00F06F
S3150100CA186B814FF0FF384FF6FF7306460746C3464C
S3150100CA28C4E90903236A9F4259D3A6EB0806012ED6
S3150100CA387AD84FF6FF72A36A934240F08B80672536
S3150100CA48284611B0BDE8F08F2368226CE06C566960
S3150100CA5800FB053005220BA9B0470BA809F007F919
S3150100CA6809F02AF990B10BA809F051F994F85C304C
S3150100CA78834240F037810025236A9D420CD3204624
S3150100CA8808F071FB06460028B3D0BAE70135236AD8
S3150100CA989D42D9D30020E9E72368226CE06C5669E8
S3150100CAA800FB053005220BA9B0470BA809F0DFF8F2
S3150100CAB801280AD12946204608F0AAFB421C294624
S3150100CAC8204608F06FFB0135D6E709F0FAF8002889
S3150100CAD8F9D02946204608F09BFB0246EFE7236872
S3150100CAE8226CE06CD2F814C000FB073005220BA9B2
S3150100CAF8E0470BA809F0BBF803900BA809F08EF8DC
S3150100CB088246039809F0D8F860B1DA4538BFA762BA
S3150100CB18D04528BFD046564538BF5646D346636AE0
S3150100CB280133636201377DE74FF6FF730026A3627F
S3150100CB38236A9E42BFF47DAF2368226CE06C576975
S3150100CB4800FB063005220BA9B8470BA809F066F8C1
S3150100CB580136EDE7E66C226C206806A906FB0300A0
S3150100CB6857690522B84706A809F058F8A26A236842
S3150100CB78E06C5E4E00FB023009F0A9F84FF0FF3376
S3150100CB88E062236332466FF0010120460DF1170377
S3150100CB98FFF71EF800285ED1B76800262763236CC5
S3150100CBA801225B690BA9B81998470B9B013354D12C
S3150100CBB8E36C0436F2197A405B421A42EFD0666397
S3150100CBC826B92046216B08F08FFB2063394620469B
S3150100CBD808F08AFB0646E36A9E4240D1A669E26CE2
S3150100CBE8F11C143AB1FBF2F14FF0000806EBC1064D
S3150100CBF80336B6FBF2F647460236236A9F4240D30E
S3150100CC08B0455DD22046A16A08F0E1FA074604F16B
S3150100CC18480A454515D3E26C236806A902FB07397C
S3150100CC28236C05225B694846984706A808F0F6FF73
S3150100CC3894F85C300246009349465346206C09F045
S3150100CC4848F83946204608F0C2FA0135B542074682
S3150100CC58DFD36425F4E6E76A9FE70026AFE73146A6
S3150100CC68204608F057FA636B314603440746636367
S3150100CC78204608F039FB0646002FACD1C4E90C075B
S3150100CC88A9E7E26C23680BA902FB073A236C052284
S3150100CC985B69504698470BA808F0E9FF09F00CF8BC
S3150100CCA860B1504609F013F80146204608F032FAF9
S3150100CCB8E36C143B984208BF08F1010801379CE769
S3150100CCC8484608F043FD002320461946084AFFF75F
S3150100CCD833F86369012B7FF6B3AE484600F078FA5C
S3150100CCE80546ADE62625ABE65E25A9E620430020E6
S3150100CCF8015401010022714B2DE9F0411F680D46CF
S3150100CD0804461A6018B921252846BDE8F08190F82D
S3150100CD1838606EB30A6803689A4240F0C3804A686D
S3150100CD2843689A4240F0BE808A6883689A4240F016
S3150100CD38B980CA68C3689A4240F0B4800A698369AF
S3150100CD489A4240F0AF808A69036C9A4240F0AA8001
S3150100CD58CA69836D9A4240F0A58091F8202090F81F
S3150100CD685C309A4240F09E804B690025C361CBE74F
S3150100CD7860223146D0F83C80F3F7A8DED5E90212E5
S3150100CD882B6804F1080023606B68C4F83C80636073
S3150100CD982B69A3616B69E36108F0EBFCAB6904F1EC
S3150100CDA8480023649B68984700284BD1E16C11B170
S3150100CDB86368B3FBF1F194F84B302162002BA2D0E2
S3150100CDC8EB69A36595F82060E56C84F85C60002D35
S3150100CDD870D000296ED02368B3FBF5F205FB123338
S3150100CDE8002B61D1D4F80480B8FBF5F305FB138356
S3150100CDF8002B59D1204608F07DF9E3690433034431
S3150100CE08984553D340F63472A369CC3B93424FD825
S3150100CE18B5F5805F4ED3012E4ED9032E4CD0032192
S3150100CE28204608F095F9D4E90001236C1B68984758
S3150100CE380546236C0220DB6898472DB1002384F848
S3150100CE4838301FE03146B6E739462046FFF7B8FDC8
S3150100CE586428054604D139462046FFF7B1FD054643
S3150100CE68E36C143B002DE9D1626A204602FB03F606
S3150100CE7808F040F9E369043303449E4206D284F874
S3150100CE8838505A25206C08F000FB3DE70123D4E908
S3150100CE9800010B4A84F8383013680133136008F02F
S3150100CEA81AFEEFE75D252FE759252DE75A252BE7CA
S3150100CEB85F2529E75B2527E7262525E7203C00206E
S3150100CEC81C3C00202DE9FF410F4690461E460546AB
S3150100CED8002842D090F83830002B40D0B1F5801F99
S3150100CEE83FD2224C022108F033F922463946284618
S3150100CEF80DF10F03FEF76CFE28BB23690BB395F8FA
S3150100CF085C20022A2FD1227E06EBC2029DF80F1061
S3150100CF18012918D1934216D1CDE900410022414693
S3150100CF282846FFF761F8044668B9014632461048B3
S3150100CF38F3F7CCDD286C08F0A8FA204604B0BDE862
S3150100CF48F0813246E2E701234246009339463346E9
S3150100CF582846FFF733FC0446ECE72124EDE71124C4
S3150100CF68EBE72924E9E72624E7E700BF4C4300203D
S3150100CF78B65600202DE9F0430C4691461E46054655
S3150100CF8885B0002842D090F83830002B40D0B1F552
S3150100CF98801F3FD2DFF88880012108F0D9F82146A1
S3150100CFA8424628460DF10F03FEF712FE0446F8B96C
S3150100CFB89DF80F30012B22D1D8F810703FB195F8A2
S3150100CFC85C30022B28D198F8183006EBC306B74215
S3150100CFD81AD100223B4649462846CDE90082FFF789
S3150100CFE803F8044620B901463A460C48F3F76EDDC4
S3150100CFF8286C08F04AFA204605B0BDE8F083022BF2
S3150100D00814BF2D246024F3E76324F1E72124F2E712
S3150100D0181124F0E72924EEE72624ECE7B65600208A
S3150100D0284C4300202DE9F04385B00C4691461E4637
S3150100D0380546DDF83080002842D090F83830002BBC
S3150100D04840D0B1F5801F3FD2214F012108F080F869
S3150100D05821463A4628460DF10F03FEF7B9FD044667
S3150100D06800BB9DF80F30012B23D195F85C30022BBC
S3150100D0782CD13B6913B13A7EA3EBC20306EB080236
S3150100D0889A421BD802233246CDE9007349464346E4
S3150100D0982846FEF7A9FF044620B9014642460D482F
S3150100D0A8F3F714DD286C08F0F0F9204605B0BDE861
S3150100D0B8F083022B14BF2D246024F3E76324F1E7E0
S3150100D0C82124F2E71124F0E72924EEE72624ECE7E8
S3150100D0D84C430020B65600202DE9F3411E46002395
S3150100D0E80C46174605463360A0B390F838309BB313
S3150100D0F8B1F5801F32D2DFF86C80012108F028F8DB
S3150100D1082146424628460DF10703FEF761FD04460E
S3150100D118F0B99DF80730032B1AD0022B0AD1012347
S3150100D12804213B603160286C08F0AFF9204602B053
S3150100D138BDE8F081D8F8101038600029F2D095F8CA
S3150100D1485C30022B0CD198F81830A1EBC301E9E742
S3150100D1582D24E8E72124E9E71124E7E72924E5E76F
S3150100D1682624E3E74C43002030B50C46054685B036
S3150100D17828B390F8383023B3B1F5801F23D20221A2
S3150100D18807F0E6FF0DF10F03214628460F4AFEF781
S3150100D1981FFD034688B99DF80F20032A0DD00322E7
S3150100D1A82146009202462846FFF708FB0446286CEA
S3150100D1B808F06BF9204605B030BD2D24F7E7212488
S3150100D1C8F8E71124F6E72924F4E700BF4C430020C9
S3150100D1D82DE9F04FC56889B0AC000590204609F0E5
S3150100D1E8D3FFDFF83CB2DFF82CA2CBF800002046CB
S3150100D1F809F0CAFFCAF80000204609F0C5FFDFF8A2
S3150100D2081892DFF81882C9F80000204609F0BCFF19
S3150100D218C8F80000204609F0B7FF7C4F3860204661
S3150100D22809F0B2FF7A4B06461860DBF80030002495
S3150100D2380293DAF80030D8F800E0039301236A1E56
S3150100D248D9F800C0D7F800800192019A9A42C0F035
S3150100D258C1805A0000920122013B0693009B0025DA
S3150100D268013B0492079367E0069B5C19019B9C426C
S3150100D27828BF1C46079B03EB0509019B994528BF57
S3150100D2889946AC42C0F0A2804C4580F09F80029B33
S3150100D298002B00F09D80039B002B00F09980BCF1C8
S3150100D2A8000F00F09580BEF1000F00F09180B8F1F3
S3150100D2B8000F00F08D80002E00F08A800021049B6B
S3150100D2C8EF0004EB030A059B1B688A4539D1002741
S3150100D2D8A9EB040B03EBC404A2680398C2F3130277
S3150100D2E840F82720E2684EF8272054F8082F46F818
S3150100D2F827200137BB45EFD10022A946144603F181
