S01C00006275696C642F64656275672F67656E657261746F722E7333379C
S31501008000383400204D800011F9810011F9810011E9
S31501008010F9810011F9810011F9810011F98100112D
S31501008020F9810011F9810011F9810011F98100111D
S31501008030F9810011F9810011F9810011F98100110D
S3150100804000800011000001010080000066485B4BC2
S315010080507844D0F800C04668C3F808C0326882F395
S315010080608888574A574C96605A6A42F400225A62E7
S31501008070554ADA60D3F88C2042F4406242F001029C
S31501008080C3F88C2000234FF0FF32214641F823200C
S315010080900133102BFAD14FF450424C4B7F219A6693
S315010080A001224B4B4B4CC3F89011C3F83021C4F855
S315010080B070118068B0F5003F7BD007D8B0F5004F4E
S315010080C00DD0B0F5803F09D0002208E0B0F5802F31
S315010080D071D0B0F5002FF7D1052200E002224FF052
S315010080E0FF37C3F86422C3F8707233465C68012116
S315010080F04FF01009384EDFF8F4E0DFF8F4800A009B
S3150100810033461A600A0073461A601A6802EA0102C7
S31501008110002AFAD14FF41046304D2B4632461A60EA
S3150100812006F1A2466FF48018DFF8C8E006F583561B
S3150100813033463A461A60734642461A60A6F54F66BA
S3150100814033460A001A60264DF03E29462CF07F433D
S31501008150B3FBF0F3202B05D9A3F120034FF0FF3237
S315010081600A6008E04FF001029A406FEA02020A60D3
S315010081704FF0FF33FFE701F10401B142EADD19498E
S315010081806408640002220B461A60002000210022C6
S3150100819000230025002600275FF000085FF0000994
S315010081A05FF0000A5FF0000B5FF0000CBFF34F8F2A
S315010081B02447032293E7042291E700BF00ED00E084
S315010081C000ED02E080E300E00020FA050050804067
S315010081D00090005100A00051185083406860804013
S315010081E074920051D0ED00E0ECFFFFFF18D08540FE
S30F010081F014C0854064A00051FEE7AB
S31501010000383400206D33010191C3010191C301010E
S3150101001091C3010191C3010191C3010191C3010180
S3150101002091C3010191C3010191C3010181108000B5
S3150101003091C301019C39020111108000E908800078
S3150101004091C30101B552010191C3010191C301019D
S3150101005091C3010191C3010191C3010191C3010140
S3150101006091C3010191C3010191C3010191C3010130
S3150101007091C3010191C3010191C3010191C3010120
S3150101008091C3010191C3010191C3010191C3010110
S3150101009091C3010191C3010191C3010191C3010100
S315010100A091C3010191C3010191C3010191C30101F0
S315010100B091C3010191C3010191C3010191C30101E0
S315010100C091C3010191C3010191C3010191C30101D0
S315010100D091C3010191C3010191C3010191C30101C0
S315010100E091C3010191C301019D3601017D360101D2
S315010100F091C3010191C3010191C3010191C30101A0
S3150101010091C3010191C3010191C3010191C301018F
S3150101011091C3010191C3010191C3010191C301017F
S3150101012091C3010191C3010191C3010191C301016F
S3150101013091C3010191C3010191C3010191C301015F
S3150101014091C3010191C30101396A010191C3010100
S3150101015091C3010191C3010191C3010191C301013F
S3150101016091C3010191C3010191C3010191C301012F
S3150101017091C3010191C3010191C3010191C301011F
S3150101018091C3010191C3010191C3010191C301010F
S3150101019091C3010191C3010191C3010191C30101FF
S30D010101A091C3010191C30101A3
S315010101A8014B1868704700BF145800200A4B1B6F92
S315010101B803F00703013B042B04D8DFE803F00B0422
S315010101C807030900FEE7054B18687047044BFBE76F
S315010101D8044BF9E704487047004080401458002051
S315010101E81C58002010580020002D310108B5FFF7D1
S315010101F8DDFF054B1B6FC3F303330133B0FBF3F08B
S31501010208024B186008BD00BF004080400C58002011
S3150101021800487047002D3101014B1868704700BF2E
S315010102281C5800200020704700487047002D3101F5
S31501010238014B1868704700BF185800204FF4004059
S3150101024870474FF47A70704709B100F003B822205C
S3150101025870470000F8B504460D4600F01BFA06463C
S315010102681C2C00F26A81DFE814F01D0026006801E2
S3150101027830003D004E003E016500700068018900AD
S31501010288EF008D00A10068016801A500B9006801A8
S31501010298BD006801C1005601030168011A01DB00AD
S315010102A868014E01FFF782FF00242860304600F0FD
S315010102B8ECF92046F8BDA34B1C6FFFF797FFC4F372
S315010102C803340134B0FBF4F0EEE79E4B1F6F1C6F4C
S315010102D8FFF78CFFC7F303370137B0FBF7F0C4F318
S315010102E88024EEE7974B1F6F1C6FFFF77FFFC7F35C
S315010102F803370137B0FBF7F0C4F380240134B0FBAF
S31501010308F4F04008D0E78F4BD3F88000D3F880305A
S31501010318C0F3011003F00303022B00F1010400F0FD
S31501010328D980032B00F0D980012B40F08280FFF799
S315010103383DFFC7E7FFF73AFF824BD3F89030C3F386
S3150101034804430133B0FBF3F0AEE77E4BD3F820311A
S3150101035803F00703013B052B6BD8DFE813F0060011
S31501010368E8000C0009000600E800FFF719FF9BE702
S31501010378FFF75AFF98E7FFF74BFF95E7714BD3F85C
S315010103882831E5E76F4BD3F8403103F00303022B1C
S3150101039806D0032B07D0012B4BD1FFF74FFF83E77C
S315010103A8FFF746FF80E7FFF74CFF7DE7654BD3F87B
S315010103B86031EAE7634BD3F8003203F00703013BE7
S315010103C8032B36D801A252F823F000BFFB018000A6
S315010103D801028000070280003D028000FFF706FF47
S315010103E8800A61E7574BD3F84032CEE7554BD3F82C
S315010103F8203203F00703013B032B1AD801A252F855
S3150101040823F000BF75028000D1018000FB01800045
S315010104180102800029460A20FFF71CFF044645E729
S31501010428484BD3F8703203F00303012B05D0022B95
S3150101043806D0002302242B6038E729460C20EBE776
S3150101044800230F242B6031E73E4BD3F8A83203F082
S315010104580703013B032BECD801A252F823F000BF95
S31501010468CB0180008F038000D7018000D101800074
S31501010478344BD3F8AC3203F00703013B032BD8D82D
S3150101048801A252F823F000BFF9028000D1018000D0
S31501010498FB0180000102800029460B20BCE7294B9C
S315010104A8D3F8B002D3F8B03200F03F0003F4E063A9
S315010104B8B3F5407F00F1010412D008D8B3F5807F66
S315010104C80BD0B3F5007FB4D1FFF7A6FEFAE6B3F573
S315010104D8806FAED1FFF7A8FEF4E6FFF761FEF1E6FC
S315010104E8FFF796FEEEE6174BD3F8803103F00303C7
S315010104F8022B3FF440AF032B3FF43AAF012B98D1BE
S315010105082946082088E74FF0E0231B6929465B073E
S3150101051894D5012080E70B4BD3F8003103F003038F
S31501010528022B3FF43DAF032B04D0012B81D1FFF7F9
S3150101053873FEB9E6FFF776FEB6E6002321242B60A2
S31501010548B4E600BF004080400122437801789A4011
S3150101055830235943014B5A50704700BF40D083405D
S3150101056808B54FF0FF31054800F0C3F828B94FF433
S315010105788062034B9A66BFF34F8F08BD483D002041
S31501010588005080404FF48062024B03489A6600F09E
S31501010598CCB800BF00608040483D002038B504460C
S315010105A8D0B1FFF7DDFFC0B9204600F046F84FF09C
S315010105B8854500F06FF86B6CDB02FCD56C6D00F0BC
S315010105C864F804F470242B68FFF7DCFF2CB120468C
S315010105D8BDE838401CF0079E212038BD10B50C46F0
S315010105E8D0B1C9B100F04DF80C4B0D495A6E4FF413
S315010105F88033D2034B6601F5DE21D1F80C1658BFBB
S31501010608084A216058BF536600F036F8002023686E
S3150101061823F07F43236010BD2120FCE70040804081
S315010106280050804000608040C369032B9FBF00EBE7
S3150101063883020133D160C3617047C369042B16D89C
S315010106484FF08542116CC902FCD5002105339B0087
S31501010658136511600168143B11604168116050F816
S31501010668081F11604FF085420344984200D1704733
S3150101067850F8041F1160F8E710B962B6BFF36F8F1E
S315010106887047EFF3108072B6704780F31188BFF394
S315010106986F8F7047EFF31180302383F31188704709
S315010106A8EFF31083DB0706D4EFF311802F2894BFEC
S315010106B800200120704701207047000070B50546EA
S315010106C8A8B1FFF7DEFF0646286E00F031FB0446A6
S315010106D840B100F085FA844209BF6C6D0124E443F7
S315010106E804F001043046FFF7C7FF204670BD012417
S315010106F8FBE738B50D460446A8B100F0EDF9022825
S315010107080FD1FFF7CDFF20B12046BDE83840FFF7ED
S31501010718D5BF2946206E00F0AFFA003818BF01206F
S3150101072838BD0020F9E70120FAE710B50446A0B162
S3150101073800F0D2F902280ED1FFF7B2FF20B1204607
S31501010748BDE81040FFF7BABF206E00F0C5FA0038C0
S3150101075818BF012010BD0020F9E70120FAE70000C2
S3150101076853B94AB9002908BF00281CBF4FF0FF3108
S315010107784FF0FF3000F07EB9ADF1080C6DE904CEFA
S3150101078800F006F8DDF804E0DDE9022304B070475C
S315010107982DE9F04F099D0C46002B4DD18A420F4692
S315010107A884469646B2FA82F360D94BB102FA03FE40
S315010107B8C3F120029F4000FA03FC20FA02F2174313
S315010107C84FEA1E461FFA8EF44FEA1C42B7FBF6F1B1
S315010107D806FB117701FB04F042EA0742904208D968
S315010107E81EEB020201F1FF3702D2904200F22D817E
S315010107F83946121A1FFA8CFCB2FBF6F006FB1022D7
S3150101080800FB04F44CEA024C644508D91EEB0C0CB6
S3150101081800F1FF3202D2644500F21A81104640EA1C
S315010108280140ACEB040C002125B12CFA03F300229B
S31501010838C5E90032BDE8F08F8B4205D90DB1C5E98D
S31501010848000100210846F5E7B3FA83F100294DD1E4
S31501010858A342C0F0F280904280F0EF80064623461B
S315010108680846002DE6D0C5E90063E3E7002B40F011
S31501010878A2808A1A4FEA1E471FFA8EF60121B2FB98
S31501010888F7F407FB14204FEA1C4242EA004206FB31
S3150101089804F090420FD91EEB020204F1FF382CBF76
S315010108A84FF001094FF00009904203D9B9F1000F40
S315010108B800F0C8804446121A1FFA8CFCB2FBF7F005
S315010108C807FB102200FB06F64CEA024C664508D9DD
S315010108D81EEB0C0C00F1FF3202D2664500F2BB8019
S315010108E81046ACEB060C40EA04409DE7C1F120062F
S315010108F88B4004FA01FE22FA06F720FA06FCF440B7
S315010109088A401F434EEA0C0300FA01FE4FEA1748D3
S315010109184FEA13491FFA87FCB4FBF8F008FB1044A8
S3150101092849EA044400FB0CF9A1450ED93C1900F129
S31501010938FF3A2CBF4FF0010B4FF0000BA14503D92C
S31501010948BBF1000F00F093805046A4EB09041FFA8E
S3150101095883F9B4FBF8F308FB134403FB0CFC49EADE
S315010109680444A44506D93C1903F1FF3801D2A4452B
S315010109787AD8434643EA0040A4EB0C04A0FB02984B
S315010109884445CC46434602D306D1CE4504D2013865
S31501010998B9EB020C68EB07035DB1BEEB0C0264EB24
S315010109A8030404FA06F622FA01F3CC401E43C5E90B
S315010109B8006400213EE702FA03FEC3F1200104FAAD
S315010109C803F200FA03FCCC404FEA1E4720FA01F173
S315010109D81FFA8EF6B4FBF7F00A4307FB1044110C14
S315010109E841EA044100FB06F48C420ED91EEB0101D2
S315010109F800F1FF382CBF4FF001094FF000098C4275
S31501010A0802D9B9F1000F2CD04046091B92B2B1FBAC
S31501010A18F7F407FB141142EA014204FB06F191427C
S31501010A2807D91EEB020204F1FF3801D2914215D80A
S31501010A384446521A44EA004121E7861A64EB030344
S31501010A4801200EE7023C724435E702397244D0E6C9
S31501010A58F4440238E3E6F444023842E7023C7244BC
S31501010A68E7E702387144D0E7023B3C4482E70238A2
S31501010A783C446AE7704700BF02440346934200D1EA
S31501010A88704703F8011BF9E708B54FF0E0231B6925
S31501010A9801F000FB012803D0BDE8084000F018BBAE
S31501010AA808BD0000EFF3058373B9EFF31082094B13
S31501010AB812B9EFF3118212B11A68022A04D0186821
S31501010AC828B901221A6070476FF0050070474FF087
S31501010AD8FF3070474045002008B501F0DBFA38B10F
S31501010AE8022804D0034B1868431E5842584108BDD1
S31501010AF80320FCE74045002010B5EFF30583BBB998
S31501010B08EFF310830D4C13B9EFF3118313B1236876
S31501010B18022B0DD02368012B0DD16FF004000021A2
S31501010B281DF049DC0223236001F0C2F8002010BD43
S31501010B386FF00500FBE74FF0FF30F8E7404500206D
S31501010B4808B5EFF3058393B9EFF3108313B9EFF3FF
S31501010B5811831BB10A4B1B68022B08D001F09AFAC3
S31501010B6840B1022808D101F0DBF8002008BD6FF079
S31501010B780500FBE70120F9E74FF0FF30F6E700BF73
S31501010B884045002010B50446EFF3058303BBEFF397
S31501010B98108313B9EFF311831BB1104B1B68022B99
S31501010BA816D001F077FA30F0020314D1012C03D1E2
S31501010BB801F0B6F8204610BD6CB901F059F90128C2
S31501010BC8F8D001F067FA841E18BF4FF0FF34F1E738
S31501010BD86FF00504EEE74FF0FF34EBE740450020DF
S31501010BE801F04CBA38B50546EFF3058313B1002474
S31501010BF8204638BDEFF3108313B9EFF311831BB107
S31501010C081C4B1B68022BF2D02DB36B681A07EED465
S31501010C18D5E9021203F0010371B14F2AE7D993B15C
S31501010C28042000F090FE04460028E0D0296800F06F
S31501010C38B9FD44F00104DBE7002AD8D1ABB10420A0
S31501010C4800F052FEEFE7012000F07DFE0446002880
S31501010C58CDD0296806E0012000F046FE04460028A9
S31501010C68C5D0294600F09EFDC2E7012000F03CFEF1
S31501010C78ECE700BF40450020034610B520F001000E
S31501010C880C4603F00102EFF30581E9B9EFF310818F
S31501010C9811B9EFF3118119B10E490968022913D066
S31501010CA8012B14D9214662B100F050FD012801D169
S31501010CB8002010BD002C14BF6FF001006FF0020077
S31501010CC8F7E700F0B0FCF1E76FF00500F1E76FF027
S31501010CD80300EEE740450020024608B520F0010071
S31501010CE802F00103EFF30581C9B9EFF3108111B9D7
S31501010CF8EFF3118119B10D49096802290FD0012AAA
S31501010D0810D93BB100F039FD01280CBF00206FF065
S31501010D18020008BD1A46194600F039FBF4E76FF0DF
S31501010D280500F6E76FF00300F3E700BF4045002031
S31501010D380346012B20F0010010D9EFF305834BB9C6
S31501010D48EFF3108313B9EFF311832BB1044B1B682E
S31501010D58022B01D100F0F4BC00F0E5BC002070477C
S31501010D684045002010B5034620F00104EFF3058242
S31501010D789AB9EFF3108212B9EFF311821AB10A4A3D
S31501010D881268022A09D0012B0AD9204600F01CFD56
S31501010D98204600F031FD002010BD6FF00500FBE78C
S31501010DA86FF00300F8E700BF4045002073B50E4612
S31501010DB81546EFF30583D3BBEFF3108313B9EFF3AD
S31501010DC811831BB1244B1B68022B30D078B3B04277
S31501010DD82DD375B9012837D10322002100F067FD0A
S31501010DE8044620B3AEB96DBB2946204600F0DAFCAC
S31501010DF81EE0D5E90232C3B14F2A18D901281AD101
S31501010E08032200920022114600F082FD044670B1C8
S31501010E18C6B1002320461A46194600F0B8FA012838
S31501010E28E1D0204600F0E8FC01E0002AD2D00024F6
S31501010E38204602B070BD1A46314600F092FD0446BD
S31501010E480028F4D02D68CFE7314600F058FD044655
S31501010E580028C8D1EBE700BF4045002007B550B3CC
S31501010E68EFF305834BB9EFF3108313B9EFF311834D
S31501010E78CBB1124B1B68022B15D1002301A9019392
S31501010E8800F0A9FB012804D06FF0020003B05DF858
S31501010E9804FB019B2BB14FF0E0234FF08052C3F8BD
S31501010EA8042D0020F2E700231A46194600F06FFACD
S31501010EB80128F6D0E8E76FF00300E7E7404500208F
S31501010EC810B50446EFF3058393B9EFF3108313B90C
S31501010ED8EFF311831BB1094B1B68022B08D054B1DF
S31501010EE8204600F071FC204600F086FC002010BD6A
S31501010EF86FF00500FBE76FF00300F8E740450020B6
S31501010F0870470000034B0360034B0B60A02313607A
S31501010F18704700BFE044002060420020034B036094
S31501010F28034B0B60A0231360704700BF00420020EA
S31501010F38803F00204FF0FF3200F10803C0E9022388
S31501010F48436003610023036070470023036170470F
S31501010F5830B50C68631C0AD103695A684A60916005
S31501010F688B605960036808610133036030BD00F184
S31501010F780802134652681568A542FAD9EDE743688E
S31501010F889A684B608A605160996003680861013308
S31501010F98036070470369D0E901128A605160596893
S31501010FA8814208BF5A60002202611A68013A1A6031
S31501010FB81868704710B54FF0807440E90224184A41
S31501010FC84FF0123440F80C2C4FF003324FF0023C2B
S31501010FD840E905244FF0013240F8203C40E9072C4D
S31501010FE84FF010334FF011324FF0093440E90A320C
S31501010FF84FF008334FF0073C40E90C344FF0063304
S315010110084FF0053240E90E3C4FF0043340E9103206
S315010110186FF0430340F8443C40F8481D10BD00BF3A
S31501011028557401014FF0E02200234FF47A711361DF
S315010110389361044B1B68B3FBF1F3013B536107232E
S31501011048136170470C5800204FF0E02310B50024B6
S31501011058D3F8202D42F47F02C3F8202DD3F8202D91
S3150101106842F07F42C3F8202DFFF7DCFF044B1C60D9
S3150101107800F076F800F0BAFF16F0BCDA204610BD8A
S31501011088405800204FF0E0234FF08052C3F8042D59
S31501011098BFF34F8FBFF36F8F7047000008B500F09C
S315010110A871F8044A136801331360BFF34F8FBFF315
S315010110B86F8F08BD40580020044B1A681A68013A17
S315010110C81A60186808B900F068B8704740580020D6
S315010110D810B500F057F8044600F03EFE28B14FF06E
S315010110E8E0234FF08052C3F8042D2046BDE8104095
S315010110F800F053B8836913F8023C022B0FD14FF064
S31501011108E023D3F8882D42F47002C3F8882DD3F869
S31501011118342F42F04042C3F8342F00F001B870472A
S315010111280B4A1168086806C881F30B88022181F305
S315010111381488203080F30988BFF36F8F4FF00000C0
S3150101114880F31188104700BFAFF30080AFF3008029
S315010111588C4A002000000000000000000000000089
S3150101116807480068006880F3088862B661B6BFF36C
S315010111784F8FBFF36F8F02DF00BF00BFAFF3008050
S3150101118808ED00E0EFF311804FF0300181F311888A
S31501011198BFF34F8FBFF36F8F704780F31188BFF38A
S315010111A84F8FBFF36F8F70470000000000000000EA
S315010111B8EFF309801EF0100F08BF20ED108AEFF337
S315010111C80B82734620E9FC0F114A116808604FF03A
S315010111D8300080F31188BFF34F8FBFF36F8F00F093
S315010111E805FF4FF0000080F31188094A1168086864
S315010111F8B0E8FC0F13F0100F08BFB0EC108A82F3A8
S315010112080B8880F309881847AFF30080AFF3008094
S315010112188C4A0020000000000000000000000000C8
S315010112281EF0040F0CBFEFF30880EFF309800449A0
S31501011238084700BFAFF30080AFF30080AFF300802A
S31501011248550F800010B5044600F06AFD20461AF0D4
S3150101125893D9044600F00CFE204610BD10B504468C
S3150101126840B100F05DFD20461AF08ED9BDE8104067
S3150101127800F0FEBD10BD70B50446FFF70FFF94F8E7
S31501011288455004F124066DB2002D14DCFF2384F8C0
S315010112984530FFF711FFFFF701FF94F8445004F1B8
S315010112A810066DB2002D12DCFF2384F84430BDE827
S315010112B87040FFF701BF636A002BE7D0304600F0A3
S315010112C85FFE08B100F0E0FE013D6DB2DCE723697E
S315010112D8002BE9D0304600F053FE08B100F0D4FEE8
S315010112E8013D6DB2DEE710B50446FFF7D7FEA46BE3
S315010112F8FFF7E2FEB4FA84F0400910BD70B516464F
S31501011308026C0446856B42B906689EB9806800F08D
S315010113180FFFA6600135A56370BD6EB9406822F05D
S315010113288FD86368226C1344A2686360934224BF11
S31501011338236863600020EDE7C06822F081D8226C3A
S31501011348E36851429B1A2268E36093423EBFA36850
S315010113585B18E360022EEDD10DB1013DEAE728469E
S31501011368D8E703461A6C084610B46AB1DC6899686D
S3150101137814448C4228BF1968DC6028BFD960D96832
S315010113885DF8044B22F05C985DF8044B7047F0B5A3
S31501011398044685B01D4601920E4600F07BFEFFF715
S315010113A87DFEA26BE36B9A421FD22A46314620463D
S315010113B8FFF7A4FF636A1BB104F1240000F0E0FD05
S315010113C808B1FFF75FFEFFF777FE012005B0F0BD13
S315010113D8FFF764FEA36BE26B9A42E6D80123019AF1
S315010113E842B9FFF769FE0020F0E7022DDDD000239F
S315010113F81F46F4E713B902A800F00CFFFFF75CFEDC
S3150101140800F08EFCFFF74AFE94F84430FF2B08BF23
S3150101141884F8447094F84530FF2B08BF84F8457069
S31501011428FFF74AFE01A902A800F000FF20BBFFF75A
S3150101143835FEA26BE36B9A4210D1FFF73DFE019986
S3150101144804F1100000F076FD2046FFF714FF00F0C5
S315010114580FFD0028BCD1FFF715FE06E0FFF72CFEAC
S315010114682046FFF708FF00F003FDFFF717FEA26B01
S31501011478E36B9A42B2D298E72046FFF7FCFE00F0E9
S31501011488F7FCB0E738B100231A46194683600360B1
S31501011498C360FFF77CBF7047F0B5044685B00E46B9
S315010114A8019200F0F7FDFFF7F9FDA56B9DB13146F4
S315010114B82046013DFFF755FFA563236933B104F1C1
S315010114C8100000F05DFD08B1FFF7DCFDFFF7F4FD43
S315010114D8012005B0F0BD019B1BB9FFF7EDFD002009
S315010114E8F7E702A800F096FE2F46FFF7E5FD00F0A3
S315010114F817FCFFF7D3FD94F84430FF2B08BF84F896
S31501011508447094F84530FF2B08BF84F84570FFF7FE
S31501011518D3FD01A902A800F089FEF8B92046FFF713
S31501011528E2FEA8B1019904F1240000F003FD204669
S31501011538FFF7A1FE00F09CFC08B9FFF7A3FDFFF731
S31501011548ADFDA56B002DB2D1019B002BCDD1C4E711
S315010115582046FFF790FE00F08BFCF0E72046FFF7E7
S315010115688AFE00F085FC2046FFF7BDFE0028E6D07D
S31501011578B5E72DE9F843044616461F468946FFF79E
S3150101158801FEA26BE36B80469A4201D3022F20D159
S3150101159894F845503A46494620466DB2A36BFFF782
S315010115A8ADFE6B1C10D1636A3BB104F1240000F056
S315010115B8E7FC10B10EB10123336001244046FFF760
S315010115C8ECFD2046BDE8F88301356DB284F8455036
S315010115D8F3E70024F2E770B504460D46FFF7D2FD9D
S315010115E8A26BE36B064693421BD994F84510013267
S315010115F8FF294BB2A2630FD1636A3BB104F12400FF
S3150101160800F0BEFC10B10DB101232B600124304657
S31501011618FFF7C3FD204670BD01335BB284F845303F
S31501011628F4E70024F3E7F0B5002585B004460191F6
S315010116382E4600F02FFD2F46FFF730FDA36BA3B110
S31501011648013BA363236813B900F0D8FDA0602369A0
S3150101165833B104F1100000F093FC08B1FFF712FD54
S31501011668FFF72AFD012005B0F0BD019B1BB9FFF764
S3150101167823FD0020F7E716B902A800F0CBFDFFF715
S315010116881BFD00F04DFBFFF709FD94F84430FF2BD4
S3150101169808BF84F8447094F84530FF2B08BF84F8D5
S315010116A84570FFF709FD01A902A800F0BFFD10BBAE
S315010116B82046FFF718FEC0B123683BB9FFF7EEFCD8
S315010116C8A06800F0F7FC0546FFF7F6FC019904F15D
S315010116D8240000F02FFC2046FFF7CDFD00F0C8FBE2
S315010116E808B9FFF7CFFC0126A6E72046FFF7C3FD98
S315010116F800F0BEFBF7E72046FFF7BDFD00F0B8FB9A
S315010117082046FFF7F0FD0028EDD0002DB1D0FFF7F7
S31501011718C5FC616A19B1236B1968C1F13801A06861
S3150101172800F034FDA3E710B50446FFF7B7FC2368BB
S3150101173823B9A468FFF7C0FC204610BD0024F9E7C8
S3150101174803680BB9806870470020704770B58668D1
S3150101175804460D4600F092FC864204D10120E36855
S315010117680133E36070BD29462046FFF75CFF002877
S31501011778F8D0E3680133E360F4E738B585680446D0
S3150101178800F07CFC85420BD1E368013BE3600BB1B8
S31501011798012038BD1A4619462046FFF7F8FDF7E735
S315010117A80020F6E7002330B5064A52F8335002EB1A
S315010117B8C3041DB942F83310606030BD01330A2BE9
S315010117C8F3D1FAE744450020002310B5084A52F837
S315010117D83310DC00814206D10021064A42F8331052
S315010117E82244516010BD01330A2BF0D1FAE700BF3B
S315010117F8484500204445002010B5FFF7E5FF90F85C
S3150101180846301BB9BDE81040FFF728BD10BD70B5BC
S3150101181804460D461646FFF741FC94F84430FF2B62
S3150101182804BF002384F8443094F84530FF2B04BFE4
S31501011838002384F84530FFF73FFCA36B2BB93246E9
S31501011848294604F1240000F085FB2046BDE87040D5
S31501011858FFF711BD38B504460D46FFF71FFCD4E95C
S315010118680F314B432268D0185B1AA06062600020D1
S315010118781A44FF23A063E26084F8443084F84530B2
S3150101188865B9236933B104F1100000F079FB08B198
S31501011898FFF7F8FBFFF710FC012038BD04F1100032
S315010118A8FFF748FB04F12400FFF744FBF2E7F8B51B
S315010118B80646484350300D461746FFF7C3FC044612
S315010118C870B1002380F8463065B100F1500301215A
S315010118D82046C4E90F652360FFF7BCFF84F84C7005
S315010118E82046F8BD0346F2E7024610B5002101205C
S315010118F8FFF7DDFF0446FFF7C5FD204610BD10B50C
S3150101190802220C460021FFF7D2FF00B1846310BD04
S3150101191837B50D465021019101991C4601997BB1B3
S31501011928002D08BF1A460121C3E90F0583F84610A0
S3150101193818461A60FFF78EFF9DF8183084F84C3067
S31501011948204603B030BD002213B50B46009011465F
S315010119580120FFF7DDFF0446FFF794FD204602B09B
S3150101196810BD1346022213B5009200220C461146F8
S31501011978FFF7CEFF00B1846302B010BD10B590F830
S315010119885D3004463BB9006BFFF768FC2046BDE8AC
S315010119981040FFF763BC012BF9D010BDF8B5064617
S315010119A8144B154D1C6828680F460430FFF7F2FAE7
S315010119B8731C07D137B1296810480431BDE8F840CD
S315010119C8FFF7DDBA2B68A4195C6007D30C4B1868BD
S315010119D82968BDE8F8400431FFF7BABA094B186816
S315010119E829680431FFF7B4FA074B1A68A24288BF7E
S315010119F81C60F8BDB44500208C4A0020BC45002076
S31501011A08FC4500200046002098450020064A136837
S31501011A181968064B19B94FF0FF321A6070471268F7
S31501011A28D2681268F9E700BF0046002098450020F0
S31501011A382DE9F0410446FFF731FB2D4B2D4E1A686E
S31501011A482D4F01321A603568002D43D134601B6868
S31501011A58012B1FD1B84640460135FFF76BFA382DE0
S31501011A6808F11408F7D1DFF8B880244D4046FFF78D
S31501011A7861FA2846FFF75EFA2148FFF75BFA214822
S31501011A88FFF758FA2048FFF755FA204BC3F80080AB
S31501011A981F4B1D6014201F4A1368013313601E4A28
S31501011AA823641168E36A8B4200FB037004F10401A4
S31501011AB888BF1360FFF763FAFFF7FEFA174B1B6836
S31501011AC89BB13368DA6AE36A9A420ED2BDE8F041FC
S31501011AD8FFF7D8BA114B1A68E36A002ADAD13268D4
S31501011AE8D26A9A4298BF3460D4E7BDE8F08100BF53
S31501011AF8B84500208C4A00202C46002004460020C7
S31501011B08E8450020D4450020BC45002000460020B8
S31501011B18FC4500209C450020B0450020AC4500202D
S31501011B281846002080B50F4C0F4F104D236833B965
S31501011B380F4B1B68012BF8D9FFF7A4FAF5E7FFF755
S31501011B48ADFAFB68DE68301DFFF724FA2B68013B05
S31501011B582B602368013B2360FFF7AEFA3046FFF796
S31501011B680DFFE3E7D0450020D4450020B845002004
S31501011B782C4600202DE9F0470D46DDE9099496002A
S31501011B8832460746A521206B9846FEF775FF236B5A
S31501011B98043E1E4426F00706002D39D06B1E04F1BA
S31501011BA83302093513F8011F02F8011F09B1AB42C6
S31501011BB8F8D1002384F83D30089D4FF0000A372DEE
S31501011BC828BF3725201DE562A564C4F84CA0FFF797
S31501011BD8BCF9C5F1380504F11800FFF7B6F9434612
S31501011BE83A463046216B2461A5616462C4F850A066
S31501011BF8C4F854A0C4F858A084F85CA0FFF7DAF930
S31501011C082060B9F1000F01D0C9F80040BDE8F0879D
S31501011C1884F83450D0E72DE9F043074685B09000A2
S31501011C28884616469946FFF70DFB054620B94FF03A
S31501011C38FF3005B0BDE8F0836020FFF703FB0446DA
S31501011C4898B1002380F85D300D9B056301930C9BC8
S31501011C58324641460290009338464B46FFF78AFFC2
S31501011C682046FFF7E5FE0120E3E72846FFF7F6FAE6
S31501011C78DDE770B5602686B00596059EDDE90B544C
S31501011C88059E8CB185B12563022584F85D5004ADA5
S31501011C9801950A9D02940095FFF76CFF2046FFF70F
S31501011CA8C7FE049806B070BD00230493F9E7000046
S31501011CB830B5002489B007AA06A905A8CDE90544C6
S31501011CC8FFF720F9059B079A0293069B0E49CDE971
S31501011CD800430E482346FFF7CCFF80B100F020FBF5
S31501011CE8012805460BD1FFF74DFA4FF0FF32084B94
S31501011CF81A60084B1D60084B1C60FFF7A5F9074BD5
S31501011D081B6809B030BD00BF343B0201851980004B
S31501011D1898450020AC450020B445002044580020D0
S31501011D28024A136801331360704700BF94450020C6
S31501011D38014B1868704700BFB4450020012906DC2C
S31501011D4808B9044B1868143150F82100704700206E
S31501011D58704700BF8C4A00203A4B2DE9F74F1B68A3
S31501011D68002B68D1384B1C6801341C606CB9374BA0
S31501011D781A681268364A1968106818601160354A76
S31501011D88136801331360FFF741FE334D4FF0000B22
S31501011D982B68324EA342324F12D914213A68D26ABC
S31501011DA84A43B258022A2F4A28BF4FF0010B12683B
S31501011DB8002A18BF4FF0010B584603B0BDE8F08F52
S31501011DC8DFF88890DFF8A4A0D9F8002012681AB9BB
S31501011DD84FF0FF322A60E0E7D9F80020D268D2F83D
S31501011DE80C80D8F804108C4201D22960D5E708F194
S31501011DF8040318460193FFF7CDF8D8F8281019B14D
S31501011E0808F11800FFF7C6F81423D8F82C00DAF8F8
S31501011E180010884288BFCAF80000019903FB0060D7
S31501011E28FFF7ADF83868D8F82C10C26A914228BF75
S31501011E384FF0010BC8E70C4A4FF0000B1368013349
S31501011E481360B9E794450020B445002000460020F7
S31501011E58FC450020A0450020984500202C4600207D
S31501011E688C4A0020A4450020A8450020B045002041
S31501011E782DE9F041274C2368FFF710F92368013B47
S31501011E88236024682CB10024FFF716F92046BDE822
S31501011E98F081214B1B68002BF5D0204D204EDFF830
S31501011EA890801DE0EB68DC68271D04F11800FFF737
S31501011EB871F83846FFF76EF81420E36A326800FBB9
S31501011EC803809342394688BF3360FFF758F8154BAB
S31501011ED8E26A1B68DB6A9A4202D30122124B1A6033
S31501011EE82B68002BDED10CB1FFF790FD0F4D2C6845
S31501011EF844B101270C4EFFF72FFF00B13760013CB2
S31501011F08F9D12C60084B1B68002BBCD0FFF7BAF836
S31501011F180124B9E794450020B8450020E845002089
S31501011F28B04500208C4A0020A4450020A845002080
S31501011F382C46002010B50C46054B19681831FFF7D8
S31501011F4807F82046BDE810400121FFF727BD00BF6C
S31501011F588C4A002038B514460D46084B19681831C4
S31501011F68FFF70DF8002C214608BF2846BDE8384081
S31501011F7818BF4FF0FF30FFF711BD00BF8C4A002093
S31501011F8838B5C368DC6804F118052846FFF702F875
S31501011F98104B1B68DBB9251D2846FEF7FBFF0E4AC8
S31501011FA814201168E36A8B42294688BF13600B4ADC
S31501011FB800FB0320FEF7E3FF094BE26A1B68DB6AB4
S31501011FC89A4285BF0120074B0020186038BD294672
S31501011FD80548EFE794450020B04500202C4600202E
S31501011FE88C4A0020A4450020E8450020F8B51E4B7F
S31501011FF81A681E4B12B101221A60F8BD1C4C1A60EF
S3150101200823681B6B1A68B2F1A53F0BD15A68B2F165
S31501012018A53F07D19A68B2F1A53F03D1DB68B3F1B0
S31501012028A53F04D0206821683431FEF769FF1427DA
S31501012038104E114A316807FB01F3D558D0188DB1F5
S31501012048456808336D6813449D4208BF6B6845604E
S3150101205808BF4360142303FB01225368DB6823602D
S315010120683160CAE70139E6E794450020A445002015
S315010120788C4A0020B04500202C460020014B1868E7
S31501012088704700BF8C4A00200122014B1A60704734
S31501012098A4450020054B1B6833B1054B1868B0FAF6
S315010120A880F040094000704701207047AC45002087
S315010120B894450020F8B5044638B31A4DC36A2A680F
S315010120C8D26A934226D28269174E002AA1BF2A688B
S315010120D8D26AC2F138028261142202FB03634269A0
S315010120E89A4213D1071D3846FEF754FF14202B686F
S315010120F80E4ADB6A116800FB03608B42E3623946CB
S3150101210888BF1360FEF73BFF0120F8BD2B68DB6A28
S31501012118C362F9E72B68806CDB6A98422CBF002001
S315010121280120F2E78C4A00202C460020B045002008
S3150101213838B5044608B9002038BD114BC16A1B6878
S31501012148826CC36C914203F1FF33C364F3D0002B54
S31501012158F1D1051D2846FEF71DFF1420A36CC3F115
S315010121683802A261074AE36211688B4288BF13608C
S31501012178054A294600FB0320FEF701FF0120DBE79B
S315010121888C4A0020B04500202C46002070B5044633
S3150101219860B3836C994238BF1946C36A8B4225D00D
S315010121A8C26C012A22D1124A124D12688269C16290
S315010121B8002A4FF0140202FB03534269A4BFC1F17D
S315010121C8380181619A4211D1061D3046FEF7E2FEB8
S315010121D81420094AE36A116800FB03508B42314610
S315010121E8BDE8704088BF1360FEF7C9BE70BD00BF68
S315010121F88C4A00202C460020B0450020044B1A6861
S315010122081AB11968CA6C0132CA641868704700BFE5
S315010122188C4A0020034B1B680360034B1B68436010
S31501012228704700BFA0450020B445002070B50D4692
S315010122380446FEF733FF0F4B19682B685A1C17D052
S315010122480D48266800686268864208D08A4206D81F
S31501012258002301242B60FEF72FFF204670BD881A43
S315010122688342F5D95B1A134420462B60FFF7D2FF47
S315010122780024F0E7B4450020A0450020914208B5A5
S31501012288416000610AD8D21A83699A420DD2084B74
S31501012298011D1868FEF75CFE002008BD9A4201D2AD
S315010122A8994202D2034B011DF3E70120F5E700BF6D
S315010122B8EC4A0020F04A0020F7B5114CFEF7EEFE74
S315010122C82568BDB90F4F104E3846FEF733FE304625
S315010122D8FEF730FE0D4B10211F600D4B0A201E60C3
S315010122E80C4A0D4B0095FFF713FB206010B10B4902
S315010122F8FFF758FA03B0BDE8F040FEF7DDBE00BFAF
S31501012308E84A0020084B0020F44A0020F04A002040
S31501012318EC4A002064560020944A0020393B020108
S3150101232810B588B0FFF7C8FF0E4B00241868B8B17D
S3150101233807AA06A905A8CDE90544FEF7EFFD059B00
S31501012348079A0293069B0849019328230748009394
S315010123582346FFF78EFC064B1860001B18BF0120A8
S3150101236808B010BDE84A00203E3B0201A9228000BF
S31501012378E44A00207FB50F4C0546206816461A46E1
S3150101238880B10529CDE9001602950DDCFFF782FE1C
S315010123980023022818BF1A46694608BF089A206809
S315010123A8FEF7F5FF04B070BD00236946FFF7E1F8B2
S315010123B8F8E700BFE84A00202DE9F3470646FFF78B
S315010123C8B7FCDFF880800546D8F80030834209D981
S315010123D81A4F3B681A686AB9194A11681360396054
S315010123E8012300E0002328463360C8F8005002B0F3
S315010123F8BDE8F087DB68DC68D3F8009004F1040ACC
S315010124085046FEF7C7FD236A2046984794F82830B7
S315010124185B07DED5A3694B44994506D2514638680F
S3150101242863602461FEF794FDD3E700234A46194602
S3150101243820460093FFF79EFFCBE700BFF04A002035
S31501012448EC4A0020904A00202DE9F04700275E4D0D
S3150101245888B02B68D3F80080B8F1000F50D000245A
S31501012468DB68D3F80080FFF75BFC04A8FFF7A4FF3C
S31501012478049B8246554E002B5CD1002C47D1404521
S315010124884BD3FFF7F5FC2B68DB68D3F80C9009F100
S315010124980400FEF77FFD99F82830580732D5D9F897
S315010124A818104346524648464144FFF7E7FE30B104
S315010124B823464246214648460094FFF75BFF4846B4
S315010124C8D9F8203098470022306804A9FEF7E4FFBD
S315010124D80028BED0049B0698002B2EDB069C636957
S315010124E8002B31D103A8FFF767FF049B0246092B8D
S315010124F8E9D8DFE803F02D2D2D4C53612D2D4C53D1
S315010125080124B0E723F0010389F82830D7E7304BD6
S315010125181B681C68B4FA84F4640922463068A8EB7E
S315010125280A01FFF774F9FFF7A3FC0028CBD1FEF7DF
S31501012538A9FDC8E7FFF79CFCC5E7059B07999847DD
S31501012548049B002BBFDBC9E7201DFEF723FDC9E765
S3150101255894F82830A16943F0010384F82830059BD2
S3150101256820461944FFF78AFE0028ACD0236A204683
S31501012578984794F828305907A5D50023A2690599E2
S3150101258820460A4400971946FFF7F4FE9BE794F89B
S31501012598283023F0010384F8283094E794F8283089
S315010125A843F0010384F8283005990346A1610144E2
S315010125B82046FFF763FE86E794F828309A07E8D4A0
S315010125C82046FEF74BFE7EE7F04A0020E84A002046
S309010125D8EC4A0020A1
S315010125DC0348044B834202D0034B03B1184770479E
S315010125EC846300208463002000000000064B074928
S315010125FCC91A891048BF0131491003D0044B0BB1DB
S3150101260C01481847704700BF84630020846300208A
S3150101261C0000000010B5064C237843B9FFF7D8FF2B
S3150101262C044B13B10448AFF300800123237010BD91
S3150101263C3C56002000000000384D020108B5054B3F
S3150101264C1BB105490548AFF30080BDE80840FFF70A
S3150101265CCDBF00BF00000000003A0020384D020139
S3150101266CA3F5803A704700BF174B002B08BF134BDC
S3150101267C9D46FFF7F5FF00218B460F461348144A79
S3150101268C121AEEF723D90E4B002B00D098470D4B9E
S3150101269C002B00D098470020002104000D000D48A5
S315010126AC002802D00C48AFF3008009F09FF82000F6
S315010126BC290010F00DFC08F077FE00BF00000800A0
S315010126CC0000000000000000383400200036002014
S315010126DC085800200000000000000000012903BF7A
S315010126EC034B00201B78A62008BF1370704700BF4F
S315010126FC5D560020022938B514461D460FD12022FC
S3150101270C00210848EEF7E2D83CB1202D2A46214694
S3150101271C28BF2022034810F0BDFD002038BDA6209C
S3150101272CFCE700BF3D560020104608B56AB163B1FE
S3150101273C02290CD1202B28BF20231A46029B0549BD
S3150101274C1A6010F0A7FD002008BD2F20FCE7A6207A
S3150101275CFAE700BF3D560020012905D102B11278D5
S3150101276C024B00201A707047A62070475D56002057
S3150101277C2DE9F0431D46002389B0074608460E464E
S3150101278C1446CDE9053300F03FFC18B9D82009B040
S3150101279CBDE8F083304605A900F098FC0028F6D176
S315010127AC204600F031FC0028F0D0204606A900F0A5
S315010127BC8DFC0028EBD1DDE90596079007A9184890
S315010127CC00F084FC044600BB079919EB01081ED1E4
S315010127DC0EB110F0C2FB022009F059FDA0B1079B05
S315010127EC022100931F203B46CDE901960D4A09F0C2
S315010127FC41FD6B689E4210D832464146286810F05D
S3150101280C49FD6B689E42E4D86E602046BFE7022003
S3150101281C09F03DFD0028ECD0E1E71924F5E700BFED
S3150101282C2172080010370201014800F049BD00BFB1
S3150101283C00720800002307B50348019301AB00F0B0
S3150101284C69FC03B05DF804FB00720800014800F055
S3150101285C07BD00BF0C72080010B506480C4600F006
S3150101286C0DFC40F20123984202BF4FF6F173002091
S3150101287C238010BD0C720800014800F021BD00BF78
S3150101288C0D720800002307B50348019301AB00F053
S3150101289C41FC03B05DF804FB0D720800014800F020
S315010128ACDFBC00BF0B72080010B506480C4600F0E0
S315010128BCE5FB40F20123984202BF48F201030020D5
S315010128CC238010BD0B720800014800F0F9BC00BF52
S315010128DC0E720800002307B50348019301AB00F002
S315010128EC19FC03B05DF804FB0E720800014800F0F7
S315010128FCE7BC00BF10720800002307B5034801931A
S3150101290C01AB00F007FC03B05DF804FB1072080083
S3150101291C014800F0D5BC00BF11720800002307B5B0
S3150101292C0348019301AB00F0F5FB03B05DF804FB21
S3150101293C11720800014800F0C3BC00BF12720800F5
S3150101294C002307B50348019301AB00F0E3FB03B088
S3150101295C5DF804FB12720800014800F081BC00BF4E
S3150101296C1872080010B505480C4600F087FB40F2B9
S3150101297C0123984204BF0020208010BD1872080063
S3150101298C014800F09DBC00BF0F72080073B500260B
S3150101299C01AB0E480C461546019600F0BBFB40F205
S315010129AC012398420BD164B10C2D0CD920462A4630
S315010129BC074910F005FC30462C4404F8016C02B0B1
S315010129CC70BD0B20FBE71920F9E700BF0F72080058
S315010129DC2E370201014800F073BC00BF04720800D6
S315010129EC014800F097BB00BF04720800014800F0D2
S315010129FC81BC00BF1F720800014800F0E1BB00BF9A
S31501012A0C1F720800014800F02BBC00BF07720800B9
S31501012A1C37B512480D4600F031FB40F201239842BD
S31501012A2C044604D14FF470632B80002014E098B94D
S31501012A3C2B88B3F5805FF8D3012009F028FC50B13E
S31501012A4C4FF4BF732F220121CDE900322046044BED
S31501012A5C044A09F00FFC2F2003B030BD07720800A0
S31501012A6C3B3702015B370201014800F011BC00BF83
S31501012A7C0872080010B506480C4600F027FB40F217
S31501012A8C0123984202BF4FF47A730020236010BDD3
S31501012A9C08720800014800F013BC00BF0972080056
S31501012AAC014800F037BB00BF09720800014800F06C
S31501012ABC07BC00BF0A720800014800F02BBB00BF1E
S31501012ACC0A7208000B46024A02490348FFF750BE37
S31501012ADC27720800267208006C3702010B46024A5E
S31501012AEC02490348FFF744BE257208002472080007
S31501012AFC883702010B46024A02490348FFF738BEE1
S31501012B0C2372080022720800AE370201022307B5AF
S31501012B1CD1E9001201A8019307F0B0FB18B901998B
S31501012B2C024800F0B5FB03B05DF804FB2072080006
S31501012B3C1FB5022003900698009003A807F0B6FB77
S31501012B4C18B90399024800F0A3FB05B05DF804FB23
S31501012B5C20720800002370B5154886B00D4616463D
S31501012B6C049300F051FA08B3114804A900F0AEFA26
S31501012B7CD0B9049B3246002B08BF0223294605A86E
S31501012B8C059307F0FDFB0446022009F080FB50B1C9
S31501012B9C02947368022101936B681F200093054A05
S31501012BAC049B09F067FB204606B070BDD824EBE700
S31501012BBC20720800C7370201014800F069BB00BF4A
S31501012BCC21720800014800F081BA00BF2172080088
S31501012BDC014800F075BB00BF29720800014800F0DD
S31501012BEC99BA00BF29720800014800F083BB00BFE6
S31501012BFC05720800014800F0E3BA00BF057208002E
S31501012C0C014800F015BB00BF28720800014800F00D
S31501012C1C0DBA00BF28720800032307B5D1E90012CA
S31501012C2C01A8019300F010F918B90199024800F0B5
S31501012C3C2FFB03B05DF804FB3072080000200A4B30
S31501012C4C10B5186032B9094C2146BDE81040084847
S31501012C5C00F01EBBA1F580518C18064800F04AF90B
S31501012C6C204608F07BFBEFE7183A002000003901FA
S31501012C7C217208002C3A00202DE9F74F1C4600233E
S31501012C8C80460F46254801A91646019300F01EFA06
S31501012C9C38BB234D01992B681BB9224800F034F935
S31501012CACF8B9D4E9009313F00301DDF804B0D5F8B2
S31501012CBC00A0D8F828200DD003F10408A8EB0108CF
S31501012CCC424511D3A8EB030209EB0300FF21EDF7F2
S31501012CDCFDDD43464A4613480BEB0A0100F030F978
S31501012CEC20B103B0BDE8F08F1920FAE738462968FF
S31501012CFC00F0CEFA0028F4D13046616800F0C8FA2A
S31501012D0C0028EED12B6862680020134413F03F02B0
S31501012D1C1CBF40339B1A2B60E3E700BF21720800ED
S31501012D2C183A00202C3A002008B5034A0B460349F0
S31501012D3CFFF7A2FF08BD00BF277208002672080023
S31501012D4C08B5034A0B460349FFF796FF08BD00BFB9
S31501012D5C257208002472080008B5034A0B4603497B
S31501012D6CFFF78AFF08BD00BF237208002272080013
S31501012D7C1FB513460022039203AA01922022009247
S31501012D8C0A46014604480DF0D2FD002814BFAC20B9
S31501012D9C002005B05DF804FB09000002014B09F0A6
S31501012DACBAB900BF47C0010130B4084BD3E8EF2FC4
S31501012DBC541CC3E8E54F002DF8D1002A02DC30BCC6
S31501012DCC00F026B8002030BC704700BF1C3A002029
S31501012DDC2A2828BF002010B4074C04EB8000074CAD
S31501012DECD4E8AF4F1CB1A4465DF8044B60475DF8BE
S31501012DFC044B09F055BA00BF12380201203A0020E2
S31501012E0C024BD3E88F0FC0B2704700BFA059002007
S31501012E1C08B50A4BD3E8EF2F511CC3E8E01F002874
S31501012E2CF8D1002A07DD064B06481B68D96808F05C
S31501012E3CB5FB10F092F8002008BD00BF243A002022
S31501012E4C50590020BA38020170B5044688B00068A1
S31501012E5C0D46164609F025FA23684FF400710793BE
S31501012E6C01230B4A02A8CDE902230A4B3246CDE9CD
S31501012E7C041300232946069301AB0DF0E5FC01462B
S31501012E8C18B1054808F064FCAC2008B070BD00BF50
S31501012E9C002480000010C004ED380201014B1960B9
S31501012EAC704700BF283A0020014B1960704700BFDB
S31501012EBC283A0020054BD3F8942003F58053426040
S31501012ECC4FF4003200201A67704700BF008000A33F
S31501012EDC014B0360704700BF5839020110B5044616
S31501012EEC034B082103600BF054FA204610BD00BFB9
S31501012EFC5839020108B502F043F910B901480AF033
S31501012F0CCAF808BD343A0020002313B50C460B4808
S31501012F1C694601AA009302F09DFA58B9009B24F067
S31501012F2C7F4223F07F439A4206D901222146034867
S31501012F3C02F0EAFA02B010BD2E20FBE7343A00206A
S31501012F4C73B51E4600230C46154669460B4801AA64
S31501012F5C009302F07FFA60B9009B24F07F4223F0C3
S31501012F6C7F439A4207D933462A462146034802F042
S31501012F7CE5FA02B070BD2E20FBE700BF343A002002
S31501012F8C0448054B054A03600023054943600FF0CC
S31501012F9CDDBF00BF2C3A0020583902010858002028
S31501012FACDD2E010137B50E4D2C686CB90323224672
S31501012FBC2146009301200B4BEEF7D4DB2346224627
S31501012FCC21462860EEF70DD9286808B90FF0C5FF1F
S31501012FDC4FF0FF3103B0BDE83040EEF74E9A00BF1A
S31501012FECA83A0020583A0020064B10B5186808B9C2
S31501012FFC0FF0B3FF0023BDE810401A461946EEF750
S3150101300CF09800BFA83A002007B5014606486A4662
S3150101301C01AB006801F042FD09F074F9B0FA80F0D8
S3150101302C400903B05DF804FB205900207FB500234C
S3150101303C04460D468DF8073009F070F9C0B10E4EF4
S3150101304C2146306803AB02AA01F028FD09F05AF9B1
S3150101305C60B92146039B30680DF1070201F098FC1A
S3150101306C09F050F910B99DF807302B7004B070BDF9
S3150101307C40F20120FAE700BF205900207FB5002359
S3150101308C04460D46ADF8063009F048F9C0B10E4EAD
S3150101309C2146306803AB02AA01F000FD09F032F9B1
S315010130AC60B92146039B30680DF1060201F070FCF3
S315010130BC09F028F910B9BDF806302B8004B070BDA2
S315010130CC40F20120FAE700BF205900207FB5002309
S315010130DC04460D46039309F021F9B0B10C4E214674
S315010130EC306802AB01AA01F0D9FC09F00BF950B910
S315010130FC2146029B306803AA01F04AFC09F002F948
S3150101310C08B9039B2B6004B070BD40F20120FAE7AC
S3150101311C205900202DE9F0431D46002385B02B6073
S3150101312C07460E46914609F0F9F800283ED0DFF81C
S3150101313C8C803946D8F8000003AB02AA01F0AEFC2B
S3150101314C09F0E0F80446B8B9039B93B3C6B14B45F4
S3150101315C31D232463946D8F8000001F019FC09F092
S3150101316CD1F8D8B9039B012B03D13378003B18BF96
S3150101317C012300222B60F254204605B0BDE8F083F1
S3150101318C012B01D02B60F7E73946D8F800000DF178
S3150101319C070201F0FDFB09F0B5F808B10446EBE7AE
S315010131AC9DF8073003B103982860E5E740F2012445
S315010131BCE2E71E24E0E71924DEE700BF20590020CF
S315010131CC2DE9F7431D4600232B6006460F46904613
S315010131DC09F0A4F800B3DFF854906A463146D9F8E0
S315010131EC000001AB01F05AFC09F08CF8044678B9E0
S315010131FC019BA3B167B1434513D83A463146D9F878
S3150101320C000001F0C5FB09F07DF860B9019B2B604B
S3150101321C204603B0BDE8F08340F20124F8E71E24F1
S3150101322CF6E71924F4E70446F2E700BF205900201A
S3150101323C13B504468DF8071009F070F858B1074813
S3150101324C0123214600680DF1070201F05DFB09F02E
S3150101325C59F802B010BD2F20FBE700BF2059002001
S3150101326C13B50446ADF8061009F058F858B10748DC
S3150101327C0223214600680DF1060201F045FB09F016
S3150101328C41F802B010BD40F20120FAE720590020A5
S3150101329C13B50446019109F041F858B104230748C5
S315010132AC214600680DEB030201F02EFB09F02AF809
S315010132BC02B010BD40F20120FAE700BF20590020EF
S315010132CC10B5044609F02AF868B179B10848012A02
S315010132DC1346006838BF01230A46214601F014FB47
S315010132EC09F010F810BD40F20120FBE72F20F9E798
S315010132FC2059002010B5044609F010F858B101B94E
S3150101330C62B90748134600680A46214601F0FCFAE0
S3150101331C08F0F8FF10BD40F20120FBE72F20F9E779
S3150101332C2059002008B503480AF066FFBDE808409C
S3150101333C0FF0D7BD2C3B020101480AF05DBF00BF5E
S3150101334C2C3B02010348044A0449121A921009F052
S3150101335C1AB800BFA8010101DC25010100000020FA
S3150101336C4FF000602DE988484049414B414AD3F859
S3150101337C943088660221012B3F4B4FF00000996076
S3150101338C4FF0005143D80025002600275FF00008B5
S3150101339C5FF000095FF0000A5FF0000B5FF0000CB3
S315010133AC501A4FF48073B0FBF3F404FB03F40C4491
S315010133BCA14210D2A1E8E01FA1E8E01FA1E8E01F9C
S315010133CCA1E8E01FA1E8E01FA1E8E01FA1E8E01FC9
S315010133DCA1E8E01FECE7914202D241F8045BFAE75E
S315010133EC0122254B9A604FF00062A3F540539A6670
S315010133FC00F04CF8FFF7A6FF204B21498B4228D34D
S3150101340C0020204B20498B422ED3FFF72DF9501A60
S3150101341C4FF02003B0FBF3F404FB03F40C44A1427B
S3150101342C04D291E8E01FA1E8E01FF8E7914203D22B
S3150101343C0D6841F8045BF9E7D2E7186850F82240A8
S3150101344C586840F82240013298688242F5D30C3310
S3150101345CD4E70022F8E71C6844F8220001325C68C3
S3150101346CA242F8D30833CEE70022F8E70050804098
S3150101347C008000A30000082000908040404D02010D
S3150101348C4C4D02014C4D02014C4D0201044B054AB6
S3150101349C9A60D3F8882042F47002C3F888207047E9
S315010134AC00ED00E000000101002307B52948019355
S315010134BC0AF0A2FE4FF44073012204216846ADF8CD
S315010134CC003000F0A1F80122234B0520C3F8442456
S315010134DC01A9ECF7E3DD002839D1204BD3F8F02013
S315010134EC42F00102C3F8F020D3F8FC2042F08072BD
S315010134FCC3F8FC201A4AA3F55D431A60019B194ACC
S3150101350C03F5D52303F2FC43B3FBF2F3164A013B54
S3150101351C13610223C2F8F0304FF48073C2F80433FD
S3150101352C4FF06043114AC3F8B02F114AC3F8802EEC
S3150101353CD3F8002E42F48072C3F8002EFF2283F8D1
S3150101354C2020D3F8002E22F48072C3F8002E03B08A
S3150101355C5DF804FB2C3B020100D0834000ED00E039
S3150101356CFF030040F8590D00000004E055CEACC52F
S3150101357C090001002DE9F04104460C254FF0010823
S3150101358C124E0CB314F001000BD0002024F00104EF
S3150101359C05FB00625768002FF3D09168C0B2B8479A
S315010135ACEFE72246013020284FEA520201D0D30718
S315010135BCF8D508FA00F20F2824EA0204E8D91038E2
S315010135CC05FB0062B432E5E7BDE8F081AC3A0020B7
S315010135DC08B50C480AF010FE2A2003F0CBFA28B1E3
S315010135EC2A2003F0D5FA2A200AF00DFE2B2003F02E
S315010135FCC1FA28B12B2003F0CBFA2B200AF003FEDA
S3150101360C002008BD2C3B02012DE9F0410E469046E6
S3150101361C054620B30F2924D803783BB1012B03D0DE
S3150101362C022B1AD0032B1CD1072300E01F236A7826
S3150101363CD340DB0715D50D4BD3F810439CB9ECF7E9
S3150101364C53DF074642462846314601F035FD3846D9
S3150101365CECF745DF2046BDE8F0813F23E7E722245D
S3150101366CF8E72124F6E70224F4E700BF00C0834002
S3150101367C08B501F017FD054B00F0553020F050202F
S3150101368CC3F82004BDE80840FFF774BF00E083408E
S3150101369C08B501F007FD054B00F0AA3020F0A0207A
S315010136ACC3F82004BDE80840FFF764BF00E083407E
S315010136BC2DE9F04F144606460D469B46036C87B021
S315010136CC01225B6902A960689847336C01225B6927
S315010136DC03A92846984702A809F09BFB074648B15E
S315010136EC0023A37563754FF0FF33A360002007B068
S315010136FCBDE8F08F03A809F099FB0123A375237E7D
S3150101370C04EBC303DD611F846368AB420ED12060F8
S3150101371C03A809F0ADFB4FF0FF332075A360237DA0
S3150101372C043B022B26D80023A375DFE723681A1A5B
S3150101373C53425341A37503A809F09AFB237D834296
S3150101374C18BFA77503A809F075FB074602A809F06E
S3150101375C71FB874218BF002303A818BFA37509F093
S3150101376C71FB074602A809F06DFB87421CBF0023BA
S3150101377CA375D4E703A809F05DFB80B1336C022272
S3150101378C28465B6904A9984704A809F062FB03461C
S3150101379C207D032839D8DFE800F03838040903A85D
S315010137ACF3E7CC22237E04EBC3031A8401F0F0FB6D
S315010137BC109B187003A8277E09F030FB04EBC70791
S315010137CC87F82200237E03A804EBC303B3F82090E8
S315010137DC93F8227009F02EFB804603A809F032FBFF
S315010137EC8246B8F1000F15D0336C022228465B696B
S315010137FC04A9984704A809F0F1FA6075637D6BB9C0
S3150101380C0023A3754FF0000838E0227E04EBC202B7
S3150101381C1384CBE703A809F0CCFAEEE794F81680EA
S3150101382CB8F1000FEED0B9F1000F09D1DFB10123C7
S3150101383C627EE375002A44D19F4218D1677614E062
S3150101384CF36C05EB0A02594285EA020008421CBFD8
S3150101385C0021A175591E0A409B1A9945D0D8A37D01
S3150101386C002BE3D1CEE7E37D43B94FF000084B467C
S3150101387C52462946304608F0E2FEA060A27D12B1FD
S3150101388C23694B4423611449237E097899421ED934
S3150101389C01332376BBF1000F1BD0D2B1E37DC3B14A
S315010138ACB8F1000F15D1032F13D0A1684B1C10D001
S315010138BC109B2246009330460123FFF7F9FEA075B2
S315010138CC07E0012FDAD0032F08BFA376CDE700233A
S315010138DCA375A07D0BE700BF0C3A02012DE9F04F50
S315010138EC0E46984600238BB004464FF0FF31104625
S315010138FC17468DF8133001F035FBB6F5801F3BD316
S3150101390CB21C53D1256B6B1C57D12046A16A08F009
S3150101391CDCFD0546B31C18BF0123DFF82491019385
S3150101392CA36AE26C0293236805A902FB053A236C8F
S3150101393C05225B695046984705A809F005FB09F074
S3150101394C28FB504609F030FB4FF0000B824601462D
S3150101395C4B1C05D0E36C81EA0A025B42134232D05D
S3150101396C2946204608F0B1FD029BAB424DD0BBF175
S3150101397C000F4DD10546D3E7314605AA04F10800DE
S3150101398C09F071F90146481C10D0384601F0EAFAE2
S3150101399C0122394620460DF1130308F099FE28B18F
S315010139AC9DF8133088F80030002003E0237C002BAE
S315010139BCA8D12D200BB0BDE8F08F2368ED1AE36C6D
S315010139CCB5FBF3F5A6E7484601F0CCFA0DF1130365
S315010139DC49462046019A08F07BFE034690B1B21C7A
S315010139EC03D0D9F80020B2420CD19DF813200393D0
S315010139FC124B88F8002049461A6838460FF04AFCE2
S31501013A0C039B9B46D9F80810A2E7BBF1000FD0D056
S31501013A1CB6F5801FC8D208343146204698F80030D5
S31501013A2C7A6809F028F80028BED13146204698F863
S31501013A3C00307A6809F08AF8BCE700BF083A02013E
S31501013A4C603C00202DE9F3410446174698460E4683
S31501013A5C194DC16A236B8B422AD04B1C18E028469F
S31501013A6C01F080FA0122294620460DF1070308F0DF
S31501013A7C2FFE30B14346294620469DF80720B8470B
S31501013A8CB0B1A9684A1C05D0012E0AD0236B994203
S31501013A9CE5D10DE06968204608F0A4FD012E014629
S31501013AACD8D16B6881EA0302E36C5B421A42D1D02D
S31501013ABC02B0BDE8F08100BF343C00202DE9F04194
S31501013ACC436B9046C26B07689A4288BFC363C26C4B
S31501013ADC836A90B002FB0377036C0E46052201A99A
S31501013AEC5B6904463846984701A809F02DFA012865
S31501013AFC0146307057D0E56C226C2368A06AD2F866
S31501013B0C14C005FB0030052206A9E04706A809F0F9
S31501013B1C1BFA01284FF0000523D0D4E90B32012100
S31501013B2C9342CDE90B458DF834800E958DF83C10F9
S31501013B3C2AD11946204608F055FD636BE26C143304
S31501013B4C9B1A206363630C9B53B99DF83C303BB1C3
S31501013B5CA26AE16C2368206C01FB023109F0ACF914
S31501013B6C0C9D236C05225B6901A93846984701A86E
S31501013B7C09F0EAF930702846636BE26B9A4288BF09
S31501013B8CE36310B0BDE8F081237C33B91C490BAA60
S31501013B9C04F1080001F07AF9D5E72046194A0BAB75
S31501013BACFFF750FFCFE7237C23BB2246164904F1CD
S31501013BBC080001F06BF9A16A204608F0A7FCA16A7D
S31501013BCC421C204608F070FC054620B9636BE26C79
S31501013BDC1344143B63632046E16A08F003FD236831
S31501013BECE062C01AE36CB0FBF3F0A062204608F068
S31501013BFC3CFDB6E700232046044AFFF723FFDAE72B
S31501013C0CF54301017143010177C7010113C7010194
S31501013C1C73B50D46D11E4A421C461B7E4A419A4238
S31501013C2C26D129682368994222D3636899421FD800
S31501013C3C114E0DF107033246FFF750FEC0B97268FA
S31501013C4C6B689A4214D19DF80730DA1E53425341DF
S31501013C5C227E93420CD1636901336361D4E9032357
S31501013C6C934205D22968A26842F8231001332361D4
S31501013C7C012002B070BD00BF8C3C00202DE9F04F34
S31501013C8C9A468BB09DF85030DFF850B10293DBF8B0
S31501013C9C1030804653450D461646C0F09980D146E3
S31501013CACDBF804300193B9F1000F00F08D80D8F8DF
S31501013CBC403001225B6907A90198984707A809F0C9
S31501013CCCB5F8DBF80030984240F0858007A809F079
S31501013CDCB9F80428074614D107A809F0BAF8019BCB
S31501013CEC029A04463B44002A3FD1864212D9144614
S31501013CFC361A4046019908F075FCA9EB04090190A5
S31501013D0CD1E7D8F8403002225B69019808A9984796
S31501013D1C08A8E2E7841B544528BF5446032C03EB40
S31501013D2C0607AAEB040A4FEA94021CD9D8F84030CB
S31501013D3C294638465B69984724F0030304F00306C8
S31501013D4C1F441D44002ED4D0D8F8403001225B69A2
S31501013D5C08A9384698473246284608A935440FF032
S31501013D6C99FA0026C5E72646ECE7074600F0030259
S31501013D7C039203442A1804920593049BDD1B059BAC
S31501013D8CD81B039B9F420FD1002FB2D0D8F84030DC
S31501013D9C012208A95B6998473A46284608A90FF0FA
S31501013DAC22FA78B93D44A4E7D8F84030012208A992
S31501013DBC5B6998470422284608A90FF014FA08B939
S31501013DCC043FDAE74FF0360948460BB0BDE8F08FF0
S31501013DDC4FF06309F8E74FF06F09F5E7B83C00209E
S31501013DEC2DE9F0410F4616469846044688B060B354
S31501013DFC90F83850FDB1012108F02CFB00210E9BE6
S31501013E0CCDE90511CDE902379DF83C30CDF8048099
S31501013E1C8DF81C30237C04968BB90D4901AA04F14A
S31501013E2C080001F033F8DDE90553206C002E08BFBB
S31501013E3C1D4608F0A8FC284608B0BDE8F0812046CD
S31501013E4C044A01ABFFF7FEFDEDE70546F3E700BFBB
S31501013E5C41C701011D3C01012DE9F04F99B00F46F6
S31501013E6C09920A69C16C0C931439D31DB3FBF1F395
S31501013E7C013302EBC302436B04469342C0F0198230
S31501013E8C0023DFF838940E93236B484619460793A2
S31501013E9C01F068F8D7E9033604930C9B022B4ED13A
S31501013EACCC2E40F09681099B002B42D039462046F7
S31501013EBC08F0C7FCE56C079A6B1E13401490ED1ABA
S31501013ECC236C01225B6916A97868984716A808F034
S31501013EDCB1FF00280CBF04230823782E06933DD984
S31501013EEC012300254FF0080A05933B6805990C98A7
S31501013EFCC9F80030C9F8106008F0BEFF4FEA9A0301
S31501013F0C10930023DDF81CB089F814000B930F9361
S31501013F1C08930D93E16C4A1E0BEA02028B1A002ED1
S31501013F2C38D05544AB4240D8636B5B1A1344636377
S31501013F3CABE0049B1B68149308230693D0E7E56C4D
S31501013F4C079A6B1E1340782EA5EB030516D8FB7D3C
S31501013F5C7BB9099B002BB3D104230693331DAB42C9
S31501013F6C10D9A6B1082DBBD804250023AA46059361
S31501013F7CBBE7099B002BA3D10823EEE7099B002B79
S31501013F8C9ED1D9E7002505954FF0040AADE7042525
S31501013F9C0596F9E75345C7D3B0460BEB0A030393D1
S31501013FAC089B002B18BF032313E0A3EB0A039E42C4
S31501013FBCB0460BEB0A0228BF98469E420392EFD9F3
S31501013FCC0123D9F8102089F8173096427CD1C9F80A
S31501013FDC04B0089399F81730002B77D099F818206B
S31501013FEC0899D31C09EBC3030132C3F804B0A3F836
S31501013FFC0880997289F81820B8F1000F14D00C9B1E
S3150101400C022B66D10B9B7BB90F9B4344032B0BD91B
S3150101401C236C01229B69039814A99847054600282C
S3150101402C40F0498101230B93089B16A80193059B2B
S3150101403C009399F814204346396800F049FF236C23
S3150101404C58469B69109A16A99847051E0E9B18BFCF
S3150101405C5B4652460E9359464346204608F0EFFA03
S3150101406C636B08F10302A3EB0A0322F003029B1A09
S3150101407CC9F808006363002D40F01D810F9BDDF823
S3150101408C0CB04344A6EB08060F935946204608F09B
S3150101409CA9FA00258346002E7FF43CAF874D0834DF
S315010140ACAB686A68A362396820460C9B08F0E3FC8D
S315010140BC002840F0E98020460C9B6A68396819B0E2
S315010140CCBDE8F04F08F042BD022382E7C9F804B0FE
S315010140DC92E7099B002B31D1049BB8F1030F4344A1
S315010140EC0A9328D9DDE90301236C4FEA98029B69EE
S315010140FC98470546002866D118F0030260D0049B47
S3150101410C28F003052B440493039B1D444FF0FF3305
S3150101411C049915A815930FF0BDF8236C28469B69D4
S3150101412C012215A9984705460A9B0493002D3FF4D4
S3150101413C7BAF039B8DE74246039DE7E7039B0A93FE
S3150101414C07F120031193FB7D78689BB100233D7E1A
S3150101415C0D9AD9B28D4211D9119903F1010C31F88C
S3150101416C3310914226D9069907EBC303D8690A4440
S3150101417C104403E00D9B069A13441844236C012247
S3150101418C5B6915A99847159B012213930D9B0A98F7
S3150101419C04330D93236C13A99B699847039B0A9AC4
S315010141AC43449B1A042B054607D978B913460433A4
S315010141BC0A93C8E76346521ACBE70A9B0393B5E701
S315010141CC0A9B049330E70A9B0493B2E70A9B039378
S315010141DCAFE7702604F1080303932368079AE06C91
S315010141ECA2EB030ABAFBF0FA00FB0A3008F0DCFE7B
S315010141FC216B8046204608F0F5F9E26A82424AD0E3
S3150101420CE26CD9F80830511E0B40616B2568891A8D
S3150101421C0B4463630E9B20635D1BB5FBF2F5AA454B
S3150101422C36D1079BB3EB080A12D0236C4FEA9A02DB
S3150101423C41469B6998478346236B079A53442363EB
S3150101424C636B03989B1A4344636308F0FDFBDA46DF
S3150101425C2368E16C206C01FB053108F01AFE20463E
S3150101426C08F003F9204608F000FA6063BAF1000F71
S3150101427C11D03A69E16CD31D1439B3FBF1F3013356
S3150101428C02EBC3029042A8D2304619B0BDE8F08FB9
S3150101429C4FF0000ADCE73A69E16CD31D1439B3FB23
S315010142ACF1F3013302EBC302636B9342BFF4ECAD41
S315010142BCEAE71C26E8E72E468CE700BF603C0020A6
S315010142CC2DE9F3471E4683690446B34288461746D0
S315010142DC9DF828903DD300258DF80750204608F00E
S315010142EC8BF8D4F834A082450AD2636AB5EB430F35
S315010142FC06D2002220460DF10701FFF7DFFB30B391
S3150101430C9DF80730012B05D1002220460DF107013D
S3150101431CFFF7D4FBB9F1030F06D03146204608F05D
S3150101432C56F8656B854218D30D4D4FF0FF31284672
S3150101433C00F018FE4B46002229462046C5E90376B4
S3150101434CC5F8008002B0BDE8F047FFF785BD013520
S3150101435CC4E7622002B0BDE8F0871C20FAE700BF72
S3150101436C8C3C0020032A2DE9F34106460D461746DE
S3150101437C1C4606D1237A012B23D0012002B0BDE8BC
S3150101438CF081DFF86080096842460DF10703FFF7FA
S3150101439CA5FA60600028EDD19DF80720237A032A3E
S315010143ACE8D0D8F804106A689142E3D1012B296946
S315010143BCD4F80CC007D1B2690CEB0103934202D9B3
S315010143CC2074207CDAE708316144E1603B46012225
S315010143DC29463046FFF740FD60600028CAD000200F
S315010143ECCCE700BF8C3C00202DE9F341089C032A44
S315010143FC1746266806D1237A012B24D0012002B057
S3150101440CBDE8F081DFF89080304642460DF1070395
S3150101441CFFF764FA60600028EDD12568D8F804002D
S3150101442CE96AD5F84CC04840CCF100031840227A10
S3150101443CE1D1012A09D1E268D8F810301344B269E5
S3150101444C934202D92074207CD9E728682B6B1B1A5D
S3150101445C081AB3FBFCF3B0FBFCF083420BD1F06CF5
S3150101446C336B421E1340726B121A13442846736343
S3150101447C08F0B8F82863D8F81020E3680832134419
S3150101448CE36001223B4604492068FFF7E5FC6060C5
S3150101449C0028B0D00020B2E78C3C00202DE9F04F6A
S315010144AC4FF0FF334FF6FF720025044600F1080663
S315010144BCC0E90A238DB003634562456330460F4655
S315010144CC08F0C2FA204607F0D0FF20BB2046394638
S315010144DC08F04BF8204607F0C8FF20BB5E200DB053
S315010144ECBDE8F08F226C2368E06CD2F814C000FB96
S315010144FC0530052207A9E04707A808F025FD012883
S3150101450C28D12946204608F001F8421C29462046A5
S3150101451C07F0CAFF0135236A9D42E3D3204607F012
S3150101452CA4FF0028D2D000254FF0FF394FF6FF73B7
S3150101453CCA46A846C4E90953236A984514D3A5EB7F
S3150101454C0905012D36D84FF6FF72A36A934246D15E
S3150101455C6720C4E708F022FD0028DBD02946204656
S3150101456C07F0D4FF0246D1E72368226CE06C576948
S3150101457C00FB0830052207A9B84707A808F0E4FC97
S3150101458C834607A808F0B7FC0746584608F001FD13
S3150101459C68B1574538BFC4F82880B94528BFB94613
S315010145ACBD4238BF3D46BA46636A0133636208F1BF
S315010145BC0108C1E74FF6FF730025A362236A9D42E9
S315010145CCC1D2E76C2068236C052207FB05005B69E8
S315010145DC07A9984707A808F08EFC0135EEE7226C6E
S315010145ECE76C206802A907FB030055690522A84758
S315010145FC02A808F080FCA26A2368E06C5B4D00FB03
S3150101460C023008F0D1FC4FF0FF33E06223632A46F6
S3150101461C6FF0010120460DF10703FFF75FF9002841
S3150101462C5CD1AF6800252763236C01225B6907A95D
S3150101463C78199847079B013352D1E36C0435EA1972
S3150101464C7A405B421A42EFD0656325B92046216B4C
S3150101465C07F0C8FF20633946204607F0C3FF05461C
S3150101466CE36A9D423ED1A569E26CE91C143AB1FBA0
S3150101467CF2F14FF0000805EBC1050335B5FBF2F577
S3150101468CC1460235236A99453ED3A8455CD22046DB
S3150101469CA16A07F01AFF0027064604F1480AB84534
S315010146AC12D8E26C236802A902FB0639236C052296
S315010146BC5B694846984702A808F01DFC5346024619
S315010146CC4946206C08F072FC3146204607F0FDFE86
S315010146DC0137AF420646E2D3642000E7E76AA1E758
S315010146EC0025B1E72946204607F096FE636B29465C
S315010146FC034407466363204607F074FF0546002F02
S3150101470CAED1C4E90C07ABE7E36C2768052203FBC1
S3150101471C0977236C07A95B693846984707A808F0FE
S3150101472C13FC08F036FC60B1384608F03DFC014635
S3150101473C204607F071FEE36C143B984208BF08F161
S3150101474C010809F101099DE7304608F07DF90023BD
S3150101475C20461946064AFFF775F96369012B03D9F8
S3150101476C304600F00BFABAE60020B8E68C3C002084
S3150101477C01C701010023624A2DE9F04117680E4672
S3150101478C0446136018B921252846BDE8F08190F835
S3150101479C38500DB309680268914240F0A9807168DD
S315010147AC4268914240F0A480B1688268914240F01E
S315010147BC9F80F168C268914240F09A8031698269A1
S315010147CC914240F09580B169026C914240F0908022
S315010147DC72691D46C261D7E758222946D0F83C8039
S315010147ECECF774D8D6E90212336804F10800236098
S315010147FC7368C4F83C8063603369A3617369E361CF
S3150101480C08F035F9B36904F1480023649B689847AC
S3150101481C94F84B2020B12562002AB4D05B25B3E76D
S3150101482CE56C002DF7D06668B6FBF5F32362002A19
S3150101483CA9D0B542F2D82268B2FBF5F105FB1122DA
S3150101484C002A57D105FB1363002B53D1204607F0E0
S3150101485CD3FDE369043303449E424DD340F63472CE
S3150101486CA369CC3B934249D8B5F5007FD6D3032135
S3150101487C204607F0EFFDD4E90001236C1B6898472C
S3150101488C0546236C0220DB6898471DB1002384F889
S3150101489C38301DE039462046FFF700FE64280546EF
S315010148AC04D139462046FFF7F9FD0546E36C143B65
S315010148BC002DEBD1626A204602FB03F607F09CFD43
S315010148CCE369043303449E4206D284F838505A25CF
S315010148DC206C07F058FF57E70123D4E90001094A77
S315010148EC84F8383013680133136008F061FAEFE785
S315010148FC5D2549E7592547E75A2545E75F2543E7ED
S3150101490C183C0020143C00202DE9FF410F4690462E
S3150101491C1E46054698B390F8383093B3B1F5801F0E
S3150101492C31D21A4C022107F095FD22463946284609
S3150101493C0DF10F03FEF7D2FF024678B10123424670
S3150101494C0093394633462846FFF7BAFC0446286CD0
S3150101495C07F019FF204604B0BDE8F0819DF80F3030
S3150101496C012BEBD12169B142E8D100934146334682
S3150101497C2846FFF783F904460028DFD1E7E721240E
S3150101498CE8E71124E6E72924E4E700BFB83C002057
S3150101499C2DE9FF410C4616461F46054680B390F894
S315010149AC38307BB3B1F5801F2ED2DFF8608001213F
S315010149BC07F050FD2146424628460DF10F03FEF73D
S315010149CC8DFF044670B99DF80F30012B11D1D8F822
S315010149DC1030BB4212D10246009031462846FFF7F0
S315010149EC4DF90446286C07F0CEFE204604B0BDE80D
S315010149FCF081022B14BF2D246024F3E76324F1E724
S31501014A0C2124F2E71124F0E72924EEE7B83C002032
S31501014A1C2DE9F04385B00C4617461E460546DDF8D1
S31501014A2C308098B390F8383093B3B1F5801F31D2F9
S31501014A3CDFF86490012107F00DFD21464A4628460F
S31501014A4C0DF10F03FEF74AFF044688B99DF80F30A5
S31501014A5C012B14D1D9F8102006EB08039A4213D372
S31501014A6C00904346324639462846FFF707F9044674
S31501014A7C286C07F088FE204605B0BDE8F083022BB1
S31501014A8C14BF2D246024F3E76324F1E72124F2E713
S31501014A9C1124F0E72924EEE7B83C00202DE9F34176
S31501014AAC1F4600230C46164605463B6050B390F84B
S31501014ABC38304BB3B1F5801F28D2DFF85480012170
S31501014ACC07F0C8FC2146424628460DF10703FEF7BD
S31501014ADC05FF0446A0B99DF80730032B10D0022B14
S31501014AEC0AD10123336004233B60286C07F04BFE8A
S31501014AFC204602B0BDE8F081D8F810303060F3E7FA
S31501014B0C2D24F2E72124F3E71124F1E72924EFE718
S31501014B1CB83C002030B50C46054685B028B390F853
S31501014B2C383023B3B1F5801F23D2022107F092FC51
S31501014B3C0DF10F03214628460F4AFEF7CFFE034618
S31501014B4C88B99DF80F20032A0DD003222146009224
S31501014B5C02462846FFF7B4FB0446286C07F013FE00
S31501014B6C204605B030BD2D24F7E72124F8E71124A1
S31501014B7CF6E72924F4E700BFB83C00202DE9F04FF4
S31501014B8CC56889B0AC000590204609F0AEFBDFF88B
S31501014B9C3CB2DFF82CA2CBF80000204609F0A5FBAC
S31501014BACCAF80000204609F0A0FBDFF81892DFF8DD
S31501014BBC1882C9F80000204609F097FBC8F80000D5
S31501014BCC204609F092FB7C4F3860204609F08DFB9B
S31501014BDC7A4B06461860DBF8003000240293DAF8AA
S31501014BEC0030D8F800E0039301236A1ED9F800C0FE
S31501014BFCD7F800800192019A9A42C0F0C1805A00FD
S31501014C0C00920122013B0693009B0025013B049274
S31501014C1C079367E0069B5C19019B9C4228BF1C46C6
S31501014C2C079B03EB0509019B994528BF9946AC42A4
S31501014C3CC0F0A2804C4580F09F80029B002B00F0B6
S31501014C4C9D80039B002B00F09980BCF1000F00F0B5
S31501014C5C9580BEF1000F00F09180B8F1000F00F0C4
S31501014C6C8D80002E00F08A800021049BEF0004EB5D
S31501014C7C030A059B1B688A4539D10027A9EB040B4D
S31501014C8C03EBC404A2680398C2F3130240F827206C
S31501014C9CE2684EF8272054F8082F46F827200137E9
S31501014CACBB45EFD10022A946144603F1040AA142E0
S31501014CBC2FD8274603EBC90AB9420AF1080A47D884
S31501014CCC0F1BA14238BF00274F4403EBC703934582
S31501014CDC03F1080346D80024009B009A1D44049B4A
S31501014CEC9B1A0493019BAB4294D8009B83E7DA5937
S31501014CFC029803EB070BC2F3130240F82120DBF8F0
S31501014D0C04204CF82120DA59083748F821200131C1
S31501014D1CB1E79345CDD9039850F82270029850F812
S31501014D2C2400B84295BF58F8247056F8227043F8FE
S31501014D3C397043F8397096BF5CF824705EF82270AD
S31501014D4C01344AF8397088BF013209F10109AEE71C
S31501014D5C58F827004AF8080C5CF8270001374AF87D
S31501014D6C040CA9E756F8221043F8081C5EF8221028
S31501014D7C013243F8041CAAE72124ADE71924ABE758
S31501014D8C029809F0C4FA0E4B186809F0C0FA0A4BDD
S31501014D9C186809F0BCFA0B4B186809F0B8FA074BFD
S31501014DAC186809F0B4FA084B186809F0B0FA2046EC
S31501014DBC09B0BDE8F08F00BF203C00201C3C00204F
S31501014DCC2C3C0020283C0020243C0020303C0020B7
S31501014DDC2DE9F041C7689846436827B39F4246D8E7
S31501014DEC05680024AC4655F834600134C6F3130E3C
S31501014DFC013601D0714544D0A7420CF1080CF2D110
S31501014E0C9F4218D255F8374005EBC706013412D12A
S31501014E1CC1F3130141EA085145F8371001377260A4
S31501014E2CC760BDE8F08113B3056855F8374005EB4A
S31501014E3CC7060134ECD0B8F1030F1ED02E464FF044
S31501014E4C000C03E09C4506F1080616D055F83C40CA
S31501014E5C0CF1010CC4F3075EBEF1030FF2D1C1F3E0
S31501014E6C130141EA0851C6E90012BDE8F081B8F116
S31501014E7C030F02D00BB10568E0E701230372BDE80C
S31501014E8CF08141EA0851CCE90012EEE72DE9F04136
S31501014E9C0646406882B0C0B10F469046002433687D
S31501014EAC53F8345003EBC403C5F30752C5F313018D
S31501014EBC013504F1010406D05B683046CDF800805A
S31501014ECCB84710B170688442E9D302B0BDE8F081EC
S31501014EDC73B504462248012A00EAC1119DF81850FE
S31501014EEC23F07C4007D9961E012E28D9073303F0EE
S31501014EFC7F03194308E09DF81C300A43DB0603F0D6
S31501014F0CC053134343F060410023C4E900108DF8EB
S31501014F1C0730B5B1202221460DF1070008F060F8E2
S31501014F2C1A220DF10700211D08F05AF808206368B1
S31501014F3C9DF8072043EA8263636002B070BD114399
S31501014F4CE2E71B220DF10700214608F049F8236817
S31501014F5C9DF80720042043EAC2632360EDE700BFF5
S31501014F6C80FFFF0738B5094B0D461A680021044627
S31501014F7CEBF7ACDC00234FF0FF322383C4E90025A8
S31501014F8C2361A260E382A37638BD00BF083A020110
S31501014F9C0138C0B205289ABF014B185C0120704734
S31501014FAC0D3A02012DE9F0410746154600240E463C
S31501014FBC596888B0490A012922464FEA510104F17F
S31501014FCC0104F8D8DC78997824031B88C90201F409
S31501014FDC006104F480540C43C3F30A0352032344C2
S31501014FEC92B24FF000089C18274B6FEA04440393C5
S31501014FFC25F07843ED4302A90DF107001B2202931B
S3150101500C8DF8078007F0ECFF9DF80720029B02A99A
S3150101501C43EAC2630DF107001B2225F0784504937F
S3150101502C02958DF8078007F0DBFF9DF80720029B9F
S3150101503C6FEA144443EAC26305934FF0FF330794B5
S3150101504C069307A9BB69012206F110009847BB69B2
S3150101505C05A90446012206F108009847BB6940459A
S3150101506C18BF044604A90122301D98470122404567
S3150101507C18BF0446BB69304603A99847404508BF8A
S3150101508C204608B0BDE8F08101009AB201224378AD
S3150101509C01789A4030235943014B5A50704700BF4E
S315010150AC40E08340034BD3F82424D3F82004104069
S315010150BC704700BF00C083402DE9F8431F4B0546DD
S315010150CCD3F810334B1E0E2B0E461746047890F867
S315010150DC018026D951B34FF0000928461FB3EBF7CE
S315010150EC5DD90F21B8F1070F04EB440488BFA8F170
S315010150FC08084FEA0414124895BF4FEA88084FEA8B
S3150101510C880804340C3409FA08F201FA08F120442E
S3150101511C07F084FF86B9284657B1BDE8F843EBF78A
S3150101512C3D998946D9E7FFF7B1FFDAE78946D8E711
S3150101513CBDE8F843FFF7AABFBDE8F88300C0834079
S3150101514C30C083404FF480320A4B5A6603F5DE2395
S3150101515C9B69C3F303320270C3F303424270C3F377
S3150101516C461203F00F03134343804FF6FF738380FB
S3150101517C704700BF00508040004870470010000086
S3150101518C2DE9F041EBF7D2DB0128074620D9EBF7E4
S3150101519C01DC051E03DA01242046BDE8F0811F4B13
S315010151AC1B78002B37D14FF050081D4C04EB08002E
S315010151BCA465C4F85C80EBF73FDC206680B9012459
S315010151CC012FE9D92846EBF707DC0028E4DAE2E7F7
S315010151DC124B1B7803F0FF05002BE4D00024DBE70F
S315010151EC0024104E214606F1100332460120C6E970
S315010151FC0044C6E90238EBF703DD30660028DED040
S3150101520C0321012009F001F8012008F0FCFF01221C
S3150101521C024B1A70D4E70024D4E700BF5E56002076
S3150101522C483D0020E43C002008B5EBF77FDB012863
S3150101523C05D9EBF7AFDB002821DA012008BD174BA5
S3150101524C1B7803F0FF00002BF8D0EBF7B3D800283D
S3150101525CF4D1012001F09CFC012008F0D2FF104B86
S3150101526C186EEBF757DD90B90E4B186EEBF7A4DC04
S3150101527C003818BF01200022084B1A70DEE7074BD4
S3150101528C1B7833B1EBF7A8DB0028DEDAD5E7012071
S3150101529CF1E7EBF7A1DBC00FD0E700BF5E560020AB
S315010152ACE43C0020483D002008B54FF085435B6C7A
S315010152BCD90208D5EBF73ADB0238012803D8074B9B
S315010152CC186EEBF7F5DC4FF085435A6CD202FCD51F
S315010152DC5B6D0120BDE8084001F05ABCE43C00209D
S315010152EC2DE9FF474FF000080E4617460446CDF847
