S01C00006275696C642F64656275672F67656E657261746F722E7333379C
S31501000000003700204D000011F9010011F90100111E
S31501000010F9010011F9010011F9010011F9010011AD
S31501000020F9010011F9010011F9010011F90100119D
S31501000030F9010011F9010011F9010011F90100118D
S3150100004000000011008000010080000066485B4B43
S315010000507844D0F800C04668C3F808C0326882F315
S315010000608888574A574C96605A6A42F400225A6267
S31501000070554ADA60D3F88C2042F4406242F001021C
S31501000080C3F88C2000234FF0FF32214641F823208C
S315010000900133102BFAD14FF450424C4BFF219A6693
S315010000A001224B4B4B4CC3F89011C3F83021C4F8D5
S315010000B070118068B0F5003F7BD007D8B0F5004FCE
S315010000C00DD0B0F5803F09D0002208E0B0F5802FB1
S315010000D071D0B0F5002FF7D1052200E002224FF0D2
S315010000E0FF37C3F86422C3F8707233465C68012196
S315010000F04FF01009384EDFF8F4E0DFF8F4800A001B
S3150100010033461A600A0073461A601A6802EA010247
S31501000110002AFAD14FF41046304D2B4632461A606A
S3150100012006F1A2466FF48018DFF8C8E006F583569B
S3150100013033463A461A60734642461A60A6F54F663A
S3150100014033460A001A60264DF03E29462CF07F43BD
S31501000150B3FBF0F3202B05D9A3F120034FF0FF32B7
S315010001600A6008E04FF001029A406FEA02020A6053
S315010001704FF0FF33FFE701F10401B142EADD19490E
S315010001806408640002220B461A6000200021002246
S3150100019000230025002600275FF000085FF0000914
S315010001A05FF0000A5FF0000B5FF0000CBFF34F8FAA
S315010001B02447032293E7042291E700BF00ED00E004
S315010001C000ED02E080E300E00020FA0500508040E7
S315010001D00090005100A00051185083406860804093
S315010001E074920051D0ED00E0ECFFFFFF18D085407E
S30F010001F014C0854064A00051FEE72B
S315010080000037002039B60001054801010548010184
S31501008010054801010548010105480101054801011D
S31501008020054801010548010105480101F1128000D9
S31501008030054801017CC4010181128000E50A800026
S315010080400548010181D500010548010105480101E5
S3150100805005480101054801010548010105480101DD
S3150100806005480101054801010548010105480101CD
S3150100807005480101054801010548010105480101BD
S3150100808005480101054801010548010105480101AD
S31501008090054801010548010105480101054801019D
S315010080A0054801010548010105480101054801018D
S315010080B0054801010548010105480101054801017D
S315010080C0054801010548010105480101054801016D
S315010080D0054801010548010105480101054801015D
S315010080E0054801010548010169B9000149B90001C5
S315010080F0054801010548010105480101054801013D
S31501008100054801010548010105480101054801012C
S31501008110054801010548010105480101054801011C
S31501008120054801010548010105480101054801010C
S3150100813005480101054801010548010105480101FC
S31501008140054801010548010115ED00010548010138
S3150100815005480101054801010548010105480101DC
S3150100816005480101054801010548010105480101CC
S3150100817005480101054801010548010105480101BC
S3150100818005480101054801010548010105480101AC
S31501008190054801010548010105480101054801019C
S30D010081A0054801010548010132
S315010081A8014B1868704700BF185800200A4B1B6F0F
S315010081B803F00703013B042B04D8DFE803F00B04A3
S315010081C807030900FEE7054B18687047044BFBE7F0
S315010081D8044BF9E7044870470040804018580020CE
S315010081E82058002014580020002D310108B5FFF74A
S315010081F8DDFF054B1B6FC3F303330133B0FBF3F00C
S31501008208024B186008BD00BF00408040105800208E
S3150100821800487047002D3101014B1868704700BFAF
S3150100822820580020002070474FF40022074B5A6659
S31501008238074B9B6813F4E04FC3F3023204D0012ABB
S31501008248044818BF00207047034870470050804013
S3150100825800001040005A6202002D3101014B1868D6
S31501008268704700BF1C5800204FF4004070474FF478
S315010082787A70704709B100F003B8222070470000F0
S31501008288F8B504460D4600F045FA06461C2C00F2E0
S315010082986A81DFE814F01D002600680130003D0000
S315010082A84E003E016500700068018900EF008D00EF
S315010082B8A10068016801A500B9006801BD0068014F
S315010082C8C1005601030168011A01DB0068014E016C
S315010082D8FFF76CFF00242860304600F016FA2046A6
S315010082E8F8BDA34B1C6FFFF781FFC4F303340134B8
S315010082F8B0FBF4F0EEE79E4B1F6F1C6FFFF776FF9E
S31501008308C7F303370137B0FBF7F0C4F38024EEE770
S31501008318974B1F6F1C6FFFF769FFC7F303370137C9
S31501008328B0FBF7F0C4F380240134B0FBF4F0400845
S31501008338D0E78F4BD3F88000D3F88030C0F3011013
S3150100834803F00303022B00F1010400F0D980032B8B
S3150100835800F0D980012B40F08280FFF727FFC7E79D
S31501008368FFF724FF824BD3F89030C3F3044301335C
S31501008378B0FBF3F0AEE77E4BD3F8203103F00703E9
S31501008388013B052B6BD8DFE813F00600E8000C006B
S3150100839809000600E800FFF703FF9BE7FFF744FF24
S315010083A898E7FFF735FF95E7714BD3F82831E5E7ED
S315010083B86F4BD3F8403103F00303022B06D0032B8E
S315010083C807D0012B4BD1FFF74FFF83E7FFF746FF96
S315010083D880E7FFF74CFF7DE7654BD3F86031EAE7A5
S315010083E8634BD3F8003203F00703013B032B36D85E
S315010083F801A252F823F000BF270280002D02800057
S315010084083302800069028000FFF7F0FE800A61E707
S31501008418574BD3F84032CEE7554BD3F8203203F009
S315010084280703013B032B1AD801A252F823F000BF18
S31501008438A1028000FD018000270280002D02800034
S3150100844829460A20FFF71CFF044645E7484BD3F89F
S31501008458703203F00303012B05D0022B06D000234B
S3150100846802242B6038E729460C20EBE700230F246A
S315010084782B6031E73E4BD3F8A83203F00703013BE3
S31501008488032BECD801A252F823F000BFF7018000B4
S31501008498BB03800003028000FD018000344BD3F842
S315010084A8AC3203F00703013B032BD8D801A252F8DB
S315010084B823F000BF25038000FD018000270280000C
S315010084C82D02800029460B20BCE7294BD3F8B002C0
S315010084D8D3F8B03200F03F0003F4E063B3F5407F10
S315010084E800F1010412D008D8B3F5807F0BD0B3F59B
S315010084F8007FB4D1FFF790FEFAE6B3F5806FAED1EF
S31501008508FFF792FEF4E6FFF74BFEF1E6FFF780FE72
S31501008518EEE6174BD3F8803103F00303022B3FF441
S3150100852840AF032B3FF43AAF012B98D129460820D7
S3150100853888E74FF0E0231B6929465B0794D501209C
S3150100854880E70B4BD3F8003103F00303022B3FF40A
S315010085583DAF032B04D0012B81D1FFF75DFEB9E6B0
S31501008568FFF760FEB6E6002321242B60B4E600BFC0
S31501008578004080400122437801789A4030235943CC
S31501008588014B5A50704700BF40D0834008B54FF0A1
S31501008598FF31054800F0EDF828B94FF48062034B26
S315010085A89A66BFF34F8F08BD483D002000508040B2
S315010085B84FF48062024B03489A6600F0F6B800BF92
S315010085C800608040483D002010B5044600283FD091
S315010085D8FFF7DCFF00283AD1204600F06EF894F840
S315010085E820304BB94FF085435A6CD202FCD55C6DED
S315010085F81B6804F4702412E04FF08544A36D43F020
S315010086080203A36500F066FB022810D0A36D23F0D0
S315010086180203A3654FF4A0220E4B1C681A60FFF7EC
S31501008628C7FFA4B12046BDE8104015F016980A4BBD
S315010086384FF0FF31186E00F00FFDA36D23F0020312
S31501008648A3650028E6D02368FFF7B2FF012010BD15
S315010086582120FCE724580020E43C002010B50C46F4
S31501008668D0B1C9B100F04DF80C4B0D495A6E4FF413
S315010086788033D2034B6601F5DE21D1F80C1658BFBB
S31501008688084A216058BF536600F036F8002023686F
S3150100869823F07F43236010BD2120FCE70040804082
S315010086A80050804000608040C369032B9FBF00EBE8
S315010086B883020133D160C3617047C369042B16D89D
S315010086C84FF08542116CC902FCD5002105339B0088
S315010086D8136511600168143B11604168116050F817
S315010086E8081F11604FF085420344984200D1704734
S315010086F850F8041F1160F8E710B962B6BFF36F8F1F
S315010087087047EFF3108072B6704780F31188BFF394
S315010087186F8F7047EFF31180302383F31188704709
S31501008728EFF31083DB0706D4EFF311802F2894BFEC
S3150100873800200120704701207047000070B50546EA
S31501008748A8B1FFF7DEFF0646286E00F0EFFB0446E8
S3150100875840B100F043FB844209BF6C6D0124E44338
S3150100876804F001043046FFF7C7FF204670BD012417
S31501008778FBE738B50D460446A8B100F0ABFA022866
S315010087880FD1FFF7CDFF20B12046BDE83840FFF7EE
S31501008798D5BF2946206E00F06DFB003818BF0120B1
S315010087A838BD0020F9E70120FAE710B50446A0B163
S315010087B800F090FA02280ED1FFF7B2FF20B1204649
S315010087C8BDE81040FFF7BABF206E00F083FB003802
S315010087D818BF012010BD0020F9E70120FAE70000C3
S315010087E8012810B5044621D8A0B9114816F0C2D8F7
S315010087F8104B5B68C3F3080393B10F4BDA6B12F0A6
S31501008808430FFBD19B6A13F0240F05D114200B4BA0
S315010088181C6010BD0A48E9E701220A4B1A60F5E710
S315010088284FF0FF310848FFF7A4FFF0E72120F0E7F2
S315010088380CC6010100ED00E000400041543E002055
S3150100884810C6010148580020583E0020044B5B68B9
S31501008858C3F3080313B90348FFF7A7BF00207047FE
S3150100886800ED00E0583E002010B504460E48FFF71B
S3150100887865FF80B9236813B90C4816F07ED80C4BEE
S315010088885B68C3F3080333B90A4B1B68112B02D182
S31501008898094816F072D864202268084BBDE81040D2
S315010088A800FB0230FFF781BF583E00200CC60101CC
S315010088B800ED00E04858002010C60101BC3E00202A
S315010088C8012310B50F4C22689340034218D00E4B72
S315010088D85B68C3F308034BB10C4AD36B13F0430F20
S315010088E8FBD12068BDE8104000F016B86420084B9B
S315010088F84FF0FF3100FB0230FFF73BFF0028F0D0B5
S31501008908002010BD543E002000ED00E0004000416B
S31501008918BC3E00207047000001289FBF034B044856
S315010089281B6800EBC30088BF00207047543E002037
S31501008938CCC6010143685858704743685A50704776
S3150100894843685A50704770477047084670477047E2
S315010089587047000053B94AB9002908BF00281CBF4F
S315010089684FF0FF314FF0FF3000F082B9ADF1080C3E
S315010089786DE904CE00F006F8DDF804E0DDE902232E
S3150100898804B070472DE9F04F099D0C46002B4DD1D7
S315010089988A420F4684469646B2FA82F360D94BB1AB
S315010089A802FA03FEC3F120029F4000FA03FC20FAF3
S315010089B802F217434FEA1E461FFA8EF44FEA1C428B
S315010089C8B7FBF6F106FB117701FB04F042EA074211
S315010089D8904208D91EEB020201F1FF3702D29042FA
S315010089E800F231813946121A1FFA8CFCB2FBF6F0F5
S315010089F806FB102200FB04F44CEA024C644508D934
S31501008A081EEB0C0C00F1FF3202D2644500F21E8106
S31501008A18104640EA0140ACEB040C002125B12CFAC2
S31501008A2803F30022C5E90032BDE8F08F8B4205D970
S31501008A380DB1C5E9000100210846F5E7B3FA83F14E
S31501008A4800294DD1A342C0F0F380904280F0F08016
S31501008A58064623460846002DE6D0C5E90063E3E746
S31501008A68002B40F0A3808A1A4FEA1E471FFA8EF69A
S31501008A780121B2FBF7F407FB14204FEA1C4242EA34
S31501008A88004206FB04F090420FD91EEB020204F1E4
S31501008A98FF382CBF4FF001094FF00009904203D966
S31501008AA8B9F1000F00F0CC804446121A1FFA8CFC6B
S31501008AB8B2FBF7F007FB102200FB06F64CEA024C64
S31501008AC8664508D91EEB0C0C00F1FF3202D2664549
S31501008AD800F2B3801046ACEB060C40EA04409DE771
S31501008AE8C1F120068B4004FA01FE22FA06F720FAA4
S31501008AF806FCF4408A401F434EEA0C0300FA01FEC5
S31501008B084FEA17484FEA13491FFA87FCB4FBF8F0F6
S31501008B1808FB104449EA044400FB0CF9A1450ED9A7
S31501008B283C1900F1FF3A2CBF4FF0010B4FF0000B37
S31501008B38A14503D9BBF1000F00F08B805046A4EB89
S31501008B4809041FFA83F9B4FBF8F308FB134403FB82
S31501008B580CFC49EA0444A44506D93C1903F1FF383B
S31501008B6801D2A4457BD8434643EA0040A4EB0C0452
S31501008B78A0FB02984445CC46434602D306D1CE45CE
S31501008B8804D20138B9EB020C68EB0703002D6CD04F
S31501008B98BEEB0C0264EB030422FA01F304FA06F6AF
S31501008BA8CC4000211E43C5E900643DE702FA03FEF5
S31501008BB8C3F1200104FA03F200FA03FCCC404FEAA0
S31501008BC81E4720FA01F11FFA8EF6B4FBF7F00A43A5
S31501008BD807FB1044110C41EA044100FB06F48C42E0
S31501008BE80ED91EEB010100F1FF382CBF4FF0010928
S31501008BF84FF000098C4202D9B9F1000F2CD040463A
S31501008C08091B92B2B1FBF7F407FB141142EA0142C0
S31501008C1804FB06F1914207D91EEB020204F1FF3863
S31501008C2801D291421ED84446521A44EA004120E72D
S31501008C38861A64EB030301200DE7F44402384AE778
S31501008C48023C724431E702397244CCE6F4440238F4
S31501008C58DFE602383C4472E702387144D0E7023B4A
S31501008C683C4481E7023C7244DEE72946DCE600BF64
S31501008C78704700BF02440346934200D1704703F888
S31501008C88011BF9E708B54FF0E0231B6901F068FB02
S31501008C98012803D0BDE8084000F04EBB08BD00001E
S31501008CA8EFF3058373B9EFF31082094B12B9EFF3AA
S31501008CB8118212B11A68022A04D0186828B9012249
S31501008CC81A6070476FF0050070474FF0FF30704724
S31501008CD84445002008B501F043FB38B1022804D009
S31501008CE8034B1868431E5842584108BD0320FCE748
S31501008CF84445002010B5EFF30583BBB9EFF31083A4
S31501008D080D4C13B9EFF3118313B12368022B0DD060
S31501008D182368012B0DD16FF00400002115F034DE14
S31501008D280223236001F02AF9002010BD6FF0050027
S31501008D38FBE74FF0FF30F8E74445002008B5EFF3AD
S31501008D48058393B9EFF3108313B9EFF311831BB1BD
S31501008D580A4B1B68022B08D001F002FB40B102281E
S31501008D6808D101F043F9002008BD6FF00500FBE7C3
S31501008D780120F9E74FF0FF30F6E700BF4445002030
S31501008D8810B50446EFF3058303BBEFF3108313B95C
S31501008D98EFF311831BB1104B1B68022B16D001F0A0
S31501008DA8DFFA30F0020314D1012C03D101F01EF9C8
S31501008DB8204610BD6CB901F0C1F90128F8D001F0BF
S31501008DC8CFFA841E18BF4FF0FF34F1E76FF00504A0
S31501008DD8EEE74FF0FF34EBE74445002001F0B4BA63
S31501008DE838B50546EFF3058313B10024204638BD8F
S31501008DF8EFF3108313B9EFF311831BB11C4B1B68F7
S31501008E08022BF2D02DB36B681A07EED4D5E90212FC
S31501008E1803F0010371B14F2AE7D993B1042000F099
S31501008E28F8FE04460028E0D0296800F021FE44F047
S31501008E380104DBE7002AD8D1ABB1042000F0BAFE61
S31501008E48EFE7012000F0E5FE04460028CDD02968A9
S31501008E5806E0012000F0AEFE04460028C5D02946EA
S31501008E6800F006FEC2E7012000F0A4FEECE700BF11
S31501008E7844450020034610B520F001000C4603F0D6
S31501008E880102EFF30581E9B9EFF3108111B9EFF3A7
S31501008E98118119B10E490968022913D0012B14D978
S31501008EA8214662B100F0B8FD012801D1002010BDAC
S31501008EB8002C14BF6FF001006FF00200F7E700F015
S31501008EC818FDF1E76FF00500F1E76FF00300EEE733
S31501008ED844450020024608B520F0010002F00103CE
S31501008EE8EFF30581C9B9EFF3108111B9EFF31181D8
S31501008EF819B10D49096802290FD0012A10D93BB1C8
S31501008F0800F0A1FD01280CBF00206FF0020008BD8A
S31501008F181A46194600F073FBF4E76FF00500F6E709
S31501008F286FF00300F3E700BF444500200346012B19
S31501008F3820F0010010D9EFF305834BB9EFF3108345
S31501008F4813B9EFF311832BB1044B1B68022B01D123
S31501008F5800F05CBD00F04DBD00207047444500207F
S31501008F6810B5034620F00104EFF305829AB9EFF331
S31501008F78108212B9EFF311821AB10A4A1268022A4B
S31501008F8809D0012B0AD9204600F084FD204600F0BD
S31501008F9899FD002010BD6FF00500FBE76FF0030097
S31501008FA8F8E700BF4445002073B50E461546EFF3B2
S31501008FB80583D3BBEFF3108313B9EFF311831BB109
S31501008FC8244B1B68022B30D078B3B0422DD375B928
S31501008FD8012837D10322002100F0CFFD044620B332
S31501008FE8AEB96DBB2946204600F042FD1EE0D5E923
S31501008FF80232C3B14F2A18D901281AD10322009285
S315010090080022114600F0EAFD044670B1C6B10023FC
S3150100901820461A46194600F0F2FA0128E1D0204600
S3150100902800F050FD01E0002AD2D00024204602B00B
S3150100903870BD1A46314600F0FAFD04460028F4D000
S315010090482D68CFE7314600F0C0FD04460028C8D197
S31501009058EBE700BF4445002013B50C4668B3EFF3B0
S3150100906805834BB9EFF3108313B9EFF31183D3B12A
S31501009078134B1B68022B16D1FCB9214601AA019490
S3150100908800F009FC012803D06FF0020002B010BD00
S31501009098019B0BB90020F9E74FF0E0234FF080520E
S315010090A8C3F8042DF6E7214600F023FC0128F1D088
S315010090B8002CE9D06FF00100E8E76FF00300E5E75F
S315010090C84445002007B550B3EFF305834BB9EFF3D9
S315010090D8108313B9EFF31183CBB1124B1B68022B23
S315010090E815D1002301A9019300F0ADFB012804D095
S315010090F86FF0020003B05DF804FB019B2BB14FF042
S31501009108E0234FF08052C3F8042D0020F2E7002334
S315010091181A46194600F073FA0128F6D0E8E76FF007
S315010091280300E7E74445002010B50446EFF305833D
S3150100913893B9EFF3108313B9EFF311831BB1094BFD
S315010091481B68022B08D054B1204600F0A3FC204628
S3150100915800F0B8FC002010BD6FF00500FBE76FF0CA
S315010091680300F8E74445002070470000034B0360FD
S31501009178034B0B60A0231360704700BFE444002033
S3150100918864420020034B0360034B0B60A02313606A
S31501009198704700BF04420020843F00204FF0FF3291
S315010091A800F10803C0E90223436003610023036059
S315010091B8704700230361704730B50C68631C0AD1F8
S315010091C803695A684A6091608B605960036808614F
S315010091D80133036030BD00F1080213465268156871
S315010091E8A542FAD9EDE743689A684B608A605160EF
S315010091F89960036808610133036070470369D0E920
S3150100920801128A6051605968814208BF5A6000227A
S3150100921802611A68013A1A601868704710B54FF06A
S31501009228807440E90224184A4FF0123440F80C2C95
S315010092384FF003324FF0023C40E905244FF001326A
S3150100924840F8203C40E9072C4FF010334FF011321B
S315010092584FF0093440E90A324FF008334FF0073C22
S3150100926840E90C344FF006334FF0053240E90E3C25
S315010092784FF0043340E910326FF0430340F8443CA1
S3150100928840F8481D10BD00BFC9F800014FF0E022A3
S3150100929800234FF47A7113619361044B1B68B3FB86
S315010092A8F1F3013B536107231361704710580020FE
S315010092B84FF0E02310B50024D3F8202D42F47F02A5
S315010092C8C3F8202DD3F8202D42F07F42C3F8202D74
S315010092D8FFF7DCFF044B1C6000F07AF800F0ECFFA6
S315010092E80EF0C2DB204610BD4C5800204FF0E0239B
S315010092F84FF08052C3F8042DBFF34F8FBFF36F8F22
S315010093087047000008B500F075F8044A1368013380
S315010093181360BFF34F8FBFF36F8F08BD4C58002002
S31501009328044B1A681A68013A1A60186808B900F0F5
S315010093386CB870474C58002010B500F05BF804462D
S3150100934800F070FE28B14FF0E0234FF08052C3F8C9
S31501009358042D2046BDE8104000F057B8836913F87C
S31501009368023C022B0FD14FF0E023D3F8882D42F4AB
S315010093787002C3F8882DD3F8342F42F04042C3F85F
S31501009388342F00F005B87047000000000000000007
S315010093980B4A1168086806C881F30B88022181F314
S315010093A81488203080F30988BFF36F8F4FF00000CF
S315010093B880F31188104700BFAFF30080AFF3008038
S315010093C8904A002000000000000000000000000094
S315010093D807480068006880F3088862B661B6BFF37B
S315010093E84F8FBFF36F8F02DF00BF00BFAFF300805F
S315010093F808ED00E0EFF311804FF0300181F3118899
S31501009408BFF34F8FBFF36F8F704780F31188BFF398
S315010094184F8FBFF36F8F70470000000000000000F8
S31501009428EFF309801EF0100F08BF20ED108AEFF345
S315010094380B82734620E9FC0F114A116808604FF048
S31501009448300080F31188BFF34F8FBFF36F8F00F0A1
S3150100945833FF4FF0000080F31188094A1168086844
S31501009468B0E8FC0F13F0100F08BFB0EC108A82F3B6
S315010094780B8880F309881847AFF30080AFF30080A3
S31501009488904A0020000000000000000000000000D3
S315010094981EF0040F0CBFEFF30880EFF309800449AF
S315010094A8084700BFAFF30080AFF30080AFF3008039
S315010094B8BD11800010B5044600F098FD204612F053
S315010094C895DA044600F03AFE204610BD10B504466A
S315010094D840B100F08BFD204612F090DABDE810404D
S315010094E800F02CBE10BD70B50446FFF70BFF94F8CB
S315010094F8455004F124066DB2002D14DCFF2384F8CF
S315010095084530FFF70DFFFFF7FDFE94F8445004F1CF
S3150100951810066DB2002D12DCFF2384F84430BDE835
S315010095287040FFF7FDBE636A002BE7D0304600F0B6
S315010095388DFE08B100F00EFF013D6DB2DCE723692F
S31501009548002BE9D0304600F081FE08B100F002FF99
S31501009558013D6DB2DEE710B50446FFF7D3FEA46BF5
S31501009568FFF7DEFEB4FA84F0400910BD70B5164661
S31501009578026C0446856B42B906689EB9806800F09C
S315010095883DFFA6600135A56370BD6EB940681AF046
S31501009598C2DC6368226C1344A2686360934224BFE9
S315010095A8236863600020EDE7C0681AF0B4DC226C1A
S315010095B8E36851429B1A2268E36093423EBFA3685F
S315010095C85B18E360022EEDD10DB1013DEAE72846AD
S315010095D8D8E703461A6C084610B46AB1DC6899687C
S315010095E814448C4228BF1968DC6028BFD960D96841
S315010095F85DF8044B1AF08F9C5DF8044B7047F0B583
S31501009608044685B01D4601920E4600F0A9FEFFF7F5
S3150100961879FEA26BE36B9A421FD22A46314620464F
S31501009628FFF7A4FF636A1BB104F1240000F00EFEE4
S3150100963808B1FFF75BFEFFF773FE012005B0F0BD29
S31501009648FFF760FEA36BE26B9A42E6D80123019A03
S3150100965842B9FFF765FE0020F0E7022DDDD00023B1
S315010096681F46F4E713B902A800F03AFFFFF758FEC0
S3150100967800F0BCFCFFF746FE94F84430FF2B08BF08
S3150100968884F8447094F84530FF2B08BF84F8457078
S31501009698FFF746FE01A902A800F02EFF20BBFFF73F
S315010096A831FEA26BE36B9A4210D1FFF739FE01999D
S315010096B804F1100000F0A4FD2046FFF714FF00F0A6
S315010096C83DFD0028BCD1FFF711FE06E0FFF728FE95
S315010096D82046FFF708FF00F031FDFFF713FEA26BE6
S315010096E8E36B9A42B2D298E72046FFF7FCFE00F0F8
S315010096F825FDB0E738B100231A4619468360036091
S31501009708C360FFF77CBF7047F0B5044685B00E46C7
S31501009718019200F025FEFFF7F5FDA56B9DB13146D7
S315010097282046013DFFF755FFA563236933B104F1CF
S31501009738100000F08BFD08B1FFF7D8FDFFF7F0FD2B
S31501009748012005B0F0BD019B1BB9FFF7E9FD00201B
S31501009758F7E702A800F0C4FE2F46FFF7E1FD00F087
S3150100976845FCFFF7CFFD94F84430FF2B08BF84F87A
S31501009778447094F84530FF2B08BF84F84570FFF70D
S31501009788CFFD01A902A800F0B7FEF8B92046FFF7F8
S31501009798E2FEA8B1019904F1240000F031FD20464A
S315010097A8FFF7A1FE00F0CAFC08B9FFF79FFDFFF716
S315010097B8A9FDA56B002DB2D1019B002BCDD1C4E724
S315010097C82046FFF790FE00F0B9FCF0E72046FFF7C8
S315010097D88AFE00F0B3FC2046FFF7BDFE0028E6D05E
S315010097E8B5E72DE9F843044616461F468946FFF7AD
S315010097F801FEA26BE36B80469A4201D3022F20D168
S3150100980894F845503A46494620466DB2A36BFFF790
S31501009818ADFE6B1C10D1636A3BB104F1240000F064
S3150100982815FD10B10EB10123336001244046FFF73F
S31501009838ECFD2046BDE8F88301356DB284F8455044
S31501009848F3E70024F2E770B504460D46FFF7D2FDAB
S31501009858A26BE36B064693421BD994F84510013275
S31501009868FF294BB2A2630FD1636A3BB104F124000D
S3150100987800F0ECFC10B10DB101232B600124304638
S31501009888FFF7C3FD204670BD01335BB284F845304E
S31501009898F4E70024F3E72DE9F843044689469046A0
S315010098A8FFF7A8FDA56B0746C5B194F8446049467C
S315010098B8204676B2FFF78DFE013D731CA56313D1D1
S315010098C8236953B104F1100000F0C0FC28B1B8F1C6
S315010098D8000F02D00123C8F8003001253846FFF7EA
S315010098E894FD2846BDE8F883013676B284F84460CB
S315010098F8F3E7F0B5002585B0044601912E4600F040
S315010099082FFD2F46FFF7FEFCA36BA3B1013BA36313
S31501009918236813B900F0D8FDA060236933B104F1B7
S31501009928100000F093FC08B1FFF7E0FCFFF7F8FC24
S31501009938012005B0F0BD019B1BB9FFF7F1FC002022
S31501009948F7E716B902A800F0CBFDFFF7E9FC00F02E
S315010099584DFBFFF7D7FC94F84430FF2B08BF84F87A
S31501009968447094F84530FF2B08BF84F84570FFF71B
S31501009978D7FC01A902A800F0BFFD10BB2046FFF7DE
S31501009988EAFDC0B123683BB9FFF7BCFCA06800F04B
S31501009998F7FC0546FFF7C4FC019904F1240000F021
S315010099A82FFC2046FFF79FFD00F0C8FB08B9FFF71B
S315010099B89DFC0126A6E72046FFF795FD00F0BEFBB4
S315010099C8F7E72046FFF78FFD00F0B8FB2046FFF7C3
S315010099D8C2FD0028EDD0002DB1D0FFF793FC616AD6
S315010099E819B1236B1968C1F13801A06800F034FD7B
S315010099F8A3E710B50446FFF785FC236823B9A468D5
S31501009A08FFF78EFC204610BD0024F9E703680BB961
S31501009A18806870470020704770B5866804460D4611
S31501009A2800F092FC864204D10120E3680133E36029
S31501009A3870BD29462046FFF75CFF0028F8D0E36889
S31501009A480133E360F4E738B58568044600F07CFC29
S31501009A5885420BD1E368013BE3600BB1012038BDB8
S31501009A681A4619462046FFF7CAFDF7E70020F6E72A
S31501009A78002330B5064A52F8335002EBC3041DB928
S31501009A8842F83310606030BD01330A2BF3D1FAE78F
S31501009A9848450020002310B5084A52F83310DC0067
S31501009AA8814206D10021064A42F833102244516008
S31501009AB810BD01330A2BF0D1FAE700BF4C4500204F
S31501009AC84845002010B5FFF7E5FF90F846301BB969
S31501009AD8BDE81040FFF7FABC10BD70B504460D4647
S31501009AE81646FFF70FFC94F84430FF2B04BF0023FA
S31501009AF884F8443094F84530FF2B04BF002384F8DA
S31501009B084530FFF70DFCA36B2BB93246294604F104
S31501009B18240000F085FB2046BDE87040FFF7E3BC52
S31501009B2838B504460D46FFF7EDFBD4E90F314B4333
S31501009B382268D0185B1AA060626000201A44FF23CD
S31501009B48A063E26084F8443084F8453065B9236936
S31501009B5833B104F1100000F079FB08B1FFF7C6FB39
S31501009B68FFF7DEFB012038BD04F11000FFF716FBF5
S31501009B7804F12400FFF712FBF2E7F8B5064648435D
S31501009B8850300D461746FFF795FC044670B1002381
S31501009B9880F8463065B100F1500301212046C4E939
S31501009BA80F652360FFF7BCFF84F84C702046F8BDAB
S31501009BB80346F2E7024610B500210120FFF7DDFF53
S31501009BC80446FFF797FD204610BD10B502220C4644
S31501009BD80021FFF7D2FF00B1846310BD37B50D46EA
S31501009BE85021019101991C4601997BB1002D08BFAD
S31501009BF81A460121C3E90F0583F8461018461A606B
S31501009C08FFF78EFF9DF8183084F84C30204603B0D4
S31501009C1830BD002213B50B46009011460120FFF70F
S31501009C28DDFF0446FFF766FD204602B010BD134668
S31501009C38022213B5009200220C461146FFF7CEFF09
S31501009C4800B1846302B010BD10B590F85D300446CA
S31501009C583BB9006BFFF73AFC2046BDE81040FFF719
S31501009C6835BC012BF9D010BDF8B50646144B154D78
S31501009C781C6828680F460430FFF7C0FA731C07D121
S31501009C8837B1296810480431BDE8F840FFF7ABBA87
S31501009C982B68A4195C6007D30C4B18682968BDE8C2
S31501009CA8F8400431FFF788BA094B18682968043166
S31501009CB8FFF782FA074B1A68A24288BF1C60F8BDF3
S31501009CC8B8450020904A0020C045002000460020E3
S31501009CD8044600209C450020064A13681968064B6D
S31501009CE819B94FF0FF321A6070471268D2681268C4
S31501009CF8F9E700BF044600209C4500202DE9F04104
S31501009D080446FFF7FFFA2D4B2D4E1A682D4F0132E7
S31501009D181A603568002D43D134601B68012B1FD1A9
S31501009D28B84640460135FFF739FA382D08F11408C7
S31501009D38F7D1DFF8B880244D4046FFF72FFA2846B9
S31501009D48FFF72CFA2148FFF729FA2148FFF726FAE7
S31501009D582048FFF723FA204BC3F800801F4B1D60EC
S31501009D6814201F4A1368013313601E4A23641168BD
S31501009D78E36A8B4200FB037004F1040188BF136098
S31501009D88FFF731FAFFF7CCFA174B1B689BB133681B
S31501009D98DA6AE36A9A420ED2BDE8F041FFF7A6BA3B
S31501009DA8114B1A68E36A002ADAD13268D26A9A42F2
S31501009DB898BF3460D4E7BDE8F08100BFBC450020F8
S31501009DC8904A00203046002008460020EC45002035
S31501009DD8D8450020C0450020044600200046002042
S31501009DE8A0450020B4450020B04500201C460020AF
S31501009DF880B50F4C0F4F104D236833B90F4B1B68B5
S31501009E08012BF8D9FFF772FAF5E7FFF77BFAFB683A
S31501009E18DE68301DFFF7F2F92B68013B2B602368DA
S31501009E28013B2360FFF77CFA3046FFF70DFFE3E7B6
S31501009E38D4450020D8450020BC45002030460020E6
S31501009E482DE9F0470D46DDE90994960032460746A5
S31501009E58A521206B9846FEF70DFF236B043E1E4491
S31501009E6826F00706002D39D06B1E04F13302093599
S31501009E7813F8011F02F8011F09B1AB42F8D10023FB
S31501009E8884F83D30089D4FF0000A372D28BF372545
S31501009E98201DE562A564C4F84CA0FFF78AF9C5F14F
S31501009EA8380504F11800FFF784F943463A46304667
S31501009EB8216B2461A5616462C4F850A0C4F854A05A
S31501009EC8C4F858A084F85CA0FFF7A8F92060B9F196
S31501009ED8000F01D0C9F80040BDE8F08784F8345076
S31501009EE8D0E72DE9F043074685B090008846164627
S31501009EF89946FFF7DFFA054620B94FF0FF3005B05E
S31501009F08BDE8F0836020FFF7D5FA044698B100232F
S31501009F1880F85D300D9B056301930C9B32464146E3
S31501009F280290009338464B46FFF78AFF2046FFF713
S31501009F38E5FE0120E3E72846FFF7C8FADDE770B535
S31501009F48602686B00596059EDDE90B54059E8CB103
S31501009F5885B12563022584F85D5004AD01950A9DF6
S31501009F6802940095FFF76CFF2046FFF7C7FE049899
S31501009F7806B070BD00230493F9E7000030B500244C
S31501009F8889B007AA06A905A8CDE90544FFF7EEF8A1
S31501009F98059B079A0293069B0E49CDE900430E4895
S31501009FA82346FFF7CCFF80B100F020FB01280546C8
S31501009FB80BD1FFF71FFA4FF0FF32084B1A60084B17
S31501009FC81D60084B1C60FFF773F9074B1B6809B046
S31501009FD830BD00BFDCC60101511C80009C45002034
S31501009FE8B0450020B845002050580020024A1368A1
S31501009FF801331360704700BF98450020014B18686C
S3150100A008704700BFB8450020012906DC08B9044B92
S3150100A0181868143150F8210070470020704700BFB6
S3150100A028904A00203A4B2DE9F74F1B68002B68D15F
S3150100A038384B1C6801341C606CB9374B1A681268B6
S3150100A048364A1968106818601160354A1368013371
S3150100A0581360FFF741FE334D4FF0000B2B68324E6C
S3150100A068A342324F12D914213A68D26A4A43B258E6
S3150100A078022A2F4A28BF4FF0010B1268002A18BF7F
S3150100A0884FF0010B584603B0BDE8F08FDFF8889012
S3150100A098DFF8A4A0D9F8002012681AB94FF0FF32E8
S3150100A0A82A60E0E7D9F80020D268D2F80C80D8F8FF
S3150100A0B804108C4201D22960D5E708F10403184639
S3150100A0C80193FFF79BF8D8F8281019B108F1180081
S3150100A0D8FFF794F81423D8F82C00DAF80010884210
S3150100A0E888BFCAF80000019903FB0060FFF77BF8F7
S3150100A0F83868D8F82C10C26A914228BF4FF0010B74
S3150100A108C8E70C4A4FF0000B136801331360B9E72F
S3150100A11898450020B8450020044600200046002046
S3150100A128A44500209C45002030460020904A002086
S3150100A138A8450020AC450020B44500202DE9F04192
S3150100A148274C2368FFF7DEF82368013B2360246860
S3150100A1582CB10024FFF7E4F82046BDE8F081214B35
S3150100A1681B68002BF5D0204D204EDFF890801DE0AE
S3150100A178EB68DC68271D04F11800FFF73FF838463D
S3150100A188FFF73CF81420E36A326800FB0380934228
S3150100A198394688BF3360FFF726F8154BE26A1B6814
S3150100A1A8DB6A9A4202D30122124B1A602B68002BF2
S3150100A1B8DED10CB1FFF790FD0F4D2C6844B1012794
S3150100A1C80C4EFFF72FFF00B13760013CF9D12C6027
S3150100A1D8084B1B68002BBCD0FFF788F80124B9E7A8
S3150100A1E898450020BC450020EC450020B4450020D8
S3150100A1F8904A0020A8450020AC45002030460020A2
S3150100A20810B50C46054B19681831FEF7D5FF2046DF
S3150100A218BDE810400121FFF727BD00BF904A002085
S3150100A22838B514460D46084B19681831FEF7DBFF99
S3150100A238002C214608BF2846BDE8384018BF4FF014
S3150100A248FF30FFF711BD00BF904A002038B5C3683B
S3150100A258DC6804F118052846FEF7D0FF104B1B6889
S3150100A268DBB9251D2846FEF7C9FF0E4A14201168D9
S3150100A278E36A8B42294688BF13600B4A00FB032019
S3150100A288FEF7B1FF094BE26A1B68DB6A9A4285BF92
S3150100A2980120074B0020186038BD29460548EFE71D
S3150100A2A898450020B445002030460020904A0020F9
S3150100A2B8A8450020EC450020F8B51E4B1A681E4B30
S3150100A2C812B101221A60F8BD1C4C1A6023681B6B77
S3150100A2D81A68B2F1A53F0BD15A68B2F1A53F07D169
S3150100A2E89A68B2F1A53F03D1DB68B3F1A53F04D063
S3150100A2F8206821683431FEF737FF1427104E114ABA
S3150100A308316807FB01F3D558D0188DB14568083374
S3150100A3186D6813449D4208BF6B68456008BF43607A
S3150100A328142303FB01225368DB6823603160CAE703
S3150100A3380139E6E798450020A8450020904A002003
S3150100A348B445002030460020014B1868704700BF0D
S3150100A358904A00200122014B1A607047A845002047
S3150100A368054B1B6833B1054B1868B0FA80F04009F4
S3150100A3784000704701207047B045002098450020ED
S3150100A388F8B5044638B31A4DC36A2A68D26A9342A5
S3150100A39826D28269174E002AA1BF2A68D26AC2F15B
S3150100A3A838028261142202FB036342699A4213D17D
S3150100A3B8071D3846FEF722FF14202B680E4ADB6A72
S3150100A3C8116800FB03608B42E362394688BF13605C
S3150100A3D8FEF709FF0120F8BD2B68DB6AC362F9E7BE
S3150100A3E82B68806CDB6A98422CBF00200120F2E7BB
S3150100A3F8904A002030460020B445002038B504466E
S3150100A40808B9002038BD114BC16A1B68826CC36C40
S3150100A418914203F1FF33C364F3D0002BF1D1051D3B
S3150100A4282846FEF7EBFE1420A36CC3F13802A2619D
S3150100A438074AE36211688B4288BF1360054A2946B9
S3150100A44800FB0320FEF7CFFE0120DBE7904A002040
S3150100A458B44500203046002070B5044660B3836CCD
S3150100A468994238BF1946C36A8B4225D0C26C012A64
S3150100A47822D1124A124D12688269C162002A4FF02E
S3150100A488140202FB03534269A4BFC1F13801816179
S3150100A4989A4211D1061D3046FEF7B0FE1420094A2C
S3150100A4A8E36A116800FB03508B423146BDE87040F0
S3150100A4B888BF1360FEF797BE70BD00BF904A0020A3
S3150100A4C830460020B4450020044B1A681AB11968B1
S3150100A4D8CA6C0132CA641868704700BF904A0020E6
S3150100A4E8034B1B680360034B1B684360704700BF3F
S3150100A4F8A4450020B845002070B50D460446FEF770
S3150100A50801FF0F4B19682B685A1C17D00D4826688E
S3150100A51800686268864208D08A4206D80023012468
S3150100A5282B60FEF7FDFE204670BD881A8342F5D9D9
S3150100A5385B1A134420462B60FFF7D2FF0024F0E78D
S3150100A548B8450020A4450020914208B54160006144
S3150100A5580AD8D21A83699A420DD2084B011D186886
S3150100A568FEF72AFE002008BD9A4201D2994202D27C
S3150100A578034B011DF3E70120F5E700BFF04A002070
S3150100A588F44A0020F7B5114CFEF7BCFE2568BDB9A3
S3150100A5980F4F104E3846FEF701FE3046FEF7FEFD18
S3150100A5A80D4B10211F600D4B0A201E600C4A0D4BE6
S3150100A5B80095FFF713FB206010B10B49FFF758FA16
S3150100A5C803B0BDE8F040FEF7ABBE00BFEC4A002081
S3150100A5D80C4B0020F84A0020F44A0020F04A0020DB
S3150100A5E868560020984A0020E1C6010110B588B0D6
S3150100A5F8FFF7C8FF0E4B00241868B8B107AA06A9C9
S3150100A60805A8CDE90544FEF7BDFD059B079A02930A
S3150100A618069B084901932823074800932346FFF719
S3150100A6288EFC064B1860001B18BF012008B010BD30
S3150100A638EC4A0020E6C6010175258000E84A00209B
S3150100A6487FB50F4C0546206816461A4680B105297E
S3150100A658CDE9001602950DDCFFF782FE00230228DC
S3150100A66818BF1A46694608BF089A2068FEF7C7FF49
S3150100A67804B070BD00236946FFF7B3F8F8E700BFD9
S3150100A688EC4A00202DE9F3470646FFF7B7FCDFF849
S3150100A69880800546D8F80030834209D91A4F3B68AD
S3150100A6A81A686AB9194A116813603960012300E00A
S3150100A6B8002328463360C8F8005002B0BDE8F08789
S3150100A6C8DB68DC68D3F8009004F1040A5046FEF70B
S3150100A6D895FD236A2046984794F828305B07DED50E
S3150100A6E8A3694B44994506D251463868636024618B
S3150100A6F8FEF762FDD3E700234A4619462046009332
S3150100A708FFF79EFFCBE700BFF44A0020F04A00207E
S3150100A718944A00202DE9F04700275E4D88B02B6842
S3150100A728D3F80080B8F1000F50D00024DB68D3F8C5
S3150100A7380080FFF75BFC04A8FFF7A4FF049B824691
S3150100A748554E002B5CD1002C47D140454BD3FFF722
S3150100A758F5FC2B68DB68D3F80C9009F10400FEF7C9
S3150100A7684DFD99F82830580732D5D9F818104346BF
S3150100A778524648464144FFF7E7FE30B12346424672
S3150100A788214648460094FFF75BFF4846D9F8203032
S3150100A79898470022306804A9FEF7B6FF0028BED004
S3150100A7A8049B0698002B2EDB069C6369002B31D18E
S3150100A7B803A8FFF767FF049B0246092BE9D8DFE8E0
S3150100A7C803F02D2D2D4C53612D2D4C530124B0E74B
S3150100A7D823F0010389F82830D7E7304B1B681C683A
S3150100A7E8B4FA84F4640922463068A8EB0A01FFF733
S3150100A7F874F9FFF7A3FC0028CBD1FEF777FDC8E76C
S3150100A808FFF79CFCC5E7059B07999847049B002B16
S3150100A818BFDBC9E7201DFEF7F1FCC9E794F828302C
S3150100A828A16943F0010384F82830059B20461944A1
S3150100A838FFF78AFE0028ACD0236A2046984794F889
S3150100A84828305907A5D50023A269059920460A4447
S3150100A85800971946FFF7F4FE9BE794F8283023F092
S3150100A868010384F8283094E794F8283043F001036B
S3150100A87884F8283005990346A16101442046FFF76B
S3150100A88863FE86E794F828309A07E8D42046FEF74F
S3150100A8981DFE7EE7F44A0020EC4A0020F04A00201B
S3150100A8A80348044B834202D0034B03B11847704750
S3150100A8B8906300209063002000000000064B0749C2
S3150100A8C8C91A891048BF0131491003D0044B0BB18D
S3150100A8D801481847704700BF906300209063002025
S3150100A8E80000000010B5064C237843B9FFF7D8FFDE
S3150100A8F8044B13B10448AFF300800123237010BD44
S3150100A9084056002000000000E0D8010108B5054BBB
S3150100A9181BB105490548AFF30080BDE80840FFF7BC
S3150100A928CDBF00BF00000000003A0020E0D80101B9
S3150100A938A3F5803A704700BF174B002B08BF134B8E
S3150100A9489D46FFF7F5FF00218B460F461348144A2B
S3150100A958121AF6F7BBD80E4B002B00D098470D4BB1
S3150100A968002B00D098470020002104000D000D4857
S3150100A978002802D00C48AFF3008009F073F92000D3
S3150100A988290011F012F808F04BFF00BF000008007B
S3150100A99800000000000000000037002000380020F9
S3150100A9A80C5800200000000000000000012903BF28
S3150100A9B8034B00201B78A62008BF1370704700BF01
S3150100A9C861560020022938B514461D460FD12022AA
S3150100A9D800210848F6F77AD83CB1202D2A462146A7
S3150100A9E828BF2022034811F0C2F9002038BDA6204D
S3150100A9F8FCE700BF41560020104608B56AB163B1AD
S3150100AA0802290CD1202B28BF20231A46029B05496F
S3150100AA181A6011F0ACF9002008BD2F20FCE7A6202A
S3150100AA28FAE700BF41560020012905D102B1127883
S3150100AA38024B00201A707047A62070476156002005
S3150100AA482DE9F0431D46002389B0074608460E4600
S3150100AA581446CDE9053300F03FFC18B9D82009B0F2
S3150100AA68BDE8F083304605A900F098FC0028F6D128
S3150100AA78204600F031FC0028F0D0204606A900F057
S3150100AA888DFC0028EBD1DDE90596079007A9184842
S3150100AA9800F084FC044600BB079919EB01081ED196
S3150100AAA80EB110F0C7FF022009F02DFEA0B1079BD9
S3150100AAB8022100931F203B46CDE901960D4A09F074
S3150100AAC815FE6B689E4210D832464146286811F039
S3150100AAD84EF96B689E42E4D86E602046BFE70220B5
S3150100AAE809F011FE0028ECD0E1E71924F5E700BFCB
S3150100AAF821720800F0C10101014800F049BD00BFFB
S3150100AB0800720800002307B50348019301AB00F062
S3150100AB1869FC03B05DF804FB00720800014800F007
S3150100AB2807BD00BF0C72080010B506480C4600F0B8
S3150100AB380DFC40F20123984202BF4FF6F173002043
S3150100AB48238010BD0C720800014800F021BD00BF2A
S3150100AB580D720800002307B50348019301AB00F005
S3150100AB6841FC03B05DF804FB0D720800014800F0D2
S3150100AB78DFBC00BF0B72080010B506480C4600F092
S3150100AB88E5FB40F20123984202BF48F20103002087
S3150100AB98238010BD0B720800014800F0F9BC00BF04
S3150100ABA80E720800002307B50348019301AB00F0B4
S3150100ABB819FC03B05DF804FB0E720800014800F0A9
S3150100ABC8E7BC00BF10720800002307B503480193CC
S3150100ABD801AB00F007FC03B05DF804FB1072080036
S3150100ABE8014800F0D5BC00BF11720800002307B563
S3150100ABF80348019301AB00F0F5FB03B05DF804FBD4
S3150100AC0811720800014800F0C3BC00BF12720800A7
S3150100AC18002307B50348019301AB00F0E3FB03B03A
S3150100AC285DF804FB12720800014800F081BC00BF00
S3150100AC381872080010B505480C4600F087FB40F26B
S3150100AC480123984204BF0020208010BD1872080015
S3150100AC58014800F09DBC00BF0F72080073B50026BD
S3150100AC6801AB0E480C461546019600F0BBFB40F2B7
S3150100AC78012398420BD164B10C2D0CD920462A46E2
S3150100AC88074911F00AF830462C4404F8016C02B061
S3150100AC9870BD0B20FBE71920F9E700BF0F7208000A
S3150100ACA80EC20101014800F073BC00BF047208001E
S3150100ACB8014800F097BB00BF04720800014800F084
S3150100ACC881BC00BF1F720800014800F0E1BB00BF4C
S3150100ACD81F720800014800F02BBC00BF077208006C
S3150100ACE837B512480D4600F031FB40F20123984270
S3150100ACF8044604D14FF470632B80002014E098B900
S3150100AD082B88B3F5805FF8D3012009F0FCFC50B11C
S3150100AD184FF4BF732F220121CDE900322046044B9F
S3150100AD28044A09F0E3FC2F2003B030BD077208007E
S3150100AD381BC201013BC20101014800F011BC00BF61
S3150100AD480872080010B506480C4600F027FB40F2C9
S3150100AD580123984202BF4FF47A730020236010BD85
S3150100AD6808720800014800F013BC00BF0972080008
S3150100AD78014800F037BB00BF09720800014800F01E
S3150100AD8807BC00BF0A720800014800F02BBB00BFD0
S3150100AD980A7208000B46024A02490348FFF750BEE9
S3150100ADA827720800267208004CC201010B46024AA6
S3150100ADB802490348FFF744BE2572080024720800B9
S3150100ADC868C201010B46024A02490348FFF738BE29
S3150100ADD823720800227208008EC20101022307B5F8
S3150100ADE8D1E9001201A8019307F084FC18B9019969
S3150100ADF8024800F0B5FB03B05DF804FB20720800B9
S3150100AE081FB5022003900698009003A807F08AFC54
S3150100AE1818B90399024800F0A3FB05B05DF804FBD5
S3150100AE2820720800002370B5154886B00D461646EF
S3150100AE38049300F051FA08B3114804A900F0AEFAD8
S3150100AE48D0B9049B3246002B08BF0223294605A820
S3150100AE58059307F0D1FC0446022009F054FC50B1D1
S3150100AE6802947368022101936B681F200093054AB7
S3150100AE78049B09F03BFC204606B070BDD824EBE7DD
S3150100AE8820720800A7C20101014800F069BB00BF92
S3150100AE9821720800014800F081BA00BF217208003A
S3150100AEA8014800F075BB00BF29720800014800F08F
S3150100AEB899BA00BF29720800014800F083BB00BF98
S3150100AEC805720800014800F0E3BA00BF05720800E0
S3150100AED8014800F015BB00BF28720800014800F0C0
S3150100AEE80DBA00BF28720800032307B5D1E900127D
S3150100AEF801A8019300F010F918B90199024800F068
S3150100AF082FFB03B05DF804FB3072080000200A4BE2
S3150100AF1810B5186032B9094C2146BDE810400848F9
S3150100AF2800F01EBBA1F580518C18064800F04AF9BD
S3150100AF38204608F04FFCEFE7183A00200080380158
S3150100AF48217208002C3A00202DE9F74F1C460023F0
S3150100AF5880460F46254801A91646019300F01EFAB8
S3150100AF6838BB234D01992B681BB9224800F034F9E7
S3150100AF78F8B9D4E9009313F00301DDF804B0D5F864
S3150100AF8800A0D8F828200DD003F10408A8EB010881
S3150100AF98424511D3A8EB030209EB0300FF21F5F79C
S3150100AFA895DD43464A4613480BEB0A0100F030F992
S3150100AFB820B103B0BDE8F08F1920FAE738462968B1
S3150100AFC800F0CEFA0028F4D13046616800F0C8FADC
S3150100AFD80028EED12B6862680020134413F03F0263
S3150100AFE81CBF40339B1A2B60E3E700BF21720800A0
S3150100AFF8183A00202C3A002008B5034A0B460349A3
S3150100B008FFF7A2FF08BD00BF2772080026720800D5
S3150100B01808B5034A0B460349FFF796FF08BD00BF6B
S3150100B028257208002472080008B5034A0B4603492D
S3150100B038FFF78AFF08BD00BF2372080022720800C5
S3150100B0481FB513460022039203AA019220220092F9
S3150100B0580A46014604480EF068FB002814BFAC20D6
S3150100B068002005B05DF804FB09000002014B09F058
S3150100B0788EBA00BFBB44010130B4084BD3E8EF2FA9
S3150100B088541CC3E8E54F002DF8D1002A02DC30BC78
S3150100B09800F026B8002030BC704700BF1C3A0020DB
S3150100B0A82A2828BF002010B4074C04EB8000074C5F
S3150100B0B8D4E8AF4F1CB1A4465DF8044B60475DF870
S3150100B0C8044B09F029BB00BFF2C20101203A002056
S3150100B0D8024BD3E88F0FC0B2704700BFAC590020AE
S3150100B0E808B50A4BD3E8EF2F511CC3E8E01F002827
S3150100B0F8F8D1002A07DD064B06481B68D96808F00F
S3150100B10889FC10F097FC002008BD00BF243A0020F6
S3150100B1185C5900209AC3010170B5044688B00068DD
S3150100B1280D46164609F0F9FA23684FF4007107939C
S3150100B13801230B4A02A8CDE902230A4B3246CDE97F
S3150100B148041300232946069301AB0EF0BEF9014606
S3150100B15818B1054808F038FDAC2008B070BD00BF2D
S3150100B168002480000010C004CDC30101014B196001
S3150100B178704700BF283A0020014B1960704700BF8D
S3150100B188283A0020054BD3F8942003F580534260F2
S3150100B1984FF4003200201A67704700BF008000A3F1
S3150100B1A8014B0360704700BF38C4010110B504465E
S3150100B1B8034B082103600BF0D7FB204610BD00BFE7
S3150100B1C838C4010108B502F043F910B901480AF07B
S3150100B1D89EF908BD343A0020002313B50C460B48E6
S3150100B1E8694601AA009302F0A5FA58B9009B24F012
S3150100B1F87F4223F07F439A4206D90122214603481A
S3150100B20802F0F2FA02B010BD2E20FBE7343A002014
S3150100B21873B51E4600230C46154669460B4801AA16
S3150100B228009302F087FA60B9009B24F07F4223F06D
S3150100B2387F439A4207D933462A462146034802F0F4
S3150100B248EDFA02B070BD2E20FBE700BF343A0020AC
S3150100B2580448054B054A036000230549436010F07D
S3150100B268E2BB00BF2C3A002038C401010C5800206B
S3150100B278A9B1000137B50E4D2C686CB903232246D6
S3150100B2882146009301200B4BF6F7D4DB23462246D1
S3150100B29821462860F6F7DFD8286808B910F0CAFBF6
S3150100B2A84FF0FF3103B0BDE83040F6F74E9A00BFC4
S3150100B2B8A83A0020583A0020064B10B5186808B974
S3150100B2C810F0B8FB0023BDE810401A461946F6F7F8
S3150100B2D8C29800BFA83A002007B5014606486A4643
S3150100B2E801AB006801F042FD09F048FAB0FA80F0B6
S3150100B2F8400903B05DF804FB2C5900207FB50023F3
S3150100B30804460D468DF8073009F044FAC0B10E4ED1
S3150100B3182146306803AB02AA01F028FD09F02EFA8E
S3150100B32860B92146039B30680DF1070201F098FCCC
S3150100B33809F024FA10B99DF807302B7004B070BDD6
S3150100B34840F20120FAE700BF2C5900207FB50023FF
S3150100B35804460D46ADF8063009F01CFAC0B10E4E8A
S3150100B3682146306803AB02AA01F000FD09F006FA8E
S3150100B37860B92146039B30680DF1060201F070FCA5
S3150100B38809F0FCF910B9BDF806302B8004B070BD80
S3150100B39840F20120FAE700BF2C5900207FB50023AF
S3150100B3A804460D46039309F0F5F9B0B10C4E214652
S3150100B3B8306802AB01AA01F0D9FC09F0DFF950B9EE
S3150100B3C82146029B306803AA01F04AFC09F0D6F926
S3150100B3D808B9039B2B6004B070BD40F20120FAE75F
S3150100B3E82C5900202DE9F0431D46002385B02B601A
S3150100B3F807460E46914609F0CDF900283ED0DFF8FA
S3150100B4088C803946D8F8000003AB02AA01F0AEFCDD
S3150100B41809F0B4F90446B8B9039B93B3C6B14B45D1
S3150100B42831D232463946D8F8000001F019FC09F044
S3150100B438A5F9D8B9039B012B03D13378003B18BF73
S3150100B448012300222B60F254204605B0BDE8F083A3
S3150100B458012B01D02B60F7E73946D8F800000DF12A
S3150100B468070201F0FDFB09F089F908B10446EBE78B
S3150100B4789DF8073003B103982860E5E740F20124F7
S3150100B488E2E71E24E0E71924DEE700BF2C59002075
S3150100B4982DE9F7431D4600232B6006460F469046C5
S3150100B4A809F078F900B3DFF854906A463146D9F8BD
S3150100B4B8000001AB01F05AFC09F060F9044678B9BD
S3150100B4C8019BA3B167B1434513D83A463146D9F82A
S3150100B4D8000001F0C5FB09F051F960B9019B2B6029
S3150100B4E8204603B0BDE8F08340F20124F8E71E24A4
S3150100B4F8F6E71924F4E70446F2E700BF2C590020C1
S3150100B50813B504468DF8071009F044F958B10748F0
S3150100B5180123214600680DF1070201F05DFB09F0E0
S3150100B5282DF902B010BD2F20FBE700BF2C590020D2
S3150100B53813B50446ADF8061009F02CF958B10748B9
S3150100B5480223214600680DF1060201F045FB09F0C8
S3150100B55815F902B010BD40F20120FAE72C59002076
S3150100B56813B50446019109F015F958B104230748A2
S3150100B578214600680DEB030201F02EFB09F0FEF8E7
S3150100B58802B010BD40F20120FAE700BF2C59002095
S3150100B59810B5044609F0FEF868B179B10848012AE0
S3150100B5A81346006838BF01230A46214601F014FBF9
S3150100B5B809F0E4F810BD40F20120FBE72F20F9E776
S3150100B5C82C59002010B5044609F0E4F858B101B920
S3150100B5D862B90748134600680A46214601F0FCFA93
S3150100B5E809F0CCF810BD40F20120FBE72F20F9E75E
S3150100B5F82C59002008B503480BF0E8F8BDE80840C7
S3150100B60810F0DCB914C6010101480BF0DFB800BF20
S3150100B61814C601010348044A0449121A921009F092
S3150100B628EEB800BFA8810001A8A80001000000200B
S3150100B6384FF000602DE988484049414B414AD3F80B
S3150100B648943088660221012B3F4B4FF00000996028
S3150100B6584FF0005143D80025002600275FF0000867
S3150100B6685FF000095FF0000A5FF0000B5FF0000C65
S3150100B678501A4FF48073B0FBF3F404FB03F40C4443
S3150100B688A14210D2A1E8E01FA1E8E01FA1E8E01F4E
S3150100B698A1E8E01FA1E8E01FA1E8E01FA1E8E01F7B
S3150100B6A8A1E8E01FECE7914202D241F8045BFAE710
S3150100B6B80522254B9A604FF00062A3F540539A661E
S3150100B6C800F04CF8FFF7A6FF204B21498B4228D3FF
S3150100B6D80020204B20498B422ED3FFF72DF9501A13
S3150100B6E84FF02003B0FBF3F404FB03F40C44A1422E
S3150100B6F804D291E8E01FA1E8E01FF8E7914203D2DE
S3150100B7080D6841F8045BF9E7D2E7186850F822405A
S3150100B718586840F82240013298688242F5D30C33C2
S3150100B728D4E70022F8E71C6844F8220001325C6875
S3150100B738A242F8D30833CEE70022F8E7005080404A
S3150100B748008000A30000082000908040E8D801018D
S3150100B758F4D80101F4D80101F4D80101044B054AD2
S3150100B7689A60D3F8882042F47002C3F8882070479B
S3150100B77800ED00E000800001002307B52948019388
S3150100B7880BF024F84FF44073012204216846ADF802
S3150100B798003000F0A1F80122234B0520C3F8442408
S3150100B7A801A9F4F793DC002839D1204BD3F8F0200E
S3150100B7B842F00102C3F8F020D3F8FC2042F080726F
S3150100B7C8C3F8FC201A4AA3F55D431A60019B194A7E
S3150100B7D803F5D52303F2FC43B3FBF2F3164A013B07
S3150100B7E813610223C2F8F0304FF48073C2F80433B0
S3150100B7F84FF06043114AC3F8B02F114AC3F8802E9F
S3150100B808D3F8002E42F48072C3F8002EFF2283F883
S3150100B8182020D3F8002E22F48072C3F8002E03B03C
S3150100B8285DF804FB14C6010100D0834000ED00E079
S3150100B838FF030040F8590D00000004E055CEACC5E1
S3150100B848090001002DE9F04104460C254FF00108D5
S3150100B858124E0CB314F001000BD0002024F00104A1
S3150100B86805FB00625768002FF3D09168C0B2B8474C
S3150100B878EFE72246013020284FEA520201D0D307CA
S3150100B888F8D508FA00F20F2824EA0204E8D9103894
S3150100B89805FB0062B432E5E7BDE8F081AC3A002069
S3150100B8A808B50C480AF092FF2A2003F0B3FA28B12A
S3150100B8B82A2003F0BDFA2A200AF090FF2B2003F074
S3150100B8C8A9FA28B12B2003F0B3FA2B200AF086FF38
S3150100B8D8002008BD14C601012DE9F0410E46904627
S3150100B8E8054620B30F2924D803783BB1012B03D091
S3150100B8F8022B1AD0032B1CD1072300E01F236A78D9
S3150100B908D340DB0715D50D4BD3F810439CB9F4F793
S3150100B9182DDE074642462846314601F035FD3846B2
S3150100B928F4F71FDE2046BDE8F0813F23E7E722242E
S3150100B938F8E72124F6E70224F4E700BF00C08340B4
S3150100B94808B501F017FD054B00F0553020F05020E1
S3150100B958C3F82004BDE80840FFF774BF00E0834040
S3150100B96808B501F007FD054B00F0AA3020F0A0202C
S3150100B978C3F82004BDE80840FFF764BF00E0834030
S3150100B9882DE9F04F144606460D469B46036C87B0D3
S3150100B99801225B6902A960689847336C01225B69D9
S3150100B9A803A92846984702A809F06FFC074648B13B
S3150100B9B80023A37563754FF0FF33A360002007B01A
S3150100B9C8BDE8F08F03A809F06DFC0123A375237E5A
S3150100B9D804EBC303DD611F846368AB420ED12060AB
S3150100B9E803A809F081FC4FF0FF332075A360237D7E
S3150100B9F8043B022B26D80023A375DFE723681A1A0E
S3150100BA0853425341A37503A809F06EFC237D834273
S3150100BA1818BFA77503A809F049FC074602A809F04B
S3150100BA2845FC874218BF002303A818BFA37509F070
S3150100BA3845FC074602A809F041FC87421CBF0023C2
S3150100BA48A375D4E703A809F031FC80B1336C02224F
S3150100BA5828465B6904A9984704A809F036FC0346F9
S3150100BA68207D032839D8DFE800F03838040903A80F
S3150100BA78F3E7CC22237E04EBC3031A8401F0F0FB1F
S3150100BA88109B187003A8277E09F004FC04EBC7076E
S3150100BA9887F82200237E03A804EBC303B3F820909A
S3150100BAA893F8227009F002FC804603A809F006FC07
S3150100BAB88246B8F1000F15D0336C022228465B691D
S3150100BAC804A9984704A809F0C5FB6075637D6BB99D
S3150100BAD80023A3754FF0000838E0227E04EBC2026A
S3150100BAE81384CBE703A809F0A0FBEEE794F81680C8
S3150100BAF8B8F1000FEED0B9F1000F09D1DFB101237A
S3150100BB08627EE375002A44D19F4218D1677614E014
S3150100BB18F36C05EB0A02594285EA020008421CBF8A
S3150100BB280021A175591E0A409B1A9945D0D8A37DB3
S3150100BB38002BE3D1CEE7E37D43B94FF000084B462E
S3150100BB4852462946304608F0B6FFA060A27D12B1DA
S3150100BB5823694B4423611449237E097899421ED9E6
S3150100BB6801332376BBF1000F1BD0D2B1E37DC3B1FC
S3150100BB78B8F1000F15D1032F13D0A1684B1C10D0B3
S3150100BB88109B2246009330460123FFF7F9FEA07564
S3150100BB9807E0012FDAD0032F08BFA376CDE70023EC
S3150100BBA8A375A07D0BE700BFECC401012DE9F04F99
S3150100BBB80E46984600238BB004464FF0FF311046D7
S3150100BBC817468DF8133001F035FBB6F5801F3BD3C8
S3150100BBD8B21C53D1256B6B1C57D12046A16A08F0BC
S3150100BBE8B0FE0546B31C18BF0123DFF82491019363
S3150100BBF8A36AE26C0293236805A902FB053A236C42
S3150100BC0805225B695046984705A809F0D9FB09F052
S3150100BC18FCFB504609F004FC4FF0000B8246014636
S3150100BC284B1C05D0E36C81EA0A025B42134232D00F
S3150100BC382946204608F085FE029BAB424DD0BBF152
S3150100BC48000F4DD10546D3E7314605AA04F1080090
S3150100BC5809F045FA0146481C10D0384601F0EAFABF
S3150100BC680122394620460DF1130308F06DFF28B16C
S3150100BC789DF8133088F80030002003E0237C002B60
S3150100BC88A8D12D200BB0BDE8F08F2368ED1AE36C1F
S3150100BC98B5FBF3F5A6E7484601F0CCFA0DF1130317
S3150100BCA849462046019A08F04FFF034690B1B21C57
S3150100BCB803D0D9F80020B2420CD19DF81320039382
S3150100BCC8124B88F8002049461A68384610F04FF892
S3150100BCD8039B9B46D9F80810A2E7BBF1000FD0D009
S3150100BCE8B6F5801FC8D208343146204698F8003088
S3150100BCF87A6809F0FCF80028BED13146204698F842
S3150100BD0800307A6809F05EF9BCE700BFE8C40101B2
S3150100BD18603C00202DE9F3410446174698460E4635
S3150100BD28194DC16A236B8B422AD04B1C18E0284651
S3150100BD3801F080FA0122294620460DF1070308F091
S3150100BD4803FF30B14346294620469DF80720B847E8
S3150100BD58B0B1A9684A1C05D0012E0AD0236B9942B5
S3150100BD68E5D10DE06968204608F078FE012E014606
S3150100BD78D8D16B6881EA0302E36C5B421A42D1D0DF
S3150100BD8802B0BDE8F08100BF343C00202DE9F04146
S3150100BD98436B9046C26B07689A4288BFC363C26CFD
S3150100BDA8836A90B002FB0377036C0E46052201A94C
S3150100BDB85B6904463846984701A809F001FB012842
S3150100BDC80146307057D0E56C226C2368A06AD2F818
S3150100BDD814C005FB0030052206A9E04706A809F0AC
S3150100BDE8EFFA01284FF0000523D0D4E90B320121DF
S3150100BDF89342CDE90B458DF834800E958DF83C10AC
S3150100BE082AD11946204608F029FE636BE26C1433E1
S3150100BE189B1A206363630C9B53B99DF83C303BB175
S3150100BE28A26AE16C2368206C01FB023109F080FAF1
S3150100BE380C9D236C05225B6901A93846984701A820
S3150100BE4809F0BEFA30702846636BE26B9A4288BFE6
S3150100BE58E36310B0BDE8F081237C33B91C490BAA12
S3150100BE6804F1080001F07AF9D5E72046194A0BAB27
S3150100BE78FFF750FFCFE7237C23BB2246164904F17F
S3150100BE88080001F06BF9A16A204608F07BFDA16A5A
S3150100BE98421C204608F044FD054620B9636BE26C56
S3150100BEA81344143B63632046E16A08F0D7FD23680F
S3150100BEB8E062C01AE36CB0FBF3F0A062204608F01A
S3150100BEC810FEB6E700232046044AFFF723FFDAE708
S3150100BED8C1C600013DC60001EB4B0101874B0101BB
S3150100BEE873B50D46D11E4A421C461B7E4A419A42EB
S3150100BEF826D129682368994222D3636899421FD8B3
S3150100BF08114E0DF107033246FFF750FEC0B97268AC
S3150100BF186B689A4214D19DF80730DA1E5342534191
S3150100BF28227E93420CD1636901336361D4E9032309
S3150100BF38934205D22968A26842F823100133236186
S3150100BF48012002B070BD00BF8C3C00202DE9F04FE6
S3150100BF589A468BB09DF85030DFF850B10293DBF862
S3150100BF681030804653450D461646C0F09980D14695
S3150100BF78DBF804300193B9F1000F00F08D80D8F891
S3150100BF88403001225B6907A90198984707A809F07B
S3150100BF9889F9DBF80030984240F0858007A809F056
S3150100BFA88DF90428074614D107A809F08EF9019BD3
S3150100BFB8029A04463B44002A3FD1864212D91446C6
S3150100BFC8361A4046019908F049FDA9EB0409019082
S3150100BFD8D1E7D8F8403002225B69019808A9984749
S3150100BFE808A8E2E7841B544528BF5446032C03EBF3
S3150100BFF80607AAEB040A4FEA94021CD9D8F840307E
S3150100C008294638465B69984724F0030304F003067A
S3150100C0181F441D44002ED4D0D8F8403001225B6954
S3150100C02808A9384698473246284608A935440FF0E4
S3150100C0389EFE0026C5E72646ECE7074600F0030202
S3150100C048039203442A1804920593049BDD1B059B5E
S3150100C058D81B039B9F420FD1002FB2D0D8F840308E
S3150100C068012208A95B6998473A46284608A90FF0AC
S3150100C07827FE78B93D44A4E7D8F84030012208A93B
S3150100C0885B6998470422284608A90FF019FE08B9E2
S3150100C098043FDAE74FF0360948460BB0BDE8F08FA2
S3150100C0A84FF06309F8E74FF06F09F5E7B83C002050
S3150100C0B82DE9F0410F4616469846044688B060B306
S3150100C0C890F83850FDB1012108F000FC00210E9BC3
S3150100C0D8CDE90511CDE902379DF83C30CDF804804C
S3150100C0E88DF81C30237C04968BB90D4901AA04F1FD
S3150100C0F8080001F033F8DDE90553206C002E08BF6E
S3150100C1081D4608F07CFD284608B0BDE8F0812046AA
S3150100C118044A01ABFFF7FEFDEDE70546F3E700BF6D
S3150100C128B54B0101E9BE00012DE9F04F99B00F4663
S3150100C13809920A69C16C0C931439D31DB3FBF1F347
S3150100C148013302EBC302436B04469342C0F01982E2
S3150100C1580023DFF838940E93236B48461946079354
S3150100C16801F068F8D7E9033604930C9B022B4ED1EC
S3150100C178CC2E40F09681099B002B42D039462046A9
S3150100C18808F09BFDE56C079A6B1E13401490ED1A97
S3150100C198236C01225B6916A97868984716A809F0E5
S3150100C1A885F800280CBF04230823782E06933DD969
S3150100C1B8012300254FF0080A05933B6805990C9859
S3150100C1C8C9F80030C9F8106009F092F84FEA9A03E5
S3150100C1D810930023DDF81CB089F814000B930F9314
S3150100C1E808930D93E16C4A1E0BEA02028B1A002E84
S3150100C1F838D05544AB4240D8636B5B1A134463632A
S3150100C208ABE0049B1B68149308230693D0E7E56CFF
S3150100C218079A6B1E1340782EA5EB030516D8FB7DEE
S3150100C2287BB9099B002BB3D104230693331DAB427B
S3150100C23810D9A6B1082DBBD804250023AA46059313
S3150100C248BBE7099B002BA3D10823EEE7099B002B2B
S3150100C2589ED1D9E7002505954FF0040AADE70425D7
S3150100C2680596F9E75345C7D3B0460BEB0A03039383
S3150100C278089B002B18BF032313E0A3EB0A039E4276
S3150100C288B0460BEB0A0228BF98469E420392EFD9A5
S3150100C2980123D9F8102089F8173096427CD1C9F8BC
S3150100C2A804B0089399F81730002B77D099F818201D
S3150100C2B80899D31C09EBC3030132C3F804B0A3F8E8
S3150100C2C80880997289F81820B8F1000F14D00C9BD0
S3150100C2D8022B66D10B9B7BB90F9B4344032B0BD9CE
S3150100C2E8236C01229B69039814A9984705460028DF
S3150100C2F840F0498101230B93089B16A80193059BDE
S3150100C308009399F814204346396800F049FF236CD5
S3150100C31858469B69109A16A99847051E0E9B18BF81
S3150100C3285B4652460E9359464346204608F0C3FBE0
S3150100C338636B08F10302A3EB0A0322F003029B1ABB
S3150100C348C9F808006363002D40F01D810F9BDDF8D5
S3150100C3580CB04344A6EB08060F935946204608F04D
S3150100C3687DFB00258346002E7FF43CAF874D0834BC
S3150100C378AB686A68A362396820460C9B08F0B7FD6A
S3150100C388002840F0E98020460C9B6A68396819B094
S3150100C398BDE8F04F08F016BE022382E7C9F804B0DB
S3150100C3A892E7099B002B31D1049BB8F1030F434453
S3150100C3B80A9328D9DDE90301236C4FEA98029B69A0
S3150100C3C898470546002866D118F0030260D0049BF9
S3150100C3D828F003052B440493039B1D444FF0FF33B8
S3150100C3E8049915A815930FF0C2FC236C28469B697E
S3150100C3F8012215A9984705460A9B0493002D3FF487
S3150100C4087BAF039B8DE74246039DE7E7039B0A93B0
S3150100C41807F120031193FB7D78689BB100233D7ECC
S3150100C4280D9AD9B28D4211D9119903F1010C31F83E
S3150100C4383310914226D9069907EBC303D8690A44F2
S3150100C448104403E00D9B069A13441844236C0122F9
S3150100C4585B6915A99847159B012213930D9B0A98A9
S3150100C46804330D93236C13A99B699847039B0A9A76
S3150100C47843449B1A042B054607D978B91346043356
S3150100C4880A93C8E76346521ACBE70A9B0393B5E7B3
S3150100C4980A9B049330E70A9B0493B2E70A9B03932A
S3150100C4A8AFE7702604F1080303932368079AE06C43
S3150100C4B8A2EB030ABAFBF0FA00FB0A3008F0B0FF58
S3150100C4C8216B8046204608F0C9FAE26A82424AD0C0
S3150100C4D8E26CD9F80830511E0B40616B2568891A40
S3150100C4E80B4463630E9B20635D1BB5FBF2F5AA45FE
S3150100C4F836D1079BB3EB080A12D0236C4FEA9A028E
S3150100C50841469B6998478346236B079A534423639D
S3150100C518636B03989B1A4344636308F0D1FCDA46BC
S3150100C5282368E16C206C01FB053108F0EEFE20461C
S3150100C53808F0D7F9204608F0D4FA6063BAF1000F7B
S3150100C54811D03A69E16CD31D1439B3FBF1F3013308
S3150100C55802EBC3029042A8D2304619B0BDE8F08F6B
S3150100C5684FF0000ADCE73A69E16CD31D1439B3FBD5
S3150100C578F1F3013302EBC302636B9342BFF4ECADF3
S3150100C588EAE71C26E8E72E468CE700BF603C002058
S3150100C5982DE9F3471E4683690446B3428846174682
S3150100C5A89DF828903DD300258DF80750204608F0C0
S3150100C5B85FF9D4F834A082450AD2636AB5EB430F12
S3150100C5C806D2002220460DF10701FFF7DFFB30B343
S3150100C5D89DF80730012B05D1002220460DF10701F0
S3150100C5E8FFF7D4FBB9F1030F06D03146204608F010
S3150100C5F82AF9656B854218D30D4D4FF0FF31284650
S3150100C60800F018FE4B46002229462046C5E9037666
S3150100C618C5F8008002B0BDE8F047FFF785BD0135D2
S3150100C628C4E7622002B0BDE8F0871C20FAE700BF24
S3150100C6388C3C0020032A2DE9F34106460D46174690
S3150100C6481C4606D1237A012B23D0012002B0BDE86E
S3150100C658F081DFF86080096842460DF10703FFF7AC
S3150100C668A5FA60600028EDD19DF80720237A032AF0
S3150100C678E8D0D8F804106A689142E3D1012B2969F8
S3150100C688D4F80CC007D1B2690CEB0103934202D965
S3150100C6982074207CDAE708316144E1603B460122D7
S3150100C6A829463046FFF740FD60600028CAD00020C1
S3150100C6B8CCE700BF8C3C00202DE9F341089C032AF6
S3150100C6C81746266806D1237A012B24D0012002B009
S3150100C6D8BDE8F081DFF89080304642460DF1070348
S3150100C6E8FFF764FA60600028EDD12568D8F80400E0
S3150100C6F8E96AD5F84CC04840CCF100031840227AC3
S3150100C708E1D1012A09D1E268D8F810301344B26997
S3150100C718934202D92074207CD9E728682B6B1B1A0F
S3150100C728081AB3FBFCF3B0FBFCF083420BD1F06CA7
S3150100C738336B421E1340726B121A134428467363F5
S3150100C74808F08CF92863D8F81020E36808321344F6
S3150100C758E36001223B4604492068FFF7E5FC606077
S3150100C7680028B0D00020B2E78C3C00202DE9F04F1C
S3150100C7784FF0FF334FF6FF720025044600F1080615
S3150100C788C0E90A238DB003634562456330460F4607
S3150100C79808F096FB204608F0A4F820BB2046394647
S3150100C7A808F01FF9204608F09CF820BB5E200DB062
S3150100C7B8BDE8F08F226C2368E06CD2F814C000FB48
S3150100C7C80530052207A9E04707A808F0F9FD012861
S3150100C7D828D12946204608F0D5F8421C2946204684
S3150100C7E808F09EF80135236A9D42E3D3204608F0F6
S3150100C7F878F80028D2D000254FF0FF394FF6FF739D
S3150100C808CA46A846C4E90953236A984514D3A5EB31
S3150100C8180905012D36D84FF6FF72A36A934246D110
S3150100C8286720C4E708F0F6FD0028DBD02946204634
S3150100C83808F0A8F80246D1E72368226CE06C57692C
S3150100C84800FB0830052207A9B84707A808F0B8FD74
S3150100C858834607A808F08BFD0746584608F0D5FD1C
S3150100C86868B1574538BFC4F82880B94528BFB946C5
S3150100C878BD4238BF3D46BA46636A0133636208F171
S3150100C8880108C1E74FF6FF730025A362236A9D429B
S3150100C898C1D2E76C2068236C052207FB05005B699A
S3150100C8A807A9984707A808F062FD0135EEE7226C4B
S3150100C8B8E76C206802A907FB030055690522A8470A
S3150100C8C802A808F054FDA26A2368E06C5B4D00FBE0
S3150100C8D8023008F0A5FD4FF0FF33E06223632A46D4
S3150100C8E86FF0010120460DF10703FFF75FF90028F4
S3150100C8F85CD1AF6800252763236C01225B6907A910
S3150100C90878199847079B013352D1E36C0435EA1924
S3150100C9187A405B421A42EFD0656325B92046216BFE
S3150100C92808F09CF820633946204608F097F8054632
S3150100C938E36A9D423ED1A569E26CE91C143AB1FB52
S3150100C948F2F14FF0000805EBC1050335B5FBF2F529
S3150100C958C1460235236A99453ED3A8455CD220468D
S3150100C968A16A07F0EEFF0027064604F1480AB84512
S3150100C97812D8E26C236802A902FB0639236C052248
S3150100C9885B694846984702A808F0F1FC53460246F7
S3150100C9984946206C08F046FD3146204607F0D1FF8E
S3150100C9A80137AF420646E2D3642000E7E76AA1E70A
S3150100C9B80025B1E72946204607F06AFF636B294639
S3150100C9C8034407466363204608F048F80546002FE6
S3150100C9D8AED1C4E90C07ABE7E36C2768052203FB74
S3150100C9E80977236C07A95B693846984707A808F0B1
S3150100C9F8E7FC08F00AFD60B1384608F011FD01466A
S3150100CA08204607F045FFE36C143B984208BF08F13E
S3150100CA18010809F101099DE7304608F051FA00239A
S3150100CA2820461946064AFFF775F96369012B03D9AA
S3150100CA38304600F00BFABAE60020B8E68C3C002036
S3150100CA48754B01010023624A2DE9F04117680E462C
S3150100CA580446136018B921252846BDE8F08190F8E7
S3150100CA6838500DB309680268914240F0A98071688F
S3150100CA784268914240F0A480B1688268914240F0D0
S3150100CA889F80F168C268914240F09A803169826953
S3150100CA98914240F09580B169026C914240F09080D4
S3150100CAA872691D46C261D7E758222946D0F83C80EB
S3150100CAB8F4F70CD8D6E90212336804F108002360AA
S3150100CAC87368C4F83C8063603369A3617369E36181
S3150100CAD808F009FAB36904F1480023649B6898478A
S3150100CAE894F84B2020B12562002AB4D05B25B3E720
S3150100CAF8E56C002DF7D06668B6FBF5F32362002ACC
S3150100CB08A9D0B542F2D82268B2FBF5F105FB11228C
S3150100CB18002A57D105FB1363002B53D1204607F092
S3150100CB28A7FEE369043303449E424DD340F63472AB
S3150100CB38A369CC3B934249D8B5F5007FD6D30321E7
S3150100CB48204607F0C3FED4E90001236C1B68984709
S3150100CB580546236C0220DB6898471DB1002384F83B
S3150100CB6838301DE039462046FFF700FE64280546A1
S3150100CB7804D139462046FFF7F9FD0546E36C143B17
S3150100CB88002DEBD1626A204602FB03F607F070FE20
S3150100CB98E369043303449E4206D284F838505A2581
S3150100CBA8206C08F02CF857E70123D4E90001094A5B
S3150100CBB884F8383013680133136008F035FBEFE762
S3150100CBC85D2549E7592547E75A2545E75F2543E79F
S3150100CBD8183C0020143C00202DE9FF410F469046E1
S3150100CBE81E46054698B390F8383093B3B1F5801FC1
S3150100CBF831D21A4C022107F069FE224639462846E7
S3150100CC080DF10F03FEF7D2FF024678B10123424622
S3150100CC180093394633462846FFF7BAFC0446286C82
S3150100CC2807F0EDFF204604B0BDE8F0819DF80F300E
S3150100CC38012BEBD12169B142E8D100934146334634
S3150100CC482846FFF783F904460028DFD1E7E72124C0
S3150100CC58E8E71124E6E72924E4E700BFB83C002009
S3150100CC682DE9FF410C4616461F46054680B390F846
S3150100CC7838307BB3B1F5801F2ED2DFF860800121F1
S3150100CC8807F024FE2146424628460DF10F03FEF71A
S3150100CC988DFF044670B99DF80F30012B11D1D8F8D4
S3150100CCA81030BB4212D10246009031462846FFF7A2
S3150100CCB84DF90446286C07F0A2FF204604B0BDE8EA
S3150100CCC8F081022B14BF2D246024F3E76324F1E7D6
S3150100CCD82124F2E71124F0E72924EEE7B83C0020E5
S3150100CCE82DE9F04385B00C4617461E460546DDF884
S3150100CCF8308098B390F8383093B3B1F5801F31D2AC
S3150100CD08DFF86490012107F0E1FD21464A462846ED
S3150100CD180DF10F03FEF74AFF044688B99DF80F3057
S3150100CD28012B14D1D9F8102006EB08039A4213D324
S3150100CD3800904346324639462846FFF707F9044626
S3150100CD48286C07F05CFF204605B0BDE8F083022B8E
S3150100CD5814BF2D246024F3E76324F1E72124F2E7C5
S3150100CD681124F0E72924EEE7B83C00202DE9F34128
S3150100CD781F4600230C46164605463B6050B390F8FD
S3150100CD8838304BB3B1F5801F28D2DFF85480012122
S3150100CD9807F09CFD2146424628460DF10703FEF79A
S3150100CDA805FF0446A0B99DF80730032B10D0022BC6
S3150100CDB80AD10123336004233B60286C07F01FFF67
S3150100CDC8204602B0BDE8F081D8F810303060F3E7AC
S3150100CDD82D24F2E72124F3E71124F1E72924EFE7CB
S3150100CDE8B83C002030B50C46054685B028B390F806
S3150100CDF8383023B3B1F5801F23D2022107F066FD2F
S3150100CE080DF10F03214628460F4AFEF7CFFE0346CA
S3150100CE1888B99DF80F20032A0DD0032221460092D6
S3150100CE2802462846FFF7B4FB0446286C07F0E7FEDE
S3150100CE38204605B030BD2D24F7E72124F8E7112453
S3150100CE48F6E72924F4E700BFB83C00202DE9F04FA6
S3150100CE58C56889B0AC000590204609F031FDDFF8B8
S3150100CE683CB2DFF82CA2CBF80000204609F028FDD9
S3150100CE78CAF80000204609F023FDDFF81892DFF80A
S3150100CE881882C9F80000204609F01AFDC8F8000002
S3150100CE98204609F015FD7C4F3860204609F010FD43
S3150100CEA87A4B06461860DBF8003000240293DAF85C
S3150100CEB80030D8F800E0039301236A1ED9F800C0B0
S3150100CEC8D7F800800192019A9A42C0F0C1805A00AF
S3150100CED800920122013B0693009B0025013B049227
S3150100CEE8079367E0069B5C19019B9C4228BF1C4679
S3150100CEF8079B03EB0509019B994528BF9946AC4257
S3150100CF08C0F0A2804C4580F09F80029B002B00F068
S3150100CF189D80039B002B00F09980BCF1000F00F067
S3150100CF289580BEF1000F00F09180B8F1000F00F076
S3150100CF388D80002E00F08A800021049BEF0004EB0F
S3150100CF48030A059B1B688A4539D10027A9EB040BFF
S3150100CF5803EBC404A2680398C2F3130240F827201E
S3150100CF68E2684EF8272054F8082F46F8272001379B
S3150100CF78BB45EFD10022A946144603F1040AA14292
S3150100CF882FD8274603EBC90AB9420AF1080A47D836
S3150100CF980F1BA14238BF00274F4403EBC703934534
S3150100CFA803F1080346D80024009B009A1D44049BFC
S3150100CFB89B1A0493019BAB4294D8009B83E7DA59E9
S3150100CFC8029803EB070BC2F3130240F82120DBF8A2
S3150100CFD804204CF82120DA59083748F82120013174
S3150100CFE8B1E79345CDD9039850F82270029850F8C5
S3150100CFF82400B84295BF58F8247056F8227043F8B1
S3150100D008397043F8397096BF5CF824705EF822705F
S3150100D01801344AF8397088BF013209F10109AEE7CE
S3150100D02858F827004AF8080C5CF8270001374AF82F
S3150100D038040CA9E756F8221043F8081C5EF82210DA
S3150100D048013243F8041CAAE72124ADE71924ABE70A
S3150100D058029809F047FC0E4B186809F043FC0A4B85
S3150100D068186809F03FFC0B4B186809F03BFC074BA5
S3150100D078186809F037FC084B186809F033FC204694
S3150100D08809B0BDE8F08F00BF203C00201C3C002001
S3150100D0982C3C0020283C0020243C0020303C002069
S3150100D0A82DE9F041C76898464368FFB19F422CD9DC
S3150100D0B8B8F1030F25D023B305682E464FF0000CAF
S3150100D0C803E0634506F108061BD055F83C400CF110
S3150100D0D8010CC4F3075EBEF1030FF2D1C1F31301CC
S3150100D0E841EA0851C6E90012BDE8F0814BB105686D
S3150100D0F855F8374005EBC70601341ED0B8F1030FC2
S3150100D108DBD101230372BDE8F08105680024AC4632
S3150100D11855F834600134C6F3130E013601D0714552
S3150100D12816D0A7420CF1080CF2D19F42C0D255F88D
S3150100D138374005EBC7060134E0D1C1F3130141EAD3
S3150100D148085145F8371001377260C760BDE8F081AC
S3150100D15841EA0851CCE90012D5E700BF2DE9F041B3
S3150100D1680646406882B0C0B10F469046002433682F
S3150100D17853F8345003EBC403C5F30752C5F313013F
S3150100D188013504F1010406D05B683046CDF800800C
S3150100D198B84710B170688442E9D302B0BDE8F0819E
S3150100D1A873B504462248012A00EAC1119DF81850B0
S3150100D1B823F07C4007D9961E012E28D9073303F0A0
S3150100D1C87F03194308E09DF81C300A43DB0603F088
S3150100D1D8C053134343F060410023C4E900108DF89E
S3150100D1E80730B5B1202221460DF1070008F034F9C0
S3150100D1F81A220DF10700211D08F02EF9082063688F
S3150100D2089DF8072043EA8263636002B070BD11434B
S3150100D218E2E71B220DF10700214608F01DF92368F4
S3150100D2289DF80720042043EAC2632360EDE700BFA7
S3150100D23880FFFF0738B5094B0D461A6800210446D9
S3150100D248F3F744DC00234FF0FF322383C4E90025BA
S3150100D2582361A260E382A37638BD00BFE8C4010159
S3150100D2680138C0B205289ABF014B185C01207047E6
S3150100D278EDC401012DE9F0410746154600240E4685
S3150100D288596888B0490A012922464FEA510104F131
S3150100D2980104F8D8DC78997824031B88C90201F4BB
S3150100D2A8006104F480540C43C3F30A035203234474
S3150100D2B892B24FF000089C18274B6FEA0444039377
S3150100D2C825F07843ED4302A90DF107001B220293CD
S3150100D2D88DF8078008F0C0F89DF80720029B02A97F
S3150100D2E843EAC2630DF107001B2225F07845049332
S3150100D2F802958DF8078008F0AFF89DF80720029B84
